{"abi":[{"type":"constructor","inputs":[{"name":"qsToken_","type":"address","internalType":"address"},{"name":"veQSDistributor_","type":"address","internalType":"address"},{"name":"proverPool_","type":"address","internalType":"address"},{"name":"observerPool_","type":"address","internalType":"address"},{"name":"treasury_","type":"address","internalType":"address"},{"name":"admin_","type":"address","internalType":"address"}],"stateMutability":"nonpayable"},{"type":"function","name":"BASIS_POINTS","inputs":[],"outputs":[{"name":"","type":"uint256","internalType":"uint256"}],"stateMutability":"view"},{"type":"function","name":"distribute","inputs":[],"outputs":[{"name":"totalAmount","type":"uint256","internalType":"uint256"}],"stateMutability":"nonpayable"},{"type":"function","name":"getAllocation","inputs":[],"outputs":[{"name":"","type":"tuple","internalType":"struct IRewardRouter.Allocation","components":[{"name":"veQSShare","type":"uint256","internalType":"uint256"},{"name":"proverShare","type":"uint256","internalType":"uint256"},{"name":"observerShare","type":"uint256","internalType":"uint256"},{"name":"treasuryShare","type":"uint256","internalType":"uint256"}]}],"stateMutability":"view"},{"type":"function","name":"observerPool","inputs":[],"outputs":[{"name":"","type":"address","internalType":"address"}],"stateMutability":"view"},{"type":"function","name":"pendingBalance","inputs":[],"outputs":[{"name":"","type":"uint256","internalType":"uint256"}],"stateMutability":"view"},{"type":"function","name":"proverPool","inputs":[],"outputs":[{"name":"","type":"address","internalType":"address"}],"stateMutability":"view"},{"type":"function","name":"qsToken","inputs":[],"outputs":[{"name":"","type":"address","internalType":"address"}],"stateMutability":"view"},{"type":"function","name":"setAllocation","inputs":[{"name":"veQSShare","type":"uint256","internalType":"uint256"},{"name":"proverShare","type":"uint256","internalType":"uint256"},{"name":"observerShare","type":"uint256","internalType":"uint256"},{"name":"treasuryShare","type":"uint256","internalType":"uint256"}],"outputs":[],"stateMutability":"nonpayable"},{"type":"function","name":"setObserverPool","inputs":[{"name":"newPool","type":"address","internalType":"address"}],"outputs":[],"stateMutability":"nonpayable"},{"type":"function","name":"setProverPool","inputs":[{"name":"newPool","type":"address","internalType":"address"}],"outputs":[],"stateMutability":"nonpayable"},{"type":"function","name":"setTreasury","inputs":[{"name":"newTreasury","type":"address","internalType":"address"}],"outputs":[],"stateMutability":"nonpayable"},{"type":"function","name":"setVeQSDistributor","inputs":[{"name":"newDistributor","type":"address","internalType":"address"}],"outputs":[],"stateMutability":"nonpayable"},{"type":"function","name":"totalDistributed","inputs":[],"outputs":[{"name":"","type":"uint256","internalType":"uint256"}],"stateMutability":"view"},{"type":"function","name":"treasury","inputs":[],"outputs":[{"name":"","type":"address","internalType":"address"}],"stateMutability":"view"},{"type":"function","name":"veQSDistributor","inputs":[],"outputs":[{"name":"","type":"address","internalType":"address"}],"stateMutability":"view"},{"type":"event","name":"AllocationUpdated","inputs":[{"name":"veQSShare","type":"uint256","indexed":false,"internalType":"uint256"},{"name":"proverShare","type":"uint256","indexed":false,"internalType":"uint256"},{"name":"observerShare","type":"uint256","indexed":false,"internalType":"uint256"},{"name":"treasuryShare","type":"uint256","indexed":false,"internalType":"uint256"}],"anonymous":false},{"type":"event","name":"Distributed","inputs":[{"name":"totalAmount","type":"uint256","indexed":false,"internalType":"uint256"},{"name":"veQSAmount","type":"uint256","indexed":false,"internalType":"uint256"},{"name":"proverAmount","type":"uint256","indexed":false,"internalType":"uint256"},{"name":"observerAmount","type":"uint256","indexed":false,"internalType":"uint256"},{"name":"treasuryAmount","type":"uint256","indexed":false,"internalType":"uint256"},{"name":"timestamp","type":"uint256","indexed":false,"internalType":"uint256"}],"anonymous":false},{"type":"event","name":"PoolAddressUpdated","inputs":[{"name":"poolName","type":"string","indexed":false,"internalType":"string"},{"name":"oldAddress","type":"address","indexed":true,"internalType":"address"},{"name":"newAddress","type":"address","indexed":true,"internalType":"address"}],"anonymous":false},{"type":"error","name":"InvalidAddress","inputs":[]},{"type":"error","name":"InvalidAllocation","inputs":[]},{"type":"error","name":"NotAuthorized","inputs":[]},{"type":"error","name":"ZeroAmount","inputs":[]},{"type":"error","name":"ZeroBalance","inputs":[]}],"bytecode":{"object":"0x60a0346102eb57601f610d5d38819003918201601f19168301926001600160401b0392909183851183861017610169578160c092849260409788528339810103126102eb5761004d816102ef565b60209161005b8382016102ef565b6100668683016102ef565b91610073606082016102ef565b61008b60a0610084608085016102ef565b93016102ef565b926001600160a01b0390868216156102b457811694851561027057811691821561022c5781169283156101e85781169384156101b1571694851561017d5760805260018060a01b031993846002541617600255836003541617600355826004541617600455816005541617600555600154161760015560015f55825160808101928184109084111761016957606092845261138890818152610bb880938201526103e8938185878194015201526006556007558060085560095551610a59908161030482396080518181816103ae0152818161085101526109230152f35b634e487b7160e01b5f52604160045260245ffd5b885162461bcd60e51b815260048101889052600d60248201526c24b73b30b634b21030b236b4b760991b6044820152606490fd5b895162461bcd60e51b815260048101899052601060248201526f496e76616c696420747265617375727960801b6044820152606490fd5b895162461bcd60e51b815260048101899052601560248201527f496e76616c6964206f6273657276657220706f6f6c00000000000000000000006044820152606490fd5b895162461bcd60e51b815260048101899052601360248201527f496e76616c69642070726f76657220706f6f6c000000000000000000000000006044820152606490fd5b895162461bcd60e51b815260048101899052601860248201527f496e76616c69642076655153206469737472696275746f7200000000000000006044820152606490fd5b895162461bcd60e51b815260048101899052601060248201526f24b73b30b634b21028a9903a37b5b2b760811b6044820152606490fd5b5f80fd5b51906001600160a01b03821682036102eb5756fe6080604081815260049182361015610015575f80fd5b5f3560e01c9081630c9e1e8e146106d757508063441f70251461064e57806357b4d18e1461062b57806361d027b3146106035780636ca9e5a2146105db5780638f8cf9ef1461050e5780639f5b58211461048a578063ac68975814610405578063c5a1de25146103dd578063c5ebfa9a1461039a578063cd748ee214610373578063e1f1c4a714610357578063e4fc6b6d14610183578063efca2eed146101655763f0f44260146100c4575f80fd5b34610161576020366003190112610161576001600160a01b03823581811693908490036101615781600154163303610153578315610145575060605f80516020610a0483398151915291600554856001600160601b0360a01b82161760055567747265617375727960c01b85519560208752600860208801528601521692a3005b825163e6c4247b60e01b8152fd5b825163ea8e4eb560e01b8152fd5b5f80fd5b5034610161575f36600319011261016157602090600a549051908152f35b5034610161575f3660031901126101615760025f54146103145760025f556101a9610826565b908115610305577f714c4637727cfacc0b64d95afc3afd00db9bd5d3a0d09deee92978db71402cfb60c060209461271090816101e7600654886107bc565b0491806101f6600754896107bc565b0490610204600854896107bc565b049061021d8261021883610218888d6107cf565b6107cf565b92846102de575b816102b7575b828061028d575b505082610271575b61024588600a5461079b565b600a558651938885528985015286840152606083015260808201524260a0820152a160015f5551908152f35b6005546102889084906001600160a01b03166108e2565b610239565b81546102b0926001600160a01b03916102a990849084166108e2565b54166109c9565b5f82610231565b6102d98260018060a01b036102d08282600354166108e2565b600354166109c9565b61022a565b6103008560018060a01b036102f78282600254166108e2565b600254166109c9565b610224565b5163334ab3f560e11b81529050fd5b906020606492519162461bcd60e51b8352820152601f60248201527f5265656e7472616e637947756172643a207265656e7472616e742063616c6c006044820152fd5b5034610161575f36600319011261016157602090516127108152f35b5034610161575f36600319011261016157905490516001600160a01b039091168152602090f35b5034610161575f36600319011261016157517f00000000000000000000000000000000000000000000000000000000000000006001600160a01b03168152602090f35b5034610161575f3660031901126101615760035490516001600160a01b039091168152602090f35b5034610161576020366003190112610161576001600160a01b03823581811693908490036101615781600154163303610153578315610145575f80516020610a0483398151915291816060925490866001600160601b0360a01b83161790556b1bd89cd95c9d995c941bdbdb60a21b85519560208752600c60208801528601521692a3005b5034610161576020366003190112610161576001600160a01b03823581811693908490036101615781600154163303610153578315610145575060605f80516020610a0483398151915291600354856001600160601b0360a01b821617600355691c1c9bdd995c941bdbdb60b21b85519560208752600a60208801528601521692a3005b50903461016157608036600319011261016157600154813592606435926044359260243591906001600160a01b031633036101535761271061055d8661055887610558878c61079b565b61079b565b036105cd577f2aee75084665eb680a4dd0db9edb242c0c4d7ded1aa2c77572e6616fa8c6e2856080878787878783606083516105988161074f565b8781528360208201528585820152015284600655806007558260085583600955815194855260208501528301526060820152a1005b82516305d7ba1960e11b8152fd5b5034610161575f3660031901126101615760025490516001600160a01b039091168152602090f35b5034610161575f3660031901126101615760055490516001600160a01b039091168152602090f35b5034610161575f36600319011261016157602090610647610826565b9051908152f35b5034610161576020366003190112610161576001600160a01b03823581811693908490036101615781600154163303610153578315610145575060605f80516020610a0483398151915291600254856001600160601b0360a01b8216176002556e3b32a8a9a234b9ba3934b13aba37b960891b85519560208752600f60208801528601521692a3005b8234610161575f366003190112610161575f6060836106f760809561074f565b8281528260208201528284820152015280516107128161074f565b6006549182825260075460208301908152600854908284019182526060600954940193845282519485525160208501525190830152516060820152f35b6080810190811067ffffffffffffffff82111761076b57604052565b634e487b7160e01b5f52604160045260245ffd5b6060810190811067ffffffffffffffff82111761076b57604052565b919082018092116107a857565b634e487b7160e01b5f52601160045260245ffd5b818102929181159184041417156107a857565b919082039182116107a857565b3d156108215767ffffffffffffffff903d82811161076b5760405192601f8201601f19908116603f011684019081118482101761076b5760405282523d5f602084013e565b606090565b5f8060405160208101906370a0823160e01b82523060248201526024815261084d8161077f565b51907f00000000000000000000000000000000000000000000000000000000000000005afa61087a6107dc565b90806108d6575b1561089a57602081805181010312610161576020015190565b60405162461bcd60e51b815260206004820152601460248201527310985b185b98d9481c5d595c9e4819985a5b195960621b6044820152606490fd5b50602081511015610881565b60405163a9059cbb60e01b602082019081526001600160a01b0390921660248201526044808201939093529182525f9182919061091e8161074f565b5190827f00000000000000000000000000000000000000000000000000000000000000005af161094c6107dc565b81610991575b501561095a57565b60405162461bcd60e51b815260206004820152600f60248201526e151c985b9cd9995c8819985a5b1959608a1b6044820152606490fd5b80518015925082156109a6575b50505f610952565b819250906020918101031261016157602001518015158103610161575f8061099e565b5f91908291826040516020810192633c6b16ab60e01b84526024820152602481526109f38161077f565b51925af150610a006107dc565b5056fe2f143404b97ade6232b6a76aa2e0ab30b6ba3400fcb444baa429fc049365a346a2646970667358221220356c2b2fee6d7dd952c45bc645f802c85fc94a771e3713f0b30add826b211a7564736f6c63430008180033","linkReferences":{}},"methodIdentifiers":{"BASIS_POINTS()":"e1f1c4a7","distribute()":"e4fc6b6d","getAllocation()":"0c9e1e8e","observerPool()":"cd748ee2","pendingBalance()":"57b4d18e","proverPool()":"c5a1de25","qsToken()":"c5ebfa9a","setAllocation(uint256,uint256,uint256,uint256)":"8f8cf9ef","setObserverPool(address)":"ac689758","setProverPool(address)":"9f5b5821","setTreasury(address)":"f0f44260","setVeQSDistributor(address)":"441f7025","totalDistributed()":"efca2eed","treasury()":"61d027b3","veQSDistributor()":"6ca9e5a2"},"id":71}