{"abi":[{"type":"constructor","inputs":[{"name":"_governanceSwitch","type":"address","internalType":"address"},{"name":"_securityCouncil","type":"address","internalType":"address"},{"name":"_signers","type":"address[]","internalType":"address[]"},{"name":"_requiredApprovals","type":"uint256","internalType":"uint256"}],"stateMutability":"nonpayable"},{"type":"receive","stateMutability":"payable"},{"type":"function","name":"DEFAULT_MIN_BALANCE","inputs":[],"outputs":[{"name":"","type":"uint256","internalType":"uint256"}],"stateMutability":"view"},{"type":"function","name":"MAX_SINGLE_SPEND","inputs":[],"outputs":[{"name":"","type":"uint256","internalType":"uint256"}],"stateMutability":"view"},{"type":"function","name":"TIME_LOCK_PERIOD","inputs":[],"outputs":[{"name":"","type":"uint256","internalType":"uint256"}],"stateMutability":"view"},{"type":"function","name":"approve","inputs":[{"name":"proposalId","type":"uint256","internalType":"uint256"}],"outputs":[],"stateMutability":"nonpayable"},{"type":"function","name":"cancel","inputs":[{"name":"proposalId","type":"uint256","internalType":"uint256"}],"outputs":[],"stateMutability":"nonpayable"},{"type":"function","name":"emergencyWithdraw","inputs":[{"name":"to","type":"address","internalType":"address"},{"name":"amount","type":"uint256","internalType":"uint256"},{"name":"reason","type":"string","internalType":"string"}],"outputs":[],"stateMutability":"nonpayable"},{"type":"function","name":"execute","inputs":[{"name":"proposalId","type":"uint256","internalType":"uint256"}],"outputs":[],"stateMutability":"nonpayable"},{"type":"function","name":"getBalance","inputs":[],"outputs":[{"name":"","type":"uint256","internalType":"uint256"}],"stateMutability":"view"},{"type":"function","name":"getProposal","inputs":[{"name":"proposalId","type":"uint256","internalType":"uint256"}],"outputs":[{"name":"","type":"tuple","internalType":"struct ITreasury.Proposal","components":[{"name":"id","type":"uint256","internalType":"uint256"},{"name":"proposer","type":"address","internalType":"address"},{"name":"target","type":"address","internalType":"address"},{"name":"amount","type":"uint256","internalType":"uint256"},{"name":"data","type":"bytes","internalType":"bytes"},{"name":"createdAt","type":"uint256","internalType":"uint256"},{"name":"executionTime","type":"uint256","internalType":"uint256"},{"name":"state","type":"uint8","internalType":"enum ITreasury.ProposalState"},{"name":"approvals","type":"uint256","internalType":"uint256"},{"name":"description","type":"string","internalType":"string"}]}],"stateMutability":"view"},{"type":"function","name":"getProposalCount","inputs":[],"outputs":[{"name":"","type":"uint256","internalType":"uint256"}],"stateMutability":"view"},{"type":"function","name":"getProposalState","inputs":[{"name":"proposalId","type":"uint256","internalType":"uint256"}],"outputs":[{"name":"","type":"uint8","internalType":"enum ITreasury.ProposalState"}],"stateMutability":"view"},{"type":"function","name":"getRequiredApprovals","inputs":[],"outputs":[{"name":"","type":"uint256","internalType":"uint256"}],"stateMutability":"view"},{"type":"function","name":"governanceSwitch","inputs":[],"outputs":[{"name":"","type":"address","internalType":"contract IGovernanceSwitch"}],"stateMutability":"view"},{"type":"function","name":"hasApproved","inputs":[{"name":"proposalId","type":"uint256","internalType":"uint256"},{"name":"approver","type":"address","internalType":"address"}],"outputs":[{"name":"","type":"bool","internalType":"bool"}],"stateMutability":"view"},{"type":"function","name":"isSigner","inputs":[{"name":"","type":"address","internalType":"address"}],"outputs":[{"name":"","type":"bool","internalType":"bool"}],"stateMutability":"view"},{"type":"function","name":"minimumBalance","inputs":[],"outputs":[{"name":"","type":"uint256","internalType":"uint256"}],"stateMutability":"view"},{"type":"function","name":"proposalCount","inputs":[],"outputs":[{"name":"","type":"uint256","internalType":"uint256"}],"stateMutability":"view"},{"type":"function","name":"propose","inputs":[{"name":"target","type":"address","internalType":"address"},{"name":"amount","type":"uint256","internalType":"uint256"},{"name":"data","type":"bytes","internalType":"bytes"},{"name":"description","type":"string","internalType":"string"}],"outputs":[{"name":"proposalId","type":"uint256","internalType":"uint256"}],"stateMutability":"nonpayable"},{"type":"function","name":"receiveFunds","inputs":[{"name":"source","type":"string","internalType":"string"}],"outputs":[],"stateMutability":"payable"},{"type":"function","name":"requiredApprovals","inputs":[],"outputs":[{"name":"","type":"uint256","internalType":"uint256"}],"stateMutability":"view"},{"type":"function","name":"securityCouncil","inputs":[],"outputs":[{"name":"","type":"address","internalType":"contract ISecurityCouncil"}],"stateMutability":"view"},{"type":"function","name":"setMinimumBalance","inputs":[{"name":"newMinimum","type":"uint256","internalType":"uint256"}],"outputs":[],"stateMutability":"nonpayable"},{"type":"function","name":"signers","inputs":[{"name":"","type":"uint256","internalType":"uint256"}],"outputs":[{"name":"","type":"address","internalType":"address"}],"stateMutability":"view"},{"type":"event","name":"EmergencyWithdrawal","inputs":[{"name":"to","type":"address","indexed":true,"internalType":"address"},{"name":"amount","type":"uint256","indexed":false,"internalType":"uint256"},{"name":"reason","type":"string","indexed":false,"internalType":"string"}],"anonymous":false},{"type":"event","name":"FundsReceived","inputs":[{"name":"from","type":"address","indexed":true,"internalType":"address"},{"name":"amount","type":"uint256","indexed":false,"internalType":"uint256"},{"name":"source","type":"string","indexed":false,"internalType":"string"}],"anonymous":false},{"type":"event","name":"ProposalApproved","inputs":[{"name":"proposalId","type":"uint256","indexed":true,"internalType":"uint256"},{"name":"approver","type":"address","indexed":true,"internalType":"address"},{"name":"currentApprovals","type":"uint256","indexed":false,"internalType":"uint256"}],"anonymous":false},{"type":"event","name":"ProposalCreated","inputs":[{"name":"proposalId","type":"uint256","indexed":true,"internalType":"uint256"},{"name":"proposer","type":"address","indexed":true,"internalType":"address"},{"name":"target","type":"address","indexed":true,"internalType":"address"},{"name":"amount","type":"uint256","indexed":false,"internalType":"uint256"},{"name":"description","type":"string","indexed":false,"internalType":"string"}],"anonymous":false},{"type":"event","name":"ProposalExecuted","inputs":[{"name":"proposalId","type":"uint256","indexed":true,"internalType":"uint256"},{"name":"executor","type":"address","indexed":true,"internalType":"address"},{"name":"amount","type":"uint256","indexed":false,"internalType":"uint256"}],"anonymous":false},{"type":"error","name":"AlreadyApproved","inputs":[]},{"type":"error","name":"BelowMinimumBalance","inputs":[]},{"type":"error","name":"EmergencyRequiresSCApproval","inputs":[]},{"type":"error","name":"ExceedsMaxSingleSpend","inputs":[]},{"type":"error","name":"InsufficientApprovals","inputs":[]},{"type":"error","name":"InvalidProposalState","inputs":[]},{"type":"error","name":"InvalidTarget","inputs":[]},{"type":"error","name":"NotAuthorized","inputs":[]},{"type":"error","name":"ProposalNotFound","inputs":[]},{"type":"error","name":"TimeLockNotExpired","inputs":[]},{"type":"error","name":"ZeroAmount","inputs":[]}],"bytecode":{"object":"0x604060e08152346200034457620016c0803803806200001e8162000348565b92833981019060808183031262000344576200003a816200036e565b9160206200004a8184016200036e565b838601516001600160401b03908181116200034457850184601f82011215620003445780519582871162000205576005958760051b92866200008e81860162000348565b809a81520190878295820101928311620003445787809101915b838310620003295750505050606001516001600160a01b03979093908816908115620002e5578816908115620002a157848851106200025d578415620002195760805260a0528551918211620002055768010000000000000000821162000205575f54825f55808310620001dd575b505f8052835f205f5b838110620001c8575050505060c05260019384936969e10de76676d08000006001555f945b62000191575b865161133c90816200038482396080518181816108180152611110015260a0518181816106d10152610da6015260c0518181816107850152818161114a01526111980152f35b8051851015620001c257858583858398881b85010151165f52858552885f208260ff19825416179055019462000145565b6200014b565b82518916828201559185019160010162000120565b5f805282855f2091820191015b818110620001f9575062000117565b5f8155600101620001ea565b634e487b7160e01b5f52604160045260245ffd5b895162461bcd60e51b815260048101879052601a60248201527f496e76616c696420726571756972656420617070726f76616c730000000000006044820152606490fd5b895162461bcd60e51b815260048101879052601460248201527f496e76616c6964207369676e657220636f756e740000000000000000000000006044820152606490fd5b895162461bcd60e51b815260048101879052601860248201527f496e76616c696420736563757269747920636f756e63696c00000000000000006044820152606490fd5b895162461bcd60e51b815260048101879052601960248201527f496e76616c696420676f7665726e616e636520737769746368000000000000006044820152606490fd5b819062000336846200036e565b8152019101908790620000a8565b5f80fd5b6040519190601f01601f191682016001600160401b038111838210176200020557604052565b51906001600160a01b0382168203620003445756fe6080806040526004361015610065575b50361561001a575f80fd5b604051348152604060208201526006604082015265191a5c9958dd60d21b60608201527f53bd392522b272902b85d06641a5c298f18e160fffff1e84a020e622f792281060803392a2005b5f3560e01c908163023b869314610ef75750806311d5423914610e9657806312065fe014610e7b5780632079fb9a14610e235780632358d5a814610dd557806327eb6c0f14610d915780633446e4b414610d6357806340e58ee514610cbe5780637df73e2714610c8157806382ff16c1146108695780638b1e24ab146108475780638eb827ee146108035780639080936f146107cc578063934f4b09146107a857806399c1aadc1461076e5780639e6267991461068a578063b759f9541461054d578063b9d1d49b14610530578063bbd5313b14610513578063c08cc02d1461031c578063c7f758a814610339578063da35c6641461031c5763fe0d94c11461016e575f61000f565b34610318576020806003193601126103185760043590815f52600360205260405f208054156103065760088101546101a46110fb565b116102f457600681015442106102e2574760038201928354908183039283116102ce57600192600154116102bc576007840160ff1990600482825416179055600460018060a01b03600287015416950191604051945f93805461020681611074565b94600182169182156102a2575050600114610269575b89896102395f808b8a038c8c8f5af1610233611208565b50611237565b54906040519182527f3b7c90df35b419337cff0919fe91849006607bb66c4373623f06f9d48c1ebb9860203393a3005b5f9081526020812093945091925b84831061029157505050908301905082828161023961021c565b805487840152918301918101610277565b16885250505050801515028301905082828161023961021c565b60405163c0467f2d60e01b8152600490fd5b634e487b7160e01b5f52601160045260245ffd5b60405163191f4d1b60e31b8152600490fd5b604051638af69cf160e01b8152600490fd5b60405163635e873760e01b8152600490fd5b5f80fd5b34610318575f366003190112610318576020600254604051908152f35b3461031857602036600319011261031857606061012060405161035b81610fe3565b5f81525f60208201525f60408201525f838201528260808201525f60a08201525f60c08201525f60e08201525f61010082015201526004355f52600360205260405f208054801561030657604051906103b382610fe3565b815260018201546001600160a01b03908116602083015260028301541660408083019190915260038301546060830152516103fc816103f58160048701611275565b0382611000565b6080820152600582015460a0820152600682015460c082015260ff6007830154169160078310156104ff576104516009916104fb9460e085015260088101546101008501526103f56040518094819301611275565b610120820152604051918291602083528051602084015260018060a01b03602082015116604084015260018060a01b0360408201511660608401526060810151608084015260808101516101206104b6610140928360a0880152610160870190610f6a565b9260a081015160c087015260c081015160e08701526104de60e0820151610100880190610f5d565b61010081015182870152015190601f198584030190850152610f6a565b0390f35b634e487b7160e01b5f52602160045260245ffd5b34610318575f36600319011261031857602060405162093a808152f35b34610318575f366003190112610318576020600154604051908152f35b346103185760208060031936011261031857600435805f526003825260405f2080541561030657600781019260ff84541660078110156104ff57801515908161067e575b5061066c57825f526004815260405f20335f52815260ff60405f20541661065a57825f526004815260405f20335f528152600860405f209260ff199360018582541617905501936105e28554610fd5565b80955580549260ff84169360078510156104ff57817f2f0f51d2f12c71357e60d575d47e93e081dbaf32072245ab1e01540f0aadbf1a951561064d575b50506106296110fb565b86101561063e575b50506040519384523393a3005b81541660021790558480610631565b166001178255868161061f565b60405163080fc0bd60e11b8152600490fd5b60405163b437280360e01b8152600490fd5b60019150141585610591565b34610318576060366003190112610318576106a3610f47565b60243560443567ffffffffffffffff8111610318576106c6903690600401610f19565b916001600160a01b037f00000000000000000000000000000000000000000000000000000000000000008116330361075c57841693841561074a577f0b6611f2b90ce7e47b1f8bfc81e38fb1a210f6766c91b8c8d5ee36305d752060936107395f80808087610745975af1610233611208565b60405193849384610fa8565b0390a2005b60405163416aebb560e11b8152600490fd5b6040516343b7c64960e11b8152600490fd5b34610318575f3660031901126103185760206040517f00000000000000000000000000000000000000000000000000000000000000008152f35b34610318575f36600319011261031857602060405169152d02c7e14af68000008152f35b34610318576020366003190112610318576004355f526003602052602060ff600760405f200154166108016040518092610f5d565bf35b34610318575f366003190112610318576040517f00000000000000000000000000000000000000000000000000000000000000006001600160a01b03168152602090f35b34610318575f3660031901126103185760206108616110fb565b604051908152f35b3461031857608036600319011261031857610882610f47565b60443567ffffffffffffffff8111610318576108a2903690600401610f19565b9160643567ffffffffffffffff8111610318576108c3903690600401610f19565b916001600160a01b0381161561074a5769152d02c7e14af680000060243511610c6f576108f1600254610fd5565b938460025562093a80420142116102ce5761093a906040519661091388610fe3565b8688523360208901526001600160a01b03841660408901526024356060890152369161103e565b60808601524260a086015262093a80420160c08601525f60e0860152600161010086015261096936848461103e565b610120860152835f52600360205260405f2094805186556001860160018060a01b03602083015116906bffffffffffffffffffffffff60a01b9182825416179055600287019060018060a01b036040840151169082541617905560608101516003870155608081015180519067ffffffffffffffff8211610be6576109fe826109f560048b0154611074565b60048b016110ac565b602090601f8311600114610c0557610a2d92915f9183610bfa575b50508160011b915f199060031b1c19161790565b60048701555b60a0810151600587015560c08101516006870155600786019060e08101519160078310156104ff576101209260ff80198354169116179055610100810151600888015501519081519567ffffffffffffffff8711610be657868693610aaa602099610aa16009860154611074565b600986016110ac565b8890601f8311600114610b5357610b00837f51820485866a12445a1d315205e4d28921833b1ed028aed01a8c0c26fa068d709694610b3d96946009945f92610b485750508160011b915f199060031b1c19161790565b9101555b835f526004885260405f20335f52885260405f20600160ff1982541617905560405191829160018060a01b031696339660243584610fa8565b0390a4604051908152f35b015190508d80610a19565b90600984015f52895f20915f5b601f1985168110610bcc575083610b3d95936009936001937f51820485866a12445a1d315205e4d28921833b1ed028aed01a8c0c26fa068d709997601f19811610610bb4575b505050811b01910155610b04565b01515f1960f88460031b161c191690558c8080610ba6565b8183015184558a9750600190930192918b01918b01610b60565b634e487b7160e01b5f52604160045260245ffd5b015190508980610a19565b90601f1983169160048a015f5260205f20925f5b818110610c575750908460019594939210610c3f575b505050811b016004870155610a33565b01515f1960f88460031b161c19169055888080610c2f565b92936020600181928786015181550195019301610c19565b60405163a8fb222760e01b8152600490fd5b34610318576020366003190112610318576001600160a01b03610ca2610f47565b165f526005602052602060ff60405f2054166040519015158152f35b34610318576020366003190112610318576004355f52600360205260405f2080541561030657600781019081549060ff821660078110156104ff5760048114908115610d58575b5061066c57600101546001600160a01b031633141580610d41575b610d2f5760ff19166006179055005b60405163ea8e4eb560e01b8152600490fd5b50335f52600560205260ff60405f20541615610d20565b600691501484610d05565b3461031857602036600319011261031857335f52600560205260ff60405f20541615610d2f57600435600155005b34610318575f366003190112610318576040517f00000000000000000000000000000000000000000000000000000000000000006001600160a01b03168152602090f35b34610318576040366003190112610318576024356001600160a01b03811690819003610318576004355f52600460205260405f20905f52602052602060ff60405f2054166040519015158152f35b34610318576020366003190112610318576004355f54811015610318575f80527f290decd9548b62a8d60345a988386fc84ba6bc95484008f6362f93160ef3e56301546040516001600160a01b039091168152602090f35b34610318575f36600319011261031857602047604051908152f35b60203660031901126103185760043567ffffffffffffffff8111610318577f53bd392522b272902b85d06641a5c298f18e160fffff1e84a020e622f7922810610ee6610745923690600401610f19565b604051339490928392903484610fa8565b34610318575f36600319011261031857806969e10de76676d080000060209252f35b9181601f840112156103185782359167ffffffffffffffff8311610318576020838186019501011161031857565b600435906001600160a01b038216820361031857565b9060078210156104ff5752565b91908251928382525f5b848110610f94575050825f602080949584010152601f8019910116010190565b602081830181015184830182015201610f74565b91926060938192845260406020850152816040850152848401375f828201840152601f01601f1916010190565b5f1981146102ce5760010190565b610140810190811067ffffffffffffffff821117610be657604052565b90601f8019910116810190811067ffffffffffffffff821117610be657604052565b67ffffffffffffffff8111610be657601f01601f191660200190565b92919261104a82611022565b916110586040519384611000565b829481845281830111610318578281602093845f960137010152565b90600182811c921680156110a2575b602083101461108e57565b634e487b7160e01b5f52602260045260245ffd5b91607f1691611083565b601f82116110b957505050565b5f5260205f20906020601f840160051c830193106110f1575b601f0160051c01905b8181106110e6575050565b5f81556001016110db565b90915081906110d2565b60405163dee5e55b60e01b81526020816004817f00000000000000000000000000000000000000000000000000000000000000006001600160a01b03165afa5f91816111cb575b5061116c57507f000000000000000000000000000000000000000000000000000000000000000090565b6004811015806104ff57811580156111bf575b1561118b575050600190565b6104ff576002036111ba577f000000000000000000000000000000000000000000000000000000000000000090565b600190565b50505f6001821461117f565b9091506020813d602011611200575b816111e760209383611000565b810103126103185751600481101561031857905f611142565b3d91506111da565b3d15611232573d9061121982611022565b916112276040519384611000565b82523d5f602084013e565b606090565b1561123e57565b60405162461bcd60e51b815260206004820152600f60248201526e151c985b9cd9995c8819985a5b1959608a1b6044820152606490fd5b80545f939261128382611074565b918282526020936001916001811690815f146112e757506001146112a9575b5050505050565b90939495505f92919252835f2092845f945b8386106112d357505050500101905f808080806112a2565b8054858701830152940193859082016112bb565b60ff19168685015250505090151560051b010191505f808080806112a256fea26469706673582212202761e60b325617637d0565657dcf6b6eef3d0ffa88d00795f871219a71e45fab64736f6c63430008180033","linkReferences":{}},"methodIdentifiers":{"DEFAULT_MIN_BALANCE()":"023b8693","MAX_SINGLE_SPEND()":"934f4b09","TIME_LOCK_PERIOD()":"bbd5313b","approve(uint256)":"b759f954","cancel(uint256)":"40e58ee5","emergencyWithdraw(address,uint256,string)":"9e626799","execute(uint256)":"fe0d94c1","getBalance()":"12065fe0","getProposal(uint256)":"c7f758a8","getProposalCount()":"c08cc02d","getProposalState(uint256)":"9080936f","getRequiredApprovals()":"8b1e24ab","governanceSwitch()":"8eb827ee","hasApproved(uint256,address)":"2358d5a8","isSigner(address)":"7df73e27","minimumBalance()":"b9d1d49b","proposalCount()":"da35c664","propose(address,uint256,bytes,string)":"82ff16c1","receiveFunds(string)":"11d54239","requiredApprovals()":"99c1aadc","securityCouncil()":"27eb6c0f","setMinimumBalance(uint256)":"3446e4b4","signers(uint256)":"2079fb9a"},"id":85}