{"abi":[{"type":"function","name":"EMPTY_LEAF_LEGACY","inputs":[],"outputs":[{"name":"","type":"bytes32","internalType":"bytes32"}],"stateMutability":"view"},{"type":"function","name":"EMPTY_LEAF_SHA3","inputs":[],"outputs":[{"name":"","type":"bytes32","internalType":"bytes32"}],"stateMutability":"view"},{"type":"function","name":"MAX_LEAF_INDEX","inputs":[],"outputs":[{"name":"","type":"uint256","internalType":"uint256"}],"stateMutability":"view"},{"type":"function","name":"TREE_DEPTH","inputs":[],"outputs":[{"name":"","type":"uint256","internalType":"uint256"}],"stateMutability":"view"},{"type":"error","name":"IndexOutOfBounds","inputs":[]},{"type":"error","name":"InvalidLeafData","inputs":[]},{"type":"error","name":"InvalidProofLength","inputs":[]}],"bytecode":{"object":"0x6080806040523461001a5761011b9081610020823930815050f35b600080fdfe6080806040526004361015601257600080fd5b600090813560e01c9081632e0fdb3e1460ad5750806380fc749814609557806393e49fa01460605763f165053614604857600080fd5b80600319360112605d57602060405160148152f35b80fd5b5080600319360112605d5760206040517fa7ffc6f8bf1ed76651c14756a061d662f580ff4de43b49fa82d80a4b80f8434a8152f35b5080600319360112605d576020604051620fffff8152f35b90508160031936011260e157807f290decd9548b62a8d60345a988386fc84ba6bc95484008f6362f93160ef3e56360209252f35b5080fdfea2646970667358221220c8924d990886d03f7bb37da24c18e0c365f0e138a518ee29d0c91bd54c0467c364736f6c63430008140033","linkReferences":{}},"methodIdentifiers":{"EMPTY_LEAF_LEGACY()":"2e0fdb3e","EMPTY_LEAF_SHA3()":"93e49fa0","MAX_LEAF_INDEX()":"80fc7498","TREE_DEPTH()":"f1650536"},"id":56}