{"abi":[{"type":"constructor","inputs":[{"name":"admin_","type":"address","internalType":"address"}],"stateMutability":"nonpayable"},{"type":"function","name":"canExecuteCoreAction","inputs":[{"name":"action","type":"bytes4","internalType":"bytes4"},{"name":"caller","type":"address","internalType":"address"}],"outputs":[{"name":"","type":"bool","internalType":"bool"}],"stateMutability":"view"},{"type":"function","name":"getAdmin","inputs":[],"outputs":[{"name":"","type":"address","internalType":"address"}],"stateMutability":"view"},{"type":"function","name":"getGovernanceMode","inputs":[],"outputs":[{"name":"","type":"uint8","internalType":"enum IGovernanceSwitch.GovernanceMode"}],"stateMutability":"view"},{"type":"function","name":"getGovernanceSwitchAddress","inputs":[],"outputs":[{"name":"","type":"address","internalType":"address"}],"stateMutability":"view"},{"type":"function","name":"getMinimumStake","inputs":[],"outputs":[{"name":"","type":"uint256","internalType":"uint256"}],"stateMutability":"view"},{"type":"function","name":"getStakeCurrency","inputs":[],"outputs":[{"name":"","type":"address","internalType":"address"}],"stateMutability":"view"},{"type":"function","name":"getTokenMode","inputs":[],"outputs":[{"name":"","type":"uint8","internalType":"enum ITokenSwitch.TokenMode"}],"stateMutability":"view"},{"type":"function","name":"getTokenSwitchAddress","inputs":[],"outputs":[{"name":"","type":"address","internalType":"address"}],"stateMutability":"view"},{"type":"function","name":"hasVotingPower","inputs":[{"name":"account","type":"address","internalType":"address"}],"outputs":[{"name":"","type":"bool","internalType":"bool"}],"stateMutability":"view"},{"type":"function","name":"initialize","inputs":[{"name":"governance","type":"address","internalType":"address"},{"name":"token","type":"address","internalType":"address"}],"outputs":[],"stateMutability":"nonpayable"},{"type":"function","name":"isInitialized","inputs":[],"outputs":[{"name":"","type":"bool","internalType":"bool"}],"stateMutability":"view"},{"type":"function","name":"isTokenRequired","inputs":[{"name":"action","type":"bytes4","internalType":"bytes4"}],"outputs":[{"name":"","type":"bool","internalType":"bool"}],"stateMutability":"view"},{"type":"function","name":"transferAdmin","inputs":[{"name":"newAdmin","type":"address","internalType":"address"}],"outputs":[],"stateMutability":"nonpayable"},{"type":"function","name":"updateLayerReferences","inputs":[{"name":"governance","type":"address","internalType":"address"},{"name":"token","type":"address","internalType":"address"}],"outputs":[],"stateMutability":"nonpayable"},{"type":"function","name":"validateLayerCompatibility","inputs":[],"outputs":[{"name":"","type":"bool","internalType":"bool"}],"stateMutability":"view"},{"type":"event","name":"ActionAuthorizationChecked","inputs":[{"name":"action","type":"bytes4","indexed":true,"internalType":"bytes4"},{"name":"caller","type":"address","indexed":true,"internalType":"address"},{"name":"authorized","type":"bool","indexed":false,"internalType":"bool"}],"anonymous":false},{"type":"event","name":"AdminTransferred","inputs":[{"name":"oldAdmin","type":"address","indexed":true,"internalType":"address"},{"name":"newAdmin","type":"address","indexed":true,"internalType":"address"}],"anonymous":false},{"type":"event","name":"LayerReferenceUpdated","inputs":[{"name":"governance","type":"address","indexed":true,"internalType":"address"},{"name":"token","type":"address","indexed":true,"internalType":"address"}],"anonymous":false},{"type":"event","name":"ModeCompatibilityChecked","inputs":[{"name":"govMode","type":"uint8","indexed":true,"internalType":"enum IGovernanceSwitch.GovernanceMode"},{"name":"tokenMode","type":"uint8","indexed":true,"internalType":"enum ITokenSwitch.TokenMode"},{"name":"valid","type":"bool","indexed":false,"internalType":"bool"}],"anonymous":false},{"type":"error","name":"AlreadyInitialized","inputs":[]},{"type":"error","name":"InvalidModeComposition","inputs":[{"name":"govMode","type":"uint8","internalType":"enum IGovernanceSwitch.GovernanceMode"},{"name":"tokenMode","type":"uint8","internalType":"enum ITokenSwitch.TokenMode"}]},{"type":"error","name":"NotInitialized","inputs":[]},{"type":"error","name":"UnauthorizedCaller","inputs":[{"name":"caller","type":"address","internalType":"address"},{"name":"action","type":"bytes4","internalType":"bytes4"}]},{"type":"error","name":"UnsupportedAction","inputs":[{"name":"action","type":"bytes4","internalType":"bytes4"}]},{"type":"error","name":"ZeroAddress","inputs":[]}],"bytecode":{"object":"0x608060405234801561000f575f80fd5b5060405161105b38038061105b83398101604081905261002e9161009c565b6001600160a01b0381166100785760405162461bcd60e51b815260206004820152600d60248201526c24b73b30b634b21030b236b4b760991b604482015260640160405180910390fd5b5f80546001600160a01b0319166001600160a01b03929092169190911790556100c9565b5f602082840312156100ac575f80fd5b81516001600160a01b03811681146100c2575f80fd5b9392505050565b610f85806100d65f395ff3fe608060405234801561000f575f80fd5b50600436106100f0575f3560e01c806393a3a38511610093578063d9bbd27811610063578063d9bbd278146101dc578063db6c4086146101f2578063dee5e55b14610203578063e27c0f7c14610218575f80fd5b806393a3a3851461018e5780639e35369e146101a1578063a9b4563c146101b6578063c6f59ee3146101c9575f80fd5b8063485cc955116100ce578063485cc955146101435780636e9960c3146101585780636f4067241461016857806375829def1461017b575f80fd5b806311a30cf7146100f4578063141518a314610119578063392e53cd14610131575b5f80fd5b6100fc610229565b6040516001600160a01b0390911681526020015b60405180910390f35b6101216102ce565b6040519015158152602001610110565b600254600160a01b900460ff16610121565b610156610151366004610d9e565b610425565b005b5f546001600160a01b03166100fc565b610156610176366004610d9e565b61053c565b610156610189366004610dd5565b610611565b61012161019c366004610e07565b6106d8565b6101a96108d4565b6040516101109190610e35565b6101216101c4366004610dd5565b610974565b6101216101d7366004610e4f565b610aaf565b6101e4610b42565b604051908152602001610110565b6001546001600160a01b03166100fc565b61020b610be2565b6040516101109190610e68565b6002546001600160a01b03166100fc565b6002545f90600160a01b900460ff16610255576040516321c4e35760e21b815260040160405180910390fd5b60025f9054906101000a90046001600160a01b03166001600160a01b03166311a30cf76040518163ffffffff1660e01b8152600401602060405180830381865afa1580156102a5573d5f803e3d5ffd5b505050506040513d601f19601f820116820180604052508101906102c99190610e7c565b905090565b6002545f90600160a01b900460ff166102fa576040516321c4e35760e21b815260040160405180910390fd5b6001546040805163dee5e55b60e01b815290515f926001600160a01b03169163dee5e55b9160048083019260209291908290030181865afa158015610341573d5f803e3d5ffd5b505050506040513d601f19601f820116820180604052508101906103659190610e97565b90505f60025f9054906101000a90046001600160a01b03166001600160a01b0316639e35369e6040518163ffffffff1660e01b8152600401602060405180830381865afa1580156103b8573d5f803e3d5ffd5b505050506040513d601f19601f820116820180604052508101906103dc9190610eb5565b905060038260038111156103f2576103f2610e21565b14801561040f57505f81600281111561040d5761040d610e21565b145b1561041c575f9250505090565b60019250505090565b5f546001600160a01b0316331461045c57604051631923429360e21b81526104539033905f90600401610ed3565b60405180910390fd5b600254600160a01b900460ff16156104865760405162dc149f60e41b815260040160405180910390fd5b6001600160a01b0382166104ad5760405163d92e233d60e01b815260040160405180910390fd5b6001600160a01b0381166104d45760405163d92e233d60e01b815260040160405180910390fd5b600180546001600160a01b038085166001600160a01b03199092168217909255600280546001600160a81b031916928416928317600160a01b1790556040517f3b0fdaa79927e9bf4d850068bd2d0551e212d24c1fad46434e738ed2ae40c2c6905f90a35050565b61054533610c82565b61056657604051631923429360e21b81526104539033905f90600401610ed3565b6001600160a01b03821661058d5760405163d92e233d60e01b815260040160405180910390fd5b6001600160a01b0381166105b45760405163d92e233d60e01b815260040160405180910390fd5b600180546001600160a01b03199081166001600160a01b03858116918217909355600280549092169284169283179091556040517f3b0fdaa79927e9bf4d850068bd2d0551e212d24c1fad46434e738ed2ae40c2c6905f90a35050565b5f546001600160a01b0316331461063f57604051631923429360e21b81526104539033905f90600401610ed3565b6001600160a01b0381166106895760405162461bcd60e51b815260206004820152601160248201527024b73b30b634b2103732bb9030b236b4b760791b6044820152606401610453565b5f80546001600160a01b038381166001600160a01b0319831681178455604051919092169283917ff8ccb027dfcd135e000e9d45e6cc2d662578a8825d4c45b5e32e0adf67e79ec69190a35050565b6002545f90600160a01b900460ff16610704576040516321c4e35760e21b815260040160405180910390fd5b6001546040805163dee5e55b60e01b815290515f926001600160a01b03169163dee5e55b9160048083019260209291908290030181865afa15801561074b573d5f803e3d5ffd5b505050506040513d601f19601f8201168201806040525081019061076f9190610e97565b90505f60025f9054906101000a90046001600160a01b03166001600160a01b0316639e35369e6040518163ffffffff1660e01b8152600401602060405180830381865afa1580156107c2573d5f803e3d5ffd5b505050506040513d601f19601f820116820180604052508101906107e69190610eb5565b90506354c3b7f760e11b6001600160e01b031986160161085857600382600381111561081457610814610e21565b14610823575f925050506108ce565b5f81600281111561083657610836610e21565b03610845575f925050506108ce565b61084f8482610d37565b925050506108ce565b600154604051637d7c0e1f60e01b81526001600160a01b0390911690637d7c0e1f9061088a9088908890600401610ef6565b602060405180830381865afa1580156108a5573d5f803e3d5ffd5b505050506040513d601f19601f820116820180604052508101906108c99190610f19565b925050505b92915050565b6002545f90600160a01b900460ff16610900576040516321c4e35760e21b815260040160405180910390fd5b60025f9054906101000a90046001600160a01b03166001600160a01b0316639e35369e6040518163ffffffff1660e01b8152600401602060405180830381865afa158015610950573d5f803e3d5ffd5b505050506040513d601f19601f820116820180604052508101906102c99190610eb5565b6002545f90600160a01b900460ff166109a0576040516321c4e35760e21b815260040160405180910390fd5b6001546040805163dee5e55b60e01b815290515f926001600160a01b03169163dee5e55b9160048083019260209291908290030181865afa1580156109e7573d5f803e3d5ffd5b505050506040513d601f19601f82011682018060405250810190610a0b9190610e97565b90506003816003811115610a2157610a21610e21565b14610a2e57505f92915050565b60025460408051634f1a9b4f60e11b815290515f926001600160a01b031691639e35369e9160048083019260209291908290030181865afa158015610a75573d5f803e3d5ffd5b505050506040513d601f19601f82011682018060405250810190610a999190610eb5565b9050610aa58482610d37565b925050505b919050565b6002545f90600160a01b900460ff16610adb576040516321c4e35760e21b815260040160405180910390fd5b63ba9876ff60e01b6001600160e01b0319831601610afb57506001919050565b639876fedd60e01b6001600160e01b0319831601610b1b57506001919050565b6354c3b7f760e11b6001600160e01b0319831601610b3b57506001919050565b505f919050565b6002545f90600160a01b900460ff16610b6e576040516321c4e35760e21b815260040160405180910390fd5b60025f9054906101000a90046001600160a01b03166001600160a01b031663d9bbd2786040518163ffffffff1660e01b8152600401602060405180830381865afa158015610bbe573d5f803e3d5ffd5b505050506040513d601f19601f820116820180604052508101906102c99190610f38565b6002545f90600160a01b900460ff16610c0e576040516321c4e35760e21b815260040160405180910390fd5b60015f9054906101000a90046001600160a01b03166001600160a01b031663dee5e55b6040518163ffffffff1660e01b8152600401602060405180830381865afa158015610c5e573d5f803e3d5ffd5b505050506040513d601f19601f820116820180604052508101906102c99190610e97565b5f80546001600160a01b0390811690831603610ca057506001919050565b600254600160a01b900460ff16610cb857505f919050565b600154604051637d7c0e1f60e01b815263048d048d60e21b916001600160a01b031690637d7c0e1f90610cf19084908790600401610ef6565b602060405180830381865afa158015610d0c573d5f803e3d5ffd5b505050506040513d601f19601f82011682018060405250810190610d309190610f19565b9392505050565b5f80826002811115610d4b57610d4b610e21565b03610d5757505f6108ce565b6001826002811115610d6b57610d6b610e21565b03610d7757505f6108ce565b50506001600160a01b0316151590565b6001600160a01b0381168114610d9b575f80fd5b50565b5f8060408385031215610daf575f80fd5b8235610dba81610d87565b91506020830135610dca81610d87565b809150509250929050565b5f60208284031215610de5575f80fd5b8135610d3081610d87565b80356001600160e01b031981168114610aaa575f80fd5b5f8060408385031215610e18575f80fd5b610dba83610df0565b634e487b7160e01b5f52602160045260245ffd5b6020810160038310610e4957610e49610e21565b91905290565b5f60208284031215610e5f575f80fd5b610d3082610df0565b6020810160048310610e4957610e49610e21565b5f60208284031215610e8c575f80fd5b8151610d3081610d87565b5f60208284031215610ea7575f80fd5b815160048110610d30575f80fd5b5f60208284031215610ec5575f80fd5b815160038110610d30575f80fd5b6001600160a01b039290921682526001600160e01b031916602082015260400190565b6001600160e01b03199290921682526001600160a01b0316602082015260400190565b5f60208284031215610f29575f80fd5b81518015158114610d30575f80fd5b5f60208284031215610f48575f80fd5b505191905056fea2646970667358221220f51fc6382de2595079876b07bff9ebea6b43f5e5649909ac0e7958cd1b3ecbaa64736f6c63430008180033","linkReferences":{}},"methodIdentifiers":{"canExecuteCoreAction(bytes4,address)":"93a3a385","getAdmin()":"6e9960c3","getGovernanceMode()":"dee5e55b","getGovernanceSwitchAddress()":"db6c4086","getMinimumStake()":"d9bbd278","getStakeCurrency()":"11a30cf7","getTokenMode()":"9e35369e","getTokenSwitchAddress()":"e27c0f7c","hasVotingPower(address)":"a9b4563c","initialize(address,address)":"485cc955","isInitialized()":"392e53cd","isTokenRequired(bytes4)":"c6f59ee3","transferAdmin(address)":"75829def","updateLayerReferences(address,address)":"6f406724","validateLayerCompatibility()":"141518a3"},"id":25}