{"abi":[{"type":"constructor","inputs":[{"name":"_securityCouncil","type":"address","internalType":"address"},{"name":"_veQS","type":"address","internalType":"address"},{"name":"_guardian","type":"address","internalType":"address"}],"stateMutability":"nonpayable"},{"type":"receive","stateMutability":"payable"},{"type":"function","name":"EXTENSION_QUORUM_BPS","inputs":[],"outputs":[{"name":"","type":"uint256","internalType":"uint256"}],"stateMutability":"view"},{"type":"function","name":"EXTENSION_VOTING_PERIOD","inputs":[],"outputs":[{"name":"","type":"uint256","internalType":"uint256"}],"stateMutability":"view"},{"type":"function","name":"MAX_EXTENSIONS","inputs":[],"outputs":[{"name":"","type":"uint256","internalType":"uint256"}],"stateMutability":"view"},{"type":"function","name":"MAX_EXTENSION_DURATION","inputs":[],"outputs":[{"name":"","type":"uint256","internalType":"uint256"}],"stateMutability":"view"},{"type":"function","name":"MAX_PAUSE_DURATION","inputs":[],"outputs":[{"name":"","type":"uint256","internalType":"uint256"}],"stateMutability":"view"},{"type":"function","name":"PAUSE_COOLDOWN","inputs":[],"outputs":[{"name":"","type":"uint256","internalType":"uint256"}],"stateMutability":"view"},{"type":"function","name":"currentExtensionCount","inputs":[],"outputs":[{"name":"","type":"uint256","internalType":"uint256"}],"stateMutability":"view"},{"type":"function","name":"executeExtension","inputs":[{"name":"extensionId","type":"uint256","internalType":"uint256"}],"outputs":[],"stateMutability":"nonpayable"},{"type":"function","name":"executeRecovery","inputs":[{"name":"recoveryType","type":"uint8","internalType":"enum IEmergencyController.RecoveryType"},{"name":"data","type":"bytes","internalType":"bytes"}],"outputs":[{"name":"actionId","type":"bytes32","internalType":"bytes32"}],"stateMutability":"nonpayable"},{"type":"function","name":"extensionQuorum","inputs":[],"outputs":[{"name":"","type":"uint256","internalType":"uint256"}],"stateMutability":"view"},{"type":"function","name":"getExtension","inputs":[{"name":"extensionId","type":"uint256","internalType":"uint256"}],"outputs":[{"name":"","type":"tuple","internalType":"struct IEmergencyController.ExtensionRequest","components":[{"name":"id","type":"uint256","internalType":"uint256"},{"name":"requestedDuration","type":"uint256","internalType":"uint256"},{"name":"proposedAt","type":"uint256","internalType":"uint256"},{"name":"votingDeadline","type":"uint256","internalType":"uint256"},{"name":"votesFor","type":"uint256","internalType":"uint256"},{"name":"votesAgainst","type":"uint256","internalType":"uint256"},{"name":"state","type":"uint8","internalType":"enum IEmergencyController.ExtensionState"},{"name":"proposer","type":"address","internalType":"address"}]}],"stateMutability":"view"},{"type":"function","name":"getPauseState","inputs":[],"outputs":[{"name":"","type":"tuple","internalType":"struct IEmergencyController.PauseState","components":[{"name":"paused","type":"bool","internalType":"bool"},{"name":"pausedBy","type":"address","internalType":"address"},{"name":"pausedAt","type":"uint256","internalType":"uint256"},{"name":"pausedUntil","type":"uint256","internalType":"uint256"},{"name":"reason","type":"string","internalType":"string"},{"name":"extensionCount","type":"uint256","internalType":"uint256"}]}],"stateMutability":"view"},{"type":"function","name":"guardian","inputs":[],"outputs":[{"name":"","type":"address","internalType":"address"}],"stateMutability":"view"},{"type":"function","name":"hasVotedOnExtension","inputs":[{"name":"extensionId","type":"uint256","internalType":"uint256"},{"name":"voter","type":"address","internalType":"address"}],"outputs":[{"name":"","type":"bool","internalType":"bool"}],"stateMutability":"view"},{"type":"function","name":"isPaused","inputs":[],"outputs":[{"name":"","type":"bool","internalType":"bool"}],"stateMutability":"view"},{"type":"function","name":"lastPauseTimestamp","inputs":[],"outputs":[{"name":"","type":"uint256","internalType":"uint256"}],"stateMutability":"view"},{"type":"function","name":"pause","inputs":[{"name":"reason","type":"string","internalType":"string"},{"name":"duration","type":"uint256","internalType":"uint256"}],"outputs":[],"stateMutability":"nonpayable"},{"type":"function","name":"pauseTimeRemaining","inputs":[],"outputs":[{"name":"","type":"uint256","internalType":"uint256"}],"stateMutability":"view"},{"type":"function","name":"proposeExtension","inputs":[{"name":"duration","type":"uint256","internalType":"uint256"}],"outputs":[{"name":"extensionId","type":"uint256","internalType":"uint256"}],"stateMutability":"nonpayable"},{"type":"function","name":"securityCouncil","inputs":[],"outputs":[{"name":"","type":"address","internalType":"address"}],"stateMutability":"view"},{"type":"function","name":"setGuardian","inputs":[{"name":"newGuardian","type":"address","internalType":"address"}],"outputs":[],"stateMutability":"nonpayable"},{"type":"function","name":"setSecurityCouncil","inputs":[{"name":"newSecurityCouncil","type":"address","internalType":"address"}],"outputs":[],"stateMutability":"nonpayable"},{"type":"function","name":"unpause","inputs":[],"outputs":[],"stateMutability":"nonpayable"},{"type":"function","name":"veQS","inputs":[],"outputs":[{"name":"","type":"address","internalType":"address"}],"stateMutability":"view"},{"type":"function","name":"voteOnExtension","inputs":[{"name":"extensionId","type":"uint256","internalType":"uint256"},{"name":"support","type":"bool","internalType":"bool"}],"outputs":[],"stateMutability":"nonpayable"},{"type":"event","name":"ExtensionProposed","inputs":[{"name":"extensionId","type":"uint256","indexed":true,"internalType":"uint256"},{"name":"requestedDuration","type":"uint256","indexed":false,"internalType":"uint256"},{"name":"proposer","type":"address","indexed":false,"internalType":"address"}],"anonymous":false},{"type":"event","name":"ExtensionVoted","inputs":[{"name":"extensionId","type":"uint256","indexed":true,"internalType":"uint256"},{"name":"voter","type":"address","indexed":true,"internalType":"address"},{"name":"support","type":"bool","indexed":false,"internalType":"bool"},{"name":"weight","type":"uint256","indexed":false,"internalType":"uint256"}],"anonymous":false},{"type":"event","name":"GuardianUpdated","inputs":[{"name":"oldGuardian","type":"address","indexed":true,"internalType":"address"},{"name":"newGuardian","type":"address","indexed":true,"internalType":"address"}],"anonymous":false},{"type":"event","name":"PauseExtended","inputs":[{"name":"extensionId","type":"uint256","indexed":true,"internalType":"uint256"},{"name":"newEndTime","type":"uint256","indexed":false,"internalType":"uint256"},{"name":"votesFor","type":"uint256","indexed":false,"internalType":"uint256"}],"anonymous":false},{"type":"event","name":"ProtocolPaused","inputs":[{"name":"pausedBy","type":"address","indexed":true,"internalType":"address"},{"name":"reason","type":"string","indexed":false,"internalType":"string"},{"name":"pausedUntil","type":"uint256","indexed":false,"internalType":"uint256"}],"anonymous":false},{"type":"event","name":"ProtocolUnpaused","inputs":[{"name":"unpausedBy","type":"address","indexed":true,"internalType":"address"}],"anonymous":false},{"type":"event","name":"RecoveryAction","inputs":[{"name":"actionId","type":"bytes32","indexed":true,"internalType":"bytes32"},{"name":"recoveryType","type":"uint8","indexed":false,"internalType":"enum IEmergencyController.RecoveryType"},{"name":"data","type":"bytes","indexed":false,"internalType":"bytes"}],"anonymous":false},{"type":"error","name":"AlreadyPaused","inputs":[]},{"type":"error","name":"AlreadyVotedOnExtension","inputs":[]},{"type":"error","name":"CooldownNotMet","inputs":[]},{"type":"error","name":"ExtensionAlreadyExists","inputs":[]},{"type":"error","name":"ExtensionNotApproved","inputs":[]},{"type":"error","name":"ExtensionNotFound","inputs":[]},{"type":"error","name":"ExtensionVotingNotActive","inputs":[]},{"type":"error","name":"InvalidDuration","inputs":[]},{"type":"error","name":"InvalidRecoveryAction","inputs":[]},{"type":"error","name":"MaxExtensionsReached","inputs":[]},{"type":"error","name":"NotAuthorized","inputs":[]},{"type":"error","name":"NotPaused","inputs":[]}],"bytecode":{"object":"0x608034620000e557601f620023c138819003918201601f191683019291906001600160401b03841183851017620000e9578160609284926040968752833981010312620000e5576200005181620000fd565b906200006d836200006560208401620000fd565b9201620000fd565b916001600160a01b03908116918215620000d4578116928315620000d45716918215620000c35760018060a01b031991825f5416175f558160015416176001556002541617600255516122ae9081620001138239f35b835163ea8e4eb560e01b8152600490fd5b845163ea8e4eb560e01b8152600490fd5b5f80fd5b634e487b7160e01b5f52604160045260245ffd5b51906001600160a01b0382168203620000e55756fe60c080604052600436101561001c575b50361561001a575f80fd5b005b5f3560e01c90816311bd4f7f14611e98575080631c1083e214611e535780632799657d14611e3657806327eb6c0f14611e0f5780632c8ebec814611df25780633f4ba83a14611d84578063452a932014611d5c578063510958be14610d275780636d361bcb14610d0d5780638047b34a14610b3f57806383dd229d14610b175780638a0dac4a14610aa057806396a433ea14610a8357806397054dcb14610a675780639a44f1fb1461089d5780639a5901de146108805780639e1e1bdf14610863578063b187bd261461083f578063b5acb56714610822578063b8ad6dcb1461072d578063c07780f614610712578063c836561a146105c4578063cf6599631461028a578063e1b8cb3b146102685763f61eab7a1461013b575f61000f565b34610264576020366003190112610264575f60e060405161015b81611f60565b8281528260208201528260408201528260608201528260808201528260a08201528260c082015201526004355f52600960205260405f2060405161019e81611f60565b8154815260018201546020820190815260028301546040830190815260038401549360608401948552600481015460808501908152600660058301549260a0870193845201549560ff87169360c0870194600681101561025057855260018060a01b03958660e089019960081c168952604051975188525160208801525160408701525160608601525160808501525160a084015251926006841015610250576101009360c0840152511660e0820152f35b634e487b7160e01b5f52602160045260245ffd5b5f80fd5b34610264575f36600319011261026457602061028261213f565b604051908152f35b34610264576040366003190112610264576001600160401b03600435818111610264576102bb903690600401611ef8565b5f54602435906001600160a01b031633036105b2576102d8612163565b6105a05780158015610594575b610582576008548015159081610557575b506105455761030590426120fa565b60405161031181611f7c565b60019485825260209586830133815260408401428152606085019086825261033a36898b61204d565b9283608088015260a08701965f88525115159060ff60035491610100600160a81b03905160081b169216906affffffffffffffffffffff60a81b1617176003555160045551600555805192831161053157610396600654612107565b601f81116104cc575b508790601f841160011461042357928061040c959381937fcc5da5d320d1ed97dc85cf374284665f16a211cdcba96887c8969d5ccb9bd73c9a965f94610418575b50501b915f199060031b1c1916176006555b516007554260085560405193604085526040850191611f40565b938201528033930390a2005b015192508b806103e0565b90601f9392931983169160065f527ff652222313e28459528d920b65115c16c04f3efc82aaedc97be59f3f377c0d3f925f5b8b8282106104b8575050917fcc5da5d320d1ed97dc85cf374284665f16a211cdcba96887c8969d5ccb9bd73c999593918561040c989694106104a0575b505050811b016006556103f2565b01515f1960f88460031b161c19169055898080610492565b838501518655948701949384019301610455565b60065f527ff652222313e28459528d920b65115c16c04f3efc82aaedc97be59f3f377c0d3f601f850160051c8101918a8610610527575b601f0160051c019083905b82811061051c57505061039f565b5f815501839061050e565b9091508190610503565b634e487b7160e01b5f52604160045260245ffd5b60405163078a94c560e01b8152600490fd5b905062015180810180911161056e574210856102f6565b634e487b7160e01b5f52601160045260245ffd5b604051637616640160e01b8152600490fd5b506203f48081116102e5565b604051631785c68160e01b8152600490fd5b60405163ea8e4eb560e01b8152600490fd5b3461026457604036600319011261026457600435602435908115159182810361026457815f5260206009815260405f206002810154156107005760ff6006820154166006811015610250576106ee57600381015442116106ee57835f52600a825260405f20335f52825260ff60405f2054166106dc5761064333612177565b9283156105b257845f52600a835260405f20335f52835260405f20600160ff19825416179055845f52600b835260405f20335f5283528360405f20555f146106c7576004016106938382546120fa565b90555b6040519384528301527f600ea9edd5bd50aa908091f6b075bc336f65f65cb08255e275b90b3f193aea8160403393a3005b6005016106d58382546120fa565b9055610696565b604051630f0e873b60e21b8152600490fd5b60405163bc04607d60e01b8152600490fd5b604051630bbb354160e31b8152600490fd5b34610264575f36600319011261026457602060405160038152f35b3461026457602036600319011261026457600435610749612163565b1561081057805f52600960205260405f206002810154156107005760068101805460ff81166006811015610250576106ee5761078361213f565b90600484019182549081106107fe57600585015410156107fe577f88715238eaa5473a9fd95eb1b02e6f0867d20517b80b9100b4f3a0eb33f634a39360409360046107dd9360ff19161790556001600554910154906120fa565b90816005556107ed600754611f25565b6007555482519182526020820152a2005b604051633f29744360e11b8152600490fd5b604051636cd6020160e01b8152600490fd5b34610264575f366003190112610264576020604051620151808152f35b34610264575f366003190112610264576020610859612163565b6040519015158152f35b34610264575f3660031901126102645760206040516202a3008152f35b34610264575f366003190112610264576020600854604051908152f35b34610264575f366003190112610264576040516108b981611f7c565b5f81525f60a06020928284820152826040820152826060820152606060808201520152604051906108e982611f7c565b6003549060ff82161515835260018060a01b03808285019360081c168352600454604085019081526005549060608601918252604051925f846006549161092f83612107565b92838352600190896001821691825f14610a475750506001146109ec575b50610962925098969594939297980384611fce565b608085019283526007549560a086019687526040519788968688525115158688015251166040860152516060850152516080840152519060c060a08401528151918260e08501525f5b8381106109d457505050610100925f8483850101525160c0830152601f80199101168101030190f35b818101830151878201610100015286945082016109ab565b88915060065f527ff652222313e28459528d920b65115c16c04f3efc82aaedc97be59f3f377c0d3f905f915b858310610a2f57505061096293508201018a61094d565b8054838b018501528994508a93909201918101610a18565b60ff19168582015261096295151560051b85010192508c915061094d9050565b34610264575f3660031901126102645760206040516101908152f35b34610264575f366003190112610264576020600754604051908152f35b3461026457602036600319011261026457610ab9611ee2565b5f546001600160a01b039190821633036105b25781169081156105b257600254826bffffffffffffffffffffffff60a01b821617600255167f064d28d3d3071c5cbc271a261c10c2f0f0d9e319390397101aa0eb23c6bad9095f80a3005b34610264575f366003190112610264576001546040516001600160a01b039091168152602090f35b346102645760208060031936011261026457600435610b5c612163565b156108105780158015610d01575b6105825760036007541015610cef57610b8233612177565b80156105b257610b93600c54611f25565b9182600c556202a30042019081421161056e57604051610bb281611f60565b8481526006868201918383526040810194428652606082019081526080820187815260a08301915f835260c08401975f895260e08501963388528b5f5260098d5260405f209551865551600186015551600285015551600384015551600483015551600582015501925191600683101561025057837feb89d772f1db6e510711058796de84e413371c77f3228651b35a8ff12dc3efef9360409360ff89975491610100600160a81b03905160081b169216906affffffffffffffffffffff60a81b1617179055835f52600a8752815f20335f528752815f20600160ff19825416179055835f52600b8752815f20335f52875284825f205581519081523387820152a2604051906001825283820152817f600ea9edd5bd50aa908091f6b075bc336f65f65cb08255e275b90b3f193aea8160403393a3604051908152f35b604051637222d94960e11b8152600490fd5b5062093a808111610b6a565b34610264575f3660031901126102645760206102826120cc565b3461026457604036600319011261026457600480351015610264576024356001600160401b03811161026457610d61903690600401611ef8565b6002549091906001600160a01b031633036105b257610d7e612163565b1561081057610d8e600d54611f25565b80600d55610dd86040518092610da960208301600435611f33565b60806040830152610dbe60a083018787611f40565b90606083015242608083015203601f198101835282611fce565b5f60a052604051610de881611f97565b61032036823760a05280516001810180821161056e57608890049160018301831161056e575f92915b60018301841061115e5785856001600160401b0360a05151166fffffffffffffffff0000000000000000602060a051015160401b16176001600160401b0360801b604060a051015160801b16176001600160401b0360c01b606060a051015160c01b16177eff00ff00ff00ff00ff00ff00ff00ff00ff00ff00ff00ff00ff00ff00ff00ff7fff00ff00ff00ff00ff00ff00ff00ff00ff00ff00ff00ff00ff00ff00ff00ff008260081b169160081c16177dffff0000ffff0000ffff0000ffff0000ffff0000ffff0000ffff0000ffff7fffff0000ffff0000ffff0000ffff0000ffff0000ffff0000ffff0000ffff00008260101b169160101c16177bffffffff00000000ffffffff00000000ffffffff00000000ffffffff7fffffffff00000000ffffffff00000000ffffffff00000000ffffffff000000008260201b169160201c161777ffffffffffffffff0000000000000000ffffffffffffffff80198260401b169160401c16178060801b9060801c1790600435155f1461102a575f80610f9d85840184612083565b80519160209091019083906001600160a01b03165af1610fbb61201e565b5015611018577f94dc6fb296b297c5a40f4a53a31443bb72e7a472a7fef885aef06f00e93ccb4282916020945b61100d604051928392610ffd84600435611f33565b6040898501526040840191611f40565b0390a2604051908152f35b604051632e70396b60e21b8152600490fd5b600435600103611091575f8061104285840184612083565b80519160209091019083906001600160a01b03165af161106061201e565b5015611018577f94dc6fb296b297c5a40f4a53a31443bb72e7a472a7fef885aef06f00e93ccb428291602094610fe8565b600435600203611133576060818481010312610264576110b081611fef565b6110bc60208301611fef565b6001600160a01b039081169160408401359116806110e657505f8080939281935af161106061201e565b60405191602083019363a9059cbb60e01b8552602484015260448301526044825260808201928284106001600160401b03851117610531575f809493819460405251925af161106061201e565b7f94dc6fb296b297c5a40f4a53a31443bb72e7a472a7fef885aef06f00e93ccb428291602094610fe8565b91938360888197939502046088148615171561056e5794905f945b60118610156112a1575f91825b600884101561125e57878060031b046008148815171561056e576111b9846111b48a60031b608889026120fa565b6120fa565b868110156112175787518110156112035787016020015160f81c905b848060031b046008148515171561056e576001600160401b0360ff600193168660031b1b1617930192611186565b634e487b7160e01b5f52603260045260245ffd5b80870361122757506006906111d5565b60888087020180608888021161056e57608760888802011161056e576088860260870103611257576080906111d5565b5f906111d5565b6001929791949893506001600160401b0361127b8360a051612239565b5116186001600160401b036112928360a051612239565b91169052019495919095611179565b9391909594506103206040516112b681611f97565b3690376040516112c581611fb3565b60a03682376040516112d681611fb3565b60a0368237604051806103208101106001600160401b03610320830111176105315761032081016040525f815260016020820152603e6040820152601c6060820152601b6080820152602460a0820152602c60c0820152600660e0820152603761010082015260146101208201526003610140820152600a610160820152602b61018082015260196101a082015260276101c082015260296101e0820152602d610200820152600f61022082015260156102408201526008610260820152601261028082015260026102a0820152603d6102c082015260386102e0820152600e61030082015260405191826103008101106001600160401b036103008501111761053157610300830160405260018352618082602084015267800000000000808a6040840152678000000080008000606084015261808b6080840152638000000160a084015267800000008000808160c084015267800000000000800960e0840152608a61010084015260886101208401526380008009610140840152638000000a610160840152638000808b61018084015267800000000000008b6101a08401526780000000000080896101c08401526780000000000080036101e084015267800000000000800261020084015267800000000000008061022084015261800a61024084015267800000008000000a6102608401526780000000800080816102808401526780000000000080806102a084015263800000016102c08401526780000000800080086102e08401525f935b601885106115235750505060019290920194939150610e119050565b9592989096939991976001600160401b038060a05151168160a08051015116188161014060a05101511618816101e060a051015116188161028060a051015116181687526001600160401b03808080602060a0510151168160c060a051015116188161016060a051015116188161020060a05101511618816102a060a05101511618168060208b01528180604060a0510151168160e060a051015116188161018060a051015116188161022060a05101511618816102c060a051015116181660408b01528180606060a0510151168161010060a05101511618816101a060a051015116188161024060a05101511618816102e060a051015116181660608b015261167d8280608060a0510151168161012060a05101511618816101c060a051015116188161026060a051015116188161030060a0510151161816918260808d015267fffffffffffffffe600182603f1c169160011b161790565b1816808a5281808a51166116aa8260408d01511667fffffffffffffffe600182603f1c169160011b161790565b181660208b0152818060208b0151166116dc8260608d01511667fffffffffffffffe600182603f1c169160011b161790565b181660408b0152818060408b01511661170e8260808d01511667fffffffffffffffe600182603f1c169160011b161790565b181660608b0152818060608b01511661173d828c511667fffffffffffffffe600182603f1c169160011b161790565b181660808b01528160a0515116181660a051526001600160401b038060208a01511681602060a0510151161816602060a05101526001600160401b038060408a01511681604060a0510151161816604060a05101526001600160401b038060608a01511681606060a0510151161816606060a05101526001600160401b038060808a01511681608060a0510151161816608060a05101526001600160401b03808951168160a08051015116181660a0805101526001600160401b038060208a0151168160c060a051015116181660c060a05101526001600160401b038060408a0151168160e060a051015116181660e060a05101526001600160401b038060608a0151168161010060a051015116181661010060a05101526001600160401b038060808a0151168161012060a051015116181661012060a05101526001600160401b03808951168161014060a051015116181661014060a05101526001600160401b038060208a0151168161016060a051015116181661016060a05101526001600160401b038060408a0151168161018060a051015116181661018060a05101526001600160401b038060608a015116816101a060a05101511618166101a060a05101526001600160401b038060808a015116816101c060a05101511618166101c060a05101526001600160401b0380895116816101e060a05101511618166101e060a05101526001600160401b038060208a0151168161020060a051015116181661020060a05101526001600160401b038060408a0151168161022060a051015116181661022060a05101526001600160401b038060608a0151168161024060a051015116181661024060a05101526001600160401b038060808a0151168161026060a051015116181661026060a05101526001600160401b03808951168161028060a051015116181661028060a05101526001600160401b038060208a015116816102a060a05101511618166102a060a05101526001600160401b038060408a015116816102c060a05101511618166102c060a05101526001600160401b038060608a015116816102e060a05101511618166102e060a05101526001600160401b038060808a0151168161030060a051015116181661030060a0510152604051608052611a8d608051611f97565b61032036608051375f5b60198110611cb857505f5b600580821015611c85578082810204820361056e57611ac5828202608051612239565b5190828102600181011061056e57611ae4600184830201608051612239565b51818402600281011061056e57611b02600285840201608051612239565b5191848102600381011061056e57611b21600386830201608051612239565b5190858102600481011061056e57859182820260040160805190611b4491612239565b519483830260a05190611b5691612239565b816001600160401b03871619166001600160401b03166001600160401b038916186001600160401b0316905283830260010160a05190611b9591612239565b826001600160401b03831619166001600160401b03166001600160401b038716186001600160401b0316905283830260020160a05190611bd491612239565b90866001600160401b03841619166001600160401b0316906001600160401b0316186001600160401b0316905282820260030160a05190611c1491612239565b90866001600160401b03871619166001600160401b0316906001600160401b0316186001600160401b031690520260040160a05190611c5291612239565b926001600160401b031619166001600160401b0316906001600160401b0316186001600160401b03169052600101611aa2565b5050979199600190999396949791996001600160401b03808260051b870151168160a0515116181660a051520193611507565b600581066001600160ff1b038116900361056e57600360058204810204600582040361056e576005611cf481830460030282840660011b6120fa565b0690611d218b611d1a836001600160401b03611d128260a051612239565b511692612239565b519061224a565b600583810204830361056e576001600160401b03611d52611d4a600195600502600586046120fa565b608051612239565b9116905201611a97565b34610264575f366003190112610264576002546040516001600160a01b039091168152602090f35b34610264575f3660031901126102645760035460ff811615610810575f546001600160a01b031633141580611de6575b6105b25760ff1916600355337f2d553fb579456929d17c4cf0dc43b2f2e8e5a8f917cadcc8a5f18e9c4010b75a5f80a2005b50600554421115611db4565b34610264575f36600319011261026457602060405162093a808152f35b34610264575f366003190112610264575f546040516001600160a01b039091168152602090f35b34610264575f3660031901126102645760206040516203f4808152f35b3461026457602036600319011261026457611e6c611ee2565b5f54906001600160a01b039081831633036105b257169081156105b2576001600160a01b031916175f55005b34610264576040366003190112610264576024356001600160a01b0381169190829003610264576020916004355f52600a835260405f20905f52825260ff60405f20541615158152f35b600435906001600160a01b038216820361026457565b9181601f84011215610264578235916001600160401b038311610264576020838186019501011161026457565b5f19811461056e5760010190565b9060048210156102505752565b908060209392818452848401375f828201840152601f01601f1916010190565b61010081019081106001600160401b0382111761053157604052565b60c081019081106001600160401b0382111761053157604052565b61032081019081106001600160401b0382111761053157604052565b60a081019081106001600160401b0382111761053157604052565b90601f801991011681019081106001600160401b0382111761053157604052565b35906001600160a01b038216820361026457565b6001600160401b03811161053157601f01601f191660200190565b3d15612048573d9061202f82612003565b9161203d6040519384611fce565b82523d5f602084013e565b606090565b92919261205982612003565b916120676040519384611fce565b829481845281830111610264578281602093845f960137010152565b91906040838203126102645761209883611fef565b926020810135906001600160401b03821161026457019080601f83011215610264578160206120c99335910161204d565b90565b6120d4612163565b156120f657600554804210156120f15742810390811161056e5790565b505f90565b5f90565b9190820180921161056e57565b90600182811c92168015612135575b602083101461212157565b634e487b7160e01b5f52602260045260245ffd5b91607f1691612116565b6121476121ea565b6101909081810291818304149015171561056e57612710900490565b60ff60035416156120f65760055442111590565b6001546040516370a0823160e01b602082019081526001600160a01b0393841660248084019190915282529092606084019216906001600160401b03831184841017610531575f93849360405251915afa6121d061201e565b90156120f157602081805181010312610264576020015190565b600154604080516318160ddd60e01b60208201908152600482529092918301916001600160a01b0316906001600160401b03831184841017610531575f93849360405251915afa6121d061201e565b9060198110156112035760051b0190565b8115612273576001600160401b03809116826040036040811161056e578183911c16921b161790565b90509056fea26469706673582212205cefc98104cd9fe151adfc6246e00969929f9430c9535338adc59380d286396b64736f6c63430008180033","linkReferences":{}},"methodIdentifiers":{"EXTENSION_QUORUM_BPS()":"97054dcb","EXTENSION_VOTING_PERIOD()":"9e1e1bdf","MAX_EXTENSIONS()":"c07780f6","MAX_EXTENSION_DURATION()":"2c8ebec8","MAX_PAUSE_DURATION()":"2799657d","PAUSE_COOLDOWN()":"b5acb567","currentExtensionCount()":"96a433ea","executeExtension(uint256)":"b8ad6dcb","executeRecovery(uint8,bytes)":"510958be","extensionQuorum()":"e1b8cb3b","getExtension(uint256)":"f61eab7a","getPauseState()":"9a44f1fb","guardian()":"452a9320","hasVotedOnExtension(uint256,address)":"11bd4f7f","isPaused()":"b187bd26","lastPauseTimestamp()":"9a5901de","pause(string,uint256)":"cf659963","pauseTimeRemaining()":"6d361bcb","proposeExtension(uint256)":"8047b34a","securityCouncil()":"27eb6c0f","setGuardian(address)":"8a0dac4a","setSecurityCouncil(address)":"1c1083e2","unpause()":"3f4ba83a","veQS()":"83dd229d","voteOnExtension(uint256,bool)":"c836561a"},"id":35}