{"abi":[{"type":"constructor","inputs":[{"name":"admin_","type":"address","internalType":"address"}],"stateMutability":"nonpayable"},{"type":"function","name":"COUNCIL_SIZE","inputs":[],"outputs":[{"name":"","type":"uint256","internalType":"uint256"}],"stateMutability":"view"},{"type":"function","name":"DOWNGRADE_TIMELOCK","inputs":[],"outputs":[{"name":"","type":"uint256","internalType":"uint256"}],"stateMutability":"view"},{"type":"function","name":"MAX_PAUSE_DURATION","inputs":[],"outputs":[{"name":"","type":"uint256","internalType":"uint256"}],"stateMutability":"view"},{"type":"function","name":"MAX_SIGNERS","inputs":[],"outputs":[{"name":"","type":"uint256","internalType":"uint256"}],"stateMutability":"view"},{"type":"function","name":"PAUSE_THRESHOLD","inputs":[],"outputs":[{"name":"","type":"uint256","internalType":"uint256"}],"stateMutability":"view"},{"type":"function","name":"ROLLBACK_THRESHOLD","inputs":[],"outputs":[{"name":"","type":"uint256","internalType":"uint256"}],"stateMutability":"view"},{"type":"function","name":"ROLLBACK_TIMELOCK","inputs":[],"outputs":[{"name":"","type":"uint256","internalType":"uint256"}],"stateMutability":"view"},{"type":"function","name":"TRAINING_EXIT_TIMELOCK","inputs":[],"outputs":[{"name":"","type":"uint256","internalType":"uint256"}],"stateMutability":"view"},{"type":"function","name":"UPGRADE_TIMELOCK","inputs":[],"outputs":[{"name":"","type":"uint256","internalType":"uint256"}],"stateMutability":"view"},{"type":"function","name":"approveAction","inputs":[{"name":"action","type":"bytes4","internalType":"bytes4"},{"name":"data","type":"bytes","internalType":"bytes"}],"outputs":[],"stateMutability":"nonpayable"},{"type":"function","name":"approveEmergencyRollback","inputs":[],"outputs":[],"stateMutability":"nonpayable"},{"type":"function","name":"canApprove","inputs":[{"name":"","type":"bytes4","internalType":"bytes4"},{"name":"caller","type":"address","internalType":"address"}],"outputs":[{"name":"","type":"bool","internalType":"bool"}],"stateMutability":"view"},{"type":"function","name":"canInitiateRollback","inputs":[],"outputs":[{"name":"","type":"bool","internalType":"bool"}],"stateMutability":"view"},{"type":"function","name":"cancelEmergencyRollback","inputs":[],"outputs":[],"stateMutability":"nonpayable"},{"type":"function","name":"configureMultisig","inputs":[{"name":"signers","type":"address[]","internalType":"address[]"},{"name":"threshold","type":"uint256","internalType":"uint256"}],"outputs":[],"stateMutability":"nonpayable"},{"type":"function","name":"configureSecurityCouncil","inputs":[{"name":"members","type":"address[]","internalType":"address[]"},{"name":"threshold","type":"uint256","internalType":"uint256"}],"outputs":[],"stateMutability":"nonpayable"},{"type":"function","name":"emergencyPause","inputs":[],"outputs":[],"stateMutability":"nonpayable"},{"type":"function","name":"executeEmergencyRollback","inputs":[],"outputs":[],"stateMutability":"nonpayable"},{"type":"function","name":"finalizeTransition","inputs":[],"outputs":[],"stateMutability":"nonpayable"},{"type":"function","name":"finalizeUpgrade","inputs":[],"outputs":[],"stateMutability":"nonpayable"},{"type":"function","name":"getAdmin","inputs":[],"outputs":[{"name":"","type":"address","internalType":"address"}],"stateMutability":"view"},{"type":"function","name":"getApprover","inputs":[{"name":"","type":"bytes4","internalType":"bytes4"}],"outputs":[{"name":"","type":"address","internalType":"address"}],"stateMutability":"view"},{"type":"function","name":"getCouncilPauseStatus","inputs":[],"outputs":[{"name":"signatures","type":"uint256","internalType":"uint256"},{"name":"required","type":"uint256","internalType":"uint256"}],"stateMutability":"view"},{"type":"function","name":"getGovernanceMode","inputs":[],"outputs":[{"name":"","type":"uint8","internalType":"enum IGovernanceSwitch.GovernanceMode"}],"stateMutability":"view"},{"type":"function","name":"getMultisigConfig","inputs":[],"outputs":[{"name":"threshold","type":"uint256","internalType":"uint256"},{"name":"total","type":"uint256","internalType":"uint256"}],"stateMutability":"view"},{"type":"function","name":"getRollbackStatus","inputs":[],"outputs":[{"name":"pending","type":"bool","internalType":"bool"},{"name":"targetMode","type":"uint8","internalType":"enum IGovernanceSwitch.GovernanceMode"},{"name":"reason","type":"string","internalType":"string"},{"name":"signatures","type":"uint256","internalType":"uint256"},{"name":"required","type":"uint256","internalType":"uint256"},{"name":"lockExpiry","type":"uint256","internalType":"uint256"}],"stateMutability":"view"},{"type":"function","name":"getSecurityCouncilConfig","inputs":[],"outputs":[{"name":"threshold","type":"uint256","internalType":"uint256"},{"name":"total","type":"uint256","internalType":"uint256"}],"stateMutability":"view"},{"type":"function","name":"getTimeLockExpiry","inputs":[],"outputs":[{"name":"","type":"uint256","internalType":"uint256"}],"stateMutability":"view"},{"type":"function","name":"getTransitionLockExpiry","inputs":[],"outputs":[{"name":"","type":"uint256","internalType":"uint256"}],"stateMutability":"view"},{"type":"function","name":"initiateCouncilPause","inputs":[],"outputs":[],"stateMutability":"nonpayable"},{"type":"function","name":"initiateEmergencyRollback","inputs":[{"name":"reason","type":"string","internalType":"string"}],"outputs":[],"stateMutability":"nonpayable"},{"type":"function","name":"initiatePause","inputs":[],"outputs":[],"stateMutability":"nonpayable"},{"type":"function","name":"initiateTransition","inputs":[{"name":"targetMode","type":"uint8","internalType":"enum IGovernanceSwitch.GovernanceMode"}],"outputs":[],"stateMutability":"nonpayable"},{"type":"function","name":"initiateUpgrade","inputs":[{"name":"targetMode","type":"uint8","internalType":"enum IGovernanceSwitch.GovernanceMode"}],"outputs":[],"stateMutability":"nonpayable"},{"type":"function","name":"isDowngradeRestricted","inputs":[],"outputs":[{"name":"","type":"bool","internalType":"bool"}],"stateMutability":"view"},{"type":"function","name":"isPaused","inputs":[],"outputs":[{"name":"","type":"bool","internalType":"bool"}],"stateMutability":"view"},{"type":"function","name":"isPausedStrict","inputs":[],"outputs":[{"name":"","type":"bool","internalType":"bool"}],"stateMutability":"view"},{"type":"function","name":"isTimeLockActive","inputs":[],"outputs":[{"name":"","type":"bool","internalType":"bool"}],"stateMutability":"view"},{"type":"function","name":"isTrainingMode","inputs":[],"outputs":[{"name":"","type":"bool","internalType":"bool"}],"stateMutability":"view"},{"type":"function","name":"setGovernanceMode","inputs":[{"name":"newMode","type":"uint8","internalType":"enum IGovernanceSwitch.GovernanceMode"}],"outputs":[],"stateMutability":"nonpayable"},{"type":"function","name":"unpause","inputs":[],"outputs":[],"stateMutability":"nonpayable"},{"type":"event","name":"ActionApproved","inputs":[{"name":"action","type":"bytes4","indexed":true,"internalType":"bytes4"},{"name":"approver","type":"address","indexed":true,"internalType":"address"},{"name":"data","type":"bytes","indexed":false,"internalType":"bytes"}],"anonymous":false},{"type":"event","name":"CouncilPauseSignatureCollected","inputs":[{"name":"member","type":"address","indexed":true,"internalType":"address"},{"name":"current","type":"uint256","indexed":false,"internalType":"uint256"},{"name":"required","type":"uint256","indexed":false,"internalType":"uint256"}],"anonymous":false},{"type":"event","name":"EmergencyRollback","inputs":[{"name":"fromMode","type":"uint8","indexed":true,"internalType":"enum IGovernanceSwitch.GovernanceMode"},{"name":"toMode","type":"uint8","indexed":true,"internalType":"enum IGovernanceSwitch.GovernanceMode"},{"name":"triggeredBy","type":"address","indexed":true,"internalType":"address"},{"name":"reason","type":"string","indexed":false,"internalType":"string"}],"anonymous":false},{"type":"event","name":"GovernanceModeChanged","inputs":[{"name":"oldMode","type":"uint8","indexed":true,"internalType":"enum IGovernanceSwitch.GovernanceMode"},{"name":"newMode","type":"uint8","indexed":true,"internalType":"enum IGovernanceSwitch.GovernanceMode"},{"name":"changedBy","type":"address","indexed":true,"internalType":"address"}],"anonymous":false},{"type":"event","name":"ModeTransitionInitiated","inputs":[{"name":"targetMode","type":"uint8","indexed":true,"internalType":"enum IGovernanceSwitch.GovernanceMode"},{"name":"initiator","type":"address","indexed":true,"internalType":"address"},{"name":"unlockTime","type":"uint256","indexed":false,"internalType":"uint256"}],"anonymous":false},{"type":"event","name":"MultisigConfigured","inputs":[{"name":"signers","type":"address[]","indexed":false,"internalType":"address[]"},{"name":"threshold","type":"uint256","indexed":false,"internalType":"uint256"}],"anonymous":false},{"type":"event","name":"PauseSignatureCollected","inputs":[{"name":"signer","type":"address","indexed":true,"internalType":"address"},{"name":"current","type":"uint256","indexed":false,"internalType":"uint256"},{"name":"required","type":"uint256","indexed":false,"internalType":"uint256"}],"anonymous":false},{"type":"event","name":"Paused","inputs":[{"name":"by","type":"address","indexed":true,"internalType":"address"},{"name":"until","type":"uint256","indexed":false,"internalType":"uint256"}],"anonymous":false},{"type":"event","name":"RollbackSignatureCollected","inputs":[{"name":"member","type":"address","indexed":true,"internalType":"address"},{"name":"current","type":"uint256","indexed":false,"internalType":"uint256"},{"name":"required","type":"uint256","indexed":false,"internalType":"uint256"}],"anonymous":false},{"type":"event","name":"SecurityCouncilConfigured","inputs":[{"name":"members","type":"address[]","indexed":false,"internalType":"address[]"},{"name":"threshold","type":"uint256","indexed":false,"internalType":"uint256"}],"anonymous":false},{"type":"event","name":"Unpaused","inputs":[{"name":"by","type":"address","indexed":true,"internalType":"address"}],"anonymous":false},{"type":"event","name":"UpgradeInitiated","inputs":[{"name":"targetMode","type":"uint8","indexed":false,"internalType":"enum IGovernanceSwitch.GovernanceMode"},{"name":"initiator","type":"address","indexed":false,"internalType":"address"},{"name":"unlockTime","type":"uint256","indexed":false,"internalType":"uint256"}],"anonymous":false},{"type":"error","name":"AlreadySigned","inputs":[]},{"type":"error","name":"CannotApprove","inputs":[{"name":"action","type":"bytes4","internalType":"bytes4"}]},{"type":"error","name":"DuplicateSigner","inputs":[{"name":"signer","type":"address","internalType":"address"}]},{"type":"error","name":"EmptySigners","inputs":[]},{"type":"error","name":"InvalidModeTransition","inputs":[{"name":"from","type":"uint8","internalType":"enum IGovernanceSwitch.GovernanceMode"},{"name":"to","type":"uint8","internalType":"enum IGovernanceSwitch.GovernanceMode"}]},{"type":"error","name":"InvalidThreshold","inputs":[]},{"type":"error","name":"MultisigNotConfigured","inputs":[]},{"type":"error","name":"NoPendingRollback","inputs":[]},{"type":"error","name":"NoPendingUpgrade","inputs":[]},{"type":"error","name":"NotCouncilMember","inputs":[]},{"type":"error","name":"RollbackNotAllowed","inputs":[{"name":"reason","type":"string","internalType":"string"}]},{"type":"error","name":"RollbackThresholdNotReached","inputs":[]},{"type":"error","name":"SecurityCouncilApprovalRequired","inputs":[]},{"type":"error","name":"TimeLockNotExpired","inputs":[]},{"type":"error","name":"TooManySigners","inputs":[{"name":"provided","type":"uint256","internalType":"uint256"},{"name":"max","type":"uint256","internalType":"uint256"}]},{"type":"error","name":"Unauthorized","inputs":[]}],"bytecode":{"object":"0x608060405234801562000010575f80fd5b5060405162002afe38038062002afe8339810160408190526200003391620000ae565b6001600160a01b0381166200007e5760405162461bcd60e51b815260206004820152600d60248201526c24b73b30b634b21030b236b4b760991b604482015260640160405180910390fd5b5f80546001600160a81b0319166101006001600160a01b03939093169290920260ff1916919091179055620000dd565b5f60208284031215620000bf575f80fd5b81516001600160a01b0381168114620000d6575f80fd5b9392505050565b612a1380620000eb5f395ff3fe608060405234801561000f575f80fd5b506004361061024a575f3560e01c80635f7f0516116101405780639e3fea86116100bf578063d1cdef8e11610084578063d1cdef8e14610429578063d476b8a814610431578063dee5e55b14610439578063e15ec5571461044b578063ed8d112214610453578063f9e6c84614610466575f80fd5b80639e3fea86146103eb578063a97c580a146103fe578063b187bd2614610406578063c726beab1461040e578063cb9e9bff14610421575f80fd5b80637a8611ef116101055780637a8611ef146103ab5780637b630d00146103b35780637d7c0e1f146103c657806383109db0146103d95780639a508c8e146103e3575f80fd5b80635f7f0516146103455780636134bcef1461035857806361f2b55114610360578063621ba71e1461037a5780636e9960c314610382575f80fd5b80632f66ea31116101cc578063471427c211610191578063471427c21461031b5780634cb857791461032357806351858e271461032d57806359d615ad1461033557806359ecd6571461033d575f80fd5b80632f66ea31146102db5780633620297c146102c957806336b3cd83146102ee578063385722fc1461030b5780633f4ba83a14610313575f80fd5b80631ef0c5d4116102125780631ef0c5d4146102ad5780631f032e69146102b557806325ed32ca146102bf5780632799657d146102c95780632d31011d146102d3575f80fd5b80630138c99b1461024e5780630575b7431461026b5780630d2fe6ab146102805780630dc817ad1461029357806310ed1ae6146102a5575b5f80fd5b61025661046e565b60405190151581526020015b60405180910390f35b61027e6102793660046123dc565b61048d565b005b61027e61028e3660046123dc565b610644565b600c545b604051908152602001610262565b61027e610834565b61027e610a25565b6102976201518081565b61029762093a8081565b6102976203f48081565b610297600981565b61027e6102e9366004612401565b610b3e565b6102f6610e1f565b60408051928352602083019190915201610262565b61027e610e40565b61027e610f04565b610256611027565b60175460056102f6565b61027e61102f565b610297600781565b610297601481565b61027e6103533660046124d1565b6110a2565b600854610297565b6103686111de565b60405161026296959493929190612597565b6102566112ad565b5f5461010090046001600160a01b03165b6040516001600160a01b039091168152602001610262565b6102566112c8565b61027e6103c13660046123dc565b61132c565b6102566103d43660046125f2565b6116de565b61029762278d0081565b61027e611798565b6103936103f9366004612623565b611838565b61027e611897565b610256611931565b61027e61041c366004612401565b61194a565b610256611bb9565b6102f6611bd0565b61027e611c11565b5f5460ff16604051610262919061263c565b610297600581565b61027e61046136600461264a565b611d07565b61027e611f1a565b5f805b5f5460ff16600381111561048757610487612520565b14905090565b60025f5460ff1660038111156104a5576104a5612520565b146104c2576040516282b42960e81b815260040160405180910390fd5b335f9081526003602052604090205460ff166104f0576040516282b42960e81b815260040160405180910390fd5b335f9081526009602052604090205460ff16156105205760405163585eb56560e11b815260040160405180910390fd5b600a545f03610552576007805482919060ff1916600183600381111561054857610548612520565b02179055506105bd565b80600381111561056457610564612520565b60075460ff16600381111561057b5761057b612520565b146105bd5760405162461bcd60e51b815260206004820152600d60248201526c09adec8ca40dad2e6dac2e8c6d609b1b60448201526064015b60405180910390fd5b335f908152600960205260408120805460ff19166001179055600a8054916105e48361269d565b9190505550600254600a54106106415761060162093a80426126b5565b60088190556040517f9cbe1362661c436ae836ea8e418c794f7c1614e25851254977bc66564639be2a9161063891849133916126c8565b60405180910390a15b50565b5f5460ff16610653818361203b565b5f81600381111561066657610666612520565b03610743575f5461010090046001600160a01b03163314610699576040516282b42960e81b815260040160405180910390fd5b60018260038111156106ad576106ad612520565b146106cf578082604051631d32a94d60e01b81526004016105b49291906126f0565b5f805483919060ff191660018360038111156106ed576106ed612520565b02179055503382600381111561070557610705612520565b82600381111561071757610717612520565b6040517f8dd5c5e77980494ecc8a2275d8c55c60b6de3485cb2a18900ce00a620dc8cd32905f90a45050565b600181600381111561075757610757612520565b036107e2575f5461010090046001600160a01b0316331461078a576040516282b42960e81b815260040160405180910390fd5b600282600381111561079e5761079e612520565b146107c0578082604051631d32a94d60e01b81526004016105b49291906126f0565b6001545f036106cf5760405163b995d8e360e01b815260040160405180910390fd5b60028160038111156107f6576107f6612520565b03610818578082604051631d32a94d60e01b81526004016105b49291906126f0565b6040516282b42960e81b815260040160405180910390fd5b5050565b600d54600160a01b900460ff1661085e57604051631d9c9af360e31b815260040160405180910390fd5b60076011541015610882576040516338e769ff60e21b815260040160405180910390fd5b600f544210156108a55760405163191f4d1b60e31b815260040160405180910390fd5b5f8054600d54600e805460ff93841694600160a81b909304909316926108ca9061270b565b80601f01602080910402602001604051908101604052809291908181526020018280546108f69061270b565b80156109415780601f1061091857610100808354040283529160200191610941565b820191905f5260205f20905b81548152906001019060200180831161092457829003601f168201915b50505050509050815f806101000a81548160ff0219169083600381111561096a5761096a612520565b021790555061097761212a565b3382600381111561098a5761098a612520565b84600381111561099c5761099c612520565b7f6b4cc694a990d977593211c04566dee61182948ec956360a403ea77c5c989451846040516109cb9190612743565b60405180910390a4338260038111156109e6576109e6612520565b8460038111156109f8576109f8612520565b6040517f8dd5c5e77980494ecc8a2275d8c55c60b6de3485cb2a18900ce00a620dc8cd32905f90a4505050565b60035f5460ff166003811115610a3d57610a3d612520565b14610a5a576040516282b42960e81b815260040160405180910390fd5b335f9081526006602052604090205460ff16610a88576040516282b42960e81b815260040160405180910390fd5b335f9081526016602052604090205460ff1615610ab85760405163585eb56560e11b815260040160405180910390fd5b335f908152601660205260408120805460ff191660011790556017805491610adf8361269d565b9091555050601754604080519182526005602083015233917f0486071d0cdb00b891a7a5c87d080f0093d695896006e86c9c9bdc4b4fbcc998910160405180910390a2600560175410610b3c57610b346121be565b610b3c61220f565b565b5f805460ff166003811115610b5557610b55612520565b1480610b76575060015f5460ff166003811115610b7457610b74612520565b145b15610bae575f5461010090046001600160a01b03163314610ba9576040516282b42960e81b815260040160405180910390fd5b610bf9565b60025f5460ff166003811115610bc657610bc6612520565b0361081857335f9081526003602052604090205460ff16610ba9576040516282b42960e81b815260040160405180910390fd5b60098214610c1a5760405163aabd5a0960e01b815260040160405180910390fd5b801580610c2657508181115b15610c445760405163aabd5a0960e01b815260040160405180910390fd5b6004545f5b81811015610ca3575f60065f60048481548110610c6857610c68612755565b5f918252602080832091909101546001600160a01b031683528201929092526040019020805460ff1916911515919091179055600101610c49565b50610caf60045f6123ae565b5f5b83811015610dd7575f858583818110610ccc57610ccc612755565b9050602002016020810190610ce19190612769565b90506001600160a01b038116610d2a5760405162461bcd60e51b815260206004820152600e60248201526d24b73b30b634b21036b2b6b132b960911b60448201526064016105b4565b6001600160a01b0381165f9081526006602052604090205460ff1615610d6e57604051637010e27960e11b81526001600160a01b03821660048201526024016105b4565b6004805460018181019092557f8a35acfbc15ff81a39ae7d344fd709f28e8600b4aa8c65c6b64bfe7fe36bd19b0180546001600160a01b039093166001600160a01b0319909316831790555f91825260066020526040909120805460ff19168217905501610cb1565b5060058290556040517f7951cc7a75db88f37b13d98b1d4d6dddada0f8f1acf5f7f067fd2a4f15bd0b0590610e1190869086908690612782565b60405180910390a150505050565b6004545f9081908103610e3457505f91829150565b50506005546004549091565b335f9081526006602052604090205460ff16610e6f57604051634a42c42d60e01b815260040160405180910390fd5b600d54600160a01b900460ff16610e9957604051631d9c9af360e31b815260040160405180910390fd5b600f544210158015610eae5750600760115410155b15610efc57604051630861758560e41b815260206004820152601960248201527f526f6c6c6261636b20616c726561647920617070726f7665640000000000000060448201526064016105b4565b610b3c61212a565b5f805460ff166003811115610f1b57610f1b612520565b1480610f3c575060015f5460ff166003811115610f3a57610f3a612520565b145b15610f74575f5461010090046001600160a01b03163314610f6f576040516282b42960e81b815260040160405180910390fd5b610fed565b60025f5460ff166003811115610f8c57610f8c612520565b03610fbf57335f9081526003602052604090205460ff16610f6f576040516282b42960e81b815260040160405180910390fd5b335f9081526006602052604090205460ff16610fed576040516282b42960e81b815260040160405180910390fd5b6012805460ff191690555f601381905560405133917f5db9ee0a495bf2e6ff9c91a7834c1ba4fdd244a5e8aa4e537bd38aeae4b073aa91a2565b5f6003610471565b5f805460ff16600381111561104657611046612520565b1480611067575060015f5460ff16600381111561106557611065612520565b145b15610818575f5461010090046001600160a01b0316331461109a576040516282b42960e81b815260040160405180910390fd5b610b3c6121be565b5f805460ff1660038111156110b9576110b9612520565b14806110da575060015f5460ff1660038111156110d8576110d8612520565b145b15611112575f5461010090046001600160a01b0316331461110d576040516282b42960e81b815260040160405180910390fd5b61118b565b60025f5460ff16600381111561112a5761112a612520565b0361115d57335f9081526003602052604090205460ff1661110d576040516282b42960e81b815260040160405180910390fd5b335f9081526006602052604090205460ff1661118b576040516282b42960e81b815260040160405180910390fd5b336001600160a01b0316836001600160e01b0319167f1acc57986d474a73434b9f914a62028affdad3ab6bc740c69f6a4f26f6cf2d1e84846040516111d19291906127d5565b60405180910390a3505050565b5f8060605f805f600d60149054906101000a900460ff16600d60159054906101000a900460ff16600e6011546007600f5483805461121b9061270b565b80601f01602080910402602001604051908101604052809291908181526020018280546112479061270b565b80156112925780601f1061126957610100808354040283529160200191611292565b820191905f5260205f20905b81548152906001019060200180831161127557829003601f168201915b50505050509350955095509550955095509550909192939495565b6012545f9060ff166112be57505f90565b5060135442111590565b5f60035f5460ff1660038111156112e1576112e1612520565b1480611302575060025f5460ff16600381111561130057611300612520565b145b80156113115750600454600911155b80156113275750600d54600160a01b900460ff16155b905090565b5f5460ff1661133b818361203b565b5f81600381111561134e5761134e612520565b03611451575f5461010090046001600160a01b03163314611381576040516282b42960e81b815260040160405180910390fd5b600182600381111561139557611395612520565b146113b7578082604051631d32a94d60e01b81526004016105b49291906126f0565b600b805483919060ff191660018360038111156113d6576113d6612520565b02179055506113e86203f480426126b5565b600c55600d80546001600160a01b0319163390811790915582600381111561141257611412612520565b7f97ca50dbc8cd2d1526923c0a85aca0946056fa293563e6aa9810fffe8027fc5c600c5460405161144591815260200190565b60405180910390a35050565b600281600381111561146557611465612520565b0361159857335f9081526003602052604090205460ff16611498576040516282b42960e81b815260040160405180910390fd5b600a5415806114ce57508160038111156114b4576114b4612520565b60075460ff1660038111156114cb576114cb612520565b14155b15611500576114db612274565b6007805483919060ff191660018360038111156114fa576114fa612520565b02179055505b335f9081526009602052604090205460ff16156115305760405163585eb56560e11b815260040160405180910390fd5b335f908152600960205260408120805460ff19166001179055600a8054916115578361269d565b9190505550600254600a541061083057600b805483919060ff1916600183600381111561158657611586612520565b02179055506113e862093a80426126b5565b60038160038111156115ac576115ac612520565b0361081857335f9081526006602052604090205460ff166115df576040516282b42960e81b815260040160405180910390fd5b600a54158061161557508160038111156115fb576115fb612520565b60075460ff16600381111561161257611612612520565b14155b1561164757611622612274565b6007805483919060ff1916600183600381111561164157611641612520565b02179055505b335f9081526009602052604090205460ff16156116775760405163585eb56560e11b815260040160405180910390fd5b335f908152600960205260408120805460ff19166001179055600a80549161169e8361269d565b91905055506007600a541061083057600b805483919060ff191660018360038111156116cc576116cc612520565b02179055506113e862278d00426126b5565b5f805f5460ff1660038111156116f6576116f6612520565b1480611717575060015f5460ff16600381111561171557611715612520565b145b1561173757505f546001600160a01b038281166101009092041614611792565b60025f5460ff16600381111561174f5761174f612520565b0361177557506001600160a01b0381165f9081526003602052604090205460ff16611792565b506001600160a01b0381165f9081526006602052604090205460ff165b92915050565b6008545f036117ba57604051636eb093af60e11b815260040160405180910390fd5b60085442116117dc5760405163191f4d1b60e31b815260040160405180910390fd5b5f805460075460ff8083169391169182919060ff1916600183600381111561180657611806612520565b0217905550611813612274565b3381600381111561182657611826612520565b83600381111561071757610717612520565b5f805f5460ff16600381111561185057611850612520565b1480611871575060015f5460ff16600381111561186f5761186f612520565b145b1561188b5750505f5461010090046001600160a01b031690565b5030919050565b919050565b600c545f036118b957604051636eb093af60e11b815260040160405180910390fd5b600c544210156118dc5760405163191f4d1b60e31b815260040160405180910390fd5b5f8054600b5460ff8083169391169182919060ff1916600183600381111561190657611906612520565b0217905550600b805460ff191690555f600c55600d80546001600160a01b0319169055611813612274565b6012545f9060ff16801561132757505060135442111590565b5f5461010090046001600160a01b03163314611978576040516282b42960e81b815260040160405180910390fd5b5f829003611999576040516387635cfb60e01b815260040160405180910390fd5b60148211156119c55760405163118587f960e21b815260048101839052601460248201526044016105b4565b8015806119d157508181115b156119ef5760405163aabd5a0960e01b815260040160405180910390fd5b6001545f5b81811015611a4e575f60035f60018481548110611a1357611a13612755565b5f918252602080832091909101546001600160a01b031683528201929092526040019020805460ff19169115159190911790556001016119f4565b50611a5a60015f6123ae565b5f5b83811015611b7f575f858583818110611a7757611a77612755565b9050602002016020810190611a8c9190612769565b90506001600160a01b038116611ad55760405162461bcd60e51b815260206004820152600e60248201526d24b73b30b634b21039b4b3b732b960911b60448201526064016105b4565b6001600160a01b0381165f9081526003602052604090205460ff1615611b1957604051637010e27960e11b81526001600160a01b03821660048201526024016105b4565b6001805480820182557fb10e2d527612073b26eecdfd717e6a320cf44b4afac2b0732d9fcbe2b7fa0cf60180546001600160a01b039093166001600160a01b0319909316831790555f91825260036020526040909120805460ff19168217905501611a5c565b5060028290556040517f4734ced00a1bff33c4f04813f7cdce25abf6456f1a18765898fdf3d287798b9290610e1190869086908690612782565b5f8060085411801561132757505060085442111590565b5f8060025f5460ff166003811115611bea57611bea612520565b14158015611bf85750600154155b15611c0557505f91829150565b50506002546001549091565b335f9081526006602052604090205460ff16611c4057604051634a42c42d60e01b815260040160405180910390fd5b600d54600160a01b900460ff16611c6a57604051631d9c9af360e31b815260040160405180910390fd5b335f9081526010602052604090205460ff1615611c9a5760405163585eb56560e11b815260040160405180910390fd5b335f908152601060205260408120805460ff191660011790556011805491611cc18361269d565b9091555050601154604080519182526007602083015233917f89f10fb1fcf102dc7b017a9d5fb1e94c7c2e22b2bed34aec477c085163cf2e5191015b60405180910390a2565b335f9081526006602052604090205460ff16611d3657604051634a42c42d60e01b815260040160405180910390fd5b60035f5460ff166003811115611d4e57611d4e612520565b14158015611d72575060025f5460ff166003811115611d6f57611d6f612520565b14155b15611dd157604051630861758560e41b815260206004820152602860248201527f4f6e6c792066726f6d20444543454e5452414c495a4544206f72204d554c5449604482015267534947206d6f646560c01b60648201526084016105b4565b600d54600160a01b900460ff1615611e2c57604051630861758560e41b815260206004820152601860248201527f526f6c6c6261636b20616c72656164792070656e64696e67000000000000000060448201526064016105b4565b5f60035f5460ff166003811115611e4557611e45612520565b03611e5257506002611e56565b5060015b600d8054600160a01b60ff60a01b1982168117835583929161ffff60a01b191617600160a81b836003811115611e8e57611e8e612520565b0217905550600e611ea0838583612863565b50611eae62015180426126b5565b600f55335f8181526010602052604090819020805460ff19166001908117909155601181905590517f89f10fb1fcf102dc7b017a9d5fb1e94c7c2e22b2bed34aec477c085163cf2e5191611f0d91600790918252602082015260400190565b60405180910390a2505050565b60025f5460ff166003811115611f3257611f32612520565b14611f4f576040516282b42960e81b815260040160405180910390fd5b335f9081526003602052604090205460ff16611f7d576040516282b42960e81b815260040160405180910390fd5b335f9081526014602052604090205460ff1615611fad5760405163585eb56560e11b815260040160405180910390fd5b335f908152601460205260408120805460ff191660011790556015805491611fd48361269d565b909155505060155460025460405133927f301875aa0a96ae9892130c6df11969cf6d41571fa8cd7959abc897c8f37b1c569261201892918252602082015260400190565b60405180910390a260025460155410610b3c576120336121be565b610b3c612349565b80600381111561204d5761204d612520565b82600381111561205f5761205f612520565b03612081578181604051631d32a94d60e01b81526004016105b49291906126f0565b5f82600381111561209457612094612520565b1480156120b3575060018160038111156120b0576120b0612520565b14155b156120d5578181604051631d32a94d60e01b81526004016105b49291906126f0565b60018260038111156120e9576120e9612520565b1480156121085750600281600381111561210557612105612520565b14155b15610830578181604051631d32a94d60e01b81526004016105b49291906126f0565b600d805461ffff60a01b1916905560408051602081019091525f8152600e90612153908261291d565b505f600f8190556011819055600454905b81811015610830575f60105f6004848154811061218357612183612755565b5f918252602080832091909101546001600160a01b031683528201929092526040019020805460ff1916911515919091179055600101612164565b6012805460ff191660011790556121d86203f480426126b5565b601381905560405190815233907fab40a374bc51de372200a8bc981af8c9ecdc08dfdaef0bb6e09f88f3c616ef3d90602001611cfd565b5f6017819055600454905b81811015610830575f60165f6004848154811061223957612239612755565b5f918252602080832091909101546001600160a01b031683528201929092526040019020805460ff191691151591909117905560010161221a565b6007805460ff191690555f6008819055600a819055600154905b818110156122e8575f60095f600184815481106122ad576122ad612755565b5f918252602080832091909101546001600160a01b031683528201929092526040019020805460ff191691151591909117905560010161228e565b50506004545f5b81811015610830575f60095f6004848154811061230e5761230e612755565b5f918252602080832091909101546001600160a01b031683528201929092526040019020805460ff19169115159190911790556001016122ef565b5f6015819055600154905b81811015610830575f60145f6001848154811061237357612373612755565b5f918252602080832091909101546001600160a01b031683528201929092526040019020805460ff1916911515919091179055600101612354565b5080545f8255905f5260205f209081019061064191905b808211156123d8575f81556001016123c5565b5090565b5f602082840312156123ec575f80fd5b8135600481106123fa575f80fd5b9392505050565b5f805f60408486031215612413575f80fd5b833567ffffffffffffffff8082111561242a575f80fd5b818601915086601f83011261243d575f80fd5b81358181111561244b575f80fd5b8760208260051b850101111561245f575f80fd5b6020928301989097509590910135949350505050565b80356001600160e01b031981168114611892575f80fd5b5f8083601f84011261249c575f80fd5b50813567ffffffffffffffff8111156124b3575f80fd5b6020830191508360208285010111156124ca575f80fd5b9250929050565b5f805f604084860312156124e3575f80fd5b6124ec84612475565b9250602084013567ffffffffffffffff811115612507575f80fd5b6125138682870161248c565b9497909650939450505050565b634e487b7160e01b5f52602160045260245ffd5b6004811061255057634e487b7160e01b5f52602160045260245ffd5b9052565b5f81518084525f5b818110156125785760208185018101518683018201520161255c565b505f602082860101526020601f19601f83011685010191505092915050565b86151581526125a96020820187612534565b60c060408201525f6125be60c0830187612554565b606083019590955250608081019290925260a0909101529392505050565b80356001600160a01b0381168114611892575f80fd5b5f8060408385031215612603575f80fd5b61260c83612475565b915061261a602084016125dc565b90509250929050565b5f60208284031215612633575f80fd5b6123fa82612475565b602081016117928284612534565b5f806020838503121561265b575f80fd5b823567ffffffffffffffff811115612671575f80fd5b61267d8582860161248c565b90969095509350505050565b634e487b7160e01b5f52601160045260245ffd5b5f600182016126ae576126ae612689565b5060010190565b8082018082111561179257611792612689565b606081016126d68286612534565b6001600160a01b0393909316602082015260400152919050565b604081016126fe8285612534565b6123fa6020830184612534565b600181811c9082168061271f57607f821691505b60208210810361273d57634e487b7160e01b5f52602260045260245ffd5b50919050565b602081525f6123fa6020830184612554565b634e487b7160e01b5f52603260045260245ffd5b5f60208284031215612779575f80fd5b6123fa826125dc565b604080825281018390525f8460608301825b868110156127c2576001600160a01b036127ad846125dc565b16825260209283019290910190600101612794565b5060209390930193909352509392505050565b60208152816020820152818360408301375f818301604090810191909152601f909201601f19160101919050565b634e487b7160e01b5f52604160045260245ffd5b601f82111561285e57805f5260205f20601f840160051c8101602085101561283c5750805b601f840160051c820191505b8181101561285b575f8155600101612848565b50505b505050565b67ffffffffffffffff83111561287b5761287b612803565b61288f83612889835461270b565b83612817565b5f601f8411600181146128c0575f85156128a95750838201355b5f19600387901b1c1916600186901b17835561285b565b5f83815260208120601f198716915b828110156128ef57868501358255602094850194600190920191016128cf565b508682101561290b575f1960f88860031b161c19848701351681555b505060018560011b0183555050505050565b815167ffffffffffffffff81111561293757612937612803565b61294b81612945845461270b565b84612817565b602080601f83116001811461297e575f84156129675750858301515b5f19600386901b1c1916600185901b1785556129d5565b5f85815260208120601f198616915b828110156129ac5788860151825594840194600190910190840161298d565b50858210156129c957878501515f19600388901b60f8161c191681555b505060018460011b0185555b50505050505056fea26469706673582212202669ec95c458e08d66ebc2039401611b8311798aa63374434dc61ffd7ff72c7264736f6c63430008180033","linkReferences":{}},"methodIdentifiers":{"COUNCIL_SIZE()":"2d31011d","DOWNGRADE_TIMELOCK()":"83109db0","MAX_PAUSE_DURATION()":"2799657d","MAX_SIGNERS()":"59ecd657","PAUSE_THRESHOLD()":"e15ec557","ROLLBACK_THRESHOLD()":"59d615ad","ROLLBACK_TIMELOCK()":"1f032e69","TRAINING_EXIT_TIMELOCK()":"3620297c","UPGRADE_TIMELOCK()":"25ed32ca","approveAction(bytes4,bytes)":"5f7f0516","approveEmergencyRollback()":"d476b8a8","canApprove(bytes4,address)":"7d7c0e1f","canInitiateRollback()":"7a8611ef","cancelEmergencyRollback()":"385722fc","configureMultisig(address[],uint256)":"c726beab","configureSecurityCouncil(address[],uint256)":"2f66ea31","emergencyPause()":"51858e27","executeEmergencyRollback()":"10ed1ae6","finalizeTransition()":"a97c580a","finalizeUpgrade()":"9a508c8e","getAdmin()":"6e9960c3","getApprover(bytes4)":"9e3fea86","getCouncilPauseStatus()":"4cb85779","getGovernanceMode()":"dee5e55b","getMultisigConfig()":"d1cdef8e","getRollbackStatus()":"61f2b551","getSecurityCouncilConfig()":"36b3cd83","getTimeLockExpiry()":"6134bcef","getTransitionLockExpiry()":"0dc817ad","initiateCouncilPause()":"1ef0c5d4","initiateEmergencyRollback(string)":"ed8d1122","initiatePause()":"f9e6c846","initiateTransition(uint8)":"7b630d00","initiateUpgrade(uint8)":"0575b743","isDowngradeRestricted()":"471427c2","isPaused()":"b187bd26","isPausedStrict()":"621ba71e","isTimeLockActive()":"cb9e9bff","isTrainingMode()":"0138c99b","setGovernanceMode(uint8)":"0d2fe6ab","unpause()":"3f4ba83a"},"id":33}