{"abi":[{"type":"constructor","inputs":[{"name":"admin_","type":"address","internalType":"address"}],"stateMutability":"nonpayable"},{"type":"function","name":"DOWNGRADE_TIMELOCK","inputs":[],"outputs":[{"name":"","type":"uint256","internalType":"uint256"}],"stateMutability":"view"},{"type":"function","name":"MAX_PAUSE_DURATION","inputs":[],"outputs":[{"name":"","type":"uint256","internalType":"uint256"}],"stateMutability":"view"},{"type":"function","name":"MAX_SIGNERS","inputs":[],"outputs":[{"name":"","type":"uint256","internalType":"uint256"}],"stateMutability":"view"},{"type":"function","name":"UPGRADE_TIMELOCK","inputs":[],"outputs":[{"name":"","type":"uint256","internalType":"uint256"}],"stateMutability":"view"},{"type":"function","name":"approveAction","inputs":[{"name":"action","type":"bytes4","internalType":"bytes4"},{"name":"data","type":"bytes","internalType":"bytes"}],"outputs":[],"stateMutability":"nonpayable"},{"type":"function","name":"canApprove","inputs":[{"name":"","type":"bytes4","internalType":"bytes4"},{"name":"caller","type":"address","internalType":"address"}],"outputs":[{"name":"","type":"bool","internalType":"bool"}],"stateMutability":"view"},{"type":"function","name":"configureMultisig","inputs":[{"name":"signers","type":"address[]","internalType":"address[]"},{"name":"threshold","type":"uint256","internalType":"uint256"}],"outputs":[],"stateMutability":"nonpayable"},{"type":"function","name":"emergencyPause","inputs":[],"outputs":[],"stateMutability":"nonpayable"},{"type":"function","name":"finalizeUpgrade","inputs":[],"outputs":[],"stateMutability":"nonpayable"},{"type":"function","name":"getAdmin","inputs":[],"outputs":[{"name":"","type":"address","internalType":"address"}],"stateMutability":"view"},{"type":"function","name":"getApprover","inputs":[{"name":"","type":"bytes4","internalType":"bytes4"}],"outputs":[{"name":"","type":"address","internalType":"address"}],"stateMutability":"view"},{"type":"function","name":"getGovernanceMode","inputs":[],"outputs":[{"name":"","type":"uint8","internalType":"enum IGovernanceSwitch.GovernanceMode"}],"stateMutability":"view"},{"type":"function","name":"getMultisigConfig","inputs":[],"outputs":[{"name":"threshold","type":"uint256","internalType":"uint256"},{"name":"total","type":"uint256","internalType":"uint256"}],"stateMutability":"view"},{"type":"function","name":"getSecurityCouncilConfig","inputs":[],"outputs":[{"name":"threshold","type":"uint256","internalType":"uint256"},{"name":"total","type":"uint256","internalType":"uint256"}],"stateMutability":"view"},{"type":"function","name":"getTimeLockExpiry","inputs":[],"outputs":[{"name":"","type":"uint256","internalType":"uint256"}],"stateMutability":"view"},{"type":"function","name":"initiatePause","inputs":[],"outputs":[],"stateMutability":"nonpayable"},{"type":"function","name":"initiateUpgrade","inputs":[{"name":"targetMode","type":"uint8","internalType":"enum IGovernanceSwitch.GovernanceMode"}],"outputs":[],"stateMutability":"nonpayable"},{"type":"function","name":"isDowngradeRestricted","inputs":[],"outputs":[{"name":"","type":"bool","internalType":"bool"}],"stateMutability":"view"},{"type":"function","name":"isPaused","inputs":[],"outputs":[{"name":"","type":"bool","internalType":"bool"}],"stateMutability":"view"},{"type":"function","name":"isPausedStrict","inputs":[],"outputs":[{"name":"","type":"bool","internalType":"bool"}],"stateMutability":"view"},{"type":"function","name":"isTimeLockActive","inputs":[],"outputs":[{"name":"","type":"bool","internalType":"bool"}],"stateMutability":"view"},{"type":"function","name":"setGovernanceMode","inputs":[{"name":"newMode","type":"uint8","internalType":"enum IGovernanceSwitch.GovernanceMode"}],"outputs":[],"stateMutability":"nonpayable"},{"type":"function","name":"unpause","inputs":[],"outputs":[],"stateMutability":"nonpayable"},{"type":"event","name":"ActionApproved","inputs":[{"name":"action","type":"bytes4","indexed":true,"internalType":"bytes4"},{"name":"approver","type":"address","indexed":true,"internalType":"address"},{"name":"data","type":"bytes","indexed":false,"internalType":"bytes"}],"anonymous":false},{"type":"event","name":"GovernanceModeChanged","inputs":[{"name":"oldMode","type":"uint8","indexed":true,"internalType":"enum IGovernanceSwitch.GovernanceMode"},{"name":"newMode","type":"uint8","indexed":true,"internalType":"enum IGovernanceSwitch.GovernanceMode"},{"name":"changedBy","type":"address","indexed":true,"internalType":"address"}],"anonymous":false},{"type":"event","name":"MultisigConfigured","inputs":[{"name":"signers","type":"address[]","indexed":false,"internalType":"address[]"},{"name":"threshold","type":"uint256","indexed":false,"internalType":"uint256"}],"anonymous":false},{"type":"event","name":"PauseSignatureCollected","inputs":[{"name":"signer","type":"address","indexed":true,"internalType":"address"},{"name":"current","type":"uint256","indexed":false,"internalType":"uint256"},{"name":"required","type":"uint256","indexed":false,"internalType":"uint256"}],"anonymous":false},{"type":"event","name":"Paused","inputs":[{"name":"by","type":"address","indexed":true,"internalType":"address"},{"name":"until","type":"uint256","indexed":false,"internalType":"uint256"}],"anonymous":false},{"type":"event","name":"Unpaused","inputs":[{"name":"by","type":"address","indexed":true,"internalType":"address"}],"anonymous":false},{"type":"event","name":"UpgradeInitiated","inputs":[{"name":"targetMode","type":"uint8","indexed":false,"internalType":"enum IGovernanceSwitch.GovernanceMode"},{"name":"initiator","type":"address","indexed":false,"internalType":"address"},{"name":"unlockTime","type":"uint256","indexed":false,"internalType":"uint256"}],"anonymous":false},{"type":"error","name":"AlreadySigned","inputs":[]},{"type":"error","name":"CannotApprove","inputs":[{"name":"action","type":"bytes4","internalType":"bytes4"}]},{"type":"error","name":"DuplicateSigner","inputs":[{"name":"signer","type":"address","internalType":"address"}]},{"type":"error","name":"EmptySigners","inputs":[]},{"type":"error","name":"InvalidModeTransition","inputs":[{"name":"from","type":"uint8","internalType":"enum IGovernanceSwitch.GovernanceMode"},{"name":"to","type":"uint8","internalType":"enum IGovernanceSwitch.GovernanceMode"}]},{"type":"error","name":"InvalidThreshold","inputs":[]},{"type":"error","name":"MultisigNotConfigured","inputs":[]},{"type":"error","name":"NoPendingUpgrade","inputs":[]},{"type":"error","name":"TimeLockNotExpired","inputs":[]},{"type":"error","name":"TooManySigners","inputs":[{"name":"provided","type":"uint256","internalType":"uint256"},{"name":"max","type":"uint256","internalType":"uint256"}]},{"type":"error","name":"Unauthorized","inputs":[]}],"bytecode":{"object":"0x6080346100bc57601f6110e938819003918201601f19168301916001600160401b038311848410176100c0578084926020946040528339810103126100bc57516001600160a01b0381168082036100bc5715610087575f80546001600160a81b03191660089290921b610100600160a81b031691909117905560405161101490816100d58239f35b60405162461bcd60e51b815260206004820152600d60248201526c24b73b30b634b21030b236b4b760991b6044820152606490fd5b5f80fd5b634e487b7160e01b5f52604160045260245ffdfe6080604081815260049081361015610015575f80fd5b5f925f3560e01c9081630575b74314610c6a575080630d2fe6ab14610af557806325ed32ca14610ad75780632799657d14610ab957806336b3cd8314610a9e5780633f4ba83a14610a08578063471427c2146109c757806351858e271461095a57806359ecd6571461093e5780635f7f0516146108065780636134bcef146107e7578063621ba71e146107ca5780636e9960c31461079e5780637d7c0e1f1461075a57806383109db01461073c5780639a508c8e1461063f5780639e3fea8614610607578063b187bd26146105d0578063c726beab146102f3578063cb9e9bff146102bd578063d1cdef8e14610293578063dee5e55b146102685763f9e6c8461461011e575f80fd5b3461026457826003193601126102645760ff83541691600391600384101561025157600180940361024557338552602091600360205260ff82872054161561023857338652600c90600c60205260ff838820541661022a5750338652600c6020528186209260ff199360018582541617905561019b600d54610e3f565b80600d556002549084518181528260208201527f301875aa0a96ae9892130c6df11969cf6d41571fa8cd7959abc897c8f37b1c56863392a210156101dd578680f35b6101e5610f92565b86600d5560015494875b8681106101fc5750508680f35b806102078992610f19565b905490841b1c6001600160a01b03168a52848452858a20805488169055016101ef565b825163585eb56560e11b8152fd5b90516282b42960e81b8152fd5b516282b42960e81b8152fd5b634e487b7160e01b855260218252602485fd5b8280fd5b83823461028f578160031936011261028f5761028d60ff602093541691518092610e07565bf35b5080fd5b5082346102ba57806003193601126102ba57506102ae610f62565b82519182526020820152f35b80fd5b83823461028f578160031936011261028f5760075460209181151591826102e8575b50519015158152f35b4211159150836102df565b50903461026457816003193601126102645780359067ffffffffffffffff908183116105cc57366023840112156105cc57828101359182116105cc57602491600536848360051b870101116105c85786548435946001600160a01b0392909160081c831633036105b95783156105a9576014841161058c5785158015610583575b610573576001948554868b5b82811061054657509050548a875580610503575b5089959493955b848110610421575050508460025581875197808901908952526060870195019287905b8282106103f657887f4734ced00a1bff33c4f04813f7cdce25abf6456f1a18765898fdf3d287798b9289808a8a60208301520390a180f35b909192939586359082821680920361041d57908152602090810196019392918301906103be565b5f80fd5b838184989697981b8a0101358581168091036104ff5780156104cc57808c528b60039160ff8d6020938585522054166104b7578954680100000000000000008110156104a557908e61047b838d8098979695018855610f19565b815490861b908c85831b921b191617905552528a8c208260ff19825416179055019594939561039b565b634e487b7160e01b8f5260418652878ffd5b8487918e5191637010e27960e11b8352820152fd5b8a5162461bcd60e51b8152602081850152600e818701526d24b73b30b634b21039b4b3b732b960911b6044820152606490fd5b8b80fd5b868b52867fb10e2d527612073b26eecdfd717e6a320cf44b4afac2b0732d9fcbe2b7fa0cf6918201915b82811061053b575050610394565b8c815501879061052d565b868d61055183610f19565b929054600393841b1c1690526020528b8d2060ff198154169055018790610380565b875163aabd5a0960e01b81528590fd5b50838611610374565b875163118587f960e21b8152808601859052601481840152604490fd5b87516387635cfb60e01b81528590fd5b87516282b42960e81b81528590fd5b8680fd5b8480fd5b83823461028f578160031936011261028f5760209060ff600a541690816105fa575b519015158152f35b600b5442111591506105f2565b83823461028f57602036600319011261028f57602090610625610df0565b5061062e610ef2565b90516001600160a01b039091168152f35b5034610264578260031936011261026457600754801561072e574211156107215760ff8354169160ff600654169161067683610e28565b60ff19908160065416600655856007558560095560019160015491875b8381106106ee57505050505060038310156106db5760038210156106db575033917f8dd5c5e77980494ecc8a2275d8c55c60b6de3485cb2a18900ce00a620dc8cd328480a480f35b634e487b7160e01b845260219052602483fd5b806106f98692610f19565b905460039190911b1c6001600160a01b03168a526008602052828a2080548516905501610693565b5163191f4d1b60e31b8152fd5b5051636eb093af60e11b8152fd5b83823461028f578160031936011261028f576020905162278d008152f35b5082346102ba57816003193601126102ba5750610775610df0565b50602435906001600160a01b038216820361041d57610795602092610e9e565b90519015158152f35b83823461028f578160031936011261028f579054905160089190911c6001600160a01b03168152602090f35b83823461028f578160031936011261028f57602090610795610e86565b83823461028f578160031936011261028f576020906007549051908152f35b509034610264578160031936011261026457610820610df0565b916024359067ffffffffffffffff9283831161093a573660238401121561093a578281013593841161093a57366024858501011161093a57855460ff8116600381101561092757806108e0575060081c6001600160a01b031633036102385750907f1acc57986d474a73434b9f914a62028affdad3ab6bc740c69f6a4f26f6cf2d1e915b836024825193602085528260208601520182840137818401810186905233946001600160e01b03191693601f01601f191682018290030190a380f35b60011415905061023857338652600360205260ff8287205416156102385750907f1acc57986d474a73434b9f914a62028affdad3ab6bc740c69f6a4f26f6cf2d1e916108a4565b634e487b7160e01b885260218352602488fd5b8580fd5b83823461028f578160031936011261028f576020905160148152f35b5034610264578260031936011261026457825460ff811660038110156109b4578061099e575060081c6001600160a01b03163303610245578261099b610f92565b80f35b60011415905061024557516282b42960e81b8152fd5b634e487b7160e01b855260218452602485fd5b5091346102ba57806003193601126102ba5760ff8154169160038310156109f5576020836002865191148152f35b634e487b7160e01b825260219052602490fd5b5034610264578260031936011261026457825460ff811660038110156109b45780610a79575060081c6001600160a01b031633036102455750505b60ff19600a5416600a5580600b55337f5db9ee0a495bf2e6ff9c91a7834c1ba4fdd244a5e8aa4e537bd38aeae4b073aa8280a280f35b60011415905061024557338352600360205260ff818420541615610245575050610a43565b5082346102ba57806003193601126102ba57506102ae610e61565b83823461028f578160031936011261028f57602090516203f4808152f35b83823461028f578160031936011261028f576020905162093a808152f35b503461041d57602036600319011261041d578135916003831015918261041d575f5460ff8116936003851015610c2c578415908180610c5e575b610c3f57610c2c57858514610c0d5715610bd35760081c6001600160a01b031633036102455760018403610ba85760015415610b9b575050610b7082610e28565b5f9133917f8dd5c5e77980494ecc8a2275d8c55c60b6de3485cb2a18900ce00a620dc8cd325f80a480f35b5163b995d8e360e01b8152fd5b83610bc7604494610bd1935194631d32a94d60e01b8652850190610e07565b6024830190610e07565bfd5b5092909160018103610bfe5790610bc7610bd1926044955194631d32a94d60e01b8652850190610e07565b83516282b42960e81b81528390fd5b8251631d32a94d60e01b8152604490610bd188610bc78389018a610e07565b602184634e487b7160e01b5f525260245ffd5b8351631d32a94d60e01b8152604490610bd189610bc7838a018b610e07565b50505f60028714610b2f565b83833461041d5760208060031936011261041d57823593600385101561041d5760ff5f54166003811015610ddd57600103610dd05750335f526003815260ff825f20541615610dc357335f526008815260ff825f205416610db557600954610d6f5760ff196006541660ff8516176006555b335f5260088152815f20600160ff19825416179055610cfc600954610e3f565b806009556002541115610d0b57005b62093a80420192834211610d5c5750917f9cbe1362661c436ae836ea8e418c794f7c1614e25851254977bc66564639be2a939160609382600755610d5182518095610e07565b3390840152820152a1005b601190634e487b7160e01b5f525260245ffd5b60ff600654166003811015610c2c578414610cdc57905162461bcd60e51b815291820152600d60248201526c09adec8ca40dad2e6dac2e8c6d609b1b6044820152606490fd5b505163585eb56560e11b8152fd5b50516282b42960e81b8152fd5b6282b42960e81b81528390fd5b602185634e487b7160e01b5f525260245ffd5b600435906001600160e01b03198216820361041d57565b906003821015610e145752565b634e487b7160e01b5f52602160045260245ffd5b6003811015610e145760ff80195f54169116175f55565b5f198114610e4d5760010190565b634e487b7160e01b5f52601160045260245ffd5b60ff5f54166003811015610e1457600203610e80576005549060045490565b5f905f90565b60ff600a541615610e9a57600b5442111590565b5f90565b5f5460ff81166003811015610e145780610ec6575060018060a01b03809160081c1691161490565b600114159050610eed576001600160a01b03165f9081526003602052604090205460ff1690565b505f90565b5f5460ff81166003811015610e1457610f145760081c6001600160a01b031690565b503090565b600154811015610f4e5760015f527fb10e2d527612073b26eecdfd717e6a320cf44b4afac2b0732d9fcbe2b7fa0cf601905f90565b634e487b7160e01b5f52603260045260245ffd5b60ff5f54166003811015610e14576001141580610f88575b610e80576002549060015490565b5060015415610f7a565b600160ff19600a541617600a556203f4804201804211610e4d5780600b556040519081527fab40a374bc51de372200a8bc981af8c9ecdc08dfdaef0bb6e09f88f3c616ef3d60203392a256fea2646970667358221220c29140dc7512a61abccb186800ae710e934a76079300aa43e781c8939657b1d964736f6c63430008180033","linkReferences":{}},"methodIdentifiers":{"DOWNGRADE_TIMELOCK()":"83109db0","MAX_PAUSE_DURATION()":"2799657d","MAX_SIGNERS()":"59ecd657","UPGRADE_TIMELOCK()":"25ed32ca","approveAction(bytes4,bytes)":"5f7f0516","canApprove(bytes4,address)":"7d7c0e1f","configureMultisig(address[],uint256)":"c726beab","emergencyPause()":"51858e27","finalizeUpgrade()":"9a508c8e","getAdmin()":"6e9960c3","getApprover(bytes4)":"9e3fea86","getGovernanceMode()":"dee5e55b","getMultisigConfig()":"d1cdef8e","getSecurityCouncilConfig()":"36b3cd83","getTimeLockExpiry()":"6134bcef","initiatePause()":"f9e6c846","initiateUpgrade(uint8)":"0575b743","isDowngradeRestricted()":"471427c2","isPaused()":"b187bd26","isPausedStrict()":"621ba71e","isTimeLockActive()":"cb9e9bff","setGovernanceMode(uint8)":"0d2fe6ab","unpause()":"3f4ba83a"},"id":4}