{"abi":[{"type":"function","name":"EMPTY_LEAF_HASH","inputs":[],"outputs":[{"name":"","type":"bytes32","internalType":"bytes32"}],"stateMutability":"view"},{"type":"function","name":"MAX_LEAF_INDEX","inputs":[],"outputs":[{"name":"","type":"uint256","internalType":"uint256"}],"stateMutability":"view"},{"type":"function","name":"STATE_VERSION","inputs":[],"outputs":[{"name":"","type":"uint256","internalType":"uint256"}],"stateMutability":"view"},{"type":"function","name":"TREE_DEPTH","inputs":[],"outputs":[{"name":"","type":"uint256","internalType":"uint256"}],"stateMutability":"view"},{"type":"function","name":"calculateStateRoot","inputs":[{"name":"entries","type":"tuple[]","internalType":"struct ICoreState.StateEntry[]","components":[{"name":"key","type":"bytes32","internalType":"bytes32"},{"name":"value","type":"bytes32","internalType":"bytes32"}]}],"outputs":[{"name":"root","type":"bytes32","internalType":"bytes32"}],"stateMutability":"pure"},{"type":"function","name":"computeLeaf","inputs":[{"name":"lockId","type":"bytes32","internalType":"bytes32"},{"name":"amount","type":"uint256","internalType":"uint256"},{"name":"recipient","type":"address","internalType":"address"},{"name":"pubKeyHash","type":"bytes32","internalType":"bytes32"}],"outputs":[{"name":"leaf","type":"bytes32","internalType":"bytes32"}],"stateMutability":"pure"},{"type":"function","name":"computeRoot","inputs":[{"name":"leaf","type":"bytes32","internalType":"bytes32"},{"name":"index","type":"uint256","internalType":"uint256"},{"name":"siblings","type":"bytes32[]","internalType":"bytes32[]"}],"outputs":[{"name":"root","type":"bytes32","internalType":"bytes32"}],"stateMutability":"pure"},{"type":"function","name":"getDefaultHash","inputs":[{"name":"height","type":"uint256","internalType":"uint256"}],"outputs":[{"name":"defaultHash","type":"bytes32","internalType":"bytes32"}],"stateMutability":"pure"},{"type":"function","name":"getEmptyRoot","inputs":[],"outputs":[{"name":"root","type":"bytes32","internalType":"bytes32"}],"stateMutability":"pure"},{"type":"function","name":"getHashInfo","inputs":[],"outputs":[{"name":"hashFunction","type":"string","internalType":"string"},{"name":"fipsCompliant","type":"bool","internalType":"bool"}],"stateMutability":"pure"},{"type":"function","name":"getLeafIndex","inputs":[{"name":"lockId","type":"bytes32","internalType":"bytes32"}],"outputs":[{"name":"index","type":"uint256","internalType":"uint256"}],"stateMutability":"pure"},{"type":"function","name":"hashNodes","inputs":[{"name":"left","type":"bytes32","internalType":"bytes32"},{"name":"right","type":"bytes32","internalType":"bytes32"}],"outputs":[{"name":"parent","type":"bytes32","internalType":"bytes32"}],"stateMutability":"pure"},{"type":"function","name":"sha3Hash","inputs":[{"name":"data","type":"bytes","internalType":"bytes"}],"outputs":[{"name":"digest","type":"bytes32","internalType":"bytes32"}],"stateMutability":"pure"},{"type":"function","name":"verifyInclusion","inputs":[{"name":"leaf","type":"bytes32","internalType":"bytes32"},{"name":"index","type":"uint256","internalType":"uint256"},{"name":"siblings","type":"bytes32[]","internalType":"bytes32[]"},{"name":"root","type":"bytes32","internalType":"bytes32"}],"outputs":[{"name":"valid","type":"bool","internalType":"bool"}],"stateMutability":"pure"},{"type":"function","name":"verifyLockInclusion","inputs":[{"name":"lockId","type":"bytes32","internalType":"bytes32"},{"name":"amount","type":"uint256","internalType":"uint256"},{"name":"recipient","type":"address","internalType":"address"},{"name":"pubKeyHash","type":"bytes32","internalType":"bytes32"},{"name":"siblings","type":"bytes32[]","internalType":"bytes32[]"},{"name":"root","type":"bytes32","internalType":"bytes32"}],"outputs":[{"name":"valid","type":"bool","internalType":"bool"}],"stateMutability":"pure"},{"type":"function","name":"verifySHA3Implementation","inputs":[],"outputs":[{"name":"valid","type":"bool","internalType":"bool"}],"stateMutability":"pure"},{"type":"event","name":"InclusionVerified","inputs":[{"name":"leaf","type":"bytes32","indexed":true,"internalType":"bytes32"},{"name":"root","type":"bytes32","indexed":true,"internalType":"bytes32"},{"name":"verified","type":"bool","indexed":false,"internalType":"bool"}],"anonymous":false},{"type":"event","name":"StateRootUpdated","inputs":[{"name":"oldRoot","type":"bytes32","indexed":true,"internalType":"bytes32"},{"name":"newRoot","type":"bytes32","indexed":true,"internalType":"bytes32"},{"name":"timestamp","type":"uint256","indexed":false,"internalType":"uint256"}],"anonymous":false},{"type":"error","name":"EmptyStateEntries","inputs":[]},{"type":"error","name":"IndexOutOfBounds","inputs":[{"name":"index","type":"uint256","internalType":"uint256"},{"name":"maxIndex","type":"uint256","internalType":"uint256"}]},{"type":"error","name":"InvalidProofLength","inputs":[{"name":"expected","type":"uint256","internalType":"uint256"},{"name":"actual","type":"uint256","internalType":"uint256"}]},{"type":"error","name":"StateRootMismatch","inputs":[{"name":"expected","type":"bytes32","internalType":"bytes32"},{"name":"actual","type":"bytes32","internalType":"bytes32"}]}],"bytecode":{"object":"0x608060405234801561000f575f80fd5b506119298061001d5f395ff3fe608060405234801561000f575f80fd5b50600436106100fb575f3560e01c8063b81541ae11610093578063e3e072c411610063578063e3e072c414610200578063e731f2cc14610213578063eca467d714610226578063f16505361461022e575f80fd5b8063b81541ae146101b4578063c1a068ca146101c7578063c69224d1146101da578063c8c50515146101ed575f80fd5b80638e95ff01116100ce5780638e95ff01146101725780639c8889bb14610185578063a109b1991461018d578063b396e1a1146101a1575f80fd5b80633d363c52146100ff5780634cae99641461011c5780635edd0be71461013d57806380fc74981461016a575b5f80fd5b610107610236565b60405190151581526020015b60405180910390f35b61012f61012a3660046114e7565b610244565b604051908152602001610113565b604080518082018252600881526729a4209996991a9b60c11b602082015290516101139190600190611543565b61012f6102a5565b61012f61018036600461157d565b6102b6565b61012f610395565b61012f5f805160206118d483398151915281565b61012f6101af366004611632565b6103c6565b6101076101c2366004611680565b6104a6565b61012f6101d53660046116f3565b6105c4565b61012f6101e836600461170a565b6105f6565b61012f6101fb3660046116f3565b61060a565b61010761020e36600461172a565b610639565b61012f61022136600461177f565b6106f5565b61012f600181565b61012f601481565b5f61023f610734565b905090565b5f807f1fc57ebce31be3d5781e78f150b1303c4295b0ab57b3e349a286904a176f3a225f1b868686866040516020016102819594939291906117d8565b604051602081830303815290604052905061029b81610764565b9695505050505050565b6102b3600162100000611822565b81565b5f8181036102d75760405163282c966560e11b815260040160405180910390fd5b604080517f60311680a88251ea5468ef203bddcdd726d4fa7b0e68ec9cb636dafef58d1f2960208201525f910160405160208183030381529060405290505f5b83811015610383578185858381811061033257610332611835565b9050604002015f013586868481811061034d5761034d611835565b9050604002016020013560405160200161036993929190611849565b60408051601f198184030181529190529150600101610317565b5061038d81610764565b949350505050565b5f805160206118d48339815191525f5b60148110156103c2576103b88283610a4e565b91506001016103a5565b5090565b5f601482146103f75760405163180db87d60e11b815260146004820152602481018390526044015b60405180910390fd5b610405600162100000611822565b84111561043d578361041b600162100000611822565b6040516363a056dd60e01b8152600481019290925260248201526044016103ee565b5083835f5b601481101561049c575f85858381811061045e5761045e611835565b905060200201359050826001165f036104825761047b8482610a4e565b935061048f565b61048c8185610a4e565b93505b50600191821c9101610442565b5050949350505050565b5f806104fa7f1fc57ebce31be3d5781e78f150b1303c4295b0ab57b3e349a286904a176f3a225f1b8a8a8a8a6040516020016104e69594939291906117d8565b604051602081830303815290604052610764565b90505f6105138a6040516020016104e691815260200190565b90505f610524600162100000611822565b82169050601486146105535760405163180db87d60e11b815260146004820152602481018790526044016103ee565b82815f5b60148110156105b1575f8a8a8381811061057357610573611835565b905060200201359050826001165f03610597576105908482610a4e565b93506105a4565b6105a18185610a4e565b93505b50600191821c9101610557565b50509094149a9950505050505050505050565b5f805160206118d48339815191525f5b828110156105f0576105e68283610a4e565b91506001016105d4565b50919050565b5f6106018383610a4e565b90505b92915050565b5f80610622836040516020016104e691815260200190565b9050610632600162100000611822565b1692915050565b5f601483146106655760405163180db87d60e11b815260146004820152602481018490526044016103ee565b610673600162100000611822565b851115610689578461041b600162100000611822565b85855f5b60148110156106e7575f8787838181106106a9576106a9611835565b905060200201359050826001165f036106cd576106c68482610a4e565b93506106da565b6106d78185610a4e565b93505b50600191821c910161068d565b505090911495945050505050565b5f61060183838080601f0160208091040260200160405190810160405280939291908181526020018383808284375f9201919091525061076492505050565b60408051602081019091525f808252908161074e82610764565b5f805160206118d4833981519152149392505050565b5f61076d61148f565b82515f608861077d83600161186f565b6107879190611896565b61079290600161186f565b90505f5b818110156108ae575f6107aa6088836118a9565b90505f5b6011811015610899575f805b6008811015610867575f816107d08560086118a9565b6107da908761186f565b6107e4919061186f565b90505f88821015610810578b828151811061080157610801611835565b016020015160f81c9050610847565b88820361081f57506006610847565b600161082c60888861186f565b6108369190611822565b820361084457506080610847565b505f5b6108528360086118a9565b60ff909116901b9290921791506001016107ba565b508087836019811061087b5761087b611835565b602002018051919091186001600160401b03169052506001016107ae565b506108a385610aa6565b945050600101610796565b5060c083600360200201516001600160401b0316901b608084600260200201516001600160401b0316901b604085600160200201516001600160401b0316901b855f60200201516001600160401b03161717179350610a45847bffffffff000000000000000000000000ffffffff00000000000000007eff000000ff000000ff000000ff000000ff000000ff000000ff000000ff0000600883811c9182167fff000000ff000000ff000000ff000000ff000000ff000000ff000000ff0000009490911b93841617601090811c7cff000000ff000000ff000000ff000000ff000000ff000000ff000000ff9092167dff000000ff000000ff000000ff000000ff000000ff000000ff000000ff009094169390931790921b91909117602081811c9283167fffffffff000000000000000000000000ffffffff0000000000000000000000009290911b91821617604090811c73ffffffff000000000000000000000000ffffffff90931677ffffffff000000000000000000000000ffffffff0000000090921691909117901b17608081811c91901b1790565b95945050505050565b604080517f2788e21c82dcd3e3f1683169f418c39da467ef396fca65015ae273ef0f04be036020820152908101839052606081018290525f908190608001604051602081830303815290604052905061038d81610764565b610aae61148f565b81610ab76114ae565b610abf6114ae565b5f6040518061032001604052805f815260200160018152602001603e8152602001601c8152602001601b815260200160248152602001602c815260200160068152602001603781526020016014815260200160038152602001600a8152602001602b8152602001601981526020016027815260200160298152602001602d8152602001600f815260200160158152602001600881526020016012815260200160028152602001603d815260200160388152602001600e81525090505f60405180610300016040528060016001600160401b03166001600160401b031681526020016180826001600160401b03166001600160401b0316815260200167800000000000808a6001600160401b03166001600160401b031681526020016780000000800080006001600160401b03166001600160401b0316815260200161808b6001600160401b03166001600160401b0316815260200163800000016001600160401b03166001600160401b031681526020016780000000800080816001600160401b03166001600160401b031681526020016780000000000080096001600160401b03166001600160401b03168152602001608a6001600160401b03166001600160401b0316815260200160886001600160401b03166001600160401b0316815260200163800080096001600160401b03166001600160401b03168152602001638000000a6001600160401b03166001600160401b03168152602001638000808b6001600160401b03166001600160401b0316815260200167800000000000008b6001600160401b03166001600160401b031681526020016780000000000080896001600160401b03166001600160401b031681526020016780000000000080036001600160401b03166001600160401b031681526020016780000000000080026001600160401b03166001600160401b031681526020016780000000000000806001600160401b03166001600160401b0316815260200161800a6001600160401b03166001600160401b0316815260200167800000008000000a6001600160401b03166001600160401b031681526020016780000000800080816001600160401b03166001600160401b031681526020016780000000000080806001600160401b03166001600160401b0316815260200163800000016001600160401b03166001600160401b031681526020016780000000800080086001600160401b03166001600160401b031681525090505f5b6018811015611451576102808601516101e087015161014088015160a08901518951181818186001600160401b0390811686526102a087015161020088015161016089015160c08a01516020808c01519091189091189091189091188216908701526102c087015161022088015161018089015160e08a01516040808c01519091189091189091189091188216908701526102e08701516102408801516101a08901516101008a01516060808c01519091189091189091189091188216908701526103008701516102608801516101c08901516101208a01516080808c015190911890911890911890911890911690860152610f538560015b6020020151600161145d565b6080860151186001600160401b03168452610f6f856002610f47565b8551186001600160401b03166020850152610f8b856003610f47565b6020860151186001600160401b03166040850152610faa856004610f47565b6040860151186001600160401b03166060850152610fc8855f610f47565b6060808701516001600160401b0392188216608080880191825287518a511884168a5260208881018051918c01805190921886169091526040808a018051918d01805190921887169091528985018051958d01805190961887169095528351928c0180519093188616909252885160a08c01805190911886169052805160c08c01805190911886169052815160e08c0180519091188616905283516101008c0180519091188616905282516101208c0180519091188616905288516101408c0180519091188616905280516101608c0180519091188616905281516101808c0180519091188616905283516101a08c0180519091188616905282516101c08c0180519091188616905288516101e08c0180519091188616905280516102008c0180519091188616905281516102208c0180519091188616905283516102408c0180519091188616905282516102608c0180519091188616905288516102808c01805190911886169052516102a08b01805190911885169052516102c08a0180519091188416905290516102e089018051909118831690525161030088018051909118909116905261117761148f565b5f5b601981101561124d575f61118e6005836118c0565b90505f61119c600584611896565b9050805f60056111ad8360036118a9565b6111b88660026118a9565b6111c2919061186f565b6111cc91906118c0565b90506112048c86601981106111e3576111e3611835565b60200201518a87601981106111fa576111fa611835565b602002015161145d565b866112108360056118a9565b61121a908561186f565b6019811061122a5761122a611835565b6001600160401b0390921660209290920201525050600190920191506111799050565b505f5b6005811015611422575f6112658260056118a9565b90505f83826019811061127a5761127a611835565b602002015190505f8461128e84600161186f565b6019811061129e5761129e611835565b602002015190505f856112b285600261186f565b601981106112c2576112c2611835565b602002015190505f866112d686600361186f565b601981106112e6576112e6611835565b602002015190505f876112fa87600461186f565b6019811061130a5761130a611835565b602002015190508284191685188e876019811061132957611329611835565b6001600160401b0390921660209290920201528219821684188e61134e88600161186f565b6019811061135e5761135e611835565b6001600160401b0390921660209290920201528119811683188e61138388600261186f565b6019811061139357611393611835565b6001600160401b0390921660209290920201528019851682188e6113b888600361186f565b601981106113c8576113c8611835565b6001600160401b0390921660209290920201528419841681188e6113ed88600461186f565b601981106113fd576113fd611835565b6001600160401b03909216602092909202015250506001909401935061125092505050565b5082826018811061143557611435611835565b60200201518751186001600160401b0316875250600101610e4e565b50939695505050505050565b5f815f0361146c575081610604565b611477826040611822565b6001600160401b03841680841b911c17905092915050565b6040518061032001604052806019906020820280368337509192915050565b6040518060a001604052806005906020820280368337509192915050565b80356001600160a01b03811681146114e2575f80fd5b919050565b5f805f80608085870312156114fa575f80fd5b8435935060208501359250611511604086016114cc565b9396929550929360600135925050565b5f5b8381101561153b578181015183820152602001611523565b50505f910152565b604081525f8351806040840152611561816060850160208801611521565b921515602083015250601f91909101601f191601606001919050565b5f806020838503121561158e575f80fd5b82356001600160401b03808211156115a4575f80fd5b818501915085601f8301126115b7575f80fd5b8135818111156115c5575f80fd5b8660208260061b85010111156115d9575f80fd5b60209290920196919550909350505050565b5f8083601f8401126115fb575f80fd5b5081356001600160401b03811115611611575f80fd5b6020830191508360208260051b850101111561162b575f80fd5b9250929050565b5f805f8060608587031215611645575f80fd5b843593506020850135925060408501356001600160401b03811115611668575f80fd5b611674878288016115eb565b95989497509550505050565b5f805f805f805f60c0888a031215611696575f80fd5b87359650602088013595506116ad604089016114cc565b94506060880135935060808801356001600160401b038111156116ce575f80fd5b6116da8a828b016115eb565b989b979a5095989497959660a090950135949350505050565b5f60208284031215611703575f80fd5b5035919050565b5f806040838503121561171b575f80fd5b50508035926020909101359150565b5f805f805f6080868803121561173e575f80fd5b853594506020860135935060408601356001600160401b03811115611761575f80fd5b61176d888289016115eb565b96999598509660600135949350505050565b5f8060208385031215611790575f80fd5b82356001600160401b03808211156117a6575f80fd5b818501915085601f8301126117b9575f80fd5b8135818111156117c7575f80fd5b8660208285010111156115d9575f80fd5b94855260208501939093526040840191909152606090811b6bffffffffffffffffffffffff191690830152607482015260940190565b634e487b7160e01b5f52601160045260245ffd5b818103818111156106045761060461180e565b634e487b7160e01b5f52603260045260245ffd5b5f845161185a818460208901611521565b91909101928352506020820152604001919050565b808201808211156106045761060461180e565b634e487b7160e01b5f52601260045260245ffd5b5f826118a4576118a4611882565b500490565b80820281158282048414176106045761060461180e565b5f826118ce576118ce611882565b50069056fea7ffc6f8bf1ed76651c14756a061d662f580ff4de43b49fa82d80a4b80f8434aa264697066735822122084e6daaa38d0506a15a79a3c466e1d2fe5fe1bc4e48bcc0e9531bf16da79c54564736f6c63430008180033","linkReferences":{}},"methodIdentifiers":{"EMPTY_LEAF_HASH()":"a109b199","MAX_LEAF_INDEX()":"80fc7498","STATE_VERSION()":"eca467d7","TREE_DEPTH()":"f1650536","calculateStateRoot((bytes32,bytes32)[])":"8e95ff01","computeLeaf(bytes32,uint256,address,bytes32)":"4cae9964","computeRoot(bytes32,uint256,bytes32[])":"b396e1a1","getDefaultHash(uint256)":"c1a068ca","getEmptyRoot()":"9c8889bb","getHashInfo()":"5edd0be7","getLeafIndex(bytes32)":"c8c50515","hashNodes(bytes32,bytes32)":"c69224d1","sha3Hash(bytes)":"e731f2cc","verifyInclusion(bytes32,uint256,bytes32[],bytes32)":"e3e072c4","verifyLockInclusion(bytes32,uint256,address,bytes32,bytes32[],bytes32)":"b81541ae","verifySHA3Implementation()":"3d363c52"},"id":27}