{"abi":[{"type":"constructor","inputs":[{"name":"admin_","type":"address","internalType":"address"}],"stateMutability":"nonpayable"},{"type":"function","name":"COUNCIL_SIZE","inputs":[],"outputs":[{"name":"","type":"uint256","internalType":"uint256"}],"stateMutability":"view"},{"type":"function","name":"DOWNGRADE_TIMELOCK","inputs":[],"outputs":[{"name":"","type":"uint256","internalType":"uint256"}],"stateMutability":"view"},{"type":"function","name":"MAX_PAUSE_DURATION","inputs":[],"outputs":[{"name":"","type":"uint256","internalType":"uint256"}],"stateMutability":"view"},{"type":"function","name":"MAX_SIGNERS","inputs":[],"outputs":[{"name":"","type":"uint256","internalType":"uint256"}],"stateMutability":"view"},{"type":"function","name":"PAUSE_THRESHOLD","inputs":[],"outputs":[{"name":"","type":"uint256","internalType":"uint256"}],"stateMutability":"view"},{"type":"function","name":"ROLLBACK_THRESHOLD","inputs":[],"outputs":[{"name":"","type":"uint256","internalType":"uint256"}],"stateMutability":"view"},{"type":"function","name":"ROLLBACK_TIMELOCK","inputs":[],"outputs":[{"name":"","type":"uint256","internalType":"uint256"}],"stateMutability":"view"},{"type":"function","name":"TRAINING_EXIT_TIMELOCK","inputs":[],"outputs":[{"name":"","type":"uint256","internalType":"uint256"}],"stateMutability":"view"},{"type":"function","name":"UPGRADE_TIMELOCK","inputs":[],"outputs":[{"name":"","type":"uint256","internalType":"uint256"}],"stateMutability":"view"},{"type":"function","name":"approveAction","inputs":[{"name":"action","type":"bytes4","internalType":"bytes4"},{"name":"data","type":"bytes","internalType":"bytes"}],"outputs":[],"stateMutability":"nonpayable"},{"type":"function","name":"approveEmergencyRollback","inputs":[],"outputs":[],"stateMutability":"nonpayable"},{"type":"function","name":"canApprove","inputs":[{"name":"","type":"bytes4","internalType":"bytes4"},{"name":"caller","type":"address","internalType":"address"}],"outputs":[{"name":"","type":"bool","internalType":"bool"}],"stateMutability":"view"},{"type":"function","name":"canInitiateRollback","inputs":[],"outputs":[{"name":"","type":"bool","internalType":"bool"}],"stateMutability":"view"},{"type":"function","name":"cancelEmergencyRollback","inputs":[],"outputs":[],"stateMutability":"nonpayable"},{"type":"function","name":"configureMultisig","inputs":[{"name":"signers","type":"address[]","internalType":"address[]"},{"name":"threshold","type":"uint256","internalType":"uint256"}],"outputs":[],"stateMutability":"nonpayable"},{"type":"function","name":"configureSecurityCouncil","inputs":[{"name":"members","type":"address[]","internalType":"address[]"},{"name":"threshold","type":"uint256","internalType":"uint256"}],"outputs":[],"stateMutability":"nonpayable"},{"type":"function","name":"emergencyPause","inputs":[],"outputs":[],"stateMutability":"nonpayable"},{"type":"function","name":"executeEmergencyRollback","inputs":[],"outputs":[],"stateMutability":"nonpayable"},{"type":"function","name":"finalizeTransition","inputs":[],"outputs":[],"stateMutability":"nonpayable"},{"type":"function","name":"finalizeUpgrade","inputs":[],"outputs":[],"stateMutability":"nonpayable"},{"type":"function","name":"getAdmin","inputs":[],"outputs":[{"name":"","type":"address","internalType":"address"}],"stateMutability":"view"},{"type":"function","name":"getApprover","inputs":[{"name":"","type":"bytes4","internalType":"bytes4"}],"outputs":[{"name":"","type":"address","internalType":"address"}],"stateMutability":"view"},{"type":"function","name":"getCouncilPauseStatus","inputs":[],"outputs":[{"name":"signatures","type":"uint256","internalType":"uint256"},{"name":"required","type":"uint256","internalType":"uint256"}],"stateMutability":"view"},{"type":"function","name":"getGovernanceMode","inputs":[],"outputs":[{"name":"","type":"uint8","internalType":"enum IGovernanceSwitch.GovernanceMode"}],"stateMutability":"view"},{"type":"function","name":"getMultisigConfig","inputs":[],"outputs":[{"name":"threshold","type":"uint256","internalType":"uint256"},{"name":"total","type":"uint256","internalType":"uint256"}],"stateMutability":"view"},{"type":"function","name":"getRollbackStatus","inputs":[],"outputs":[{"name":"pending","type":"bool","internalType":"bool"},{"name":"targetMode","type":"uint8","internalType":"enum IGovernanceSwitch.GovernanceMode"},{"name":"reason","type":"string","internalType":"string"},{"name":"signatures","type":"uint256","internalType":"uint256"},{"name":"required","type":"uint256","internalType":"uint256"},{"name":"lockExpiry","type":"uint256","internalType":"uint256"}],"stateMutability":"view"},{"type":"function","name":"getSecurityCouncilConfig","inputs":[],"outputs":[{"name":"threshold","type":"uint256","internalType":"uint256"},{"name":"total","type":"uint256","internalType":"uint256"}],"stateMutability":"view"},{"type":"function","name":"getTimeLockExpiry","inputs":[],"outputs":[{"name":"","type":"uint256","internalType":"uint256"}],"stateMutability":"view"},{"type":"function","name":"getTransitionLockExpiry","inputs":[],"outputs":[{"name":"","type":"uint256","internalType":"uint256"}],"stateMutability":"view"},{"type":"function","name":"initiateCouncilPause","inputs":[],"outputs":[],"stateMutability":"nonpayable"},{"type":"function","name":"initiateEmergencyRollback","inputs":[{"name":"reason","type":"string","internalType":"string"}],"outputs":[],"stateMutability":"nonpayable"},{"type":"function","name":"initiatePause","inputs":[],"outputs":[],"stateMutability":"nonpayable"},{"type":"function","name":"initiateTransition","inputs":[{"name":"targetMode","type":"uint8","internalType":"enum IGovernanceSwitch.GovernanceMode"}],"outputs":[],"stateMutability":"nonpayable"},{"type":"function","name":"initiateUpgrade","inputs":[{"name":"targetMode","type":"uint8","internalType":"enum IGovernanceSwitch.GovernanceMode"}],"outputs":[],"stateMutability":"nonpayable"},{"type":"function","name":"isDowngradeRestricted","inputs":[],"outputs":[{"name":"","type":"bool","internalType":"bool"}],"stateMutability":"view"},{"type":"function","name":"isPaused","inputs":[],"outputs":[{"name":"","type":"bool","internalType":"bool"}],"stateMutability":"view"},{"type":"function","name":"isPausedStrict","inputs":[],"outputs":[{"name":"","type":"bool","internalType":"bool"}],"stateMutability":"view"},{"type":"function","name":"isTimeLockActive","inputs":[],"outputs":[{"name":"","type":"bool","internalType":"bool"}],"stateMutability":"view"},{"type":"function","name":"isTrainingMode","inputs":[],"outputs":[{"name":"","type":"bool","internalType":"bool"}],"stateMutability":"view"},{"type":"function","name":"setGovernanceMode","inputs":[{"name":"newMode","type":"uint8","internalType":"enum IGovernanceSwitch.GovernanceMode"}],"outputs":[],"stateMutability":"nonpayable"},{"type":"function","name":"unpause","inputs":[],"outputs":[],"stateMutability":"nonpayable"},{"type":"event","name":"ActionApproved","inputs":[{"name":"action","type":"bytes4","indexed":true,"internalType":"bytes4"},{"name":"approver","type":"address","indexed":true,"internalType":"address"},{"name":"data","type":"bytes","indexed":false,"internalType":"bytes"}],"anonymous":false},{"type":"event","name":"CouncilPauseSignatureCollected","inputs":[{"name":"member","type":"address","indexed":true,"internalType":"address"},{"name":"current","type":"uint256","indexed":false,"internalType":"uint256"},{"name":"required","type":"uint256","indexed":false,"internalType":"uint256"}],"anonymous":false},{"type":"event","name":"EmergencyRollback","inputs":[{"name":"fromMode","type":"uint8","indexed":true,"internalType":"enum IGovernanceSwitch.GovernanceMode"},{"name":"toMode","type":"uint8","indexed":true,"internalType":"enum IGovernanceSwitch.GovernanceMode"},{"name":"triggeredBy","type":"address","indexed":true,"internalType":"address"},{"name":"reason","type":"string","indexed":false,"internalType":"string"}],"anonymous":false},{"type":"event","name":"GovernanceModeChanged","inputs":[{"name":"oldMode","type":"uint8","indexed":true,"internalType":"enum IGovernanceSwitch.GovernanceMode"},{"name":"newMode","type":"uint8","indexed":true,"internalType":"enum IGovernanceSwitch.GovernanceMode"},{"name":"changedBy","type":"address","indexed":true,"internalType":"address"}],"anonymous":false},{"type":"event","name":"ModeTransitionInitiated","inputs":[{"name":"targetMode","type":"uint8","indexed":true,"internalType":"enum IGovernanceSwitch.GovernanceMode"},{"name":"initiator","type":"address","indexed":true,"internalType":"address"},{"name":"unlockTime","type":"uint256","indexed":false,"internalType":"uint256"}],"anonymous":false},{"type":"event","name":"MultisigConfigured","inputs":[{"name":"signers","type":"address[]","indexed":false,"internalType":"address[]"},{"name":"threshold","type":"uint256","indexed":false,"internalType":"uint256"}],"anonymous":false},{"type":"event","name":"PauseSignatureCollected","inputs":[{"name":"signer","type":"address","indexed":true,"internalType":"address"},{"name":"current","type":"uint256","indexed":false,"internalType":"uint256"},{"name":"required","type":"uint256","indexed":false,"internalType":"uint256"}],"anonymous":false},{"type":"event","name":"Paused","inputs":[{"name":"by","type":"address","indexed":true,"internalType":"address"},{"name":"until","type":"uint256","indexed":false,"internalType":"uint256"}],"anonymous":false},{"type":"event","name":"RollbackSignatureCollected","inputs":[{"name":"member","type":"address","indexed":true,"internalType":"address"},{"name":"current","type":"uint256","indexed":false,"internalType":"uint256"},{"name":"required","type":"uint256","indexed":false,"internalType":"uint256"}],"anonymous":false},{"type":"event","name":"SecurityCouncilConfigured","inputs":[{"name":"members","type":"address[]","indexed":false,"internalType":"address[]"},{"name":"threshold","type":"uint256","indexed":false,"internalType":"uint256"}],"anonymous":false},{"type":"event","name":"Unpaused","inputs":[{"name":"by","type":"address","indexed":true,"internalType":"address"}],"anonymous":false},{"type":"event","name":"UpgradeInitiated","inputs":[{"name":"targetMode","type":"uint8","indexed":false,"internalType":"enum IGovernanceSwitch.GovernanceMode"},{"name":"initiator","type":"address","indexed":false,"internalType":"address"},{"name":"unlockTime","type":"uint256","indexed":false,"internalType":"uint256"}],"anonymous":false},{"type":"error","name":"AlreadySigned","inputs":[]},{"type":"error","name":"CannotApprove","inputs":[{"name":"action","type":"bytes4","internalType":"bytes4"}]},{"type":"error","name":"DuplicateSigner","inputs":[{"name":"signer","type":"address","internalType":"address"}]},{"type":"error","name":"EmptySigners","inputs":[]},{"type":"error","name":"InvalidModeTransition","inputs":[{"name":"from","type":"uint8","internalType":"enum IGovernanceSwitch.GovernanceMode"},{"name":"to","type":"uint8","internalType":"enum IGovernanceSwitch.GovernanceMode"}]},{"type":"error","name":"InvalidThreshold","inputs":[]},{"type":"error","name":"MultisigNotConfigured","inputs":[]},{"type":"error","name":"NoPendingRollback","inputs":[]},{"type":"error","name":"NoPendingUpgrade","inputs":[]},{"type":"error","name":"NotCouncilMember","inputs":[]},{"type":"error","name":"RollbackNotAllowed","inputs":[{"name":"reason","type":"string","internalType":"string"}]},{"type":"error","name":"RollbackThresholdNotReached","inputs":[]},{"type":"error","name":"SecurityCouncilApprovalRequired","inputs":[]},{"type":"error","name":"TimeLockNotExpired","inputs":[]},{"type":"error","name":"TooManySigners","inputs":[{"name":"provided","type":"uint256","internalType":"uint256"},{"name":"max","type":"uint256","internalType":"uint256"}]},{"type":"error","name":"Unauthorized","inputs":[]}],"bytecode":{"object":"0x6080346100bc57601f6124f738819003918201601f19168301916001600160401b038311848410176100c0578084926020946040528339810103126100bc57516001600160a01b0381168082036100bc5715610087575f80546001600160a81b03191660089290921b610100600160a81b031691909117905560405161242290816100d58239f35b60405162461bcd60e51b815260206004820152600d60248201526c24b73b30b634b21030b236b4b760991b6044820152606490fd5b5f80fd5b634e487b7160e01b5f52604160045260245ffdfe60806040818152600480361015610014575f80fd5b5f925f3560e01c9081630138c99b14611cb8575080630575b74314611b575780630d2fe6ab146119f35780630dc817ad146119d457806310ed1ae6146118e75780631ef0c5d4146117b65780631f032e691461179857806325ed32ca1461177a5780632799657d146115035780632d31011d1461175e5780632f66ea31146115085780633620297c1461150357806336b3cd83146114e8578063385722fc146114305780633f4ba83a1461133e578063471427c2146112fe5780634cb85779146112da57806351858e271461126457806359d615ad1461124857806359ecd6571461122c5780635f7f0516146110a65780636134bcef1461108757806361f2b55114611016578063621ba71e14610ff95780636e9960c314610fcd5780637a8611ef14610f4b5780637b630d0014610bcd5780637d7c0e1f14610b8557806383109db014610b675780639a508c8e14610b265780639e3fea8614610aee578063a97c580a14610a39578063b187bd2614610a02578063c726beab146107c3578063cb9e9bff1461078d578063d1cdef8e14610763578063d476b8a8146106a7578063dee5e55b14610680578063e15ec55714610664578063ed8d11221461032c5763f9e6c846146101e3575f80fd5b3461032857826003193601126103285760ff835416818110156103155760020361030857338352600390602092600360205260ff8186205416156102fc57338552601491601460205260ff82872054166102ee575033855260146020528085209160019460ff199360018582541617905561025f601554611e3b565b806015556002549084518181528260208201527f301875aa0a96ae9892130c6df11969cf6d41571fa8cd7959abc897c8f37b1c56863392a210156102a1578680f35b6102a96122c5565b8660155560015494875b8681106102c05750508680f35b806102cb8992611fab565b905490841b1c6001600160a01b03168a52848452858a20805488169055016102b3565b905163585eb56560e11b8152fd5b516282b42960e81b8152fd5b90516282b42960e81b8152fd5b634e487b7160e01b845260218252602484fd5b8280fd5b5091903461066057602090816003193601126103285767ffffffffffffffff843581811161065c576103619036908701611d65565b913386526006855260ff84872054161561064c5760ff8654168781101590816105915760038114908115908161063d575b506105e857600d549160ff8360a01c166105a4576105915715610589576002905b888210156105765761ffff60a01b191660a89190911b60ff60a81b1617600160a01b17600d5582116105635781906103ec600e54611e5d565b601f8111610509575b508590601f831160011461049c578692610491575b50508160011b915f199060031b1c191617600e555b62015180420180421161047e57907f89f10fb1fcf102dc7b017a9d5fb1e94c7c2e22b2bed34aec477c085163cf2e5191600f5533845260108352808420600160ff1982541617905560016011556007815193600185528401523392a280f35b634e487b7160e01b845260118552602484fd5b013590505f8061040a565b5f805160206123ad833981519152925090601f198416875b878282106104f35750509084600195949392106104da575b505050811b01600e5561041f565b01355f19600384901b60f8161c191690555f80806104cc565b60018496829395870135815501950192016104b4565b909150600e5f525f805160206123ad833981519152601f840160051c810191868510610559575b90601f859493920160051c01905b81811061054b57506103f5565b5f815584935060010161053e565b9091508190610530565b634e487b7160e01b855260418652602485fd5b602189634e487b7160e01b5f525260245ffd5b6001906103b3565b634e487b7160e01b885260218952602488fd5b8651630861758560e41b8152808b01899052601860248201527f526f6c6c6261636b20616c72656164792070656e64696e6700000000000000006044820152606490fd5b8551630861758560e41b8152808a01889052602860248201527f4f6e6c792066726f6d20444543454e5452414c495a4544206f72204d554c5449604482015267534947206d6f646560c01b6064820152608490fd5b9250506002889214155f610392565b8351634a42c42d60e01b81528790fd5b8480fd5b5080fd5b5050346106605781600319360112610660576020905160058152f35b5050346106605781600319360112610660576106a560ff602093541691518092611d93565bf35b5034610328578260031936011261032857338352600660205260ff8284205416156107555760ff600d5460a01c161561074757338352601060205260ff82842054166102ee57503382526010602052808220600160ff198254161790557f89f10fb1fcf102dc7b017a9d5fb1e94c7c2e22b2bed34aec477c085163cf2e51610730601154611e3b565b91826011558051928352600760208401523392a280f35b9051631d9c9af360e31b8152fd5b9051634a42c42d60e01b8152fd5b82843461078a578060031936011261078a575061077e61214b565b82519182526020820152f35b80fd5b50503461066057816003193601126106605760085460209181151591826107b8575b50519015158152f35b4211159150836107af565b50829034610660576107d436611cfd565b8454909591936001600160a01b039160081c821633036109f55784156109e757601485116109c957861580156109c0575b6109b257600191825483885b82811061098657509050545f845580610943575b50865b86811061086c57877f4734ced00a1bff33c4f04813f7cdce25abf6456f1a18765898fdf3d287798b9288886108668d8a816002555193849384612004565b0390a180f35b8161088061087b838a8a611fe0565b611ff0565b16801561090f5780895260039060209082825260ff888c2054166108f9578654600160401b8110156108e657906108bf82898097969594018755611fab565b815490851b908884831b921b19161790558b52528589208260ff1982541617905501610828565b604187634e487b7160e01b5f525260245ffd5b85602491895191637010e27960e11b8352820152fd5b855162461bcd60e51b8152602081860152600e60248201526d24b73b30b634b21039b4b3b732b960911b6044820152606490fd5b835f52837fb10e2d527612073b26eecdfd717e6a320cf44b4afac2b0732d9fcbe2b7fa0cf6918201915b82811061097b575050610825565b5f815501849061096d565b8361099082611fab565b919054600392831b1c168b52602052868a2060ff198154169055018490610811565b825163aabd5a0960e01b8152fd5b50848711610805565b825163118587f960e21b815290810185905260146024820152604490fd5b82516387635cfb60e01b8152fd5b82516282b42960e81b8152fd5b50503461066057816003193601126106605760209060ff601254169081610a2c575b519015158152f35b6013544211159150610a24565b509034610328578260031936011261032857600c548015610ae0574210610ad3575060ff8254169060ff600b541690610a7182611e0b565b60ff19600b5416600b5583600c556001600160601b0360a01b600d5416600d55610a99612311565b80831015610ac05780821015610ac0575033915f805160206123cd8339815191528480a480f35b634e487b7160e01b845260219052602483fd5b5163191f4d1b60e31b8152fd5b5051636eb093af60e11b8152fd5b50503461066057602036600319011261066057602090610b0c611d4e565b50610b1561210d565b90516001600160a01b039091168152f35b5090346103285782600319360112610328576008548015610ae057421115610ad3575060ff8254169060ff6007541690610b5f82611e0b565b610a99612311565b5050346106605781600319360112610660576020905162278d008152f35b82843461078a578160031936011261078a5750610ba0611d4e565b50602435906001600160a01b0382168203610bc957610bc0602092612086565b90519015158152f35b5f80fd5b509190346106605760208060031936011261032857833590848210158061065c5760ff908186541691610c008584612181565b87831015610e225782610cf05750855460081c6001600160a01b03163303610ce157610cce5760018303610ca25750610c3882611e22565b6203f480420192834211610c8f57837f97ca50dbc8cd2d1526923c0a85aca0946056fa293563e6aa9810fffe8027fc5c9394959650600c55336001600160601b0360a01b600d541617600d55519384523393a35b80f35b634e487b7160e01b855260118652602485fd5b85610ccc84610cc2604494885194631d32a94d60e01b8652850190611d93565b6024830190611d93565bfd5b634e487b7160e01b855260218652602485fd5b84516282b42960e81b81528790fd5b90949160028103610e4457503386526003835280828720541615610e3557600a54158015610e07575b610df1575b338652600983528186205416610de25733855260098252808520600160ff19825416179055610d4e600a54611e3b565b80600a556002541115610d65575b50505050905080f35b610d6e83611e22565b62093a80420193844211610dcf5784600c55336001600160601b0360a01b600d541617600d55610cce577f97ca50dbc8cd2d1526923c0a85aca0946056fa293563e6aa9810fffe8027fc5c9293949550519384523393a3805f808080610d5c565b634e487b7160e01b865260118752602486fd5b5163585eb56560e11b81528590fd5b610df9612311565b610e0284611df2565b610d1e565b50600754811685610e225787811015610e2257841415610d19565b634e487b7160e01b875260218852602487fd5b81516282b42960e81b81528790fd5b600303610e35573386526006835280828720541615610e3557600a54158015610f32575b610f1c575b338652600983528186205416610de25733855260098252808520600160ff198254161790556007610e9f600a54611e3b565b80600a551015610eb25750505050905080f35b610ebb83611e22565b62278d00420193844211610dcf5784600c55336001600160601b0360a01b600d541617600d55610cce577f97ca50dbc8cd2d1526923c0a85aca0946056fa293563e6aa9810fffe8027fc5c9293949550519384523393a3805f808080610d5c565b610f24612311565b610f2d84611df2565b610e6d565b50600754869550811687811015610e2257841415610e68565b5091903461066057816003193601126106605760ff8254169183831015610fba575060209260038314928315610faf575b5082610fa2575b5081610f9157519015158152f35b600d5460a01c60ff16159150610a24565b546009111591505f610f83565b60021492505f610f7c565b634e487b7160e01b815260218452602490fd5b5050346106605781600319360112610660579054905160089190911c6001600160a01b03168152602090f35b505034610660578160031936011261066057602090610bc061206e565b505034610660578160031936011261066057600d54601154600f54611064936110719060c0611043611e95565b918051978760ff8a9960a01c161515895260ff60208a019160a81c16611d93565b86015260c0850190611db4565b9160608401526007608084015260a08301520390f35b5050346106605781600319360112610660576020906008549051908152f35b5090346103285780600319360112610328576110c0611d4e565b9160243567ffffffffffffffff811161065c576110e09036908301611d65565b929091855460ff81168281101580611219578115801561120d575b1561117257505060081c6001600160a01b031633036103085750907f1acc57986d474a73434b9f914a62028affdad3ab6bc740c69f6a4f26f6cf2d1e915b838151926020845281602085015282840137818401810186905233946001600160e01b03191693601f01601f191682018290030190a380f35b9091506111fa576002036111bd57338652600360205260ff8287205416156103085750907f1acc57986d474a73434b9f914a62028affdad3ab6bc740c69f6a4f26f6cf2d1e91611139565b338652600660205260ff8287205416156103085750907f1acc57986d474a73434b9f914a62028affdad3ab6bc740c69f6a4f26f6cf2d1e91611139565b634e487b7160e01b875260218252602487fd5b505087600182146110fb565b634e487b7160e01b895260218452602489fd5b5050346106605781600319360112610660576020905160148152f35b5050346106605781600319360112610660576020905160078152f35b509034610328578260031936011261032857825460ff8116838110156112c75780159081156112bc575b50156112af5760081c6001600160a01b031633036102fc5782610c8c6122c5565b50516282b42960e81b8152fd5b60019150145f61128e565b634e487b7160e01b855260218452602485fd5b82843461078a578060031936011261078a5750601754815190815260056020820152f35b50823461078a578060031936011261078a5760ff815416918083101561132b576020836003865191148152f35b634e487b7160e01b825260219052602490fd5b509034610328578260031936011261032857825460ff8116838110158061141d5781158015611411575b156113ba57505060081c6001600160a01b031633036102fc5750505b60ff196012541660125580601355337f5db9ee0a495bf2e6ff9c91a7834c1ba4fdd244a5e8aa4e537bd38aeae4b073aa8280a280f35b9091506113fe576002036113e357338352600360205260ff8184205416156102fc575050611384565b338352600660205260ff8184205416156102fc575050611384565b634e487b7160e01b845260218352602484fd5b50508460018214611368565b634e487b7160e01b865260218552602486fd5b509034610328578260031936011261032857338352600660205260ff8184205416156114db5760ff600d5460a01c16156114ce57600f54421015806114c1575b61147d5782610c8c61221d565b9060206064925191630861758560e41b8352820152601960248201527f526f6c6c6261636b20616c726561647920617070726f766564000000000000006044820152fd5b5060076011541015611470565b51631d9c9af360e31b8152fd5b51634a42c42d60e01b8152fd5b82843461078a578060031936011261078a575061077e612056565b611ce0565b508290346106605761151936611cfd565b909284549060ff9160ff811682811015806112195781158015611752575b1561172457505060081c6001600160a01b03163303611717575b60098503611700578215801561170e575b611700578054865b8181106116ce57505080545f82558061168d575b50855b8581106115c057505050807f7951cc7a75db88f37b13d98b1d4d6dddada0f8f1acf5f7f067fd2a4f15bd0b059495610866926005555193849384612004565b6001600160a01b03806115d761087b848a8a611fe0565b16801561165957808952600690602090828252868c8c20541661164357855493600160401b8510156108e657906001959493929161161a87958681018a55611f62565b819291549060031b9184831b921b19161790558b52528989209060ff1982541617905501611581565b856024918d5191637010e27960e11b8352820152fd5b895162461bcd60e51b8152602081860152600e60248201526d24b73b30b634b21036b2b6b132b960911b6044820152606490fd5b815f527f8a35acfbc15ff81a39ae7d344fd709f28e8600b4aa8c65c6b64bfe7fe36bd19b908101905b8181106116c3575061157e565b5f81556001016116b6565b806116da600192611f62565b838060a01b0391549060031b1c168952600660205289892060ff1981541690550161156a565b865163aabd5a0960e01b8152fd5b50848311611562565b86516282b42960e81b8152fd5b9091506111fa5760020361171757338652600360205260ff87872054166115515786516282b42960e81b8152fd5b50508760018214611537565b5050346106605781600319360112610660576020905160098152f35b5050346106605781600319360112610660576020905162093a808152f35b50503461066057816003193601126106605760209051620151808152f35b50903461032857826003193601126103285760ff83541690828210156113fe5760038092036118d957338452602090600660205260ff8186205416156118cb5733855260168060205260ff82872054166118bb5733865260166020528186209260019560ff19946001868254161790556005611833601754611e3b565b8060175585518181528260208201527f0486071d0cdb00b891a7a5c87d080f0093d695896006e86c9c9bdc4b4fbcc998873392a21015611871578780f35b6118796122c5565b876017555494875b86811061188d57508780f35b806118988992611f62565b905490841b1c6001600160a01b03168a52848452858a2080548816905501611881565b815163585eb56560e11b81528590fd5b516282b42960e81b81528390fd5b516282b42960e81b81529050fd5b509034610328578260031936011261032857600d549160ff8360a01c1615610747576007601154106119c657600f5442106119b85760ff808554169360a81c1691611930611e95565b9161193a84611e0b565b61194261221d565b808510156119a557808410156119a55750837f6b4cc694a990d977593211c04566dee61182948ec956360a403ea77c5c989451849251602081528061198c33966020830190611db4565b0390a433915f805160206123cd8339815191528480a480f35b634e487b7160e01b865260219052602485fd5b905163191f4d1b60e31b8152fd5b90516338e769ff60e21b8152fd5b505034610660578160031936011261066057602090600c549051908152f35b5034610bc9576020366003190112610bc95780359080821015610bc9575f549260ff841693611a228486612181565b82851015611b445784611a8c5750845460081c6001600160a01b031633036102fc5760018303611a6d575050611a5781611e0b565b33915f805160206123cd8339815191528480a480f35b604492610cc285610ccc935194631d32a94d60e01b8652850190611d93565b929450909160018403611b0a5760081c6001600160a01b031633036102fc5760028403611aeb5760015415611ade575050611ac682611e0b565b5f9133915f805160206123cd8339815191525f80a480f35b5163b995d8e360e01b8152fd5b83610cc2604494610ccc935194631d32a94d60e01b8652850190611d93565b5092909160028103611b355790610cc2610ccc926044955194631d32a94d60e01b8652850190611d93565b83516282b42960e81b81528390fd5b602183634e487b7160e01b5f525260245ffd5b5034610bc95760209182600319360112610bc95781359282841015610bc95760ff5f541683811015611c97576002036112af57335f526003815260ff825f205416156112af57335f526009815260ff825f205416611caa57600a54611c5257611bbf84611df2565b335f5260098152815f20600160ff19825416179055611bdf600a54611e3b565b80600a556002541115611bee57005b62093a80420192834211611c3f5750917f9cbe1362661c436ae836ea8e418c794f7c1614e25851254977bc66564639be2a939160609382600855611c3482518095611d93565b3390840152820152a1005b601190634e487b7160e01b5f525260245ffd5b60ff6007541683811015611c97578414611bbf57905162461bcd60e51b815291820152600d60248201526c09adec8ca40dad2e6dac2e8c6d609b1b6044820152606490fd5b602184634e487b7160e01b5f525260245ffd5b505163585eb56560e11b8152fd5b905034610bc9575f366003190112610bc95760ff5f541682811015611b445760209250158152f35b34610bc9575f366003190112610bc95760206040516203f4808152f35b906040600319830112610bc95760043567ffffffffffffffff92838211610bc95780602383011215610bc9578160040135938411610bc95760248460051b83010111610bc957602401919060243590565b600435906001600160e01b031982168203610bc957565b9181601f84011215610bc95782359167ffffffffffffffff8311610bc95760208381860195010111610bc957565b906004821015611da05752565b634e487b7160e01b5f52602160045260245ffd5b91908251928382525f5b848110611dde575050825f602080949584010152601f8019910116010190565b602081830181015184830182015201611dbe565b6004811015611da05760ff801960075416911617600755565b6004811015611da05760ff80195f54169116175f55565b6004811015611da05760ff8019600b5416911617600b55565b5f198114611e495760010190565b634e487b7160e01b5f52601160045260245ffd5b90600182811c92168015611e8b575b6020831014611e7757565b634e487b7160e01b5f52602260045260245ffd5b91607f1691611e6c565b604051905f600e54611ea681611e5d565b80855290602090600190818116908115611f425750600114611efe575b505050829003601f01601f1916820167ffffffffffffffff811183821017611eea57604052565b634e487b7160e01b5f52604160045260245ffd5b600e5f9081529293505f805160206123ad8339815191525b848410611f2f57505050602091508301015f8080611ec3565b8054878501840152928201928101611f16565b925050506020925060ff191682850152151560051b8301015f8080611ec3565b600454811015611f975760045f527f8a35acfbc15ff81a39ae7d344fd709f28e8600b4aa8c65c6b64bfe7fe36bd19b01905f90565b634e487b7160e01b5f52603260045260245ffd5b600154811015611f975760015f527fb10e2d527612073b26eecdfd717e6a320cf44b4afac2b0732d9fcbe2b7fa0cf601905f90565b9190811015611f975760051b0190565b356001600160a01b0381168103610bc95790565b6040808252810183905293929160608501905f905b80821061202b57505060209150930152565b909183356001600160a01b0381169190829003610bc957908152602093840193019160010190612019565b600454908115612067576005549190565b5f91508190565b60ff60125416156120825760135442111590565b5f90565b5f5460ff8116600481101580611da05781158015612101575b156120b957505060018060a01b03809160081c1691161490565b909150611da0576002036120e4576001600160a01b03165f9081526003602052604090205460ff1690565b6001600160a01b03165f9081526006602052604090205460ff1690565b50505f6001821461209f565b5f5460ff81166004811015611da0578015908115612140575b501561213b5760081c6001600160a01b031690565b503090565b60019150145f612126565b60ff5f54166004811015611da0576002141580612177575b612171576002549060015490565b5f905f90565b5060015415612163565b906004918282101580611c975783821015611c97578282146121f057811580612210575b6121f0576001821490816121df575b506121be57505050565b60449291610cc2610ccc9260405194631d32a94d60e01b8652850190611d93565b9050611b445760028214155f6121b4565b604051631d32a94d60e01b8152604490610ccc85610cc283890187611d93565b50505f60018314156121a5565b600d805461ffff60a01b19169055600e5461223790611e5d565b601f8111612290575b505f600e555f600f555f6011556004545f5b81811061225d575050565b80612269600192611f62565b838060a01b0391549060031b1c165f52601060205260405f2060ff19815416905501612252565b600e5f52601f5f805160206123ad833981519152910160051c8101905b8181106122ba5750612240565b5f81556001016122ad565b600160ff1960125416176012556203f4804201804211611e4957806013556040519081527fab40a374bc51de372200a8bc981af8c9ecdc08dfdaef0bb6e09f88f3c616ef3d60203392a2565b60ff1980600754166007555f6008555f600a55600190600154825f5b82811061237b57505050600454905f5b82811061234a5750505050565b806123558592611f62565b60018060a01b0391549060031b1c165f52600960205260405f208381541690550161233d565b61238481611fab565b60018060a01b0391549060031b1c165f52600960205260405f2084815416905501839061232d56febb7b4a454dc3493923482f07822329ed19e8244eff582cc204f8554c3620c3fd8dd5c5e77980494ecc8a2275d8c55c60b6de3485cb2a18900ce00a620dc8cd32a264697066735822122043ff4ffb80f11dbd658d2210892e476f7a623045aeed3e3c1ade43d5e0060ebb64736f6c63430008180033","linkReferences":{}},"methodIdentifiers":{"COUNCIL_SIZE()":"2d31011d","DOWNGRADE_TIMELOCK()":"83109db0","MAX_PAUSE_DURATION()":"2799657d","MAX_SIGNERS()":"59ecd657","PAUSE_THRESHOLD()":"e15ec557","ROLLBACK_THRESHOLD()":"59d615ad","ROLLBACK_TIMELOCK()":"1f032e69","TRAINING_EXIT_TIMELOCK()":"3620297c","UPGRADE_TIMELOCK()":"25ed32ca","approveAction(bytes4,bytes)":"5f7f0516","approveEmergencyRollback()":"d476b8a8","canApprove(bytes4,address)":"7d7c0e1f","canInitiateRollback()":"7a8611ef","cancelEmergencyRollback()":"385722fc","configureMultisig(address[],uint256)":"c726beab","configureSecurityCouncil(address[],uint256)":"2f66ea31","emergencyPause()":"51858e27","executeEmergencyRollback()":"10ed1ae6","finalizeTransition()":"a97c580a","finalizeUpgrade()":"9a508c8e","getAdmin()":"6e9960c3","getApprover(bytes4)":"9e3fea86","getCouncilPauseStatus()":"4cb85779","getGovernanceMode()":"dee5e55b","getMultisigConfig()":"d1cdef8e","getRollbackStatus()":"61f2b551","getSecurityCouncilConfig()":"36b3cd83","getTimeLockExpiry()":"6134bcef","getTransitionLockExpiry()":"0dc817ad","initiateCouncilPause()":"1ef0c5d4","initiateEmergencyRollback(string)":"ed8d1122","initiatePause()":"f9e6c846","initiateTransition(uint8)":"7b630d00","initiateUpgrade(uint8)":"0575b743","isDowngradeRestricted()":"471427c2","isPaused()":"b187bd26","isPausedStrict()":"621ba71e","isTimeLockActive()":"cb9e9bff","isTrainingMode()":"0138c99b","setGovernanceMode(uint8)":"0d2fe6ab","unpause()":"3f4ba83a"},"id":36}