{"abi":[{"type":"constructor","inputs":[{"name":"_foundation","type":"address","internalType":"address"}],"stateMutability":"nonpayable"},{"type":"receive","stateMutability":"payable"},{"type":"function","name":"BASE_SLASH_RATE","inputs":[],"outputs":[{"name":"","type":"uint256","internalType":"uint256"}],"stateMutability":"view"},{"type":"function","name":"COUNCIL_APPROVAL_THRESHOLD","inputs":[],"outputs":[{"name":"","type":"uint256","internalType":"uint256"}],"stateMutability":"view"},{"type":"function","name":"MAX_SLASH_RATE","inputs":[],"outputs":[{"name":"","type":"uint256","internalType":"uint256"}],"stateMutability":"view"},{"type":"function","name":"MIN_STAKE_PHASE1","inputs":[],"outputs":[{"name":"","type":"uint256","internalType":"uint256"}],"stateMutability":"view"},{"type":"function","name":"SPHINCS_PUBKEY_SIZE","inputs":[],"outputs":[{"name":"","type":"uint256","internalType":"uint256"}],"stateMutability":"view"},{"type":"function","name":"UNBONDING_PERIOD","inputs":[],"outputs":[{"name":"","type":"uint256","internalType":"uint256"}],"stateMutability":"view"},{"type":"function","name":"activeProverCount","inputs":[],"outputs":[{"name":"","type":"uint256","internalType":"uint256"}],"stateMutability":"view"},{"type":"function","name":"addStake","inputs":[{"name":"proverId","type":"bytes32","internalType":"bytes32"}],"outputs":[],"stateMutability":"payable"},{"type":"function","name":"approvalMode","inputs":[],"outputs":[{"name":"","type":"uint8","internalType":"enum ProverRegistry.ApprovalMode"}],"stateMutability":"view"},{"type":"function","name":"approveByFoundation","inputs":[{"name":"proverId","type":"bytes32","internalType":"bytes32"}],"outputs":[],"stateMutability":"nonpayable"},{"type":"function","name":"autoApprove","inputs":[{"name":"proverId","type":"bytes32","internalType":"bytes32"}],"outputs":[],"stateMutability":"nonpayable"},{"type":"function","name":"calculateSlashAmount","inputs":[{"name":"stake","type":"uint256","internalType":"uint256"},{"name":"colludingCount","type":"uint256","internalType":"uint256"}],"outputs":[{"name":"","type":"uint256","internalType":"uint256"}],"stateMutability":"pure"},{"type":"function","name":"councilMembers","inputs":[{"name":"","type":"address","internalType":"address"}],"outputs":[{"name":"","type":"bool","internalType":"bool"}],"stateMutability":"view"},{"type":"function","name":"executeExit","inputs":[{"name":"proverId","type":"bytes32","internalType":"bytes32"}],"outputs":[],"stateMutability":"nonpayable"},{"type":"function","name":"foundation","inputs":[],"outputs":[{"name":"","type":"address","internalType":"address"}],"stateMutability":"view"},{"type":"function","name":"getApprovalVoteCount","inputs":[{"name":"proverId","type":"bytes32","internalType":"bytes32"}],"outputs":[{"name":"","type":"uint256","internalType":"uint256"}],"stateMutability":"view"},{"type":"function","name":"getProver","inputs":[{"name":"proverId","type":"bytes32","internalType":"bytes32"}],"outputs":[{"name":"operator","type":"address","internalType":"address"},{"name":"sphincsPublicKey","type":"bytes","internalType":"bytes"},{"name":"sphincsPubKeyHash","type":"bytes32","internalType":"bytes32"},{"name":"stake","type":"uint256","internalType":"uint256"},{"name":"status","type":"uint8","internalType":"enum ProverRegistry.ProverStatus"},{"name":"registeredAt","type":"uint256","internalType":"uint256"},{"name":"approvedAt","type":"uint256","internalType":"uint256"},{"name":"totalSignatures","type":"uint256","internalType":"uint256"},{"name":"slashCount","type":"uint256","internalType":"uint256"},{"name":"exitRequestedAt","type":"uint256","internalType":"uint256"}],"stateMutability":"view"},{"type":"function","name":"getProverIdByOperator","inputs":[{"name":"operator","type":"address","internalType":"address"}],"outputs":[{"name":"","type":"bytes32","internalType":"bytes32"}],"stateMutability":"view"},{"type":"function","name":"getProverIdByPubKeyHash","inputs":[{"name":"pubKeyHash","type":"bytes32","internalType":"bytes32"}],"outputs":[{"name":"","type":"bytes32","internalType":"bytes32"}],"stateMutability":"view"},{"type":"function","name":"getUnbondingEndTime","inputs":[{"name":"proverId","type":"bytes32","internalType":"bytes32"}],"outputs":[{"name":"","type":"uint256","internalType":"uint256"}],"stateMutability":"view"},{"type":"function","name":"hasCouncilMemberVoted","inputs":[{"name":"proverId","type":"bytes32","internalType":"bytes32"},{"name":"member","type":"address","internalType":"address"}],"outputs":[{"name":"","type":"bool","internalType":"bool"}],"stateMutability":"view"},{"type":"function","name":"insuranceFund","inputs":[],"outputs":[{"name":"","type":"uint256","internalType":"uint256"}],"stateMutability":"view"},{"type":"function","name":"isActiveProver","inputs":[{"name":"proverId","type":"bytes32","internalType":"bytes32"}],"outputs":[{"name":"","type":"bool","internalType":"bool"}],"stateMutability":"view"},{"type":"function","name":"operatorToProverId","inputs":[{"name":"","type":"address","internalType":"address"}],"outputs":[{"name":"","type":"bytes32","internalType":"bytes32"}],"stateMutability":"view"},{"type":"function","name":"owner","inputs":[],"outputs":[{"name":"","type":"address","internalType":"address"}],"stateMutability":"view"},{"type":"function","name":"pause","inputs":[],"outputs":[],"stateMutability":"nonpayable"},{"type":"function","name":"paused","inputs":[],"outputs":[{"name":"","type":"bool","internalType":"bool"}],"stateMutability":"view"},{"type":"function","name":"provers","inputs":[{"name":"","type":"bytes32","internalType":"bytes32"}],"outputs":[{"name":"operator","type":"address","internalType":"address"},{"name":"sphincsPublicKey","type":"bytes","internalType":"bytes"},{"name":"sphincsPubKeyHash","type":"bytes32","internalType":"bytes32"},{"name":"stake","type":"uint256","internalType":"uint256"},{"name":"status","type":"uint8","internalType":"enum ProverRegistry.ProverStatus"},{"name":"registeredAt","type":"uint256","internalType":"uint256"},{"name":"approvedAt","type":"uint256","internalType":"uint256"},{"name":"totalSignatures","type":"uint256","internalType":"uint256"},{"name":"slashCount","type":"uint256","internalType":"uint256"},{"name":"exitRequestedAt","type":"uint256","internalType":"uint256"},{"name":"hsmAttestationHash","type":"bytes32","internalType":"bytes32"}],"stateMutability":"view"},{"type":"function","name":"pubKeyHashToProverId","inputs":[{"name":"","type":"bytes32","internalType":"bytes32"}],"outputs":[{"name":"","type":"bytes32","internalType":"bytes32"}],"stateMutability":"view"},{"type":"function","name":"recordSignature","inputs":[{"name":"proverId","type":"bytes32","internalType":"bytes32"}],"outputs":[],"stateMutability":"nonpayable"},{"type":"function","name":"register","inputs":[{"name":"sphincsPublicKey","type":"bytes","internalType":"bytes"},{"name":"hsmAttestation","type":"bytes","internalType":"bytes"},{"name":"multisigProof","type":"bytes","internalType":"bytes"}],"outputs":[{"name":"proverId","type":"bytes32","internalType":"bytes32"}],"stateMutability":"payable"},{"type":"function","name":"requestExit","inputs":[{"name":"proverId","type":"bytes32","internalType":"bytes32"}],"outputs":[],"stateMutability":"nonpayable"},{"type":"function","name":"setApprovalMode","inputs":[{"name":"newMode","type":"uint8","internalType":"enum ProverRegistry.ApprovalMode"}],"outputs":[],"stateMutability":"nonpayable"},{"type":"function","name":"setCouncilMember","inputs":[{"name":"member","type":"address","internalType":"address"},{"name":"isActive","type":"bool","internalType":"bool"}],"outputs":[],"stateMutability":"nonpayable"},{"type":"function","name":"setFoundation","inputs":[{"name":"newFoundation","type":"address","internalType":"address"}],"outputs":[],"stateMutability":"nonpayable"},{"type":"function","name":"slash","inputs":[{"name":"proverId","type":"bytes32","internalType":"bytes32"},{"name":"colludingCount","type":"uint256","internalType":"uint256"},{"name":"reason","type":"bytes32","internalType":"bytes32"}],"outputs":[],"stateMutability":"nonpayable"},{"type":"function","name":"totalStaked","inputs":[],"outputs":[{"name":"","type":"uint256","internalType":"uint256"}],"stateMutability":"view"},{"type":"function","name":"transferOwnership","inputs":[{"name":"newOwner","type":"address","internalType":"address"}],"outputs":[],"stateMutability":"nonpayable"},{"type":"function","name":"unpause","inputs":[],"outputs":[],"stateMutability":"nonpayable"},{"type":"function","name":"voteForApproval","inputs":[{"name":"proverId","type":"bytes32","internalType":"bytes32"}],"outputs":[],"stateMutability":"nonpayable"},{"type":"function","name":"withdrawInsuranceFund","inputs":[{"name":"to","type":"address","internalType":"address"},{"name":"amount","type":"uint256","internalType":"uint256"}],"outputs":[],"stateMutability":"nonpayable"},{"type":"event","name":"ApprovalModeUpdated","inputs":[{"name":"oldMode","type":"uint8","indexed":false,"internalType":"enum ProverRegistry.ApprovalMode"},{"name":"newMode","type":"uint8","indexed":false,"internalType":"enum ProverRegistry.ApprovalMode"}],"anonymous":false},{"type":"event","name":"CouncilMemberUpdated","inputs":[{"name":"member","type":"address","indexed":true,"internalType":"address"},{"name":"isActive","type":"bool","indexed":false,"internalType":"bool"}],"anonymous":false},{"type":"event","name":"OwnershipTransferred","inputs":[{"name":"previousOwner","type":"address","indexed":true,"internalType":"address"},{"name":"newOwner","type":"address","indexed":true,"internalType":"address"}],"anonymous":false},{"type":"event","name":"Paused","inputs":[{"name":"account","type":"address","indexed":false,"internalType":"address"}],"anonymous":false},{"type":"event","name":"ProverApproved","inputs":[{"name":"proverId","type":"bytes32","indexed":true,"internalType":"bytes32"},{"name":"approvedBy","type":"address","indexed":true,"internalType":"address"},{"name":"mode","type":"uint8","indexed":false,"internalType":"enum ProverRegistry.ApprovalMode"}],"anonymous":false},{"type":"event","name":"ProverExitRequested","inputs":[{"name":"proverId","type":"bytes32","indexed":true,"internalType":"bytes32"},{"name":"exitRequestedAt","type":"uint256","indexed":false,"internalType":"uint256"},{"name":"unbondingEndsAt","type":"uint256","indexed":false,"internalType":"uint256"}],"anonymous":false},{"type":"event","name":"ProverExited","inputs":[{"name":"proverId","type":"bytes32","indexed":true,"internalType":"bytes32"},{"name":"stakeReturned","type":"uint256","indexed":false,"internalType":"uint256"}],"anonymous":false},{"type":"event","name":"ProverRegistered","inputs":[{"name":"proverId","type":"bytes32","indexed":true,"internalType":"bytes32"},{"name":"operator","type":"address","indexed":true,"internalType":"address"},{"name":"sphincsPubKeyHash","type":"bytes32","indexed":false,"internalType":"bytes32"},{"name":"stake","type":"uint256","indexed":false,"internalType":"uint256"}],"anonymous":false},{"type":"event","name":"ProverSlashed","inputs":[{"name":"proverId","type":"bytes32","indexed":true,"internalType":"bytes32"},{"name":"amount","type":"uint256","indexed":false,"internalType":"uint256"},{"name":"slashCount","type":"uint256","indexed":false,"internalType":"uint256"},{"name":"reason","type":"bytes32","indexed":false,"internalType":"bytes32"}],"anonymous":false},{"type":"event","name":"SignatureRecorded","inputs":[{"name":"proverId","type":"bytes32","indexed":true,"internalType":"bytes32"},{"name":"totalSignatures","type":"uint256","indexed":false,"internalType":"uint256"}],"anonymous":false},{"type":"event","name":"StakeWithdrawn","inputs":[{"name":"proverId","type":"bytes32","indexed":true,"internalType":"bytes32"},{"name":"operator","type":"address","indexed":true,"internalType":"address"},{"name":"amount","type":"uint256","indexed":false,"internalType":"uint256"}],"anonymous":false},{"type":"event","name":"Unpaused","inputs":[{"name":"account","type":"address","indexed":false,"internalType":"address"}],"anonymous":false},{"type":"error","name":"AlreadyExited","inputs":[]},{"type":"error","name":"AlreadyVoted","inputs":[]},{"type":"error","name":"EnforcedPause","inputs":[]},{"type":"error","name":"ExpectedPause","inputs":[]},{"type":"error","name":"InsufficientStake","inputs":[]},{"type":"error","name":"InvalidApprovalMode","inputs":[]},{"type":"error","name":"InvalidHSMAttestation","inputs":[]},{"type":"error","name":"InvalidMultisigProof","inputs":[]},{"type":"error","name":"InvalidPublicKeyLength","inputs":[]},{"type":"error","name":"InvalidSlashAmount","inputs":[]},{"type":"error","name":"NoStakeToSlash","inputs":[]},{"type":"error","name":"NotCouncilMember","inputs":[]},{"type":"error","name":"NotFoundation","inputs":[]},{"type":"error","name":"NotOwner","inputs":[]},{"type":"error","name":"ProverAlreadyRegistered","inputs":[]},{"type":"error","name":"ProverNotActive","inputs":[]},{"type":"error","name":"ProverNotFound","inputs":[]},{"type":"error","name":"ProverNotPending","inputs":[]},{"type":"error","name":"ProverNotUnbonding","inputs":[]},{"type":"error","name":"ReentrancyGuardReentrantCall","inputs":[]},{"type":"error","name":"TransferFailed","inputs":[]},{"type":"error","name":"UnbondingPeriodNotExpired","inputs":[]},{"type":"error","name":"ZeroAddress","inputs":[]}],"bytecode":{"object":"0x6080346100d257601f62002b1e38819003918201601f19168301916001600160401b038311848410176100d7578084926020946040528339810103126100d257516001600160a01b038116908190036100d25760017f9b779b17422d0df92223018b32b4d1fa46e071723d6817e2486d003becc55f005580156100c05760008054610100600160a81b0319163360081b610100600160a81b0316179055600180546001600160a81b031916919091179055604051612a309081620000ee8239f35b60405163d92e233d60e01b8152600490fd5b600080fd5b634e487b7160e01b600052604160045260246000fdfe60e0604081815260049182361015610022575b505050361561002057600080fd5b005b600092833560e01c9182632aa3131a146117ab575081633296d983146116e657816334980aaa146115965781633f4ba83a1461152257816341fbb050146114f95781634491a24f146114d657816350d95af8146114ae578163521c6c1c146114825781635c975abb1461146057816364977abe1461144557816366da754b1461138d578163700dd6ac14611371578163706ee6151461118e57816377c843ef146111205781637c51eb7414611104578163817b1cd2146110e55781638456cb591461107d57816387ed80e614610fb95781638da5cb5b14610f8d5781638e94cd6514610edd578163932fe01314610e255781639774ddd914610d5f57816398f95e8714610d385781639d6731a814610d38578163a7fbb1bd14610b9e578163a97a2eae14610b82578163b790230314610b63578163b8044b5414610b3c578163bd8f983714610a8f578163c64098a31461091b578163d3fce9f5146108fc578163d438035314610578578163d9a912ec1461055a578163db3543f5146104f3578163dfccd46b14610453578163e59566bf14610401578163e6dc2e94146103ae578163f08f6ea0146102fd578163f2fde38b1461025b578163ff09612c1461022f575063ff360696146101f55780610012565b3461022b57602036600319011261022b5760209181906001600160a01b0361021b6117e6565b1681526003845220549051908152f35b5080fd5b9050346102575760203660031901126102575760209282913581526006845220549051908152f35b8280fd5b905034610257576020366003190112610257576102766117e6565b83549060018060a01b0392838360081c16938433036102ee5782169485156102e1575050610100600160a81b031990911660089190911b610100600160a81b03161783557f8be0079c531659141344cd1fd0a4f28419497f9722a3daafe3b4186f6b6457e08380a380f35b5163d92e233d60e01b8152fd5b5084516330cd747160e01b8152fd5b9050346102575760203660031901126102575780359161031b611a61565b60ff60015460a01c166003811015610380576002036103a157828452600260205280842080546001600160a01b0316156103935782015460ff16600681101561038057600103610373578361037033856128f8565b80f35b51637a81bae360e01b8152fd5b634e487b7160e01b855260218352602485fd5b505163070b036f60e11b8152fd5b5163239523a160e01b8152fd5b905082346103fe5760203660031901126103fe5781358152600260205260ff828483200154169160068310156103eb576020836002865191148152f35b634e487b7160e01b825260219052602490fd5b80fd5b9050346102575781600319360112610257576024356001600160a01b038116919082900361044f5760209360ff92849235825260068652600183832001908252855220541690519015158152f35b8380fd5b90503461025757602036600319011261025757803590600382101561044f57835460081c6001600160a01b031633036104e557509060ff6104e17fa95dc55f2243a82187f2f4bcf7d1ee84c3b0517d0242c3e0b48c083072fb87e2936104d76001548460a01b8360a01b168560a01b19821617600155855194859160a01c16611801565b6020830190611801565ba180f35b82516330cd747160e01b8152fd5b9050346102575760203660031901126102575761050e6117e6565b83546001600160a01b03919060081c8216330361054a57169182156102e15750506bffffffffffffffffffffffff60a01b600154161760015580f35b83516330cd747160e01b81528390fd5b50503461022b578160031936011261022b576020905162093a808152f35b8383606036600319011261022b576001600160401b0391833583811161022b576105a590369086016119bf565b94909160243585811161022b576105bf90369084016119bf565b909660443587811161044f576105d890369086016119bf565b9890506105e3611a61565b6105eb611a7f565b6020988983036108ec57670de0b6b3a764000034106108dc5733855260038a52878520546108ac5783156108cc57156108bc5761063161062c368489611a07565b611b05565b92838552858a52878520546108ac5787516850524f5645525f563160b81b8b8201523360601b602982015284603d820152603d8152606081018181108b82111761089957895261068090611b05565b9889865260028b5288862093336bffffffffffffffffffffffff60a01b865416178555600198898601928211610886578c6106bb8454611824565b601f811161083e575b505087908d601f84116001146107ca57509282600a9693610725969361062c968c926107bf575b5050600019600383901b1c1916908c1b1790555b8660028701553460038701558886018a60ff198254161790554260058701553691611a07565b910155338252600387528585832055808252828752858583205561074b34600854611a3e565b60085584519081523487820152857f1e6858fde5fdd5accdcb3ee44bfbc61ca84ec29bdf4c6570503fc2ed9f011055863393a360ff835460a01c169160038310156103eb5750506002146107b0575b6000805160206129db8339815191525551908152f35b6107ba33846128f8565b61079a565b0135905038806106eb565b908b9392601f198416868c52838c20938c905b82821061082557505092600a9895928592610725999661062c99961061080b575b505050811b0190556106ff565b0135600019600384901b60f8161c191690553880806107fe565b8385013586558f979095019492830192908101906107dd565b848a52818a2090601f850160051c820192851061087c575b601f0160051c01908b905b82811061087157508e91506106c4565b8a8155018b90610861565b9091508190610856565b634e487b7160e01b885260418952602488fd5b634e487b7160e01b875260418852602487fd5b8751635edab1f160e01b81528690fd5b8651630c07109960e31b81528590fd5b8751631bf19e3960e31b81528690fd5b87516378de4a6960e11b81528690fd5b87516318dca5e960e21b81528690fd5b50503461022b578160031936011261022b576020906007549051908152f35b919050346102575760203660031901126102575781359061093a611a7f565b818452600260205280842080546001600160a01b0316939091908415610a815780830180549360ff85166006811015610a6e57600303610a5e57600981015462093a808101809111610a4b574210610a3b57906003889201908382549660ff1916179055556109ab83600854611ad1565b6008558580808086895af16109be61297d565b5015610a2d57507f11269c9885f555c7abc6754b6e48ba590f3653354fc22e80d9f1a3da407d139d9181847f085dd4cdfec7df04235fda9a3f62d6d7949561890fa8e9b5dc9e637970363f7d6020809551858152a251908152a360016000805160206129db8339815191525580f35b90516312171d8360e31b8152fd5b835163632d875b60e01b81528390fd5b634e487b7160e01b895260118452602489fd5b83516379b77d6760e01b81528390fd5b634e487b7160e01b895260218452602489fd5b905163070b036f60e11b8152fd5b90503461025757602036600319011261025757600154813592906001600160a01b03908181163303610b2d5760ff90610ac6611a61565b60a01c166003811015610b1a57610b0c57838552600260205281852090815416156103935782015460ff16600681101561038057600103610373578361037033856128f8565b505163239523a160e01b8152fd5b634e487b7160e01b865260218452602486fd5b505051630becd67760e41b8152fd5b8284346103fe5760203660031901126103fe5750610b5c602092356129ad565b9051908152f35b50503461022b578160031936011261022b576020906009549051908152f35b50503461022b578160031936011261022b576020905160038152f35b83833461022b5760209081600319360112610257578335913384526005815260ff828520541615610d2857610bd1611a61565b60019160ff835460a01c166003811015610cf7578303610d19578385526002825280852080548791906001600160a01b031615610d0a57015460ff166006811015610cf7578303610ce85783855260068252808520958387019633875287845260ff8388205416610cd9578697338852845260038388209160ff19928784825416179055610c5f8154611aaf565b8091551015610c6c578680f35b7f80e2c794773307b5c880ee34538528caad51715a67486d2282c461455ebc9ef594610ccd9260ff92888a52600287526002868b2092830191825416179055600642910155610cbc600754611aaf565b6007555460a01c1691518092611801565ba3808280808080808680f35b509051637c9a1cf960e01b8152fd5b51637a81bae360e01b81528590fd5b634e487b7160e01b865260218752602486fd5b50905163070b036f60e11b8152fd5b5163239523a160e01b81528590fd5b8151634a42c42d60e01b81528590fd5b90503461025757602036600319011261025757602092818392358252845220549051908152f35b919050346102575760203660031901126102575782548235926001600160a01b039160081c821633036104e55783855260026020528285209182541615610e175760ff81830154166006811015610e0457600203610df657507fc792585c5ca97250a06fe5f01b5da65385baeb0fa6ad10d257761d8952b96f049160076020920190610deb8254611aaf565b80925551908152a280f35b8251630e5ea1c160e31b8152fd5b634e487b7160e01b865260218252602486fd5b825163070b036f60e11b8152fd5b8284346103fe5760203660031901126103fe578190833581526002602052209060018060a01b038254169160028101549360ff600383015491830154166005830154600684015490610ebe600786015493600887015495610e8d600160098a015499016118cc565b9a610eab8a519c8d9c8d5260208d61014091829101528d0190611972565b998b015260608a015260808901906119b2565b60a087015260c086015260e08501526101008401526101208301520390f35b91905034610257578060031936011261025757610ef86117e6565b9060243591821515809303610f895784546001600160a01b03919060081c82163303610f795716928315610f6b57507f19a4ffd0cfbefa407820850841d61aaf194667d5b4f12d1f3e74a5210bc7b3c1916020918486526005835280862060ff1981541660ff841617905551908152a280f35b905163d92e233d60e01b8152fd5b82516330cd747160e01b81528590fd5b8480fd5b50503461022b578160031936011261022b579054905160089190911c6001600160a01b03168152602090f35b905082346103fe5760203660031901126103fe578290823581526002602052209160018060a01b0383541691610ff1600185016118cc565b9360028101549160ff600383015491830154166005830154600684015490611058600786015493600887015495600a6009890154980154986110458b519d8e9d8e528d610160908160208201520190611972565b9a8c015260608b015260808a01906119b2565b60a088015260c087015260e08601526101008501526101208401526101408301520390f35b905034610257578260031936011261025757825490600882901c6001600160a01b031633036104e557507f62e78cea01bee320cd4e420270b5ea74000d11b0c9f74754ebdbfc544b05a2589160016020926110d6611a61565b60ff191617845551338152a180f35b50503461022b578160031936011261022b576020906008549051908152f35b50503461022b578160031936011261022b5760209051600a8152f35b8284346103fe57816003193601126103fe5761113e60243580611abe565b90600a820291808304600a149015171561117b575061116b81602094606480949211611173575b35611abe565b049051908152f35b839150611165565b634e487b7160e01b815260118452602490fd5b9050346102575760603660031901126102575782548135926024359290916001600160a01b03919060081c821633036104e5576111c9611a7f565b84865260026020528286209182541615610e17576003820191825494851561136157806111f591611abe565b600a810290808204600a149015171561134e5760648111611346575b60646112206112289288611abe565b048096611ad1565b8355670de0b6b3a764000060088201936112428554611aaf565b855561125087600854611ad1565b60085561125f87600954611a3e565b60095554106112b8575b50505481519283526020830152604435908201527f757df6cc1eb02356d7779c846aa97de8753fd30ac7816138826987b3d72c52f590606090a260016000805160206129db8339815191525580f35b81019081549060ff82169060068210156113335750917f757df6cc1eb02356d7779c846aa97de8753fd30ac7816138826987b3d72c52f5959391600260609694146000146113255750600560ff19825416179055611317600754612970565b6007555b9193819350611269565b60ff1916600517905561131b565b634e487b7160e01b895260219052602488fd5b506064611211565b634e487b7160e01b885260118352602488fd5b8451630c2fc06560e11b81528390fd5b50503461022b578160031936011261022b576020905160648152f35b90506020366003190112610257576113a3611a61565b6113ab611a7f565b80358352600260205281832080549092906001600160a01b0316156114385760ff828401541660068110156103805782811490811561142d575b506114205783600384016113fa348254611a3e565b905561140834600854611a3e565b60085560016000805160206129db8339815191525580f35b51631ecb2c4f60e31b8152fd5b6005915014386113e5565b5163070b036f60e11b8152fd5b50503461022b578160031936011261022b5760209051818152f35b50503461022b578160031936011261022b5760ff602092541690519015158152f35b50503461022b578160031936011261022b576020906114ac60ff60015460a01c1691518092611801565bf35b50503461022b57602036600319011261022b5760209181906001600160a01b0361021b6117e6565b50503461022b578160031936011261022b5760209051670de0b6b3a76400008152f35b50503461022b578160031936011261022b5760015490516001600160a01b039091168152602090f35b905034610257578260031936011261025757825490600882901c6001600160a01b031633036104e55760ff821615611588575060ff19168255513381527f5db9ee0a495bf2e6ff9c91a7834c1ba4fdd244a5e8aa4e537bd38aeae4b073aa90602090a180f35b8251638dfc202b60e01b8152fd5b83833461022b57602036600319011261022b578235906115b4611a61565b6115bc611a7f565b818352600260205280832080546001600160a01b031680156116d65733036116c65784810160ff8154166006811015806116b3576002821491821590816116a4575b5061169457610cf757611681575b600360ff1982541617905560094291015562093a80420180421161166e57907f29df518e26d228b761b1b4f0b867f4336e3fd28129c439625c77dab178023e7c918151904282526020820152a260016000805160206129db8339815191525580f35b634e487b7160e01b845260118552602484fd5b61168c600754612970565b60075561160c565b8451630e5ea1c160e31b81528890fd5b915050600187911415896115fe565b634e487b7160e01b875260218852602487fd5b81516330cd747160e01b81528590fd5b825163070b036f60e11b81528690fd5b919050346102575780600319360112610257576117016117e6565b835460243591906001600160a01b039060081c8116330361179b57611724611a7f565b81161561178c5760095480831161177c57858381949361174683958495611ad1565b6009555af161175361297d565b501561176f578260016000805160206129db8339815191525580f35b516312171d8360e31b8152fd5b505050516378de4a6960e11b8152fd5b50505163d92e233d60e01b8152fd5b505050516330cd747160e01b8152fd5b849084346102575760203660031901126102575760209260ff91906001600160a01b036117d66117e6565b1681526005855220541615158152f35b600435906001600160a01b03821682036117fc57565b600080fd5b90600382101561180e5752565b634e487b7160e01b600052602160045260246000fd5b90600182811c92168015611854575b602083101461183e57565b634e487b7160e01b600052602260045260246000fd5b91607f1691611833565b61032081019081106001600160401b0382111761187a57604052565b634e487b7160e01b600052604160045260246000fd5b60a081019081106001600160401b0382111761187a57604052565b90601f801991011681019081106001600160401b0382111761187a57604052565b90604051918260008254926118e084611824565b90818452600194858116908160001461194f575060011461190c575b505061190a925003836118ab565b565b9093915060005260209081600020936000915b81831061193757505061190a935082010138806118fc565b8554888401850152948501948794509183019161191f565b91505061190a94506020925060ff191682840152151560051b82010138806118fc565b919082519283825260005b84811061199e575050826000602080949584010152601f8019910116010190565b60208183018101518483018201520161197d565b90600682101561180e5752565b9181601f840112156117fc578235916001600160401b0383116117fc57602083818601950101116117fc57565b6001600160401b03811161187a57601f01601f191660200190565b929192611a13826119ec565b91611a2160405193846118ab565b8294818452818301116117fc578281602093846000960137010152565b91908201809211611a4b57565b634e487b7160e01b600052601160045260246000fd5b60ff60005416611a6d57565b60405163d93c066560e01b8152600490fd5b6000805160206129db8339815191526002815414611a9d5760029055565b604051633ee5aeb560e01b8152600490fd5b6000198114611a4b5760010190565b81810292918115918404141715611a4b57565b91908203918211611a4b57565b906019811015611aef5760051b0190565b634e487b7160e01b600052603260045260246000fd5b6000608052604051611b168161185e565b610320368237608052805160018101808211611a4b576088900491600183018311611a4b57600092915b600183018410611cb657505050506080516001600160401b038151166fffffffffffffffff0000000000000000602083015160401b161760408201519160606001600160401b0360c01b91015160c01b16916001600160401b0360801b9060801b1617177eff00ff00ff00ff00ff00ff00ff00ff00ff00ff00ff00ff00ff00ff00ff00ff7fff00ff00ff00ff00ff00ff00ff00ff00ff00ff00ff00ff00ff00ff00ff00ff008260081b169160081c16177dffff0000ffff0000ffff0000ffff0000ffff0000ffff0000ffff0000ffff7fffff0000ffff0000ffff0000ffff0000ffff0000ffff0000ffff0000ffff00008260101b169160101c16177bffffffff00000000ffffffff00000000ffffffff00000000ffffffff7fffffffff00000000ffffffff00000000ffffffff00000000ffffffff000000008260201b169160201c161777ffffffffffffffff0000000000000000ffffffffffffffff80198260401b169160401c16178060801b9060801c1790565b9091929384608881020460881485151715611a4b57936000935b6011851015611de957600090815b6008831015611da6578660031b87810460081488151715611a4b5783611d0a611d0f9260888802611a3e565b611a3e565b85811015611d5e578651811015611aef5786016020015160f81c905b8360031b9184830460081485151715611a4b57611d589260ff6001600160401b039216901b161792611aaf565b91611cde565b808603611d6e5750600690611d2b565b608880860201806088870211611a4b576087608887020111611a4b576088850260870103611d9e57608090611d2b565b600090611d2b565b611de092509692969590956001600160401b039081611dc784608051611ade565b51161890611dd783608051611ade565b91169052611aaf565b93949094611cd0565b9350919091610320604051611dfd8161185e565b369037604051611e0c81611890565b60a036823760405190611e1e82611890565b60a036833760405161032081018181106001600160401b0382111761187a576040526000815260016020820152603e6040820152601c6060820152601b6080820152602460a0820152602c60c0820152600660e0820152603761010082015260146101208201526003610140820152600a610160820152602b61018082015260196101a082015260276101c082015260296101e0820152602d610200820152600f61022082015260156102408201526008610260820152601261028082015260026102a0820152603d6102c082015260386102e0820152600e6103008201526040518060c052806103008101106001600160401b036103008301111761187a57806103006001920160405252618082602060c051015267800000000000808a604060c0510152678000000080008000606060c051015261808b608060c0510152638000000160a060c051015267800000008000808160c08051015267800000000000800960e060c0510152608a61010060c0510152608861012060c0510152638000800961014060c0510152638000000a61016060c0510152638000808b61018060c051015267800000000000008b6101a060c05101526780000000000080896101c060c05101526780000000000080036101e060c051015267800000000000800261020060c051015267800000000000008061022060c051015261800a61024060c051015267800000008000000a61026060c051015267800000008000808161028060c05101526780000000000080806102a060c051015263800000016102c060c05101526780000000800080086102e060c05101526000915b601883106120995750505050612090600191611aaf565b93929050611b40565b9491966001600160401b03608099929794995181610280818351168260a08501511618826101408501511618826101e0850151161892015116181686526080516001600160401b036102a0816020840151168260c0850151161882610160850151161882610200850151161892015116186001600160401b03811660208801526001600160401b03608051816102c0816040840151168260e0850151161882610180850151161882610220850151161892015116181660408801526001600160401b03608051816102e081606084015116826101008501511618826101a0850151161882610240850151161892015116181660608801526001600160401b0380806080518161030081608084015116826101208501511618826101c085015116188261026085015116189201511618168060808b015281600185603f1c1667fffffffffffffffe8660011b16178218168d528c6020838c612217826040818451169301511667fffffffffffffffe600182603f1c169160011b161790565b18169101528c6040838c61224b826060816020850151169301511667fffffffffffffffe600182603f1c169160011b161790565b18169101528c6060838c61227f826080816040850151169301511667fffffffffffffffe600182603f1c169160011b161790565b18169101528c6080838c6122b0828060608401511692511667fffffffffffffffe600182603f1c169160011b161790565b18169101526080519367fffffffffffffffe600182603f1c169160011b1617181681835116181690526001600160401b0360208a0151166001600160401b036020608051019181835116181690526001600160401b0360408a0151166001600160401b036040608051019181835116181690526001600160401b0360608a0151166001600160401b036060608051019181835116181690526001600160401b0360808a0151166001600160401b0360808051019181835116181690526001600160401b038951166001600160401b0360a0608051019181835116181690526001600160401b0360208a0151166001600160401b0360c0608051019181835116181690526001600160401b0360408a0151166001600160401b0360e0608051019181835116181690526001600160401b0360608a0151166001600160401b03610100608051019181835116181690526001600160401b0360808a0151166001600160401b03610120608051019181835116181690526001600160401b038951166001600160401b03610140608051019181835116181690526001600160401b0360208a0151166001600160401b03610160608051019181835116181690526001600160401b0360408a0151166001600160401b03610180608051019181835116181690526001600160401b0360608a0151166001600160401b036101a0608051019181835116181690526001600160401b0360808a0151166001600160401b036101c0608051019181835116181690526001600160401b038951166001600160401b036101e0608051019181835116181690526001600160401b0360208a0151166001600160401b03610200608051019181835116181690526001600160401b0360408a0151166001600160401b03610220608051019181835116181690526001600160401b0360608a0151166001600160401b03610240608051019181835116181690526001600160401b0360808a0151166001600160401b03610260608051019181835116181690526001600160401b038951166001600160401b03610280608051019181835116181690526001600160401b0360208a0151166001600160401b036102a0608051019181835116181690526001600160401b0360408a0151166001600160401b036102c0608051019181835116181690526001600160401b0360608a0151166001600160401b036102e0608051019181835116181690526001600160401b0360808a0151166001600160401b03610300608051019181835116181690526126646040518060a05261185e565b6103203660a0513760005b6019811061282b575060005b6005808210156127eb5780828102048203611a4b5761269e82820260a051611ade565b51908281026001810110611a4b576126bd60018483020160a051611ade565b518184026002810110611a4b576126db60028584020160a051611ade565b51918481026003810110611a4b576126fa60038683020160a051611ade565b5160049190868202808401106127d657926001600160401b036127c384898589859987876127d19f9e81819f9d61273a829e918a8493020160a051611ade565b51968161274b8b8b02608051611ade565b961619161691161816905286612768600186860201608051611ade565b9a16998780838d191616818b1618169052868061278c600287870201608051611ade565b92169a81848d1916161816905285806127ac600386860201608051611ade565b921699818d8c191616181690520201608051611ade565b951619161618169052611aaf565b61267b565b601183634e487b7160e01b6000525260246000fd5b5050966128259098939691989592956001600160401b038160051b60c0510151166001600160401b03608051918183511618169052611aaf565b91612079565b600581066001600160ff1b0381169003611a4b576003600582048102046005820403611a4b57600561286781830460030282840660011b611a3e565b06906128936001600160401b0361288083608051611ade565b511661288c838c611ade565b51906128ca565b6005838102048303611a4b576001600160401b03611dd76128bd6128c59560050260058604611a3e565b60a051611ade565b61266f565b81156128f3576001600160401b038091168260400360408111611a4b578183911c16921b161790565b905090565b806000526002602052604060002060048101600260ff19825416179055600642910155612926600754611aaf565b6007557f80e2c794773307b5c880ee34538528caad51715a67486d2282c461455ebc9ef5602060ff60015460a01c16936129636040518096611801565b6001600160a01b031693a3565b8015611a4b576000190190565b3d156129a8573d9061298e826119ec565b9161299c60405193846118ab565b82523d6000602084013e565b606090565b600052600260205260096040600020015480156129d45762093a808101809111611a4b5790565b5060009056fe9b779b17422d0df92223018b32b4d1fa46e071723d6817e2486d003becc55f00a2646970667358221220ba7be0fb2e361b3d4738162db0484f237e6d473ad8b373fc775bfa2e7c0271aa64736f6c63430008140033","linkReferences":{}},"methodIdentifiers":{"BASE_SLASH_RATE()":"7c51eb74","COUNCIL_APPROVAL_THRESHOLD()":"a97a2eae","MAX_SLASH_RATE()":"700dd6ac","MIN_STAKE_PHASE1()":"4491a24f","SPHINCS_PUBKEY_SIZE()":"64977abe","UNBONDING_PERIOD()":"d9a912ec","activeProverCount()":"d3fce9f5","addStake(bytes32)":"66da754b","approvalMode()":"521c6c1c","approveByFoundation(bytes32)":"bd8f9837","autoApprove(bytes32)":"f08f6ea0","calculateSlashAmount(uint256,uint256)":"77c843ef","councilMembers(address)":"2aa3131a","executeExit(bytes32)":"c64098a3","foundation()":"41fbb050","getApprovalVoteCount(bytes32)":"ff09612c","getProver(bytes32)":"932fe013","getProverIdByOperator(address)":"ff360696","getProverIdByPubKeyHash(bytes32)":"9d6731a8","getUnbondingEndTime(bytes32)":"b8044b54","hasCouncilMemberVoted(bytes32,address)":"e59566bf","insuranceFund()":"b7902303","isActiveProver(bytes32)":"e6dc2e94","operatorToProverId(address)":"50d95af8","owner()":"8da5cb5b","pause()":"8456cb59","paused()":"5c975abb","provers(bytes32)":"87ed80e6","pubKeyHashToProverId(bytes32)":"98f95e87","recordSignature(bytes32)":"9774ddd9","register(bytes,bytes,bytes)":"d4380353","requestExit(bytes32)":"34980aaa","setApprovalMode(uint8)":"dfccd46b","setCouncilMember(address,bool)":"8e94cd65","setFoundation(address)":"db3543f5","slash(bytes32,uint256,bytes32)":"706ee615","totalStaked()":"817b1cd2","transferOwnership(address)":"f2fde38b","unpause()":"3f4ba83a","voteForApproval(bytes32)":"a7fbb1bd","withdrawInsuranceFund(address,uint256)":"3296d983"},"id":53}