{"abi":[{"type":"constructor","inputs":[],"stateMutability":"nonpayable"},{"type":"receive","stateMutability":"payable"},{"type":"function","name":"CHALLENGE_BOND","inputs":[],"outputs":[{"name":"","type":"uint256","internalType":"uint256"}],"stateMutability":"view"},{"type":"function","name":"CHALLENGE_WINDOW","inputs":[],"outputs":[{"name":"","type":"uint256","internalType":"uint256"}],"stateMutability":"view"},{"type":"function","name":"MIN_PROVER_STAKE","inputs":[],"outputs":[{"name":"","type":"uint256","internalType":"uint256"}],"stateMutability":"view"},{"type":"function","name":"attestations","inputs":[{"name":"","type":"bytes32","internalType":"bytes32"}],"outputs":[{"name":"lockId","type":"bytes32","internalType":"bytes32"},{"name":"attestationHash","type":"bytes32","internalType":"bytes32"},{"name":"prover","type":"address","internalType":"address"},{"name":"recipient","type":"address","internalType":"address"},{"name":"amount","type":"uint256","internalType":"uint256"},{"name":"timestamp","type":"uint256","internalType":"uint256"},{"name":"nonce","type":"uint256","internalType":"uint256"},{"name":"executed","type":"bool","internalType":"bool"},{"name":"challenged","type":"bool","internalType":"bool"}],"stateMutability":"view"},{"type":"function","name":"canExecute","inputs":[{"name":"attestationId","type":"bytes32","internalType":"bytes32"}],"outputs":[{"name":"","type":"bool","internalType":"bool"}],"stateMutability":"view"},{"type":"function","name":"challenge","inputs":[{"name":"attestationId","type":"bytes32","internalType":"bytes32"}],"outputs":[],"stateMutability":"payable"},{"type":"function","name":"challengeWindowRemaining","inputs":[{"name":"attestationId","type":"bytes32","internalType":"bytes32"}],"outputs":[{"name":"","type":"uint256","internalType":"uint256"}],"stateMutability":"view"},{"type":"function","name":"executeRelease","inputs":[{"name":"attestationId","type":"bytes32","internalType":"bytes32"}],"outputs":[],"stateMutability":"nonpayable"},{"type":"function","name":"getAttestation","inputs":[{"name":"attestationId","type":"bytes32","internalType":"bytes32"}],"outputs":[{"name":"lockId","type":"bytes32","internalType":"bytes32"},{"name":"attestationHash","type":"bytes32","internalType":"bytes32"},{"name":"prover","type":"address","internalType":"address"},{"name":"recipient","type":"address","internalType":"address"},{"name":"amount","type":"uint256","internalType":"uint256"},{"name":"timestamp","type":"uint256","internalType":"uint256"},{"name":"executed","type":"bool","internalType":"bool"},{"name":"challenged","type":"bool","internalType":"bool"}],"stateMutability":"view"},{"type":"function","name":"getLock","inputs":[{"name":"lockId","type":"bytes32","internalType":"bytes32"}],"outputs":[{"name":"sender","type":"address","internalType":"address"},{"name":"amount","type":"uint256","internalType":"uint256"},{"name":"dilithiumPubKeyHash","type":"bytes32","internalType":"bytes32"},{"name":"timestamp","type":"uint256","internalType":"uint256"},{"name":"released","type":"bool","internalType":"bool"}],"stateMutability":"view"},{"type":"function","name":"getProverInfo","inputs":[{"name":"prover","type":"address","internalType":"address"}],"outputs":[{"name":"stake","type":"uint256","internalType":"uint256"},{"name":"successfulAttestations","type":"uint256","internalType":"uint256"},{"name":"slashedCount","type":"uint256","internalType":"uint256"},{"name":"active","type":"bool","internalType":"bool"}],"stateMutability":"view"},{"type":"function","name":"lock","inputs":[{"name":"dilithiumPubKeyHash","type":"bytes32","internalType":"bytes32"}],"outputs":[{"name":"lockId","type":"bytes32","internalType":"bytes32"}],"stateMutability":"payable"},{"type":"function","name":"locks","inputs":[{"name":"","type":"bytes32","internalType":"bytes32"}],"outputs":[{"name":"sender","type":"address","internalType":"address"},{"name":"amount","type":"uint256","internalType":"uint256"},{"name":"dilithiumPubKeyHash","type":"bytes32","internalType":"bytes32"},{"name":"timestamp","type":"uint256","internalType":"uint256"},{"name":"released","type":"bool","internalType":"bool"}],"stateMutability":"view"},{"type":"function","name":"nonceCounter","inputs":[],"outputs":[{"name":"","type":"uint256","internalType":"uint256"}],"stateMutability":"view"},{"type":"function","name":"owner","inputs":[],"outputs":[{"name":"","type":"address","internalType":"address"}],"stateMutability":"view"},{"type":"function","name":"pause","inputs":[],"outputs":[],"stateMutability":"nonpayable"},{"type":"function","name":"paused","inputs":[],"outputs":[{"name":"","type":"bool","internalType":"bool"}],"stateMutability":"view"},{"type":"function","name":"provers","inputs":[{"name":"","type":"address","internalType":"address"}],"outputs":[{"name":"stake","type":"uint256","internalType":"uint256"},{"name":"successfulAttestations","type":"uint256","internalType":"uint256"},{"name":"slashedCount","type":"uint256","internalType":"uint256"},{"name":"active","type":"bool","internalType":"bool"}],"stateMutability":"view"},{"type":"function","name":"registerProver","inputs":[],"outputs":[],"stateMutability":"payable"},{"type":"function","name":"resolveChallenge","inputs":[{"name":"attestationId","type":"bytes32","internalType":"bytes32"},{"name":"attestationValid","type":"bool","internalType":"bool"},{"name":"challenger","type":"address","internalType":"address"}],"outputs":[],"stateMutability":"nonpayable"},{"type":"function","name":"submitAttestation","inputs":[{"name":"lockId","type":"bytes32","internalType":"bytes32"},{"name":"attestationHash","type":"bytes32","internalType":"bytes32"},{"name":"recipient","type":"address","internalType":"address"},{"name":"nonce","type":"uint256","internalType":"uint256"},{"name":"proverSignature","type":"bytes","internalType":"bytes"}],"outputs":[{"name":"attestationId","type":"bytes32","internalType":"bytes32"}],"stateMutability":"nonpayable"},{"type":"function","name":"totalLocked","inputs":[],"outputs":[{"name":"","type":"uint256","internalType":"uint256"}],"stateMutability":"view"},{"type":"function","name":"transferOwnership","inputs":[{"name":"newOwner","type":"address","internalType":"address"}],"outputs":[],"stateMutability":"nonpayable"},{"type":"function","name":"unpause","inputs":[],"outputs":[],"stateMutability":"nonpayable"},{"type":"function","name":"usedNonces","inputs":[{"name":"","type":"uint256","internalType":"uint256"}],"outputs":[{"name":"","type":"bool","internalType":"bool"}],"stateMutability":"view"},{"type":"function","name":"withdrawStake","inputs":[{"name":"amount","type":"uint256","internalType":"uint256"}],"outputs":[],"stateMutability":"nonpayable"},{"type":"event","name":"AttestationSubmitted","inputs":[{"name":"lockId","type":"bytes32","indexed":true,"internalType":"bytes32"},{"name":"attestationHash","type":"bytes32","indexed":false,"internalType":"bytes32"},{"name":"prover","type":"address","indexed":true,"internalType":"address"},{"name":"timestamp","type":"uint256","indexed":false,"internalType":"uint256"}],"anonymous":false},{"type":"event","name":"ChallengeResolved","inputs":[{"name":"lockId","type":"bytes32","indexed":true,"internalType":"bytes32"},{"name":"attestationValid","type":"bool","indexed":false,"internalType":"bool"},{"name":"winner","type":"address","indexed":false,"internalType":"address"}],"anonymous":false},{"type":"event","name":"Challenged","inputs":[{"name":"lockId","type":"bytes32","indexed":true,"internalType":"bytes32"},{"name":"challenger","type":"address","indexed":true,"internalType":"address"},{"name":"challengeBond","type":"uint256","indexed":false,"internalType":"uint256"}],"anonymous":false},{"type":"event","name":"EmergencyPaused","inputs":[{"name":"by","type":"address","indexed":true,"internalType":"address"}],"anonymous":false},{"type":"event","name":"EmergencyUnpaused","inputs":[{"name":"by","type":"address","indexed":true,"internalType":"address"}],"anonymous":false},{"type":"event","name":"Locked","inputs":[{"name":"lockId","type":"bytes32","indexed":true,"internalType":"bytes32"},{"name":"sender","type":"address","indexed":true,"internalType":"address"},{"name":"amount","type":"uint256","indexed":false,"internalType":"uint256"},{"name":"dilithiumPubKeyHash","type":"bytes32","indexed":false,"internalType":"bytes32"},{"name":"nonce","type":"uint256","indexed":false,"internalType":"uint256"}],"anonymous":false},{"type":"event","name":"OwnershipTransferred","inputs":[{"name":"previousOwner","type":"address","indexed":true,"internalType":"address"},{"name":"newOwner","type":"address","indexed":true,"internalType":"address"}],"anonymous":false},{"type":"event","name":"ProverRegistered","inputs":[{"name":"prover","type":"address","indexed":true,"internalType":"address"},{"name":"stake","type":"uint256","indexed":false,"internalType":"uint256"}],"anonymous":false},{"type":"event","name":"ProverSlashed","inputs":[{"name":"prover","type":"address","indexed":true,"internalType":"address"},{"name":"amount","type":"uint256","indexed":false,"internalType":"uint256"},{"name":"reason","type":"bytes32","indexed":false,"internalType":"bytes32"}],"anonymous":false},{"type":"event","name":"Released","inputs":[{"name":"lockId","type":"bytes32","indexed":true,"internalType":"bytes32"},{"name":"recipient","type":"address","indexed":true,"internalType":"address"},{"name":"amount","type":"uint256","indexed":false,"internalType":"uint256"}],"anonymous":false},{"type":"error","name":"AlreadyChallenged","inputs":[]},{"type":"error","name":"AttestationNotFound","inputs":[]},{"type":"error","name":"ChallengeWindowExpired","inputs":[]},{"type":"error","name":"ChallengeWindowNotExpired","inputs":[]},{"type":"error","name":"InsufficientAmount","inputs":[]},{"type":"error","name":"InsufficientStake","inputs":[]},{"type":"error","name":"InvalidAttestation","inputs":[]},{"type":"error","name":"InvalidSignature","inputs":[]},{"type":"error","name":"LockAlreadyReleased","inputs":[]},{"type":"error","name":"LockNotFound","inputs":[]},{"type":"error","name":"NonceMismatch","inputs":[]},{"type":"error","name":"NotOwner","inputs":[]},{"type":"error","name":"NotRegisteredProver","inputs":[]},{"type":"error","name":"Paused","inputs":[]},{"type":"error","name":"TransferFailed","inputs":[]},{"type":"error","name":"ZeroAddress","inputs":[]}],"bytecode":{"object":"0x60808060405234610027575f80546001600160a01b03191633179055611611908161002c8239f35b5f80fdfe6080604052600436101561001a575b3615610018575f80fd5b005b5f3560e01c806301670ba9146101af5780631dec844b146101aa578063259c17e4146101aa57806325d5971f146101a55780633f4ba83a146101a05780634456251b1461019b5780634fab563714610196578063568914121461019157806357a1c9971461018c5780635c975abb146101875780636717e41c1461018257806375f069b61461017d5780637c09eb79146101785780638456cb59146101735780638da5cb5b1461016e578063940992a3146101695780639790ce7114610164578063a3112a641461015f578063a57882341461015a578063c799147b14610155578063cffd46dc14610150578063d62aad291461014b578063d6f27b5814610141578063de780bbd14610146578063ed5e8437146101415763f2fde38b0361000e57610ecb565b610e4c565b610eae565b610e2f565b610d2e565b610b8f565b610b6d565b610ad2565b610ab0565b610a06565b6109df565b610985565b61095f565b610622565b6105f3565b6105cf565b610555565b610538565b6104bf565b610497565b61042e565b610394565b610335565b60203660031901126103055760043560ff5f5460a01c166102f35734156102e1576102ca6102dd916002546101eb6101e682611067565b600255565b6040516bffffffffffffffffffffffff193360601b166020820190815234603483015260548201849052607482018390524260948084019190915282527f90b4652709ecf95c465dbc53abc979fad77829d2ccc7fe10e6e0815f9b4f30389161025560b482610fb4565b519020938492610298610266610fdb565b3381523460208201528660408201524260608201525f6080820152610293865f52600360205260405f2090565b611075565b6102ac6102a734600154610f86565b600155565b60408051348152602081019690965285015233939081906060820190565b0390a36040519081529081906020820190565b0390f35b604051632ca2f52b60e11b8152600490fd5b6040516313d0ff5960e31b8152600490fd5b5f80fd5b600435906001600160a01b038216820361030557565b604435906001600160a01b038216820361030557565b34610305576020366003190112610305576001600160a01b03610356610309565b165f526005602052608060405f2080549060018101549060ff6003600283015492015416916040519384526020840152604083015215156060820152f35b34610305576020366003190112610305576004355f903382526005602052604082209081549181831061041c578382819492670de0b6b3a76400006103db84968596610f93565b8083551061040b575b50335af16103f0611038565b50156103f95780f35b6040516312171d8360e31b8152600490fd5b600301805460ff191690555f6103e4565b6040516378de4a6960e11b8152600490fd5b34610305575f806003193601126104945780546001600160a01b03811633036104825760ff60a01b19168155337ff5cbf596165cc457b2cd92e8d8450827ee314968160a5696402d75766fc52caf8280a280f35b6040516330cd747160e01b8152600490fd5b80fd5b346103055760203660031901126103055760206104b5600435611472565b6040519015158152f35b5f8060031936011261049457670de0b6b3a7640000341061041c57338152600560205260408120805434810180911161053357815560038101805460ff19166001179055546040519081527f1b7cffd0daaca537ec54002d5b1c372929f3e280365cc073d009758777cfc0c860203392a280f35b610f4c565b34610305575f366003190112610305576020600154604051908152f35b346103055760a03660031901126103055761056e61031f565b60843567ffffffffffffffff8082116103055736602383011215610305578160040135908111610305573660248284010111610305576102dd9260246105bf930190606435906024356004356110d3565b6040519081529081906020820190565b34610305575f36600319011261030557602060ff5f5460a01c166040519015158152f35b34610305576020366003190112610305576004355f526006602052602060ff60405f2054166040519015158152f35b346103055760603660031901126103055760243580151581036103055761064761031f565b5f805490926001600160a01b0391821633036104825760049061067382355f52600460205260405f2090565b6002810180549095919491906001600160a01b03169182161561094e5760078501916106ab6106a7845460ff9060081c1690565b1590565b61093d576106c286545f52600360205260405f2090565b93156107f6575050805460ff191660011790556106e8908201805460ff19166001179055565b838080808486016106ff6102a78254600154610f93565b60038701546001600160a01b03169054905af161071a611038565b50156107e7578380808067016345785d8a000061073d885460018060a01b031690565b5af1610747611038565b50156107e757506107e16107c07f92380ceb902abc1fa2ff7d6bafebd3e32c266fbfd953d057aad8db65c014a9ef9260016107a461078b875460018060a01b031690565b6001600160a01b03165f90815260056020526040902090565b016107af8154611067565b90555493546001600160a01b031690565b60408051600181526001600160a01b03909216602083015290918291820190565b0390a280f35b6040516312171d8360e31b8152fd5b6001600160a01b03165f908152600560205260409020909592509050838301548154939190848111156109295750670de0b6b3a76400006108378580610f93565b808355600283016108488154611067565b905510610918575b50858080806108618760011c610f60565b895af161086c611038565b50156107e7575054604080519283527f9dea89737c0e920067c479d34e66640782205ab6e30f1b08963bd4c76ed0851860208401527f92380ceb902abc1fa2ff7d6bafebd3e32c266fbfd953d057aad8db65c014a9ef936107e19390926001600160a01b0316917f26571a9362e06ee3dfdfbf0657b6f0d98ff0dd9fe1446c69770dfe2e4b76361891a254604080515f81526001600160a01b0390951660208601529093918291820190565b600301805460ff191690555f610850565b610837670de0b6b3a7640000918096610f93565b60405163120a2e7760e01b81528590fd5b60405163120a2e7760e01b81528490fd5b3461030557602036600319011261030557602061097d6004356114c7565b604051908152f35b34610305575f806003193601126104945780546001600160a01b03811633036104825760ff60a01b1916600160a01b178155337fb8fad2fa0ed7a383e747c309ef2c4391d7b65592a48893e57ccc1fab707914568280a280f35b34610305575f366003190112610305575f546040516001600160a01b039091168152602090f35b3461030557602036600319011261030557600480355f9081526020828152604091829020805460018201546002830154600384015496840154600585015460068601546007909601548851958652968501939093526001600160a01b03918216968401969096529095166060820152608081019390935260a083019390935260c082019290925260ff808316151560e083015260089290921c909116151561010082015261012090f35b34610305575f36600319011261030557602060405167016345785d8a00008152f35b3461030557602036600319011261030557600480355f908152602082815260409182902080546001820154600283015460038401549684015460058501546007909501548751948552958401929092526001600160a01b0390811695830195909552939094166060850152608084019290925260a083019190915260ff808216151560c084015260089190911c16151560e082015261010090f35b34610305575f366003190112610305576020604051670de0b6b3a76400008152f35b34610305576020366003190112610305575f60ff815460a01c166102f3576004610bc281355f52600460205260405f2090565b6002810180549092916001600160a01b0391821615610d1d5760078101805460ff8116610cea5760081c60ff16610d0c57610c006005830154610f76565b4210610cfb5783610c1a83545f52600360205260405f2090565b0190610c27825460ff1690565b610cea57805460ff19166001179055610c48905b805460ff19166001179055565b6001610c7061078b85840196610c636102a789548654610f93565b546001600160a01b031690565b01610c7b8154611067565b9055600381019285808080610c96885460018060a01b031690565b8954905af1610ca3611038565b50156107e75750549154925460405190815292166001600160a01b0316917fc8fa66dff4b9073528c3f1bf21a8dc9a18fdf09847e88e96188bc953aef519f090602090a380f35b604051632c04416160e01b81528590fd5b604051632b25acb560e21b81528490fd5b60405163f1082a9360e01b81528490fd5b60405163120a2e7760e01b81528390fd5b60203660031901126103055760ff5f5460a01c166102f35767016345785d8a000034106102e157610d696004355f52600460205260405f2090565b60028101546001600160a01b031615610e1d5760078101805460ff8116610e0b5760081c60ff16610df957610da16005830154610f76565b421015610de757805461ff001916610100179055546040513481523391907f1ab79e3abd3f9f7b018d688e8481d3f1d0102198091b3826924989ce3af1445090602090a3005b604051632b0fbfc560e11b8152600490fd5b60405163f1082a9360e01b8152600490fd5b604051632c04416160e01b8152600490fd5b60405163120a2e7760e01b8152600490fd5b34610305575f36600319011261030557602060405162093a808152f35b34610305576020366003190112610305576004355f52600360205260a060405f20600180831b0381541690600181015490600281015460ff60046003840154930154169260405194855260208501526040840152606083015215156080820152f35b34610305575f366003190112610305576020600254604051908152f35b3461030557602036600319011261030557610ee4610309565b5f805490916001600160a01b0380831691338390036104825716918215610f3a576001600160a01b031916821783557f8be0079c531659141344cd1fd0a4f28419497f9722a3daafe3b4186f6b6457e08380a380f35b60405163d92e233d60e01b8152600490fd5b634e487b7160e01b5f52601160045260245ffd5b9067016345785d8a000091820180921161053357565b9062093a80820180921161053357565b9190820180921161053357565b9190820391821161053357565b634e487b7160e01b5f52604160045260245ffd5b90601f8019910116810190811067ffffffffffffffff821117610fd657604052565b610fa0565b6040519060a0820182811067ffffffffffffffff821117610fd657604052565b60405190610120820182811067ffffffffffffffff821117610fd657604052565b67ffffffffffffffff8111610fd657601f01601f191660200190565b3d15611062573d906110498261101c565b916110576040519384610fb4565b82523d5f602084013e565b606090565b5f1981146105335760010190565b815181546001600160a01b0319166001600160a01b03919091161781556110d1916004906080906020810151600185015560408101516002850155606081015160038501550151151591019060ff801983541691151516179055565b565b92949391909360ff5f5460a01c166102f357335f52600560205260409260ff6003855f200154161561137857611111855f52600360205260405f2090565b80546001600160a01b0392919083161561136757600481015460ff1661135657828516156113455761115561114e8a5f52600660205260405f2090565b5460ff1690565b611334579161122485949261121e898b6111b060018f9b9901549e8f8d519a8b9460208601968793916094959391855260208501526bffffffffffffffffffffffff199060601b166040840152605483015260748201520190565b03966111c4601f1998898101835282610fb4565b519020895161121181611205602082019485603c917f19457468657265756d205369676e6564204d6573736167653a0a3332000000008252601c8201520190565b03898101835282610fb4565b5190209133953691611389565b90611534565b1603611323578351602081018681526040820188905233606090811b6bffffffffffffffffffffffff19169083015260748201859052609492830182527f7b3419805e05380683ec7346681eb666e5d8e1e186147d0dd4c0b2fe155161bb959461131094610c3b94919361130293919261129e9082610fb4565b519020996112cd6112ad610ffb565b8a8152602081018c90523389820152926001600160a01b03166060840152565b60808201524260a08201528260c08201525f60e08201525f6101008201526112fd8a5f52600460205260405f2090565b6113bf565b5f52600660205260405f2090565b519283524260208401523392604090a390565b8351638baa579f60e01b8152600490fd5b855163e112ed9160e01b8152600490fd5b855163d92e233d60e01b8152600490fd5b8551632c04416160e01b8152600490fd5b8551636086ee6f60e11b8152600490fd5b835163fe3baf9160e01b8152600490fd5b9291926113958261101c565b916113a36040519384610fb4565b829481845281830111610305578281602093845f960137010152565b815181556020820151600182015560408201516002820180546001600160a01b039283166001600160a01b03199182161790915560608401516003840180549190931691161790556080820151600482015560a0820151600582015560c0820151600682015560e08201516110d19260079092019161145c916101009190611455901515859060ff801983541691151516179055565b0151151590565b815461ff00191690151560081b61ff0016179055565b5f90815260046020526040902060028101546001600160a01b0316156114bc57600781015460ff81166114c15760081c60ff166114bc5760056114b6910154610f76565b42101590565b505f90565b50505f90565b5f90815260046020526040902060028101546001600160a01b0316156114bc576005015462093a8080820191828111610533578242101561151057429003019081116105335790565b5050505f90565b60ff601b9116019060ff821161053357565b6040513d5f823e3d90fd5b9060418151036114c1575f9160208201519260606040840151930151901a90601b82106115cb575b60ff8216601b81141590816115bf575b506115b75761159f5f93602095604051948594859094939260ff6060936080840197845216602083015260408201520152565b838052039060015afa156115b2575f5190565b611529565b505050505f90565b601c915014155f61156c565b906115d590611517565b9061155c56fea26469706673582212205aeda0901bac5825980f4baa4347d32811a093cf35353dd184506e185627c6a364736f6c63430008140033","linkReferences":{}},"methodIdentifiers":{"CHALLENGE_BOND()":"9790ce71","CHALLENGE_WINDOW()":"d62aad29","MIN_PROVER_STAKE()":"a5788234","attestations(bytes32)":"940992a3","canExecute(bytes32)":"4456251b","challenge(bytes32)":"cffd46dc","challengeWindowRemaining(bytes32)":"7c09eb79","executeRelease(bytes32)":"c799147b","getAttestation(bytes32)":"a3112a64","getLock(bytes32)":"d6f27b58","getProverInfo(address)":"259c17e4","lock(bytes32)":"01670ba9","locks(bytes32)":"ed5e8437","nonceCounter()":"de780bbd","owner()":"8da5cb5b","pause()":"8456cb59","paused()":"5c975abb","provers(address)":"1dec844b","registerProver()":"4fab5637","resolveChallenge(bytes32,bool,address)":"75f069b6","submitAttestation(bytes32,bytes32,address,uint256,bytes)":"57a1c997","totalLocked()":"56891412","transferOwnership(address)":"f2fde38b","unpause()":"3f4ba83a","usedNonces(uint256)":"6717e41c","withdrawStake(uint256)":"25d5971f"},"id":0}