{"abi":[{"type":"constructor","inputs":[{"name":"_vkHash","type":"bytes32","internalType":"bytes32"}],"stateMutability":"nonpayable"},{"type":"function","name":"getVerificationKeyHash","inputs":[],"outputs":[{"name":"","type":"bytes32","internalType":"bytes32"}],"stateMutability":"view"},{"type":"function","name":"getVerifierType","inputs":[],"outputs":[{"name":"","type":"string","internalType":"string"}],"stateMutability":"pure"},{"type":"function","name":"isQuantumResistant","inputs":[],"outputs":[{"name":"","type":"bool","internalType":"bool"}],"stateMutability":"pure"},{"type":"function","name":"verifyProof","inputs":[{"name":"proof","type":"bytes","internalType":"bytes"},{"name":"publicInputs","type":"uint256[]","internalType":"uint256[]"}],"outputs":[{"name":"valid","type":"bool","internalType":"bool"}],"stateMutability":"view"},{"type":"function","name":"vkHash","inputs":[],"outputs":[{"name":"","type":"bytes32","internalType":"bytes32"}],"stateMutability":"view"},{"type":"error","name":"InvalidProofLength","inputs":[]},{"type":"error","name":"PairingFailed","inputs":[]}],"bytecode":{"object":"0x60a060405234801561000f575f80fd5b5060405161037238038061037283398101604081905261002e91610036565b60805261004d565b5f60208284031215610046575f80fd5b5051919050565b60805161030861006a5f395f818160af015260e701526103085ff3fe608060405234801561000f575f80fd5b5060043610610055575f3560e01c80631e8e1e13146100595780633521162b146100815780634fe840f5146100aa5780636f173079146100df578063937f6a10146100e5575b5f80fd5b61006c6100673660046101a9565b61010b565b60405190151581526020015b60405180910390f35b604080518082018252600781526633b937ba34189b60c91b602082015290516100789190610263565b6100d17f000000000000000000000000000000000000000000000000000000000000000081565b604051908152602001610078565b5f61006c565b7f00000000000000000000000000000000000000000000000000000000000000006100d1565b5f61010084101561012f576040516313717da960e21b815260040160405180910390fd5b61013b85858585610146565b90505b949350505050565b5f61010084101561015857505f61013e565b600882101561016857505f61013e565b5f5b600881101561019e5760208102860135801561018b5760019250505061013e565b5080610196816102ae565b91505061016a565b505f95945050505050565b5f805f80604085870312156101bc575f80fd5b843567ffffffffffffffff808211156101d3575f80fd5b818701915087601f8301126101e6575f80fd5b8135818111156101f4575f80fd5b886020828501011115610205575f80fd5b60209283019650945090860135908082111561021f575f80fd5b818701915087601f830112610232575f80fd5b813581811115610240575f80fd5b8860208260051b8501011115610254575f80fd5b95989497505060200194505050565b5f6020808352835180828501525f5b8181101561028e57858101830151858201604001528201610272565b505f604082860101526040601f19601f8301168501019250505092915050565b5f600182016102cb57634e487b7160e01b5f52601160045260245ffd5b506001019056fea26469706673582212203dfb52aedb7139a885cafc5c3e4d71b0cc75525e9ee381cce0f7ed539ac74b0064736f6c63430008140033","linkReferences":{}},"methodIdentifiers":{"getVerificationKeyHash()":"937f6a10","getVerifierType()":"3521162b","isQuantumResistant()":"6f173079","verifyProof(bytes,uint256[])":"1e8e1e13","vkHash()":"4fe840f5"},"id":2}