{"abi":[{"type":"constructor","inputs":[{"name":"_coreVerifier","type":"address","internalType":"address"}],"stateMutability":"nonpayable"},{"type":"function","name":"MAX_BATCH","inputs":[],"outputs":[{"name":"","type":"uint256","internalType":"uint256"}],"stateMutability":"view"},{"type":"function","name":"MAX_BATCH_SIZE","inputs":[],"outputs":[{"name":"","type":"uint256","internalType":"uint256"}],"stateMutability":"pure"},{"type":"function","name":"coreVerifier","inputs":[],"outputs":[{"name":"","type":"address","internalType":"contract CoreVerifier"}],"stateMutability":"view"},{"type":"function","name":"getCoreVerifier","inputs":[],"outputs":[{"name":"","type":"address","internalType":"address"}],"stateMutability":"view"},{"type":"function","name":"verifyBatch","inputs":[{"name":"items","type":"tuple[]","internalType":"struct ICoreBatch.BatchItem[]","components":[{"name":"message","type":"bytes32","internalType":"bytes32"},{"name":"signature","type":"bytes","internalType":"bytes"},{"name":"publicKey","type":"bytes","internalType":"bytes"}]}],"outputs":[{"name":"result","type":"tuple","internalType":"struct ICoreBatch.BatchResult","components":[{"name":"totalCount","type":"uint256","internalType":"uint256"},{"name":"validCount","type":"uint256","internalType":"uint256"},{"name":"totalGasUsed","type":"uint256","internalType":"uint256"},{"name":"results","type":"bool[]","internalType":"bool[]"}]}],"stateMutability":"nonpayable"},{"type":"function","name":"verifyBatchCount","inputs":[{"name":"items","type":"tuple[]","internalType":"struct ICoreBatch.BatchItem[]","components":[{"name":"message","type":"bytes32","internalType":"bytes32"},{"name":"signature","type":"bytes","internalType":"bytes"},{"name":"publicKey","type":"bytes","internalType":"bytes"}]}],"outputs":[{"name":"validCount","type":"uint256","internalType":"uint256"}],"stateMutability":"view"},{"type":"function","name":"verifyBatchWithThreshold","inputs":[{"name":"items","type":"tuple[]","internalType":"struct ICoreBatch.BatchItem[]","components":[{"name":"message","type":"bytes32","internalType":"bytes32"},{"name":"signature","type":"bytes","internalType":"bytes"},{"name":"publicKey","type":"bytes","internalType":"bytes"}]},{"name":"threshold","type":"uint256","internalType":"uint256"}],"outputs":[{"name":"passed","type":"bool","internalType":"bool"},{"name":"validCount","type":"uint256","internalType":"uint256"}],"stateMutability":"nonpayable"},{"type":"event","name":"BatchVerified","inputs":[{"name":"batchSize","type":"uint256","indexed":true,"internalType":"uint256"},{"name":"validCount","type":"uint256","indexed":false,"internalType":"uint256"},{"name":"totalGasUsed","type":"uint256","indexed":false,"internalType":"uint256"}],"anonymous":false},{"type":"error","name":"ArrayLengthMismatch","inputs":[]},{"type":"error","name":"BatchTooLarge","inputs":[{"name":"provided","type":"uint256","internalType":"uint256"},{"name":"maximum","type":"uint256","internalType":"uint256"}]},{"type":"error","name":"EmptyBatch","inputs":[]}],"bytecode":{"object":"0x60a0346100c157601f610a3038819003918201601f19168301916001600160401b038311848410176100c6578084926020946040528339810103126100c157516001600160a01b038116908190036100c157801561008d5760805260405161095390816100dd823960805181818160a401528181610118015281816102d7015281816103b2015261075e0152f35b60405162461bcd60e51b815260206004820152600c60248201526b5a65726f206164647265737360a01b6044820152606490fd5b600080fd5b634e487b7160e01b600052604160045260246000fdfe608060408181526004918236101561001657600080fd5b600092833560e01c9182630e9f49ba146103065750816321b11cb2146102c25781633fb1067d14610272578163950bff9f14610256578163bc1cd6dc146100d357508063c62db08d146100905763cfdbf2541461007257600080fd5b3461008c578160031936011261008c5760209051600a8152f35b5080fd5b503461008c578160031936011261008c57517f00000000000000000000000000000000000000000000000000000000000000006001600160a01b03168152602090f35b83833461008c576020928360031936011261025257803567ffffffffffffffff811161024e5761010690369083016105a4565b8491811561023e57600a8211610220577f00000000000000000000000000000000000000000000000000000000000000006001600160a01b0316835b8381106101525788888851908152f35b6101af8961016183878761064f565b358861017a610171868a8a61064f565b84810190610687565b8c61019561018c898d8d9a969a61064f565b82810190610687565b9290915197889687966346b4c33960e01b885287016106f3565b0381865afa8691816101f1575b506101d1575b506101cc9061062a565b610142565b6101dc575b896101c2565b966101e96101cc9161062a565b9790506101d6565b6102129192508b3d8d11610219575b61020a81836105da565b8101906106ba565b908b6101bc565b503d610200565b845163bb1cb70b60e01b8152808501839052600a6024820152604490fd5b845163c2e5347d60e01b81528490fd5b8380fd5b8280fd5b50503461008c578160031936011261008c5760209051600a8152f35b905082346102bf57826003193601126102bf5781359067ffffffffffffffff82116102bf57506102b1916102a8913691016105a4565b60243591610743565b825191151582526020820152f35b80fd5b50503461008c578160031936011261008c57517f00000000000000000000000000000000000000000000000000000000000000006001600160a01b03168152602090f35b84908434610252576020908160031936011261024e5767ffffffffffffffff9480358681116105a05761033c90369083016105a4565b92909660808601908682109082111761058d57815285855283850196868852818601928784526060870194606086525a92811561057d57600a821161055f5781899796959a98995261038d82610612565b6103998b5191826105da565b828152601f196103a884610612565b01368b83013786527f00000000000000000000000000000000000000000000000000000000000000006001600160a01b0316885b8381106104865750505050506103f6909796975a90610736565b8082527f6cedc2bc02d0738da2fff66f7bc5753bdbb34f5aaf4f9c2a71c4d52b661aed0788855192895190825191825289820152a2865196879686885260a088019451878901525190870152516060860152519260808086015283518092528060c086019401925b82811061046d57505050500390f35b835115158552869550938101939281019260010161045e565b80838b8d8f9a9b9c9e9d9f896104e88a86936104ce61018c8a6104c66104bd8261050d9f6104b68991828e61064f565b359b61064f565b8a810190610687565b95909b61064f565b9290915198899687966346b4c33960e01b885287016106f3565b0381885afa909181610540575b5061051957508c610507828c51610722565b5261062a565b9a98999796959a6103dc565b610524828c51610722565b81151590521561062a578d610539815161062a565b905261062a565b6105589192508d803d106102195761020a81836105da565b90386104f5565b845163bb1cb70b60e01b8152808401839052600a6024820152604490fd5b845163c2e5347d60e01b81528390fd5b634e487b7160e01b875260418352602487fd5b8580fd5b9181601f840112156105d55782359167ffffffffffffffff83116105d5576020808501948460051b0101116105d557565b600080fd5b90601f8019910116810190811067ffffffffffffffff8211176105fc57604052565b634e487b7160e01b600052604160045260246000fd5b67ffffffffffffffff81116105fc5760051b60200190565b60001981146106395760010190565b634e487b7160e01b600052601160045260246000fd5b91908110156106715760051b81013590605e19813603018212156105d5570190565b634e487b7160e01b600052603260045260246000fd5b903590601e19813603018212156105d5570180359067ffffffffffffffff82116105d5576020019181360383136105d557565b908160209103126105d5575180151581036105d55790565b908060209392818452848401376000828201840152601f01601f1916010190565b939161071f95936107119286526060602087015260608601916106d2565b9260408185039101526106d2565b90565b80518210156106715760209160051b010190565b9190820391821161063957565b91929060009260005a91831561090b57600a84116108eb57907f00000000000000000000000000000000000000000000000000000000000000006001600160a01b031690805b8581106107d5575050505060406107c27f6cedc2bc02d0738da2fff66f7bc5753bdbb34f5aaf4f9c2a71c4d52b661aed07925a90610736565b95851015958151908682526020820152a2565b6107fd6107e382888761064f565b356107ef83898861064f565b602092818480930190610687565b919061080a868c8b61064f565b9361083861081d60409687810190610687565b90875196879586956346b4c33960e01b8752600487016106f3565b0381895afa8591816108cc575b5061085c575b5050506108579061062a565b610789565b610867575b8061084b565b90986108729061062a565b9081998b8310156108835750610861565b95509592509850507f6cedc2bc02d0738da2fff66f7bc5753bdbb34f5aaf4f9c2a71c4d52b661aed07949596506108bc91505a90610736565b825191878352820152a260019190565b6108e4919250843d86116102195761020a81836105da565b9038610845565b60405163bb1cb70b60e01b815260048101859052600a6024820152604490fd5b60405163c2e5347d60e01b8152600490fdfea26469706673582212209ca8399c54803be67cc1bb88533827526248be5c15e3cc30af632f49de6c0a5964736f6c63430008140033","linkReferences":{}},"methodIdentifiers":{"MAX_BATCH()":"950bff9f","MAX_BATCH_SIZE()":"cfdbf254","coreVerifier()":"c62db08d","getCoreVerifier()":"21b11cb2","verifyBatch((bytes32,bytes,bytes)[])":"0e9f49ba","verifyBatchCount((bytes32,bytes,bytes)[])":"bc1cd6dc","verifyBatchWithThreshold((bytes32,bytes,bytes)[],uint256)":"3fb1067d"},"id":37}