{"abi":[{"type":"constructor","inputs":[{"name":"_l1Vault","type":"address","internalType":"address"}],"stateMutability":"nonpayable"},{"type":"function","name":"CALLBACK_GAS_LIMIT","inputs":[],"outputs":[{"name":"","type":"uint256","internalType":"uint256"}],"stateMutability":"view"},{"type":"function","name":"NUM_WORDS","inputs":[],"outputs":[{"name":"","type":"uint32","internalType":"uint32"}],"stateMutability":"view"},{"type":"function","name":"REQUEST_CONFIRMATIONS","inputs":[],"outputs":[{"name":"","type":"uint16","internalType":"uint16"}],"stateMutability":"view"},{"type":"function","name":"VRF_TIMEOUT","inputs":[],"outputs":[{"name":"","type":"uint256","internalType":"uint256"}],"stateMutability":"view"},{"type":"function","name":"addProver","inputs":[{"name":"prover","type":"address","internalType":"address"},{"name":"stake","type":"uint256","internalType":"uint256"}],"outputs":[],"stateMutability":"nonpayable"},{"type":"function","name":"checkTimeout","inputs":[{"name":"unlockRequestId","type":"bytes32","internalType":"bytes32"}],"outputs":[{"name":"isTimedOut","type":"bool","internalType":"bool"},{"name":"timeRemaining","type":"uint256","internalType":"uint256"}],"stateMutability":"view"},{"type":"function","name":"getAllProvers","inputs":[],"outputs":[{"name":"","type":"tuple[]","internalType":"struct ProverSelector.ProverInfo[]","components":[{"name":"prover","type":"address","internalType":"address"},{"name":"stake","type":"uint256","internalType":"uint256"},{"name":"active","type":"bool","internalType":"bool"}]}],"stateMutability":"view"},{"type":"function","name":"getProverByIndex","inputs":[{"name":"index","type":"uint256","internalType":"uint256"}],"outputs":[{"name":"","type":"tuple","internalType":"struct ProverSelector.ProverInfo","components":[{"name":"prover","type":"address","internalType":"address"},{"name":"stake","type":"uint256","internalType":"uint256"},{"name":"active","type":"bool","internalType":"bool"}]}],"stateMutability":"view"},{"type":"function","name":"getProverPoolLength","inputs":[],"outputs":[{"name":"","type":"uint256","internalType":"uint256"}],"stateMutability":"view"},{"type":"function","name":"getSelectedProver","inputs":[{"name":"unlockRequestId","type":"bytes32","internalType":"bytes32"}],"outputs":[{"name":"prover","type":"address","internalType":"address"},{"name":"randomValue","type":"uint256","internalType":"uint256"}],"stateMutability":"view"},{"type":"function","name":"getVRFRequest","inputs":[{"name":"requestId","type":"uint256","internalType":"uint256"}],"outputs":[{"name":"","type":"tuple","internalType":"struct VRFConsumer.VRFRequest","components":[{"name":"unlockRequestId","type":"bytes32","internalType":"bytes32"},{"name":"requestedAt","type":"uint256","internalType":"uint256"},{"name":"randomValue","type":"uint256","internalType":"uint256"},{"name":"selectedProver","type":"address","internalType":"address"},{"name":"fulfilled","type":"bool","internalType":"bool"}]}],"stateMutability":"view"},{"type":"function","name":"isProverSelected","inputs":[{"name":"unlockRequestId","type":"bytes32","internalType":"bytes32"}],"outputs":[{"name":"ready","type":"bool","internalType":"bool"}],"stateMutability":"view"},{"type":"function","name":"keyHash","inputs":[],"outputs":[{"name":"","type":"bytes32","internalType":"bytes32"}],"stateMutability":"view"},{"type":"function","name":"l1Vault","inputs":[],"outputs":[{"name":"","type":"address","internalType":"address"}],"stateMutability":"view"},{"type":"function","name":"mockFulfillRandomWords","inputs":[{"name":"requestId","type":"uint256","internalType":"uint256"},{"name":"randomValue","type":"uint256","internalType":"uint256"}],"outputs":[],"stateMutability":"nonpayable"},{"type":"function","name":"owner","inputs":[],"outputs":[{"name":"","type":"address","internalType":"address"}],"stateMutability":"view"},{"type":"function","name":"proverPool","inputs":[{"name":"","type":"uint256","internalType":"uint256"}],"outputs":[{"name":"prover","type":"address","internalType":"address"},{"name":"stake","type":"uint256","internalType":"uint256"},{"name":"active","type":"bool","internalType":"bool"}],"stateMutability":"view"},{"type":"function","name":"rawFulfillRandomWords","inputs":[{"name":"requestId","type":"uint256","internalType":"uint256"},{"name":"randomWords","type":"uint256[]","internalType":"uint256[]"}],"outputs":[],"stateMutability":"nonpayable"},{"type":"function","name":"removeProver","inputs":[{"name":"prover","type":"address","internalType":"address"}],"outputs":[],"stateMutability":"nonpayable"},{"type":"function","name":"requestProverSelection","inputs":[{"name":"unlockRequestId","type":"bytes32","internalType":"bytes32"}],"outputs":[{"name":"requestId","type":"uint256","internalType":"uint256"}],"stateMutability":"nonpayable"},{"type":"function","name":"setL1Vault","inputs":[{"name":"newL1Vault","type":"address","internalType":"address"}],"outputs":[],"stateMutability":"nonpayable"},{"type":"function","name":"setVRFConfig","inputs":[{"name":"_coordinator","type":"address","internalType":"address"},{"name":"_keyHash","type":"bytes32","internalType":"bytes32"},{"name":"_subscriptionId","type":"uint64","internalType":"uint64"}],"outputs":[],"stateMutability":"nonpayable"},{"type":"function","name":"subscriptionId","inputs":[],"outputs":[{"name":"","type":"uint64","internalType":"uint64"}],"stateMutability":"view"},{"type":"function","name":"transferOwnership","inputs":[{"name":"newOwner","type":"address","internalType":"address"}],"outputs":[],"stateMutability":"nonpayable"},{"type":"function","name":"triggerFallback","inputs":[{"name":"unlockRequestId","type":"bytes32","internalType":"bytes32"}],"outputs":[{"name":"prover","type":"address","internalType":"address"}],"stateMutability":"nonpayable"},{"type":"function","name":"unlockToVRFRequest","inputs":[{"name":"","type":"bytes32","internalType":"bytes32"}],"outputs":[{"name":"","type":"uint256","internalType":"uint256"}],"stateMutability":"view"},{"type":"function","name":"updateProverStake","inputs":[{"name":"prover","type":"address","internalType":"address"},{"name":"newStake","type":"uint256","internalType":"uint256"}],"outputs":[],"stateMutability":"nonpayable"},{"type":"function","name":"vrfCoordinator","inputs":[],"outputs":[{"name":"","type":"address","internalType":"address"}],"stateMutability":"view"},{"type":"function","name":"vrfRequests","inputs":[{"name":"","type":"uint256","internalType":"uint256"}],"outputs":[{"name":"unlockRequestId","type":"bytes32","internalType":"bytes32"},{"name":"requestedAt","type":"uint256","internalType":"uint256"},{"name":"randomValue","type":"uint256","internalType":"uint256"},{"name":"selectedProver","type":"address","internalType":"address"},{"name":"fulfilled","type":"bool","internalType":"bool"}],"stateMutability":"view"},{"type":"event","name":"FallbackProverSelected","inputs":[{"name":"unlockRequestId","type":"bytes32","indexed":true,"internalType":"bytes32"},{"name":"prover","type":"address","indexed":true,"internalType":"address"}],"anonymous":false},{"type":"event","name":"L1VaultUpdated","inputs":[{"name":"oldVault","type":"address","indexed":true,"internalType":"address"},{"name":"newVault","type":"address","indexed":true,"internalType":"address"}],"anonymous":false},{"type":"event","name":"OwnershipTransferred","inputs":[{"name":"previousOwner","type":"address","indexed":true,"internalType":"address"},{"name":"newOwner","type":"address","indexed":true,"internalType":"address"}],"anonymous":false},{"type":"event","name":"ProverAdded","inputs":[{"name":"prover","type":"address","indexed":true,"internalType":"address"},{"name":"stake","type":"uint256","indexed":false,"internalType":"uint256"}],"anonymous":false},{"type":"event","name":"ProverRemoved","inputs":[{"name":"prover","type":"address","indexed":true,"internalType":"address"}],"anonymous":false},{"type":"event","name":"ProverSelected","inputs":[{"name":"unlockRequestId","type":"bytes32","indexed":true,"internalType":"bytes32"},{"name":"prover","type":"address","indexed":true,"internalType":"address"},{"name":"randomValue","type":"uint256","indexed":false,"internalType":"uint256"}],"anonymous":false},{"type":"event","name":"VRFConfigUpdated","inputs":[{"name":"coordinator","type":"address","indexed":false,"internalType":"address"},{"name":"keyHash","type":"bytes32","indexed":false,"internalType":"bytes32"},{"name":"subscriptionId","type":"uint64","indexed":false,"internalType":"uint64"}],"anonymous":false},{"type":"event","name":"VRFReceived","inputs":[{"name":"requestId","type":"uint256","indexed":true,"internalType":"uint256"},{"name":"randomValue","type":"uint256","indexed":false,"internalType":"uint256"}],"anonymous":false},{"type":"event","name":"VRFRequested","inputs":[{"name":"requestId","type":"uint256","indexed":true,"internalType":"uint256"},{"name":"unlockRequestId","type":"bytes32","indexed":true,"internalType":"bytes32"}],"anonymous":false},{"type":"error","name":"InvalidCallback","inputs":[]},{"type":"error","name":"InvalidRandomValue","inputs":[]},{"type":"error","name":"NoActiveProvers","inputs":[]},{"type":"error","name":"NotL1Vault","inputs":[]},{"type":"error","name":"NotOwner","inputs":[]},{"type":"error","name":"NotVRFCoordinator","inputs":[]},{"type":"error","name":"ProverAlreadyExists","inputs":[]},{"type":"error","name":"RequestAlreadyFulfilled","inputs":[]},{"type":"error","name":"RequestNotFound","inputs":[]},{"type":"error","name":"TimeoutNotReached","inputs":[]},{"type":"error","name":"UnauthorizedCallback","inputs":[]},{"type":"error","name":"VRFNotReady","inputs":[]},{"type":"error","name":"VRFRequestFailed","inputs":[]},{"type":"error","name":"VRFTimeout","inputs":[]},{"type":"error","name":"ZeroAddress","inputs":[]}],"bytecode":{"object":"0x60803461009757601f61157338819003918201601f19168301916001600160401b0383118484101761009c5780849260209460405283398101031261009757516001600160a01b038116908190036100975780156100855760018060a01b031933816000541617600055600154161760015560016002556040516114c090816100b38239f35b60405163d92e233d60e01b8152600490fd5b600080fd5b634e487b7160e01b600052604160045260246000fdfe608060408181526004918236101561001657600080fd5b600092833560e01c918263012df81714610cce5750816309c1ba2e14610ca55781631a1d925214610c475781631fe543e314610b5c57816333d608f114610b3e578163354731ff14610b0b5781634393b0e514610ade57816348ceaa5914610a5d5781634a3f00f71461099657816354fa453c1461090a57816361728f39146108eb57816367f082b0146108cf57816372cf6e34146108b357816372d369a7146107be578163811cbeb71461079f57816381fa4db1146107785781638da5cb5b14610750578163967de556146105e7578163a3e56fa8146105be578163a65661ef14610595578163b571d3dd1461054c578163c10672f014610517578163c1e582ba14610464578163d228ad251461040c578163d72d1d791461039d578163f12084cd14610242578163f2fde38b146101af578163f491c80c14610183575063f4d1c5f61461016457600080fd5b3461017f578160031936011261017f576020905161012c8152f35b5080fd5b8284346101ac5760203660031901126101ac57506101a360209235610e6b565b90519015158152f35b80fd5b90503461023e57602036600319011261023e576101ca610d15565b83546001600160a01b038082169391923385900361022e57169384156102215750506001600160a01b031916821783557f8be0079c531659141344cd1fd0a4f28419497f9722a3daafe3b4186f6b6457e08380a380f35b5163d92e233d60e01b8152fd5b85516330cd747160e01b81528390fd5b8280fd5b83833461017f57602036600319011261017f5782358083528360205281832054801561038d578352600360205281832090600382019283549260ff8460a01c1661037d57600181015461012c810180911161036a57421061035a578151602081019044825242848201528460608201524360808201523360601b60a08201526094815260c0810181811067ffffffffffffffff821117610347578452519020602097507f20ec7cf7912c9b857ee48087b73897b95592335fd89fc4f4c5372f1719eed6d092919060026103148261118d565b9201556001600160a81b03199094166001600160a01b03909416938417600160a01b179094559251939192839280a38152f35b634e487b7160e01b895260418a52602489fd5b81516326c015ab60e21b81528790fd5b634e487b7160e01b875260118852602487fd5b815163533d99dd60e01b81528790fd5b8251632589d98f60e11b81528590fd5b90503461023e57602036600319011261023e576103e06103da61040a926060958580516103c981610d62565b828152826020820152015235610db8565b50611060565b915182516001600160a01b0316815260208084015190820152604092830151151592810192909252565bf35b90503461023e57602036600319011261023e5735916005548310156101ac5750610437606092610db8565b509060018060a01b038254169160ff60026001830154920154169082519384526020840152151590820152f35b90503461023e57602036600319011261023e5782829160a0946080845161048a81610d30565b8281528260208201528286820152826060820152015235815260036020522081516104b481610d30565b815492838252600183015490602083019182526003600285015494828501958652015493606084019260ff60806001808b1b039687891687520196891c161515865282519687525160208701525190850152511660608301525115156080820152f35b905082346101ac5760203660031901126101ac57506105369035610e2e565b82516001600160a01b0390921682526020820152f35b90503461023e57602036600319011261023e57610567610d15565b83549092906001600160a01b03163303610588578361058584610f9a565b80f35b516330cd747160e01b8152fd5b50503461017f578160031936011261017f5760015490516001600160a01b039091168152602090f35b50503461017f578160031936011261017f5760065490516001600160a01b039091168152602090f35b9190503461023e578060031936011261023e57610602610d15565b835460243592916001600160a01b0391821633036107405781169384156107325760055491865b838110610701575083519061063d82610d62565b86825260208201918683528581019460018652680100000000000000008110156106ee578060016106719201600555610db8565b9490946106dc5750927f25343d56d3f85e154bd7f16fac360991caeb9a82123cf0ff11f6b8a731d46d109694926002926020979551166bffffffffffffffffffffffff60a01b835416178255516001820155019051151560ff8019835416911617905551908152a280f35b634e487b7160e01b8a52899052602489fd5b634e487b7160e01b8a526041855260248afd5b868261070c83610db8565b505416146107225761071d90610e09565b610629565b84516312db1b9960e01b81528390fd5b825163d92e233d60e01b8152fd5b82516330cd747160e01b81528590fd5b50503461017f578160031936011261017f57905490516001600160a01b039091168152602090f35b90503461023e57602036600319011261023e57602092818392358252845220549051908152f35b50503461017f578160031936011261017f576020906005549051908152f35b8391503461017f57602036600319011261017f576001548135906001600160a01b0390811633036108a3577ff7617d06180c24c92bad8c8436c3ae97409a09e1f5655da6c0807f50c5f9674860209560025494859361081c85610e09565b6002558783519161082c83610d30565b87835260038b84019342855286810184815260608201958587528860808401968088528c8152602086905220925183555160018301555160028201550192511682549160ff60a01b9051151560a01b16916affffffffffffffffffffff60a81b161717905584875287528281872055519480a38152f35b8451632c2e97a760e21b81528390fd5b50503461017f578160031936011261017f576020905160018152f35b50503461017f578160031936011261017f576020905160038152f35b50503461017f578160031936011261017f576020906007549051908152f35b90503461023e57602036600319011261023e57610925610d15565b83546001600160a01b0392919083163303610987578216928315610221575050600154826bffffffffffffffffffffffff60a01b821617600155167fa0b0e8a015b8fe2e644e3cefb3e301a268bad6a0004222a2c372980616bc07178380a380f35b5082516330cd747160e01b8152fd5b9190503461023e57606036600319011261023e576109b2610d15565b906024356044359267ffffffffffffffff8416809403610a595785546001600160a01b03919082163303610a4957169384156107325750600680546001600160a01b0319168517905560078190556008805467ffffffffffffffff191684179055815193845260208401528201527f3f8923be84a8d6fb9294531d8d055ae4fa8fd1b74ab82bd91d63b0288702f54690606090a180f35b83516330cd747160e01b81528690fd5b8580fd5b8284346101ac57806003193601126101ac5790610a78611096565b81519160208080850192818652845180945285019301945b828110610a9d5784840385f35b90919282606082610acf6001948a516040809160018060a01b0381511684526020810151602085015201511515910152565b01960191019492919094610a90565b905082346101ac5760203660031901126101ac5750610afd903561110d565b825191151582526020820152f35b9190503461023e578060031936011261023e5782546001600160a01b031633036105885750610585906024359035610ec0565b50503461017f578160031936011261017f576020905162030d408152f35b9190503461023e578060031936011261023e5760243567ffffffffffffffff8111610c435736602382011215610c43578083013591610b9a83610da0565b91610ba782519384610d7e565b8383526020908184016024819660051b83010191368311610c3f57602401905b828210610c305750506006546001600160a01b03168015159250905081610c25575b50610c1357505115610c0057516105859135610ec0565b634e487b7160e01b835260328252602483fd5b516001626d5f8b60e01b031981528390fd5b905033141538610be9565b81358152908301908301610bc7565b8880fd5b8380fd5b90503461023e57602036600319011261023e578160a09360ff9235815260036020522091825492600181015491600360028301549201549281519586526020860152840152600180851b0381166060840152831c1615156080820152f35b50503461017f578160031936011261017f5760209067ffffffffffffffff600854169051908152f35b84918434610c435736600319011261023e57610ce8610d15565b83549092906001600160a01b03163303610d09578361058560243585611014565b6330cd747160e01b8152fd5b600435906001600160a01b0382168203610d2b57565b600080fd5b60a0810190811067ffffffffffffffff821117610d4c57604052565b634e487b7160e01b600052604160045260246000fd5b6060810190811067ffffffffffffffff821117610d4c57604052565b90601f8019910116810190811067ffffffffffffffff821117610d4c57604052565b67ffffffffffffffff8111610d4c5760051b60200190565b600554811015610df3576003906005600052027f036b6384b5eca791c62761152d0c79bb0604c104a5fb6f4eb0703f3154bb3db00190600090565b634e487b7160e01b600052603260045260246000fd5b6000198114610e185760010190565b634e487b7160e01b600052601160045260246000fd5b6000908152600460205260408120548015610e655790604091815260036020522090600260018060a01b0360038401541692015490565b50908190565b60005260046020526040600020548015610e9957600052600360205260ff60036040600020015460a01c1690565b50600090565b91908201809211610e1857565b8051821015610df35760209160051b010190565b908160005260036020526040600020908154918215610f8857600381019182549460ff8660a01c16610f76577fd91da7087a9300778759c4df53dd712b6e8aa73d0a38b6b8a61b86b96d3d966793602093836002610f1d8261118d565b9201556001600160a81b03199097166001600160a01b03909716968717600160a01b1790556040518281527f936fe18cf1ae151e1bc53947d9b72671fb007ae8fb2ec8ad96d98a23c8d51dc1908490a2604051908152a3565b60405163533d99dd60e01b8152600490fd5b604051632589d98f60e11b8152600490fd5b600090815b600554811015610f8857610fb281610db8565b50546001600160a01b0383811691168114610fd65750610fd190610e09565b610f9f565b92907fd64d11086d859b73cf85a91ca06cbc484398acabe3d9a1b26d4366dff377d9859250611006600291610db8565b5001805460ff1916905580a2565b9060005b600554811015610f885761102b81610db8565b50546001600160a01b0384811691161461104d5761104890610e09565b611018565b600191925061105b90610db8565b500155565b9060405161106d81610d62565b82546001600160a01b031681526001830154602082015260029092015460ff1615156040830152565b600554906110a382610da0565b916110b16040519384610d7e565b8083526005600090815260207f036b6384b5eca791c62761152d0c79bb0604c104a5fb6f4eb0703f3154bb3db08186015b8484106110f0575050505050565b6003836001926110ff85611060565b8152019201930192906110e2565b9060009182526004602052604082205480156111885782526003602052600160408320015461012c80820191828111611174574283116111505750505060019190565b4290030192908311611160579190565b634e487b7160e01b81526011600452602490fd5b634e487b7160e01b85526011600452602485fd5b508190565b60055480156111ce57600090815b8181106111e0575b5050156111ce576111bb906111b6611096565b61122f565b506001600160a01b038116156111ce5790565b604051637a8d088b60e01b8152600490fd5b60ff60026111ed83610db8565b50015416611203576111fe90610e09565b61119b565b505050600138806111a3565b8115611219570690565b634e487b7160e01b600052601260045260246000fd5b811561146a5760008093845b83518110156112bd5760406112508286610eac565b51015115158061129d575b61126e575b61126990610e09565b61123b565b949161129561128f6112699260206112868a89610eac565b51015190610e9f565b93610e09565b959050611260565b50670de0b6b3a764000060206112b38387610eac565b510151101561125b565b50929093156111ce576112cf8461147c565b936112da818361120f565b94808310159081611460575b5061141e575b5050600092835b82518510156113855760406113088685610eac565b510151158015611366575b61135c576113279060206112868786610eac565b9384821061133e5761133890610e09565b936112f3565b93506001600160a01b039161135591508490610eac565b5151169190565b9361133890610e09565b50670de0b6b3a7640000602061137c8786610eac565b51015110611313565b50509091508051805b6113a457604051637a8d088b60e01b8152600490fd5b600019810181811180610e185760406113bd8386610eac565b5101511515806113fb575b6113de5750508015610e1857600019018061138e565b9093929150610e18576001600160a01b0390611355908490610eac565b50506000670de0b6b3a764000060206114148487610eac565b51015110156113c8565b90919350604051916020830190815260208352604083019280841067ffffffffffffffff851117610d4c576114589360405251902061120f565b9138806112ec565b90501515386112e6565b60405163602938e560e11b8152600490fd5b8015610e995760001906199056fea264697066735822122006e112eab191c92bf23d8150f2033f67b438df3d51425a1f4ddf2ecfe2a31cbd64736f6c63430008140033","linkReferences":{}},"methodIdentifiers":{"CALLBACK_GAS_LIMIT()":"33d608f1","NUM_WORDS()":"72cf6e34","REQUEST_CONFIRMATIONS()":"67f082b0","VRF_TIMEOUT()":"f4d1c5f6","addProver(address,uint256)":"967de556","checkTimeout(bytes32)":"4393b0e5","getAllProvers()":"48ceaa59","getProverByIndex(uint256)":"d72d1d79","getProverPoolLength()":"811cbeb7","getSelectedProver(bytes32)":"c10672f0","getVRFRequest(uint256)":"c1e582ba","isProverSelected(bytes32)":"f491c80c","keyHash()":"61728f39","l1Vault()":"a65661ef","mockFulfillRandomWords(uint256,uint256)":"354731ff","owner()":"8da5cb5b","proverPool(uint256)":"d228ad25","rawFulfillRandomWords(uint256,uint256[])":"1fe543e3","removeProver(address)":"b571d3dd","requestProverSelection(bytes32)":"72d369a7","setL1Vault(address)":"54fa453c","setVRFConfig(address,bytes32,uint64)":"4a3f00f7","subscriptionId()":"09c1ba2e","transferOwnership(address)":"f2fde38b","triggerFallback(bytes32)":"f12084cd","unlockToVRFRequest(bytes32)":"81fa4db1","updateProverStake(address,uint256)":"012df817","vrfCoordinator()":"a3e56fa8","vrfRequests(uint256)":"1a1d9252"},"id":28}