{"abi":[{"type":"function","name":"MAX_BATCH_SIZE","inputs":[],"outputs":[{"name":"","type":"uint256","internalType":"uint256"}],"stateMutability":"view"},{"type":"function","name":"MAX_DEPTH","inputs":[],"outputs":[{"name":"","type":"uint256","internalType":"uint256"}],"stateMutability":"view"},{"type":"function","name":"VERSION","inputs":[],"outputs":[{"name":"","type":"uint32","internalType":"uint32"}],"stateMutability":"view"},{"type":"function","name":"compressEvaluations","inputs":[{"name":"evaluations","type":"uint256[]","internalType":"uint256[]"}],"outputs":[{"name":"compressed","type":"bytes","internalType":"bytes"}],"stateMutability":"pure"},{"type":"function","name":"compressMerklePath","inputs":[{"name":"siblings","type":"bytes32[]","internalType":"bytes32[]"}],"outputs":[{"name":"compressed","type":"bytes","internalType":"bytes"}],"stateMutability":"pure"},{"type":"function","name":"compressSTARKProof","inputs":[{"name":"proof","type":"tuple","internalType":"struct ProofCompressor.UncompressedProof","components":[{"name":"traceCommitment","type":"bytes32","internalType":"bytes32"},{"name":"constraintCommitment","type":"bytes32","internalType":"bytes32"},{"name":"friCommitments","type":"bytes32[]","internalType":"bytes32[]"},{"name":"traceEvaluations","type":"uint256[]","internalType":"uint256[]"},{"name":"constraintEvaluations","type":"uint256[]","internalType":"uint256[]"}]}],"outputs":[{"name":"compressed","type":"bytes","internalType":"bytes"}],"stateMutability":"pure"},{"type":"function","name":"estimateCompressedSize","inputs":[{"name":"proof","type":"tuple","internalType":"struct ProofCompressor.UncompressedProof","components":[{"name":"traceCommitment","type":"bytes32","internalType":"bytes32"},{"name":"constraintCommitment","type":"bytes32","internalType":"bytes32"},{"name":"friCommitments","type":"bytes32[]","internalType":"bytes32[]"},{"name":"traceEvaluations","type":"uint256[]","internalType":"uint256[]"},{"name":"constraintEvaluations","type":"uint256[]","internalType":"uint256[]"}]}],"outputs":[{"name":"estimatedSize","type":"uint256","internalType":"uint256"}],"stateMutability":"pure"},{"type":"function","name":"getCompressionRatio","inputs":[{"name":"originalSize","type":"uint256","internalType":"uint256"},{"name":"compressedSize","type":"uint256","internalType":"uint256"}],"outputs":[{"name":"ratio","type":"uint256","internalType":"uint256"}],"stateMutability":"pure"},{"type":"function","name":"getVersion","inputs":[],"outputs":[{"name":"name","type":"string","internalType":"string"},{"name":"version","type":"string","internalType":"string"}],"stateMutability":"pure"},{"type":"function","name":"hashForCompression","inputs":[{"name":"data","type":"bytes32","internalType":"bytes32"}],"outputs":[{"name":"hash","type":"bytes32","internalType":"bytes32"}],"stateMutability":"pure"},{"type":"event","name":"ProofCompressed","inputs":[{"name":"proofHash","type":"bytes32","indexed":true,"internalType":"bytes32"},{"name":"originalSize","type":"uint256","indexed":false,"internalType":"uint256"},{"name":"compressedSize","type":"uint256","indexed":false,"internalType":"uint256"}],"anonymous":false},{"type":"error","name":"BatchTooLarge","inputs":[]},{"type":"error","name":"InvalidInput","inputs":[]},{"type":"error","name":"PathTooDeep","inputs":[]}],"bytecode":{"object":"0x6080806040523461001657611b06908161001c8239f35b600080fdfe6080604052600436101561001257600080fd5b60003560e01c80630c9813a9146115095780630d8e6e2c1461148a57806354ab24011461143a5780637de83efd1461132e5780638740bdc61461102c578063a27154ba14611011578063cfdbf25414610ff5578063d3a4000714610d98578063f11f1ae7146100ab5763ffa1ad741461008a57600080fd5b346100a65760003660031901126100a657602060405160018152f35b600080fd5b346100a65760203660031901126100a657604080516d51535f434f4d50524553535f563160901b6020820152600435818301529081526100ea816115ee565b6040516100f681611609565b610320368237815191600183018084116103335760889004926001840184116103335760005b600185018110610290576020846001600160401b038151166fffffffffffffffff00000000000000008383015160401b161760408201519160606001600160401b0360c01b91015160c01b16916001600160401b0360801b9060801b1617177eff00ff00ff00ff00ff00ff00ff00ff00ff00ff00ff00ff00ff00ff00ff00ff7fff00ff00ff00ff00ff00ff00ff00ff00ff00ff00ff00ff00ff00ff00ff00ff008260081b169160081c16177dffff0000ffff0000ffff0000ffff0000ffff0000ffff0000ffff0000ffff7fffff0000ffff0000ffff0000ffff0000ffff0000ffff0000ffff0000ffff00008260101b169160101c16177bffffffff00000000ffffffff00000000ffffffff00000000ffffffff7fffffffff00000000ffffffff00000000ffffffff00000000ffffffff0000000082841b1691831c161777ffffffffffffffff0000000000000000ffffffffffffffff80198260401b169160401c1617604051908060801b9060801c178152f35b806088810204608814811517156103335760005b60118110156103dd576000805b60088210156103a757828060031b0460081483151715610333576102e4826102df8560031b60888802611661565b611661565b8581101561035f5786518110156103495786016020015160f81c905b8260031b91838304600814841517156103335761032d9260ff6001600160401b039216901b16179161167e565b906102b1565b634e487b7160e01b600052601160045260246000fd5b634e487b7160e01b600052603260045260246000fd5b80860361036f5750600690610300565b60888086020180608887021161033357608760888702011161033357608885026087010361039f57608090610300565b600090610300565b6103d89291506001600160401b0390816103c1848a611a91565b511618906103cf8389611a91565b9116905261167e565b6102a4565b50926103206040516103ee81611609565b3690376040516103fd81611625565b60a036823760405161040e81611625565b60a036823760405191826103208101106001600160401b0361032085011117610d825761032083016040526000835260016020840152603e6040840152601c6060840152601b6080840152602460a0840152602c60c0840152600660e0840152603761010084015260146101208401526003610140840152600a610160840152602b61018084015260196101a084015260276101c084015260296101e0840152602d610200840152600f61022084015260156102408401526008610260840152601261028084015260026102a0840152603d6102c084015260386102e0840152600e61030084015260405192836103008101106001600160401b0361030086011117610d82579091610300840160405260018452618082602085015267800000000000808a6040850152678000000080008000606085015261808b6080850152638000000160a085015267800000008000808160c085015267800000000000800960e0850152608a61010085015260886101208501526380008009610140850152638000000a610160850152638000808b61018085015267800000000000008b6101a08501526780000000000080896101c08501526780000000000080036101e085015267800000000000800261020085015267800000000000008061022085015261800a61024085015267800000008000000a6102608501526780000000800080816102808501526780000000000080806102a085015263800000016102c08501526780000000800080086102e08501526000925b6018841061066457505050505061065d6001919461167e565b905061011c565b919495909398966001600160401b0380889a959a51168160a08a01511618816101408a01511618816101e08a01511618816102808a015116181683526001600160401b03808060208a0151168160c08b01511618816101608b01511618816102008b01511618816102a08b015116188181166020870152818060408c0151168160e08d01511618816101808d01511618816102208d01511618816102c08d01511618166040870152818060608c015116816101008d01511618816101a08d01511618816102408d01511618816102e08d01511618166060870152818060808c015116816101208d01511618816101c08d01511618816102608d01511618816103008d01511618169081608088015282600182603f1c1667fffffffffffffffe8360011b1617831816895282808851166107b68260408b01511667fffffffffffffffe600182603f1c169160011b161790565b181660208a015282806020890151166107e88260608b01511667fffffffffffffffe600182603f1c169160011b161790565b181660408a0152828060408901511661081a8260808b01511667fffffffffffffffe600182603f1c169160011b161790565b181660608a01528280606089015116610849828a511667fffffffffffffffe600182603f1c169160011b161790565b181660808a015267fffffffffffffffe600182603f1c169160011b1617181681895116181687526001600160401b03806020870151168160208a015116181660208801526001600160401b03806040870151168160408a015116181660408801526001600160401b03806060870151168160608a015116181660608801526001600160401b03806080870151168160808a015116181660808801526001600160401b03808651168160a08a015116181660a08801526001600160401b03806020870151168160c08a015116181660c08801526001600160401b03806040870151168160e08a015116181660e08801526001600160401b0380606087015116816101008a01511618166101008801526001600160401b0380608087015116816101208a01511618166101208801526001600160401b0380865116816101408a01511618166101408801526001600160401b0380602087015116816101608a01511618166101608801526001600160401b0380604087015116816101808a01511618166101808801526001600160401b0380606087015116816101a08a01511618166101a08801526001600160401b0380608087015116816101c08a01511618166101c08801526001600160401b0380865116816101e08a01511618166101e08801526001600160401b0380602087015116816102008a01511618166102008801526001600160401b0380604087015116816102208a01511618166102208801526001600160401b0380606087015116816102408a01511618166102408801526001600160401b0380608087015116816102608a01511618166102608801526001600160401b0380865116816102808a01511618166102808801526001600160401b0380602087015116816102a08a01511618166102a08801526001600160401b0380604087015116816102c08a01511618166102c08801526001600160401b0380606087015116816102e08a01511618166102e08801526001600160401b0380608087015116816103008a015116181661030088015260405197610b4b89611609565b610320368a3760005b60198110610ce6575060005b60059081811015610cb0578181810204810361033357610b828183028c611a91565b51828202600181011061033357610b9e6001838502018d611a91565b5192828102600281011061033357610bbb8184026002018e611a91565b51818402600381011061033357610bd78285026003018f611a91565b5190828502600481011061033357858f8f8060048988806001600160401b0389610cab9f9b8e9c839e8e859e86809e9181610c9d9f610c2e908f8f90849997610c259183879a020190611a91565b519d0290611a91565b961619161691161816905282610c496001888802018a611a91565b921691838c818085871916169116181690528280610c6c6002898902018b611a91565b921692818685191616181690528180610c8a6003888802018a611a91565b94169c8d19161618169052020190611a91565b95161916161816905261167e565b610b60565b505099949398610cde919850969591966001600160401b03808260051b88015116818951161816875261167e565b929091610644565b600581066001600160ff1b0381169003610333576003600582048102046005820403610333576005610d2281830460030282840660011b611661565b0690610d4c6001600160401b03610d39838d611a91565b5116610d45838c611a91565b5190611aa2565b6005838102048303610333576001600160401b036103cf8d610d77610d7d9660050260058704611661565b90611a91565b610b54565b634e487b7160e01b600052604160045260246000fd5b346100a657610da6366115a2565b60408101610db481836118e0565b92606081019150610dc582826118e0565b9490506080820192610dd784846118e0565b604051600160e01b6020808301918252600760e01b60248401526001600160e01b031960e097881b811660288501529a871b8b16602c8401529290951b90981660308901526000603489015260188852968793909150610e36826115d3565b610e7160606040518094610e528883019586925192839161152a565b8101883588820152878901356040820152036040810185520183611640565b8196610e7d81876118e0565b9050610f34575b505050610e9181846118e0565b9050610f19575b5050610ea482826118e0565b9050610ec2575b60405184815280610ebe8187018661154d565b0390f35b610ed9610ed3610f129386936118e0565b90611915565b926040519381610ef2869351809286808701910161152a565b8201610f068251809386808501910161152a565b01038084520182611640565b8280610eab565b90610ed9610ed3610f2c938597956118e0565b918385610e98565b610f429192939750856118e0565b60405160f082901b6001600160f01b0319168682015260028152919291610f68816115d3565b926000915b808310610f9c57505050610ef292610f939285926040519586935180928686019061152a565b93868080610e84565b919495509192610fe990610fe36040610fb688868861166e565b35928d82519482610fd0879451809285808801910161152a565b830191820152038d810184520182611640565b9461167e565b90918995949392610f6d565b346100a65760003660031901126100a657602060405160648152f35b346100a65760003660031901126100a6576020604051818152f35b346100a6576020806003193601126100a6576004356001600160401b0381116100a65761105d903690600401611572565b919081831161131c5760405190828201600160e01b808252602484015263ffffffff60e01b8560e01b1660288401526000602c840152601083526110a0836115d3565b8294806110bb575b60405185815280610ebe8188018961154d565b6060955090916000905b8282106110f657505050916110ec918194610ef2946040519586935180928686019061152a565b90828080806110a8565b919492909360005b866111098288611661565b1080611300575b156111235761111e9061167e565b6110fe565b9396909591939192916002888183106111925760226111599261118192611187966040519586928251928184928601910161152a565b81018d600160f81b9082015260ff60f81b8760f81b1660218201520390810184520182611640565b95611661565b905b959493956110c5565b50509060018092146000146111db576111d59150610fe36111b487868661166e565b35916111c76040519384928c840161168d565b03601f198101835282611640565b90611189565b81805b61129a575b506003821061124b579061121c61118160426111d5948b6112058b8a8a61166e565b35916040519586928251928184928601910161152a565b81018d600160f91b9082015260ff60f81b8760f81b166021820152602292838201520390810184520182611640565b9460005b8281106112615750906111d591611661565b956112959061128f8a6111c761128161127a8c88611661565b8a8a61166e565b35604051948593840161168d565b9661167e565b61124f565b91846112a68289611661565b10806112d8575b806112ce575b156112c8576112c2839161167e565b926111de565b916111e3565b5060ff81106112b3565b506112ed6112e68289611661565b868661166e565b356112f988878761166e565b35146112ad565b5061131561130e8288611661565b888661166e565b3515611110565b60405163a37173e560e01b8152600490fd5b346100a65761133c366115a2565b61134960408201826118e0565b600581901b91506001600160fb1b03811603610333578060020160021161033357605a0180605811610333576060820161138381846118e0565b1590506114325761139490836118e0565b60001981019150811161033357600581029080820460051490151715610333575b60220180602211610333576113c991611661565b90608081016113d881836118e0565b159050611429576113e8916118e0565b60001981019150811161033357600581029080820460051490151715610333575b60220190816022116103335760209161142191611661565b604051908152f35b50506000611409565b5060006113b5565b346100a65760203660031901126100a6576004356001600160401b0381116100a657611476611470610ebe923690600401611572565b906116f6565b60405191829160208352602083019061154d565b346100a65760003660031901126100a6576114fb6040516114aa816115d3565b600f81526e283937b7b321b7b6b83932b9b9b7b960891b6020820152610ebe6040516114d5816115d3565b60058152640302e312e360dc1b602082015260405193849360408552604085019061154d565b90838203602085015261154d565b346100a65760403660031901126100a6576020611421602435600435611a6a565b60005b83811061153d5750506000910152565b818101518382015260200161152d565b906020916115668151809281855285808601910161152a565b601f01601f1916010190565b9181601f840112156100a6578235916001600160401b0383116100a6576020808501948460051b0101116100a657565b600319906020818301126100a657600435916001600160401b0383116100a6578260a0920301126100a65760040190565b604081019081106001600160401b03821117610d8257604052565b606081019081106001600160401b03821117610d8257604052565b61032081019081106001600160401b03821117610d8257604052565b60a081019081106001600160401b03821117610d8257604052565b90601f801991011681019081106001600160401b03821117610d8257604052565b9190820180921161033357565b91908110156103495760051b0190565b60001981146103335760010190565b6020906116a3602194938281519485920161152a565b01906000825260018201520190565b8181039291600013801582851316918412161761033357565b6020906116e1600394938281519485920161152a565b0190600160f81b825260f01b60018201520190565b919080156118a75791604092835160209283820191600160e01b8352602494600160e11b868301526117606117758960e09463ffffffff60e01b89871b16602882015260009788602c8301526010825261174f826115d3565b82519485925180928885019061152a565b81018735868201520384810184520182611640565b9760019283975b87891061178e57505050505050505050565b9091929394959697996117a28b8a8961166e565b356000198c018c8111611894576117f892916117c26117c9928d8c61166e565b35906116b2565b617fff1981121580611888575b15611805576117f2906111c787519384928b0b908a84016116cb565b9a61167e565b979695949392919061177c565b90637fffffff198212158061187a575b156118585760256117f2918751938161183786935180928d808701910161152a565b820190600160f91b8b830152881b6021820152036005810184520182611640565b90506117f26118688d8c8b61166e565b35916111c787519384928a840161168d565b50637fffffff821315611815565b50617fff8113156117d6565b634e487b7160e01b8a526011600452838afd5b50604051600160e01b6020820152600160e11b6024820152600060288201819052602c820152601081529091506118dd816115d3565b90565b903590601e19813603018212156100a657018035906001600160401b0382116100a657602001918160051b360383136100a657565b8115611a5157604080519260209361ffff60f01b8260f01b16858201528335602282015260228152611946816115ee565b9360019182945b81861061195d5750505050505090565b9091929394956001600160401b038061197789868661166e565b35109081611a30575b506119b4575b6119aa9061128f61199889868661166e565b35916111c7895193849289840161168d565b949392919061194d565b6119bf87848461166e565b35906000198801888111611a1b576119aa926117c26119df92878761166e565b617fff1981121580611a0f575b6119f857509050611986565b61128f906111c789519384928a0b908984016116cb565b50617fff8113156119ec565b60246000634e487b7160e01b81526011600452fd5b90506000198801888111611a1b57611a4990858561166e565b351038611980565b505060405160006020820152600281526118dd816115d3565b908115611a895761271090818102918183041490151715610333570490565b505061271090565b9060198110156103495760051b0190565b8115611acb576001600160401b038091168260400360408111610333578183911c16921b161790565b90509056fea2646970667358221220ef8f9ae6c5334d1eef7a24907eea0b7fdc9d05b3f658afb43ab2750a06645dca64736f6c63430008140033","linkReferences":{}},"methodIdentifiers":{"MAX_BATCH_SIZE()":"cfdbf254","MAX_DEPTH()":"a27154ba","VERSION()":"ffa1ad74","compressEvaluations(uint256[])":"54ab2401","compressMerklePath(bytes32[])":"8740bdc6","compressSTARKProof((bytes32,bytes32,bytes32[],uint256[],uint256[]))":"d3a40007","estimateCompressedSize((bytes32,bytes32,bytes32[],uint256[],uint256[]))":"7de83efd","getCompressionRatio(uint256,uint256)":"0c9813a9","getVersion()":"0d8e6e2c","hashForCompression(bytes32)":"f11f1ae7"},"id":48}