{"abi":[{"type":"constructor","inputs":[],"stateMutability":"nonpayable"},{"type":"function","name":"addConsumer","inputs":[{"name":"subId","type":"uint256","internalType":"uint256"},{"name":"consumer","type":"address","internalType":"address"}],"outputs":[],"stateMutability":"nonpayable"},{"type":"function","name":"cancelSubscription","inputs":[{"name":"subId","type":"uint256","internalType":"uint256"},{"name":"to","type":"address","internalType":"address"}],"outputs":[],"stateMutability":"nonpayable"},{"type":"function","name":"createSubscription","inputs":[],"outputs":[{"name":"subId","type":"uint256","internalType":"uint256"}],"stateMutability":"nonpayable"},{"type":"function","name":"fulfillRandomWords","inputs":[{"name":"requestId","type":"uint256","internalType":"uint256"},{"name":"randomWords","type":"uint256[]","internalType":"uint256[]"}],"outputs":[],"stateMutability":"nonpayable"},{"type":"function","name":"fulfillRandomWordsSimple","inputs":[{"name":"requestId","type":"uint256","internalType":"uint256"},{"name":"randomValue","type":"uint256","internalType":"uint256"}],"outputs":[],"stateMutability":"nonpayable"},{"type":"function","name":"fundSubscription","inputs":[{"name":"subId","type":"uint256","internalType":"uint256"},{"name":"amount","type":"uint96","internalType":"uint96"}],"outputs":[],"stateMutability":"nonpayable"},{"type":"function","name":"getCurrentRequestId","inputs":[],"outputs":[{"name":"","type":"uint256","internalType":"uint256"}],"stateMutability":"view"},{"type":"function","name":"getRequest","inputs":[{"name":"requestId","type":"uint256","internalType":"uint256"}],"outputs":[{"name":"","type":"tuple","internalType":"struct VRFCoordinatorV2_5Mock.Request","components":[{"name":"subId","type":"uint256","internalType":"uint256"},{"name":"callbackGasLimit","type":"uint32","internalType":"uint32"},{"name":"numWords","type":"uint32","internalType":"uint32"},{"name":"consumer","type":"address","internalType":"address"},{"name":"fulfilled","type":"bool","internalType":"bool"}]}],"stateMutability":"view"},{"type":"function","name":"getRequestConfig","inputs":[],"outputs":[{"name":"minimumRequestConfirmations","type":"uint16","internalType":"uint16"},{"name":"maxGasLimit","type":"uint32","internalType":"uint32"},{"name":"stalenessSeconds","type":"uint32","internalType":"uint32"},{"name":"gasAfterPaymentCalculation","type":"uint32","internalType":"uint32"},{"name":"fallbackWeiPerUnitLink","type":"int256","internalType":"int256"},{"name":"feeConfig","type":"bytes32","internalType":"bytes32"}],"stateMutability":"pure"},{"type":"function","name":"getSubscription","inputs":[{"name":"subId","type":"uint256","internalType":"uint256"}],"outputs":[{"name":"balance","type":"uint96","internalType":"uint96"},{"name":"nativeBalance","type":"uint96","internalType":"uint96"},{"name":"reqCount","type":"uint64","internalType":"uint64"},{"name":"owner","type":"address","internalType":"address"},{"name":"consumers","type":"address[]","internalType":"address[]"}],"stateMutability":"view"},{"type":"function","name":"pendingRequestExists","inputs":[{"name":"","type":"uint256","internalType":"uint256"},{"name":"","type":"address","internalType":"address"}],"outputs":[{"name":"pending","type":"bool","internalType":"bool"}],"stateMutability":"pure"},{"type":"function","name":"removeConsumer","inputs":[{"name":"subId","type":"uint256","internalType":"uint256"},{"name":"consumer","type":"address","internalType":"address"}],"outputs":[],"stateMutability":"nonpayable"},{"type":"function","name":"requestRandomWords","inputs":[{"name":"keyHash","type":"bytes32","internalType":"bytes32"},{"name":"subId","type":"uint256","internalType":"uint256"},{"name":"requestConfirmations","type":"uint16","internalType":"uint16"},{"name":"callbackGasLimit","type":"uint32","internalType":"uint32"},{"name":"numWords","type":"uint32","internalType":"uint32"},{"name":"","type":"bytes","internalType":"bytes"}],"outputs":[{"name":"requestId","type":"uint256","internalType":"uint256"}],"stateMutability":"nonpayable"},{"type":"function","name":"requests","inputs":[{"name":"","type":"uint256","internalType":"uint256"}],"outputs":[{"name":"subId","type":"uint256","internalType":"uint256"},{"name":"callbackGasLimit","type":"uint32","internalType":"uint32"},{"name":"numWords","type":"uint32","internalType":"uint32"},{"name":"consumer","type":"address","internalType":"address"},{"name":"fulfilled","type":"bool","internalType":"bool"}],"stateMutability":"view"},{"type":"function","name":"subscriptions","inputs":[{"name":"","type":"uint256","internalType":"uint256"}],"outputs":[{"name":"balance","type":"uint96","internalType":"uint96"},{"name":"nativeBalance","type":"uint96","internalType":"uint96"},{"name":"reqCount","type":"uint64","internalType":"uint64"},{"name":"owner","type":"address","internalType":"address"}],"stateMutability":"view"},{"type":"event","name":"ConsumerAdded","inputs":[{"name":"subId","type":"uint256","indexed":true,"internalType":"uint256"},{"name":"consumer","type":"address","indexed":false,"internalType":"address"}],"anonymous":false},{"type":"event","name":"ConsumerRemoved","inputs":[{"name":"subId","type":"uint256","indexed":true,"internalType":"uint256"},{"name":"consumer","type":"address","indexed":false,"internalType":"address"}],"anonymous":false},{"type":"event","name":"RandomWordsFulfilled","inputs":[{"name":"requestId","type":"uint256","indexed":true,"internalType":"uint256"},{"name":"randomWords","type":"uint256[]","indexed":false,"internalType":"uint256[]"},{"name":"success","type":"bool","indexed":false,"internalType":"bool"}],"anonymous":false},{"type":"event","name":"RandomWordsRequested","inputs":[{"name":"keyHash","type":"bytes32","indexed":true,"internalType":"bytes32"},{"name":"requestId","type":"uint256","indexed":false,"internalType":"uint256"},{"name":"preSeed","type":"uint256","indexed":false,"internalType":"uint256"},{"name":"subId","type":"uint256","indexed":true,"internalType":"uint256"},{"name":"minimumRequestConfirmations","type":"uint16","indexed":false,"internalType":"uint16"},{"name":"callbackGasLimit","type":"uint32","indexed":false,"internalType":"uint32"},{"name":"numWords","type":"uint32","indexed":false,"internalType":"uint32"},{"name":"sender","type":"address","indexed":true,"internalType":"address"}],"anonymous":false},{"type":"event","name":"SubscriptionCreated","inputs":[{"name":"subId","type":"uint256","indexed":true,"internalType":"uint256"},{"name":"owner","type":"address","indexed":false,"internalType":"address"}],"anonymous":false},{"type":"event","name":"SubscriptionFunded","inputs":[{"name":"subId","type":"uint256","indexed":true,"internalType":"uint256"},{"name":"oldBalance","type":"uint256","indexed":false,"internalType":"uint256"},{"name":"newBalance","type":"uint256","indexed":false,"internalType":"uint256"}],"anonymous":false}],"bytecode":{"object":"0x6080806040523461001f5760016000556001805561104f90816100258239f35b600080fdfe6080604081815260048036101561001557600080fd5b600092833560e01c90816201229114610ce4575080630ae0954014610c6c57806315cd184114610c4f5780632d5bbf6014610bf657806338ba4614146109a75780634cf94d87146108dc5780634eb879fa146108c057806381d12c581461085e5780639ad7ef9e146107915780639ff308b01461050e578063a21a23e41461034c578063bec4c08c14610281578063c58343ef146101c6578063cb631797146101a85763dc311dd3146100c757600080fd5b346101a457602090816003193601126101a0573583526003815281832092835460018060a01b0392600193600281868901541697019686519081848a54918281520190819a885285882090885b81811061018b575050508261012a910383610d7c565b87519760a08901956001600160601b038082168b528160601c16868b015260c01c90890152606088015260a060808801525180935260c086019693905b8382106101745786880387f35b845181168852968201969382019390850190610167565b82548716845292870192918a01918a01610114565b8380fd5b8280fd5b83346101c3576101c06101ba36610d24565b90610e7b565b80f35b80fd5b5090346101a457602091826003193601126101a05783829160a095608084516101ee81610d4a565b82815282888201528286820152826060820152015235815260028452209181519061021882610d4a565b60018454948584520154928183019163ffffffff908186168452828501908287821c16825282606087019560ff60806001808e1b03998a8c8a1c168a52019960e01c16151589528551998a52511690880152511690850152511660608301525115156080820152f35b50346101a45761029036610d24565b818552600360205283852060010154919390926001600160a01b03926102b99084163314610e36565b8486526003602052600282872001805491600160401b83101561033957509161033085610311847f4e5aab67fb6878a7c5437d638d002992f2b503107c053f38483f6b29494874939896600160209997018155610e08565b90919082549060031b9160018060a01b03809116831b921b1916179055565b5191168152a280f35b634e487b7160e01b885260419052602487fd5b5090346101a457826003193601126101a457600180549261036c84610de3565b8255825160209567ffffffffffffffff92878301848111848210176104f9579087918752828452600287516103a081610d4a565b8481528a810185815289820186815233606080850191825260808501998a5296885260038e528b88209351925191519190961b6bffffffffffffffffffffffff60601b166001600160601b03929092169190911790881660c01b6001600160c01b03191617815587810160018060a01b03809551166001600160601b0360a01b8254161790550193519081519586116104e657600160401b86116104d15750889084548686558087106104a4575b5001928252878220915b84811061049157888888817f1d3015d7ba850fa198dc7b1a3f5d42779313a681035f77c8c03764c61005518d848351338152a251908152f35b8351821683820155928801928501610458565b8560005287878460002092830192015b8281106104c257505061044e565b600081558c94508991016104b4565b604190634e487b7160e01b6000525260246000fd5b634e487b7160e01b845260419052602483fd5b604182634e487b7160e01b6000525260246000fd5b5091903461078d5760c036600319011261078d57602435926044359361ffff85168095036101a0576064359363ffffffff9485811680910361078857608435908682168092036107885767ffffffffffffffff9760a435898111610784573660238201121561078457808701358a811161078057369101602401116101a05784845260209860038a5260018060a01b036001906105b381838c8a200154161515610d9e565b8187918d828d8b915b61072a575b5050505050156106e7578554996105d78b610de3565b875589518b8b8e6105e784610d4a565b8b84528a818501958a875287848701968d88528560608201943386526080830198818a528152600287522090518155019651169186549551901b67ffffffff000000001692600160e01b600160401b90039151901b169260ff60e01b9051151560e01b169362ffffff60e81b1617171717905586865260038b5288862091825460c01c9081146106d45782546001600160c01b0316910160c01b6001600160c01b0319161790558651938885528985015286840152606083015260808201527f8645457ba936e1d3d8c504bb2e723e23a86101f27fa9cf2c552b9c1bf6ea952960a033943592a451908152f35b634e487b7160e01b875260118952602487fd5b885162461bcd60e51b81528089018c9052601760248201527f436f6e73756d6572206e6f7420726567697374657265640000000000000000006044820152606490fd5b8c8c52600383528b2060020180548210156107795761074a828592610e08565b905460039190911b1c16331461076a5761076390610de3565b8d846105bc565b505050905081388d818d6105c1565b508d6105c1565b8580fd5b8480fd5b600080fd5b5080fd5b5090346101a457806003193601126101a45780519167ffffffffffffffff8383018181118582101761084b5783526001845260208401602036823784511561083857602435905284303b156101c35761080a94845180968192630e2e918560e21b83528635878401528760248401526044830190610fe5565b038183305af1801561082e5761081e578480f35b83116104e6575052388080808480f35b83513d87823e3d90fd5b634e487b7160e01b865260328352602486fd5b634e487b7160e01b865260418352602486fd5b50346101a45760203660031901126101a4578160a09360ff92358152600260205220916001835493015490805193845263ffffffff80831660208601528260201c168185015281600180871b03911c16606084015260e01c1615156080820152f35b50503461078d57906020916108d436610d24565b505051908152f35b5091903461078d578060031936011261078d578235906024356001600160601b038082168092036107845783855260036020528285206001015461092a906001600160a01b03161515610d9e565b83855260036020528083862054169182019080821161099457859650847f1ced9348ff549fceab2ac57cd3a9de38edaaab274b725ee82c23e8fc8c4eec7a9596526003602052838720911690816001600160601b031982541617905582519182526020820152a280f35b634e487b7160e01b865260118752602486fd5b5082903461078d578260031936011261078d5780359060249384359167ffffffffffffffff8084116107805736602385011215610780578382013590808211610be4578160051b94845195602093610a0185830189610d7c565b8752898488019183010191368311610be0578a859101915b838310610bd057505050868852506002825283872060010180546001600160a01b0392919080871c841615610b9a5760ff8160e01c16610b645760ff60e01b1916600160e01b17908190558551631fe543e360e01b858201908152818c018a90526044820188905290938a9283929091839087610a99606482018e610fe5565b0397610aad601f19998a8101835282610d7c565b51938b1c165af1933d15610b37573d918211610b2557507f969e72fbacf24da85b4bce2a3cef3d8dc2497b1750c4cc5a06b52c104133833796979850610afc83865193601f8401160183610d7c565b815287823d92013e5b610b188351948486958652850190610fe5565b911515908301520390a280f35b634e487b7160e01b8952604190528888fd5b5050507f969e72fbacf24da85b4bce2a3cef3d8dc2497b1750c4cc5a06b52c104133833794959650610b05565b865162461bcd60e51b81528087018690526011818d015270105b1c9958591e48199d5b199a5b1b1959607a1b6044820152606490fd5b865162461bcd60e51b81528087018690526011818d01527014995c5d595cdd081b9bdd08199bdd5b99607a1b6044820152606490fd5b8235815291810191859101610a19565b8980fd5b634e487b7160e01b8752604183528787fd5b50346101a45760203660031901126101a4576080928291358152600360205220908154916001808060a01b0391015416908051926001600160601b0380821685528160601c16602085015260c01c908301526060820152f35b50503461078d578160031936011261078d57602091549051908152f35b50503461078d576002610c7e36610d24565b50918284526003602052600192610ca360018060a01b03858488200154163314610e36565b84526003602052832083815583838201550180549083815581610cc4578380f35b835260208320908101905b818110610cda578380f35b8381558201610ccf565b849084346101a457826003193601126101a457916201518060c09360038452622625a06020850152830152618205606083015280608083015260a0820152f35b604090600319011261078857600435906024356001600160a01b03811681036107885790565b60a0810190811067ffffffffffffffff821117610d6657604052565b634e487b7160e01b600052604160045260246000fd5b90601f8019910116810190811067ffffffffffffffff821117610d6657604052565b15610da557565b60405162461bcd60e51b815260206004820152601660248201527514dd589cd8dc9a5c1d1a5bdb881b9bdd08199bdd5b9960521b6044820152606490fd5b6000198114610df25760010190565b634e487b7160e01b600052601160045260246000fd5b8054821015610e205760005260206000200190600090565b634e487b7160e01b600052603260045260246000fd5b15610e3d57565b60405162461bcd60e51b81526020600482015260166024820152752737ba1039bab139b1b934b83a34b7b71037bbb732b960511b6044820152606490fd5b9060009282845260039060209382855260018060a01b0393600193604095610eab8187898c200154163314610e36565b8389528188528689206002019089875b610ef9575b885162461bcd60e51b8152600481018b9052601260248201527110dbdb9cdd5b595c881b9bdd08199bdd5b9960721b6044820152606490fd5b825480821015610fdf5782610f0e8386610e08565b905490871b1c1690838716809214610f31575050610f2b90610de3565b87610ebb565b92939495509699975060009895981991828101908111610fcb579061031184610f5d610f6b9488610e08565b905490891b1c169186610e08565b82548015610fb7577f5274c432b5877b38569ae9babd361f86e4b34d0f36aef7f6c61cbba5f185cee198999a500192610fa48484610e08565b81939154921b1b191690555551908152a2565b634e487b7160e01b8b52603160045260248bfd5b634e487b7160e01b8c52601160045260248cfd5b50610ec0565b90815180825260208080930193019160005b828110611005575050505090565b835185529381019392810192600101610ff756fea2646970667358221220ce92dabf30f35b8d57a1bd1a4ea228a8941d1d3bf0cb9d1951bd4471805e82c964736f6c63430008140033","linkReferences":{}},"methodIdentifiers":{"addConsumer(uint256,address)":"bec4c08c","cancelSubscription(uint256,address)":"0ae09540","createSubscription()":"a21a23e4","fulfillRandomWords(uint256,uint256[])":"38ba4614","fulfillRandomWordsSimple(uint256,uint256)":"9ad7ef9e","fundSubscription(uint256,uint96)":"4cf94d87","getCurrentRequestId()":"15cd1841","getRequest(uint256)":"c58343ef","getRequestConfig()":"00012291","getSubscription(uint256)":"dc311dd3","pendingRequestExists(uint256,address)":"4eb879fa","removeConsumer(uint256,address)":"cb631797","requestRandomWords(bytes32,uint256,uint16,uint32,uint32,bytes)":"9ff308b0","requests(uint256)":"81d12c58","subscriptions(uint256)":"2d5bbf60"},"id":34}