{"abi":[{"type":"constructor","inputs":[],"stateMutability":"nonpayable"},{"type":"receive","stateMutability":"payable"},{"type":"function","name":"BLOWUP_FACTOR","inputs":[],"outputs":[{"name":"","type":"uint256","internalType":"uint256"}],"stateMutability":"view"},{"type":"function","name":"FRI_DOMAIN_SIZE","inputs":[],"outputs":[{"name":"","type":"uint256","internalType":"uint256"}],"stateMutability":"view"},{"type":"function","name":"FRI_NUM_QUERIES","inputs":[],"outputs":[{"name":"","type":"uint256","internalType":"uint256"}],"stateMutability":"view"},{"type":"function","name":"MAX_PROOF_SIZE","inputs":[],"outputs":[{"name":"","type":"uint256","internalType":"uint256"}],"stateMutability":"view"},{"type":"function","name":"estimateVerificationGas","inputs":[{"name":"proofSize","type":"uint256","internalType":"uint256"}],"outputs":[{"name":"","type":"uint256","internalType":"uint256"}],"stateMutability":"pure"},{"type":"function","name":"getLock","inputs":[{"name":"lockId","type":"bytes32","internalType":"bytes32"}],"outputs":[{"name":"sender","type":"address","internalType":"address"},{"name":"amount","type":"uint256","internalType":"uint256"},{"name":"dilithiumPubKeyHash","type":"bytes32","internalType":"bytes32"},{"name":"timestamp","type":"uint256","internalType":"uint256"},{"name":"released","type":"bool","internalType":"bool"}],"stateMutability":"view"},{"type":"function","name":"getVerificationMode","inputs":[],"outputs":[{"name":"","type":"string","internalType":"string"}],"stateMutability":"view"},{"type":"function","name":"isQuantumResistant","inputs":[],"outputs":[{"name":"","type":"bool","internalType":"bool"}],"stateMutability":"pure"},{"type":"function","name":"lock","inputs":[{"name":"dilithiumPubKeyHash","type":"bytes32","internalType":"bytes32"}],"outputs":[{"name":"lockId","type":"bytes32","internalType":"bytes32"}],"stateMutability":"payable"},{"type":"function","name":"locks","inputs":[{"name":"","type":"bytes32","internalType":"bytes32"}],"outputs":[{"name":"sender","type":"address","internalType":"address"},{"name":"amount","type":"uint256","internalType":"uint256"},{"name":"dilithiumPubKeyHash","type":"bytes32","internalType":"bytes32"},{"name":"timestamp","type":"uint256","internalType":"uint256"},{"name":"released","type":"bool","internalType":"bool"}],"stateMutability":"view"},{"type":"function","name":"nonceCounter","inputs":[],"outputs":[{"name":"","type":"uint256","internalType":"uint256"}],"stateMutability":"view"},{"type":"function","name":"owner","inputs":[],"outputs":[{"name":"","type":"address","internalType":"address"}],"stateMutability":"view"},{"type":"function","name":"pause","inputs":[],"outputs":[],"stateMutability":"nonpayable"},{"type":"function","name":"paused","inputs":[],"outputs":[{"name":"","type":"bool","internalType":"bool"}],"stateMutability":"view"},{"type":"function","name":"releaseWithProof","inputs":[{"name":"publicInputs","type":"tuple","internalType":"struct QuantumShield.PublicInputs","components":[{"name":"publicKeyHash","type":"bytes32","internalType":"bytes32"},{"name":"messageHash","type":"bytes32","internalType":"bytes32"},{"name":"signatureValid","type":"bool","internalType":"bool"},{"name":"nonce","type":"uint64","internalType":"uint64"},{"name":"recipient","type":"address","internalType":"address"},{"name":"amount","type":"uint256","internalType":"uint256"},{"name":"lockId","type":"bytes32","internalType":"bytes32"}]},{"name":"proof","type":"tuple","internalType":"struct QuantumShield.StarkProof","components":[{"name":"traceCommitment","type":"bytes32","internalType":"bytes32"},{"name":"friProof","type":"bytes","internalType":"bytes"},{"name":"queryResponses","type":"bytes32[]","internalType":"bytes32[]"}]}],"outputs":[],"stateMutability":"nonpayable"},{"type":"function","name":"setVerificationLevel","inputs":[{"name":"level2","type":"bool","internalType":"bool"}],"outputs":[],"stateMutability":"nonpayable"},{"type":"function","name":"setVerifier","inputs":[{"name":"_verifier","type":"address","internalType":"address"}],"outputs":[],"stateMutability":"nonpayable"},{"type":"function","name":"totalLocked","inputs":[],"outputs":[{"name":"","type":"uint256","internalType":"uint256"}],"stateMutability":"view"},{"type":"function","name":"transferOwnership","inputs":[{"name":"newOwner","type":"address","internalType":"address"}],"outputs":[],"stateMutability":"nonpayable"},{"type":"function","name":"unpause","inputs":[],"outputs":[],"stateMutability":"nonpayable"},{"type":"function","name":"useLevel2Verification","inputs":[],"outputs":[{"name":"","type":"bool","internalType":"bool"}],"stateMutability":"view"},{"type":"function","name":"usedNonces","inputs":[{"name":"","type":"uint256","internalType":"uint256"}],"outputs":[{"name":"","type":"bool","internalType":"bool"}],"stateMutability":"view"},{"type":"function","name":"usedProofCommitments","inputs":[{"name":"","type":"bytes32","internalType":"bytes32"}],"outputs":[{"name":"","type":"bool","internalType":"bool"}],"stateMutability":"view"},{"type":"function","name":"verifier","inputs":[],"outputs":[{"name":"","type":"address","internalType":"address"}],"stateMutability":"view"},{"type":"event","name":"EmergencyPaused","inputs":[{"name":"by","type":"address","indexed":true,"internalType":"address"}],"anonymous":false},{"type":"event","name":"EmergencyUnpaused","inputs":[{"name":"by","type":"address","indexed":true,"internalType":"address"}],"anonymous":false},{"type":"event","name":"Locked","inputs":[{"name":"lockId","type":"bytes32","indexed":true,"internalType":"bytes32"},{"name":"sender","type":"address","indexed":true,"internalType":"address"},{"name":"amount","type":"uint256","indexed":false,"internalType":"uint256"},{"name":"dilithiumPubKeyHash","type":"bytes32","indexed":false,"internalType":"bytes32"},{"name":"nonce","type":"uint256","indexed":false,"internalType":"uint256"}],"anonymous":false},{"type":"event","name":"OwnershipTransferred","inputs":[{"name":"previousOwner","type":"address","indexed":true,"internalType":"address"},{"name":"newOwner","type":"address","indexed":true,"internalType":"address"}],"anonymous":false},{"type":"event","name":"ProofVerified","inputs":[{"name":"lockId","type":"bytes32","indexed":true,"internalType":"bytes32"},{"name":"publicInputsHash","type":"bytes32","indexed":false,"internalType":"bytes32"},{"name":"gasUsed","type":"uint256","indexed":false,"internalType":"uint256"}],"anonymous":false},{"type":"event","name":"Released","inputs":[{"name":"lockId","type":"bytes32","indexed":true,"internalType":"bytes32"},{"name":"recipient","type":"address","indexed":true,"internalType":"address"},{"name":"amount","type":"uint256","indexed":false,"internalType":"uint256"}],"anonymous":false},{"type":"event","name":"VerifierUpdated","inputs":[{"name":"newVerifier","type":"address","indexed":true,"internalType":"address"}],"anonymous":false},{"type":"error","name":"CommitmentMismatch","inputs":[]},{"type":"error","name":"InsufficientAmount","inputs":[]},{"type":"error","name":"InvalidProof","inputs":[]},{"type":"error","name":"InvalidPublicInputs","inputs":[]},{"type":"error","name":"LockAlreadyReleased","inputs":[]},{"type":"error","name":"LockNotFound","inputs":[]},{"type":"error","name":"NonceAlreadyUsed","inputs":[]},{"type":"error","name":"NotOwner","inputs":[]},{"type":"error","name":"Paused","inputs":[]},{"type":"error","name":"ProofTooLarge","inputs":[]},{"type":"error","name":"SignatureNotValid","inputs":[]},{"type":"error","name":"TransferFailed","inputs":[]},{"type":"error","name":"ZeroAddress","inputs":[]}],"bytecode":{"object":"0x60806040526007805460ff1916600117905534801561001d57600080fd5b50600080546001600160a01b031916331790556131578061003f6000396000f3fe60806040526004361061014f5760003560e01c80638456cb59116100b6578063de780bbd1161006f578063de780bbd14610414578063ed5e84371461042a578063f2fde38b14610482578063f3b1b9d1146104a2578063f6f32ac5146104b7578063fda1293e146104d957600080fd5b80638456cb59146102ec5780638da5cb5b14610301578063b1a9c8e514610321578063ccaaac4414610351578063d5d754eb14610371578063d6f27b581461038857600080fd5b80635689141211610108578063568914121461023a5780635c975abb146102505780635cd3ce27146102715780636717e41c146102885780636f173079146102b85780636f6607fa146102cc57600080fd5b806301670ba91461015b5780632b7ac3f3146101815780632de4b513146101b95780633e153802146101e35780633f4ba83a146102055780635437988d1461021a57600080fd5b3661015657005b600080fd5b61016e610169366004612d73565b6104ee565b6040519081526020015b60405180910390f35b34801561018d57600080fd5b506003546101a1906001600160a01b031681565b6040516001600160a01b039091168152602001610178565b3480156101c557600080fd5b506007546101d39060ff1681565b6040519015158152602001610178565b3480156101ef57600080fd5b506102036101fe366004612d8c565b610688565b005b34801561021157600080fd5b50610203610a78565b34801561022657600080fd5b50610203610235366004612de9565b610ada565b34801561024657600080fd5b5061016e60015481565b34801561025c57600080fd5b506000546101d390600160a01b900460ff1681565b34801561027d57600080fd5b5061016e6201000081565b34801561029457600080fd5b506101d36102a3366004612d73565b60056020526000908152604090205460ff1681565b3480156102c457600080fd5b5060016101d3565b3480156102d857600080fd5b506102036102e7366004612e20565b610b76565b3480156102f857600080fd5b50610203610bb4565b34801561030d57600080fd5b506000546101a1906001600160a01b031681565b34801561032d57600080fd5b506101d361033c366004612d73565b60066020526000908152604090205460ff1681565b34801561035d57600080fd5b5061016e61036c366004612d73565b610c1c565b34801561037d57600080fd5b5061016e6210000081565b34801561039457600080fd5b506103e06103a3366004612d73565b6000908152600460208190526040909120805460018201546002830154600384015493909401546001600160a01b03909216949093929160ff1690565b604080516001600160a01b03909616865260208601949094529284019190915260608301521515608082015260a001610178565b34801561042057600080fd5b5061016e60025481565b34801561043657600080fd5b506103e0610445366004612d73565b6004602081905260009182526040909120805460018201546002830154600384015493909401546001600160a01b03909216939092909160ff1685565b34801561048e57600080fd5b5061020361049d366004612de9565b610c53565b3480156104ae57600080fd5b5061016e605081565b3480156104c357600080fd5b506104cc610cf5565b6040516101789190612e3d565b3480156104e557600080fd5b5061016e600881565b60008054600160a01b900460ff161561051a576040516313d0ff5960e31b815260040160405180910390fd5b3460000361053b57604051632ca2f52b60e11b815260040160405180910390fd5b600280546000918261054c83612ea1565b909155506040516bffffffffffffffffffffffff193360601b16602082015234603482015260548101859052607481018290524260948201529091506105a49060b4015b604051602081830303815290604052610d9c565b6040805160a0810182523381523460208083018281528385018981524260608601908152600060808701818152898252600495869052978120965187546001600160a01b0319166001600160a01b03909116178755925160018088019190915591516002870155516003860155945193909101805460ff191693151593909317909255825493955092610638908490612eba565b90915550506040805134815260208101859052908101829052339083907f90b4652709ecf95c465dbc53abc979fad77829d2ccc7fe10e6e0815f9b4f30389060600160405180910390a350919050565b600054600160a01b900460ff16156106b3576040516313d0ff5960e31b815260040160405180910390fd5b60005a9050621000006106c96020840184612ecd565b905011156106ea57604051630967beaf60e11b815260040160405180910390fd5b6106f3836110af565b60c0830135600090815260046020526040902080546001600160a01b031661072e57604051636086ee6f60e11b815260040160405180910390fd5b600481015460ff161561075457604051632c04416160e01b815260040160405180910390fd5b600281015484351461077957604051635054097b60e01b815260040160405180910390fd5b8360a001358160010154146107a1576040516319dcebfb60e21b815260040160405180910390fd5b6107b16060850160408601612e20565b6107ce5760405163401b4d9760e01b815260040160405180910390fd5b600560006107e26080870160608801612f1a565b6001600160401b0316815260208101919091526040016000205460ff161561081c57604051623f613760e71b815260040160405180910390fd5b823560009081526006602052604090205460ff161561084e576040516309bde33960e01b815260040160405180910390fd5b600061085a858561113a565b90508061087a576040516309bde33960e01b815260040160405180910390fd5b60048201805460ff19166001908117909155600560006108a06080890160608a01612f1a565b6001600160401b0316815260208082019290925260409081016000908120805494151560ff19958616179055873581526006909252812080549092166001908117909255838201548254909291906108f9908490612f43565b90915550600090505a61090c9085612f43565b90508560c001357f5218389e256f588f1b0c542d774ec9ba39106830c105126b25a30eab96afa3be61093d88611213565b60408051918252602082018590520160405180910390a2600061096660a0880160808901612de9565b6001600160a01b03160361098d5760405163d92e233d60e01b815260040160405180910390fd5b600061099f60a0880160808901612de9565b6001600160a01b0316846001015460405160006040518083038185875af1925050503d80600081146109ed576040519150601f19603f3d011682016040523d82523d6000602084013e6109f2565b606091505b5050905080610a14576040516312171d8360e31b815260040160405180910390fd5b610a2460a0880160808901612de9565b6001600160a01b03168760c001357fc8fa66dff4b9073528c3f1bf21a8dc9a18fdf09847e88e96188bc953aef519f08660010154604051610a6791815260200190565b60405180910390a350505050505050565b6000546001600160a01b03163314610aa3576040516330cd747160e01b815260040160405180910390fd5b6000805460ff60a01b1916815560405133917ff5cbf596165cc457b2cd92e8d8450827ee314968160a5696402d75766fc52caf91a2565b6000546001600160a01b03163314610b05576040516330cd747160e01b815260040160405180910390fd5b6001600160a01b038116610b2c5760405163d92e233d60e01b815260040160405180910390fd5b600380546001600160a01b0319166001600160a01b0383169081179091556040517fd24015cc99cc1700cafca3042840a1d8ac1e3964fd2e0e37ea29c654056ee32790600090a250565b6000546001600160a01b03163314610ba1576040516330cd747160e01b815260040160405180910390fd5b6007805460ff1916911515919091179055565b6000546001600160a01b03163314610bdf576040516330cd747160e01b815260040160405180910390fd5b6000805460ff60a01b1916600160a01b17815560405133917fb8fad2fa0ed7a383e747c309ef2c4391d7b65592a48893e57ccc1fab7079145691a2565b6000610c2b605061c350612f56565b610c36836010612f56565b610c4390620186a0612eba565b610c4d9190612eba565b92915050565b6000546001600160a01b03163314610c7e576040516330cd747160e01b815260040160405180910390fd5b6001600160a01b038116610ca55760405163d92e233d60e01b815260040160405180910390fd5b600080546001600160a01b038381166001600160a01b0319831681178455604051919092169283917f8be0079c531659141344cd1fd0a4f28419497f9722a3daafe3b4186f6b6457e09190a35050565b6003546060906001600160a01b031615610d35575060408051808201909152601181527022ac2a22a92720a62fab22a924a324a2a960791b602082015290565b60075460ff1615610d6e57506040805180820190915260138152722720aa24ab22afa9aa20a925afa622ab22a61960691b602082015290565b506040805180820190915260138152724e41544956455f535441524b5f4c4556454c3160681b602082015290565b6000610da6612d36565b825160006088610db7836001612eba565b610dc19190612f83565b610dcc906001612eba565b905060005b81811015610f0e576000610de6608883612f56565b905060005b6011811015610eee576000805b6008811015610eb257600081610e0f856008612f56565b610e199087612eba565b610e239190612eba565b9050600088821015610e50578b8281518110610e4157610e41612f97565b016020015160f81c9050610e88565b888203610e5f57506006610e88565b6001610e6c608888612eba565b610e769190612f43565b8203610e8457506080610e88565b5060005b610e93836008612f56565b60ff909116901b92909217915080610eaa81612ea1565b915050610df8565b5080878360198110610ec657610ec6612f97565b602002018051919091186001600160401b031690525080610ee681612ea1565b915050610deb565b50610ef8856112b6565b9450508080610f0690612ea1565b915050610dd1565b5060c083600360200201516001600160401b0316901b608084600260200201516001600160401b0316901b604085600160200201516001600160401b0316901b85600060200201516001600160401b031617171793506110a6847bffffffff000000000000000000000000ffffffff00000000000000007eff000000ff000000ff000000ff000000ff000000ff000000ff000000ff0000600883811c9182167fff000000ff000000ff000000ff000000ff000000ff000000ff000000ff0000009490911b93841617601090811c7cff000000ff000000ff000000ff000000ff000000ff000000ff000000ff9092167dff000000ff000000ff000000ff000000ff000000ff000000ff000000ff009094169390931790921b91909117602081811c9283167fffffffff000000000000000000000000ffffffff0000000000000000000000009290911b91821617604090811c73ffffffff000000000000000000000000ffffffff90931677ffffffff000000000000000000000000ffffffff0000000090921691909117901b17608081811c91901b1790565b95945050505050565b80356110ce576040516319dcebfb60e21b815260040160405180910390fd5b60208101356110f0576040516319dcebfb60e21b815260040160405180910390fd5b60c0810135611112576040516319dcebfb60e21b815260040160405180910390fd5b8060a00135600003611137576040516319dcebfb60e21b815260040160405180910390fd5b50565b6003546000906001600160a01b0316156111ed576003546001600160a01b03166326b0b01e61116885611213565b84356111776020870187612ecd565b6111846040890189612fad565b6040518763ffffffff1660e01b81526004016111a596959493929190612ff6565b602060405180830381865afa1580156111c2573d6000803e3d6000fd5b505050506040513d601f19601f820116820180604052508101906111e69190613068565b9050610c4d565b60075460ff1615611202576111e68383611ca1565b61120c8383611ce9565b9392505050565b6000610c4d8235602084013561122f6060860160408701612e20565b61123f6080870160608801612f1a565b61124f60a0880160808901612de9565b60408051602081019690965285019390935290151560f81b60608085019190915260c091821b6001600160c01b03191660618501529190911b6bffffffffffffffffffffffff1916606983015260a0850135607d830152840135609d82015260bd01610590565b6112be612d36565b816112c7612d55565b6112cf612d55565b60006040518061032001604052806000815260200160018152602001603e8152602001601c8152602001601b815260200160248152602001602c815260200160068152602001603781526020016014815260200160038152602001600a8152602001602b8152602001601981526020016027815260200160298152602001602d8152602001600f815260200160158152602001600881526020016012815260200160028152602001603d815260200160388152602001600e8152509050600060405180610300016040528060016001600160401b03166001600160401b031681526020016180826001600160401b03166001600160401b0316815260200167800000000000808a6001600160401b03166001600160401b031681526020016780000000800080006001600160401b03166001600160401b0316815260200161808b6001600160401b03166001600160401b0316815260200163800000016001600160401b03166001600160401b031681526020016780000000800080816001600160401b03166001600160401b031681526020016780000000000080096001600160401b03166001600160401b03168152602001608a6001600160401b03166001600160401b0316815260200160886001600160401b03166001600160401b0316815260200163800080096001600160401b03166001600160401b03168152602001638000000a6001600160401b03166001600160401b03168152602001638000808b6001600160401b03166001600160401b0316815260200167800000000000008b6001600160401b03166001600160401b031681526020016780000000000080896001600160401b03166001600160401b031681526020016780000000000080036001600160401b03166001600160401b031681526020016780000000000080026001600160401b03166001600160401b031681526020016780000000000000806001600160401b03166001600160401b0316815260200161800a6001600160401b03166001600160401b0316815260200167800000008000000a6001600160401b03166001600160401b031681526020016780000000800080816001600160401b03166001600160401b031681526020016780000000000080806001600160401b03166001600160401b0316815260200163800000016001600160401b03166001600160401b031681526020016780000000800080086001600160401b03166001600160401b0316815250905060005b6018811015611c95576102808601516101e087015161014088015160a08901518951181818186001600160401b0390811686526102a087015161020088015161016089015160c08a01516020808c01519091189091189091189091188216908701526102c087015161022088015161018089015160e08a01516040808c01519091189091189091189091188216908701526102e08701516102408801516101a08901516101008a01516060808c01519091189091189091189091188216908701526103008701516102608801516101c08901516101208a01516080808c0151909118909118909118909118909116908601526117678560015b60200201516001611fa3565b6080860151186001600160401b0316845261178385600261175b565b8551186001600160401b0316602085015261179f85600361175b565b6020860151186001600160401b031660408501526117be85600461175b565b6040860151186001600160401b031660608501526117dd85600061175b565b6060808701516001600160401b0392188216608080880191825287518a511884168a5260208881018051918c01805190921886169091526040808a018051918d01805190921887169091528985018051958d01805190961887169095528351928c0180519093188616909252885160a08c01805190911886169052805160c08c01805190911886169052815160e08c0180519091188616905283516101008c0180519091188616905282516101208c0180519091188616905288516101408c0180519091188616905280516101608c0180519091188616905281516101808c0180519091188616905283516101a08c0180519091188616905282516101c08c0180519091188616905288516101e08c0180519091188616905280516102008c0180519091188616905281516102208c0180519091188616905283516102408c0180519091188616905282516102608c0180519091188616905288516102808c01805190911886169052516102a08b01805190911885169052516102c08a0180519091188416905290516102e089018051909118831690525161030088018051909118909116905261198c612d36565b60005b6019811015611a6f5760006119a5600583613085565b905060006119b4600584612f83565b905080600060056119c6836003612f56565b6119d1866002612f56565b6119db9190612eba565b6119e59190613085565b9050611a1d8c86601981106119fc576119fc612f97565b60200201518a8760198110611a1357611a13612f97565b6020020151611fa3565b86611a29836005612f56565b611a339085612eba565b60198110611a4357611a43612f97565b6001600160401b03909216602092909202015250839250611a679150829050612ea1565b91505061198f565b5060005b6005811015611c5c576000611a89826005612f56565b90506000838260198110611a9f57611a9f612f97565b60200201519050600084611ab4846001612eba565b60198110611ac457611ac4612f97565b60200201519050600085611ad9856002612eba565b60198110611ae957611ae9612f97565b60200201519050600086611afe866003612eba565b60198110611b0e57611b0e612f97565b60200201519050600087611b23876004612eba565b60198110611b3357611b33612f97565b602002015190508284191685188e8760198110611b5257611b52612f97565b6001600160401b0390921660209290920201528219821684188e611b77886001612eba565b60198110611b8757611b87612f97565b6001600160401b0390921660209290920201528119811683188e611bac886002612eba565b60198110611bbc57611bbc612f97565b6001600160401b0390921660209290920201528019851682188e611be1886003612eba565b60198110611bf157611bf1612f97565b6001600160401b0390921660209290920201528419841681188e611c16886004612eba565b60198110611c2657611c26612f97565b60200201906001600160401b031690816001600160401b0316815250505050505050508080611c5490612ea1565b915050611a73565b50828260188110611c6f57611c6f612f97565b60200201518751186001600160401b031687525080611c8d81612ea1565b915050611662565b50939695505050505050565b6000611cad8383611ce9565b611cb957506000610c4d565b6000611cd0611ccb6020850185612ecd565b611fd7565b9050611ce181843562010000612695565b949350505050565b60008135611cf957506000610c4d565b6020611d0783820184612ecd565b90501015611d1757506000610c4d565b6000611d266020840184612ecd565b6000818110611d3757611d37612f97565b919091013560f81c915050801580611d52575060148160ff16115b15611d61576000915050610c4d565b6000611d6e826020613099565b611d799060016130bc565b60ff16905080611d8c6020860186612ecd565b90501015611d9f57600092505050610c4d565b6050611dae6040860186612fad565b90501015611dc157600092505050610c4d565b6000805b611dd26040870187612fad565b905081108015611de0575081155b15611e27576000611df46040880188612fad565b83818110611e0457611e04612f97565b9050602002013514611e1557600191505b80611e1f81612ea1565b915050611dc5565b5080611e395760009350505050610c4d565b6000611e4487611213565b6040805188356020820152908101829052909150600090611e6790606001610590565b9050600080611e7960408a018a612fad565b90501115611ecc576000611ec683611e9460408c018c612fad565b6000818110611ea557611ea5612f97565b90506020020135604051602001610590929190918252602082015260400190565b15159150505b600160005b8760ff168160ff16108015611efe5750611eee60208b018b612ecd565b9050611efb836020612eba565b11155b15611f9457600082815b6020811015611f5957600081601f036008029050808e8060200190611f2d9190612ecd565b848601818110611f3f57611f3f612f97565b919091013560f81c90911b94909417935050600101611f08565b5081611f725760009a5050505050505050505050610c4d565b611f7d602085612eba565b935050508080611f8c906130d5565b915050611ed1565b50909998505050505050505050565b600081600003611fb4575081610c4d565b611fbf826040612f43565b6001600160401b03841680841b911c17905092915050565b6120026040518060800160405280606081526020016060815260200160608152602001606081525090565b61202d6040518060800160405280606081526020016060815260200160608152602001606081525090565b60008390036120d05760408051600080825260208083018452918452825181815280830184528483015282518181529182019092529061209f565b61208c60405180606001604052806000815260200160608152602001606081525090565b8152602001906001900390816120685790505b5060408281019190915280516001808252818301909252906020808301908036833750505060608201529050610c4d565b6000848460008181106120e5576120e5612f97565b919091013560f81c9150600090506120fe826020612f56565b612109906001612eba565b9050808510156121b15760408051600080825260208083018452918652825181815280830184528683015282518181529182019092529061217c565b61216960405180606001604052806000815260200160608152602001606081525090565b8152602001906001900390816121455790505b50604084810191909152805160018082528183019092529060208083019080368337505050606084015250909150610c4d9050565b8160ff166001600160401b038111156121cc576121cc6130f4565b6040519080825280602002602001820160405280156121f5578160200160208202803683370190505b50835260ff82166001600160401b03811115612213576122136130f4565b60405190808252806020026020018201604052801561223c578160200160208202803683370190505b506020840152600160005b8360ff168160ff161015612300576000805b60208110156122b65761226d816008612f56565b6122789060f8612f43565b8a8a6122848488612eba565b81811061229357612293612f97565b919091013560f81c90911b929092179150806122ae81612ea1565b915050612259565b508086600001518360ff16815181106122d1576122d1612f97565b6020026020010181815250506020836122ea9190612eba565b92505080806122f8906130d5565b915050612247565b5060005b8360ff168160ff1610156123f2576000805b60208110801561232e57508861232c8286612eba565b105b156123875761233e816008612f56565b6123499060f8612f43565b8a8a6123558488612eba565b81811061236457612364612f97565b919091013560f81c90911b9290921791508061237f81612ea1565b915050612316565b508086602001518360ff16815181106123a2576123a2612f97565b602002602001018181525050888890508360206123bf9190612eba565b116123d6576123cf602084612eba565b92506123df565b508691506123f2565b50806123ea816130d5565b915050612304565b50858110156125bc57600087878381811061240f5761240f612f97565b919091013560f81c915082905061242581612ea1565b9250508060ff166001600160401b03811115612443576124436130f4565b60405190808252806020026020018201604052801561249857816020015b61248560405180606001604052806000815260200160608152602001606081525090565b8152602001906001900390816124615790505b50604086015260005b8160ff168160ff1610156125b5578060ff1686604001518260ff16815181106124cc576124cc612f97565b6020908102919091010151526124e3856002613099565b60ff166001600160401b038111156124fd576124fd6130f4565b604051908082528060200260200182016040528015612526578160200160208202803683370190505b5086604001518260ff168151811061254057612540612f97565b60209081029190910181015101526000604051908082528060200260200182016040528015612579578160200160208202803683370190505b5086604001518260ff168151811061259357612593612f97565b60200260200101516040018190525080806125ad906130d5565b9150506124a1565b5050612610565b6040805160008082526020820190925290612609565b6125f660405180606001604052806000815260200160608152602001606081525090565b8152602001906001900390816125d25790505b5060408501525b604080516001808252818301909252906020808301908036833750505060608501528086111561268a578686612647600182612f43565b81811061265657612656612f97565b9050013560f81c60f81b60f81c60ff16846060015160008151811061267d5761267d612f97565b6020026020010181815250505b509195945050505050565b82515160009081036126a95750600061120c565b835151601010156126bc5750600061120c565b604084015151605011156126d25750600061120c565b835151602085015151146126e85750600061120c565b60005b8460400151518110156127415761272185858760400151848151811061271357612713612f97565b602002602001015186612762565b61272f57600091505061120c565b8061273981612ea1565b9150506126eb565b50606084015151600410156127585750600061120c565b5060019392505050565b81516000908285835b8851518110156128f557612780816002612f56565b61278b906001612eba565b876020015151116127a3576000945050505050611ce1565b60208701516000906127b6836002612f56565b815181106127c6576127c6612f97565b60200260200101519050600088602001518360026127e49190612f56565b6127ef906001612eba565b815181106127ff576127ff612f97565b60200260200101519050600061281486612938565b61281e9085612f56565b905060006128398b60400151836128348a612938565b612964565b90506128488689868685612a27565b61285d57600098505050505050505050611ce1565b60008d60200151868151811061287557612875612f97565b60200260200101519050600061288e8686848d8d612af7565b90508e6000015187815181106128a6576128a6612f97565b602002602001015197506002896128bd9190612f83565b98506128c9898b613085565b8f5151909a506128db90600190612f43565b5050505050505080806128ed90612ea1565b91505061276b565b5087606001515160000361290f5760009350505050611ce1565b600061292889606001516129238686612b8a565b612bd8565b5060019998505050505050505050565b6000805b6001831115610c4d57612950600284612f83565b92508061295c81612ea1565b91505061293c565b60606000826001600160401b03811115612980576129806130f4565b6040519080825280602002602001820160405280156129a9578160200160208202803683370190505b50905060005b83811080156129c7575085516129c58287612eba565b105b15612a1e57856129d78287612eba565b815181106129e7576129e7612f97565b6020026020010151828281518110612a0157612a01612f97565b602090810291909101015280612a1681612ea1565b9150506129af565b50949350505050565b600080612a498585604051602001610590929190918252602082015260400190565b9050806000612a59600289612f83565b905060005b8551811015612ae857612a72600283613085565b600003612aa357612a9c83878381518110612a8f57612a8f612f97565b6020026020010151612c88565b9250612ac9565b612ac6868281518110612ab857612ab8612f97565b602002602001015184612c88565b92505b612ad4600283612f83565b915080612ae081612ea1565b915050612a5e565b50509096149695505050505050565b600080612b048484612b8a565b9050600067ffffffff000000018789089050600067ffffffff00000001612b338967ffffffff00000001612f43565b8a089050600067ffffffff000000018883099050600067ffffffff0000000182850890506000612b6c600267ffffffff00000001612cc1565b905067ffffffff000000018183099c9b505050505050505050505050565b60008082612ba1600167ffffffff00000001612f43565b612bab9190612f83565b90506000612bc360078367ffffffff00000001612cd4565b90506110a6818667ffffffff00000001612cd4565b60008251600003612beb57506000610c4d565b60008360018551612bfc9190612f43565b81518110612c0c57612c0c612f97565b60200260200101519050600060018551612c269190612f43565b90505b8015612c805767ffffffff00000001848309915067ffffffff0000000185612c52600184612f43565b81518110612c6257612c62612f97565b60200260200101518308915080612c788161310a565b915050612c29565b509392505050565b6000808383604051602001612ca7929190918252602082015260400190565b6040516020818303038152906040529050611ce181610d9c565b600061120c83612cd2600285612f43565b845b60006001612ce28386613085565b94505b8315611ce157612cf6600285613085565b600103612d11578280612d0b57612d0b612f6d565b85820990505b612d1c600285612f83565b93508280612d2c57612d2c612f6d565b8586099450612ce5565b6040518061032001604052806019906020820280368337509192915050565b6040518060a001604052806005906020820280368337509192915050565b600060208284031215612d8557600080fd5b5035919050565b600080828403610100811215612da157600080fd5b60e0811215612daf57600080fd5b5082915060e08301356001600160401b03811115612dcc57600080fd5b830160608186031215612dde57600080fd5b809150509250929050565b600060208284031215612dfb57600080fd5b81356001600160a01b038116811461120c57600080fd5b801515811461113757600080fd5b600060208284031215612e3257600080fd5b813561120c81612e12565b600060208083528351808285015260005b81811015612e6a57858101830151858201604001528201612e4e565b506000604082860101526040601f19601f8301168501019250505092915050565b634e487b7160e01b600052601160045260246000fd5b600060018201612eb357612eb3612e8b565b5060010190565b80820180821115610c4d57610c4d612e8b565b6000808335601e19843603018112612ee457600080fd5b8301803591506001600160401b03821115612efe57600080fd5b602001915036819003821315612f1357600080fd5b9250929050565b600060208284031215612f2c57600080fd5b81356001600160401b038116811461120c57600080fd5b81810381811115610c4d57610c4d612e8b565b8082028115828204841417610c4d57610c4d612e8b565b634e487b7160e01b600052601260045260246000fd5b600082612f9257612f92612f6d565b500490565b634e487b7160e01b600052603260045260246000fd5b6000808335601e19843603018112612fc457600080fd5b8301803591506001600160401b03821115612fde57600080fd5b6020019150600581901b3603821315612f1357600080fd5b86815285602082015260806040820152836080820152838560a0830137600060a08583018101829052601f19601f8701168301838103820160608501529081018490526001600160fb1b0384111561304d57600080fd5b8360051b808660c08401370160c00198975050505050505050565b60006020828403121561307a57600080fd5b815161120c81612e12565b60008261309457613094612f6d565b500690565b60ff81811683821602908116908181146130b5576130b5612e8b565b5092915050565b60ff8181168382160190811115610c4d57610c4d612e8b565b600060ff821660ff81036130eb576130eb612e8b565b60010192915050565b634e487b7160e01b600052604160045260246000fd5b60008161311957613119612e8b565b50600019019056fea26469706673582212208a7a3ed55a7470efa15df2dbeb81d2bfec4995680acd2bdbb390d34e1a46f5fd64736f6c63430008140033","linkReferences":{}},"methodIdentifiers":{"BLOWUP_FACTOR()":"fda1293e","FRI_DOMAIN_SIZE()":"5cd3ce27","FRI_NUM_QUERIES()":"f3b1b9d1","MAX_PROOF_SIZE()":"d5d754eb","estimateVerificationGas(uint256)":"ccaaac44","getLock(bytes32)":"d6f27b58","getVerificationMode()":"f6f32ac5","isQuantumResistant()":"6f173079","lock(bytes32)":"01670ba9","locks(bytes32)":"ed5e8437","nonceCounter()":"de780bbd","owner()":"8da5cb5b","pause()":"8456cb59","paused()":"5c975abb","releaseWithProof((bytes32,bytes32,bool,uint64,address,uint256,bytes32),(bytes32,bytes,bytes32[]))":"3e153802","setVerificationLevel(bool)":"6f6607fa","setVerifier(address)":"5437988d","totalLocked()":"56891412","transferOwnership(address)":"f2fde38b","unpause()":"3f4ba83a","useLevel2Verification()":"2de4b513","usedNonces(uint256)":"6717e41c","usedProofCommitments(bytes32)":"b1a9c8e5","verifier()":"2b7ac3f3"},"id":6}