{"abi":[{"type":"constructor","inputs":[],"stateMutability":"nonpayable"},{"type":"receive","stateMutability":"payable"},{"type":"function","name":"BLOWUP_FACTOR","inputs":[],"outputs":[{"name":"","type":"uint256","internalType":"uint256"}],"stateMutability":"view"},{"type":"function","name":"FRI_DOMAIN_SIZE","inputs":[],"outputs":[{"name":"","type":"uint256","internalType":"uint256"}],"stateMutability":"view"},{"type":"function","name":"FRI_NUM_QUERIES","inputs":[],"outputs":[{"name":"","type":"uint256","internalType":"uint256"}],"stateMutability":"view"},{"type":"function","name":"MAX_PROOF_SIZE","inputs":[],"outputs":[{"name":"","type":"uint256","internalType":"uint256"}],"stateMutability":"view"},{"type":"function","name":"estimateVerificationGas","inputs":[{"name":"proofSize","type":"uint256","internalType":"uint256"}],"outputs":[{"name":"","type":"uint256","internalType":"uint256"}],"stateMutability":"pure"},{"type":"function","name":"getLock","inputs":[{"name":"lockId","type":"bytes32","internalType":"bytes32"}],"outputs":[{"name":"sender","type":"address","internalType":"address"},{"name":"amount","type":"uint256","internalType":"uint256"},{"name":"dilithiumPubKeyHash","type":"bytes32","internalType":"bytes32"},{"name":"timestamp","type":"uint256","internalType":"uint256"},{"name":"released","type":"bool","internalType":"bool"}],"stateMutability":"view"},{"type":"function","name":"getVerificationMode","inputs":[],"outputs":[{"name":"","type":"string","internalType":"string"}],"stateMutability":"view"},{"type":"function","name":"isQuantumResistant","inputs":[],"outputs":[{"name":"","type":"bool","internalType":"bool"}],"stateMutability":"pure"},{"type":"function","name":"lock","inputs":[{"name":"dilithiumPubKeyHash","type":"bytes32","internalType":"bytes32"}],"outputs":[{"name":"lockId","type":"bytes32","internalType":"bytes32"}],"stateMutability":"payable"},{"type":"function","name":"locks","inputs":[{"name":"","type":"bytes32","internalType":"bytes32"}],"outputs":[{"name":"sender","type":"address","internalType":"address"},{"name":"amount","type":"uint256","internalType":"uint256"},{"name":"dilithiumPubKeyHash","type":"bytes32","internalType":"bytes32"},{"name":"timestamp","type":"uint256","internalType":"uint256"},{"name":"released","type":"bool","internalType":"bool"}],"stateMutability":"view"},{"type":"function","name":"nonceCounter","inputs":[],"outputs":[{"name":"","type":"uint256","internalType":"uint256"}],"stateMutability":"view"},{"type":"function","name":"owner","inputs":[],"outputs":[{"name":"","type":"address","internalType":"address"}],"stateMutability":"view"},{"type":"function","name":"pause","inputs":[],"outputs":[],"stateMutability":"nonpayable"},{"type":"function","name":"paused","inputs":[],"outputs":[{"name":"","type":"bool","internalType":"bool"}],"stateMutability":"view"},{"type":"function","name":"releaseWithProof","inputs":[{"name":"publicInputs","type":"tuple","internalType":"struct QuantumShield.PublicInputs","components":[{"name":"publicKeyHash","type":"bytes32","internalType":"bytes32"},{"name":"messageHash","type":"bytes32","internalType":"bytes32"},{"name":"signatureValid","type":"bool","internalType":"bool"},{"name":"nonce","type":"uint64","internalType":"uint64"},{"name":"recipient","type":"address","internalType":"address"},{"name":"amount","type":"uint256","internalType":"uint256"},{"name":"lockId","type":"bytes32","internalType":"bytes32"}]},{"name":"proof","type":"tuple","internalType":"struct QuantumShield.StarkProof","components":[{"name":"traceCommitment","type":"bytes32","internalType":"bytes32"},{"name":"friProof","type":"bytes","internalType":"bytes"},{"name":"queryResponses","type":"bytes32[]","internalType":"bytes32[]"}]}],"outputs":[],"stateMutability":"nonpayable"},{"type":"function","name":"setVerificationLevel","inputs":[{"name":"level2","type":"bool","internalType":"bool"}],"outputs":[],"stateMutability":"nonpayable"},{"type":"function","name":"setVerifier","inputs":[{"name":"_verifier","type":"address","internalType":"address"}],"outputs":[],"stateMutability":"nonpayable"},{"type":"function","name":"totalLocked","inputs":[],"outputs":[{"name":"","type":"uint256","internalType":"uint256"}],"stateMutability":"view"},{"type":"function","name":"transferOwnership","inputs":[{"name":"newOwner","type":"address","internalType":"address"}],"outputs":[],"stateMutability":"nonpayable"},{"type":"function","name":"unpause","inputs":[],"outputs":[],"stateMutability":"nonpayable"},{"type":"function","name":"useLevel2Verification","inputs":[],"outputs":[{"name":"","type":"bool","internalType":"bool"}],"stateMutability":"view"},{"type":"function","name":"usedNonces","inputs":[{"name":"","type":"uint256","internalType":"uint256"}],"outputs":[{"name":"","type":"bool","internalType":"bool"}],"stateMutability":"view"},{"type":"function","name":"usedProofCommitments","inputs":[{"name":"","type":"bytes32","internalType":"bytes32"}],"outputs":[{"name":"","type":"bool","internalType":"bool"}],"stateMutability":"view"},{"type":"function","name":"verifier","inputs":[],"outputs":[{"name":"","type":"address","internalType":"address"}],"stateMutability":"view"},{"type":"event","name":"EmergencyPaused","inputs":[{"name":"by","type":"address","indexed":true,"internalType":"address"}],"anonymous":false},{"type":"event","name":"EmergencyUnpaused","inputs":[{"name":"by","type":"address","indexed":true,"internalType":"address"}],"anonymous":false},{"type":"event","name":"Locked","inputs":[{"name":"lockId","type":"bytes32","indexed":true,"internalType":"bytes32"},{"name":"sender","type":"address","indexed":true,"internalType":"address"},{"name":"amount","type":"uint256","indexed":false,"internalType":"uint256"},{"name":"dilithiumPubKeyHash","type":"bytes32","indexed":false,"internalType":"bytes32"},{"name":"nonce","type":"uint256","indexed":false,"internalType":"uint256"}],"anonymous":false},{"type":"event","name":"OwnershipTransferred","inputs":[{"name":"previousOwner","type":"address","indexed":true,"internalType":"address"},{"name":"newOwner","type":"address","indexed":true,"internalType":"address"}],"anonymous":false},{"type":"event","name":"ProofVerified","inputs":[{"name":"lockId","type":"bytes32","indexed":true,"internalType":"bytes32"},{"name":"publicInputsHash","type":"bytes32","indexed":false,"internalType":"bytes32"},{"name":"gasUsed","type":"uint256","indexed":false,"internalType":"uint256"}],"anonymous":false},{"type":"event","name":"Released","inputs":[{"name":"lockId","type":"bytes32","indexed":true,"internalType":"bytes32"},{"name":"recipient","type":"address","indexed":true,"internalType":"address"},{"name":"amount","type":"uint256","indexed":false,"internalType":"uint256"}],"anonymous":false},{"type":"event","name":"VerifierUpdated","inputs":[{"name":"newVerifier","type":"address","indexed":true,"internalType":"address"}],"anonymous":false},{"type":"error","name":"CommitmentMismatch","inputs":[]},{"type":"error","name":"InsufficientAmount","inputs":[]},{"type":"error","name":"InvalidProof","inputs":[]},{"type":"error","name":"InvalidPublicInputs","inputs":[]},{"type":"error","name":"LockAlreadyReleased","inputs":[]},{"type":"error","name":"LockNotFound","inputs":[]},{"type":"error","name":"NonceAlreadyUsed","inputs":[]},{"type":"error","name":"NotOwner","inputs":[]},{"type":"error","name":"Paused","inputs":[]},{"type":"error","name":"ProofTooLarge","inputs":[]},{"type":"error","name":"SignatureNotValid","inputs":[]},{"type":"error","name":"TransferFailed","inputs":[]},{"type":"error","name":"ZeroAddress","inputs":[]}],"bytecode":{"object":"0x60808060405234610035576007805460ff19166001179055600080546001600160a01b03191633179055612d9c908161003b8239f35b600080fdfe60e080604052600436101561001d575b50361561001b57600080fd5b005b60003560e01c90816301670ba914610a1c575080632b7ac3f3146109f35780632de4b513146109d05780633e153802146105ed5780633f4ba83a146105975780635437988d1461052757806356891412146105095780635c975abb146104e35780635cd3ce27146104c55780636717e41c146104945780636f173079146104785780636f6607fa146104355780638456cb59146103d75780638da5cb5b146103ae578063b1a9c8e51461037d578063ccaaac441461031a578063d5d754eb146102fc578063d6f27b5814610270578063de780bbd146102de578063ed5e843714610270578063f2fde38b146101da578063f3b1b9d1146101be578063f6f32ac5146101535763fda1293e14610132573861000f565b3461014e57600036600319011261014e57602060405160088152f35b600080fd5b3461014e57600036600319011261014e5761016c611e9e565b6040519081602080825282519081818401526000935b8285106101a5575050604092506000838284010152601f80199101168101030190f35b8481018201518686016040015293810193859350610182565b3461014e57600036600319011261014e57602060405160508152f35b3461014e57602036600319011261014e576004356001600160a01b038181169182900361014e576000549081169081330361025e57821561024c576001600160a01b031916821760009081557f8be0079c531659141344cd1fd0a4f28419497f9722a3daafe3b4186f6b6457e09080a3005b60405163d92e233d60e01b8152600490fd5b6040516330cd747160e01b8152600490fd5b3461014e57602036600319011261014e5760048035600090815260208281526040918290208054600182015460028301546003840154939096015485516001600160a01b0390931683529382015292830193909352606082019290925260ff9091161515608082015260a090f35b3461014e57600036600319011261014e576020600254604051908152f35b3461014e57600036600319011261014e576020604051621000008152f35b3461014e57602036600319011261014e576004358060041b908082046010149015171561036757620186a09080820180921161036757623e8fa00180911161036757602090604051908152f35b634e487b7160e01b600052601160045260246000fd5b3461014e57602036600319011261014e576004356000526006602052602060ff604060002054166040519015158152f35b3461014e57600036600319011261014e576000546040516001600160a01b039091168152602090f35b3461014e57600036600319011261014e576000546001600160a01b038116330361025e5760ff60a01b1916600160a01b17600090815533907fb8fad2fa0ed7a383e747c309ef2c4391d7b65592a48893e57ccc1fab707914569080a2005b3461014e57602036600319011261014e5760043580151580910361014e576000546001600160a01b0316330361025e5760ff801960075416911617600755600080f35b3461014e57600036600319011261014e57602060405160018152f35b3461014e57602036600319011261014e576004356000526005602052602060ff604060002054166040519015158152f35b3461014e57600036600319011261014e576020604051620100008152f35b3461014e57600036600319011261014e57602060ff60005460a01c166040519015158152f35b3461014e57600036600319011261014e576020600154604051908152f35b3461014e57602036600319011261014e576004356001600160a01b038181169182900361014e5760005416330361025e57801561024c57600380546001600160a01b031916821790557fd24015cc99cc1700cafca3042840a1d8ac1e3964fd2e0e37ea29c654056ee327600080a2005b3461014e57600036600319011261014e576000546001600160a01b038116330361025e5760ff60a01b1916600055337ff5cbf596165cc457b2cd92e8d8450827ee314968160a5696402d75766fc52caf600080a2005b3461014e57600319368101610100811261014e5760e01361014e5760e435906001600160401b03821161014e57606090823603011261014e5760ff60005460a01c166109be575a621000006106486024840184600401610c60565b9050116109ac576004351561096457602435156109645760c435156109645760a435156109645760c435600052600460205260406000209160018060a01b038354161561099a5760048301549160ff8316610988576004356002850154036109765760a435600185015403610964576044359283159384150361014e5783610952576001600160401b036106da610c92565b16600052600560205260ff60406000205416610941578260040135600052600660205260ff6040600020541661092f5761071683600401610d00565b1561092f5760ff199081166001176004860155610788926001600160401b0361073d610c92565b1660005260056020526040600020600183825416179055600401356000526006602052600160406000209182541617905561077e6001850154600154610ca8565b6001555a90610ca8565b90606435906001600160401b038216820361014e576084356001600160a01b038116810361014e5761081b9260405192600435602085015260243560408501521560f81b60608401526001600160401b0360c01b9060c01b1660618301526001600160601b03199060601b16606982015260a435607d82015260c435609d820152609d815261081681610baa565b611f54565b9060405191825260208201527f5218389e256f588f1b0c542d774ec9ba39106830c105126b25a30eab96afa3be604060c43592a26001600160a01b0361085f610cb5565b161561024c576000808080610872610cb5565b6001860154905af13d1561092a573d6001600160401b03811161091457604051906108a7601f8201601f191660200183610c32565b8152600060203d92013e5b156109025760016108c1610cb5565b9101546040519081526001600160a01b039091169060c435907fc8fa66dff4b9073528c3f1bf21a8dc9a18fdf09847e88e96188bc953aef519f090602090a3005b6040516312171d8360e31b8152600490fd5b634e487b7160e01b600052604160045260246000fd5b6108b2565b6040516309bde33960e01b8152600490fd5b604051623f613760e71b8152600490fd5b60405163401b4d9760e01b8152600490fd5b6040516319dcebfb60e21b8152600490fd5b604051635054097b60e01b8152600490fd5b604051632c04416160e01b8152600490fd5b604051636086ee6f60e11b8152600490fd5b604051630967beaf60e11b8152600490fd5b6040516313d0ff5960e31b8152600490fd5b3461014e57600036600319011261014e57602060ff600754166040519015158152f35b3461014e57600036600319011261014e576003546040516001600160a01b039091168152602090f35b6020908160031936011261014e576004359060ff60005460a01c16610b7157503415610b5f5760025490610a4f82610b80565b600255610a856040513360601b858201523460348201528260548201528360748201524260948201526094815261081681610baa565b9160405160a081018181106001600160401b038211176109145760405233815260048582019134835260408101858152606082019042825260808301946000865288600052848a5260406000209360018060a01b039051166001600160601b0360a01b855416178455516001840155516002830155516003820155019051151560ff80198354169116179055610b1d34600154610c53565b60015560405191348352848301526040820152817f90b4652709ecf95c465dbc53abc979fad77829d2ccc7fe10e6e0815f9b4f303860603393a3604051908152f35b604051632ca2f52b60e11b8152600490fd5b6313d0ff5960e31b8152600490fd5b60001981146103675760010190565b606081019081106001600160401b0382111761091457604052565b60c081019081106001600160401b0382111761091457604052565b602081019081106001600160401b0382111761091457604052565b604081019081106001600160401b0382111761091457604052565b61032081019081106001600160401b0382111761091457604052565b60a081019081106001600160401b0382111761091457604052565b90601f801991011681019081106001600160401b0382111761091457604052565b9190820180921161036757565b903590601e198136030182121561014e57018035906001600160401b03821161014e5760200191813603831361014e57565b6064356001600160401b038116810361014e5790565b9190820391821161036757565b6084356001600160a01b038116810361014e5790565b903590601e198136030182121561014e57018035906001600160401b03821161014e57602001918160051b3603831361014e57565b6003546001600160a01b039190821680610d365750905060ff60075416610d2d57610d2a90610ef9565b90565b610d2a90611511565b6044359283151580940361014e576064356001600160401b038116810361014e57608435918216820361014e57610dca916040519160209660043588850152602435604085015260f81b60608401526001600160401b0360c01b9060c01b1660618301526001600160601b03199060601b16606982015260a435607d82015260c435609d820152609d815261081681610baa565b90610dd784840184610c60565b939084610de76040840184610ccb565b92909360405196631358580f60e11b885260048801523560248701526080604487015281608487015260a48601376000948560a48287010152601f801991011684019060a08583030160648601528060a483015260018060fb1b038111610ec25760c4858094899694829460051b809285830137010301915afa928315610eb7578293610e75575b50505090565b9080929350813d8311610eb0575b610e8d8183610c32565b81010312610eac5751908115158203610ea95750388080610e6f565b80fd5b5080fd5b503d610e83565b6040513d84823e3d90fd5b8580fd5b90821015610ed2570190565b634e487b7160e01b600052603260045260246000fd5b60ff1660ff81146103675760010190565b8035908115611252576020908181019082610f148383610c60565b90501061124957610f258282610c60565b15610ed257359360f89385851c958615801561123f575b6112335760f31c93611fe060e08616951685036103675760019485019360ff948581116103675785610f6e8484610c60565b929050161161122657604096878201986050610f8a8b85610ccb565b9050106111b857600080895b6111c7575b50156111b85760443598891515809a0361014e57606435966001600160401b038816880361014e576084356001600160a01b038116810361014e578251906004998a358a84015260249d8e3586850152871b60608401526001600160401b0360c01b9060c01b1660618301526001600160601b03199060601b16606982015260a435607d82015260c435609d820152609d815261103781610baa565b61104090611f54565b825191888301528282015281815261105781610b8f565b61106090611f54565b9060009b61106e8187610ccb565b9050611161575b5050508796876000985b611092575b505050505050505050505090565b82828a16108061112e575b15611129576000805b8b8982106110fe575050156110ed578681018091116110d957906110ce8a9594939299610ee8565b98909192939461107f565b8a601189634e487b7160e01b600052526000fd5b505050505050505050505050600090565b909161111661110d8a8a610c60565b85870191610ec6565b35871c83601f0360031b1b1791016110a6565b611084565b5086810180821161114d576111438787610c60565b919050111561109d565b8b60118a634e487b7160e01b600052526000fd5b61117090869d9293949d610ccb565b919091156111a6575091818a959493611199935192898401523581830152815261081681610b8f565b1515999091923880611075565b634e487b7160e01b8152603289528b90fd5b50505050505050505050600090565b6111d18c86610ccb565b905081108061121e575b15611219576111ea8c86610ccb565b8291921015610ed2578a918160051b013561120f575b61120990610b80565b90610f96565b9091508190611200565b610f9b565b5081156111db565b5050505050505050600090565b50505050505050600090565b5060148711610f3c565b50505050600090565b5050600090565b80359081156112525760209081810190826112748383610c60565b905010611249576112858282610c60565b15610ed257359360f89385851c9586158015611507575b6112335760f31c93611fe060e08616951685036103675760019485019360ff9485811161036757856112ce8484610c60565b9290501611611226576040968782019860506112ea8b85610ccb565b9050106111b857600080895b6114a8575b50156111b85760443598891515809a0361014e57611317610c92565b96611320610cb5565b8251906004998a358a84015260249d8e3586850152871b60608401526001600160401b0360c01b9060c01b1660618301526001600160601b03199060601b16606982015260a435607d82015260c435609d820152609d815261138181610baa565b61138a90611f54565b82519188830152828201528181526113a181610b8f565b6113aa90611f54565b9060009b6113b88187610ccb565b9050611463575b5050508796876000985b6113db57505050505050505050505090565b82828a161080611444575b15611129576000805b8b898210611422575050156110ed578681018091116110d957906114178a9594939299610ee8565b9890919293946113c9565b909161143161110d8a8a610c60565b35871c83601f0360031b1b1791016113ef565b5086810180821161114d576114598787610c60565b91905011156113e6565b61147290869d9293949d610ccb565b919091156111a6575091818a95949361149b935192898401523581830152815261081681610b8f565b15159990919238806113bf565b6114b28c86610ccb565b90508110806114ff575b156114fa576114cb8c86610ccb565b8291921015610ed2578a918160051b01356114f0575b6114ea90610b80565b906112f6565b90915081906114e1565b6112fb565b5081156114bc565b506014871161129c565b61151a81611259565b1561154157806115396115336020610d2a940183610c60565b90611a70565b90359061155b565b50600090565b8051821015610ed25760209160051b010190565b8051519081156115d957601082116115d957604081019160508351511061124957602082015151036115d95760005b825180518210156115bd576115a2826115aa92611547565b51858461160a565b15611249576115b890610b80565b61158a565b50506004925060609150015151116115d457600190565b600090565b505050600090565b80156115f45767ffffffff000000000490565b634e487b7160e01b600052601260045260246000fd5b909282519062010000946000955b845151871015611872576020808701805151916001948a861b928b15946002948d8104861487171561036757888101918282116103675782101561185f5782916116688f94926116709351611547565b519251611547565b519561167b886119ce565b808402938404141715610367576040808d0151611697896119ce565b936116a185611a0a565b9460008c5b611809575b5050505090816116cf929e9c9d9e5191868301528781830152815261081681610b8f565b9087808b811c926000925b6117a7575b505050500361179857876116f5918a0151611547565b506117108661170b611706866115e1565b61193a565b611985565b5067ffffffff0000000180928103116103675767fffffffeffffffff908490825b6117715750505050611744858751611547565b51911c9283156115f457839006938551516000198101116103675761176890610b80565b95949392611618565b828487808296161461178c575b50861c928184920990611731565b9092829009918361177e565b50505050509350505050600090565b909192938151841015611800576117de908584166117e6576117d4906117cd8685611547565b5190612d19565b945b831c93610b80565b9190816116da565b6117fa906117f48685611547565b51612d19565b946117d6565b938291506116df565b8181108061184c575b1561184757611841816118308f9361182a9087610c53565b87611547565b5161183b828b611547565b52610b80565b906116a6565b6116ab565b506118578184610c53565b845111611812565b5050505050505050509350505050600090565b939195505060609193500151908151156115d95761189f9261170b611706611899936115e1565b906118a5565b50600190565b80519081156115d95760001991808301908111610367576118c69082611547565b519281518381019081116103675792916000845b6118e657505050505090565b949293946115f45783850185811161036757611903839183611547565b5160009467ffffffff0000000192839109089480156119265784019392846118da565b634e487b7160e01b84526011600452602484fd5b6001600781835b61194c575050905090565b8080851614611971575b67ffffffff000000019293811c928284930992939291611941565b67ffffffff00000001828194099250611956565b600190828267ffffffff00000001809306915b6119a457505050905090565b80808616146119c2575b829394811c92828493099294939291611998565b828281950993506119ae565b6000905b600190818111156119ee576119e8911c91610b80565b906119d2565b505090565b6001600160401b0381116109145760051b60200190565b90611a14826119f3565b611a216040519182610c32565b8281528092611a32601f19916119f3565b0190602036910137565b60405190608082018281106001600160401b0382111761091457604052606080838181528160208201528160408201520152565b90611a79611a3c565b50611a82611a3c565b918115611e415780359060f89082821c93611fe08460f31c1694602094818704861482151715610367576001968701808811610367578310611de557611ac782611a0a565b885286611ad383611a0a565b878a019081528193826000905b611d52575b506000925b611c7a575b50505082821015611c5f57611b11611b08838587610ec6565b35861c92610b80565b91611b1b816119f3565b90604090611b2b82519384610c32565b808352601f19611b3a826119f3565b018960005b828110611c3757505050818b0192835260009360f71c908a6101fe60fe84169316831415905b611bca575b5050505050505b60405195611b7e87610be0565b8652843681880137606087019586528111611b9c575b505050505090565b60001981019080821161036757611bb292610ec6565b35901c9151805115610ed25701523880808080611b94565b60ff861682811015611c31578181611be3818951611547565b5152610367578c96611c2b918d611bf987611a0a565b90611c05838b51611547565b51015286611c23815192611c1884610bc5565b600084528a51611547565b510152610ee8565b95611b65565b50611b6a565b8451611c4281610b8f565b600081526060808483015286820152828288010152018a90611b3f565b50604051611c6c81610bc5565b600081526040880152611b71565b60ff8395931681811015611d4957600090818c5b611cda575b50611c9f908451611547565b52888301808411610367578610611ccb5788830180931161036757611cc58a9395610ee8565b92611aea565b50505090508190388080611aef565b918b831080611d37575b15611d3157611cfd611cf68488610c53565b8a8c610ec6565b358b1c908360031b84810460081485151715610367578c03908c8211610367578e92611d2b921b1793610b80565b90611c8e565b91611c93565b5088611d438488610c53565b10611ce4565b50829450611aef565b949091925060ff85168a83821015611ddb5750600090815b8b8110611d9c5750611d7d908d51611547565b5288810180911161036757611d938a9195610ee8565b81939291611ae0565b91611daa611cf68486610c53565b358b1c908360031b84810460081485151715610367578c03918c831161036757611dd6921b1792610b80565b611d6a565b9392919550611ae5565b5050505050604051611df681610bc5565b600081528352604051611e0881610bc5565b6000815281840152604051611e1c81610bc5565b60008152604084015260405191611e3283610be0565b82523681830137606082015290565b5050604051611e4f81610bc5565b600081528152604051611e6181610bc5565b600081526020820152604051611e7681610bc5565b600081526040820152604051611e8b81610be0565b6001815260203681830137606082015290565b6003546001600160a01b0316611f165760ff60075416611ee757604051611ec481610be0565b60138152724e41544956455f535441524b5f4c4556454c3160681b602082015290565b604051611ef381610be0565b60138152722720aa24ab22afa9aa20a925afa622ab22a61960691b602082015290565b604051611f2281610be0565b601181527022ac2a22a92720a62fab22a924a324a2a960791b602082015290565b906019811015610ed25760051b0190565b6000608052604051611f6581610bfb565b61032036823760805280516001810180821161036757608890049160018301831161036757600092915b60018301841061210557505050506080516001600160401b038151166fffffffffffffffff0000000000000000602083015160401b161760408201519160606001600160401b0360c01b91015160c01b16916001600160401b0360801b9060801b1617177eff00ff00ff00ff00ff00ff00ff00ff00ff00ff00ff00ff00ff00ff00ff00ff7fff00ff00ff00ff00ff00ff00ff00ff00ff00ff00ff00ff00ff00ff00ff00ff008260081b169160081c16177dffff0000ffff0000ffff0000ffff0000ffff0000ffff0000ffff0000ffff7fffff0000ffff0000ffff0000ffff0000ffff0000ffff0000ffff0000ffff00008260101b169160101c16177bffffffff00000000ffffffff00000000ffffffff00000000ffffffff7fffffffff00000000ffffffff00000000ffffffff00000000ffffffff000000008260201b169160201c161777ffffffffffffffff0000000000000000ffffffffffffffff80198260401b169160401c16178060801b9060801c1790565b909192938460888102046088148515171561036757936000935b601185101561223857600090815b60088310156121f5578660031b87810460081488151715610367578361215961215e9260888802610c53565b610c53565b858110156121ad578651811015610ed25786016020015160f81c905b8360031b9184830460081485151715610367576121a79260ff6001600160401b039216901b161792610b80565b9161212d565b8086036121bd575060069061217a565b6088808602018060888702116103675760876088870201116103675760888502608701036121ed5760809061217a565b60009061217a565b61222f92509692969590956001600160401b03908161221684608051611f43565b5116189061222683608051611f43565b91169052610b80565b9394909461211f565b935091909161032060405161224c81610bfb565b36903760405161225b81610c17565b60a03682376040519061226d82610c17565b60a036833760405161032081018181106001600160401b03821117610914576040526000815260016020820152603e6040820152601c6060820152601b6080820152602460a0820152602c60c0820152600660e0820152603761010082015260146101208201526003610140820152600a610160820152602b61018082015260196101a082015260276101c082015260296101e0820152602d610200820152600f61022082015260156102408201526008610260820152601261028082015260026102a0820152603d6102c082015260386102e0820152600e6103008201526040518060c052806103008101106001600160401b036103008301111761091457806103006001920160405252618082602060c051015267800000000000808a604060c0510152678000000080008000606060c051015261808b608060c0510152638000000160a060c051015267800000008000808160c08051015267800000000000800960e060c0510152608a61010060c0510152608861012060c0510152638000800961014060c0510152638000000a61016060c0510152638000808b61018060c051015267800000000000008b6101a060c05101526780000000000080896101c060c05101526780000000000080036101e060c051015267800000000000800261020060c051015267800000000000008061022060c051015261800a61024060c051015267800000008000000a61026060c051015267800000008000808161028060c05101526780000000000080806102a060c051015263800000016102c060c05101526780000000800080086102e060c05101526000915b601883106124e857505050506124df600191610b80565b93929050611f8f565b9491966001600160401b03608099929794995181610280818351168260a08501511618826101408501511618826101e0850151161892015116181686526080516001600160401b036102a0816020840151168260c0850151161882610160850151161882610200850151161892015116186001600160401b03811660208801526001600160401b03608051816102c0816040840151168260e0850151161882610180850151161882610220850151161892015116181660408801526001600160401b03608051816102e081606084015116826101008501511618826101a0850151161882610240850151161892015116181660608801526001600160401b0380806080518161030081608084015116826101208501511618826101c085015116188261026085015116189201511618168060808b015281600185603f1c1667fffffffffffffffe8660011b16178218168d528c6020838c612666826040818451169301511667fffffffffffffffe600182603f1c169160011b161790565b18169101528c6040838c61269a826060816020850151169301511667fffffffffffffffe600182603f1c169160011b161790565b18169101528c6060838c6126ce826080816040850151169301511667fffffffffffffffe600182603f1c169160011b161790565b18169101528c6080838c6126ff828060608401511692511667fffffffffffffffe600182603f1c169160011b161790565b18169101526080519367fffffffffffffffe600182603f1c169160011b1617181681835116181690526001600160401b0360208a0151166001600160401b036020608051019181835116181690526001600160401b0360408a0151166001600160401b036040608051019181835116181690526001600160401b0360608a0151166001600160401b036060608051019181835116181690526001600160401b0360808a0151166001600160401b0360808051019181835116181690526001600160401b038951166001600160401b0360a0608051019181835116181690526001600160401b0360208a0151166001600160401b0360c0608051019181835116181690526001600160401b0360408a0151166001600160401b0360e0608051019181835116181690526001600160401b0360608a0151166001600160401b03610100608051019181835116181690526001600160401b0360808a0151166001600160401b03610120608051019181835116181690526001600160401b038951166001600160401b03610140608051019181835116181690526001600160401b0360208a0151166001600160401b03610160608051019181835116181690526001600160401b0360408a0151166001600160401b03610180608051019181835116181690526001600160401b0360608a0151166001600160401b036101a0608051019181835116181690526001600160401b0360808a0151166001600160401b036101c0608051019181835116181690526001600160401b038951166001600160401b036101e0608051019181835116181690526001600160401b0360208a0151166001600160401b03610200608051019181835116181690526001600160401b0360408a0151166001600160401b03610220608051019181835116181690526001600160401b0360608a0151166001600160401b03610240608051019181835116181690526001600160401b0360808a0151166001600160401b03610260608051019181835116181690526001600160401b038951166001600160401b03610280608051019181835116181690526001600160401b0360208a0151166001600160401b036102a0608051019181835116181690526001600160401b0360408a0151166001600160401b036102c0608051019181835116181690526001600160401b0360608a0151166001600160401b036102e0608051019181835116181690526001600160401b0360808a0151166001600160401b0361030060805101918183511618169052612ab36040518060a052610bfb565b6103203660a0513760005b60198110612c7a575060005b600580821015612c3a578082810204820361036757612aed82820260a051611f43565b5190828102600181011061036757612b0c60018483020160a051611f43565b51818402600281011061036757612b2a60028584020160a051611f43565b5191848102600381011061036757612b4960038683020160a051611f43565b516004919086820280840110612c2557926001600160401b03612c128489858985998787612c209f9e81819f9d612b89829e918a8493020160a051611f43565b519681612b9a8b8b02608051611f43565b961619161691161816905286612bb7600186860201608051611f43565b9a16998780838d191616818b16181690528680612bdb600287870201608051611f43565b92169a81848d191616181690528580612bfb600386860201608051611f43565b921699818d8c191616181690520201608051611f43565b951619161618169052610b80565b612aca565b601183634e487b7160e01b6000525260246000fd5b505096612c749098939691989592956001600160401b038160051b60c0510151166001600160401b03608051918183511618169052610b80565b916124c8565b600581066001600160ff1b0381169003610367576003600582048102046005820403610367576005612cb681830460030282840660011b610c53565b0690612ce26001600160401b03612ccf83608051611f43565b5116612cdb838c611f43565b5190612d38565b6005838102048303610367576001600160401b03612226612d0c612d149560050260058604610c53565b60a051611f43565b612abe565b610d2a9160405191602083015260408201526040815261081681610b8f565b8115612d61576001600160401b038091168260400360408111610367578183911c16921b161790565b90509056fea264697066735822122099feda1a6d58de239e9042afa710ed5e565058f0ae0c9af0ecd8dd19bc125e3864736f6c63430008140033","linkReferences":{}},"methodIdentifiers":{"BLOWUP_FACTOR()":"fda1293e","FRI_DOMAIN_SIZE()":"5cd3ce27","FRI_NUM_QUERIES()":"f3b1b9d1","MAX_PROOF_SIZE()":"d5d754eb","estimateVerificationGas(uint256)":"ccaaac44","getLock(bytes32)":"d6f27b58","getVerificationMode()":"f6f32ac5","isQuantumResistant()":"6f173079","lock(bytes32)":"01670ba9","locks(bytes32)":"ed5e8437","nonceCounter()":"de780bbd","owner()":"8da5cb5b","pause()":"8456cb59","paused()":"5c975abb","releaseWithProof((bytes32,bytes32,bool,uint64,address,uint256,bytes32),(bytes32,bytes,bytes32[]))":"3e153802","setVerificationLevel(bool)":"6f6607fa","setVerifier(address)":"5437988d","totalLocked()":"56891412","transferOwnership(address)":"f2fde38b","unpause()":"3f4ba83a","useLevel2Verification()":"2de4b513","usedNonces(uint256)":"6717e41c","usedProofCommitments(bytes32)":"b1a9c8e5","verifier()":"2b7ac3f3"},"id":26}