{"abi":[{"type":"constructor","inputs":[{"name":"_stakingContract","type":"address","internalType":"address"},{"name":"_registryContract","type":"address","internalType":"address"},{"name":"admin","type":"address","internalType":"address"}],"stateMutability":"nonpayable"},{"type":"receive","stateMutability":"payable"},{"type":"function","name":"ADMIN_ROLE","inputs":[],"outputs":[{"name":"","type":"bytes32","internalType":"bytes32"}],"stateMutability":"view"},{"type":"function","name":"DEFAULT_ADMIN_ROLE","inputs":[],"outputs":[{"name":"","type":"bytes32","internalType":"bytes32"}],"stateMutability":"view"},{"type":"function","name":"FORCE_INCLUSION_FEE","inputs":[],"outputs":[{"name":"","type":"uint256","internalType":"uint256"}],"stateMutability":"view"},{"type":"function","name":"FORCE_INCLUSION_TIMEOUT","inputs":[],"outputs":[{"name":"","type":"uint256","internalType":"uint256"}],"stateMutability":"view"},{"type":"function","name":"HEARTBEAT_INTERVAL","inputs":[],"outputs":[{"name":"","type":"uint256","internalType":"uint256"}],"stateMutability":"view"},{"type":"function","name":"MAX_CONSECUTIVE_MISSES","inputs":[],"outputs":[{"name":"","type":"uint256","internalType":"uint256"}],"stateMutability":"view"},{"type":"function","name":"SEQUENCER_ROLE","inputs":[],"outputs":[{"name":"","type":"bytes32","internalType":"bytes32"}],"stateMutability":"view"},{"type":"function","name":"SUSPENSION_DURATION","inputs":[],"outputs":[{"name":"","type":"uint256","internalType":"uint256"}],"stateMutability":"view"},{"type":"function","name":"checkAndRotate","inputs":[],"outputs":[],"stateMutability":"nonpayable"},{"type":"function","name":"executeForceInclusion","inputs":[{"name":"txHash","type":"bytes32","internalType":"bytes32"}],"outputs":[],"stateMutability":"nonpayable"},{"type":"function","name":"getForceInclusionRequest","inputs":[{"name":"txHash","type":"bytes32","internalType":"bytes32"}],"outputs":[{"name":"","type":"tuple","internalType":"struct ISequencerHealth.ForceInclusionRequest","components":[{"name":"txHash","type":"bytes32","internalType":"bytes32"},{"name":"requester","type":"address","internalType":"address"},{"name":"requestTime","type":"uint256","internalType":"uint256"},{"name":"deadline","type":"uint256","internalType":"uint256"},{"name":"executed","type":"bool","internalType":"bool"}]}],"stateMutability":"view"},{"type":"function","name":"getHealthInfo","inputs":[{"name":"sequencer","type":"address","internalType":"address"}],"outputs":[{"name":"","type":"tuple","internalType":"struct ISequencerHealth.SequencerHealthInfo","components":[{"name":"status","type":"uint8","internalType":"enum ISequencerHealth.HealthStatus"},{"name":"lastHeartbeat","type":"uint256","internalType":"uint256"},{"name":"consecutiveMisses","type":"uint256","internalType":"uint256"},{"name":"totalMisses","type":"uint256","internalType":"uint256"},{"name":"suspendedUntil","type":"uint256","internalType":"uint256"}]}],"stateMutability":"view"},{"type":"function","name":"getHealthStats","inputs":[],"outputs":[{"name":"healthy","type":"uint256","internalType":"uint256"},{"name":"total","type":"uint256","internalType":"uint256"}],"stateMutability":"view"},{"type":"function","name":"getHealthStatus","inputs":[{"name":"sequencer","type":"address","internalType":"address"}],"outputs":[{"name":"","type":"uint8","internalType":"enum ISequencerHealth.HealthStatus"}],"stateMutability":"view"},{"type":"function","name":"getLastHeartbeat","inputs":[{"name":"sequencer","type":"address","internalType":"address"}],"outputs":[{"name":"","type":"uint256","internalType":"uint256"}],"stateMutability":"view"},{"type":"function","name":"getRoleAdmin","inputs":[{"name":"role","type":"bytes32","internalType":"bytes32"}],"outputs":[{"name":"","type":"bytes32","internalType":"bytes32"}],"stateMutability":"view"},{"type":"function","name":"grantRole","inputs":[{"name":"role","type":"bytes32","internalType":"bytes32"},{"name":"account","type":"address","internalType":"address"}],"outputs":[],"stateMutability":"nonpayable"},{"type":"function","name":"hasRole","inputs":[{"name":"role","type":"bytes32","internalType":"bytes32"},{"name":"account","type":"address","internalType":"address"}],"outputs":[{"name":"","type":"bool","internalType":"bool"}],"stateMutability":"view"},{"type":"function","name":"isForceInclusionOverdue","inputs":[{"name":"txHash","type":"bytes32","internalType":"bytes32"}],"outputs":[{"name":"","type":"bool","internalType":"bool"}],"stateMutability":"view"},{"type":"function","name":"isHeartbeatCurrent","inputs":[{"name":"sequencer","type":"address","internalType":"address"}],"outputs":[{"name":"","type":"bool","internalType":"bool"}],"stateMutability":"view"},{"type":"function","name":"recoverSequencer","inputs":[{"name":"sequencer","type":"address","internalType":"address"}],"outputs":[],"stateMutability":"nonpayable"},{"type":"function","name":"registryContract","inputs":[],"outputs":[{"name":"","type":"address","internalType":"contract ISequencerRegistry"}],"stateMutability":"view"},{"type":"function","name":"renounceRole","inputs":[{"name":"role","type":"bytes32","internalType":"bytes32"},{"name":"callerConfirmation","type":"address","internalType":"address"}],"outputs":[],"stateMutability":"nonpayable"},{"type":"function","name":"requestForceInclusion","inputs":[{"name":"txHash","type":"bytes32","internalType":"bytes32"}],"outputs":[],"stateMutability":"payable"},{"type":"function","name":"revokeRole","inputs":[{"name":"role","type":"bytes32","internalType":"bytes32"},{"name":"account","type":"address","internalType":"address"}],"outputs":[],"stateMutability":"nonpayable"},{"type":"function","name":"rotationContract","inputs":[],"outputs":[{"name":"","type":"address","internalType":"address"}],"stateMutability":"view"},{"type":"function","name":"setHeartbeatInterval","inputs":[{"name":"","type":"uint256","internalType":"uint256"}],"outputs":[],"stateMutability":"view"},{"type":"function","name":"setRotationContract","inputs":[{"name":"rotation","type":"address","internalType":"address"}],"outputs":[],"stateMutability":"nonpayable"},{"type":"function","name":"setSlashingContract","inputs":[{"name":"slashing","type":"address","internalType":"address"}],"outputs":[],"stateMutability":"nonpayable"},{"type":"function","name":"slashingContract","inputs":[],"outputs":[{"name":"","type":"address","internalType":"address"}],"stateMutability":"view"},{"type":"function","name":"stakingContract","inputs":[],"outputs":[{"name":"","type":"address","internalType":"contract ISequencerStaking"}],"stateMutability":"view"},{"type":"function","name":"submitHeartbeat","inputs":[],"outputs":[],"stateMutability":"nonpayable"},{"type":"function","name":"supportsInterface","inputs":[{"name":"interfaceId","type":"bytes4","internalType":"bytes4"}],"outputs":[{"name":"","type":"bool","internalType":"bool"}],"stateMutability":"view"},{"type":"function","name":"suspendSequencer","inputs":[{"name":"sequencer","type":"address","internalType":"address"},{"name":"reason","type":"string","internalType":"string"}],"outputs":[],"stateMutability":"nonpayable"},{"type":"event","name":"AutoRotationTriggered","inputs":[{"name":"oldSequencer","type":"address","indexed":true,"internalType":"address"},{"name":"newSequencer","type":"address","indexed":true,"internalType":"address"}],"anonymous":false},{"type":"event","name":"ForceInclusionExecuted","inputs":[{"name":"txHash","type":"bytes32","indexed":true,"internalType":"bytes32"}],"anonymous":false},{"type":"event","name":"ForceInclusionRequested","inputs":[{"name":"txHash","type":"bytes32","indexed":true,"internalType":"bytes32"},{"name":"requester","type":"address","indexed":true,"internalType":"address"},{"name":"deadline","type":"uint256","indexed":false,"internalType":"uint256"}],"anonymous":false},{"type":"event","name":"HeartbeatMissed","inputs":[{"name":"sequencer","type":"address","indexed":true,"internalType":"address"},{"name":"missCount","type":"uint256","indexed":false,"internalType":"uint256"}],"anonymous":false},{"type":"event","name":"HeartbeatReceived","inputs":[{"name":"sequencer","type":"address","indexed":true,"internalType":"address"},{"name":"timestamp","type":"uint256","indexed":false,"internalType":"uint256"}],"anonymous":false},{"type":"event","name":"RoleAdminChanged","inputs":[{"name":"role","type":"bytes32","indexed":true,"internalType":"bytes32"},{"name":"previousAdminRole","type":"bytes32","indexed":true,"internalType":"bytes32"},{"name":"newAdminRole","type":"bytes32","indexed":true,"internalType":"bytes32"}],"anonymous":false},{"type":"event","name":"RoleGranted","inputs":[{"name":"role","type":"bytes32","indexed":true,"internalType":"bytes32"},{"name":"account","type":"address","indexed":true,"internalType":"address"},{"name":"sender","type":"address","indexed":true,"internalType":"address"}],"anonymous":false},{"type":"event","name":"RoleRevoked","inputs":[{"name":"role","type":"bytes32","indexed":true,"internalType":"bytes32"},{"name":"account","type":"address","indexed":true,"internalType":"address"},{"name":"sender","type":"address","indexed":true,"internalType":"address"}],"anonymous":false},{"type":"event","name":"SequencerRecovered","inputs":[{"name":"sequencer","type":"address","indexed":true,"internalType":"address"}],"anonymous":false},{"type":"event","name":"SequencerSuspended","inputs":[{"name":"sequencer","type":"address","indexed":true,"internalType":"address"},{"name":"reason","type":"string","indexed":false,"internalType":"string"}],"anonymous":false},{"type":"error","name":"AccessControlBadConfirmation","inputs":[]},{"type":"error","name":"AccessControlUnauthorizedAccount","inputs":[{"name":"account","type":"address","internalType":"address"},{"name":"neededRole","type":"bytes32","internalType":"bytes32"}]},{"type":"error","name":"ReentrancyGuardReentrantCall","inputs":[]}],"bytecode":{"object":"0x608060405234801562000010575f80fd5b5060405162001cdf38038062001cdf83398101604081905262000033916200022b565b60017f9b779b17422d0df92223018b32b4d1fa46e071723d6817e2486d003becc55f00556001600160a01b038316620000a55760405162461bcd60e51b815260206004820152600f60248201526e496e76616c6964207374616b696e6760881b60448201526064015b60405180910390fd5b6001600160a01b038216620000f05760405162461bcd60e51b815260206004820152601060248201526f496e76616c696420726567697374727960801b60448201526064016200009c565b600180546001600160a01b038086166001600160a01b03199283161790925560028054928516929091169190911790556200012c5f8262000163565b50620001597fa49807205ce4d355092ef5a8a18f56e8913cf4a201fbe287825b095693c217758262000163565b5050505062000272565b5f828152602081815260408083206001600160a01b038516845290915281205460ff1662000206575f838152602081815260408083206001600160a01b03861684529091529020805460ff19166001179055620001bd3390565b6001600160a01b0316826001600160a01b0316847f2f8788117e7eff1d82e926ec794901d17c78024a50270940304540a733656f0d60405160405180910390a450600162000209565b505f5b92915050565b80516001600160a01b038116811462000226575f80fd5b919050565b5f805f606084860312156200023e575f80fd5b62000249846200020f565b925062000259602085016200020f565b915062000269604085016200020f565b90509250925092565b611a5f80620002805f395ff3fe6080604052600436106101f4575f3560e01c806368dc18dc11610108578063a43295cb1161009d578063d547741f1161006d578063d547741f14610697578063dbc76e63146106b6578063ee99205c146106d5578063f1cdfa1f146106f4578063f31e397414610720575f80fd5b8063a43295cb1461062b578063a723192a14610645578063aa48cae814610659578063cab3a58114610678575f80fd5b80637946f60e116100d85780637946f60e146105b15780638e98ede5146105d057806391d14854146105f9578063a217fddf14610618575f80fd5b806368dc18dc1461051c5780636af4f7251461053b57806371a99c221461057257806375b238fc14610591575f80fd5b80632f2ff15d116101895780634672bb32116101595780634672bb32146103ba5780634842855c146103d957806349d25f441461040c5780635478afbe1461041f5780635ffa0aad14610434575f80fd5b80632f2ff15d1461035457806334d1c8fe1461037357806336568abe1461038757806337d0210f146103a6575f80fd5b8063248a9ca3116101c4578063248a9ca3146102cf57806328c1f99b1461030b5780632c00dddf1461032a5780632d151ab11461033e575f80fd5b806301ffc9a7146101ff5780630a7577c4146102335780630c505e511461025457806317e863ab1461028b575f80fd5b366101fb57005b5f80fd5b34801561020a575f80fd5b5061021e6102193660046116ca565b61073f565b60405190151581526020015b60405180910390f35b34801561023e575f80fd5b5061025261024d3660046116f1565b610775565b005b34801561025f575f80fd5b50600454610273906001600160a01b031681565b6040516001600160a01b03909116815260200161022a565b348015610296575f80fd5b506102c26102a536600461171c565b6001600160a01b03165f9081526005602052604090205460ff1690565b60405161022a919061176b565b3480156102da575f80fd5b506102fd6102e93660046116f1565b5f9081526020819052604090206001015490565b60405190815260200161022a565b348015610316575f80fd5b50600254610273906001600160a01b031681565b348015610335575f80fd5b506102fd600381565b348015610349575f80fd5b506102fd6201518081565b34801561035f575f80fd5b5061025261036e366004611779565b6108ba565b34801561037e575f80fd5b506102fd601e81565b348015610392575f80fd5b506102526103a1366004611779565b6108e4565b3480156103b1575f80fd5b5061025261091c565b3480156103c5575f80fd5b506102526103d436600461171c565b610a63565b3480156103e4575f80fd5b506102fd7fac4f1890dc96c9a02330d1fa696648a38f3b282d2449c2d8e6f10507488c84c881565b61025261041a3660046116f1565b610ae5565b34801561042a575f80fd5b506102fd610e1081565b34801561043f575f80fd5b506104d461044e3660046116f1565b6040805160a0810182525f80825260208201819052918101829052606081018290526080810191909152505f90815260066020908152604091829020825160a0810184528154815260018201546001600160a01b0316928101929092526002810154928201929092526003820154606082015260049091015460ff161515608082015290565b60405161022a9190815181526020808301516001600160a01b031690820152604080830151908201526060808301519082015260809182015115159181019190915260a00190565b348015610527575f80fd5b5061021e61053636600461171c565b610c9b565b348015610546575f80fd5b506102fd61055536600461171c565b6001600160a01b03165f9081526005602052604090206001015490565b34801561057d575f80fd5b5061025261058c3660046116f1565b610ccb565b34801561059c575f80fd5b506102fd5f80516020611a0a83398151915281565b3480156105bc575f80fd5b5061021e6105cb3660046116f1565b610d1c565b3480156105db575f80fd5b506105e4610d58565b6040805192835260208301919091520161022a565b348015610604575f80fd5b5061021e610613366004611779565b610dd8565b348015610623575f80fd5b506102fd5f81565b348015610636575f80fd5b506102fd662386f26fc1000081565b348015610650575f80fd5b50610252610e00565b348015610664575f80fd5b506102526106733660046117a7565b610f9b565b348015610683575f80fd5b5061025261069236600461171c565b611031565b3480156106a2575f80fd5b506102526106b1366004611779565b6110b3565b3480156106c1575f80fd5b50600354610273906001600160a01b031681565b3480156106e0575f80fd5b50600154610273906001600160a01b031681565b3480156106ff575f80fd5b5061071361070e36600461171c565b6110d7565b60405161022a9190611825565b34801561072b575f80fd5b5061025261073a36600461171c565b611182565b5f6001600160e01b03198216637965db0b60e01b148061076f57506301ffc9a760e01b6001600160e01b03198316145b92915050565b61077d61131b565b5f81815260066020526040902060028101546107d45760405162461bcd60e51b815260206004820152601160248201527014995c5d595cdd081b9bdd08199bdd5b99607a1b60448201526064015b60405180910390fd5b600481015460ff161561081c5760405162461bcd60e51b815260206004820152601060248201526f105b1c9958591e48195e1958dd5d195960821b60448201526064016107cb565b80600301544210156108675760405162461bcd60e51b8152602060048201526014602482015273111958591b1a5b99481b9bdd081c995858da195960621b60448201526064016107cb565b60048101805460ff1916600117905560405182907fc1ee31fd4c055bbb4e573d29fcb16b66aba6c8d8f02f5f9496e6b5e2a4692d34905f90a2506108b760015f805160206119ea83398151915255565b50565b5f828152602081905260409020600101546108d481611336565b6108de8383611340565b50505050565b6001600160a01b038116331461090d5760405163334bd91960e11b815260040160405180910390fd5b61091782826113cf565b505050565b5f5b6008548110156108b7575f6008828154811061093c5761093c611865565b5f9182526020808320909101546001600160a01b0316808352600590915260409091209091506002815460ff16600381111561097a5761097a611737565b148061099b57506003815460ff16600381111561099957610999611737565b145b156109a7575050610a5b565b601e81600101546109b8919061188d565b421115610a5857600281018054905f6109d0836118a0565b9091555050600381018054905f6109e6836118a0565b9190505550816001600160a01b03167f02aeeb893504a70dc825b25c87c043afd812f17f53d68f4524d77df8397bf8bf8260020154604051610a2a91815260200190565b60405180910390a26003816002015410610a4c57610a4782611438565b610a58565b805460ff191660011781555b50505b60010161091e565b5f80516020611a0a833981519152610a7a81611336565b6001600160a01b038216610ac25760405162461bcd60e51b815260206004820152600f60248201526e496e76616c6964206164647265737360881b60448201526064016107cb565b50600380546001600160a01b0319166001600160a01b0392909216919091179055565b610aed61131b565b662386f26fc10000341015610b375760405162461bcd60e51b815260206004820152601060248201526f496e73756666696369656e742066656560801b60448201526064016107cb565b5f8181526006602052604090206002015415610b895760405162461bcd60e51b8152602060048201526011602482015270105b1c9958591e481c995c5d595cdd1959607a1b60448201526064016107cb565b5f610b97620151804261188d565b6040805160a08101825284815233602080830182815242848601908152606085018781525f608087018181528b825260068652888220975188559351600180890180546001600160a01b0319166001600160a01b0390931692909217909155925160028801559051600387015591516004909501805460ff19169515159590951790945560078054948501815590527fa66cc928b5edb82af9bd49922954155ab7b0942694bea4ce44661d9a8736c6889092018690559151838152929350909184917fd3d4f440600d6cecf15d54393430dd55f4da1c59574d2dc0c840555d7f1e204b910160405180910390a3506108b760015f805160206119ea83398151915255565b6001600160a01b0381165f90815260056020526040812060010154610cc290601e9061188d565b42111592915050565b5f80516020611a0a833981519152610ce281611336565b60405162461bcd60e51b815260206004820152600f60248201526e496d6d757461626c6520696e20763160881b60448201526064016107cb565b5f818152600660205260408120600281015415801590610d415750600481015460ff16155b8015610d51575080600301544210155b9392505050565b6008545f90815b600854811015610dd3575f60055f60088481548110610d8057610d80611865565b5f9182526020808320909101546001600160a01b0316835282019290925260400190205460ff166003811115610db857610db8611737565b03610dcb5782610dc7816118a0565b9350505b600101610d5f565b509091565b5f918252602082815260408084206001600160a01b0393909316845291905290205460ff1690565b6001546040516366e305fd60e01b81523360048201526001600160a01b03909116906366e305fd90602401602060405180830381865afa158015610e46573d5f803e3d5ffd5b505050506040513d601f19601f82011682018060405250810190610e6a91906118b8565b610eaf5760405162461bcd60e51b81526020600482015260166024820152752737ba1032b634b3b4b136329039b2b8bab2b731b2b960511b60448201526064016107cb565b335f9081526009602052604090205460ff16610f1f576008805460018181019092557ff3f7a9fe364faab93b216da50a3214154f22a0a2b415b23a84c8169e8b636ee30180546001600160a01b031916339081179091555f908152600960205260409020805460ff191690911790555b335f908152600560205260408120600281019190915542600180830191909155815460ff166003811115610f5557610f55611737565b03610f6357805460ff191681555b60405142815233907f2624c5ddd479637e355601e00556cf1a10d44699d074ca9cf74a15fb4c6a263b9060200160405180910390a250565b5f80516020611a0a833981519152610fb281611336565b6001600160a01b0384165f908152600560205260409020805460ff19166002178155610fe0610e104261188d565b60048201556040516001600160a01b038616907f14a3af9f5d4cd6b194c42825175eb1331791502ed575bcc6d32fd52dd29aad489061102290879087906118d7565b60405180910390a25050505050565b5f80516020611a0a83398151915261104881611336565b6001600160a01b0382166110905760405162461bcd60e51b815260206004820152600f60248201526e496e76616c6964206164647265737360881b60448201526064016107cb565b50600480546001600160a01b0319166001600160a01b0392909216919091179055565b5f828152602081905260409020600101546110cd81611336565b6108de83836113cf565b6111056040805160a08101909152805f81526020015f81526020015f81526020015f81526020015f81525090565b6001600160a01b0382165f9081526005602052604090819020815160a081019092528054829060ff16600381111561113f5761113f611737565b600381111561115057611150611737565b815260018201546020820152600282015460408201526003820154606082015260049091015460809091015292915050565b6001600160a01b0381165f9081526005602052604090206111b05f80516020611a0a83398151915233610dd8565b611222576002815460ff1660038111156111cc576111cc611737565b1480156111dd575080600401544210155b6112225760405162461bcd60e51b815260206004820152601660248201527514dd5cdc195b9cda5bdb881b9bdd08195e1c1a5c995960521b60448201526064016107cb565b6001546040516366e305fd60e01b81526001600160a01b038481166004830152909116906366e305fd90602401602060405180830381865afa15801561126a573d5f803e3d5ffd5b505050506040513d601f19601f8201168201806040525081019061128e91906118b8565b6112c95760405162461bcd60e51b815260206004820152600c60248201526b4e6f7420656c696769626c6560a01b60448201526064016107cb565b805460ff191681555f60028201819055600482018190554260018301556040516001600160a01b038416917fe65d26da432e9bc2895758a26f277616a1633742d4f832b13f291cf78f49806a91a25050565b61132361165c565b60025f805160206119ea83398151915255565b6108b7813361168d565b5f61134b8383610dd8565b6113c8575f838152602081815260408083206001600160a01b03861684529091529020805460ff191660011790556113803390565b6001600160a01b0316826001600160a01b0316847f2f8788117e7eff1d82e926ec794901d17c78024a50270940304540a733656f0d60405160405180910390a450600161076f565b505f61076f565b5f6113da8383610dd8565b156113c8575f838152602081815260408083206001600160a01b0386168085529252808320805460ff1916905551339286917ff6391f5c32d9c69d2a47ea670b442974b53935d1edc7fd64eb21e047a839171b9190a450600161076f565b6001600160a01b0381165f908152600560205260409020805460ff19166002178155611466610e104261188d565b81600401819055505f60025f9054906101000a90046001600160a01b03166001600160a01b031663f4eba8426040518163ffffffff1660e01b81526004015f60405180830381865afa1580156114be573d5f803e3d5ffd5b505050506040513d5f823e601f3d908101601f191682016040526114e59190810190611929565b90505f805b82518110156115a657846001600160a01b031683828151811061150f5761150f611865565b60200260200101516001600160a01b03161415801561157857505f60055f85848151811061153f5761153f611865565b6020908102919091018101516001600160a01b031682528101919091526040015f205460ff16600381111561157657611576611737565b145b1561159e5782818151811061158f5761158f611865565b602002602001015191506115a6565b6001016114ea565b50806001600160a01b0316846001600160a01b03167f2d6bc5a6bc5325a2bfb21fc3c0b10a39c31afe834ba37c563f01ac7d01ee4d8060405160405180910390a3836001600160a01b03167f14a3af9f5d4cd6b194c42825175eb1331791502ed575bcc6d32fd52dd29aad4860405161164e906020808252818101527f4175746f2d726f746174696f6e3a206d69737365642068656172746265617473604082015260600190565b60405180910390a250505050565b5f805160206119ea8339815191525460020361168b57604051633ee5aeb560e01b815260040160405180910390fd5b565b6116978282610dd8565b6116c65760405163e2517d3f60e01b81526001600160a01b0382166004820152602481018390526044016107cb565b5050565b5f602082840312156116da575f80fd5b81356001600160e01b031981168114610d51575f80fd5b5f60208284031215611701575f80fd5b5035919050565b6001600160a01b03811681146108b7575f80fd5b5f6020828403121561172c575f80fd5b8135610d5181611708565b634e487b7160e01b5f52602160045260245ffd5b6004811061176757634e487b7160e01b5f52602160045260245ffd5b9052565b6020810161076f828461174b565b5f806040838503121561178a575f80fd5b82359150602083013561179c81611708565b809150509250929050565b5f805f604084860312156117b9575f80fd5b83356117c481611708565b9250602084013567ffffffffffffffff808211156117e0575f80fd5b818601915086601f8301126117f3575f80fd5b813581811115611801575f80fd5b876020828501011115611812575f80fd5b6020830194508093505050509250925092565b5f60a08201905061183782845161174b565b6020830151602083015260408301516040830152606083015160608301526080830151608083015292915050565b634e487b7160e01b5f52603260045260245ffd5b634e487b7160e01b5f52601160045260245ffd5b8082018082111561076f5761076f611879565b5f600182016118b1576118b1611879565b5060010190565b5f602082840312156118c8575f80fd5b81518015158114610d51575f80fd5b60208152816020820152818360408301375f818301604090810191909152601f909201601f19160101919050565b634e487b7160e01b5f52604160045260245ffd5b805161192481611708565b919050565b5f602080838503121561193a575f80fd5b825167ffffffffffffffff80821115611951575f80fd5b818501915085601f830112611964575f80fd5b81518181111561197657611976611905565b8060051b604051601f19603f8301168101818110858211171561199b5761199b611905565b6040529182528482019250838101850191888311156119b8575f80fd5b938501935b828510156119dd576119ce85611919565b845293850193928501926119bd565b9897505050505050505056fe9b779b17422d0df92223018b32b4d1fa46e071723d6817e2486d003becc55f00a49807205ce4d355092ef5a8a18f56e8913cf4a201fbe287825b095693c21775a26469706673582212200548a65a7e4f52fab102947fe6cc503a7a8a639028e3da1902024b743339d90964736f6c63430008180033","linkReferences":{}},"methodIdentifiers":{"ADMIN_ROLE()":"75b238fc","DEFAULT_ADMIN_ROLE()":"a217fddf","FORCE_INCLUSION_FEE()":"a43295cb","FORCE_INCLUSION_TIMEOUT()":"2d151ab1","HEARTBEAT_INTERVAL()":"34d1c8fe","MAX_CONSECUTIVE_MISSES()":"2c00dddf","SEQUENCER_ROLE()":"4842855c","SUSPENSION_DURATION()":"5478afbe","checkAndRotate()":"37d0210f","executeForceInclusion(bytes32)":"0a7577c4","getForceInclusionRequest(bytes32)":"5ffa0aad","getHealthInfo(address)":"f1cdfa1f","getHealthStats()":"8e98ede5","getHealthStatus(address)":"17e863ab","getLastHeartbeat(address)":"6af4f725","getRoleAdmin(bytes32)":"248a9ca3","grantRole(bytes32,address)":"2f2ff15d","hasRole(bytes32,address)":"91d14854","isForceInclusionOverdue(bytes32)":"7946f60e","isHeartbeatCurrent(address)":"68dc18dc","recoverSequencer(address)":"f31e3974","registryContract()":"28c1f99b","renounceRole(bytes32,address)":"36568abe","requestForceInclusion(bytes32)":"49d25f44","revokeRole(bytes32,address)":"d547741f","rotationContract()":"dbc76e63","setHeartbeatInterval(uint256)":"71a99c22","setRotationContract(address)":"4672bb32","setSlashingContract(address)":"cab3a581","slashingContract()":"0c505e51","stakingContract()":"ee99205c","submitHeartbeat()":"a723192a","supportsInterface(bytes4)":"01ffc9a7","suspendSequencer(address,string)":"aa48cae8"},"id":88}