{"abi":[{"type":"constructor","inputs":[],"stateMutability":"nonpayable"},{"type":"receive","stateMutability":"payable"},{"type":"function","name":"BLOWUP_FACTOR","inputs":[],"outputs":[{"name":"","type":"uint256","internalType":"uint256"}],"stateMutability":"view"},{"type":"function","name":"FRI_DOMAIN_SIZE","inputs":[],"outputs":[{"name":"","type":"uint256","internalType":"uint256"}],"stateMutability":"view"},{"type":"function","name":"FRI_NUM_QUERIES","inputs":[],"outputs":[{"name":"","type":"uint256","internalType":"uint256"}],"stateMutability":"view"},{"type":"function","name":"MAX_PROOF_SIZE","inputs":[],"outputs":[{"name":"","type":"uint256","internalType":"uint256"}],"stateMutability":"view"},{"type":"function","name":"estimateVerificationGas","inputs":[{"name":"proofSize","type":"uint256","internalType":"uint256"}],"outputs":[{"name":"","type":"uint256","internalType":"uint256"}],"stateMutability":"pure"},{"type":"function","name":"getLock","inputs":[{"name":"lockId","type":"bytes32","internalType":"bytes32"}],"outputs":[{"name":"sender","type":"address","internalType":"address"},{"name":"amount","type":"uint256","internalType":"uint256"},{"name":"dilithiumPubKeyHash","type":"bytes32","internalType":"bytes32"},{"name":"timestamp","type":"uint256","internalType":"uint256"},{"name":"released","type":"bool","internalType":"bool"},{"name":"intendedRecipient","type":"address","internalType":"address"}],"stateMutability":"view"},{"type":"function","name":"getVerificationMode","inputs":[],"outputs":[{"name":"","type":"string","internalType":"string"}],"stateMutability":"view"},{"type":"function","name":"isQuantumResistant","inputs":[],"outputs":[{"name":"","type":"bool","internalType":"bool"}],"stateMutability":"pure"},{"type":"function","name":"lock","inputs":[{"name":"dilithiumPubKeyHash","type":"bytes32","internalType":"bytes32"},{"name":"recipient","type":"address","internalType":"address"}],"outputs":[{"name":"lockId","type":"bytes32","internalType":"bytes32"}],"stateMutability":"payable"},{"type":"function","name":"locks","inputs":[{"name":"","type":"bytes32","internalType":"bytes32"}],"outputs":[{"name":"sender","type":"address","internalType":"address"},{"name":"amount","type":"uint256","internalType":"uint256"},{"name":"dilithiumPubKeyHash","type":"bytes32","internalType":"bytes32"},{"name":"timestamp","type":"uint256","internalType":"uint256"},{"name":"released","type":"bool","internalType":"bool"},{"name":"intendedRecipient","type":"address","internalType":"address"}],"stateMutability":"view"},{"type":"function","name":"nonceCounter","inputs":[],"outputs":[{"name":"","type":"uint256","internalType":"uint256"}],"stateMutability":"view"},{"type":"function","name":"owner","inputs":[],"outputs":[{"name":"","type":"address","internalType":"address"}],"stateMutability":"view"},{"type":"function","name":"pause","inputs":[],"outputs":[],"stateMutability":"nonpayable"},{"type":"function","name":"paused","inputs":[],"outputs":[{"name":"","type":"bool","internalType":"bool"}],"stateMutability":"view"},{"type":"function","name":"releaseWithProof","inputs":[{"name":"publicInputs","type":"tuple","internalType":"struct QuantumShield.PublicInputs","components":[{"name":"publicKeyHash","type":"bytes32","internalType":"bytes32"},{"name":"messageHash","type":"bytes32","internalType":"bytes32"},{"name":"signatureValid","type":"bool","internalType":"bool"},{"name":"nonce","type":"uint64","internalType":"uint64"},{"name":"recipient","type":"address","internalType":"address"},{"name":"amount","type":"uint256","internalType":"uint256"},{"name":"lockId","type":"bytes32","internalType":"bytes32"}]},{"name":"proof","type":"tuple","internalType":"struct QuantumShield.StarkProof","components":[{"name":"traceCommitment","type":"bytes32","internalType":"bytes32"},{"name":"friProof","type":"bytes","internalType":"bytes"},{"name":"queryResponses","type":"bytes32[]","internalType":"bytes32[]"}]}],"outputs":[],"stateMutability":"nonpayable"},{"type":"function","name":"setVerificationLevel","inputs":[{"name":"level2","type":"bool","internalType":"bool"}],"outputs":[],"stateMutability":"nonpayable"},{"type":"function","name":"setVerifier","inputs":[{"name":"_verifier","type":"address","internalType":"address"}],"outputs":[],"stateMutability":"nonpayable"},{"type":"function","name":"totalLocked","inputs":[],"outputs":[{"name":"","type":"uint256","internalType":"uint256"}],"stateMutability":"view"},{"type":"function","name":"transferOwnership","inputs":[{"name":"newOwner","type":"address","internalType":"address"}],"outputs":[],"stateMutability":"nonpayable"},{"type":"function","name":"unpause","inputs":[],"outputs":[],"stateMutability":"nonpayable"},{"type":"function","name":"useLevel2Verification","inputs":[],"outputs":[{"name":"","type":"bool","internalType":"bool"}],"stateMutability":"view"},{"type":"function","name":"usedNonces","inputs":[{"name":"","type":"uint256","internalType":"uint256"}],"outputs":[{"name":"","type":"bool","internalType":"bool"}],"stateMutability":"view"},{"type":"function","name":"usedProofCommitments","inputs":[{"name":"","type":"bytes32","internalType":"bytes32"}],"outputs":[{"name":"","type":"bool","internalType":"bool"}],"stateMutability":"view"},{"type":"function","name":"verifier","inputs":[],"outputs":[{"name":"","type":"address","internalType":"address"}],"stateMutability":"view"},{"type":"event","name":"EmergencyPaused","inputs":[{"name":"by","type":"address","indexed":true,"internalType":"address"}],"anonymous":false},{"type":"event","name":"EmergencyUnpaused","inputs":[{"name":"by","type":"address","indexed":true,"internalType":"address"}],"anonymous":false},{"type":"event","name":"Locked","inputs":[{"name":"lockId","type":"bytes32","indexed":true,"internalType":"bytes32"},{"name":"sender","type":"address","indexed":true,"internalType":"address"},{"name":"amount","type":"uint256","indexed":false,"internalType":"uint256"},{"name":"dilithiumPubKeyHash","type":"bytes32","indexed":false,"internalType":"bytes32"},{"name":"nonce","type":"uint256","indexed":false,"internalType":"uint256"},{"name":"intendedRecipient","type":"address","indexed":false,"internalType":"address"}],"anonymous":false},{"type":"event","name":"OwnershipTransferred","inputs":[{"name":"previousOwner","type":"address","indexed":true,"internalType":"address"},{"name":"newOwner","type":"address","indexed":true,"internalType":"address"}],"anonymous":false},{"type":"event","name":"ProofVerified","inputs":[{"name":"lockId","type":"bytes32","indexed":true,"internalType":"bytes32"},{"name":"publicInputsHash","type":"bytes32","indexed":false,"internalType":"bytes32"},{"name":"gasUsed","type":"uint256","indexed":false,"internalType":"uint256"}],"anonymous":false},{"type":"event","name":"Released","inputs":[{"name":"lockId","type":"bytes32","indexed":true,"internalType":"bytes32"},{"name":"recipient","type":"address","indexed":true,"internalType":"address"},{"name":"amount","type":"uint256","indexed":false,"internalType":"uint256"}],"anonymous":false},{"type":"event","name":"VerifierUpdated","inputs":[{"name":"newVerifier","type":"address","indexed":true,"internalType":"address"}],"anonymous":false},{"type":"error","name":"CommitmentMismatch","inputs":[]},{"type":"error","name":"InsufficientAmount","inputs":[]},{"type":"error","name":"InvalidProof","inputs":[]},{"type":"error","name":"InvalidPublicInputs","inputs":[]},{"type":"error","name":"LockAlreadyReleased","inputs":[]},{"type":"error","name":"LockNotFound","inputs":[]},{"type":"error","name":"NonceAlreadyUsed","inputs":[]},{"type":"error","name":"NotOwner","inputs":[]},{"type":"error","name":"Paused","inputs":[]},{"type":"error","name":"ProofTooLarge","inputs":[]},{"type":"error","name":"RecipientMismatch","inputs":[]},{"type":"error","name":"SignatureNotValid","inputs":[]},{"type":"error","name":"TransferFailed","inputs":[]},{"type":"error","name":"ZeroAddress","inputs":[]}],"bytecode":{"object":"0x60808060405234610035576007805460ff19166001179055600080546001600160a01b03191633179055612e79908161003b8239f35b600080fdfe60e080604052600436101561001d575b50361561001b57600080fd5b005b60003560e01c9081632b7ac3f314610bed575080632de4b51314610bca5780633e153802146107d95780633f4ba83a146107835780635437988d1461071557806356891412146106f75780635c975abb146106d15780635cd3ce27146106b35780636717e41c14610682578063688e3f5f1461049f5780636f173079146104835780636f6607fa146104405780638456cb59146103e25780638da5cb5b146103b9578063b1a9c8e514610388578063ccaaac4414610325578063d5d754eb14610307578063d6f27b581461026e578063de780bbd146102e9578063ed5e84371461026e578063f2fde38b146101da578063f3b1b9d1146101be578063f6f32ac5146101535763fda1293e14610132573861000f565b3461014e57600036600319011261014e57602060405160088152f35b600080fd5b3461014e57600036600319011261014e5761016c611f44565b6040519081602080825282519081818401526000935b8285106101a5575050604092506000838284010152601f80199101168101030190f35b8481018201518686016040015293810193859350610182565b3461014e57600036600319011261014e57602060405160508152f35b3461014e57602036600319011261014e576101f3610c11565b600054906001600160a01b03808316913383900361025c571691821561024a576001600160a01b031916821760009081557f8be0079c531659141344cd1fd0a4f28419497f9722a3daafe3b4186f6b6457e09080a3005b60405163d92e233d60e01b8152600490fd5b6040516330cd747160e01b8152600490fd5b3461014e57602036600319011261014e5760048035600090815260208281526040918290208054600182015460028301546003840154939096015485516001600160a01b0393841681529485019190915293830194909452606082015260ff82161515608082015260089190911c90911660a082015260c090f35b3461014e57600036600319011261014e576020600254604051908152f35b3461014e57600036600319011261014e576020604051621000008152f35b3461014e57602036600319011261014e576004358060041b908082046010149015171561037257620186a09080820180921161037257623e8fa00180911161037257602090604051908152f35b634e487b7160e01b600052601160045260246000fd5b3461014e57602036600319011261014e576004356000526006602052602060ff604060002054166040519015158152f35b3461014e57600036600319011261014e576000546040516001600160a01b039091168152602090f35b3461014e57600036600319011261014e576000546001600160a01b038116330361025c5760ff60a01b1916600160a01b17600090815533907fb8fad2fa0ed7a383e747c309ef2c4391d7b65592a48893e57ccc1fab707914569080a2005b3461014e57602036600319011261014e5760043580151580910361014e576000546001600160a01b0316330361025c5760ff801960075416911617600755600080f35b3461014e57600036600319011261014e57602060405160018152f35b604036600319011261014e576024356001600160a01b0360043581831680840361014e5760ff60005460a01c1661067057341561065e57801561024a576002546104e881610c27565b600255604051943360601b60208701523460348701528360548701528160748701524260948701526001600160601b03199060601b1660b486015260a8855260e085016001600160401b0395808210878311176106485761054b91604052611ffa565b936040519060c0820196828810908811176106485760209660405233825260048783019234845260408101878152606082019042825260808301956000875260a08401958987528b600052858d5260406000209451166001600160601b0360a01b85541617845551600184015551600283015551600382015501915115159060ff835491610100600160a81b03905160081b169216906affffffffffffffffffffff60a81b161717905561060134600154610cfa565b600155604051923484528584015260408301526060820152817fe7d439a026b28d6b0ffae593731630200e63ef3856f5d916a0b95e49af978c5b60803393a3604051908152f35b634e487b7160e01b600052604160045260246000fd5b604051632ca2f52b60e11b8152600490fd5b6040516313d0ff5960e31b8152600490fd5b3461014e57602036600319011261014e576004356000526005602052602060ff604060002054166040519015158152f35b3461014e57600036600319011261014e576020604051620100008152f35b3461014e57600036600319011261014e57602060ff60005460a01c166040519015158152f35b3461014e57600036600319011261014e576020600154604051908152f35b3461014e57602036600319011261014e5761072e610c11565b6000546001600160a01b0391908216330361025c5716801561024a57600380546001600160a01b031916821790557fd24015cc99cc1700cafca3042840a1d8ac1e3964fd2e0e37ea29c654056ee327600080a2005b3461014e57600036600319011261014e576000546001600160a01b038116330361025c5760ff60a01b1916600055337ff5cbf596165cc457b2cd92e8d8450827ee314968160a5696402d75766fc52caf600080a2005b3461014e57600319368101610100811261014e5760e01361014e5760e435906001600160401b03821161014e57606090823603011261014e5760ff60005460a01c16610670575a621000006108346024840184600401610d07565b905011610bb85760043515610b705760243515610b705760c43515610b705760a43515610b705760c435600052600460205260406000209160018060a01b0383541615610ba65760048301549160ff8316610b9457600435600285015403610b825760a435600185015403610b70576001600160a01b036108b3610d39565b16600884901c6001600160a01b031603610b5e576044359283159384150361014e5783610b4c576001600160401b036108ea610d4f565b16600052600560205260ff60406000205416610b3b578260040135600052600660205260ff60406000205416610b295761092683600401610da7565b15610b295760ff199081166001176004860155610998926001600160401b0361094d610d4f565b1660005260056020526040600020600183825416179055600401356000526006602052600160406000209182541617905561098e6001850154600154610d65565b6001555a90610d65565b90606435906001600160401b038216820361014e576084356001600160a01b038116810361014e57610a2b9260405192600435602085015260243560408501521560f81b60608401526001600160401b0360c01b9060c01b1660618301526001600160601b03199060601b16606982015260a435607d82015260c435609d820152609d8152610a2681610c51565b611ffa565b9060405191825260208201527f5218389e256f588f1b0c542d774ec9ba39106830c105126b25a30eab96afa3be604060c43592a26001600160a01b03610a6f610d39565b161561024a576000808080610a82610d39565b6001860154905af13d15610b24573d6001600160401b0381116106485760405190610ab7601f8201601f191660200183610cd9565b8152600060203d92013e5b15610b12576001610ad1610d39565b9101546040519081526001600160a01b039091169060c435907fc8fa66dff4b9073528c3f1bf21a8dc9a18fdf09847e88e96188bc953aef519f090602090a3005b6040516312171d8360e31b8152600490fd5b610ac2565b6040516309bde33960e01b8152600490fd5b604051623f613760e71b8152600490fd5b60405163401b4d9760e01b8152600490fd5b60405163c0ee95bb60e01b8152600490fd5b6040516319dcebfb60e21b8152600490fd5b604051635054097b60e01b8152600490fd5b604051632c04416160e01b8152600490fd5b604051636086ee6f60e11b8152600490fd5b604051630967beaf60e11b8152600490fd5b3461014e57600036600319011261014e57602060ff600754166040519015158152f35b3461014e57600036600319011261014e576003546001600160a01b03168152602090f35b600435906001600160a01b038216820361014e57565b60001981146103725760010190565b606081019081106001600160401b0382111761064857604052565b60c081019081106001600160401b0382111761064857604052565b602081019081106001600160401b0382111761064857604052565b604081019081106001600160401b0382111761064857604052565b61032081019081106001600160401b0382111761064857604052565b60a081019081106001600160401b0382111761064857604052565b90601f801991011681019081106001600160401b0382111761064857604052565b9190820180921161037257565b903590601e198136030182121561014e57018035906001600160401b03821161014e5760200191813603831361014e57565b6084356001600160a01b038116810361014e5790565b6064356001600160401b038116810361014e5790565b9190820391821161037257565b903590601e198136030182121561014e57018035906001600160401b03821161014e57602001918160051b3603831361014e57565b6003546001600160a01b039190821680610ddd5750905060ff60075416610dd457610dd190610fa0565b90565b610dd1906115b8565b6044359283151580940361014e576064356001600160401b038116810361014e57608435918216820361014e57610e71916040519160209660043588850152602435604085015260f81b60608401526001600160401b0360c01b9060c01b1660618301526001600160601b03199060601b16606982015260a435607d82015260c435609d820152609d8152610a2681610c51565b90610e7e84840184610d07565b939084610e8e6040840184610d72565b92909360405196631358580f60e11b885260048801523560248701526080604487015281608487015260a48601376000948560a48287010152601f801991011684019060a08583030160648601528060a483015260018060fb1b038111610f695760c4858094899694829460051b809285830137010301915afa928315610f5e578293610f1c575b50505090565b9080929350813d8311610f57575b610f348183610cd9565b81010312610f535751908115158203610f505750388080610f16565b80fd5b5080fd5b503d610f2a565b6040513d84823e3d90fd5b8580fd5b90821015610f79570190565b634e487b7160e01b600052603260045260246000fd5b60ff1660ff81146103725760010190565b80359081156112f9576020908181019082610fbb8383610d07565b9050106112f057610fcc8282610d07565b15610f7957359360f89385851c95861580156112e6575b6112da5760f31c93611fe060e08616951685036103725760019485019360ff9485811161037257856110158484610d07565b92905016116112cd576040968782019860506110318b85610d72565b90501061125f57600080895b61126e575b501561125f5760443598891515809a0361014e57606435966001600160401b038816880361014e576084356001600160a01b038116810361014e578251906004998a358a84015260249d8e3586850152871b60608401526001600160401b0360c01b9060c01b1660618301526001600160601b03199060601b16606982015260a435607d82015260c435609d820152609d81526110de81610c51565b6110e790611ffa565b82519188830152828201528181526110fe81610c36565b61110790611ffa565b9060009b6111158187610d72565b9050611208575b5050508796876000985b611139575b505050505050505050505090565b82828a1610806111d5575b156111d0576000805b8b8982106111a5575050156111945786810180911161118057906111758a9594939299610f8f565b989091929394611126565b8a601189634e487b7160e01b600052526000fd5b505050505050505050505050600090565b90916111bd6111b48a8a610d07565b85870191610f6d565b35871c83601f0360031b1b17910161114d565b61112b565b508681018082116111f4576111ea8787610d07565b9190501115611144565b8b60118a634e487b7160e01b600052526000fd5b61121790869d9293949d610d72565b9190911561124d575091818a9594936112409351928984015235818301528152610a2681610c36565b151599909192388061111c565b634e487b7160e01b8152603289528b90fd5b50505050505050505050600090565b6112788c86610d72565b90508110806112c5575b156112c0576112918c86610d72565b8291921015610f79578a918160051b01356112b6575b6112b090610c27565b9061103d565b90915081906112a7565b611042565b508115611282565b5050505050505050600090565b50505050505050600090565b5060148711610fe3565b50505050600090565b5050600090565b80359081156112f957602090818101908261131b8383610d07565b9050106112f05761132c8282610d07565b15610f7957359360f89385851c95861580156115ae575b6112da5760f31c93611fe060e08616951685036103725760019485019360ff9485811161037257856113758484610d07565b92905016116112cd576040968782019860506113918b85610d72565b90501061125f57600080895b61154f575b501561125f5760443598891515809a0361014e576113be610d4f565b966113c7610d39565b8251906004998a358a84015260249d8e3586850152871b60608401526001600160401b0360c01b9060c01b1660618301526001600160601b03199060601b16606982015260a435607d82015260c435609d820152609d815261142881610c51565b61143190611ffa565b825191888301528282015281815261144881610c36565b61145190611ffa565b9060009b61145f8187610d72565b905061150a575b5050508796876000985b61148257505050505050505050505090565b82828a1610806114eb575b156111d0576000805b8b8982106114c9575050156111945786810180911161118057906114be8a9594939299610f8f565b989091929394611470565b90916114d86111b48a8a610d07565b35871c83601f0360031b1b179101611496565b508681018082116111f4576115008787610d07565b919050111561148d565b61151990869d9293949d610d72565b9190911561124d575091818a9594936115429351928984015235818301528152610a2681610c36565b1515999091923880611466565b6115598c86610d72565b90508110806115a6575b156115a1576115728c86610d72565b8291921015610f79578a918160051b0135611597575b61159190610c27565b9061139d565b9091508190611588565b6113a2565b508115611563565b5060148711611343565b6115c181611300565b156115e857806115e06115da6020610dd1940183610d07565b90611b16565b903590611602565b50600090565b8051821015610f795760209160051b010190565b80515190811561168057601082116116805760408101916050835151106112f057602082015151036116805760005b825180518210156116645761164982611651926115ee565b5185846116b1565b156112f05761165f90610c27565b611631565b505060049250606091500151511161167b57600190565b600090565b505050600090565b801561169b5767ffffffff000000000490565b634e487b7160e01b600052601260045260246000fd5b909282519062010000946000955b845151871015611918576020808701805151916001948a861b928b15946002948d8104861487171561037257888101918282116103725782101561190557829161170f8f949261171793516115ee565b5192516115ee565b519561172288611a74565b808402938404141715610372576040808d015161173e89611a74565b9361174885611ab0565b9460008c5b6118af575b505050509081611776929e9c9d9e51918683015287818301528152610a2681610c36565b9087808b811c926000925b61184d575b505050500361183e578761179c918a01516115ee565b506117b7866117b26117ad86611688565b6119e0565b611a2b565b5067ffffffff0000000180928103116103725767fffffffeffffffff908490825b61181757505050506117eb8587516115ee565b51911c8093811561169b5706938551516000198101116103725761180e90610c27565b959493926116bf565b8284878082961614611832575b50861c9281849209906117d8565b90928290099183611824565b50505050509350505050600090565b9091929381518410156118a6576118849085841661188c5761187a9061187386856115ee565b5190612df6565b945b831c93610c27565b919081611781565b6118a09061189a86856115ee565b51612df6565b9461187c565b93829150611786565b818110806118f2575b156118ed576118e7816118d68f936118d09087610cfa565b876115ee565b516118e1828b6115ee565b52610c27565b9061174d565b611752565b506118fd8184610cfa565b8451116118b8565b5050505050505050509350505050600090565b9391955050606091935001519081511561168057611945926117b26117ad61193f93611688565b9061194b565b50600190565b805190811561168057600019918083019081116103725761196c90826115ee565b519281518381019081116103725792916000845b61198c57505050505090565b9492939461169b57838501858111610372576119a98391836115ee565b5160009467ffffffff0000000192839109089480156119cc578401939284611980565b634e487b7160e01b84526011600452602484fd5b6001600781835b6119f2575050905090565b8080851614611a17575b67ffffffff000000019293811c9282849309929392916119e7565b67ffffffff000000018281940992506119fc565b600190828267ffffffff00000001809306915b611a4a57505050905090565b8080861614611a68575b829394811c92828493099294939291611a3e565b82828195099350611a54565b6000905b60019081811115611a9457611a8e911c91610c27565b90611a78565b505090565b6001600160401b0381116106485760051b60200190565b90611aba82611a99565b611ac76040519182610cd9565b8281528092611ad8601f1991611a99565b0190602036910137565b60405190608082018281106001600160401b0382111761064857604052606080838181528160208201528160408201520152565b90611b1f611ae2565b50611b28611ae2565b918115611ee75780359060f89082821c93611fe08460f31c1694602094818704861482151715610372576001968701808811610372578310611e8b57611b6d82611ab0565b885286611b7983611ab0565b878a019081528193826000905b611df8575b506000925b611d20575b50505082821015611d0557611bb7611bae838587610f6d565b35861c92610c27565b91611bc181611a99565b90604090611bd182519384610cd9565b808352601f19611be082611a99565b018960005b828110611cdd57505050818b0192835260009360f71c908a6101fe60fe84169316831415905b611c70575b5050505050505b60405195611c2487610c87565b8652843681880137606087019586528111611c42575b505050505090565b60001981019080821161037257611c5892610f6d565b35901c9151805115610f795701523880808080611c3a565b60ff861682811015611cd7578181611c898189516115ee565b5152610372578c96611cd1918d611c9f87611ab0565b90611cab838b516115ee565b51015286611cc9815192611cbe84610c6c565b600084528a516115ee565b510152610f8f565b95611c0b565b50611c10565b8451611ce881610c36565b600081526060808483015286820152828288010152018a90611be5565b50604051611d1281610c6c565b600081526040880152611c17565b60ff8395931681811015611def57600090818c5b611d80575b50611d459084516115ee565b52888301808411610372578610611d715788830180931161037257611d6b8a9395610f8f565b92611b90565b50505090508190388080611b95565b918b831080611ddd575b15611dd757611da3611d9c8488610cfa565b8a8c610f6d565b358b1c908360031b84810460081485151715610372578c03908c8211610372578e92611dd1921b1793610c27565b90611d34565b91611d39565b5088611de98488610cfa565b10611d8a565b50829450611b95565b949091925060ff85168a83821015611e815750600090815b8b8110611e425750611e23908d516115ee565b5288810180911161037257611e398a9195610f8f565b81939291611b86565b91611e50611d9c8486610cfa565b358b1c908360031b84810460081485151715610372578c03918c831161037257611e7c921b1792610c27565b611e10565b9392919550611b8b565b5050505050604051611e9c81610c6c565b600081528352604051611eae81610c6c565b6000815281840152604051611ec281610c6c565b60008152604084015260405191611ed883610c87565b82523681830137606082015290565b5050604051611ef581610c6c565b600081528152604051611f0781610c6c565b600081526020820152604051611f1c81610c6c565b600081526040820152604051611f3181610c87565b6001815260203681830137606082015290565b6003546001600160a01b0316611fbc5760ff60075416611f8d57604051611f6a81610c87565b60138152724e41544956455f535441524b5f4c4556454c3160681b602082015290565b604051611f9981610c87565b60138152722720aa24ab22afa9aa20a925afa622ab22a61960691b602082015290565b604051611fc881610c87565b601181527022ac2a22a92720a62fab22a924a324a2a960791b602082015290565b906019811015610f795760051b0190565b600060c05260405161200b81610ca2565b61032036823760c0528051906001820180831161037257608890049160018301831161037257916000905b6001810182106121ac575050505060c0516001600160401b038151166fffffffffffffffff0000000000000000602083015160401b161760408201519160606001600160401b0360c01b91015160c01b16916001600160401b0360801b9060801b1617177eff00ff00ff00ff00ff00ff00ff00ff00ff00ff00ff00ff00ff00ff00ff00ff7fff00ff00ff00ff00ff00ff00ff00ff00ff00ff00ff00ff00ff00ff00ff00ff008260081b169160081c16177dffff0000ffff0000ffff0000ffff0000ffff0000ffff0000ffff0000ffff7fffff0000ffff0000ffff0000ffff0000ffff0000ffff0000ffff0000ffff00008260101b169160101c16177bffffffff00000000ffffffff00000000ffffffff00000000ffffffff7fffffffff00000000ffffffff00000000ffffffff00000000ffffffff000000008260201b169160201c161777ffffffffffffffff0000000000000000ffffffffffffffff80198260401b169160401c16178060801b9060801c1790565b60888293949592029483860460881484151715610372576000925b6011928385101561231257600090815b6008808410156122d257600388811b89810483148a1517156122bd5785612201612206928f610cfa565b610cfa565b8c8882101561226857508b51811015610f7957602086918d01015160f81c915b1b9185830414851517156122535760ff16901b6001600160401b0316179161224d90610c27565b916121d7565b87634e487b7160e01b60005260045260246000fd5b9088810361227b57505084600691612226565b608882018092116122a85760878e019182116122a8570361229f5784608091612226565b84600091612226565b89634e487b7160e01b60005260045260246000fd5b88634e487b7160e01b60005260045260246000fd5b5090945061230c929591506001600160401b0390816122f38460c051611fe9565b511618906123038360c051611fe9565b91169052610c27565b926121c7565b959492509550915061032060405161232981610ca2565b36903760405161233881610cbe565b60a03682376040519061234a82610cbe565b60a036833760405161032081018181106001600160401b03821117610648576040526000815260016020820152603e6040820152601c6060820152601b6080820152602460a0820152602c60c0820152600660e0820152603761010082015260146101208201526003610140820152600a610160820152602b61018082015260196101a082015260276101c082015260296101e0820152602d610200820152600f61022082015260156102408201526008610260820152601261028082015260026102a0820152603d6102c082015260386102e0820152600e61030082015260405180608052806103008101106001600160401b0361030083011117610648578061030060019201604052526180826020608051015267800000000000808a604060805101526780000000800080006060608051015261808b608080510152638000000160a0608051015267800000008000808160c0608051015267800000000000800960e06080510152608a61010060805101526088610120608051015263800080096101406080510152638000000a6101606080510152638000808b610180608051015267800000000000008b6101a060805101526780000000000080896101c060805101526780000000000080036101e060805101526780000000000080026102006080510152678000000000000080610220608051015261800a610240608051015267800000008000000a610260608051015267800000008000808161028060805101526780000000000080806102a0608051015263800000016102c060805101526780000000800080086102e060805101526000915b601883106125c557505050506125bc600191610c27565b91939050612036565b9491966001600160401b0360c099929794995181610280818351168260a08501511618826101408501511618826101e08501511618920151161816865260c0516001600160401b036102a0816020840151168260c0850151161882610160850151161882610200850151161892015116186001600160401b03811660208801526001600160401b0360c051816102c0816040840151168260e0850151161882610180850151161882610220850151161892015116181660408801526001600160401b0360c051816102e081606084015116826101008501511618826101a0850151161882610240850151161892015116181660608801526001600160401b03808060c0518161030081608084015116826101208501511618826101c085015116188261026085015116189201511618168060808b015281600185603f1c1667fffffffffffffffe8660011b16178218168d528c6020838c612743826040818451169301511667fffffffffffffffe600182603f1c169160011b161790565b18169101528c6040838c612777826060816020850151169301511667fffffffffffffffe600182603f1c169160011b161790565b18169101528c6060838c6127ab826080816040850151169301511667fffffffffffffffe600182603f1c169160011b161790565b18169101528c6080838c6127dc828060608401511692511667fffffffffffffffe600182603f1c169160011b161790565b181691015260c0519367fffffffffffffffe600182603f1c169160011b1617181681835116181690526001600160401b0360208a0151166001600160401b03602060c051019181835116181690526001600160401b0360408a0151166001600160401b03604060c051019181835116181690526001600160401b0360608a0151166001600160401b03606060c051019181835116181690526001600160401b0360808a0151166001600160401b03608060c051019181835116181690526001600160401b038951166001600160401b0360a060c051019181835116181690526001600160401b0360208a0151166001600160401b0360c08051019181835116181690526001600160401b0360408a0151166001600160401b0360e060c051019181835116181690526001600160401b0360608a0151166001600160401b0361010060c051019181835116181690526001600160401b0360808a0151166001600160401b0361012060c051019181835116181690526001600160401b038951166001600160401b0361014060c051019181835116181690526001600160401b0360208a0151166001600160401b0361016060c051019181835116181690526001600160401b0360408a0151166001600160401b0361018060c051019181835116181690526001600160401b0360608a0151166001600160401b036101a060c051019181835116181690526001600160401b0360808a0151166001600160401b036101c060c051019181835116181690526001600160401b038951166001600160401b036101e060c051019181835116181690526001600160401b0360208a0151166001600160401b0361020060c051019181835116181690526001600160401b0360408a0151166001600160401b0361022060c051019181835116181690526001600160401b0360608a0151166001600160401b0361024060c051019181835116181690526001600160401b0360808a0151166001600160401b0361026060c051019181835116181690526001600160401b038951166001600160401b0361028060c051019181835116181690526001600160401b0360208a0151166001600160401b036102a060c051019181835116181690526001600160401b0360408a0151166001600160401b036102c060c051019181835116181690526001600160401b0360608a0151166001600160401b036102e060c051019181835116181690526001600160401b0360808a0151166001600160401b0361030060c05101918183511618169052612b906040518060a052610ca2565b6103203660a0513760005b60198110612d57575060005b600580821015612d17578082810204820361037257612bca82820260a051611fe9565b5190828102600181011061037257612be960018483020160a051611fe9565b51818402600281011061037257612c0760028584020160a051611fe9565b5191848102600381011061037257612c2660038683020160a051611fe9565b516004919086820280840110612d0257926001600160401b03612cef8489858985998787612cfd9f9e81819f9d612c66829e918a8493020160a051611fe9565b519681612c778b8b0260c051611fe9565b961619161691161816905286612c9460018686020160c051611fe9565b9a16998780838d191616818b16181690528680612cb860028787020160c051611fe9565b92169a81848d191616181690528580612cd860038686020160c051611fe9565b921699818d8c19161618169052020160c051611fe9565b951619161618169052610c27565b612ba7565b601183634e487b7160e01b6000525260246000fd5b505096612d519098939691989592956001600160401b038160051b6080510151166001600160401b0360c051918183511618169052610c27565b916125a5565b600581066001600160ff1b0381169003610372576003600582048102046005820403610372576005612d9381830460030282840660011b610cfa565b0690612dbf6001600160401b03612dac8360c051611fe9565b5116612db8838c611fe9565b5190612e15565b6005838102048303610372576001600160401b03612303612de9612df19560050260058604610cfa565b60a051611fe9565b612b9b565b610dd191604051916020830152604082015260408152610a2681610c36565b8115612e3e576001600160401b038091168260400360408111610372578183911c16921b161790565b90509056fea2646970667358221220f0c2853972ba652f5e68d318c28ac010af155da9b3e8177b09c4415f7279bed164736f6c63430008140033","linkReferences":{}},"methodIdentifiers":{"BLOWUP_FACTOR()":"fda1293e","FRI_DOMAIN_SIZE()":"5cd3ce27","FRI_NUM_QUERIES()":"f3b1b9d1","MAX_PROOF_SIZE()":"d5d754eb","estimateVerificationGas(uint256)":"ccaaac44","getLock(bytes32)":"d6f27b58","getVerificationMode()":"f6f32ac5","isQuantumResistant()":"6f173079","lock(bytes32,address)":"688e3f5f","locks(bytes32)":"ed5e8437","nonceCounter()":"de780bbd","owner()":"8da5cb5b","pause()":"8456cb59","paused()":"5c975abb","releaseWithProof((bytes32,bytes32,bool,uint64,address,uint256,bytes32),(bytes32,bytes,bytes32[]))":"3e153802","setVerificationLevel(bool)":"6f6607fa","setVerifier(address)":"5437988d","totalLocked()":"56891412","transferOwnership(address)":"f2fde38b","unpause()":"3f4ba83a","useLevel2Verification()":"2de4b513","usedNonces(uint256)":"6717e41c","usedProofCommitments(bytes32)":"b1a9c8e5","verifier()":"2b7ac3f3"},"id":25}