{"abi":[{"type":"constructor","inputs":[{"name":"_governanceSwitch","type":"address","internalType":"address"},{"name":"_securityCouncil","type":"address","internalType":"address"},{"name":"_signers","type":"address[]","internalType":"address[]"},{"name":"_requiredApprovals","type":"uint256","internalType":"uint256"}],"stateMutability":"nonpayable"},{"type":"receive","stateMutability":"payable"},{"type":"function","name":"DEFAULT_MIN_BALANCE","inputs":[],"outputs":[{"name":"","type":"uint256","internalType":"uint256"}],"stateMutability":"view"},{"type":"function","name":"MAX_SINGLE_SPEND","inputs":[],"outputs":[{"name":"","type":"uint256","internalType":"uint256"}],"stateMutability":"view"},{"type":"function","name":"TIME_LOCK_PERIOD","inputs":[],"outputs":[{"name":"","type":"uint256","internalType":"uint256"}],"stateMutability":"view"},{"type":"function","name":"approve","inputs":[{"name":"proposalId","type":"uint256","internalType":"uint256"}],"outputs":[],"stateMutability":"nonpayable"},{"type":"function","name":"cancel","inputs":[{"name":"proposalId","type":"uint256","internalType":"uint256"}],"outputs":[],"stateMutability":"nonpayable"},{"type":"function","name":"emergencyWithdraw","inputs":[{"name":"to","type":"address","internalType":"address"},{"name":"amount","type":"uint256","internalType":"uint256"},{"name":"reason","type":"string","internalType":"string"}],"outputs":[],"stateMutability":"nonpayable"},{"type":"function","name":"execute","inputs":[{"name":"proposalId","type":"uint256","internalType":"uint256"}],"outputs":[],"stateMutability":"nonpayable"},{"type":"function","name":"getBalance","inputs":[],"outputs":[{"name":"","type":"uint256","internalType":"uint256"}],"stateMutability":"view"},{"type":"function","name":"getProposal","inputs":[{"name":"proposalId","type":"uint256","internalType":"uint256"}],"outputs":[{"name":"","type":"tuple","internalType":"struct ITreasury.Proposal","components":[{"name":"id","type":"uint256","internalType":"uint256"},{"name":"proposer","type":"address","internalType":"address"},{"name":"target","type":"address","internalType":"address"},{"name":"amount","type":"uint256","internalType":"uint256"},{"name":"data","type":"bytes","internalType":"bytes"},{"name":"createdAt","type":"uint256","internalType":"uint256"},{"name":"executionTime","type":"uint256","internalType":"uint256"},{"name":"state","type":"uint8","internalType":"enum ITreasury.ProposalState"},{"name":"approvals","type":"uint256","internalType":"uint256"},{"name":"description","type":"string","internalType":"string"}]}],"stateMutability":"view"},{"type":"function","name":"getProposalCount","inputs":[],"outputs":[{"name":"","type":"uint256","internalType":"uint256"}],"stateMutability":"view"},{"type":"function","name":"getProposalState","inputs":[{"name":"proposalId","type":"uint256","internalType":"uint256"}],"outputs":[{"name":"","type":"uint8","internalType":"enum ITreasury.ProposalState"}],"stateMutability":"view"},{"type":"function","name":"getRequiredApprovals","inputs":[],"outputs":[{"name":"","type":"uint256","internalType":"uint256"}],"stateMutability":"view"},{"type":"function","name":"governanceSwitch","inputs":[],"outputs":[{"name":"","type":"address","internalType":"contract IGovernanceSwitch"}],"stateMutability":"view"},{"type":"function","name":"hasApproved","inputs":[{"name":"proposalId","type":"uint256","internalType":"uint256"},{"name":"approver","type":"address","internalType":"address"}],"outputs":[{"name":"","type":"bool","internalType":"bool"}],"stateMutability":"view"},{"type":"function","name":"isSigner","inputs":[{"name":"","type":"address","internalType":"address"}],"outputs":[{"name":"","type":"bool","internalType":"bool"}],"stateMutability":"view"},{"type":"function","name":"minimumBalance","inputs":[],"outputs":[{"name":"","type":"uint256","internalType":"uint256"}],"stateMutability":"view"},{"type":"function","name":"proposalCount","inputs":[],"outputs":[{"name":"","type":"uint256","internalType":"uint256"}],"stateMutability":"view"},{"type":"function","name":"propose","inputs":[{"name":"target","type":"address","internalType":"address"},{"name":"amount","type":"uint256","internalType":"uint256"},{"name":"data","type":"bytes","internalType":"bytes"},{"name":"description","type":"string","internalType":"string"}],"outputs":[{"name":"proposalId","type":"uint256","internalType":"uint256"}],"stateMutability":"nonpayable"},{"type":"function","name":"receiveFunds","inputs":[{"name":"source","type":"string","internalType":"string"}],"outputs":[],"stateMutability":"payable"},{"type":"function","name":"requiredApprovals","inputs":[],"outputs":[{"name":"","type":"uint256","internalType":"uint256"}],"stateMutability":"view"},{"type":"function","name":"securityCouncil","inputs":[],"outputs":[{"name":"","type":"address","internalType":"contract ISecurityCouncil"}],"stateMutability":"view"},{"type":"function","name":"setMinimumBalance","inputs":[{"name":"newMinimum","type":"uint256","internalType":"uint256"}],"outputs":[],"stateMutability":"nonpayable"},{"type":"function","name":"signers","inputs":[{"name":"","type":"uint256","internalType":"uint256"}],"outputs":[{"name":"","type":"address","internalType":"address"}],"stateMutability":"view"},{"type":"event","name":"EmergencyWithdrawal","inputs":[{"name":"to","type":"address","indexed":true,"internalType":"address"},{"name":"amount","type":"uint256","indexed":false,"internalType":"uint256"},{"name":"reason","type":"string","indexed":false,"internalType":"string"}],"anonymous":false},{"type":"event","name":"FundsReceived","inputs":[{"name":"from","type":"address","indexed":true,"internalType":"address"},{"name":"amount","type":"uint256","indexed":false,"internalType":"uint256"},{"name":"source","type":"string","indexed":false,"internalType":"string"}],"anonymous":false},{"type":"event","name":"ProposalApproved","inputs":[{"name":"proposalId","type":"uint256","indexed":true,"internalType":"uint256"},{"name":"approver","type":"address","indexed":true,"internalType":"address"},{"name":"currentApprovals","type":"uint256","indexed":false,"internalType":"uint256"}],"anonymous":false},{"type":"event","name":"ProposalCreated","inputs":[{"name":"proposalId","type":"uint256","indexed":true,"internalType":"uint256"},{"name":"proposer","type":"address","indexed":true,"internalType":"address"},{"name":"target","type":"address","indexed":true,"internalType":"address"},{"name":"amount","type":"uint256","indexed":false,"internalType":"uint256"},{"name":"description","type":"string","indexed":false,"internalType":"string"}],"anonymous":false},{"type":"event","name":"ProposalExecuted","inputs":[{"name":"proposalId","type":"uint256","indexed":true,"internalType":"uint256"},{"name":"executor","type":"address","indexed":true,"internalType":"address"},{"name":"amount","type":"uint256","indexed":false,"internalType":"uint256"}],"anonymous":false},{"type":"error","name":"AlreadyApproved","inputs":[]},{"type":"error","name":"BelowMinimumBalance","inputs":[]},{"type":"error","name":"EmergencyRequiresSCApproval","inputs":[]},{"type":"error","name":"ExceedsMaxSingleSpend","inputs":[]},{"type":"error","name":"InsufficientApprovals","inputs":[]},{"type":"error","name":"InvalidProposalState","inputs":[]},{"type":"error","name":"InvalidTarget","inputs":[]},{"type":"error","name":"NotAuthorized","inputs":[]},{"type":"error","name":"ProposalNotFound","inputs":[]},{"type":"error","name":"TimeLockNotExpired","inputs":[]},{"type":"error","name":"ZeroAmount","inputs":[]}],"bytecode":{"object":"0x60e060405234801562000010575f80fd5b5060405162001b4738038062001b478339810160408190526200003391620002df565b6001600160a01b0384166200008f5760405162461bcd60e51b815260206004820152601960248201527f496e76616c696420676f7665726e616e6365207377697463680000000000000060448201526064015b60405180910390fd5b6001600160a01b038316620000e75760405162461bcd60e51b815260206004820152601860248201527f496e76616c696420736563757269747920636f756e63696c0000000000000000604482015260640162000086565b80825110156200013a5760405162461bcd60e51b815260206004820152601460248201527f496e76616c6964207369676e657220636f756e74000000000000000000000000604482015260640162000086565b5f81116200018b5760405162461bcd60e51b815260206004820152601a60248201527f496e76616c696420726571756972656420617070726f76616c73000000000000604482015260640162000086565b6001600160a01b03808516608052831660a0528151620001b2905f90602085019062000231565b5060c08190526969e10de76676d08000006001555f5b82518110156200022657600160055f858481518110620001ec57620001ec620003d9565b6020908102919091018101516001600160a01b031682528101919091526040015f20805460ff1916911515919091179055600101620001c8565b5050505050620003ed565b828054828255905f5260205f2090810192821562000287579160200282015b828111156200028757825182546001600160a01b0319166001600160a01b0390911617825560209092019160019091019062000250565b506200029592915062000299565b5090565b5b8082111562000295575f81556001016200029a565b80516001600160a01b0381168114620002c6575f80fd5b919050565b634e487b7160e01b5f52604160045260245ffd5b5f805f8060808587031215620002f3575f80fd5b620002fe85620002af565b935060206200030f818701620002af565b60408701519094506001600160401b03808211156200032c575f80fd5b818801915088601f83011262000340575f80fd5b815181811115620003555762000355620002cb565b8060051b604051601f19603f830116810181811085821117156200037d576200037d620002cb565b60405291825284820192508381018501918b8311156200039b575f80fd5b938501935b82851015620003c457620003b485620002af565b84529385019392850192620003a0565b60609a909a0151989b979a5050505050505050565b634e487b7160e01b5f52603260045260245ffd5b60805160a05160c051611713620004345f395f81816103d9015281816109970152610a1101525f81816102790152610a4901525f818161034b015261091801526117135ff3fe60806040526004361061013f575f3560e01c80638eb827ee116100b3578063b9d1d49b1161006d578063b9d1d49b14610439578063bbd5313b1461044e578063c08cc02d14610464578063c7f758a814610478578063da35c664146104a4578063fe0d94c1146104b9575f80fd5b80638eb827ee1461033a5780639080936f1461036d578063934f4b09146103ab57806399c1aadc146103c85780639e626799146103fb578063b759f9541461041a575f80fd5b806327eb6c0f1161010457806327eb6c0f146102685780633446e4b41461029b57806340e58ee5146102ba5780637df73e27146102d957806382ff16c1146103075780638b1e24ab14610326575f80fd5b8063023b8693146101ab57806311d54239146101db57806312065fe0146101f05780632079fb9a146102025780632358d5a814610239575f80fd5b366101a757336001600160a01b03167f53bd392522b272902b85d06641a5c298f18e160fffff1e84a020e622f79228103460405161019d91815260406020820181905260069082015265191a5c9958dd60d21b606082015260800190565b60405180910390a2005b5f80fd5b3480156101b6575f80fd5b506101c86969e10de76676d080000081565b6040519081526020015b60405180910390f35b6101ee6101e9366004611197565b6104d8565b005b3480156101fb575f80fd5b50476101c8565b34801561020d575f80fd5b5061022161021c3660046111d6565b610521565b6040516001600160a01b0390911681526020016101d2565b348015610244575f80fd5b50610258610253366004611208565b610548565b60405190151581526020016101d2565b348015610273575f80fd5b506102217f000000000000000000000000000000000000000000000000000000000000000081565b3480156102a6575f80fd5b506101ee6102b53660046111d6565b610574565b3480156102c5575f80fd5b506101ee6102d43660046111d6565b6105a8565b3480156102e4575f80fd5b506102586102f3366004611232565b60056020525f908152604090205460ff1681565b348015610312575f80fd5b506101c8610321366004611252565b61068f565b348015610331575f80fd5b506101c8610915565b348015610345575f80fd5b506102217f000000000000000000000000000000000000000000000000000000000000000081565b348015610378575f80fd5b5061039e6103873660046111d6565b5f9081526003602052604090206007015460ff1690565b6040516101d2919061130a565b3480156103b6575f80fd5b506101c869152d02c7e14af680000081565b3480156103d3575f80fd5b506101c87f000000000000000000000000000000000000000000000000000000000000000081565b348015610406575f80fd5b506101ee610415366004611318565b610a3e565b348015610425575f80fd5b506101ee6104343660046111d6565b610b90565b348015610444575f80fd5b506101c860015481565b348015610459575f80fd5b506101c862093a8081565b34801561046f575f80fd5b506002546101c8565b348015610483575f80fd5b506104976104923660046111d6565b610d33565b6040516101d291906113b1565b3480156104af575f80fd5b506101c860025481565b3480156104c4575f80fd5b506101ee6104d33660046111d6565b610f24565b336001600160a01b03167f53bd392522b272902b85d06641a5c298f18e160fffff1e84a020e622f79228103484846040516105159392919061146e565b60405180910390a25050565b5f818154811061052f575f80fd5b5f918252602090912001546001600160a01b0316905081565b5f8281526004602090815260408083206001600160a01b038516845290915290205460ff165b92915050565b335f9081526005602052604090205460ff166105a35760405163ea8e4eb560e01b815260040160405180910390fd5b600155565b5f81815260036020526040812080549091036105d75760405163635e873760e01b815260040160405180910390fd5b6004600782015460ff1660068111156105f2576105f26112d6565b148061061657506006600782015460ff166006811115610614576106146112d6565b145b156106345760405163b437280360e01b815260040160405180910390fd5b60018101546001600160a01b031633148015906106605750335f9081526005602052604090205460ff16155b1561067e5760405163ea8e4eb560e01b815260040160405180910390fd5b600701805460ff1916600617905550565b5f6001600160a01b0387166106b75760405163416aebb560e11b815260040160405180910390fd5b69152d02c7e14af68000008611156106e25760405163a8fb222760e01b815260040160405180910390fd5b60025f81546106f0906114b7565b9190508190559050604051806101400160405280828152602001336001600160a01b03168152602001886001600160a01b0316815260200187815260200186868080601f0160208091040260200160405190810160405280939291908181526020018383808284375f9201919091525050509082525042602082018190526040909101906107829062093a80906114cf565b81526020015f81526020016001815260200184848080601f0160208091040260200160405190810160405280939291908181526020018383808284375f9201829052509390945250508381526003602081815260409283902085518155908501516001820180546001600160a01b03199081166001600160a01b03938416179091559386015160028301805490951691161790925560608401519082015560808301519091506004820190610837908261157a565b5060a0820151816005015560c0820151816006015560e0820151816007015f6101000a81548160ff02191690836006811115610875576108756112d6565b02179055506101008201516008820155610120820151600982019061089a908261157a565b5050505f81815260046020908152604080832033808552925291829020805460ff1916600117905590516001600160a01b038916919083907f51820485866a12445a1d315205e4d28921833b1ed028aed01a8c0c26fa068d7090610903908b908990899061146e565b60405180910390a49695505050505050565b5f7f00000000000000000000000000000000000000000000000000000000000000006001600160a01b031663dee5e55b6040518163ffffffff1660e01b8152600401602060405180830381865afa925050508015610990575060408051601f3d908101601f1916820190925261098d9181019061163a565b60015b6109b957507f000000000000000000000000000000000000000000000000000000000000000090565b5f8160038111156109cc576109cc6112d6565b14806109e9575060018160038111156109e7576109e76112d6565b145b156109f657600191505090565b6002816003811115610a0a57610a0a6112d6565b03610a36577f000000000000000000000000000000000000000000000000000000000000000091505090565b600191505090565b336001600160a01b037f00000000000000000000000000000000000000000000000000000000000000001614610a87576040516343b7c64960e11b815260040160405180910390fd5b6001600160a01b038416610aae5760405163416aebb560e11b815260040160405180910390fd5b5f846001600160a01b0316846040515f6040518083038185875af1925050503d805f8114610af7576040519150601f19603f3d011682016040523d82523d5f602084013e610afc565b606091505b5050905080610b445760405162461bcd60e51b815260206004820152600f60248201526e151c985b9cd9995c8819985a5b1959608a1b60448201526064015b60405180910390fd5b846001600160a01b03167f0b6611f2b90ce7e47b1f8bfc81e38fb1a210f6766c91b8c8d5ee36305d752060858585604051610b819392919061146e565b60405180910390a25050505050565b5f8181526003602052604081208054909103610bbf5760405163635e873760e01b815260040160405180910390fd5b5f600782015460ff166006811115610bd957610bd96112d6565b14158015610c0057506001600782015460ff166006811115610bfd57610bfd6112d6565b14155b15610c1e5760405163b437280360e01b815260040160405180910390fd5b5f82815260046020908152604080832033845290915290205460ff1615610c585760405163080fc0bd60e11b815260040160405180910390fd5b5f8281526004602090815260408083203384529091528120805460ff1916600117905560088201805491610c8b836114b7565b909155505f9050600782015460ff166006811115610cab57610cab6112d6565b03610cc05760078101805460ff191660011790555b5f610cc9610915565b905080826008015410610ce65760078201805460ff191660021790555b336001600160a01b0316837f2f0f51d2f12c71357e60d575d47e93e081dbaf32072245ab1e01540f0aadbf1a8460080154604051610d2691815260200190565b60405180910390a3505050565b610d3b6110e4565b5f8281526003602052604081208054909103610d6a5760405163635e873760e01b815260040160405180910390fd5b60408051610140810182528254815260018301546001600160a01b039081166020830152600284015416918101919091526003820154606082015260048201805483916080840191610dbb906114f6565b80601f0160208091040260200160405190810160405280929190818152602001828054610de7906114f6565b8015610e325780601f10610e0957610100808354040283529160200191610e32565b820191905f5260205f20905b815481529060010190602001808311610e1557829003601f168201915b5050509183525050600582015460208201526006808301546040830152600783015460609092019160ff1690811115610e6d57610e6d6112d6565b6006811115610e7e57610e7e6112d6565b815260200160088201548152602001600982018054610e9c906114f6565b80601f0160208091040260200160405190810160405280929190818152602001828054610ec8906114f6565b8015610f135780601f10610eea57610100808354040283529160200191610f13565b820191905f5260205f20905b815481529060010190602001808311610ef657829003601f168201915b505050505081525050915050919050565b5f8181526003602052604081208054909103610f535760405163635e873760e01b815260040160405180910390fd5b610f5b610915565b81600801541015610f7f57604051638af69cf160e01b815260040160405180910390fd5b8060060154421015610fa45760405163191f4d1b60e31b815260040160405180910390fd5b5f816003015447610fb59190611658565b9050600154811015610fda5760405163c0467f2d60e01b815260040160405180910390fd5b60078201805460ff19166004908117909155600283015460038401546040515f936001600160a01b0390931692611014919087019061166b565b5f6040518083038185875af1925050503d805f811461104e576040519150601f19603f3d011682016040523d82523d5f602084013e611053565b606091505b50509050806110965760405162461bcd60e51b815260206004820152600f60248201526e151c985b9cd9995c8819985a5b1959608a1b6044820152606401610b3b565b336001600160a01b0316847f3b7c90df35b419337cff0919fe91849006607bb66c4373623f06f9d48c1ebb9885600301546040516110d691815260200190565b60405180910390a350505050565b6040518061014001604052805f81526020015f6001600160a01b031681526020015f6001600160a01b031681526020015f8152602001606081526020015f81526020015f81526020015f600681111561113f5761113f6112d6565b81526020015f8152602001606081525090565b5f8083601f840112611162575f80fd5b50813567ffffffffffffffff811115611179575f80fd5b602083019150836020828501011115611190575f80fd5b9250929050565b5f80602083850312156111a8575f80fd5b823567ffffffffffffffff8111156111be575f80fd5b6111ca85828601611152565b90969095509350505050565b5f602082840312156111e6575f80fd5b5035919050565b80356001600160a01b0381168114611203575f80fd5b919050565b5f8060408385031215611219575f80fd5b82359150611229602084016111ed565b90509250929050565b5f60208284031215611242575f80fd5b61124b826111ed565b9392505050565b5f805f805f8060808789031215611267575f80fd5b611270876111ed565b955060208701359450604087013567ffffffffffffffff80821115611293575f80fd5b61129f8a838b01611152565b909650945060608901359150808211156112b7575f80fd5b506112c489828a01611152565b979a9699509497509295939492505050565b634e487b7160e01b5f52602160045260245ffd5b6007811061130657634e487b7160e01b5f52602160045260245ffd5b9052565b6020810161056e82846112ea565b5f805f806060858703121561132b575f80fd5b611334856111ed565b935060208501359250604085013567ffffffffffffffff811115611356575f80fd5b61136287828801611152565b95989497509550505050565b5f81518084525f5b8181101561139257602081850181015186830182015201611376565b505f602082860101526020601f19601f83011685010191505092915050565b60208152815160208201525f60208301516113d760408401826001600160a01b03169052565b5060408301516001600160a01b0381166060840152506060830151608083015260808301516101408060a085015261141361016085018361136e565b915060a085015160c085015260c085015160e085015260e085015161010061143d818701836112ea565b86015161012086810191909152860151858403601f1901838701529050611464838261136e565b9695505050505050565b83815260406020820152816040820152818360608301375f818301606090810191909152601f909201601f1916010192915050565b634e487b7160e01b5f52601160045260245ffd5b5f600182016114c8576114c86114a3565b5060010190565b8082018082111561056e5761056e6114a3565b634e487b7160e01b5f52604160045260245ffd5b600181811c9082168061150a57607f821691505b60208210810361152857634e487b7160e01b5f52602260045260245ffd5b50919050565b601f82111561157557805f5260205f20601f840160051c810160208510156115535750805b601f840160051c820191505b81811015611572575f815560010161155f565b50505b505050565b815167ffffffffffffffff811115611594576115946114e2565b6115a8816115a284546114f6565b8461152e565b602080601f8311600181146115db575f84156115c45750858301515b5f19600386901b1c1916600185901b178555611632565b5f85815260208120601f198616915b82811015611609578886015182559484019460019091019084016115ea565b508582101561162657878501515f19600388901b60f8161c191681555b505060018460011b0185555b505050505050565b5f6020828403121561164a575f80fd5b81516004811061124b575f80fd5b8181038181111561056e5761056e6114a3565b5f808354611678816114f6565b6001828116801561169057600181146116a5576116d1565b60ff19841687528215158302870194506116d1565b875f526020805f205f5b858110156116c85781548a8201529084019082016116af565b50505082870194505b5092969550505050505056fea26469706673582212204186db4b5d276697c5ed2cf5cd542f9fb4e27bb80aea12717c31902a5f87893e64736f6c63430008180033","linkReferences":{}},"methodIdentifiers":{"DEFAULT_MIN_BALANCE()":"023b8693","MAX_SINGLE_SPEND()":"934f4b09","TIME_LOCK_PERIOD()":"bbd5313b","approve(uint256)":"b759f954","cancel(uint256)":"40e58ee5","emergencyWithdraw(address,uint256,string)":"9e626799","execute(uint256)":"fe0d94c1","getBalance()":"12065fe0","getProposal(uint256)":"c7f758a8","getProposalCount()":"c08cc02d","getProposalState(uint256)":"9080936f","getRequiredApprovals()":"8b1e24ab","governanceSwitch()":"8eb827ee","hasApproved(uint256,address)":"2358d5a8","isSigner(address)":"7df73e27","minimumBalance()":"b9d1d49b","proposalCount()":"da35c664","propose(address,uint256,bytes,string)":"82ff16c1","receiveFunds(string)":"11d54239","requiredApprovals()":"99c1aadc","securityCouncil()":"27eb6c0f","setMinimumBalance(uint256)":"3446e4b4","signers(uint256)":"2079fb9a"},"id":76}