{"abi":[{"type":"constructor","inputs":[{"name":"_token","type":"address","internalType":"address"},{"name":"_rewardDistributor","type":"address","internalType":"address"}],"stateMutability":"nonpayable"},{"type":"function","name":"BASIS_POINTS","inputs":[],"outputs":[{"name":"","type":"uint256","internalType":"uint256"}],"stateMutability":"view"},{"type":"function","name":"EPOCH_DURATION","inputs":[],"outputs":[{"name":"","type":"uint256","internalType":"uint256"}],"stateMutability":"view"},{"type":"function","name":"FINAL_INFLATION_RATE","inputs":[],"outputs":[{"name":"","type":"uint256","internalType":"uint256"}],"stateMutability":"view"},{"type":"function","name":"INITIAL_INFLATION_RATE","inputs":[],"outputs":[{"name":"","type":"uint256","internalType":"uint256"}],"stateMutability":"view"},{"type":"function","name":"REDUCTION_PERIOD","inputs":[],"outputs":[{"name":"","type":"uint256","internalType":"uint256"}],"stateMutability":"view"},{"type":"function","name":"admin","inputs":[],"outputs":[{"name":"","type":"address","internalType":"address"}],"stateMutability":"view"},{"type":"function","name":"calculateYearlyMint","inputs":[{"name":"totalSupply","type":"uint256","internalType":"uint256"}],"outputs":[{"name":"","type":"uint256","internalType":"uint256"}],"stateMutability":"view"},{"type":"function","name":"canMint","inputs":[],"outputs":[{"name":"","type":"bool","internalType":"bool"}],"stateMutability":"view"},{"type":"function","name":"deploymentTimestamp","inputs":[],"outputs":[{"name":"","type":"uint256","internalType":"uint256"}],"stateMutability":"view"},{"type":"function","name":"getCurrentEpoch","inputs":[],"outputs":[{"name":"","type":"tuple","internalType":"struct IQSInflation.InflationEpoch","components":[{"name":"epochId","type":"uint256","internalType":"uint256"},{"name":"startTime","type":"uint256","internalType":"uint256"},{"name":"endTime","type":"uint256","internalType":"uint256"},{"name":"inflationRate","type":"uint256","internalType":"uint256"},{"name":"mintedAmount","type":"uint256","internalType":"uint256"},{"name":"isMinted","type":"bool","internalType":"bool"}]}],"stateMutability":"view"},{"type":"function","name":"getCurrentInflationRate","inputs":[],"outputs":[{"name":"","type":"uint256","internalType":"uint256"}],"stateMutability":"view"},{"type":"function","name":"getInflationRateForYear","inputs":[{"name":"year","type":"uint256","internalType":"uint256"}],"outputs":[{"name":"","type":"uint256","internalType":"uint256"}],"stateMutability":"pure"},{"type":"function","name":"getTotalInflationMinted","inputs":[],"outputs":[{"name":"","type":"uint256","internalType":"uint256"}],"stateMutability":"view"},{"type":"function","name":"lastMintedEpoch","inputs":[],"outputs":[{"name":"","type":"uint256","internalType":"uint256"}],"stateMutability":"view"},{"type":"function","name":"mintInflation","inputs":[],"outputs":[{"name":"amount","type":"uint256","internalType":"uint256"}],"stateMutability":"nonpayable"},{"type":"function","name":"rewardDistributor","inputs":[],"outputs":[{"name":"","type":"address","internalType":"address"}],"stateMutability":"view"},{"type":"function","name":"setRewardDistributor","inputs":[{"name":"_distributor","type":"address","internalType":"address"}],"outputs":[],"stateMutability":"nonpayable"},{"type":"function","name":"timeUntilNextMint","inputs":[],"outputs":[{"name":"","type":"uint256","internalType":"uint256"}],"stateMutability":"view"},{"type":"function","name":"token","inputs":[],"outputs":[{"name":"","type":"address","internalType":"contract IQSToken"}],"stateMutability":"view"},{"type":"function","name":"totalInflationMinted","inputs":[],"outputs":[{"name":"","type":"uint256","internalType":"uint256"}],"stateMutability":"view"},{"type":"event","name":"InflationMinted","inputs":[{"name":"epochId","type":"uint256","indexed":true,"internalType":"uint256"},{"name":"amount","type":"uint256","indexed":false,"internalType":"uint256"},{"name":"totalSupply","type":"uint256","indexed":false,"internalType":"uint256"},{"name":"timestamp","type":"uint256","indexed":false,"internalType":"uint256"}],"anonymous":false},{"type":"event","name":"InflationRateTransitioned","inputs":[{"name":"oldRate","type":"uint256","indexed":false,"internalType":"uint256"},{"name":"newRate","type":"uint256","indexed":false,"internalType":"uint256"},{"name":"timestamp","type":"uint256","indexed":false,"internalType":"uint256"}],"anonymous":false},{"type":"event","name":"RewardDistributorUpdated","inputs":[{"name":"oldDistributor","type":"address","indexed":true,"internalType":"address"},{"name":"newDistributor","type":"address","indexed":true,"internalType":"address"}],"anonymous":false},{"type":"error","name":"InvalidDistributor","inputs":[]},{"type":"error","name":"InvalidToken","inputs":[]},{"type":"error","name":"MintingNotAvailable","inputs":[]},{"type":"error","name":"NotAuthorized","inputs":[]},{"type":"error","name":"TokenNotSet","inputs":[]}],"bytecode":{"object":"0x60e060405234801561000f575f80fd5b50604051610a52380380610a5283398101604081905261002e916100c6565b6001600160a01b0382166100555760405163c1ab6dc160e01b815260040160405180910390fd5b6001600160a01b03811661007c57604051635c187b8d60e01b815260040160405180910390fd5b6001600160a01b039182166080525f80546001600160a01b031916919092161790553360a0524260c0526100f7565b80516001600160a01b03811681146100c1575f80fd5b919050565b5f80604083850312156100d7575f80fd5b6100e0836100ab565b91506100ee602084016100ab565b90509250929050565b60805160a05160c0516109006101525f395f818161025e0152818161031f0152818161036a0152818161058601526107cb01525f818161029e01526103fd01525f81816102c501528181610654015261072401526109005ff3fe608060405234801561000f575f80fd5b5060043610610127575f3560e01c8063b540e156116100a9578063c551a2f91161006e578063c551a2f914610280578063e1f1c4a714610288578063e80710ae14610291578063f851a44014610299578063fc0c546a146102c0575f80fd5b8063b540e156146101d1578063b97dd9e2146101e4578063be8db66614610239578063beb9716d14610241578063bfc12c0514610259575f80fd5b8063a1809b95116100ef578063a1809b9514610169578063a4e2e7b01461017e578063a70b9f0c14610189578063acc2166a14610194578063b034a315146101be575f80fd5b80630ac9dcd01461012b5780630e8601fc146101465780631384b2191461014f5780638125981d1461015757806395d9577714610160575b5f80fd5b6101336102e7565b6040519081526020015b60405180910390f35b6101336101f481565b610133610363565b61013360015481565b61013360025481565b61017c610177366004610800565b6103f2565b005b610133630784ce0081565b6101336301e1338081565b5f546101a6906001600160a01b031681565b6040516001600160a01b03909116815260200161013d565b6101336101cc366004610826565b6104b1565b6101336101df366004610826565b6104db565b6101ec610526565b60405161013d91905f60c082019050825182526020830151602083015260408301516040830152606083015160608301526080830151608083015260a0830151151560a083015292915050565b610133606481565b61024961060c565b604051901515815260200161013d565b6101337f000000000000000000000000000000000000000000000000000000000000000081565b610133610620565b61013361271081565b600254610133565b6101a67f000000000000000000000000000000000000000000000000000000000000000081565b6101a67f000000000000000000000000000000000000000000000000000000000000000081565b5f6102f061060c565b156102fa57505f90565b5f6301e13380600154600161030f9190610851565b610319919061086a565b610343907f0000000000000000000000000000000000000000000000000000000000000000610851565b9050804210610353575f91505090565b61035d4282610881565b91505090565b5f8061038f7f000000000000000000000000000000000000000000000000000000000000000042610881565b9050630784ce0081106103a457606491505090565b5f6103b36301e1338083610894565b9050805f036103c6576101f49250505090565b806001036103d8576101779250505090565b806002036103e95760fa9250505090565b60649250505090565b336001600160a01b037f0000000000000000000000000000000000000000000000000000000000000000161461043b5760405163ea8e4eb560e01b815260040160405180910390fd5b6001600160a01b03811661046257604051635c187b8d60e01b815260040160405180910390fd5b5f80546001600160a01b038381166001600160a01b0319831681178455604051919092169283917f1df95772db25c427e0df149fe4cd5b7c2e970e096ee7305ff86f6e1167281d7b9190a35050565b5f806104bb610363565b90506127106104ca828561086a565b6104d49190610894565b9392505050565b5f815f036104ec57506101f4919050565b816001036104fd57506101f4919050565b8160020361050e5750610177919050565b8160030361051e575060fa919050565b506064919050565b61055b6040518060c001604052805f81526020015f81526020015f81526020015f81526020015f81526020015f151581525090565b5f6105646107c4565b90505f61056f610363565b90505f6105806301e133808461086a565b6105aa907f0000000000000000000000000000000000000000000000000000000000000000610851565b90505f6105bb6301e1338083610851565b90506040518060c0016040528085815260200183815260200182815260200184815260200160015486146105ef575f6105f3565b6002545b8152602001600154861115151581525094505050505090565b5f806106166107c4565b6001541092915050565b5f61062961060c565b6106465760405163921e794960e01b815260040160405180910390fd5b5f61064f6107c4565b90505f7f00000000000000000000000000000000000000000000000000000000000000006001600160a01b03166318160ddd6040518163ffffffff1660e01b8152600401602060405180830381865afa1580156106ae573d5f803e3d5ffd5b505050506040513d601f19601f820116820180604052508101906106d291906108b3565b90506106dd816104b1565b9250816001819055508260025f8282546106f79190610851565b90915550505f546040516340c10f1960e01b81526001600160a01b039182166004820152602481018590527f0000000000000000000000000000000000000000000000000000000000000000909116906340c10f19906044015f604051808303815f87803b158015610767575f80fd5b505af1158015610779573d5f803e3d5ffd5b50506040805186815260208101859052428183015290518593507f7d4cc56a76dbd89d8fda9e27aa051b7e14c3a44af0647765f4f49197b580eeff92509081900360600190a2505090565b5f806107f07f000000000000000000000000000000000000000000000000000000000000000042610881565b905061035d6301e1338082610894565b5f60208284031215610810575f80fd5b81356001600160a01b03811681146104d4575f80fd5b5f60208284031215610836575f80fd5b5035919050565b634e487b7160e01b5f52601160045260245ffd5b808201808211156108645761086461083d565b92915050565b80820281158282048414176108645761086461083d565b818103818111156108645761086461083d565b5f826108ae57634e487b7160e01b5f52601260045260245ffd5b500490565b5f602082840312156108c3575f80fd5b505191905056fea26469706673582212205885cf9e7bf8d95bc41e1363f0643c6ed102f632f469ea81ce61bf759c9d984964736f6c63430008180033","linkReferences":{}},"methodIdentifiers":{"BASIS_POINTS()":"e1f1c4a7","EPOCH_DURATION()":"a70b9f0c","FINAL_INFLATION_RATE()":"be8db666","INITIAL_INFLATION_RATE()":"0e8601fc","REDUCTION_PERIOD()":"a4e2e7b0","admin()":"f851a440","calculateYearlyMint(uint256)":"b034a315","canMint()":"beb9716d","deploymentTimestamp()":"bfc12c05","getCurrentEpoch()":"b97dd9e2","getCurrentInflationRate()":"1384b219","getInflationRateForYear(uint256)":"b540e156","getTotalInflationMinted()":"e80710ae","lastMintedEpoch()":"8125981d","mintInflation()":"c551a2f9","rewardDistributor()":"acc2166a","setRewardDistributor(address)":"a1809b95","timeUntilNextMint()":"0ac9dcd0","token()":"fc0c546a","totalInflationMinted()":"95d95777"},"id":93}