{"abi":[{"type":"constructor","inputs":[{"name":"_admin","type":"address","internalType":"address"}],"stateMutability":"nonpayable"},{"type":"receive","stateMutability":"payable"},{"type":"function","name":"admin","inputs":[],"outputs":[{"name":"","type":"address","internalType":"address"}],"stateMutability":"view"},{"type":"function","name":"getBalance","inputs":[],"outputs":[{"name":"","type":"uint256","internalType":"uint256"}],"stateMutability":"view"},{"type":"function","name":"withdraw","inputs":[{"name":"to","type":"address","internalType":"address"},{"name":"amount","type":"uint256","internalType":"uint256"}],"outputs":[],"stateMutability":"nonpayable"},{"type":"event","name":"FundsReceived","inputs":[{"name":"from","type":"address","indexed":true,"internalType":"address"},{"name":"amount","type":"uint256","indexed":false,"internalType":"uint256"}],"anonymous":false},{"type":"event","name":"FundsWithdrawn","inputs":[{"name":"to","type":"address","indexed":true,"internalType":"address"},{"name":"amount","type":"uint256","indexed":false,"internalType":"uint256"}],"anonymous":false}],"bytecode":{"object":"0x60803461007357601f6102fc38819003918201601f19168301916001600160401b038311848410176100775780849260209460405283398101031261007357516001600160a01b03811690819003610073575f80546001600160a01b031916919091179055604051610270908161008c8239f35b5f80fd5b634e487b7160e01b5f52604160045260245ffdfe608060409080825260048036101561004a575b5050361561001e575f80fd5b513481527f8e47b87b0ef542cdfa1659c551d88bad38aa7f452d2bbb349ab7530dfec8be8f60203392a2005b5f3560e01c91826312065fe01461022257508163f3fef3a3146100a3575063f851a44014610079575f80610012565b3461009f575f36600319011261009f575f5490516001600160a01b039091168152602090f35b5f80fd5b90503461009f578160031936011261009f576001600160a01b0381358181169391929084810361009f576024908135945f541633036101f3578447106101ba575f80808781945af13d156101b55767ffffffffffffffff3d8181116101a357855191601f8201601f19908116603f011683019081118382101761019157865281525f60203d92013e5b1561015e57847feaff4b37086828766ad3268786972c0cd24259d4c87a80f9d3963a3c3d999b0d6020868651908152a2005b600f906020606494519362461bcd60e51b85528401528201526e151c985b9cd9995c8819985a5b1959608a1b6044820152fd5b84604187634e487b7160e01b5f52525ffd5b83604186634e487b7160e01b5f52525ffd5b61012c565b506014906020606494519362461bcd60e51b855284015282015273496e73756666696369656e742062616c616e636560601b6044820152fd5b50600a906020606494519362461bcd60e51b85528401528201526927b7363c9030b236b4b760b11b6044820152fd5b3461009f575f36600319011261009f57602090478152f3fea2646970667358221220b3bb0415e11c8ebcedc4fce56d42304ba21444324aee545f788562518269f6db64736f6c63430008180033","linkReferences":{}},"methodIdentifiers":{"admin()":"f851a440","getBalance()":"12065fe0","withdraw(address,uint256)":"f3fef3a3"},"id":84}