{"abi":[{"type":"constructor","inputs":[{"name":"_governanceSwitch","type":"address","internalType":"address"}],"stateMutability":"nonpayable"},{"type":"function","name":"BASIS_POINTS","inputs":[],"outputs":[{"name":"","type":"uint256","internalType":"uint256"}],"stateMutability":"view"},{"type":"function","name":"EMERGENCY_TIME_LOCK","inputs":[],"outputs":[{"name":"","type":"uint256","internalType":"uint256"}],"stateMutability":"view"},{"type":"function","name":"NORMAL_TIME_LOCK","inputs":[],"outputs":[{"name":"","type":"uint256","internalType":"uint256"}],"stateMutability":"view"},{"type":"function","name":"SLASHING_RATE_BASE","inputs":[],"outputs":[{"name":"","type":"uint256","internalType":"uint256"}],"stateMutability":"view"},{"type":"function","name":"admin","inputs":[],"outputs":[{"name":"","type":"address","internalType":"address"}],"stateMutability":"view"},{"type":"function","name":"applyVotingPowerCap","inputs":[{"name":"userVotes","type":"uint256","internalType":"uint256"},{"name":"totalVotes","type":"uint256","internalType":"uint256"}],"outputs":[{"name":"","type":"uint256","internalType":"uint256"}],"stateMutability":"view"},{"type":"function","name":"calculateFee","inputs":[{"name":"amount","type":"uint256","internalType":"uint256"}],"outputs":[{"name":"","type":"uint256","internalType":"uint256"}],"stateMutability":"view"},{"type":"function","name":"calculateSlashing","inputs":[{"name":"baseAmount","type":"uint256","internalType":"uint256"},{"name":"violationCount","type":"uint256","internalType":"uint256"}],"outputs":[{"name":"","type":"uint256","internalType":"uint256"}],"stateMutability":"pure"},{"type":"function","name":"feeRate","inputs":[],"outputs":[{"name":"","type":"uint256","internalType":"uint256"}],"stateMutability":"view"},{"type":"function","name":"getAllParameters","inputs":[],"outputs":[{"name":"","type":"tuple","internalType":"struct IEconomicParameters.ParameterSet","components":[{"name":"feeRate","type":"uint256","internalType":"uint256"},{"name":"minimumFee","type":"uint256","internalType":"uint256"},{"name":"minimumStake","type":"uint256","internalType":"uint256"},{"name":"unbondingPeriod","type":"uint256","internalType":"uint256"},{"name":"votingPowerCap","type":"uint256","internalType":"uint256"},{"name":"normalTimeLock","type":"uint256","internalType":"uint256"},{"name":"emergencyTimeLock","type":"uint256","internalType":"uint256"},{"name":"slashingRateBase","type":"uint256","internalType":"uint256"}]}],"stateMutability":"view"},{"type":"function","name":"governanceSwitch","inputs":[],"outputs":[{"name":"","type":"address","internalType":"contract IGovernanceSwitch"}],"stateMutability":"view"},{"type":"function","name":"isValidStake","inputs":[{"name":"amount","type":"uint256","internalType":"uint256"}],"outputs":[{"name":"","type":"bool","internalType":"bool"}],"stateMutability":"view"},{"type":"function","name":"minimumFee","inputs":[],"outputs":[{"name":"","type":"uint256","internalType":"uint256"}],"stateMutability":"view"},{"type":"function","name":"minimumStake","inputs":[],"outputs":[{"name":"","type":"uint256","internalType":"uint256"}],"stateMutability":"view"},{"type":"function","name":"setFeeRate","inputs":[{"name":"_feeRate","type":"uint256","internalType":"uint256"}],"outputs":[],"stateMutability":"nonpayable"},{"type":"function","name":"setMinimumFee","inputs":[{"name":"_minimumFee","type":"uint256","internalType":"uint256"}],"outputs":[],"stateMutability":"nonpayable"},{"type":"function","name":"setMinimumStake","inputs":[{"name":"_minimumStake","type":"uint256","internalType":"uint256"}],"outputs":[],"stateMutability":"nonpayable"},{"type":"function","name":"setUnbondingPeriod","inputs":[{"name":"_unbondingPeriod","type":"uint256","internalType":"uint256"}],"outputs":[],"stateMutability":"nonpayable"},{"type":"function","name":"setVotingPowerCap","inputs":[{"name":"_votingPowerCap","type":"uint256","internalType":"uint256"}],"outputs":[],"stateMutability":"nonpayable"},{"type":"function","name":"unbondingPeriod","inputs":[],"outputs":[{"name":"","type":"uint256","internalType":"uint256"}],"stateMutability":"view"},{"type":"function","name":"votingPowerCap","inputs":[],"outputs":[{"name":"","type":"uint256","internalType":"uint256"}],"stateMutability":"view"},{"type":"event","name":"FeeRateUpdated","inputs":[{"name":"oldRate","type":"uint256","indexed":false,"internalType":"uint256"},{"name":"newRate","type":"uint256","indexed":false,"internalType":"uint256"},{"name":"timestamp","type":"uint256","indexed":false,"internalType":"uint256"}],"anonymous":false},{"type":"event","name":"MinimumFeeUpdated","inputs":[{"name":"oldFee","type":"uint256","indexed":false,"internalType":"uint256"},{"name":"newFee","type":"uint256","indexed":false,"internalType":"uint256"},{"name":"timestamp","type":"uint256","indexed":false,"internalType":"uint256"}],"anonymous":false},{"type":"event","name":"MinimumStakeUpdated","inputs":[{"name":"oldStake","type":"uint256","indexed":false,"internalType":"uint256"},{"name":"newStake","type":"uint256","indexed":false,"internalType":"uint256"},{"name":"timestamp","type":"uint256","indexed":false,"internalType":"uint256"}],"anonymous":false},{"type":"event","name":"UnbondingPeriodUpdated","inputs":[{"name":"oldPeriod","type":"uint256","indexed":false,"internalType":"uint256"},{"name":"newPeriod","type":"uint256","indexed":false,"internalType":"uint256"},{"name":"timestamp","type":"uint256","indexed":false,"internalType":"uint256"}],"anonymous":false},{"type":"event","name":"VotingPowerCapUpdated","inputs":[{"name":"oldCap","type":"uint256","indexed":false,"internalType":"uint256"},{"name":"newCap","type":"uint256","indexed":false,"internalType":"uint256"},{"name":"timestamp","type":"uint256","indexed":false,"internalType":"uint256"}],"anonymous":false},{"type":"error","name":"CannotReduceTimeLock","inputs":[]},{"type":"error","name":"CannotReduceUnbondingPeriod","inputs":[]},{"type":"error","name":"InvalidAddress","inputs":[]},{"type":"error","name":"InvalidParameter","inputs":[]},{"type":"error","name":"InvalidVotingPowerCap","inputs":[]},{"type":"error","name":"NotAuthorized","inputs":[]},{"type":"error","name":"SlashingRateImmutable","inputs":[]},{"type":"error","name":"TimeLockRequired","inputs":[]}],"bytecode":{"object":"0x60c0346100ca57601f610a5838819003918201601f19168301916001600160401b038311848410176100ce578084926020946040528339810103126100ca57516001600160a01b038116908190036100ca5780156100b8576080523360a05260055f55678ac7230489e800006001556969e10de76676d080000060025562093a806003556101f460045560405161097590816100e382396080518181816103aa0152610750015260a05181818161011a01526107a50152f35b60405163e6c4247b60e01b8152600490fd5b5f80fd5b634e487b7160e01b5f52604160045260245ffdfe6080604090808252600480361015610015575f80fd5b5f3560e01c91826302a0d5e61461060157508163114eaf5514610586578163182a7506146105275781631a7626e714610509578163233e9903146104aa57816345596e2e1461044c5781634c0a6804146104315781636cf6d675146104135781637e0ee4f1146103f657816386fdd39f146103d95781638eb827ee146103965781639171491b146102c1578163978bbdb9146102a457816399a5d74714610262578163ad59c0f814610240578163c8ffa3041461021e578163cbb012bc146101a357508063e1f1c4a714610187578063e4ad30921461016b578063ec5ffac21461014d5763f851a44014610107575f80fd5b34610149575f36600319011261014957517f00000000000000000000000000000000000000000000000000000000000000006001600160a01b03168152602090f35b5f80fd5b5034610149575f366003190112610149576020906002549051908152f35b5034610149575f36600319011261014957602090516103e88152f35b5034610149575f36600319011261014957602090516127108152f35b9050346101495760203660031901126101495780356101c0610730565b612710811161020f57815491819055915190815260208101919091524260408201527f56c7573fc09da286f35a63edfd0558a76b1e7d4bce6d3bc2d60edd28d3d78f899080606081015b0390a1005b509051631de9adc160e31b8152fd5b8234610149576020366003190112610149576002549051913510158152602090f35b82346101495760209061025b61025536610619565b906106f3565b9051908152f35b8234610149576020366003190112610149576127106102866020935f54903561062f565b046001548082115f1461029c5750905b51908152f35b905090610296565b8234610149575f366003190112610149576020905f549051908152f35b8234610149575f36600319011261014957610100915f60e083516102e4816106a0565b82815282602082015282858201528260608201528260808201528260a08201528260c082015201525f54916001549160025490600354905490835193610329856106a0565b86855260208501958652808501938452606085019182526080850192835260a085019362015180855260e060c087019662093a80885201966103e88852825198895251602089015251908701525160608601525160808501525160a08401525160c08301525160e0820152f35b8234610149575f36600319011261014957517f00000000000000000000000000000000000000000000000000000000000000006001600160a01b03168152602090f35b8234610149575f366003190112610149576020905162093a808152f35b8234610149575f3660031901126101495760209051620151808152f35b8234610149575f366003190112610149576020906003549051908152f35b82346101495760209061025b61044636610619565b90610656565b8234610149576020366003190112610149577f83e35c3e73f7713de354e131b34cefd5edc18271a6051c1be44445f7465a37fc9135610489610730565b5f80549082905591519182526020820152426040820152806060810161020a565b8234610149576020366003190112610149577f79f2d5d7ec7f0957db48deee0609856b303e31927488f2afc52996d59918c93591356104e7610730565b600280549082905591519182526020820152426040820152806060810161020a565b8234610149575f366003190112610149576020906001549051908152f35b8234610149576020366003190112610149577f537d8db5691d7c84713b717a1612c0287ad6f64e4592a4e5d76c99d231a16ce29135610564610730565b600180549082905591519182526020820152426040820152806060810161020a565b9050346101495760203660031901126101495780356105a3610730565b600354918282106105f357506003819055915190815260208101919091524260408201527fff65c15cd4ff822db29cf600b9d8eed0541bc59505cc63ac2869e19398bce81290806060810161020a565b83516358bc6c4760e11b8152fd5b34610149575f36600319011261014957602091548152f35b6040906003190112610149576004359060243590565b8181029291811591840414171561064257565b634e487b7160e01b5f52601160045260245ffd5b90801561069a5761066a816106709261062f565b8261062f565b6103e89081810291818304149015171561064257612710900481811115610695575090565b905090565b50505f90565b610100810190811067ffffffffffffffff8211176106bd57604052565b634e487b7160e01b5f52604160045260245ffd5b90601f8019910116810190811067ffffffffffffffff8211176106bd57604052565b90801561069a5761070a612710916004549061062f565b049081811115610695575090565b90816020910312610149575180151581036101495790565b6040805163dee5e55b60e01b8152600491906001600160a01b03906020907f000000000000000000000000000000000000000000000000000000000000000083169082818781855afa908115610935575f91610900575b5085811015806108ed57811580156108e1575b156107dc57505050507f00000000000000000000000000000000000000000000000000000000000000001633036107cf575050565b5163ea8e4eb560e01b8152fd5b90919293506108ce5760020361087957368411610149578251637d7c0e1f60e01b81525f356001600160e01b031916858201908152336020820152909183918391908290819060400103915afa91821561086f575f92610842575b5050156107cf575050565b6108619250803d10610868575b61085981836106d1565b810190610718565b5f80610837565b503d61084f565b83513d5f823e3d90fd5b368411610149578251637d7c0e1f60e01b81525f356001600160e01b031916858201908152336020820152909183918391908290819060400103915afa91821561086f575f92610842575050156107cf575050565b602185634e487b7160e01b5f525260245ffd5b50505f6001821461079a565b602187634e487b7160e01b5f525260245ffd5b90508281813d831161092e575b61091781836106d1565b81010312610149575185811015610149575f610787565b503d61090d565b85513d5f823e3d90fdfea2646970667358221220bd90c97be39ebf4bddb28e0d699b1de9d1993d3b283d64d59a5924cac8e6bf0c64736f6c63430008180033","linkReferences":{}},"methodIdentifiers":{"BASIS_POINTS()":"e1f1c4a7","EMERGENCY_TIME_LOCK()":"86fdd39f","NORMAL_TIME_LOCK()":"7e0ee4f1","SLASHING_RATE_BASE()":"e4ad3092","admin()":"f851a440","applyVotingPowerCap(uint256,uint256)":"ad59c0f8","calculateFee(uint256)":"99a5d747","calculateSlashing(uint256,uint256)":"4c0a6804","feeRate()":"978bbdb9","getAllParameters()":"9171491b","governanceSwitch()":"8eb827ee","isValidStake(uint256)":"c8ffa304","minimumFee()":"1a7626e7","minimumStake()":"ec5ffac2","setFeeRate(uint256)":"45596e2e","setMinimumFee(uint256)":"182a7506","setMinimumStake(uint256)":"233e9903","setUnbondingPeriod(uint256)":"114eaf55","setVotingPowerCap(uint256)":"cbb012bc","unbondingPeriod()":"6cf6d675","votingPowerCap()":"02a0d5e6"},"id":33}