{"abi":[{"type":"constructor","inputs":[{"name":"_securityCouncil","type":"address","internalType":"address"},{"name":"_veQS","type":"address","internalType":"address"},{"name":"_guardian","type":"address","internalType":"address"}],"stateMutability":"nonpayable"},{"type":"receive","stateMutability":"payable"},{"type":"function","name":"EXTENSION_QUORUM_BPS","inputs":[],"outputs":[{"name":"","type":"uint256","internalType":"uint256"}],"stateMutability":"view"},{"type":"function","name":"EXTENSION_VOTING_PERIOD","inputs":[],"outputs":[{"name":"","type":"uint256","internalType":"uint256"}],"stateMutability":"view"},{"type":"function","name":"MAX_EXTENSIONS","inputs":[],"outputs":[{"name":"","type":"uint256","internalType":"uint256"}],"stateMutability":"view"},{"type":"function","name":"MAX_EXTENSION_DURATION","inputs":[],"outputs":[{"name":"","type":"uint256","internalType":"uint256"}],"stateMutability":"view"},{"type":"function","name":"MAX_PAUSE_DURATION","inputs":[],"outputs":[{"name":"","type":"uint256","internalType":"uint256"}],"stateMutability":"view"},{"type":"function","name":"PAUSE_COOLDOWN","inputs":[],"outputs":[{"name":"","type":"uint256","internalType":"uint256"}],"stateMutability":"view"},{"type":"function","name":"currentExtensionCount","inputs":[],"outputs":[{"name":"","type":"uint256","internalType":"uint256"}],"stateMutability":"view"},{"type":"function","name":"executeExtension","inputs":[{"name":"extensionId","type":"uint256","internalType":"uint256"}],"outputs":[],"stateMutability":"nonpayable"},{"type":"function","name":"executeRecovery","inputs":[{"name":"recoveryType","type":"uint8","internalType":"enum IEmergencyController.RecoveryType"},{"name":"data","type":"bytes","internalType":"bytes"}],"outputs":[{"name":"actionId","type":"bytes32","internalType":"bytes32"}],"stateMutability":"nonpayable"},{"type":"function","name":"extensionQuorum","inputs":[],"outputs":[{"name":"","type":"uint256","internalType":"uint256"}],"stateMutability":"view"},{"type":"function","name":"getExtension","inputs":[{"name":"extensionId","type":"uint256","internalType":"uint256"}],"outputs":[{"name":"","type":"tuple","internalType":"struct IEmergencyController.ExtensionRequest","components":[{"name":"id","type":"uint256","internalType":"uint256"},{"name":"requestedDuration","type":"uint256","internalType":"uint256"},{"name":"proposedAt","type":"uint256","internalType":"uint256"},{"name":"votingDeadline","type":"uint256","internalType":"uint256"},{"name":"votesFor","type":"uint256","internalType":"uint256"},{"name":"votesAgainst","type":"uint256","internalType":"uint256"},{"name":"state","type":"uint8","internalType":"enum IEmergencyController.ExtensionState"},{"name":"proposer","type":"address","internalType":"address"}]}],"stateMutability":"view"},{"type":"function","name":"getPauseState","inputs":[],"outputs":[{"name":"","type":"tuple","internalType":"struct IEmergencyController.PauseState","components":[{"name":"paused","type":"bool","internalType":"bool"},{"name":"pausedBy","type":"address","internalType":"address"},{"name":"pausedAt","type":"uint256","internalType":"uint256"},{"name":"pausedUntil","type":"uint256","internalType":"uint256"},{"name":"reason","type":"string","internalType":"string"},{"name":"extensionCount","type":"uint256","internalType":"uint256"}]}],"stateMutability":"view"},{"type":"function","name":"guardian","inputs":[],"outputs":[{"name":"","type":"address","internalType":"address"}],"stateMutability":"view"},{"type":"function","name":"hasVotedOnExtension","inputs":[{"name":"extensionId","type":"uint256","internalType":"uint256"},{"name":"voter","type":"address","internalType":"address"}],"outputs":[{"name":"","type":"bool","internalType":"bool"}],"stateMutability":"view"},{"type":"function","name":"isPaused","inputs":[],"outputs":[{"name":"","type":"bool","internalType":"bool"}],"stateMutability":"view"},{"type":"function","name":"lastPauseTimestamp","inputs":[],"outputs":[{"name":"","type":"uint256","internalType":"uint256"}],"stateMutability":"view"},{"type":"function","name":"pause","inputs":[{"name":"reason","type":"string","internalType":"string"},{"name":"duration","type":"uint256","internalType":"uint256"}],"outputs":[],"stateMutability":"nonpayable"},{"type":"function","name":"pauseTimeRemaining","inputs":[],"outputs":[{"name":"","type":"uint256","internalType":"uint256"}],"stateMutability":"view"},{"type":"function","name":"proposeExtension","inputs":[{"name":"duration","type":"uint256","internalType":"uint256"}],"outputs":[{"name":"extensionId","type":"uint256","internalType":"uint256"}],"stateMutability":"nonpayable"},{"type":"function","name":"securityCouncil","inputs":[],"outputs":[{"name":"","type":"address","internalType":"address"}],"stateMutability":"view"},{"type":"function","name":"setGuardian","inputs":[{"name":"newGuardian","type":"address","internalType":"address"}],"outputs":[],"stateMutability":"nonpayable"},{"type":"function","name":"setSecurityCouncil","inputs":[{"name":"newSecurityCouncil","type":"address","internalType":"address"}],"outputs":[],"stateMutability":"nonpayable"},{"type":"function","name":"unpause","inputs":[],"outputs":[],"stateMutability":"nonpayable"},{"type":"function","name":"veQS","inputs":[],"outputs":[{"name":"","type":"address","internalType":"address"}],"stateMutability":"view"},{"type":"function","name":"voteOnExtension","inputs":[{"name":"extensionId","type":"uint256","internalType":"uint256"},{"name":"support","type":"bool","internalType":"bool"}],"outputs":[],"stateMutability":"nonpayable"},{"type":"event","name":"ExtensionProposed","inputs":[{"name":"extensionId","type":"uint256","indexed":true,"internalType":"uint256"},{"name":"requestedDuration","type":"uint256","indexed":false,"internalType":"uint256"},{"name":"proposer","type":"address","indexed":false,"internalType":"address"}],"anonymous":false},{"type":"event","name":"ExtensionVoted","inputs":[{"name":"extensionId","type":"uint256","indexed":true,"internalType":"uint256"},{"name":"voter","type":"address","indexed":true,"internalType":"address"},{"name":"support","type":"bool","indexed":false,"internalType":"bool"},{"name":"weight","type":"uint256","indexed":false,"internalType":"uint256"}],"anonymous":false},{"type":"event","name":"GuardianUpdated","inputs":[{"name":"oldGuardian","type":"address","indexed":true,"internalType":"address"},{"name":"newGuardian","type":"address","indexed":true,"internalType":"address"}],"anonymous":false},{"type":"event","name":"PauseExtended","inputs":[{"name":"extensionId","type":"uint256","indexed":true,"internalType":"uint256"},{"name":"newEndTime","type":"uint256","indexed":false,"internalType":"uint256"},{"name":"votesFor","type":"uint256","indexed":false,"internalType":"uint256"}],"anonymous":false},{"type":"event","name":"ProtocolPaused","inputs":[{"name":"pausedBy","type":"address","indexed":true,"internalType":"address"},{"name":"reason","type":"string","indexed":false,"internalType":"string"},{"name":"pausedUntil","type":"uint256","indexed":false,"internalType":"uint256"}],"anonymous":false},{"type":"event","name":"ProtocolUnpaused","inputs":[{"name":"unpausedBy","type":"address","indexed":true,"internalType":"address"}],"anonymous":false},{"type":"event","name":"RecoveryAction","inputs":[{"name":"actionId","type":"bytes32","indexed":true,"internalType":"bytes32"},{"name":"recoveryType","type":"uint8","indexed":false,"internalType":"enum IEmergencyController.RecoveryType"},{"name":"data","type":"bytes","indexed":false,"internalType":"bytes"}],"anonymous":false},{"type":"error","name":"AlreadyPaused","inputs":[]},{"type":"error","name":"AlreadyVotedOnExtension","inputs":[]},{"type":"error","name":"CooldownNotMet","inputs":[]},{"type":"error","name":"ExtensionAlreadyExists","inputs":[]},{"type":"error","name":"ExtensionNotApproved","inputs":[]},{"type":"error","name":"ExtensionNotFound","inputs":[]},{"type":"error","name":"ExtensionVotingNotActive","inputs":[]},{"type":"error","name":"InvalidDuration","inputs":[]},{"type":"error","name":"InvalidRecoveryAction","inputs":[]},{"type":"error","name":"MaxExtensionsReached","inputs":[]},{"type":"error","name":"NotAuthorized","inputs":[]},{"type":"error","name":"NotPaused","inputs":[]}],"bytecode":{"object":"0x608060405234801562000010575f80fd5b5060405162002a2d38038062002a2d833981016040819052620000339162000109565b6001600160a01b0383166200005b5760405163ea8e4eb560e01b815260040160405180910390fd5b6001600160a01b038216620000835760405163ea8e4eb560e01b815260040160405180910390fd5b6001600160a01b038116620000ab5760405163ea8e4eb560e01b815260040160405180910390fd5b5f80546001600160a01b039485166001600160a01b03199182161790915560018054938516938216939093179092556002805491909316911617905562000150565b80516001600160a01b038116811462000104575f80fd5b919050565b5f805f606084860312156200011c575f80fd5b6200012784620000ed565b92506200013760208501620000ed565b91506200014760408501620000ed565b90509250925092565b6128cf806200015e5f395ff3fe608060405260043610610164575f3560e01c806396a433ea116100cd578063b5acb56711610087578063c836561a11610062578063c836561a146103c8578063cf659963146103e7578063e1b8cb3b14610406578063f61eab7a1461041a575f80fd5b8063b5acb5671461037f578063b8ad6dcb14610395578063c07780f6146103b4575f80fd5b806396a433ea146102f757806397054dcb1461030b5780639a44f1fb146103205780639a5901de146103415780639e1e1bdf14610355578063b187bd261461036b575f80fd5b8063452a93201161011e578063452a932014610248578063510958be146102675780636d361bcb146102865780638047b34a1461029a57806383dd229d146102b95780638a0dac4a146102d8575f80fd5b806311bd4f7f1461016f5780631c1083e2146101a35780632799657d146101c457806327eb6c0f146101e85780632c8ebec81461021e5780633f4ba83a14610234575f80fd5b3661016b57005b5f80fd5b34801561017a575f80fd5b5061018e61018936600461221d565b610446565b60405190151581526020015b60405180910390f35b3480156101ae575f80fd5b506101c26101bd36600461224b565b610472565b005b3480156101cf575f80fd5b506101da6203f48081565b60405190815260200161019a565b3480156101f3575f80fd5b505f54610206906001600160a01b031681565b6040516001600160a01b03909116815260200161019a565b348015610229575f80fd5b506101da62093a8081565b34801561023f575f80fd5b506101c26104e4565b348015610253575f80fd5b50600254610206906001600160a01b031681565b348015610272575f80fd5b506101da6102813660046122b1565b610577565b348015610291575f80fd5b506101da6108b1565b3480156102a5575f80fd5b506101da6102b4366004612304565b6108e4565b3480156102c4575f80fd5b50600154610206906001600160a01b031681565b3480156102e3575f80fd5b506101c26102f236600461224b565b610b65565b348015610302575f80fd5b506007546101da565b348015610316575f80fd5b506101da61019081565b34801561032b575f80fd5b50610334610c07565b60405161019a919061233d565b34801561034c575f80fd5b506008546101da565b348015610360575f80fd5b506101da6202a30081565b348015610376575f80fd5b5061018e610d26565b34801561038a575f80fd5b506101da6201518081565b3480156103a0575f80fd5b506101c26103af366004612304565b610d2f565b3480156103bf575f80fd5b506101da600381565b3480156103d3575f80fd5b506101c26103e23660046123b7565b610ea0565b3480156103f2575f80fd5b506101c26104013660046123de565b611051565b348015610411575f80fd5b506101da61122a565b348015610425575f80fd5b50610439610434366004612304565b611255565b60405161019a9190612439565b5f828152600a602090815260408083206001600160a01b038516845290915290205460ff165b92915050565b5f546001600160a01b0316331461049c5760405163ea8e4eb560e01b815260040160405180910390fd5b6001600160a01b0381166104c35760405163ea8e4eb560e01b815260040160405180910390fd5b5f80546001600160a01b0319166001600160a01b0392909216919091179055565b60035460ff1661050757604051636cd6020160e01b815260040160405180910390fd5b5f546001600160a01b0316331480159061052357506005544211155b156105415760405163ea8e4eb560e01b815260040160405180910390fd5b6003805460ff1916905560405133907f2d553fb579456929d17c4cf0dc43b2f2e8e5a8f917cadcc8a5f18e9c4010b75a905f90a2565b6002545f906001600160a01b031633146105a45760405163ea8e4eb560e01b815260040160405180910390fd5b6105ac61130c565b6105c957604051636cd6020160e01b815260040160405180910390fd5b600d8054905f6105d8836124bf565b919050555061060f848484600d54426040516020016105fb959493929190612513565b604051602081830303815290604052611327565b90505f84600381111561062457610624612425565b036106bc575f806106378486018661255b565b915091505f826001600160a01b0316826040516106549190612618565b5f604051808303815f865af19150503d805f811461068d576040519150601f19603f3d011682016040523d82523d5f602084013e610692565b606091505b50509050806106b457604051632e70396b60e21b815260040160405180910390fd5b50505061086e565b60018460038111156106d0576106d0612425565b036106e3575f806106378486018661255b565b60028460038111156106f7576106f7612425565b03610857575f808061070b85870187612633565b919450925090506001600160a01b038316610796575f826001600160a01b0316826040515f6040518083038185875af1925050503d805f8114610769576040519150601f19603f3d011682016040523d82523d5f602084013e61076e565b606091505b505090508061079057604051632e70396b60e21b815260040160405180910390fd5b506106b4565b6040516001600160a01b038381166024830152604482018390525f919085169060640160408051601f198184030181529181526020820180516001600160e01b031663a9059cbb60e01b179052516107ee9190612618565b5f604051808303815f865af19150503d805f8114610827576040519150601f19603f3d011682016040523d82523d5f602084013e61082c565b606091505b505090508061084e57604051632e70396b60e21b815260040160405180910390fd5b5050505061086e565b600384600381111561086b5761086b612425565b50505b807f94dc6fb296b297c5a40f4a53a31443bb72e7a472a7fef885aef06f00e93ccb428585856040516108a293929190612671565b60405180910390a29392505050565b5f6108ba61130c565b6108c357505f90565b60055442106108d157505f90565b6005546108df904290612691565b905090565b5f6108ed61130c565b61090a57604051636cd6020160e01b815260040160405180910390fd5b811580610919575062093a8082115b1561093757604051637616640160e01b815260040160405180910390fd5b60075460031161095a57604051637222d94960e11b815260040160405180910390fd5b5f61096433611331565b9050805f036109865760405163ea8e4eb560e01b815260040160405180910390fd5b600c8054905f610995836124bf565b9091555050600c5491505f6109ad6202a300426126a4565b90506040518061010001604052808481526020018581526020014281526020018281526020018381526020015f81526020015f60058111156109f1576109f1612425565b8152602001336001600160a01b031681525060095f8581526020019081526020015f205f820151815f01556020820151816001015560408201518160020155606082015181600301556080820151816004015560a0820151816005015560c0820151816006015f6101000a81548160ff02191690836005811115610a7757610a77612425565b021790555060e09190910151600690910180546001600160a01b0390921661010002610100600160a81b03199092169190911790555f838152600a6020908152604080832033808552908352818420805460ff19166001179055868452600b835281842081855283529281902085905580518781529182019290925284917feb89d772f1db6e510711058796de84e413371c77f3228651b35a8ff12dc3efef910160405180910390a2604080516001815260208101849052339185917f600ea9edd5bd50aa908091f6b075bc336f65f65cb08255e275b90b3f193aea81910160405180910390a35050919050565b5f546001600160a01b03163314610b8f5760405163ea8e4eb560e01b815260040160405180910390fd5b6001600160a01b038116610bb65760405163ea8e4eb560e01b815260040160405180910390fd5b600280546001600160a01b038381166001600160a01b0319831681179093556040519116919082907f064d28d3d3071c5cbc271a261c10c2f0f0d9e319390397101aa0eb23c6bad909905f90a35050565b610c466040518060c001604052805f151581526020015f6001600160a01b031681526020015f81526020015f8152602001606081526020015f81525090565b6040805160c0810182526003805460ff81161515835261010090046001600160a01b0316602083015260045492820192909252600554606082015260068054919291608084019190610c97906126b7565b80601f0160208091040260200160405190810160405280929190818152602001828054610cc3906126b7565b8015610d0e5780601f10610ce557610100808354040283529160200191610d0e565b820191905f5260205f20905b815481529060010190602001808311610cf157829003601f168201915b50505050508152602001600482015481525050905090565b5f6108df61130c565b610d3761130c565b610d5457604051636cd6020160e01b815260040160405180910390fd5b5f8181526009602052604081206002810154909103610d8657604051630bbb354160e31b815260040160405180910390fd5b5f600682015460ff166005811115610da057610da0612425565b14610dbe5760405163bc04607d60e01b815260040160405180910390fd5b5f610dc761122a565b90508082600401541015610dee57604051633f29744360e11b815260040160405180910390fd5b8160050154826004015411610e1657604051633f29744360e11b815260040160405180910390fd5b60068201805460ff1916600417905560018201546005545f91610e38916126a4565b6005819055600780549192505f610e4e836124bf565b9190505550837f88715238eaa5473a9fd95eb1b02e6f0867d20517b80b9100b4f3a0eb33f634a3828560040154604051610e92929190918252602082015260400190565b60405180910390a250505050565b5f8281526009602052604081206002810154909103610ed257604051630bbb354160e31b815260040160405180910390fd5b5f600682015460ff166005811115610eec57610eec612425565b14610f0a5760405163bc04607d60e01b815260040160405180910390fd5b8060030154421115610f2f5760405163bc04607d60e01b815260040160405180910390fd5b5f838152600a6020908152604080832033845290915290205460ff1615610f6957604051630f0e873b60e21b815260040160405180910390fd5b5f610f7333611331565b9050805f03610f955760405163ea8e4eb560e01b815260040160405180910390fd5b5f848152600a6020908152604080832033808552908352818420805460ff19166001179055878452600b835281842090845290915290208190558215610ff35780826004015f828254610fe891906126a4565b9091555061100c9050565b80826005015f82825461100691906126a4565b90915550505b60408051841515815260208101839052339186917f600ea9edd5bd50aa908091f6b075bc336f65f65cb08255e275b90b3f193aea81910160405180910390a350505050565b5f546001600160a01b0316331461107b5760405163ea8e4eb560e01b815260040160405180910390fd5b61108361130c565b156110a157604051631785c68160e01b815260040160405180910390fd5b8015806110b057506203f48081115b156110ce57604051637616640160e01b815260040160405180910390fd5b5f6008541180156110ee5750620151806008546110eb91906126a4565b42105b1561110c5760405163078a94c560e01b815260040160405180910390fd5b5f61111782426126a4565b90506040518060c00160405280600115158152602001336001600160a01b0316815260200142815260200182815260200185858080601f0160208091040260200160405190810160405280939291908181526020018383808284375f920182905250938552505050602091820152815160038054928401516001600160a01b031661010002610100600160a81b0319921515929092166001600160a81b0319909316929092171781556040820151600455606082015160055560808201516006906111e2908261273b565b5060a091909101516004909101554260085560405133907fcc5da5d320d1ed97dc85cf374284665f16a211cdcba96887c8969d5ccb9bd73c90610e92908790879086906127fa565b5f806112346113f5565b90506127106112456101908361281d565b61124f9190612848565b91505090565b61125d61217b565b60095f8381526020019081526020015f20604051806101000160405290815f82015481526020016001820154815260200160028201548152602001600382015481526020016004820154815260200160058201548152602001600682015f9054906101000a900460ff1660058111156112d8576112d8612425565b60058111156112e9576112e9612425565b81526006919091015461010090046001600160a01b031660209091015292915050565b6003545f9060ff1661131d57505f90565b5060055442111590565b5f61046c826114a8565b6001546040516001600160a01b0383811660248301525f92839283929091169060440160408051601f198184030181529181526020820180516001600160e01b03166370a0823160e01b179052516113899190612618565b5f60405180830381855afa9150503d805f81146113c1576040519150601f19603f3d011682016040523d82523d5f602084013e6113c6565b606091505b5091509150816113d957505f9392505050565b808060200190518101906113ed919061285b565b949350505050565b60015460408051600481526024810182526020810180516001600160e01b03166318160ddd60e01b17905290515f92839283926001600160a01b039092169161143e9190612618565b5f60405180830381855afa9150503d805f8114611476576040519150601f19603f3d011682016040523d82523d5f602084013e61147b565b606091505b50915091508161148d575f9250505090565b808060200190518101906114a1919061285b565b9250505090565b5f6114b16121c9565b82515f60886114c18360016126a4565b6114cb9190612848565b6114d69060016126a4565b90505f5b818110156115f2575f6114ee60888361281d565b90505f5b60118110156115dd575f805b60088110156115ab575f8161151485600861281d565b61151e90876126a4565b61152891906126a4565b90505f88821015611554578b828151811061154557611545612872565b016020015160f81c905061158b565b8882036115635750600661158b565b60016115706088886126a4565b61157a9190612691565b82036115885750608061158b565b505f5b61159683600861281d565b60ff909116901b9290921791506001016114fe565b50808783601981106115bf576115bf612872565b602002018051919091186001600160401b03169052506001016114f2565b506115e785611792565b9450506001016114da565b5060c083600360200201516001600160401b0316901b608084600260200201516001600160401b0316901b604085600160200201516001600160401b0316901b855f60200201516001600160401b03161717179350611789847bffffffff000000000000000000000000ffffffff00000000000000007eff000000ff000000ff000000ff000000ff000000ff000000ff000000ff0000600883811c9182167fff000000ff000000ff000000ff000000ff000000ff000000ff000000ff0000009490911b93841617601090811c7cff000000ff000000ff000000ff000000ff000000ff000000ff000000ff9092167dff000000ff000000ff000000ff000000ff000000ff000000ff000000ff009094169390931790921b91909117602081811c9283167fffffffff000000000000000000000000ffffffff0000000000000000000000009290911b91821617604090811c73ffffffff000000000000000000000000ffffffff90931677ffffffff000000000000000000000000ffffffff0000000090921691909117901b17608081811c91901b1790565b95945050505050565b61179a6121c9565b816117a36121e8565b6117ab6121e8565b5f6040518061032001604052805f815260200160018152602001603e8152602001601c8152602001601b815260200160248152602001602c815260200160068152602001603781526020016014815260200160038152602001600a8152602001602b8152602001601981526020016027815260200160298152602001602d8152602001600f815260200160158152602001600881526020016012815260200160028152602001603d815260200160388152602001600e81525090505f60405180610300016040528060016001600160401b03166001600160401b031681526020016180826001600160401b03166001600160401b0316815260200167800000000000808a6001600160401b03166001600160401b031681526020016780000000800080006001600160401b03166001600160401b0316815260200161808b6001600160401b03166001600160401b0316815260200163800000016001600160401b03166001600160401b031681526020016780000000800080816001600160401b03166001600160401b031681526020016780000000000080096001600160401b03166001600160401b03168152602001608a6001600160401b03166001600160401b0316815260200160886001600160401b03166001600160401b0316815260200163800080096001600160401b03166001600160401b03168152602001638000000a6001600160401b03166001600160401b03168152602001638000808b6001600160401b03166001600160401b0316815260200167800000000000008b6001600160401b03166001600160401b031681526020016780000000000080896001600160401b03166001600160401b031681526020016780000000000080036001600160401b03166001600160401b031681526020016780000000000080026001600160401b03166001600160401b031681526020016780000000000000806001600160401b03166001600160401b0316815260200161800a6001600160401b03166001600160401b0316815260200167800000008000000a6001600160401b03166001600160401b031681526020016780000000800080816001600160401b03166001600160401b031681526020016780000000000080806001600160401b03166001600160401b0316815260200163800000016001600160401b03166001600160401b031681526020016780000000800080086001600160401b03166001600160401b031681525090505f5b601881101561213d576102808601516101e087015161014088015160a08901518951181818186001600160401b0390811686526102a087015161020088015161016089015160c08a01516020808c01519091189091189091189091188216908701526102c087015161022088015161018089015160e08a01516040808c01519091189091189091189091188216908701526102e08701516102408801516101a08901516101008a01516060808c01519091189091189091189091188216908701526103008701516102608801516101c08901516101208a01516080808c015190911890911890911890911890911690860152611c3f8560015b60200201516001612149565b6080860151186001600160401b03168452611c5b856002611c33565b8551186001600160401b03166020850152611c77856003611c33565b6020860151186001600160401b03166040850152611c96856004611c33565b6040860151186001600160401b03166060850152611cb4855f611c33565b6060808701516001600160401b0392188216608080880191825287518a511884168a5260208881018051918c01805190921886169091526040808a018051918d01805190921887169091528985018051958d01805190961887169095528351928c0180519093188616909252885160a08c01805190911886169052805160c08c01805190911886169052815160e08c0180519091188616905283516101008c0180519091188616905282516101208c0180519091188616905288516101408c0180519091188616905280516101608c0180519091188616905281516101808c0180519091188616905283516101a08c0180519091188616905282516101c08c0180519091188616905288516101e08c0180519091188616905280516102008c0180519091188616905281516102208c0180519091188616905283516102408c0180519091188616905282516102608c0180519091188616905288516102808c01805190911886169052516102a08b01805190911885169052516102c08a0180519091188416905290516102e0890180519091188316905251610300880180519091189091169052611e636121c9565b5f5b6019811015611f39575f611e7a600583612886565b90505f611e88600584612848565b9050805f6005611e9983600361281d565b611ea486600261281d565b611eae91906126a4565b611eb89190612886565b9050611ef08c8660198110611ecf57611ecf612872565b60200201518a8760198110611ee657611ee6612872565b6020020151612149565b86611efc83600561281d565b611f0690856126a4565b60198110611f1657611f16612872565b6001600160401b039092166020929092020152505060019092019150611e659050565b505f5b600581101561210e575f611f5182600561281d565b90505f838260198110611f6657611f66612872565b602002015190505f84611f7a8460016126a4565b60198110611f8a57611f8a612872565b602002015190505f85611f9e8560026126a4565b60198110611fae57611fae612872565b602002015190505f86611fc28660036126a4565b60198110611fd257611fd2612872565b602002015190505f87611fe68760046126a4565b60198110611ff657611ff6612872565b602002015190508284191685188e876019811061201557612015612872565b6001600160401b0390921660209290920201528219821684188e61203a8860016126a4565b6019811061204a5761204a612872565b6001600160401b0390921660209290920201528119811683188e61206f8860026126a4565b6019811061207f5761207f612872565b6001600160401b0390921660209290920201528019851682188e6120a48860036126a4565b601981106120b4576120b4612872565b6001600160401b0390921660209290920201528419841681188e6120d98860046126a4565b601981106120e9576120e9612872565b6001600160401b039092166020929092020152505060019094019350611f3c92505050565b5082826018811061212157612121612872565b60200201518751186001600160401b0316875250600101611b3a565b50939695505050505050565b5f815f0361215857508161046c565b612163826040612691565b6001600160401b03841680841b911c17905092915050565b6040518061010001604052805f81526020015f81526020015f81526020015f81526020015f81526020015f81526020015f60058111156121bd576121bd612425565b81525f60209091015290565b6040518061032001604052806019906020820280368337509192915050565b6040518060a001604052806005906020820280368337509192915050565b6001600160a01b038116811461221a575f80fd5b50565b5f806040838503121561222e575f80fd5b82359150602083013561224081612206565b809150509250929050565b5f6020828403121561225b575f80fd5b813561226681612206565b9392505050565b5f8083601f84011261227d575f80fd5b5081356001600160401b03811115612293575f80fd5b6020830191508360208285010111156122aa575f80fd5b9250929050565b5f805f604084860312156122c3575f80fd5b8335600481106122d1575f80fd5b925060208401356001600160401b038111156122eb575f80fd5b6122f78682870161226d565b9497909650939450505050565b5f60208284031215612314575f80fd5b5035919050565b5f5b8381101561233557818101518382015260200161231d565b50505f910152565b6020815281511515602082015260018060a01b03602083015116604082015260408201516060820152606082015160808201525f608083015160c060a084015280518060e0850152610100612398828287016020860161231b565b60a0959095015160c0850152601f01601f191690920190920192915050565b5f80604083850312156123c8575f80fd5b8235915060208301358015158114612240575f80fd5b5f805f604084860312156123f0575f80fd5b83356001600160401b03811115612405575f80fd5b6124118682870161226d565b909790965060209590950135949350505050565b634e487b7160e01b5f52602160045260245ffd5b5f61010082019050825182526020830151602083015260408301516040830152606083015160608301526080830151608083015260a083015160a083015260c08301516006811061248c5761248c612425565b60c083015260e0928301516001600160a01b0316929091019190915290565b634e487b7160e01b5f52601160045260245ffd5b5f600182016124d0576124d06124ab565b5060010190565b600481106124e7576124e7612425565b9052565b81835281816020850137505f828201602090810191909152601f909101601f19169091010190565b61251d81876124d7565b608060208201525f6125336080830186886124eb565b604083019490945250606001529392505050565b634e487b7160e01b5f52604160045260245ffd5b5f806040838503121561256c575f80fd5b823561257781612206565b915060208301356001600160401b0380821115612592575f80fd5b818501915085601f8301126125a5575f80fd5b8135818111156125b7576125b7612547565b604051601f8201601f19908116603f011681019083821181831017156125df576125df612547565b816040528281528860208487010111156125f7575f80fd5b826020860160208301375f6020848301015280955050505050509250929050565b5f825161262981846020870161231b565b9190910192915050565b5f805f60608486031215612645575f80fd5b833561265081612206565b9250602084013561266081612206565b929592945050506040919091013590565b61267b81856124d7565b604060208201525f6117896040830184866124eb565b8181038181111561046c5761046c6124ab565b8082018082111561046c5761046c6124ab565b600181811c908216806126cb57607f821691505b6020821081036126e957634e487b7160e01b5f52602260045260245ffd5b50919050565b601f82111561273657805f5260205f20601f840160051c810160208510156127145750805b601f840160051c820191505b81811015612733575f8155600101612720565b50505b505050565b81516001600160401b0381111561275457612754612547565b6127688161276284546126b7565b846126ef565b602080601f83116001811461279b575f84156127845750858301515b5f19600386901b1c1916600185901b1785556127f2565b5f85815260208120601f198616915b828110156127c9578886015182559484019460019091019084016127aa565b50858210156127e657878501515f19600388901b60f8161c191681555b505060018460011b0185555b505050505050565b604081525f61280d6040830185876124eb565b9050826020830152949350505050565b808202811582820484141761046c5761046c6124ab565b634e487b7160e01b5f52601260045260245ffd5b5f8261285657612856612834565b500490565b5f6020828403121561286b575f80fd5b5051919050565b634e487b7160e01b5f52603260045260245ffd5b5f8261289457612894612834565b50069056fea26469706673582212201b9fa21a04631ea5ba5cc873e402625453498062bbd4dda22f2a4cc2070360f864736f6c63430008180033","linkReferences":{}},"methodIdentifiers":{"EXTENSION_QUORUM_BPS()":"97054dcb","EXTENSION_VOTING_PERIOD()":"9e1e1bdf","MAX_EXTENSIONS()":"c07780f6","MAX_EXTENSION_DURATION()":"2c8ebec8","MAX_PAUSE_DURATION()":"2799657d","PAUSE_COOLDOWN()":"b5acb567","currentExtensionCount()":"96a433ea","executeExtension(uint256)":"b8ad6dcb","executeRecovery(uint8,bytes)":"510958be","extensionQuorum()":"e1b8cb3b","getExtension(uint256)":"f61eab7a","getPauseState()":"9a44f1fb","guardian()":"452a9320","hasVotedOnExtension(uint256,address)":"11bd4f7f","isPaused()":"b187bd26","lastPauseTimestamp()":"9a5901de","pause(string,uint256)":"cf659963","pauseTimeRemaining()":"6d361bcb","proposeExtension(uint256)":"8047b34a","securityCouncil()":"27eb6c0f","setGuardian(address)":"8a0dac4a","setSecurityCouncil(address)":"1c1083e2","unpause()":"3f4ba83a","veQS()":"83dd229d","voteOnExtension(uint256,bool)":"c836561a"},"id":32}