{"abi":[{"type":"constructor","inputs":[{"name":"qsToken_","type":"address","internalType":"address"},{"name":"insuranceFund_","type":"address","internalType":"address"},{"name":"admin_","type":"address","internalType":"address"},{"name":"slashingContract_","type":"address","internalType":"address"}],"stateMutability":"nonpayable"},{"type":"function","name":"BASIS_POINTS","inputs":[],"outputs":[{"name":"","type":"uint256","internalType":"uint256"}],"stateMutability":"view"},{"type":"function","name":"BURN_ADDRESS","inputs":[],"outputs":[{"name":"","type":"address","internalType":"address"}],"stateMutability":"view"},{"type":"function","name":"BURN_SHARE","inputs":[],"outputs":[{"name":"","type":"uint256","internalType":"uint256"}],"stateMutability":"view"},{"type":"function","name":"CHALLENGER_SHARE","inputs":[],"outputs":[{"name":"","type":"uint256","internalType":"uint256"}],"stateMutability":"view"},{"type":"function","name":"INSURANCE_SHARE","inputs":[],"outputs":[{"name":"","type":"uint256","internalType":"uint256"}],"stateMutability":"view"},{"type":"function","name":"addRewards","inputs":[{"name":"amount","type":"uint256","internalType":"uint256"}],"outputs":[],"stateMutability":"nonpayable"},{"type":"function","name":"claimReward","inputs":[],"outputs":[{"name":"amount","type":"uint256","internalType":"uint256"}],"stateMutability":"nonpayable"},{"type":"function","name":"deregisterObserver","inputs":[{"name":"observer","type":"address","internalType":"address"}],"outputs":[],"stateMutability":"nonpayable"},{"type":"function","name":"emergencyWithdraw","inputs":[{"name":"to","type":"address","internalType":"address"},{"name":"amount","type":"uint256","internalType":"uint256"}],"outputs":[],"stateMutability":"nonpayable"},{"type":"function","name":"getChallengeReward","inputs":[{"name":"challengeId","type":"uint256","internalType":"uint256"}],"outputs":[{"name":"","type":"tuple","internalType":"struct IObserverRewardPool.ChallengeReward","components":[{"name":"challengeId","type":"uint256","internalType":"uint256"},{"name":"observer","type":"address","internalType":"address"},{"name":"slashedProver","type":"address","internalType":"address"},{"name":"rewardAmount","type":"uint256","internalType":"uint256"},{"name":"timestamp","type":"uint256","internalType":"uint256"},{"name":"claimed","type":"bool","internalType":"bool"}]}],"stateMutability":"view"},{"type":"function","name":"getObserverReward","inputs":[{"name":"observer","type":"address","internalType":"address"}],"outputs":[{"name":"","type":"tuple","internalType":"struct IObserverRewardPool.ObserverReward","components":[{"name":"pendingRewards","type":"uint256","internalType":"uint256"},{"name":"totalClaimed","type":"uint256","internalType":"uint256"},{"name":"lastClaimTime","type":"uint256","internalType":"uint256"},{"name":"challengeCount","type":"uint256","internalType":"uint256"}]}],"stateMutability":"view"},{"type":"function","name":"insuranceFund","inputs":[],"outputs":[{"name":"","type":"address","internalType":"address"}],"stateMutability":"view"},{"type":"function","name":"pendingRewards","inputs":[{"name":"observer","type":"address","internalType":"address"}],"outputs":[{"name":"","type":"uint256","internalType":"uint256"}],"stateMutability":"view"},{"type":"function","name":"qsToken","inputs":[],"outputs":[{"name":"","type":"address","internalType":"address"}],"stateMutability":"view"},{"type":"function","name":"recordChallengeReward","inputs":[{"name":"challengeId","type":"uint256","internalType":"uint256"},{"name":"observer","type":"address","internalType":"address"},{"name":"slashedProver","type":"address","internalType":"address"},{"name":"totalSlashAmount","type":"uint256","internalType":"uint256"}],"outputs":[],"stateMutability":"nonpayable"},{"type":"function","name":"registerObserver","inputs":[{"name":"observer","type":"address","internalType":"address"}],"outputs":[],"stateMutability":"nonpayable"},{"type":"function","name":"setSlashingContract","inputs":[{"name":"newSlashing","type":"address","internalType":"address"}],"outputs":[],"stateMutability":"nonpayable"},{"type":"function","name":"totalDistributed","inputs":[],"outputs":[{"name":"","type":"uint256","internalType":"uint256"}],"stateMutability":"view"},{"type":"event","name":"BaseRewardsAdded","inputs":[{"name":"amount","type":"uint256","indexed":false,"internalType":"uint256"},{"name":"from","type":"address","indexed":true,"internalType":"address"}],"anonymous":false},{"type":"event","name":"ChallengeRewardRecorded","inputs":[{"name":"challengeId","type":"uint256","indexed":true,"internalType":"uint256"},{"name":"observer","type":"address","indexed":true,"internalType":"address"},{"name":"slashedProver","type":"address","indexed":true,"internalType":"address"},{"name":"rewardAmount","type":"uint256","indexed":false,"internalType":"uint256"}],"anonymous":false},{"type":"event","name":"RewardClaimed","inputs":[{"name":"observer","type":"address","indexed":true,"internalType":"address"},{"name":"amount","type":"uint256","indexed":false,"internalType":"uint256"},{"name":"totalClaimed","type":"uint256","indexed":false,"internalType":"uint256"}],"anonymous":false},{"type":"event","name":"SlashRewardsAdded","inputs":[{"name":"challengeId","type":"uint256","indexed":true,"internalType":"uint256"},{"name":"challengerReward","type":"uint256","indexed":false,"internalType":"uint256"},{"name":"insuranceAmount","type":"uint256","indexed":false,"internalType":"uint256"},{"name":"burnAmount","type":"uint256","indexed":false,"internalType":"uint256"}],"anonymous":false},{"type":"error","name":"ChallengeAlreadyRecorded","inputs":[]},{"type":"error","name":"InvalidAddress","inputs":[]},{"type":"error","name":"NoRewardsToClaim","inputs":[]},{"type":"error","name":"NotAuthorized","inputs":[]},{"type":"error","name":"ObserverNotRegistered","inputs":[]},{"type":"error","name":"ZeroAmount","inputs":[]}],"bytecode":{"object":"0x60c0346101a457601f610e6638819003918201601f191683019291906001600160401b038411838510176101a85781608092849260409687528339810103126101a45761004b816101bc565b90610058602082016101bc565b61006f60606100688685016101bc565b93016101bc565b6001600160a01b03929091908484161561016d57838216156101295783169384156100f55760805260a05260018060a01b0319928360015416176001551690600254161760025560015f5551610c9590816101d182396080518181816101bc01528181610263015281816109290152610bfa015260a05181818161040701526109980152f35b855162461bcd60e51b815260206004820152600d60248201526c24b73b30b634b21030b236b4b760991b6044820152606490fd5b855162461bcd60e51b815260206004820152601660248201527f496e76616c696420696e737572616e63652066756e64000000000000000000006044820152606490fd5b855162461bcd60e51b815260206004820152601060248201526f24b73b30b634b21028a9903a37b5b2b760811b6044820152606490fd5b5f80fd5b634e487b7160e01b5f52604160045260245ffd5b51906001600160a01b03821682036101a45756fe6080604090808252600480361015610015575f80fd5b5f3560e01c9182630f45354d146106f3575081631a4bcf42146106d75781632c07398d1461067957816331d7a2621461064457816356b307031461063f57816393b998fb1461063f57816395ccea67146105f4578163a3822fb214610523578163a73995001461048a578163b3d481c214610436578163b7902303146103f3578163b88a802f14610314578163beceed39146101eb578163c5ebfa9a146101a8578163cab3a5811461013f57508063e1f1c4a714610123578063efca2eed146101055763fccc2813146100e6575f80fd5b34610101575f366003190112610101576020905161dead8152f35b5f80fd5b5034610101575f366003190112610101576020906003549051908152f35b5034610101575f36600319011261010157602090516127108152f35b9050346101015760203660031901126101015761015a610a24565b6001546001600160a01b03919082163303610198571691821561018b57600280546001600160a01b03191684179055005b5163e6c4247b60e01b8152fd5b835163ea8e4eb560e01b81528390fd5b8234610101575f36600319011261010157517f00000000000000000000000000000000000000000000000000000000000000006001600160a01b03168152602090f35b82346101015760203660031901126101015781359182156103065761021283600754610b0f565b600755815160208101916323b872dd60e01b83523360248301523060448301528460648301526064825260a082019082821067ffffffffffffffff8311176102f35750835251610298915f918291827f00000000000000000000000000000000000000000000000000000000000000005af161028c610b1c565b816102c4575b50610b7e565b519081527f1a2aa946f789d25556bfff4383bdb7cef3e7b797d999a61ec0e37f73c27d483160203392a2005b80518015925082156102d9575b505084610292565b6102ec9250602080918301019101610b66565b84806102d1565b604190634e487b7160e01b5f525260245ffd5b9051631f2a200560e01b8152fd5b905034610101575f3660031901126101015761033460025f541415610a56565b60025f55335f526020916006835260ff815f205416156103e657335f52818352805f20549182156103d857335f528084526001825f205f815501610379848254610b0f565b9055335f52808452426002835f2001556103938333610bbc565b335f5283526001815f200154815190838252848201527ff01da32686223933d8a18a391060918c7f11a3648639edd87ae013e2e2731743823392a260015f5551908152f35b90516373380d9960e01b8152fd5b5163583470a560e01b8152fd5b8234610101575f36600319011261010157517f00000000000000000000000000000000000000000000000000000000000000006001600160a01b03168152602090f35b90503461010157602036600319011261010157610451610a24565b6001546001600160a01b0392908316330361047c5750165f908152600660205220805460ff19169055005b835163ea8e4eb560e01b8152fd5b8234610101576020366003190112610101576080916104a7610a24565b5f606084516104b581610af3565b8281528260208201528286820152015260018060a01b03165f52602052805f20908051906104e282610af3565b825492838352600181015460208401908152606060036002840154938587019485520154940193845282519485525160208501525190830152516060820152f35b82346101015760203660031901126101015760c0915f60a0835161054681610ac3565b8281528260208201528285820152826060820152826080820152015280355f526005602052815f2082519161057a83610ac3565b81549384845260018060a01b03806001850154166020860190815281806002870154169184880192835260a060ff600560038a01549860608c01998a528a01549960808c019a8b520154169801971515885284519889525116602088015251169085015251606084015251608083015251151560a0820152f35b823461010157806003193601126101015761060d610a24565b6001549091906001600160a01b031633036106305761062e60243583610bbc565b005b5163ea8e4eb560e01b81529050fd5b610a3a565b8234610101576020366003190112610101576020916001600160a01b03610669610a24565b165f528252805f20549051908152f35b90503461010157602036600319011261010157610694610a24565b6001546001600160a01b0391908216330361019857169081156106c957505f908152600660205220805460ff19166001179055005b825163e6c4247b60e01b8152fd5b8234610101575f36600319011261010157602090516117708152f35b915034610101576080366003190112610101578035926001600160a01b0391602435838116908190036101015760443590848216809203610101576064359585600254163303610a16575061074c60025f541415610a56565b60025f55865f52602092600584526003855f200154610a085786156109fa5761177087029661176f19818904016109e757612710809804976107d080830290838204036109d4576107b28a97969594936107ad8d9460059404998a92610aa2565b610aa2565b988851906107bf82610ac3565b8382528b8883018781528b84019089825260608501928352608085019342855260a08601975f89525f52868c528d5f20955186558060018701925116916bffffffffffffffffffffffff60a01b928382541617905560028601925116908254161790555160038301555184820155019051151560ff80198354169116179055815f52808452855f20610852898254610b0f565b9055815f528084526003865f2001908154905f1982146109c157509160609795939160017f9d1d37daf60b3e000619986435ea4c4e5cf35329bf43918b7e01d7c1d52ce8299a98969401905583610992575b856108f4575b6108b687600354610b0f565b600355897f3a565abf1a008a0dc9e2334cb9392a02d4f065cdfd2ea2567a3cd00b365bb2ee8487518a8152a48251948552840152820152a260015f55005b61095d5f8087518681019063a9059cbb60e01b825261dead60248201528a60448201526044815261092481610af3565b5190827f00000000000000000000000000000000000000000000000000000000000000005af1610952610b1c565b816109625750610b7e565b6108aa565b8051801592508690831561097a575b5050505f610292565b61098a9350820181019101610b66565b5f8581610971565b6109bc847f0000000000000000000000000000000000000000000000000000000000000000610bbc565b6108a4565b601190634e487b7160e01b5f525260245ffd5b601184634e487b7160e01b5f525260245ffd5b601182634e487b7160e01b5f525260245ffd5b8451631f2a200560e01b8152fd5b84516357fae5b560e01b8152fd5b63ea8e4eb560e01b81528390fd5b600435906001600160a01b038216820361010157565b34610101575f3660031901126101015760206040516107d08152f35b15610a5d57565b60405162461bcd60e51b815260206004820152601f60248201527f5265656e7472616e637947756172643a207265656e7472616e742063616c6c006044820152606490fd5b91908203918211610aaf57565b634e487b7160e01b5f52601160045260245ffd5b60c0810190811067ffffffffffffffff821117610adf57604052565b634e487b7160e01b5f52604160045260245ffd5b6080810190811067ffffffffffffffff821117610adf57604052565b91908201809211610aaf57565b3d15610b615767ffffffffffffffff903d828111610adf5760405192601f8201601f19908116603f0116840190811184821017610adf5760405282523d5f602084013e565b606090565b90816020910312610101575180151581036101015790565b15610b8557565b60405162461bcd60e51b815260206004820152600f60248201526e151c985b9cd9995c8819985a5b1959608a1b6044820152606490fd5b5f8091610c2e9360405190602082019263a9059cbb60e01b845260018060a01b03166024830152604482015260448152610bf581610af3565b5190827f00000000000000000000000000000000000000000000000000000000000000005af1610c23610b1c565b81610c305750610b7e565b565b8051801592508215610c45575b50505f610292565b610c589250602080918301019101610b66565b5f80610c3d56fea2646970667358221220aef4ab0267e11406259c5afbb2f4a6e3f2da510cd13ed618d3eeee364bf12ea464736f6c63430008180033","linkReferences":{}},"methodIdentifiers":{"BASIS_POINTS()":"e1f1c4a7","BURN_ADDRESS()":"fccc2813","BURN_SHARE()":"93b998fb","CHALLENGER_SHARE()":"1a4bcf42","INSURANCE_SHARE()":"56b30703","addRewards(uint256)":"beceed39","claimReward()":"b88a802f","deregisterObserver(address)":"b3d481c2","emergencyWithdraw(address,uint256)":"95ccea67","getChallengeReward(uint256)":"a3822fb2","getObserverReward(address)":"a7399500","insuranceFund()":"b7902303","pendingRewards(address)":"31d7a262","qsToken()":"c5ebfa9a","recordChallengeReward(uint256,address,address,uint256)":"0f45354d","registerObserver(address)":"2c07398d","setSlashingContract(address)":"cab3a581","totalDistributed()":"efca2eed"},"id":68}