{"abi":[{"type":"constructor","inputs":[{"name":"veQS_","type":"address","internalType":"address"},{"name":"admin_","type":"address","internalType":"address"}],"stateMutability":"nonpayable"},{"type":"function","name":"PROPOSAL_THRESHOLD","inputs":[],"outputs":[{"name":"","type":"uint256","internalType":"uint256"}],"stateMutability":"view"},{"type":"function","name":"TIMELOCK_DELAY","inputs":[],"outputs":[{"name":"","type":"uint256","internalType":"uint256"}],"stateMutability":"view"},{"type":"function","name":"VOTING_DELAY","inputs":[],"outputs":[{"name":"","type":"uint256","internalType":"uint256"}],"stateMutability":"view"},{"type":"function","name":"VOTING_PERIOD","inputs":[],"outputs":[{"name":"","type":"uint256","internalType":"uint256"}],"stateMutability":"view"},{"type":"function","name":"cancel","inputs":[{"name":"proposalId","type":"uint256","internalType":"uint256"}],"outputs":[],"stateMutability":"nonpayable"},{"type":"function","name":"castVote","inputs":[{"name":"proposalId","type":"uint256","internalType":"uint256"},{"name":"voteType","type":"uint8","internalType":"enum IGovernor.VoteType"}],"outputs":[],"stateMutability":"nonpayable"},{"type":"function","name":"castVoteWithReason","inputs":[{"name":"proposalId","type":"uint256","internalType":"uint256"},{"name":"voteType","type":"uint8","internalType":"enum IGovernor.VoteType"},{"name":"reason","type":"string","internalType":"string"}],"outputs":[],"stateMutability":"nonpayable"},{"type":"function","name":"execute","inputs":[{"name":"proposalId","type":"uint256","internalType":"uint256"}],"outputs":[],"stateMutability":"nonpayable"},{"type":"function","name":"getProposal","inputs":[{"name":"proposalId","type":"uint256","internalType":"uint256"}],"outputs":[{"name":"","type":"tuple","internalType":"struct IGovernor.Proposal","components":[{"name":"id","type":"uint256","internalType":"uint256"},{"name":"proposer","type":"address","internalType":"address"},{"name":"category","type":"uint8","internalType":"enum IGovernor.ProposalCategory"},{"name":"startTime","type":"uint256","internalType":"uint256"},{"name":"endTime","type":"uint256","internalType":"uint256"},{"name":"forVotes","type":"uint256","internalType":"uint256"},{"name":"againstVotes","type":"uint256","internalType":"uint256"},{"name":"abstainVotes","type":"uint256","internalType":"uint256"},{"name":"canceled","type":"bool","internalType":"bool"},{"name":"executed","type":"bool","internalType":"bool"},{"name":"descriptionHash","type":"bytes32","internalType":"bytes32"}]}],"stateMutability":"view"},{"type":"function","name":"getProposalActions","inputs":[{"name":"proposalId","type":"uint256","internalType":"uint256"}],"outputs":[{"name":"","type":"tuple","internalType":"struct IGovernor.ProposalActions","components":[{"name":"targets","type":"address[]","internalType":"address[]"},{"name":"values","type":"uint256[]","internalType":"uint256[]"},{"name":"calldatas","type":"bytes[]","internalType":"bytes[]"}]}],"stateMutability":"view"},{"type":"function","name":"getReceipt","inputs":[{"name":"proposalId","type":"uint256","internalType":"uint256"},{"name":"voter","type":"address","internalType":"address"}],"outputs":[{"name":"","type":"tuple","internalType":"struct IGovernor.Receipt","components":[{"name":"hasVoted","type":"bool","internalType":"bool"},{"name":"voteType","type":"uint8","internalType":"enum IGovernor.VoteType"},{"name":"votes","type":"uint256","internalType":"uint256"}]}],"stateMutability":"view"},{"type":"function","name":"hasReachedQuorum","inputs":[{"name":"proposalId","type":"uint256","internalType":"uint256"}],"outputs":[{"name":"","type":"bool","internalType":"bool"}],"stateMutability":"view"},{"type":"function","name":"proposalCount","inputs":[],"outputs":[{"name":"","type":"uint256","internalType":"uint256"}],"stateMutability":"view"},{"type":"function","name":"proposalEta","inputs":[{"name":"proposalId","type":"uint256","internalType":"uint256"}],"outputs":[{"name":"","type":"uint256","internalType":"uint256"}],"stateMutability":"view"},{"type":"function","name":"propose","inputs":[{"name":"targets","type":"address[]","internalType":"address[]"},{"name":"values","type":"uint256[]","internalType":"uint256[]"},{"name":"calldatas","type":"bytes[]","internalType":"bytes[]"},{"name":"description","type":"string","internalType":"string"},{"name":"category","type":"uint8","internalType":"enum IGovernor.ProposalCategory"}],"outputs":[{"name":"proposalId","type":"uint256","internalType":"uint256"}],"stateMutability":"nonpayable"},{"type":"function","name":"queue","inputs":[{"name":"proposalId","type":"uint256","internalType":"uint256"}],"outputs":[],"stateMutability":"nonpayable"},{"type":"function","name":"quorum","inputs":[{"name":"category","type":"uint8","internalType":"enum IGovernor.ProposalCategory"}],"outputs":[{"name":"","type":"uint256","internalType":"uint256"}],"stateMutability":"view"},{"type":"function","name":"state","inputs":[{"name":"proposalId","type":"uint256","internalType":"uint256"}],"outputs":[{"name":"","type":"uint8","internalType":"enum IGovernor.ProposalState"}],"stateMutability":"view"},{"type":"function","name":"veQS","inputs":[],"outputs":[{"name":"","type":"address","internalType":"address"}],"stateMutability":"view"},{"type":"event","name":"ProposalCanceled","inputs":[{"name":"proposalId","type":"uint256","indexed":true,"internalType":"uint256"}],"anonymous":false},{"type":"event","name":"ProposalCreated","inputs":[{"name":"proposalId","type":"uint256","indexed":true,"internalType":"uint256"},{"name":"proposer","type":"address","indexed":true,"internalType":"address"},{"name":"category","type":"uint8","indexed":false,"internalType":"enum IGovernor.ProposalCategory"},{"name":"targets","type":"address[]","indexed":false,"internalType":"address[]"},{"name":"values","type":"uint256[]","indexed":false,"internalType":"uint256[]"},{"name":"calldatas","type":"bytes[]","indexed":false,"internalType":"bytes[]"},{"name":"startTime","type":"uint256","indexed":false,"internalType":"uint256"},{"name":"endTime","type":"uint256","indexed":false,"internalType":"uint256"},{"name":"description","type":"string","indexed":false,"internalType":"string"}],"anonymous":false},{"type":"event","name":"ProposalExecuted","inputs":[{"name":"proposalId","type":"uint256","indexed":true,"internalType":"uint256"}],"anonymous":false},{"type":"event","name":"ProposalQueued","inputs":[{"name":"proposalId","type":"uint256","indexed":true,"internalType":"uint256"},{"name":"eta","type":"uint256","indexed":false,"internalType":"uint256"}],"anonymous":false},{"type":"event","name":"VoteCast","inputs":[{"name":"voter","type":"address","indexed":true,"internalType":"address"},{"name":"proposalId","type":"uint256","indexed":true,"internalType":"uint256"},{"name":"voteType","type":"uint8","indexed":false,"internalType":"enum IGovernor.VoteType"},{"name":"votes","type":"uint256","indexed":false,"internalType":"uint256"},{"name":"reason","type":"string","indexed":false,"internalType":"string"}],"anonymous":false},{"type":"error","name":"AlreadyVoted","inputs":[]},{"type":"error","name":"ExecutionFailed","inputs":[]},{"type":"error","name":"InsufficientVotingPower","inputs":[]},{"type":"error","name":"InvalidParameters","inputs":[]},{"type":"error","name":"InvalidProposalState","inputs":[]},{"type":"error","name":"NotAuthorized","inputs":[]},{"type":"error","name":"ProposalNotFound","inputs":[]},{"type":"error","name":"QuorumNotReached","inputs":[]},{"type":"error","name":"TimelockNotMet","inputs":[]},{"type":"error","name":"VotingEnded","inputs":[]},{"type":"error","name":"VotingNotStarted","inputs":[]}],"bytecode":{"object":"0x60a060405234801562000010575f80fd5b5060405162002e3338038062002e3383398101604081905262000033916200010d565b6001600160a01b0382166200007e5760405162461bcd60e51b815260206004820152600c60248201526b496e76616c6964207665515360a01b60448201526064015b60405180910390fd5b6001600160a01b038116620000c65760405162461bcd60e51b815260206004820152600d60248201526c24b73b30b634b21030b236b4b760991b604482015260640162000075565b6001600160a01b03918216608052600180546001600160a01b031916919092161781555f5562000143565b80516001600160a01b038116811462000108575f80fd5b919050565b5f80604083850312156200011f575f80fd5b6200012a83620000f1565b91506200013a60208401620000f1565b90509250929050565b608051612cc2620001715f395f81816101c4015281816105a2015281816107d30152610f0e0152612cc25ff3fe608060405234801561000f575f80fd5b506004361061011c575f3560e01c8063ab58fb8e116100a9578063da35c6641161006e578063da35c66414610274578063ddf0b0091461027c578063e23a9a521461028f578063e26b2bea146102af578063fe0d94c1146102cf575f80fd5b8063ab58fb8e14610222578063b1610d7e14610194578063c7f758a814610241578063d6159fe514610194578063d95edd8d14610261575f80fd5b80635ba1c1a9116100ef5780635ba1c1a9146101945780637b3c71d3146101ac57806383dd229d146101bf5780639a79018e146101fe578063a6c2660314610211575f80fd5b80633e4f49e61461012057806340e58ee514610149578063567813881461015e57806359abab0514610171575b5f80fd5b61013361012e366004612272565b6102e2565b604051610140919061229d565b60405180910390f35b61015c610157366004612272565b6103fa565b005b61015c61016c3660046122c3565b6104fd565b61018461017f366004612272565b61051b565b6040519015158152602001610140565b61019e62093a8081565b604051908152602001610140565b61015c6101ba366004612335565b61052b565b6101e67f000000000000000000000000000000000000000000000000000000000000000081565b6040516001600160a01b039091168152602001610140565b61019e61020c3660046123cc565b610572565b61019e69152d02c7e14af680000081565b61019e610230366004612272565b5f9081526006602052604090205490565b61025461024f366004612272565b610681565b60405161014091906124b5565b61019e61026f366004612554565b6107cf565b60025461019e565b61015c61028a366004612272565b6108c2565b6102a261029d36600461258a565b610962565b60405161014091906125b4565b6102c26102bd366004612272565b6109f8565b60405161014091906126b9565b61015c6102dd366004612272565b610be8565b5f8115806102f1575060025482115b1561030f5760405163635e873760e01b815260040160405180910390fd5b5f828152600360205260409020600781015460ff16156103325750600292915050565b6007810154610100900460ff161561034d5750600792915050565b806002015442101561036157505f92915050565b806003015442116103755750600192915050565b61037e83610df5565b158061039257508060050154816004015411155b156103a05750600392915050565b5f83815260066020526040812054908190036103c0575060049392505050565b804210156103d2575060059392505050565b6103df8162127500612761565b4211156103f0575060069392505050565b5060059392505050565b5f81815260036020526040812080549091036104295760405163635e873760e01b815260040160405180910390fd5b6007810154610100900460ff16156104545760405163b437280360e01b815260040160405180910390fd5b600781015460ff161561047a5760405163b437280360e01b815260040160405180910390fd5b60018101546001600160a01b031633148015906104a257506001546001600160a01b03163314155b156104c05760405163ea8e4eb560e01b815260040160405180910390fd5b60078101805460ff1916600117905560405182907f789cf55be980739dad1d0699b93b58e806b51c9d96619bfa8fe0a28abaa7b30c905f90a25050565b61051782338360405180602001604052805f815250610e50565b5050565b5f61052582610df5565b92915050565b61056c84338585858080601f0160208091040260200160405190810160405280939291908181526020018383808284375f92019190915250610e5092505050565b50505050565b5f6105818a8a8a8a8a8a61109d565b604051636a292c0360e01b815233600482015269152d02c7e14af6800000907f00000000000000000000000000000000000000000000000000000000000000006001600160a01b031690636a292c0390602401602060405180830381865afa1580156105ef573d5f803e3d5ffd5b505050506040513d601f19601f820116820180604052508101906106139190612774565b10156106325760405163cabeb65560e01b815260040160405180910390fd5b60025f81546106409061278b565b9182905550905061065381838686611106565b610662818b8b8b8b8b8b61129c565b61067481838c8c8c8c8c8c8c8c611388565b9998505050505050505050565b60408051610160810182525f80825260208201819052918101829052606081018290526080810182905260a0810182905260c0810182905260e08101829052610100810182905261012081018290526101408101919091528115806106e7575060025482115b156107055760405163635e873760e01b815260040160405180910390fd5b5f828152600360209081526040918290208251610160810184528154815260018201546001600160a01b0381169382019390935292909190830190600160a01b900460ff16600281111561075b5761075b612289565b600281111561076c5761076c612289565b815260028201546020820152600382015460408201526004820154606082015260058201546080820152600682015460a0820152600782015460ff808216151560c08401526101009182900416151560e083015260089092015491015292915050565b5f807f00000000000000000000000000000000000000000000000000000000000000006001600160a01b03166311acc1a76040518163ffffffff1660e01b8152600401602060405180830381865afa15801561082d573d5f803e3d5ffd5b505050506040513d601f19601f820116820180604052508101906108519190612774565b90505f83600281111561086657610866612289565b036108895760646108786004836127a3565b61088291906127ce565b9392505050565b600183600281111561089d5761089d612289565b036108af5760646108786008836127a3565b6064610878600f836127a3565b50919050565b5f6108cc826102e2565b905060048160078111156108e2576108e2612289565b146109005760405163b437280360e01b815260040160405180910390fd5b5f61090e62093a8042612761565b5f84815260066020526040908190208290555190915083907f9a2e42fd6722813d69113e7d0079d3d940171428df7373df9c7f7617cfda2892906109559084815260200190565b60405180910390a2505050565b604080516060810182525f80825260208201819052918101919091525f8381526005602090815260408083206001600160a01b0386168452825291829020825160608101909352805460ff8082161515855291928401916101009091041660028111156109d1576109d1612289565b60028111156109e2576109e2612289565b8152602001600182015481525050905092915050565b610a1c60405180606001604052806060815260200160608152602001606081525090565b811580610a2a575060025482115b15610a485760405163635e873760e01b815260040160405180910390fd5b5f8281526004602090815260409182902082518154608093810282018401909452606081018481529093919284928491840182828015610aaf57602002820191905f5260205f20905b81546001600160a01b03168152600190910190602001808311610a91575b5050505050815260200160018201805480602002602001604051908101604052809291908181526020018280548015610b0557602002820191905f5260205f20905b815481526020019060010190808311610af1575b5050505050815260200160028201805480602002602001604051908101604052809291908181526020015f905b82821015610bda578382905f5260205f20018054610b4f906127e1565b80601f0160208091040260200160405190810160405280929190818152602001828054610b7b906127e1565b8015610bc65780601f10610b9d57610100808354040283529160200191610bc6565b820191905f5260205f20905b815481529060010190602001808311610ba957829003601f168201915b505050505081526020019060010190610b32565b505050915250909392505050565b60025f5403610c3d5760405162461bcd60e51b815260206004820152601f60248201527f5265656e7472616e637947756172643a207265656e7472616e742063616c6c00604482015260640160405180910390fd5b60025f908155610c4c826102e2565b90506005816007811115610c6257610c62612289565b14610c805760405163b437280360e01b815260040160405180910390fd5b5f8281526006602052604090205442811115610caf576040516327056b2160e01b815260040160405180910390fd5b5f838152600360209081526040808320600701805461ff00191661010017905560049091528120905b8154811015610dc0575f825f018281548110610cf657610cf6612813565b5f918252602090912001546001840180546001600160a01b039092169184908110610d2357610d23612813565b905f5260205f200154846002018481548110610d4157610d41612813565b905f5260205f2001604051610d569190612827565b5f6040518083038185875af1925050503d805f8114610d90576040519150601f19603f3d011682016040523d82523d5f602084013e610d95565b606091505b5050905080610db757604051632b3f6d1160e21b815260040160405180910390fd5b50600101610cd8565b5060405184907f712ae1383f79ac853f8d882153778e0260ef8f03b504e2866e0593e04d2b291f905f90a2505060015f555050565b5f818152600360205260408120600681015460058201546004830154849291610e1d91612761565b610e279190612761565b90505f610e448360010160149054906101000a900460ff166107cf565b90911015949350505050565b5f610e5a856102e2565b90506001816007811115610e7057610e70612289565b14610e8e5760405163b437280360e01b815260040160405180910390fd5b5f8581526005602090815260408083206001600160a01b03881684529091529020805460ff1615610ed257604051637c9a1cf960e01b815260040160405180910390fd5b5f868152600360205260408082206002810154915163eaeded5f60e01b81526001600160a01b03898116600483015260248201939093529092917f0000000000000000000000000000000000000000000000000000000000000000169063eaeded5f90604401602060405180830381865afa158015610f53573d5f803e3d5ffd5b505050506040513d601f19601f82011682018060405250810190610f779190612774565b9050805f03610f995760405163cabeb65560e01b815260040160405180910390fd5b8254600160ff198216811785558791859161ffff1990911617610100836002811115610fc757610fc7612289565b02179055506001808401829055866002811115610fe657610fe6612289565b036110095780826004015f828254610ffe9190612761565b9091555061104d9050565b5f86600281111561101c5761101c612289565b036110345780826005015f828254610ffe9190612761565b80826006015f8282546110479190612761565b90915550505b87876001600160a01b03167fb8e138887d0aa13bab447e82de9d5c1777041ecd21ca36ba824ff1e6c07ddda488848960405161108b93929190612899565b60405180910390a35050505050505050565b5f8590036110be57604051630e52390960e41b815260040160405180910390fd5b8483146110de57604051630e52390960e41b815260040160405180910390fd5b8481146110fe57604051630e52390960e41b815260040160405180910390fd5b505050505050565b5f61111462093a8042612761565b6040805161016081018252878152336020820152919250810185600281111561113f5761113f612289565b81526020810183905260400161115862093a8084612761565b81526020015f81526020015f81526020015f81526020015f151581526020015f151581526020016111bd85858080601f0160208091040260200160405190810160405280939291908181526020018383808284375f9201919091525061140792505050565b90525f8681526003602090815260409182902083518155908301516001820180546001600160a01b039092166001600160a01b031983168117825593850151929390916001600160a81b03191617600160a01b83600281111561122257611222612289565b0217905550606082015160028201556080820151600382015560a0820151600482015560c0820151600582015560e082015160068201556101008083015160078301805461012086015161ffff1990911692151561ff00191692909217911515909202179055610140909101516008909101555050505050565b60405180606001604052808787808060200260200160405190810160405280939291908181526020018383602002808284375f9201919091525050509082525060408051602087810282810182019093528782529283019290918891889182918501908490808284375f920191909152505050908252506020016113208385612904565b90525f888152600460209081526040909120825180519192611347928492909101906120df565b5060208281015180516113609260018501920190612142565b506040820151805161137c91600284019160209091019061217b565b50505050505050505050565b5f60035f8c81526020019081526020015f209050336001600160a01b03168b7f4b55809098873e1d0ea523b31b15e434e348b0e2f85e9fcaa3c987e737a111e28c8c8c8c8c8c8c8a600201548b600301548e8e6040516113f29b9a99989796959493929190612aab565b60405180910390a35050505050505050505050565b5f610525825f6114156121cb565b82515f6088611425836001612761565b61142f91906127ce565b61143a906001612761565b90505f5b81811015611556575f6114526088836127a3565b90505f5b6011811015611541575f805b600881101561150f575f816114788560086127a3565b6114829087612761565b61148c9190612761565b90505f888210156114b8578b82815181106114a9576114a9612813565b016020015160f81c90506114ef565b8882036114c7575060066114ef565b60016114d4608888612761565b6114de9190612b5f565b82036114ec575060806114ef565b505f5b6114fa8360086127a3565b60ff909116901b929092179150600101611462565b508087836019811061152357611523612813565b602002018051919091186001600160401b0316905250600101611456565b5061154b856116f6565b94505060010161143e565b5060c083600360200201516001600160401b0316901b608084600260200201516001600160401b0316901b604085600160200201516001600160401b0316901b855f60200201516001600160401b031617171793506116ed847bffffffff000000000000000000000000ffffffff00000000000000007eff000000ff000000ff000000ff000000ff000000ff000000ff000000ff0000600883811c9182167fff000000ff000000ff000000ff000000ff000000ff000000ff000000ff0000009490911b93841617601090811c7cff000000ff000000ff000000ff000000ff000000ff000000ff000000ff9092167dff000000ff000000ff000000ff000000ff000000ff000000ff000000ff009094169390931790921b91909117602081811c9283167fffffffff000000000000000000000000ffffffff0000000000000000000000009290911b91821617604090811c73ffffffff000000000000000000000000ffffffff90931677ffffffff000000000000000000000000ffffffff0000000090921691909117901b17608081811c91901b1790565b95945050505050565b6116fe6121cb565b816117076121ea565b61170f6121ea565b5f6040518061032001604052805f815260200160018152602001603e8152602001601c8152602001601b815260200160248152602001602c815260200160068152602001603781526020016014815260200160038152602001600a8152602001602b8152602001601981526020016027815260200160298152602001602d8152602001600f815260200160158152602001600881526020016012815260200160028152602001603d815260200160388152602001600e81525090505f60405180610300016040528060016001600160401b03166001600160401b031681526020016180826001600160401b03166001600160401b0316815260200167800000000000808a6001600160401b03166001600160401b031681526020016780000000800080006001600160401b03166001600160401b0316815260200161808b6001600160401b03166001600160401b0316815260200163800000016001600160401b03166001600160401b031681526020016780000000800080816001600160401b03166001600160401b031681526020016780000000000080096001600160401b03166001600160401b03168152602001608a6001600160401b03166001600160401b0316815260200160886001600160401b03166001600160401b0316815260200163800080096001600160401b03166001600160401b03168152602001638000000a6001600160401b03166001600160401b03168152602001638000808b6001600160401b03166001600160401b0316815260200167800000000000008b6001600160401b03166001600160401b031681526020016780000000000080896001600160401b03166001600160401b031681526020016780000000000080036001600160401b03166001600160401b031681526020016780000000000080026001600160401b03166001600160401b031681526020016780000000000000806001600160401b03166001600160401b0316815260200161800a6001600160401b03166001600160401b0316815260200167800000008000000a6001600160401b03166001600160401b031681526020016780000000800080816001600160401b03166001600160401b031681526020016780000000000080806001600160401b03166001600160401b0316815260200163800000016001600160401b03166001600160401b031681526020016780000000800080086001600160401b03166001600160401b031681525090505f5b60188110156120a1576102808601516101e087015161014088015160a08901518951181818186001600160401b0390811686526102a087015161020088015161016089015160c08a01516020808c01519091189091189091189091188216908701526102c087015161022088015161018089015160e08a01516040808c01519091189091189091189091188216908701526102e08701516102408801516101a08901516101008a01516060808c01519091189091189091189091188216908701526103008701516102608801516101c08901516101208a01516080808c015190911890911890911890911890911690860152611ba38560015b602002015160016120ad565b6080860151186001600160401b03168452611bbf856002611b97565b8551186001600160401b03166020850152611bdb856003611b97565b6020860151186001600160401b03166040850152611bfa856004611b97565b6040860151186001600160401b03166060850152611c18855f611b97565b6060808701516001600160401b0392188216608080880191825287518a511884168a5260208881018051918c01805190921886169091526040808a018051918d01805190921887169091528985018051958d01805190961887169095528351928c0180519093188616909252885160a08c01805190911886169052805160c08c01805190911886169052815160e08c0180519091188616905283516101008c0180519091188616905282516101208c0180519091188616905288516101408c0180519091188616905280516101608c0180519091188616905281516101808c0180519091188616905283516101a08c0180519091188616905282516101c08c0180519091188616905288516101e08c0180519091188616905280516102008c0180519091188616905281516102208c0180519091188616905283516102408c0180519091188616905282516102608c0180519091188616905288516102808c01805190911886169052516102a08b01805190911885169052516102c08a0180519091188416905290516102e0890180519091188316905251610300880180519091189091169052611dc76121cb565b5f5b6019811015611e9d575f611dde600583612b72565b90505f611dec6005846127ce565b9050805f6005611dfd8360036127a3565b611e088660026127a3565b611e129190612761565b611e1c9190612b72565b9050611e548c8660198110611e3357611e33612813565b60200201518a8760198110611e4a57611e4a612813565b60200201516120ad565b86611e608360056127a3565b611e6a9085612761565b60198110611e7a57611e7a612813565b6001600160401b039092166020929092020152505060019092019150611dc99050565b505f5b6005811015612072575f611eb58260056127a3565b90505f838260198110611eca57611eca612813565b602002015190505f84611ede846001612761565b60198110611eee57611eee612813565b602002015190505f85611f02856002612761565b60198110611f1257611f12612813565b602002015190505f86611f26866003612761565b60198110611f3657611f36612813565b602002015190505f87611f4a876004612761565b60198110611f5a57611f5a612813565b602002015190508284191685188e8760198110611f7957611f79612813565b6001600160401b0390921660209290920201528219821684188e611f9e886001612761565b60198110611fae57611fae612813565b6001600160401b0390921660209290920201528119811683188e611fd3886002612761565b60198110611fe357611fe3612813565b6001600160401b0390921660209290920201528019851682188e612008886003612761565b6019811061201857612018612813565b6001600160401b0390921660209290920201528419841681188e61203d886004612761565b6019811061204d5761204d612813565b6001600160401b039092166020929092020152505060019094019350611ea092505050565b5082826018811061208557612085612813565b60200201518751186001600160401b0316875250600101611a9e565b50939695505050505050565b5f815f036120bc575081610525565b6120c7826040612b5f565b6001600160401b03841680841b911c17905092915050565b828054828255905f5260205f20908101928215612132579160200282015b8281111561213257825182546001600160a01b0319166001600160a01b039091161782556020909201916001909101906120fd565b5061213e929150612208565b5090565b828054828255905f5260205f20908101928215612132579160200282015b82811115612132578251825591602001919060010190612160565b828054828255905f5260205f209081019282156121bf579160200282015b828111156121bf57825182906121af9082612bd1565b5091602001919060010190612199565b5061213e92915061221c565b6040518061032001604052806019906020820280368337509192915050565b6040518060a001604052806005906020820280368337509192915050565b5b8082111561213e575f8155600101612209565b8082111561213e575f61222f8282612238565b5060010161221c565b508054612244906127e1565b5f825580601f10612253575050565b601f0160209004905f5260205f209081019061226f9190612208565b50565b5f60208284031215612282575f80fd5b5035919050565b634e487b7160e01b5f52602160045260245ffd5b60208101600883106122b1576122b1612289565b91905290565b6003811061226f575f80fd5b5f80604083850312156122d4575f80fd5b8235915060208301356122e6816122b7565b809150509250929050565b5f8083601f840112612301575f80fd5b5081356001600160401b03811115612317575f80fd5b60208301915083602082850101111561232e575f80fd5b9250929050565b5f805f8060608587031215612348575f80fd5b84359350602085013561235a816122b7565b925060408501356001600160401b03811115612374575f80fd5b612380878288016122f1565b95989497509550505050565b5f8083601f84011261239c575f80fd5b5081356001600160401b038111156123b2575f80fd5b6020830191508360208260051b850101111561232e575f80fd5b5f805f805f805f805f60a08a8c0312156123e4575f80fd5b89356001600160401b03808211156123fa575f80fd5b6124068d838e0161238c565b909b50995060208c013591508082111561241e575f80fd5b61242a8d838e0161238c565b909950975060408c0135915080821115612442575f80fd5b61244e8d838e0161238c565b909750955060608c0135915080821115612466575f80fd5b506124738c828d016122f1565b90945092505060808a0135612487816122b7565b809150509295985092959850929598565b6003811061226f5761226f612289565b6124b181612498565b9052565b815181526020808301516101608301916124d9908401826001600160a01b03169052565b5060408301516124ec60408401826124a8565b50606083015160608301526080830151608083015260a083015160a083015260c083015160c083015260e083015160e0830152610100808401516125338285018215159052565b50506101208381015180151584830152505061014092830151919092015290565b5f60208284031215612564575f80fd5b8135610882816122b7565b80356001600160a01b0381168114612585575f80fd5b919050565b5f806040838503121561259b575f80fd5b823591506125ab6020840161256f565b90509250929050565b815115158152602082015160608201906125cd81612498565b806020840152506040830151604083015292915050565b5f815180845260208085019450602084015f5b83811015612613578151875295820195908201906001016125f7565b509495945050505050565b5f81518084525f5b8181101561264257602081850181015186830182015201612626565b505f602082860101526020601f19601f83011685010191505092915050565b5f8282518085526020808601955060208260051b840101602086015f5b848110156126ac57601f1986840301895261269a83835161261e565b9884019892509083019060010161267e565b5090979650505050505050565b602080825282516060838301528051608084018190525f9291820190839060a08601905b808310156127065783516001600160a01b031682529284019260019290920191908401906126dd565b50838701519350601f1992508286820301604087015261272681856125e4565b935050506040850151818584030160608601526127438382612661565b9695505050505050565b634e487b7160e01b5f52601160045260245ffd5b808201808211156105255761052561274d565b5f60208284031215612784575f80fd5b5051919050565b5f6001820161279c5761279c61274d565b5060010190565b80820281158282048414176105255761052561274d565b634e487b7160e01b5f52601260045260245ffd5b5f826127dc576127dc6127ba565b500490565b600181811c908216806127f557607f821691505b6020821081036108bc57634e487b7160e01b5f52602260045260245ffd5b634e487b7160e01b5f52603260045260245ffd5b5f808354612834816127e1565b6001828116801561284c57600181146128615761288d565b60ff198416875282151583028701945061288d565b875f526020805f205f5b858110156128845781548a82015290840190820161286b565b50505082870194505b50929695505050505050565b6128a284612498565b838152826020820152606060408201525f6116ed606083018461261e565b634e487b7160e01b5f52604160045260245ffd5b604051601f8201601f191681016001600160401b03811182821017156128fc576128fc6128c0565b604052919050565b5f6001600160401b038084111561291d5761291d6128c0565b8360051b602061292e8183016128d4565b868152918501918181019036841115612945575f80fd5b865b848110156129c35780358681111561295d575f80fd5b8801601f368183011261296e575f80fd5b813588811115612980576129806128c0565b612991818301601f191688016128d4565b915080825236878285010111156129a6575f80fd5b80878401888401375f908201870152845250918301918301612947565b50979650505050505050565b8183525f6001600160fb1b038311156129e6575f80fd5b8260051b80836020870137939093016020019392505050565b81835281816020850137505f828201602090810191909152601f909101601f19169091010190565b5f838385526020808601955060208560051b830101845f5b878110156126ac57848303601f19018952813536889003601e19018112612a64575f80fd5b870184810190356001600160401b03811115612a7e575f80fd5b803603821315612a8c575f80fd5b612a978582846129ff565b9a86019a9450505090830190600101612a3f565b5f60e08201612ab98e612498565b8d8352602060e06020850152818d8352610100850190508e92505f5b8e811015612b01576001600160a01b03612aee8561256f565b1682529282019290820190600101612ad5565b508481036040860152612b15818d8f6129cf565b925050508281036060840152612b2c81898b612a27565b90508660808401528560a084015282810360c0840152612b4d8185876129ff565b9e9d5050505050505050505050505050565b818103818111156105255761052561274d565b5f82612b8057612b806127ba565b500690565b601f821115612bcc57805f5260205f20601f840160051c81016020851015612baa5750805b601f840160051c820191505b81811015612bc9575f8155600101612bb6565b50505b505050565b81516001600160401b03811115612bea57612bea6128c0565b612bfe81612bf884546127e1565b84612b85565b602080601f831160018114612c31575f8415612c1a5750858301515b5f19600386901b1c1916600185901b1785556110fe565b5f85815260208120601f198616915b82811015612c5f57888601518255948401946001909101908401612c40565b5085821015612c7c57878501515f19600388901b60f8161c191681555b5050505050600190811b0190555056fea26469706673582212203f4511c3e53daa0f818b47dd15db5526f3d5207d306c7e28db1f4256a1f02d1f64736f6c63430008180033","linkReferences":{}},"methodIdentifiers":{"PROPOSAL_THRESHOLD()":"a6c26603","TIMELOCK_DELAY()":"5ba1c1a9","VOTING_DELAY()":"d6159fe5","VOTING_PERIOD()":"b1610d7e","cancel(uint256)":"40e58ee5","castVote(uint256,uint8)":"56781388","castVoteWithReason(uint256,uint8,string)":"7b3c71d3","execute(uint256)":"fe0d94c1","getProposal(uint256)":"c7f758a8","getProposalActions(uint256)":"e26b2bea","getReceipt(uint256,address)":"e23a9a52","hasReachedQuorum(uint256)":"59abab05","proposalCount()":"da35c664","proposalEta(uint256)":"ab58fb8e","propose(address[],uint256[],bytes[],string,uint8)":"9a79018e","queue(uint256)":"ddf0b009","quorum(uint8)":"d95edd8d","state(uint256)":"3e4f49e6","veQS()":"83dd229d"},"id":35}