{"abi":[{"type":"function","name":"FIELD_MODULUS","inputs":[],"outputs":[{"name":"","type":"uint256","internalType":"uint256"}],"stateMutability":"view"},{"type":"function","name":"batchEvaluateConstraints","inputs":[{"name":"trace","type":"uint256[]","internalType":"uint256[]"},{"name":"points","type":"uint256[]","internalType":"uint256[]"}],"outputs":[{"name":"results","type":"uint256[]","internalType":"uint256[]"}],"stateMutability":"pure"},{"type":"function","name":"composeConstraints","inputs":[{"name":"constraintValues","type":"uint256[]","internalType":"uint256[]"},{"name":"alpha","type":"uint256","internalType":"uint256"}],"outputs":[{"name":"composed","type":"uint256","internalType":"uint256"}],"stateMutability":"pure"},{"type":"function","name":"composeConstraintsWeighted","inputs":[{"name":"constraintValues","type":"uint256[]","internalType":"uint256[]"},{"name":"weights","type":"uint256[]","internalType":"uint256[]"}],"outputs":[{"name":"composed","type":"uint256","internalType":"uint256"}],"stateMutability":"pure"},{"type":"function","name":"computeDCPQuotient","inputs":[{"name":"dcpX","type":"uint256","internalType":"uint256"},{"name":"dcpZ","type":"uint256","internalType":"uint256"},{"name":"x","type":"uint256","internalType":"uint256"},{"name":"z","type":"uint256","internalType":"uint256"}],"outputs":[{"name":"quotient","type":"uint256","internalType":"uint256"}],"stateMutability":"pure"},{"type":"function","name":"computeDeepComposition","inputs":[{"name":"traceEval","type":"uint256","internalType":"uint256"},{"name":"constraintEval","type":"uint256","internalType":"uint256"},{"name":"alpha","type":"uint256","internalType":"uint256"},{"name":"beta","type":"uint256","internalType":"uint256"}],"outputs":[{"name":"dcp","type":"uint256","internalType":"uint256"}],"stateMutability":"pure"},{"type":"function","name":"evaluatePolynomial","inputs":[{"name":"coefficients","type":"uint256[]","internalType":"uint256[]"},{"name":"point","type":"uint256","internalType":"uint256"}],"outputs":[{"name":"result","type":"uint256","internalType":"uint256"}],"stateMutability":"pure"},{"type":"function","name":"evaluatePolynomialBatch","inputs":[{"name":"coefficients","type":"uint256[]","internalType":"uint256[]"},{"name":"points","type":"uint256[]","internalType":"uint256[]"}],"outputs":[{"name":"results","type":"uint256[]","internalType":"uint256[]"}],"stateMutability":"pure"},{"type":"function","name":"generateChallenge","inputs":[{"name":"transcript","type":"bytes32","internalType":"bytes32"},{"name":"label","type":"bytes32","internalType":"bytes32"}],"outputs":[{"name":"challenge","type":"uint256","internalType":"uint256"}],"stateMutability":"pure"},{"type":"function","name":"getVersion","inputs":[],"outputs":[{"name":"name","type":"string","internalType":"string"},{"name":"version","type":"string","internalType":"string"}],"stateMutability":"pure"},{"type":"function","name":"updateTranscript","inputs":[{"name":"currentTranscript","type":"bytes32","internalType":"bytes32"},{"name":"commitment","type":"bytes32","internalType":"bytes32"}],"outputs":[{"name":"newTranscript","type":"bytes32","internalType":"bytes32"}],"stateMutability":"pure"},{"type":"function","name":"verifyDegreeBound","inputs":[{"name":"evaluations","type":"uint256[]","internalType":"uint256[]"},{"name":"maxDegree","type":"uint256","internalType":"uint256"},{"name":"domainSize","type":"uint256","internalType":"uint256"}],"outputs":[{"name":"valid","type":"bool","internalType":"bool"}],"stateMutability":"pure"},{"type":"event","name":"ConstraintsComposed","inputs":[{"name":"numConstraints","type":"uint256","indexed":false,"internalType":"uint256"},{"name":"result","type":"uint256","indexed":false,"internalType":"uint256"}],"anonymous":false},{"type":"error","name":"ArrayLengthMismatch","inputs":[]},{"type":"error","name":"EmptyPolynomial","inputs":[]},{"type":"error","name":"TraceTooShort","inputs":[]}],"bytecode":{"object":"0x608080604052346100165761181c908161001c8239f35b600080fdfe604060e081526004908136101561001557600080fd5b6000803560e01c80630685f6b3146103aa5780630d8e6e2c1461032b57806334355667146102c55780634f76a98e146102a257806358fd18e1146102865780635a54f48a1461020f5780639264607f146101c85780639a464eef146101a9578063c109238714610172578063eadfbb8a1461014f578063f998bcdf146100ee5763ff0b7010146100a457600080fd5b346100eb5760603660031901126100eb578235906001600160401b0382116100eb57506100d96020936100e29236910161055f565b602435906109d1565b90519015158152f35b80fd5b50903461014b5760209067ffffffff0000000161014361010d366106b4565b8451916f51535f434f4e53545241494e545f563160801b878401528583015260608201526060815261013e816104d5565b6109f3565b069051908152f35b5080fd5b50903461014b5760209061016b61016536610683565b90610755565b9051908152f35b50903461014b57602090610185366106ca565b929093519367ffffffff000000018080809681808097069106099406910609088152f35b50903461014b5760209061016b6101bf366106ca565b929190916108ef565b50903461014b5760209061016b6101de366106b4565b8351916f51535f434f4e53545241494e545f563160801b868401528483015260608201526060815261013e816104d5565b50823461014b5761021f366105c2565b9181518351036102785750825b815184101561026e576102689067ffffffff0000000190818061024f888761072b565b51068161025c898961072b565b51069009900893610838565b9261022c565b6020908551908152f35b845163512509d360e11b8152fd5b50903461014b5760209061016b61029c36610683565b90610847565b50903461014b578160031936011261014b576020905167ffffffff000000018152f35b50903461014b576102d5366105c2565b6102e28194929451610806565b915b815181101561031a57806103056102fe610315938561072b565b5187610755565b61030f828661072b565b52610838565b6102e4565b8351806103278582610608565b0390f35b50346100eb57806003193601126100eb5750805190610349826104a4565b601382527221b7b739ba3930b4b73a22bb30b63ab0ba37b960691b60208301526103278151610377816104a4565b60058152640302e312e360dc1b602082015261039c8351948486958652850190610643565b908382036020850152610643565b5091346104a0576103ba366105c2565b91600280835110610491576103cf8451610806565b93865b81518110156104845767ffffffff000000016103fc816103f2848661072b565b51068751906106e8565b6001810180821161047157858361042d8161042461041d82968e51906106e8565b968d61072b565b5106948b61072b565b51069209908181106104585761045393929161044891610708565b0661030f828961072b565b6103d2565b90820382811161047157610453939291610448916108e2565b634e487b7160e01b8b526011875260248bfd5b8651806103278882610608565b50835163ca4f87d560e01b8152fd5b8280fd5b604081019081106001600160401b038211176104bf57604052565b634e487b7160e01b600052604160045260246000fd5b608081019081106001600160401b038211176104bf57604052565b61032081019081106001600160401b038211176104bf57604052565b60a081019081106001600160401b038211176104bf57604052565b90601f801991011681019081106001600160401b038211176104bf57604052565b6001600160401b0381116104bf5760051b60200190565b81601f820112156105bd5780359161057683610548565b926105846040519485610527565b808452602092838086019260051b8201019283116105bd578301905b8282106105ae575050505090565b813581529083019083016105a0565b600080fd5b9060406003198301126105bd576001600160401b036004358181116105bd57836105ee9160040161055f565b926024359182116105bd576106059160040161055f565b90565b6020908160408183019282815285518094520193019160005b82811061062f575050505090565b835185529381019392810192600101610621565b919082519283825260005b84811061066f575050826000602080949584010152601f8019910116010190565b60208183018101518483018201520161064e565b60406003198201126105bd57600435906001600160401b0382116105bd576106ad9160040161055f565b9060243590565b60409060031901126105bd576004359060243590565b60809060031901126105bd5760043590602435906044359060643590565b81156106f2570690565b634e487b7160e01b600052601260045260246000fd5b9190820391821161071557565b634e487b7160e01b600052601160045260246000fd5b805182101561073f5760209160051b010190565b634e487b7160e01b600052603260045260246000fd5b908151156107f45767ffffffff0000000180910691805191600019928381019081116107155761078682918461072b565b51069382518481019081116107155793926000855b6107a85750505050505090565b959394956106f25784860186811161071557836107c681928461072b565b5106818460009709089580156107e057850194938561079b565b634e487b7160e01b85526011600452602485fd5b60405163523bd1ad60e11b8152600490fd5b9061081082610548565b61081d6040519182610527565b828152809261082e601f1991610548565b0190602036910137565b60001981146107155760010190565b8051156108db57600091829060019067ffffffff0000000190819006838381815b610878575b505050505050505090565b879891929394959697518410156108d35785610894858b61072b565b5106906108bf579085838193099008966108b2858589940993610838565b9186959493919796610868565b634e487b7160e01b88526012600452602488fd5b81985061086d565b5050600090565b9190820180921161071557565b67ffffffff00000001938490069284900691908490069084900660008183106109b5575061091c91610708565b915b6000818310610985575061093191610708565b905b811561097d578267fffffffeffffffff60018183829606925b61095857505050500990565b8180821614610972575b811c92828493099286939261094c565b948284910994610962565b505050600090565b908403908482116109a157509061099b916108e2565b90610933565b634e487b7160e01b81526011600452602490fd5b908503908582116109a15750906109cb916108e2565b9161091e565b5111156109dd57600190565b600090565b90601981101561073f5760051b0190565b6000608052604051610a04816104f0565b61032036823760805280516001810180821161071557608890049160018301831161071557600092915b600183018410610ba457505050506080516001600160401b038151166fffffffffffffffff0000000000000000602083015160401b161760408201519160606001600160401b0360c01b91015160c01b16916001600160401b0360801b9060801b1617177eff00ff00ff00ff00ff00ff00ff00ff00ff00ff00ff00ff00ff00ff00ff00ff7fff00ff00ff00ff00ff00ff00ff00ff00ff00ff00ff00ff00ff00ff00ff00ff008260081b169160081c16177dffff0000ffff0000ffff0000ffff0000ffff0000ffff0000ffff0000ffff7fffff0000ffff0000ffff0000ffff0000ffff0000ffff0000ffff0000ffff00008260101b169160101c16177bffffffff00000000ffffffff00000000ffffffff00000000ffffffff7fffffffff00000000ffffffff00000000ffffffff00000000ffffffff000000008260201b169160201c161777ffffffffffffffff0000000000000000ffffffffffffffff80198260401b169160401c16178060801b9060801c1790565b909192938460888102046088148515171561071557936000935b6011851015610cd757600090815b6008831015610c94578660031b878104600814881517156107155783610bf8610bfd92608888026108e2565b6108e2565b85811015610c4c57865181101561073f5786016020015160f81c905b8360031b918483046008148515171561071557610c469260ff6001600160401b039216901b161792610838565b91610bcc565b808603610c5c5750600690610c19565b608880860201806088870211610715576087608887020111610715576088850260870103610c8c57608090610c19565b600090610c19565b610cce92509692969590956001600160401b039081610cb5846080516109e2565b51161890610cc5836080516109e2565b91169052610838565b93949094610bbe565b9350919091610320604051610ceb816104f0565b369037604051610cfa8161050c565b60a036823760405190610d0c8261050c565b60a036833760405161032081018181106001600160401b038211176104bf576040526000815260016020820152603e6040820152601c6060820152601b6080820152602460a0820152602c60c0820152600660e0820152603761010082015260146101208201526003610140820152600a610160820152602b61018082015260196101a082015260276101c082015260296101e0820152602d610200820152600f61022082015260156102408201526008610260820152601261028082015260026102a0820152603d6102c082015260386102e0820152600e6103008201526040518060a052806103008101106001600160401b03610300830111176104bf57806103006001920160405252618082602060a051015267800000000000808a604060a0510152678000000080008000606060a051015261808b608060a0510152638000000160a08051015267800000008000808160c060a051015267800000000000800960e060a0510152608a61010060a0510152608861012060a0510152638000800961014060a0510152638000000a61016060a0510152638000808b61018060a051015267800000000000008b6101a060a05101526780000000000080896101c060a05101526780000000000080036101e060a051015267800000000000800261020060a051015267800000000000008061022060a051015261800a61024060a051015267800000008000000a61026060a051015267800000008000808161028060a05101526780000000000080806102a060a051015263800000016102c060a05101526780000000800080086102e060a05101526000915b60188310610f875750505050610f7e600191610838565b93929050610a2e565b9491966001600160401b03608099929794995181610280818351168260a08501511618826101408501511618826101e0850151161892015116181686526080516001600160401b036102a0816020840151168260c0850151161882610160850151161882610200850151161892015116186001600160401b03811660208801526001600160401b03608051816102c0816040840151168260e0850151161882610180850151161882610220850151161892015116181660408801526001600160401b03608051816102e081606084015116826101008501511618826101a0850151161882610240850151161892015116181660608801526001600160401b0380806080518161030081608084015116826101208501511618826101c085015116188261026085015116189201511618168060808b015281600185603f1c1667fffffffffffffffe8660011b16178218168d528c6020838c611105826040818451169301511667fffffffffffffffe600182603f1c169160011b161790565b18169101528c6040838c611139826060816020850151169301511667fffffffffffffffe600182603f1c169160011b161790565b18169101528c6060838c61116d826080816040850151169301511667fffffffffffffffe600182603f1c169160011b161790565b18169101528c6080838c61119e828060608401511692511667fffffffffffffffe600182603f1c169160011b161790565b18169101526080519367fffffffffffffffe600182603f1c169160011b1617181681835116181690526001600160401b0360208a0151166001600160401b036020608051019181835116181690526001600160401b0360408a0151166001600160401b036040608051019181835116181690526001600160401b0360608a0151166001600160401b036060608051019181835116181690526001600160401b0360808a0151166001600160401b0360808051019181835116181690526001600160401b038951166001600160401b0360a0608051019181835116181690526001600160401b0360208a0151166001600160401b0360c0608051019181835116181690526001600160401b0360408a0151166001600160401b0360e0608051019181835116181690526001600160401b0360608a0151166001600160401b03610100608051019181835116181690526001600160401b0360808a0151166001600160401b03610120608051019181835116181690526001600160401b038951166001600160401b03610140608051019181835116181690526001600160401b0360208a0151166001600160401b03610160608051019181835116181690526001600160401b0360408a0151166001600160401b03610180608051019181835116181690526001600160401b0360608a0151166001600160401b036101a0608051019181835116181690526001600160401b0360808a0151166001600160401b036101c0608051019181835116181690526001600160401b038951166001600160401b036101e0608051019181835116181690526001600160401b0360208a0151166001600160401b03610200608051019181835116181690526001600160401b0360408a0151166001600160401b03610220608051019181835116181690526001600160401b0360608a0151166001600160401b03610240608051019181835116181690526001600160401b0360808a0151166001600160401b03610260608051019181835116181690526001600160401b038951166001600160401b03610280608051019181835116181690526001600160401b0360208a0151166001600160401b036102a0608051019181835116181690526001600160401b0360408a0151166001600160401b036102c0608051019181835116181690526001600160401b0360608a0151166001600160401b036102e0608051019181835116181690526001600160401b0360808a0151166001600160401b03610300608051019181835116181690526115526040518060c0526104f0565b6103203660c0513760005b60198110611719575060005b6005808210156116d957808281020482036107155761158c82820260c0516109e2565b51908281026001810110610715576115ab60018483020160c0516109e2565b518184026002810110610715576115c960028584020160c0516109e2565b51918481026003810110610715576115e860038683020160c0516109e2565b5160049190868202808401106116c457926001600160401b036116b184898589859987876116bf9f9e81819f9d611628829e918a8493020160c0516109e2565b5196816116398b8b026080516109e2565b9616191616911618169052866116566001868602016080516109e2565b9a16998780838d191616818b1618169052868061167a6002878702016080516109e2565b92169a81848d19161618169052858061169a6003868602016080516109e2565b921699818d8c1916161816905202016080516109e2565b951619161618169052610838565b611569565b601183634e487b7160e01b6000525260246000fd5b5050966117139098939691989592956001600160401b038160051b60a0510151166001600160401b03608051918183511618169052610838565b91610f67565b600581066001600160ff1b038116900361071557600360058204810204600582040361071557600561175581830460030282840660011b6108e2565b06906117816001600160401b0361176e836080516109e2565b511661177a838c6109e2565b51906117b8565b6005838102048303610715576001600160401b03610cc56117ab6117b395600502600586046108e2565b60c0516109e2565b61155d565b81156117e1576001600160401b038091168260400360408111610715578183911c16921b161790565b90509056fea26469706673582212204ffbd0c84d33d042f947a82b26943a0a250a1c0991314a86d120542432cf73df64736f6c63430008140033","linkReferences":{}},"methodIdentifiers":{"FIELD_MODULUS()":"4f76a98e","batchEvaluateConstraints(uint256[],uint256[])":"0685f6b3","composeConstraints(uint256[],uint256)":"58fd18e1","composeConstraintsWeighted(uint256[],uint256[])":"5a54f48a","computeDCPQuotient(uint256,uint256,uint256,uint256)":"9a464eef","computeDeepComposition(uint256,uint256,uint256,uint256)":"c1092387","evaluatePolynomial(uint256[],uint256)":"eadfbb8a","evaluatePolynomialBatch(uint256[],uint256[])":"34355667","generateChallenge(bytes32,bytes32)":"f998bcdf","getVersion()":"0d8e6e2c","updateTranscript(bytes32,bytes32)":"9264607f","verifyDegreeBound(uint256[],uint256,uint256)":"ff0b7010"},"id":44}