{"abi":[{"type":"function","name":"FIELD_MODULUS","inputs":[],"outputs":[{"name":"","type":"uint256","internalType":"uint256"}],"stateMutability":"view"},{"type":"function","name":"batchEvaluateConstraints","inputs":[{"name":"trace","type":"uint256[]","internalType":"uint256[]"},{"name":"points","type":"uint256[]","internalType":"uint256[]"}],"outputs":[{"name":"results","type":"uint256[]","internalType":"uint256[]"}],"stateMutability":"pure"},{"type":"function","name":"composeConstraints","inputs":[{"name":"constraintValues","type":"uint256[]","internalType":"uint256[]"},{"name":"alpha","type":"uint256","internalType":"uint256"}],"outputs":[{"name":"composed","type":"uint256","internalType":"uint256"}],"stateMutability":"pure"},{"type":"function","name":"composeConstraintsWeighted","inputs":[{"name":"constraintValues","type":"uint256[]","internalType":"uint256[]"},{"name":"weights","type":"uint256[]","internalType":"uint256[]"}],"outputs":[{"name":"composed","type":"uint256","internalType":"uint256"}],"stateMutability":"pure"},{"type":"function","name":"computeDCPQuotient","inputs":[{"name":"dcpX","type":"uint256","internalType":"uint256"},{"name":"dcpZ","type":"uint256","internalType":"uint256"},{"name":"x","type":"uint256","internalType":"uint256"},{"name":"z","type":"uint256","internalType":"uint256"}],"outputs":[{"name":"quotient","type":"uint256","internalType":"uint256"}],"stateMutability":"pure"},{"type":"function","name":"computeDeepComposition","inputs":[{"name":"traceEval","type":"uint256","internalType":"uint256"},{"name":"constraintEval","type":"uint256","internalType":"uint256"},{"name":"alpha","type":"uint256","internalType":"uint256"},{"name":"beta","type":"uint256","internalType":"uint256"}],"outputs":[{"name":"dcp","type":"uint256","internalType":"uint256"}],"stateMutability":"pure"},{"type":"function","name":"evaluatePolynomial","inputs":[{"name":"coefficients","type":"uint256[]","internalType":"uint256[]"},{"name":"point","type":"uint256","internalType":"uint256"}],"outputs":[{"name":"result","type":"uint256","internalType":"uint256"}],"stateMutability":"pure"},{"type":"function","name":"evaluatePolynomialBatch","inputs":[{"name":"coefficients","type":"uint256[]","internalType":"uint256[]"},{"name":"points","type":"uint256[]","internalType":"uint256[]"}],"outputs":[{"name":"results","type":"uint256[]","internalType":"uint256[]"}],"stateMutability":"pure"},{"type":"function","name":"generateChallenge","inputs":[{"name":"transcript","type":"bytes32","internalType":"bytes32"},{"name":"label","type":"bytes32","internalType":"bytes32"}],"outputs":[{"name":"challenge","type":"uint256","internalType":"uint256"}],"stateMutability":"pure"},{"type":"function","name":"getVersion","inputs":[],"outputs":[{"name":"name","type":"string","internalType":"string"},{"name":"version","type":"string","internalType":"string"}],"stateMutability":"pure"},{"type":"function","name":"updateTranscript","inputs":[{"name":"currentTranscript","type":"bytes32","internalType":"bytes32"},{"name":"commitment","type":"bytes32","internalType":"bytes32"}],"outputs":[{"name":"newTranscript","type":"bytes32","internalType":"bytes32"}],"stateMutability":"pure"},{"type":"function","name":"verifyDegreeBound","inputs":[{"name":"evaluations","type":"uint256[]","internalType":"uint256[]"},{"name":"maxDegree","type":"uint256","internalType":"uint256"},{"name":"domainSize","type":"uint256","internalType":"uint256"}],"outputs":[{"name":"valid","type":"bool","internalType":"bool"}],"stateMutability":"pure"},{"type":"event","name":"ConstraintsComposed","inputs":[{"name":"numConstraints","type":"uint256","indexed":false,"internalType":"uint256"},{"name":"result","type":"uint256","indexed":false,"internalType":"uint256"}],"anonymous":false},{"type":"error","name":"ArrayLengthMismatch","inputs":[]},{"type":"error","name":"EmptyPolynomial","inputs":[]},{"type":"error","name":"TraceTooShort","inputs":[]}],"bytecode":{"object":"0x608060405234801561001057600080fd5b50611b32806100206000396000f3fe608060405234801561001057600080fd5b50600436106100b45760003560e01c80639264607f116100715780639264607f146101925780639a464eef146101a5578063c1092387146101b8578063eadfbb8a146101cb578063f998bcdf146101de578063ff0b7010146101f157600080fd5b80630685f6b3146100b95780630d8e6e2c146100e2578063343556671461013c5780634f76a98e1461014f57806358fd18e11461016c5780635a54f48a1461017f575b600080fd5b6100cc6100c736600461182e565b610214565b6040516100d99190611891565b60405180910390f35b61012e604080518082018252601381527221b7b739ba3930b4b73a22bb30b63ab0ba37b960691b602080830191909152825180840190935260058352640302e312e360dc1b9083015291565b6040516100d992919061191b565b6100cc61014a36600461182e565b61040a565b61015e67ffffffff0000000181565b6040519081526020016100d9565b61015e61017a366004611940565b6104af565b61015e61018d36600461182e565b61055c565b61015e6101a0366004611984565b610610565b61015e6101b33660046119a6565b610660565b61015e6101c63660046119a6565b610760565b61015e6101d9366004611940565b6107e9565b61015e6101ec366004611984565b6108d2565b6102046101ff3660046119d8565b610921565b60405190151581526020016100d9565b60606002835110156102395760405163ca4f87d560e01b815260040160405180910390fd5b81516001600160401b038111156102525761025261177e565b60405190808252806020026020018201604052801561027b578160200160208202803683370190505b50905060005b825181101561040357600067ffffffff000000018483815181106102a7576102a7611a25565b60200260200101516102b99190611a51565b905060008551826102ca9190611a51565b9050600086518260016102dd9190611a7b565b6102e79190611a51565b9050600067ffffffff0000000188848151811061030657610306611a25565b60200260200101516103189190611a51565b9050600067ffffffff0000000189848151811061033757610337611a25565b60200260200101516103499190611a51565b9050600067ffffffff000000016002840990508082106103a35767ffffffff000000016103768284611a8e565b6103809190611a51565b88888151811061039257610392611a25565b6020026020010181815250506103ea565b67ffffffff00000001826103b78383611a8e565b6103c19190611a7b565b6103cb9190611a51565b8888815181106103dd576103dd611a25565b6020026020010181815250505b50505050505080806103fb90611aa1565b915050610281565b5092915050565b606081516001600160401b038111156104255761042561177e565b60405190808252806020026020018201604052801561044e578160200160208202803683370190505b50905060005b8251811015610403576104808484838151811061047357610473611a25565b60200260200101516107e9565b82828151811061049257610492611a25565b6020908102919091010152806104a781611aa1565b915050610454565b600082516000036104c257506000610556565b6104d467ffffffff0000000183611a51565b9150600090506001815b845181101561055357600067ffffffff000000018367ffffffff0000000188858151811061050e5761050e611a25565b60200260200101516105209190611a51565b09905067ffffffff00000001818508935067ffffffff00000001858409925050808061054b90611aa1565b9150506104de565b50505b92915050565b600081518351146105805760405163512509d360e11b815260040160405180910390fd5b506000805b835181101561040357600067ffffffff00000001808584815181106105ac576105ac611a25565b60200260200101516105be9190611a51565b67ffffffff000000018785815181106105d9576105d9611a25565b60200260200101516105eb9190611a51565b09905067ffffffff00000001818408925050808061060890611aa1565b915050610585565b604080516f51535f434f4e53545241494e545f563160801b602082015290810183905260608101829052600090610659906080015b60405160208183030381529060405261093d565b9392505050565b600061067467ffffffff0000000186611a51565b945061068867ffffffff0000000185611a51565b935061069c67ffffffff0000000184611a51565b92506106b067ffffffff0000000183611a51565b915060008486106106cc576106c58587611a8e565b90506106ec565b856106df8667ffffffff00000001611a8e565b6106e99190611a7b565b90505b6000838510610706576106ff8486611a8e565b9050610726565b846107198567ffffffff00000001611a8e565b6107239190611a7b565b90505b8060000361073957600092505050610758565b600061074482610948565b905067ffffffff0000000181840993505050505b949350505050565b600061077467ffffffff0000000186611a51565b945061078867ffffffff0000000185611a51565b935061079c67ffffffff0000000184611a51565b92506107b067ffffffff0000000183611a51565b9150600067ffffffff000000018585099050600067ffffffff00000001878509905067ffffffff00000001818308979650505050505050565b6000825160000361080d5760405163523bd1ad60e11b815260040160405180910390fd5b61081f67ffffffff0000000183611a51565b915067ffffffff0000000183600185516108399190611a8e565b8151811061084957610849611a25565b602002602001015161085b9190611a51565b905060006001845161086d9190611a8e565b90505b80156104035767ffffffff00000001838309915067ffffffff00000001808561089a600185611a8e565b815181106108aa576108aa611a25565b60200260200101516108bc9190611a51565b83089150806108ca81611aba565b915050610870565b604080516f51535f434f4e53545241494e545f563160801b602082015290810183905260608101829052600090819061090d90608001610645565b905061075867ffffffff0000000182611a51565b60008284511161093357506000610659565b5060019392505050565b6000610556826109af565b6000816000036109935760405162461bcd60e51b815260206004820152601260248201527143616e6e6f7420696e76657274207a65726f60701b604482015260640160405180910390fd5b610556826109aa600267ffffffff00000001611a8e565b610cc2565b60006109b9611741565b8251600060886109ca836001611a7b565b6109d49190611ad1565b6109df906001611a7b565b905060005b81811015610b215760006109f9608883611ae5565b905060005b6011811015610b01576000805b6008811015610ac557600081610a22856008611ae5565b610a2c9087611a7b565b610a369190611a7b565b9050600088821015610a63578b8281518110610a5457610a54611a25565b016020015160f81c9050610a9b565b888203610a7257506006610a9b565b6001610a7f608888611a7b565b610a899190611a8e565b8203610a9757506080610a9b565b5060005b610aa6836008611ae5565b60ff909116901b92909217915080610abd81611aa1565b915050610a0b565b5080878360198110610ad957610ad9611a25565b602002018051919091186001600160401b031690525080610af981611aa1565b9150506109fe565b50610b0b85610d22565b9450508080610b1990611aa1565b9150506109e4565b5060c083600360200201516001600160401b0316901b608084600260200201516001600160401b0316901b604085600160200201516001600160401b0316901b85600060200201516001600160401b03161717179350610cb9847bffffffff000000000000000000000000ffffffff00000000000000007eff000000ff000000ff000000ff000000ff000000ff000000ff000000ff0000600883811c9182167fff000000ff000000ff000000ff000000ff000000ff000000ff000000ff0000009490911b93841617601090811c7cff000000ff000000ff000000ff000000ff000000ff000000ff000000ff9092167dff000000ff000000ff000000ff000000ff000000ff000000ff000000ff009094169390931790921b91909117602081811c9283167fffffffff000000000000000000000000ffffffff0000000000000000000000009290911b91821617604090811c73ffffffff000000000000000000000000ffffffff90931677ffffffff000000000000000000000000ffffffff0000000090921691909117901b17608081811c91901b1790565b95945050505050565b60006001610cd867ffffffff0000000185611a51565b93505b821561065957610cec600284611a51565b600103610d025767ffffffff0000000184820990505b610d0d600284611ad1565b925067ffffffff000000018485099350610cdb565b610d2a611741565b81610d33611760565b610d3b611760565b60006040518061032001604052806000815260200160018152602001603e8152602001601c8152602001601b815260200160248152602001602c815260200160068152602001603781526020016014815260200160038152602001600a8152602001602b8152602001601981526020016027815260200160298152602001602d8152602001600f815260200160158152602001600881526020016012815260200160028152602001603d815260200160388152602001600e8152509050600060405180610300016040528060016001600160401b03166001600160401b031681526020016180826001600160401b03166001600160401b0316815260200167800000000000808a6001600160401b03166001600160401b031681526020016780000000800080006001600160401b03166001600160401b0316815260200161808b6001600160401b03166001600160401b0316815260200163800000016001600160401b03166001600160401b031681526020016780000000800080816001600160401b03166001600160401b031681526020016780000000000080096001600160401b03166001600160401b03168152602001608a6001600160401b03166001600160401b0316815260200160886001600160401b03166001600160401b0316815260200163800080096001600160401b03166001600160401b03168152602001638000000a6001600160401b03166001600160401b03168152602001638000808b6001600160401b03166001600160401b0316815260200167800000000000008b6001600160401b03166001600160401b031681526020016780000000000080896001600160401b03166001600160401b031681526020016780000000000080036001600160401b03166001600160401b031681526020016780000000000080026001600160401b03166001600160401b031681526020016780000000000000806001600160401b03166001600160401b0316815260200161800a6001600160401b03166001600160401b0316815260200167800000008000000a6001600160401b03166001600160401b031681526020016780000000800080816001600160401b03166001600160401b031681526020016780000000000080806001600160401b03166001600160401b0316815260200163800000016001600160401b03166001600160401b031681526020016780000000800080086001600160401b03166001600160401b0316815250905060005b6018811015611701576102808601516101e087015161014088015160a08901518951181818186001600160401b0390811686526102a087015161020088015161016089015160c08a01516020808c01519091189091189091189091188216908701526102c087015161022088015161018089015160e08a01516040808c01519091189091189091189091188216908701526102e08701516102408801516101a08901516101008a01516060808c01519091189091189091189091188216908701526103008701516102608801516101c08901516101208a01516080808c0151909118909118909118909118909116908601526111d38560015b6020020151600161170d565b6080860151186001600160401b031684526111ef8560026111c7565b8551186001600160401b0316602085015261120b8560036111c7565b6020860151186001600160401b0316604085015261122a8560046111c7565b6040860151186001600160401b031660608501526112498560006111c7565b6060808701516001600160401b0392188216608080880191825287518a511884168a5260208881018051918c01805190921886169091526040808a018051918d01805190921887169091528985018051958d01805190961887169095528351928c0180519093188616909252885160a08c01805190911886169052805160c08c01805190911886169052815160e08c0180519091188616905283516101008c0180519091188616905282516101208c0180519091188616905288516101408c0180519091188616905280516101608c0180519091188616905281516101808c0180519091188616905283516101a08c0180519091188616905282516101c08c0180519091188616905288516101e08c0180519091188616905280516102008c0180519091188616905281516102208c0180519091188616905283516102408c0180519091188616905282516102608c0180519091188616905288516102808c01805190911886169052516102a08b01805190911885169052516102c08a0180519091188416905290516102e08901805190911883169052516103008801805190911890911690526113f8611741565b60005b60198110156114db576000611411600583611a51565b90506000611420600584611ad1565b90508060006005611432836003611ae5565b61143d866002611ae5565b6114479190611a7b565b6114519190611a51565b90506114898c866019811061146857611468611a25565b60200201518a876019811061147f5761147f611a25565b602002015161170d565b86611495836005611ae5565b61149f9085611a7b565b601981106114af576114af611a25565b6001600160401b039092166020929092020152508392506114d39150829050611aa1565b9150506113fb565b5060005b60058110156116c85760006114f5826005611ae5565b9050600083826019811061150b5761150b611a25565b60200201519050600084611520846001611a7b565b6019811061153057611530611a25565b60200201519050600085611545856002611a7b565b6019811061155557611555611a25565b6020020151905060008661156a866003611a7b565b6019811061157a5761157a611a25565b6020020151905060008761158f876004611a7b565b6019811061159f5761159f611a25565b602002015190508284191685188e87601981106115be576115be611a25565b6001600160401b0390921660209290920201528219821684188e6115e3886001611a7b565b601981106115f3576115f3611a25565b6001600160401b0390921660209290920201528119811683188e611618886002611a7b565b6019811061162857611628611a25565b6001600160401b0390921660209290920201528019851682188e61164d886003611a7b565b6019811061165d5761165d611a25565b6001600160401b0390921660209290920201528419841681188e611682886004611a7b565b6019811061169257611692611a25565b60200201906001600160401b031690816001600160401b03168152505050505050505080806116c090611aa1565b9150506114df565b508282601881106116db576116db611a25565b60200201518751186001600160401b0316875250806116f981611aa1565b9150506110ce565b50939695505050505050565b60008160000361171e575081610556565b611729826040611a8e565b6001600160401b03841680841b911c17905092915050565b6040518061032001604052806019906020820280368337509192915050565b6040518060a001604052806005906020820280368337509192915050565b634e487b7160e01b600052604160045260246000fd5b600082601f8301126117a557600080fd5b813560206001600160401b03808311156117c1576117c161177e565b8260051b604051601f19603f830116810181811084821117156117e6576117e661177e565b60405293845285810183019383810192508785111561180457600080fd5b83870191505b848210156118235781358352918301919083019061180a565b979650505050505050565b6000806040838503121561184157600080fd5b82356001600160401b038082111561185857600080fd5b61186486838701611794565b9350602085013591508082111561187a57600080fd5b5061188785828601611794565b9150509250929050565b6020808252825182820181905260009190848201906040850190845b818110156118c9578351835292840192918401916001016118ad565b50909695505050505050565b6000815180845260005b818110156118fb576020818501810151868301820152016118df565b506000602082860101526020601f19601f83011685010191505092915050565b60408152600061192e60408301856118d5565b8281036020840152610cb981856118d5565b6000806040838503121561195357600080fd5b82356001600160401b0381111561196957600080fd5b61197585828601611794565b95602094909401359450505050565b6000806040838503121561199757600080fd5b50508035926020909101359150565b600080600080608085870312156119bc57600080fd5b5050823594602084013594506040840135936060013592509050565b6000806000606084860312156119ed57600080fd5b83356001600160401b03811115611a0357600080fd5b611a0f86828701611794565b9660208601359650604090950135949350505050565b634e487b7160e01b600052603260045260246000fd5b634e487b7160e01b600052601260045260246000fd5b600082611a6057611a60611a3b565b500690565b634e487b7160e01b600052601160045260246000fd5b8082018082111561055657610556611a65565b8181038181111561055657610556611a65565b600060018201611ab357611ab3611a65565b5060010190565b600081611ac957611ac9611a65565b506000190190565b600082611ae057611ae0611a3b565b500490565b808202811582820484141761055657610556611a6556fea2646970667358221220232cee25dad82a84a308ae45fe8aff164fe20ac5fa755bba9d5dffa1101a810164736f6c63430008140033","linkReferences":{}},"methodIdentifiers":{"FIELD_MODULUS()":"4f76a98e","batchEvaluateConstraints(uint256[],uint256[])":"0685f6b3","composeConstraints(uint256[],uint256)":"58fd18e1","composeConstraintsWeighted(uint256[],uint256[])":"5a54f48a","computeDCPQuotient(uint256,uint256,uint256,uint256)":"9a464eef","computeDeepComposition(uint256,uint256,uint256,uint256)":"c1092387","evaluatePolynomial(uint256[],uint256)":"eadfbb8a","evaluatePolynomialBatch(uint256[],uint256[])":"34355667","generateChallenge(bytes32,bytes32)":"f998bcdf","getVersion()":"0d8e6e2c","updateTranscript(bytes32,bytes32)":"9264607f","verifyDegreeBound(uint256[],uint256,uint256)":"ff0b7010"},"id":22}