{"abi":[{"type":"constructor","inputs":[{"name":"_admin","type":"address","internalType":"address"}],"stateMutability":"nonpayable"},{"type":"receive","stateMutability":"payable"},{"type":"function","name":"admin","inputs":[],"outputs":[{"name":"","type":"address","internalType":"address"}],"stateMutability":"view"},{"type":"function","name":"getBalance","inputs":[],"outputs":[{"name":"","type":"uint256","internalType":"uint256"}],"stateMutability":"view"},{"type":"function","name":"withdraw","inputs":[{"name":"to","type":"address","internalType":"address"},{"name":"amount","type":"uint256","internalType":"uint256"}],"outputs":[],"stateMutability":"nonpayable"},{"type":"event","name":"FundsReceived","inputs":[{"name":"from","type":"address","indexed":true,"internalType":"address"},{"name":"amount","type":"uint256","indexed":false,"internalType":"uint256"}],"anonymous":false},{"type":"event","name":"FundsWithdrawn","inputs":[{"name":"to","type":"address","indexed":true,"internalType":"address"},{"name":"amount","type":"uint256","indexed":false,"internalType":"uint256"}],"anonymous":false}],"bytecode":{"object":"0x608060405234801561000f575f80fd5b5060405161034e38038061034e83398101604081905261002e91610052565b5f80546001600160a01b0319166001600160a01b039290921691909117905561007f565b5f60208284031215610062575f80fd5b81516001600160a01b0381168114610078575f80fd5b9392505050565b6102c28061008c5f395ff3fe608060405260043610610036575f3560e01c806312065fe014610076578063f3fef3a314610095578063f851a440146100b6575f80fd5b366100725760405134815233907f8e47b87b0ef542cdfa1659c551d88bad38aa7f452d2bbb349ab7530dfec8be8f9060200160405180910390a2005b5f80fd5b348015610081575f80fd5b506040514781526020015b60405180910390f35b3480156100a0575f80fd5b506100b46100af366004610257565b6100ec565b005b3480156100c1575f80fd5b505f546100d4906001600160a01b031681565b6040516001600160a01b03909116815260200161008c565b5f546001600160a01b031633146101375760405162461bcd60e51b815260206004820152600a60248201526927b7363c9030b236b4b760b11b60448201526064015b60405180910390fd5b8047101561017e5760405162461bcd60e51b8152602060048201526014602482015273496e73756666696369656e742062616c616e636560601b604482015260640161012e565b5f826001600160a01b0316826040515f6040518083038185875af1925050503d805f81146101c7576040519150601f19603f3d011682016040523d82523d5f602084013e6101cc565b606091505b505090508061020f5760405162461bcd60e51b815260206004820152600f60248201526e151c985b9cd9995c8819985a5b1959608a1b604482015260640161012e565b826001600160a01b03167feaff4b37086828766ad3268786972c0cd24259d4c87a80f9d3963a3c3d999b0d8360405161024a91815260200190565b60405180910390a2505050565b5f8060408385031215610268575f80fd5b82356001600160a01b038116811461027e575f80fd5b94602093909301359350505056fea2646970667358221220be93018b68c4b5554ac4e33eb307e49dbe212aa05593c24d8ccd386a18e94a4a64736f6c63430008180033","linkReferences":{}},"methodIdentifiers":{"admin()":"f851a440","getBalance()":"12065fe0","withdraw(address,uint256)":"f3fef3a3"},"id":81}