{"abi":[{"type":"constructor","inputs":[{"name":"token_","type":"address","internalType":"address"},{"name":"admin_","type":"address","internalType":"address"}],"stateMutability":"nonpayable"},{"type":"function","name":"claim","inputs":[],"outputs":[{"name":"","type":"uint256","internalType":"uint256"}],"stateMutability":"nonpayable"},{"type":"function","name":"claimableAmount","inputs":[{"name":"beneficiary","type":"address","internalType":"address"}],"outputs":[{"name":"","type":"uint256","internalType":"uint256"}],"stateMutability":"view"},{"type":"function","name":"createVestingSchedule","inputs":[{"name":"beneficiary","type":"address","internalType":"address"},{"name":"totalAmount","type":"uint256","internalType":"uint256"},{"name":"startTime","type":"uint256","internalType":"uint256"},{"name":"cliffDuration","type":"uint256","internalType":"uint256"},{"name":"vestingDuration","type":"uint256","internalType":"uint256"},{"name":"revocable","type":"bool","internalType":"bool"}],"outputs":[],"stateMutability":"nonpayable"},{"type":"function","name":"getVestingSchedule","inputs":[{"name":"beneficiary","type":"address","internalType":"address"}],"outputs":[{"name":"","type":"tuple","internalType":"struct ITokenVesting.VestingSchedule","components":[{"name":"totalAmount","type":"uint256","internalType":"uint256"},{"name":"claimedAmount","type":"uint256","internalType":"uint256"},{"name":"startTime","type":"uint256","internalType":"uint256"},{"name":"cliffDuration","type":"uint256","internalType":"uint256"},{"name":"vestingDuration","type":"uint256","internalType":"uint256"},{"name":"revocable","type":"bool","internalType":"bool"},{"name":"revoked","type":"bool","internalType":"bool"}]}],"stateMutability":"view"},{"type":"function","name":"hasCliffPassed","inputs":[{"name":"beneficiary","type":"address","internalType":"address"}],"outputs":[{"name":"","type":"bool","internalType":"bool"}],"stateMutability":"view"},{"type":"function","name":"revoke","inputs":[{"name":"beneficiary","type":"address","internalType":"address"}],"outputs":[],"stateMutability":"nonpayable"},{"type":"function","name":"token","inputs":[],"outputs":[{"name":"","type":"address","internalType":"address"}],"stateMutability":"view"},{"type":"function","name":"vestedAmount","inputs":[{"name":"beneficiary","type":"address","internalType":"address"}],"outputs":[{"name":"","type":"uint256","internalType":"uint256"}],"stateMutability":"view"},{"type":"event","name":"TokensClaimed","inputs":[{"name":"beneficiary","type":"address","indexed":true,"internalType":"address"},{"name":"amount","type":"uint256","indexed":false,"internalType":"uint256"}],"anonymous":false},{"type":"event","name":"VestingRevoked","inputs":[{"name":"beneficiary","type":"address","indexed":true,"internalType":"address"},{"name":"unvestedAmount","type":"uint256","indexed":false,"internalType":"uint256"}],"anonymous":false},{"type":"event","name":"VestingScheduleCreated","inputs":[{"name":"beneficiary","type":"address","indexed":true,"internalType":"address"},{"name":"totalAmount","type":"uint256","indexed":false,"internalType":"uint256"},{"name":"startTime","type":"uint256","indexed":false,"internalType":"uint256"},{"name":"cliffDuration","type":"uint256","indexed":false,"internalType":"uint256"},{"name":"vestingDuration","type":"uint256","indexed":false,"internalType":"uint256"},{"name":"revocable","type":"bool","indexed":false,"internalType":"bool"}],"anonymous":false},{"type":"error","name":"AlreadyRevoked","inputs":[]},{"type":"error","name":"CliffNotReached","inputs":[]},{"type":"error","name":"InvalidParameters","inputs":[]},{"type":"error","name":"NoScheduleExists","inputs":[]},{"type":"error","name":"NotAuthorized","inputs":[]},{"type":"error","name":"NotRevocable","inputs":[]},{"type":"error","name":"NothingToClaim","inputs":[]},{"type":"error","name":"ScheduleAlreadyExists","inputs":[]},{"type":"error","name":"ZeroAddress","inputs":[]},{"type":"error","name":"ZeroAmount","inputs":[]}],"bytecode":{"object":"0x60a060405234801561000f575f80fd5b50604051610d11380380610d1183398101604081905261002e916100c1565b6001600160a01b0382166100555760405163d92e233d60e01b815260040160405180910390fd5b6001600160a01b03811661007c5760405163d92e233d60e01b815260040160405180910390fd5b6001600160a01b03918216608052600180546001600160a01b031916919092161781555f556100f2565b80516001600160a01b03811681146100bc575f80fd5b919050565b5f80604083850312156100d2575f80fd5b6100db836100a6565b91506100e9602084016100a6565b90509250929050565b608051610bf96101185f395f8181610186015281816108e60152610a110152610bf95ff3fe608060405234801561000f575f80fd5b5060043610610085575f3560e01c80639f829063116100585780639f829063146100df578063aaad93211461014b578063cd8ea6791461015e578063fc0c546a14610181575f80fd5b8063384711cc146100895780634e71d92d146100af57806374a8f103146100b757806389885049146100cc575b5f80fd5b61009c610097366004610a85565b6101c0565b6040519081526020015b60405180910390f35b61009c610213565b6100ca6100c5366004610a85565b61038c565b005b61009c6100da366004610a85565b6104d4565b6100f26100ed366004610a85565b610539565b6040516100a691905f60e082019050825182526020830151602083015260408301516040830152606083015160608301526080830151608083015260a0830151151560a083015260c0830151151560c083015292915050565b6100ca610159366004610aae565b6105e9565b61017161016c366004610a85565b61080b565b60405190151581526020016100a6565b6101a87f000000000000000000000000000000000000000000000000000000000000000081565b6040516001600160a01b0390911681526020016100a6565b6001600160a01b0381165f908152600260205260408120805482036101e757505f92915050565b6005810154610100900460ff1615610203576001015492915050565b61020c81610850565b9392505050565b5f60025f540361026a5760405162461bcd60e51b815260206004820152601f60248201527f5265656e7472616e637947756172643a207265656e7472616e742063616c6c0060448201526064015b60405180910390fd5b60025f81815533815260209190915260408120805490910361029f5760405163121b962360e31b815260040160405180910390fd5b6005810154610100900460ff16156102ca5760405163905e710760e01b815260040160405180910390fd5b806003015481600201546102de9190610b1a565b4210156102fe5760405163392a328760e01b815260040160405180910390fd5b5f610308336104d4565b9050805f0361032a576040516312d37ee560e31b815260040160405180910390fd5b80826001015f82825461033d9190610b1a565b9091555061034d905033826108c6565b60405181815233907f896e034966eaaf1adc54acc0f257056febbd300c9e47182cf761982cf1f5e4309060200160405180910390a291505060015f5590565b6001546001600160a01b031633146103b75760405163ea8e4eb560e01b815260040160405180910390fd5b6001600160a01b0381165f90815260026020526040812080549091036103f05760405163121b962360e31b815260040160405180910390fd5b600581015460ff1661041557604051639414820d60e01b815260040160405180910390fd5b6005810154610100900460ff16156104405760405163905e710760e01b815260040160405180910390fd5b5f61044a82610850565b90505f81835f015461045c9190610b33565b60058401805461ff0019166101001790559050801561048b5760015461048b906001600160a01b0316826108c6565b836001600160a01b03167f57c76f5e278bfbd4eeb5207d287aa5a1a9e1113c65f7eefa540e379a2774d13b826040516104c691815260200190565b60405180910390a250505050565b6001600160a01b0381165f908152600260205260408120805482036104fb57505f92915050565b6005810154610100900460ff161561051557505f92915050565b5f61051f82610850565b90508160010154816105319190610b33565b949350505050565b6105766040518060e001604052805f81526020015f81526020015f81526020015f81526020015f81526020015f151581526020015f151581525090565b506001600160a01b03165f90815260026020818152604092839020835160e08101855281548152600182015492810192909252918201549281019290925260038101546060830152600481015460808301526005015460ff808216151560a084015261010090910416151560c082015290565b6001546001600160a01b031633146106145760405163ea8e4eb560e01b815260040160405180910390fd5b6001600160a01b03861661063b5760405163d92e233d60e01b815260040160405180910390fd5b845f0361065b57604051631f2a200560e01b815260040160405180910390fd5b815f0361067b57604051630e52390960e41b815260040160405180910390fd5b8183111561069c57604051630e52390960e41b815260040160405180910390fd5b6001600160a01b0386165f90815260026020526040902054156106d25760405163e109c26360e01b815260040160405180910390fd5b6040518060e001604052808681526020015f815260200185815260200184815260200183815260200182151581526020015f151581525060025f886001600160a01b03166001600160a01b031681526020019081526020015f205f820151815f01556020820151816001015560408201518160020155606082015181600301556080820151816004015560a0820151816005015f6101000a81548160ff02191690831515021790555060c08201518160050160016101000a81548160ff0219169083151502179055509050506107a833866109eb565b60408051868152602081018690529081018490526060810183905281151560808201526001600160a01b038716907fe8bb157fbcf731c01df93034e88d616c22e879d6ed11ef45bd93c38312f12a199060a00160405180910390a2505050505050565b6001600160a01b0381165f9081526002602052604081208054820361083257505f92915050565b806003015481600201546108469190610b1a565b4210159392505050565b5f816002015442101561086457505f919050565b816003015482600201546108789190610b1a565b42101561088657505f919050565b5f8260020154426108979190610b33565b9050826004015481106108aa5750505490565b600483015483546108bc908390610b46565b61020c9190610b5d565b6040516001600160a01b038381166024830152604482018390525f9182917f0000000000000000000000000000000000000000000000000000000000000000169060640160408051601f198184030181529181526020820180516001600160e01b031663a9059cbb60e01b1790525161093f9190610b7c565b5f604051808303815f865af19150503d805f8114610978576040519150601f19603f3d011682016040523d82523d5f602084013e61097d565b606091505b50915091508180156109a75750805115806109a75750808060200190518101906109a79190610ba8565b6109e55760405162461bcd60e51b815260206004820152600f60248201526e151c985b9cd9995c8819985a5b1959608a1b6044820152606401610261565b50505050565b6040516001600160a01b038381166024830152306044830152606482018390525f9182917f0000000000000000000000000000000000000000000000000000000000000000169060840160408051601f198184030181529181526020820180516001600160e01b03166323b872dd60e01b1790525161093f9190610b7c565b80356001600160a01b0381168114610a80575f80fd5b919050565b5f60208284031215610a95575f80fd5b61020c82610a6a565b8015158114610aab575f80fd5b50565b5f805f805f8060c08789031215610ac3575f80fd5b610acc87610a6a565b95506020870135945060408701359350606087013592506080870135915060a0870135610af881610a9e565b809150509295509295509295565b634e487b7160e01b5f52601160045260245ffd5b80820180821115610b2d57610b2d610b06565b92915050565b81810381811115610b2d57610b2d610b06565b8082028115828204841417610b2d57610b2d610b06565b5f82610b7757634e487b7160e01b5f52601260045260245ffd5b500490565b5f82515f5b81811015610b9b5760208186018101518583015201610b81565b505f920191825250919050565b5f60208284031215610bb8575f80fd5b815161020c81610a9e56fea26469706673582212202c93c4965d00546a9e5ca3f647578ddf3a75d6bd073200d935706ecbf7f2dc8664736f6c63430008180033","linkReferences":{}},"methodIdentifiers":{"claim()":"4e71d92d","claimableAmount(address)":"89885049","createVestingSchedule(address,uint256,uint256,uint256,uint256,bool)":"aaad9321","getVestingSchedule(address)":"9f829063","hasCliffPassed(address)":"cd8ea679","revoke(address)":"74a8f103","token()":"fc0c546a","vestedAmount(address)":"384711cc"},"id":78}