{"abi":[{"type":"constructor","inputs":[{"name":"qsToken_","type":"address","internalType":"address"}],"stateMutability":"nonpayable"},{"type":"function","name":"MAX_LOCK_TIME","inputs":[],"outputs":[{"name":"","type":"uint256","internalType":"uint256"}],"stateMutability":"view"},{"type":"function","name":"MIN_LOCK_TIME","inputs":[],"outputs":[{"name":"","type":"uint256","internalType":"uint256"}],"stateMutability":"view"},{"type":"function","name":"delegate","inputs":[{"name":"delegatee","type":"address","internalType":"address"}],"outputs":[],"stateMutability":"nonpayable"},{"type":"function","name":"extendLockTime","inputs":[{"name":"newUnlockTime","type":"uint256","internalType":"uint256"}],"outputs":[],"stateMutability":"nonpayable"},{"type":"function","name":"getDelegate","inputs":[{"name":"user","type":"address","internalType":"address"}],"outputs":[{"name":"","type":"address","internalType":"address"}],"stateMutability":"view"},{"type":"function","name":"getEffectiveVotingPower","inputs":[{"name":"user","type":"address","internalType":"address"}],"outputs":[{"name":"","type":"uint256","internalType":"uint256"}],"stateMutability":"view"},{"type":"function","name":"getLockPosition","inputs":[{"name":"user","type":"address","internalType":"address"}],"outputs":[{"name":"","type":"tuple","internalType":"struct IveQS.LockPosition","components":[{"name":"amount","type":"uint256","internalType":"uint256"},{"name":"unlockTime","type":"uint256","internalType":"uint256"},{"name":"startTime","type":"uint256","internalType":"uint256"}]}],"stateMutability":"view"},{"type":"function","name":"getTotalVotingPower","inputs":[],"outputs":[{"name":"","type":"uint256","internalType":"uint256"}],"stateMutability":"view"},{"type":"function","name":"getVotingPower","inputs":[{"name":"user","type":"address","internalType":"address"}],"outputs":[{"name":"","type":"uint256","internalType":"uint256"}],"stateMutability":"view"},{"type":"function","name":"getVotingPowerAt","inputs":[{"name":"user","type":"address","internalType":"address"},{"name":"timestamp","type":"uint256","internalType":"uint256"}],"outputs":[{"name":"","type":"uint256","internalType":"uint256"}],"stateMutability":"view"},{"type":"function","name":"hasLock","inputs":[{"name":"user","type":"address","internalType":"address"}],"outputs":[{"name":"","type":"bool","internalType":"bool"}],"stateMutability":"view"},{"type":"function","name":"increaseLockAmount","inputs":[{"name":"amount","type":"uint256","internalType":"uint256"}],"outputs":[],"stateMutability":"nonpayable"},{"type":"function","name":"lock","inputs":[{"name":"amount","type":"uint256","internalType":"uint256"},{"name":"lockDuration","type":"uint256","internalType":"uint256"}],"outputs":[],"stateMutability":"nonpayable"},{"type":"function","name":"qsToken","inputs":[],"outputs":[{"name":"","type":"address","internalType":"address"}],"stateMutability":"view"},{"type":"function","name":"revokeDelegate","inputs":[],"outputs":[],"stateMutability":"nonpayable"},{"type":"function","name":"withdraw","inputs":[],"outputs":[],"stateMutability":"nonpayable"},{"type":"event","name":"Delegated","inputs":[{"name":"delegator","type":"address","indexed":true,"internalType":"address"},{"name":"delegatee","type":"address","indexed":true,"internalType":"address"}],"anonymous":false},{"type":"event","name":"DelegationRevoked","inputs":[{"name":"delegator","type":"address","indexed":true,"internalType":"address"},{"name":"previousDelegatee","type":"address","indexed":true,"internalType":"address"}],"anonymous":false},{"type":"event","name":"LockExtended","inputs":[{"name":"user","type":"address","indexed":true,"internalType":"address"},{"name":"newUnlockTime","type":"uint256","indexed":false,"internalType":"uint256"},{"name":"newVotingPower","type":"uint256","indexed":false,"internalType":"uint256"}],"anonymous":false},{"type":"event","name":"LockIncreased","inputs":[{"name":"user","type":"address","indexed":true,"internalType":"address"},{"name":"addedAmount","type":"uint256","indexed":false,"internalType":"uint256"},{"name":"totalAmount","type":"uint256","indexed":false,"internalType":"uint256"},{"name":"newVotingPower","type":"uint256","indexed":false,"internalType":"uint256"}],"anonymous":false},{"type":"event","name":"Locked","inputs":[{"name":"user","type":"address","indexed":true,"internalType":"address"},{"name":"amount","type":"uint256","indexed":false,"internalType":"uint256"},{"name":"unlockTime","type":"uint256","indexed":false,"internalType":"uint256"},{"name":"votingPower","type":"uint256","indexed":false,"internalType":"uint256"}],"anonymous":false},{"type":"event","name":"Withdrawn","inputs":[{"name":"user","type":"address","indexed":true,"internalType":"address"},{"name":"amount","type":"uint256","indexed":false,"internalType":"uint256"}],"anonymous":false},{"type":"error","name":"CannotDelegateToSelf","inputs":[]},{"type":"error","name":"CannotDelegateToZero","inputs":[]},{"type":"error","name":"CannotReduceLockTime","inputs":[]},{"type":"error","name":"LockAlreadyExists","inputs":[]},{"type":"error","name":"LockNotExpired","inputs":[]},{"type":"error","name":"LockTimeTooLong","inputs":[]},{"type":"error","name":"LockTimeTooShort","inputs":[]},{"type":"error","name":"NoLockExists","inputs":[]},{"type":"error","name":"ZeroAmount","inputs":[]}],"bytecode":{"object":"0x60a060405234801561000f575f80fd5b5060405161112838038061112883398101604081905261002e91610094565b6001600160a01b03811661007b5760405162461bcd60e51b815260206004820152601060248201526f24b73b30b634b21028a9903a37b5b2b760811b604482015260640160405180910390fd5b6001600160a01b03166080524260065560015f556100c1565b5f602082840312156100a4575f80fd5b81516001600160a01b03811681146100ba575f80fd5b9392505050565b6080516110416100e75f395f818161021201528181610a590152610d9701526110415ff3fe608060405234801561000f575f80fd5b50600436106100fb575f3560e01c80636a292c0311610093578063c5ebfa9a11610063578063c5ebfa9a1461020d578063d2e01b2f14610234578063eaeded5f14610269578063fa78668f1461027c575f80fd5b80636a292c031461019a578063828047a5146101ad5780639ac45f59146101c0578063bb4d4436146101fa575f80fd5b8063403f4447116100ce578063403f444714610141578063544d85641461015457806355d1ef381461017f5780635c19a95c14610187575f80fd5b806311acc1a7146100ff5780631338736f1461011a5780633ccfd60b1461012f5780633ff0320714610137575b5f80fd5b610107610287565b6040519081526020015b60405180910390f35b61012d610128366004610e5e565b610296565b005b61012d610427565b61010762093a8081565b61012d61014f366004610e7e565b610599565b610167610162366004610eb0565b61069a565b6040516001600160a01b039091168152602001610111565b61012d6106cb565b61012d610195366004610eb0565b610745565b6101076101a8366004610eb0565b610882565b61012d6101bb366004610e7e565b6108cf565b6101ea6101ce366004610eb0565b6001600160a01b03165f90815260016020526040902054151590565b6040519015158152602001610111565b610107610208366004610eb0565b6109a6565b6101677f000000000000000000000000000000000000000000000000000000000000000081565b610247610242366004610eb0565b6109b7565b6040805182518152602080840151908201529181015190820152606001610111565b610107610277366004610ec9565b610a18565b610107630784ce0081565b5f61029142610a23565b905090565b60025f54036102c05760405162461bcd60e51b81526004016102b790610ef1565b60405180910390fd5b60025f9081558290036102e657604051631f2a200560e01b815260040160405180910390fd5b62093a8081101561030a57604051636badcecf60e01b815260040160405180910390fd5b630784ce0081111561032f57604051635b30744d60e11b815260040160405180910390fd5b335f908152600160205260409020541561035c5760405163748d150960e01b815260040160405180910390fd5b5f6103678242610f3c565b60408051606081018252858152602080820184815242838501908152335f90815260019384905294852093518455905191830191909155516002909101556005805492935085929091906103bc908490610f3c565b909155506103cc90503384610a33565b5f6103d73342610b5e565b604080518681526020810185905290810182905290915033907f44cebfefa4561bee5b61d675ccfd8dc9969fff9cc15e7a4eccccd62af94f9c119060600160405180910390a2505060015f555050565b60025f54036104485760405162461bcd60e51b81526004016102b790610ef1565b60025f908155338152600160205260408120805490910361047c57604051633fe8d46160e01b815260040160405180910390fd5b80600101544210156104a15760405163342ad40160e11b815260040160405180910390fd5b8054335f908152600260205260409020546001600160a01b03168015610519576104cb8133610be6565b335f8181526002602052604080822080546001600160a01b0319169055516001600160a01b03841692917f6f0412fa95f7f48ec7dc7631b382833d8eae9cf4082e5e859b94d091a4a846d491a35b335f90815260016020819052604082208281559081018290556002018190556005805484929061054a908490610f4f565b9091555061055a90503383610d77565b60405182815233907f7084f5476618d8e60b11ef0d7d3f06914655adb8793e28ff7f018d4c76d505d5906020015b60405180910390a2505060015f5550565b60025f54036105ba5760405162461bcd60e51b81526004016102b790610ef1565b60025f9081558190036105e057604051631f2a200560e01b815260040160405180910390fd5b335f908152600160205260408120805490910361061057604051633fe8d46160e01b815260040160405180910390fd5b81815f015f8282546106229190610f3c565b925050819055508160055f82825461063a9190610f3c565b9091555061064a90503383610a33565b5f6106553342610b5e565b8254604080518681526020810192909252810182905290915033907fd60c036b8c5e629bddc29fb36b954faab6aa2f176ab97664ca37318bf84f8cbb90606001610588565b6001600160a01b038082165f9081526002602052604081205490911680156106c257806106c4565b825b9392505050565b335f908152600260205260409020546001600160a01b0316806106eb5750565b6106f58133610be6565b335f8181526002602052604080822080546001600160a01b0319169055516001600160a01b03841692917f6f0412fa95f7f48ec7dc7631b382833d8eae9cf4082e5e859b94d091a4a846d491a350565b6001600160a01b03811661076c57604051630a47fc2360e01b815260040160405180910390fd5b336001600160a01b0382160361079557604051633be64e5b60e21b815260040160405180910390fd5b335f90815260016020526040812080549091036107c557604051633fe8d46160e01b815260040160405180910390fd5b335f908152600260205260409020546001600160a01b031680156107ed576107ed8133610be6565b335f81815260026020908152604080832080546001600160a01b0389166001600160a01b031991821681179092558185526003845282852080546001810182558187528587200180549092168717909155818552546004845282852086865290935281842092909255519092917f4bc154dd35d6a5cb9206482ecb473cdbf2473006d6bce728b9cc0741bcc59ea291a3505050565b6001600160a01b038181165f9081526002602052604081205490918291166108b1576108ae8342610b5e565b90505b5f6108bb84610df0565b90506108c78183610f3c565b949350505050565b335f90815260016020526040812080549091036108ff57604051633fe8d46160e01b815260040160405180910390fd5b8060010154821161092357604051630274a48960e61b815260040160405180910390fd5b610931630784ce0042610f3c565b82111561095157604051635b30744d60e11b815260040160405180910390fd5b600181018290555f6109633342610b5e565b604080518581526020810183905291925033917f050932e79e5bc73d7c0e6856f9b80ae760803919f72fdb530c47608b3c2ffbd8910160405180910390a2505050565b5f6109b18242610b5e565b92915050565b6109d860405180606001604052805f81526020015f81526020015f81525090565b506001600160a01b03165f908152600160208181526040928390208351606081018552815481529281015491830191909152600201549181019190915290565b5f6106c48383610b5e565b5f60026005546109b19190610f62565b6040516001600160a01b038381166024830152306044830152606482018390525f9182917f0000000000000000000000000000000000000000000000000000000000000000169060840160408051601f198184030181529181526020820180516001600160e01b03166323b872dd60e01b17905251610ab29190610f81565b5f604051808303815f865af19150503d805f8114610aeb576040519150601f19603f3d011682016040523d82523d5f602084013e610af0565b606091505b5091509150818015610b1a575080511580610b1a575080806020019051810190610b1a9190610fad565b610b585760405162461bcd60e51b815260206004820152600f60248201526e151c985b9cd9995c8819985a5b1959608a1b60448201526064016102b7565b50505050565b6001600160a01b0382165f90815260016020526040812080548203610b86575f9150506109b1565b80600101548310610b9a575f9150506109b1565b5f838260010154610bab9190610f4f565b9050630784ce00811115610bc05750630784ce005b8154630784ce0090610bd3908390610fcc565b610bdd9190610f62565b95945050505050565b6001600160a01b038083165f90815260046020908152604080832093851683529290529081205490819003610c1a57505050565b5f610c26600183610f4f565b6001600160a01b0385165f9081526003602052604081205491925090610c4e90600190610f4f565b9050808214610d04576001600160a01b0385165f908152600360205260408120805483908110610c8057610c80610fe3565b5f9182526020808320909101546001600160a01b03898116845260039092526040909220805491909216925082919085908110610cbf57610cbf610fe3565b5f91825260208083209190910180546001600160a01b0319166001600160a01b0394851617905588831682526004815260408083209490931682529290925290208390555b6001600160a01b0385165f908152600360205260409020805480610d2a57610d2a610ff7565b5f828152602080822083015f1990810180546001600160a01b03191690559092019092556001600160a01b0396871682526004815260408083209690971682529490945250505090812055565b6040516001600160a01b038381166024830152604482018390525f9182917f0000000000000000000000000000000000000000000000000000000000000000169060640160408051601f198184030181529181526020820180516001600160e01b031663a9059cbb60e01b17905251610ab29190610f81565b6001600160a01b0381165f90815260036020526040812081805b8254811015610e5657610e42838281548110610e2857610e28610fe3565b5f918252602090912001546001600160a01b031642610b5e565b610e4c9083610f3c565b9150600101610e0a565b509392505050565b5f8060408385031215610e6f575f80fd5b50508035926020909101359150565b5f60208284031215610e8e575f80fd5b5035919050565b80356001600160a01b0381168114610eab575f80fd5b919050565b5f60208284031215610ec0575f80fd5b6106c482610e95565b5f8060408385031215610eda575f80fd5b610ee383610e95565b946020939093013593505050565b6020808252601f908201527f5265656e7472616e637947756172643a207265656e7472616e742063616c6c00604082015260600190565b634e487b7160e01b5f52601160045260245ffd5b808201808211156109b1576109b1610f28565b818103818111156109b1576109b1610f28565b5f82610f7c57634e487b7160e01b5f52601260045260245ffd5b500490565b5f82515f5b81811015610fa05760208186018101518583015201610f86565b505f920191825250919050565b5f60208284031215610fbd575f80fd5b815180151581146106c4575f80fd5b80820281158282048414176109b1576109b1610f28565b634e487b7160e01b5f52603260045260245ffd5b634e487b7160e01b5f52603160045260245ffdfea264697066735822122070ced29f9b6a487c73073eecdc3ee6c480d9dbbfc4297acdf23f9222319ee36c64736f6c63430008180033","linkReferences":{}},"methodIdentifiers":{"MAX_LOCK_TIME()":"fa78668f","MIN_LOCK_TIME()":"3ff03207","delegate(address)":"5c19a95c","extendLockTime(uint256)":"828047a5","getDelegate(address)":"544d8564","getEffectiveVotingPower(address)":"6a292c03","getLockPosition(address)":"d2e01b2f","getTotalVotingPower()":"11acc1a7","getVotingPower(address)":"bb4d4436","getVotingPowerAt(address,uint256)":"eaeded5f","hasLock(address)":"9ac45f59","increaseLockAmount(uint256)":"403f4447","lock(uint256,uint256)":"1338736f","qsToken()":"c5ebfa9a","revokeDelegate()":"55d1ef38","withdraw()":"3ccfd60b"},"id":80}