{"abi":[{"type":"constructor","inputs":[{"name":"qsToken_","type":"address","internalType":"address"}],"stateMutability":"nonpayable"},{"type":"function","name":"MAX_LOCK_TIME","inputs":[],"outputs":[{"name":"","type":"uint256","internalType":"uint256"}],"stateMutability":"view"},{"type":"function","name":"MIN_LOCK_TIME","inputs":[],"outputs":[{"name":"","type":"uint256","internalType":"uint256"}],"stateMutability":"view"},{"type":"function","name":"delegate","inputs":[{"name":"delegatee","type":"address","internalType":"address"}],"outputs":[],"stateMutability":"nonpayable"},{"type":"function","name":"extendLockTime","inputs":[{"name":"newUnlockTime","type":"uint256","internalType":"uint256"}],"outputs":[],"stateMutability":"nonpayable"},{"type":"function","name":"getDelegate","inputs":[{"name":"user","type":"address","internalType":"address"}],"outputs":[{"name":"","type":"address","internalType":"address"}],"stateMutability":"view"},{"type":"function","name":"getEffectiveVotingPower","inputs":[{"name":"user","type":"address","internalType":"address"}],"outputs":[{"name":"","type":"uint256","internalType":"uint256"}],"stateMutability":"view"},{"type":"function","name":"getLockPosition","inputs":[{"name":"user","type":"address","internalType":"address"}],"outputs":[{"name":"","type":"tuple","internalType":"struct IveQS.LockPosition","components":[{"name":"amount","type":"uint256","internalType":"uint256"},{"name":"unlockTime","type":"uint256","internalType":"uint256"},{"name":"startTime","type":"uint256","internalType":"uint256"}]}],"stateMutability":"view"},{"type":"function","name":"getTotalVotingPower","inputs":[],"outputs":[{"name":"","type":"uint256","internalType":"uint256"}],"stateMutability":"view"},{"type":"function","name":"getVotingPower","inputs":[{"name":"user","type":"address","internalType":"address"}],"outputs":[{"name":"","type":"uint256","internalType":"uint256"}],"stateMutability":"view"},{"type":"function","name":"getVotingPowerAt","inputs":[{"name":"user","type":"address","internalType":"address"},{"name":"timestamp","type":"uint256","internalType":"uint256"}],"outputs":[{"name":"","type":"uint256","internalType":"uint256"}],"stateMutability":"view"},{"type":"function","name":"hasLock","inputs":[{"name":"user","type":"address","internalType":"address"}],"outputs":[{"name":"","type":"bool","internalType":"bool"}],"stateMutability":"view"},{"type":"function","name":"increaseLockAmount","inputs":[{"name":"amount","type":"uint256","internalType":"uint256"}],"outputs":[],"stateMutability":"nonpayable"},{"type":"function","name":"lock","inputs":[{"name":"amount","type":"uint256","internalType":"uint256"},{"name":"lockDuration","type":"uint256","internalType":"uint256"}],"outputs":[],"stateMutability":"nonpayable"},{"type":"function","name":"qsToken","inputs":[],"outputs":[{"name":"","type":"address","internalType":"address"}],"stateMutability":"view"},{"type":"function","name":"revokeDelegate","inputs":[],"outputs":[],"stateMutability":"nonpayable"},{"type":"function","name":"withdraw","inputs":[],"outputs":[],"stateMutability":"nonpayable"},{"type":"event","name":"Delegated","inputs":[{"name":"delegator","type":"address","indexed":true,"internalType":"address"},{"name":"delegatee","type":"address","indexed":true,"internalType":"address"}],"anonymous":false},{"type":"event","name":"DelegationRevoked","inputs":[{"name":"delegator","type":"address","indexed":true,"internalType":"address"},{"name":"previousDelegatee","type":"address","indexed":true,"internalType":"address"}],"anonymous":false},{"type":"event","name":"LockExtended","inputs":[{"name":"user","type":"address","indexed":true,"internalType":"address"},{"name":"newUnlockTime","type":"uint256","indexed":false,"internalType":"uint256"},{"name":"newVotingPower","type":"uint256","indexed":false,"internalType":"uint256"}],"anonymous":false},{"type":"event","name":"LockIncreased","inputs":[{"name":"user","type":"address","indexed":true,"internalType":"address"},{"name":"addedAmount","type":"uint256","indexed":false,"internalType":"uint256"},{"name":"totalAmount","type":"uint256","indexed":false,"internalType":"uint256"},{"name":"newVotingPower","type":"uint256","indexed":false,"internalType":"uint256"}],"anonymous":false},{"type":"event","name":"Locked","inputs":[{"name":"user","type":"address","indexed":true,"internalType":"address"},{"name":"amount","type":"uint256","indexed":false,"internalType":"uint256"},{"name":"unlockTime","type":"uint256","indexed":false,"internalType":"uint256"},{"name":"votingPower","type":"uint256","indexed":false,"internalType":"uint256"}],"anonymous":false},{"type":"event","name":"Withdrawn","inputs":[{"name":"user","type":"address","indexed":true,"internalType":"address"},{"name":"amount","type":"uint256","indexed":false,"internalType":"uint256"}],"anonymous":false},{"type":"error","name":"CannotDelegateToSelf","inputs":[]},{"type":"error","name":"CannotDelegateToZero","inputs":[]},{"type":"error","name":"CannotReduceLockTime","inputs":[]},{"type":"error","name":"LockAlreadyExists","inputs":[]},{"type":"error","name":"LockNotExpired","inputs":[]},{"type":"error","name":"LockTimeTooLong","inputs":[]},{"type":"error","name":"LockTimeTooShort","inputs":[]},{"type":"error","name":"NoLockExists","inputs":[]},{"type":"error","name":"ZeroAmount","inputs":[]}],"bytecode":{"object":"0x60a0346100be57601f610d9038819003918201601f19168301916001600160401b038311848410176100c2578084926020946040528339810103126100be57516001600160a01b0381168082036100be5715610086576080524260055560015f55604051610cb990816100d782396080518181816101b6015281816106ee0152610b7d0152f35b60405162461bcd60e51b815260206004820152601060248201526f24b73b30b634b21028a9903a37b5b2b760811b6044820152606490fd5b5f80fd5b634e487b7160e01b5f52604160045260245ffdfe6080604090808252600480361015610015575f80fd5b5f3560e01c91826311acc1a7146108f2575081631338736f146107bb5781633ccfd60b146105f95781633ff03207146105dc578163403f4447146104f7578163544d8564146104a757816355d1ef381461048d5781635c19a95c1461037a5781636a292c0314610313578163828047a514610245575080639ac45f591461020c578063bb4d4436146101e5578063c5ebfa9a146101a2578063d2e01b2f14610120578063eaeded5f146100f15763fa78668f146100d0575f80fd5b346100ed575f3660031901126100ed5760209051630784ce008152f35b5f80fd5b50346100ed57806003193601126100ed5760209061011961011061093c565b60243590610be2565b9051908152f35b50346100ed5760203660031901126100ed5760609061013d61093c565b5f82805161014a816109bf565b828152826020820152015260018060a01b03165f526001602052805f20908051610173816109bf565b825492838252826002600183015492602085019384520154920191825282519384525160208401525190820152f35b50346100ed575f3660031901126100ed57517f00000000000000000000000000000000000000000000000000000000000000006001600160a01b03168152602090f35b50346100ed5760203660031901126100ed5760209061011961020561093c565b4290610be2565b50346100ed5760203660031901126100ed576020906001600160a01b0361023161093c565b165f5260018252805f205415159051908152f35b82346100ed5760203660031901126100ed57813591335f526001602052815f20805415610304576001019081548411156102f657630784ce0042018042116102e35784116102d5575090827f050932e79e5bc73d7c0e6856f9b80ae760803919f72fdb530c47608b3c2ffbd892556102bc33610c44565b6102c64233610be2565b815193845260208401523392a2005b8251635b30744d60e11b8152fd5b601182634e487b7160e01b5f525260245ffd5b8251630274a48960e61b8152fd5b509051633fe8d46160e01b8152fd5b82346100ed5760203660031901126100ed5760209061011961033361093c565b6001600160a01b038082165f8181526002875285812054909391921615610366575b505f5260038452825f20549061099e565b6103739192504290610be2565b9085610355565b82346100ed57602090816003193601126100ed576001600160a01b038061039f61093c565b1693841561047f5733851461047157335f5260018452825f20541561046357509061041391335f5260028452815f2054168061043c575b50335f5260028352805f20846bffffffffffffffffffffffff60a01b82541617905560036104044233610be2565b93855f52525f2091825461099e565b9055337f4bc154dd35d6a5cb9206482ecb473cdbf2473006d6bce728b9cc0741bcc59ea25f80a3005b6104464233610be2565b905f526003845261045b825f209182546109ef565b9055846103d6565b8251633fe8d46160e01b8152fd5b8251633be64e5b60e21b8152fd5b8251630a47fc2360e01b8152fd5b346100ed575f3660031901126100ed576104a56109fc565b005b82346100ed5760203660031901126100ed576020906104c461093c565b6001600160a01b038181165f90815260028552839020549091908216806104ef5750915b5191168152f35b9050916104e8565b82346100ed5760203660031901126100ed5781359061051a60025f541415610952565b60025f5581156105cd57335f526001602052805f2090815480156105bd5793610565847fd60c036b8c5e629bddc29fb36b954faab6aa2f176ab97664ca37318bf84f8cbb959661099e565b835561057285825461099e565b905561057e8433610b22565b61058733610c44565b6105b46105944233610be2565b925491519283923396846040919493926060820195825260208201520152565b0390a260015f55005b8151633fe8d46160e01b81528590fd5b51631f2a200560e01b81529050fd5b82346100ed575f3660031901126100ed576020905162093a808152f35b82346100ed575f3660031901126100ed5761061860025f541415610952565b60025f55335f52602060018152815f209182549283156105bd576001015442106107ac57335f52600182525f6002828220828155826001820155015561065f8385546109ef565b8455335f9081526002835281902080546001600160a01b038116919082610773575b50505080518281019463a9059cbb60e01b865233602483015284604483015260448252608082019082821067ffffffffffffffff83111761076057505f7f7084f5476618d8e60b11ef0d7d3f06914655adb8793e28ff7f018d4c76d505d5959661072393829386525190827f00000000000000000000000000000000000000000000000000000000000000005af1610717610a82565b81610730575b50610ae4565b519283523392a260015f55005b80518015925085908315610748575b5050508661071d565b6107589350820181019101610acc565b86848161073f565b604190634e487b7160e01b5f525260245ffd5b6001600160a01b0319169055337f6f0412fa95f7f48ec7dc7631b382833d8eae9cf4082e5e859b94d091a4a846d45f80a3848080610681565b5163342ad40160e11b81528390fd5b82346100ed57806003193601126100ed578135916024356107e060025f541415610952565b60025f5583156108e35762093a8081106108d457630784ce0081116108c557335f526001602052825f20546108b6579061083c7f44cebfefa4561bee5b61d675ccfd8dc9969fff9cc15e7a4eccccd62af94f9c1193924261099e565b908251610848816109bf565b85815260026020820184815285830190428252335f526001602052865f20935184555160018401555191015561087f85825461099e565b905561088b8433610b22565b6105b46108984233610be2565b92519283923396846040919493926060820195825260208201520152565b50905163748d150960e01b8152fd5b509051635b30744d60e11b8152fd5b509051636badcecf60e01b8152fd5b509051631f2a200560e01b8152fd5b346100ed575f3660031901126100ed57815491630784ce00928381029381850414901517156109295750630f099c00602092048152f35b601190634e487b7160e01b5f525260245ffd5b600435906001600160a01b03821682036100ed57565b1561095957565b60405162461bcd60e51b815260206004820152601f60248201527f5265656e7472616e637947756172643a207265656e7472616e742063616c6c006044820152606490fd5b919082018092116109ab57565b634e487b7160e01b5f52601160045260245ffd5b6060810190811067ffffffffffffffff8211176109db57604052565b634e487b7160e01b5f52604160045260245ffd5b919082039182116109ab57565b335f908152600260205260409020546001600160a01b03168015610a7f57610a244233610be2565b815f526003602052610a3b60405f209182546109ef565b9055335f81815260026020526040812080546001600160a01b03191690557f6f0412fa95f7f48ec7dc7631b382833d8eae9cf4082e5e859b94d091a4a846d49080a3565b50565b3d15610ac75767ffffffffffffffff903d8281116109db5760405192601f8201601f19908116603f01168401908111848210176109db5760405282523d5f602084013e565b606090565b908160209103126100ed575180151581036100ed5790565b15610aeb57565b60405162461bcd60e51b815260206004820152600f60248201526e151c985b9cd9995c8819985a5b1959608a1b6044820152606490fd5b6040516323b872dd60e01b602082019081526001600160a01b0390921660248201523060448201526064808201939093529182529060a0810167ffffffffffffffff8111828210176109db5760405251610bb1915f918291827f00000000000000000000000000000000000000000000000000000000000000005af1610ba6610a82565b81610bb35750610ae4565b565b8051801592508215610bc8575b50505f61071d565b610bdb9250602080918301019101610acc565b5f80610bc0565b6001600160a01b03165f908152600160205260409020805491908215610c3d57600101549081811015610c3d57610c18916109ef565b90630784ce0091828111610c36575b808202918204036109ab570490565b5081610c27565b5050505f90565b6001600160a01b038181165f9081526002602052604090205416908115610c7f57610c70904290610be2565b905f52600360205260405f2055565b505056fea26469706673582212208db72b26f9add7fe496f2a93127082d851762d77f0e5cfd1f0d3b37bacae3a0464736f6c63430008180033","linkReferences":{}},"methodIdentifiers":{"MAX_LOCK_TIME()":"fa78668f","MIN_LOCK_TIME()":"3ff03207","delegate(address)":"5c19a95c","extendLockTime(uint256)":"828047a5","getDelegate(address)":"544d8564","getEffectiveVotingPower(address)":"6a292c03","getLockPosition(address)":"d2e01b2f","getTotalVotingPower()":"11acc1a7","getVotingPower(address)":"bb4d4436","getVotingPowerAt(address,uint256)":"eaeded5f","hasLock(address)":"9ac45f59","increaseLockAmount(uint256)":"403f4447","lock(uint256,uint256)":"1338736f","qsToken()":"c5ebfa9a","revokeDelegate()":"55d1ef38","withdraw()":"3ccfd60b"},"id":52}