{"abi":[{"type":"constructor","inputs":[{"name":"_l1Vault","type":"address","internalType":"address"}],"stateMutability":"nonpayable"},{"type":"function","name":"CALLBACK_GAS_LIMIT","inputs":[],"outputs":[{"name":"","type":"uint256","internalType":"uint256"}],"stateMutability":"view"},{"type":"function","name":"NUM_WORDS","inputs":[],"outputs":[{"name":"","type":"uint32","internalType":"uint32"}],"stateMutability":"view"},{"type":"function","name":"REQUEST_CONFIRMATIONS","inputs":[],"outputs":[{"name":"","type":"uint16","internalType":"uint16"}],"stateMutability":"view"},{"type":"function","name":"VRF_TIMEOUT","inputs":[],"outputs":[{"name":"","type":"uint256","internalType":"uint256"}],"stateMutability":"view"},{"type":"function","name":"addProver","inputs":[{"name":"prover","type":"address","internalType":"address"},{"name":"stake","type":"uint256","internalType":"uint256"}],"outputs":[],"stateMutability":"nonpayable"},{"type":"function","name":"checkTimeout","inputs":[{"name":"unlockRequestId","type":"bytes32","internalType":"bytes32"}],"outputs":[{"name":"isTimedOut","type":"bool","internalType":"bool"},{"name":"timeRemaining","type":"uint256","internalType":"uint256"}],"stateMutability":"view"},{"type":"function","name":"getAllProvers","inputs":[],"outputs":[{"name":"","type":"tuple[]","internalType":"struct ProverSelector.ProverInfo[]","components":[{"name":"prover","type":"address","internalType":"address"},{"name":"stake","type":"uint256","internalType":"uint256"},{"name":"active","type":"bool","internalType":"bool"}]}],"stateMutability":"view"},{"type":"function","name":"getProverByIndex","inputs":[{"name":"index","type":"uint256","internalType":"uint256"}],"outputs":[{"name":"","type":"tuple","internalType":"struct ProverSelector.ProverInfo","components":[{"name":"prover","type":"address","internalType":"address"},{"name":"stake","type":"uint256","internalType":"uint256"},{"name":"active","type":"bool","internalType":"bool"}]}],"stateMutability":"view"},{"type":"function","name":"getProverPoolLength","inputs":[],"outputs":[{"name":"","type":"uint256","internalType":"uint256"}],"stateMutability":"view"},{"type":"function","name":"getSelectedProver","inputs":[{"name":"unlockRequestId","type":"bytes32","internalType":"bytes32"}],"outputs":[{"name":"prover","type":"address","internalType":"address"},{"name":"randomValue","type":"uint256","internalType":"uint256"}],"stateMutability":"view"},{"type":"function","name":"getVRFRequest","inputs":[{"name":"requestId","type":"uint256","internalType":"uint256"}],"outputs":[{"name":"","type":"tuple","internalType":"struct VRFConsumer.VRFRequest","components":[{"name":"unlockRequestId","type":"bytes32","internalType":"bytes32"},{"name":"requestedAt","type":"uint256","internalType":"uint256"},{"name":"randomValue","type":"uint256","internalType":"uint256"},{"name":"selectedProver","type":"address","internalType":"address"},{"name":"fulfilled","type":"bool","internalType":"bool"}]}],"stateMutability":"view"},{"type":"function","name":"isProverSelected","inputs":[{"name":"unlockRequestId","type":"bytes32","internalType":"bytes32"}],"outputs":[{"name":"ready","type":"bool","internalType":"bool"}],"stateMutability":"view"},{"type":"function","name":"keyHash","inputs":[],"outputs":[{"name":"","type":"bytes32","internalType":"bytes32"}],"stateMutability":"view"},{"type":"function","name":"l1Vault","inputs":[],"outputs":[{"name":"","type":"address","internalType":"address"}],"stateMutability":"view"},{"type":"function","name":"mockFulfillRandomWords","inputs":[{"name":"requestId","type":"uint256","internalType":"uint256"},{"name":"randomValue","type":"uint256","internalType":"uint256"}],"outputs":[],"stateMutability":"nonpayable"},{"type":"function","name":"owner","inputs":[],"outputs":[{"name":"","type":"address","internalType":"address"}],"stateMutability":"view"},{"type":"function","name":"proverPool","inputs":[{"name":"","type":"uint256","internalType":"uint256"}],"outputs":[{"name":"prover","type":"address","internalType":"address"},{"name":"stake","type":"uint256","internalType":"uint256"},{"name":"active","type":"bool","internalType":"bool"}],"stateMutability":"view"},{"type":"function","name":"rawFulfillRandomWords","inputs":[{"name":"requestId","type":"uint256","internalType":"uint256"},{"name":"randomWords","type":"uint256[]","internalType":"uint256[]"}],"outputs":[],"stateMutability":"nonpayable"},{"type":"function","name":"removeProver","inputs":[{"name":"prover","type":"address","internalType":"address"}],"outputs":[],"stateMutability":"nonpayable"},{"type":"function","name":"requestProverSelection","inputs":[{"name":"unlockRequestId","type":"bytes32","internalType":"bytes32"}],"outputs":[{"name":"requestId","type":"uint256","internalType":"uint256"}],"stateMutability":"nonpayable"},{"type":"function","name":"setL1Vault","inputs":[{"name":"newL1Vault","type":"address","internalType":"address"}],"outputs":[],"stateMutability":"nonpayable"},{"type":"function","name":"setVRFConfig","inputs":[{"name":"_coordinator","type":"address","internalType":"address"},{"name":"_keyHash","type":"bytes32","internalType":"bytes32"},{"name":"_subscriptionId","type":"uint64","internalType":"uint64"}],"outputs":[],"stateMutability":"nonpayable"},{"type":"function","name":"subscriptionId","inputs":[],"outputs":[{"name":"","type":"uint64","internalType":"uint64"}],"stateMutability":"view"},{"type":"function","name":"transferOwnership","inputs":[{"name":"newOwner","type":"address","internalType":"address"}],"outputs":[],"stateMutability":"nonpayable"},{"type":"function","name":"triggerFallback","inputs":[{"name":"unlockRequestId","type":"bytes32","internalType":"bytes32"}],"outputs":[{"name":"prover","type":"address","internalType":"address"}],"stateMutability":"nonpayable"},{"type":"function","name":"unlockToVRFRequest","inputs":[{"name":"","type":"bytes32","internalType":"bytes32"}],"outputs":[{"name":"","type":"uint256","internalType":"uint256"}],"stateMutability":"view"},{"type":"function","name":"updateProverStake","inputs":[{"name":"prover","type":"address","internalType":"address"},{"name":"newStake","type":"uint256","internalType":"uint256"}],"outputs":[],"stateMutability":"nonpayable"},{"type":"function","name":"vrfCoordinator","inputs":[],"outputs":[{"name":"","type":"address","internalType":"address"}],"stateMutability":"view"},{"type":"function","name":"vrfRequests","inputs":[{"name":"","type":"uint256","internalType":"uint256"}],"outputs":[{"name":"unlockRequestId","type":"bytes32","internalType":"bytes32"},{"name":"requestedAt","type":"uint256","internalType":"uint256"},{"name":"randomValue","type":"uint256","internalType":"uint256"},{"name":"selectedProver","type":"address","internalType":"address"},{"name":"fulfilled","type":"bool","internalType":"bool"}],"stateMutability":"view"},{"type":"event","name":"FallbackProverSelected","inputs":[{"name":"unlockRequestId","type":"bytes32","indexed":true,"internalType":"bytes32"},{"name":"prover","type":"address","indexed":true,"internalType":"address"}],"anonymous":false},{"type":"event","name":"L1VaultUpdated","inputs":[{"name":"oldVault","type":"address","indexed":true,"internalType":"address"},{"name":"newVault","type":"address","indexed":true,"internalType":"address"}],"anonymous":false},{"type":"event","name":"OwnershipTransferred","inputs":[{"name":"previousOwner","type":"address","indexed":true,"internalType":"address"},{"name":"newOwner","type":"address","indexed":true,"internalType":"address"}],"anonymous":false},{"type":"event","name":"ProverAdded","inputs":[{"name":"prover","type":"address","indexed":true,"internalType":"address"},{"name":"stake","type":"uint256","indexed":false,"internalType":"uint256"}],"anonymous":false},{"type":"event","name":"ProverRemoved","inputs":[{"name":"prover","type":"address","indexed":true,"internalType":"address"}],"anonymous":false},{"type":"event","name":"ProverSelected","inputs":[{"name":"unlockRequestId","type":"bytes32","indexed":true,"internalType":"bytes32"},{"name":"prover","type":"address","indexed":true,"internalType":"address"},{"name":"randomValue","type":"uint256","indexed":false,"internalType":"uint256"}],"anonymous":false},{"type":"event","name":"VRFConfigUpdated","inputs":[{"name":"coordinator","type":"address","indexed":false,"internalType":"address"},{"name":"keyHash","type":"bytes32","indexed":false,"internalType":"bytes32"},{"name":"subscriptionId","type":"uint64","indexed":false,"internalType":"uint64"}],"anonymous":false},{"type":"event","name":"VRFReceived","inputs":[{"name":"requestId","type":"uint256","indexed":true,"internalType":"uint256"},{"name":"randomValue","type":"uint256","indexed":false,"internalType":"uint256"}],"anonymous":false},{"type":"event","name":"VRFRequested","inputs":[{"name":"requestId","type":"uint256","indexed":true,"internalType":"uint256"},{"name":"unlockRequestId","type":"bytes32","indexed":true,"internalType":"bytes32"}],"anonymous":false},{"type":"error","name":"InvalidCallback","inputs":[]},{"type":"error","name":"InvalidRandomValue","inputs":[]},{"type":"error","name":"NoActiveProvers","inputs":[]},{"type":"error","name":"NotL1Vault","inputs":[]},{"type":"error","name":"NotOwner","inputs":[]},{"type":"error","name":"NotVRFCoordinator","inputs":[]},{"type":"error","name":"ProverAlreadyExists","inputs":[]},{"type":"error","name":"RequestAlreadyFulfilled","inputs":[]},{"type":"error","name":"RequestNotFound","inputs":[]},{"type":"error","name":"TimeoutNotReached","inputs":[]},{"type":"error","name":"UnauthorizedCallback","inputs":[]},{"type":"error","name":"VRFNotReady","inputs":[]},{"type":"error","name":"VRFRequestFailed","inputs":[]},{"type":"error","name":"VRFTimeout","inputs":[]},{"type":"error","name":"ZeroAddress","inputs":[]}],"bytecode":{"object":"0x608060405234801561001057600080fd5b50604051611ac5380380611ac583398101604081905261002f9161008c565b6001600160a01b0381166100565760405163d92e233d60e01b815260040160405180910390fd5b60008054336001600160a01b031991821617909155600180549091166001600160a01b03929092169190911781556002556100bc565b60006020828403121561009e57600080fd5b81516001600160a01b03811681146100b557600080fd5b9392505050565b6119fa806100cb6000396000f3fe608060405234801561001057600080fd5b50600436106101cf5760003560e01c8063811cbeb711610104578063c10672f0116100a2578063f12084cd11610071578063f12084cd1461059a578063f2fde38b146105ad578063f491c80c146105c0578063f4d1c5f6146105e357600080fd5b8063c10672f014610430578063c1e582ba14610462578063d228ad2514610540578063d72d1d791461057a57600080fd5b8063967de556116100de578063967de556146103e4578063a3e56fa8146103f7578063a65661ef1461040a578063b571d3dd1461041d57600080fd5b8063811cbeb71461039157806381fa4db1146103995780638da5cb5b146103b957600080fd5b806348ceaa591161017157806361728f391161014b57806361728f391461033d57806367f082b01461034657806372cf6e341461036157806372d369a71461037e57600080fd5b806348ceaa59146103025780634a3f00f71461031757806354fa453c1461032a57600080fd5b80631fe543e3116101ad5780631fe543e31461029a57806333d608f1146102ad578063354731ff146102c55780634393b0e5146102d857600080fd5b8063012df817146101d457806309c1ba2e146101e95780631a1d92521461021b575b600080fd5b6101e76101e23660046116d3565b6105ec565b005b6008546101fd9067ffffffffffffffff1681565b60405167ffffffffffffffff90911681526020015b60405180910390f35b6102676102293660046116fd565b60036020819052600091825260409091208054600182015460028301549290930154909291906001600160a01b03811690600160a01b900460ff1685565b604080519586526020860194909452928401919091526001600160a01b031660608301521515608082015260a001610212565b6101e76102a836600461172c565b6106be565b6102b762030d4081565b604051908152602001610212565b6101e76102d33660046117f6565b610728565b6102eb6102e63660046116fd565b61075d565b604080519215158352602083019190915201610212565b61030a6107d4565b6040516102129190611818565b6101e7610325366004611885565b61085b565b6101e76103383660046118d2565b610933565b6102b760075481565b61034e600381565b60405161ffff9091168152602001610212565b610369600181565b60405163ffffffff9091168152602001610212565b6102b761038c3660046116fd565b6109d7565b6005546102b7565b6102b76103a73660046116fd565b60046020526000908152604090205481565b6000546103cc906001600160a01b031681565b6040516001600160a01b039091168152602001610212565b6101e76103f23660046116d3565b610ad5565b6006546103cc906001600160a01b031681565b6001546103cc906001600160a01b031681565b6101e761042b3660046118d2565b610c9e565b61044361043e3660046116fd565b610d91565b604080516001600160a01b039093168352602083019190915201610212565b6104f86104703660046116fd565b6040805160a08101825260008082526020820181905291810182905260608101829052608081019190915250600090815260036020818152604092839020835160a081018552815481526001820154928101929092526002810154938201939093529101546001600160a01b0381166060830152600160a01b900460ff161515608082015290565b60405161021291908151815260208083015190820152604080830151908201526060808301516001600160a01b03169082015260809182015115159181019190915260a00190565b61055361054e3660046116fd565b610de4565b604080516001600160a01b0390941684526020840192909252151590820152606001610212565b61058d6105883660046116fd565b610e24565b60405161021291906118f4565b6103cc6105a83660046116fd565b610ea2565b6101e76105bb3660046118d2565b610ffc565b6105d36105ce3660046116fd565b61109e565b6040519015158152602001610212565b6102b761012c81565b6000546001600160a01b03163314610617576040516330cd747160e01b815260040160405180910390fd5b60005b6005548110156106a057826001600160a01b03166005828154811061064157610641611920565b60009182526020909120600390910201546001600160a01b03160361068e57816005828154811061067457610674611920565b906000526020600020906003020160010181905550505050565b806106988161194c565b91505061061a565b50604051632589d98f60e11b815260040160405180910390fd5b5050565b6006546001600160a01b0316158015906106e357506006546001600160a01b03163314155b15610704576040516001626d5f8b60e01b0319815260040160405180910390fd5b6106ba828260008151811061071b5761071b611920565b60200260200101516110e0565b6000546001600160a01b03163314610753576040516330cd747160e01b815260040160405180910390fd5b6106ba82826110e0565b60008181526004602052604081205481908082036107815750600093849350915050565b600081815260036020526040812060018101549091906107a49061012c90611965565b90508042106107bc5750600195600095509350505050565b60006107c84283611978565b94509450505050915091565b60606005805480602002602001604051908101604052809291908181526020016000905b82821015610852576000848152602090819020604080516060810182526003860290920180546001600160a01b031683526001808201548486015260029091015460ff1615159183019190915290835290920191016107f8565b50505050905090565b6000546001600160a01b03163314610886576040516330cd747160e01b815260040160405180910390fd5b6001600160a01b0383166108ad5760405163d92e233d60e01b815260040160405180910390fd5b600680546001600160a01b0319166001600160a01b03851690811790915560078390556008805467ffffffffffffffff191667ffffffffffffffff841690811790915560408051928352602083018590528201527f3f8923be84a8d6fb9294531d8d055ae4fa8fd1b74ab82bd91d63b0288702f5469060600160405180910390a1505050565b6000546001600160a01b0316331461095e576040516330cd747160e01b815260040160405180910390fd5b6001600160a01b0381166109855760405163d92e233d60e01b815260040160405180910390fd5b600180546001600160a01b038381166001600160a01b0319831681179093556040519116919082907fa0b0e8a015b8fe2e644e3cefb3e301a268bad6a0004222a2c372980616bc071790600090a35050565b6001546000906001600160a01b03163314610a0557604051632c2e97a760e21b815260040160405180910390fd5b60028054906000610a158361194c565b909155506040805160a0810182528481524260208083019182526000838501818152606085018281526080860183815288845260038086528885209751885595516001880155915160028701555194909301805493511515600160a01b026001600160a81b03199094166001600160a01b0395909516949094179290921790925585815260049091528181208390559051919250839183917ff7617d06180c24c92bad8c8436c3ae97409a09e1f5655da6c0807f50c5f9674891a3919050565b6000546001600160a01b03163314610b00576040516330cd747160e01b815260040160405180910390fd5b6001600160a01b038216610b275760405163d92e233d60e01b815260040160405180910390fd5b60005b600554811015610b9b57826001600160a01b031660058281548110610b5157610b51611920565b60009182526020909120600390910201546001600160a01b031603610b89576040516312db1b9960e01b815260040160405180910390fd5b80610b938161194c565b915050610b2a565b50604080516060810182526001600160a01b038481168083526020808401868152600185870181815260058054928301815560005295517f036b6384b5eca791c62761152d0c79bb0604c104a5fb6f4eb0703f3154bb3db0600390920291820180546001600160a01b0319169190961617909455517f036b6384b5eca791c62761152d0c79bb0604c104a5fb6f4eb0703f3154bb3db184015592517f036b6384b5eca791c62761152d0c79bb0604c104a5fb6f4eb0703f3154bb3db2909201805460ff19169215159290921790915591518381527f25343d56d3f85e154bd7f16fac360991caeb9a82123cf0ff11f6b8a731d46d10910160405180910390a25050565b6000546001600160a01b03163314610cc9576040516330cd747160e01b815260040160405180910390fd5b60005b6005548110156106a057816001600160a01b031660058281548110610cf357610cf3611920565b60009182526020909120600390910201546001600160a01b031603610d7f57600060058281548110610d2757610d27611920565b60009182526020822060039190910201600201805460ff1916921515929092179091556040516001600160a01b038416917fd64d11086d859b73cf85a91ca06cbc484398acabe3d9a1b26d4366dff377d98591a25050565b80610d898161194c565b915050610ccc565b6000818152600460205260408120548190808203610db55750600093849350915050565b6000908152600360208190526040909120908101546002909101546001600160a01b0390911694909350915050565b60058181548110610df457600080fd5b60009182526020909120600390910201805460018201546002909201546001600160a01b03909116925060ff1683565b604080516060810182526000808252602082018190529181019190915260058281548110610e5457610e54611920565b600091825260209182902060408051606081018252600390930290910180546001600160a01b0316835260018101549383019390935260029092015460ff1615159181019190915292915050565b600081815260046020526040812054808203610ed157604051632589d98f60e11b815260040160405180910390fd5b600081815260036020819052604090912090810154600160a01b900460ff1615610f0e5760405163533d99dd60e01b815260040160405180910390fd5b61012c8160010154610f209190611965565b421015610f40576040516326c015ab60e21b815260040160405180910390fd5b60408051446020808301919091524282840152606080830188905243608084015233901b6bffffffffffffffffffffffff191660a08301528251808303609401815260b49092019092528051910120610f98816111f5565b600283018290556003830180546001600160a81b0319166001600160a01b038316908117600160a01b179091556040519195509086907f20ec7cf7912c9b857ee48087b73897b95592335fd89fc4f4c5372f1719eed6d090600090a3505050919050565b6000546001600160a01b03163314611027576040516330cd747160e01b815260040160405180910390fd5b6001600160a01b03811661104e5760405163d92e233d60e01b815260040160405180910390fd5b600080546001600160a01b038381166001600160a01b0319831681178455604051919092169283917f8be0079c531659141344cd1fd0a4f28419497f9722a3daafe3b4186f6b6457e09190a35050565b6000818152600460205260408120548082036110bd5750600092915050565b60009081526003602081905260409091200154600160a01b900460ff1692915050565b6000828152600360205260409020805461110d57604051632589d98f60e11b815260040160405180910390fd5b6003810154600160a01b900460ff161561113a5760405163533d99dd60e01b815260040160405180910390fd5b6000611145836111f5565b600283018490556003830180546001600160a81b0319166001600160a01b03831617600160a01b17905560405190915084907f936fe18cf1ae151e1bc53947d9b72671fb007ae8fb2ec8ad96d98a23c8d51dc1906111a69086815260200190565b60405180910390a281546040518481526001600160a01b03831691907fd91da7087a9300778759c4df53dd712b6e8aa73d0a38b6b8a61b86b96d3d96679060200160405180910390a350505050565b600554600090810361121a57604051637a8d088b60e01b815260040160405180910390fd5b6000805b600554811015611272576005818154811061123b5761123b611920565b600091825260209091206002600390920201015460ff16156112605760019150611272565b8061126a8161194c565b91505061121e565b508061129157604051637a8d088b60e01b815260040160405180910390fd5b60006005805480602002602001604051908101604052809291908181526020016000905b8282101561130f576000848152602090819020604080516060810182526003860290920180546001600160a01b031683526001808201548486015260029091015460ff1615159183019190915290835290920191016112b5565b505050509050611328848261135990919063ffffffff16565b5092506001600160a01b03831661135257604051637a8d088b60e01b815260040160405180910390fd5b5050919050565b6000808260000361137d5760405163602938e560e11b815260040160405180910390fd5b600080611389866115d3565b91509150806000036113ae57604051637a8d088b60e01b815260040160405180910390fd5b60006113b983611687565b905060006113c7848861198b565b90508187101580156113d95750600082115b156114185783876040516020016113f291815260200190565b6040516020818303038152906040528051906020012060001c611415919061198b565b90505b6000805b89518110156114ea5789818151811061143757611437611920565b60200260200101516040015115806114735750670de0b6b3a76400008a828151811061146557611465611920565b602002602001015160200151105b6114d85789818151811061148957611489611920565b602002602001015160200151826114a09190611965565b9150818310156114d8578981815181106114bc576114bc611920565b60200260200101516000015181975097505050505050506115cc565b806114e28161194c565b91505061141c565b5088515b80156115b25789611500600183611978565b8151811061151057611510611920565b60200260200101516040015180156115575750670de0b6b3a76400008a611538600184611978565b8151811061154857611548611920565b60200260200101516020015110155b156115a05789611568600183611978565b8151811061157857611578611920565b6020026020010151600001516001826115919190611978565b975097505050505050506115cc565b806115aa816119ad565b9150506114ee565b50604051637a8d088b60e01b815260040160405180910390fd5b9250929050565b60008060005b8351811015611681578381815181106115f4576115f4611920565b60200260200101516040015180156116315750670de0b6b3a764000084828151811061162257611622611920565b60200260200101516020015110155b1561166f5783818151811061164857611648611920565b6020026020010151602001518361165f9190611965565b92508161166b8161194c565b9250505b806116798161194c565b9150506115d9565b50915091565b60008160000361169957506000919050565b6116a58260001961198b565b6116b190600019611978565b92915050565b80356001600160a01b03811681146116ce57600080fd5b919050565b600080604083850312156116e657600080fd5b6116ef836116b7565b946020939093013593505050565b60006020828403121561170f57600080fd5b5035919050565b634e487b7160e01b600052604160045260246000fd5b6000806040838503121561173f57600080fd5b8235915060208084013567ffffffffffffffff8082111561175f57600080fd5b818601915086601f83011261177357600080fd5b81358181111561178557611785611716565b8060051b604051601f19603f830116810181811085821117156117aa576117aa611716565b6040529182528482019250838101850191898311156117c857600080fd5b938501935b828510156117e6578435845293850193928501926117cd565b8096505050505050509250929050565b6000806040838503121561180957600080fd5b50508035926020909101359150565b6020808252825182820181905260009190848201906040850190845b818110156118795761186683855180516001600160a01b03168252602080820151908301526040908101511515910152565b9284019260609290920191600101611834565b50909695505050505050565b60008060006060848603121561189a57600080fd5b6118a3846116b7565b925060208401359150604084013567ffffffffffffffff811681146118c757600080fd5b809150509250925092565b6000602082840312156118e457600080fd5b6118ed826116b7565b9392505050565b81516001600160a01b0316815260208083015190820152604080830151151590820152606081016116b1565b634e487b7160e01b600052603260045260246000fd5b634e487b7160e01b600052601160045260246000fd5b60006001820161195e5761195e611936565b5060010190565b808201808211156116b1576116b1611936565b818103818111156116b1576116b1611936565b6000826119a857634e487b7160e01b600052601260045260246000fd5b500690565b6000816119bc576119bc611936565b50600019019056fea264697066735822122081f4a5dedde000dfb037af8b603785fc32d0fdc02d7fe7ef5910c21d0405bab364736f6c63430008140033","linkReferences":{}},"methodIdentifiers":{"CALLBACK_GAS_LIMIT()":"33d608f1","NUM_WORDS()":"72cf6e34","REQUEST_CONFIRMATIONS()":"67f082b0","VRF_TIMEOUT()":"f4d1c5f6","addProver(address,uint256)":"967de556","checkTimeout(bytes32)":"4393b0e5","getAllProvers()":"48ceaa59","getProverByIndex(uint256)":"d72d1d79","getProverPoolLength()":"811cbeb7","getSelectedProver(bytes32)":"c10672f0","getVRFRequest(uint256)":"c1e582ba","isProverSelected(bytes32)":"f491c80c","keyHash()":"61728f39","l1Vault()":"a65661ef","mockFulfillRandomWords(uint256,uint256)":"354731ff","owner()":"8da5cb5b","proverPool(uint256)":"d228ad25","rawFulfillRandomWords(uint256,uint256[])":"1fe543e3","removeProver(address)":"b571d3dd","requestProverSelection(bytes32)":"72d369a7","setL1Vault(address)":"54fa453c","setVRFConfig(address,bytes32,uint64)":"4a3f00f7","subscriptionId()":"09c1ba2e","transferOwnership(address)":"f2fde38b","triggerFallback(bytes32)":"f12084cd","unlockToVRFRequest(bytes32)":"81fa4db1","updateProverStake(address,uint256)":"012df817","vrfCoordinator()":"a3e56fa8","vrfRequests(uint256)":"1a1d9252"},"id":9}