{"abi":[{"type":"constructor","inputs":[{"name":"qsToken_","type":"address","internalType":"address"},{"name":"periodDuration_","type":"uint256","internalType":"uint256"},{"name":"admin_","type":"address","internalType":"address"},{"name":"rewardRouter_","type":"address","internalType":"address"}],"stateMutability":"nonpayable"},{"type":"function","name":"addRewards","inputs":[{"name":"amount","type":"uint256","internalType":"uint256"}],"outputs":[],"stateMutability":"nonpayable"},{"type":"function","name":"claimReward","inputs":[],"outputs":[{"name":"amount","type":"uint256","internalType":"uint256"}],"stateMutability":"nonpayable"},{"type":"function","name":"currentPeriodId","inputs":[],"outputs":[{"name":"","type":"uint256","internalType":"uint256"}],"stateMutability":"view"},{"type":"function","name":"deregisterProver","inputs":[{"name":"prover","type":"address","internalType":"address"}],"outputs":[],"stateMutability":"nonpayable"},{"type":"function","name":"emergencyWithdraw","inputs":[{"name":"to","type":"address","internalType":"address"},{"name":"amount","type":"uint256","internalType":"uint256"}],"outputs":[],"stateMutability":"nonpayable"},{"type":"function","name":"finalizePeriod","inputs":[],"outputs":[],"stateMutability":"nonpayable"},{"type":"function","name":"getPeriod","inputs":[{"name":"periodId","type":"uint256","internalType":"uint256"}],"outputs":[{"name":"","type":"tuple","internalType":"struct IProverRewardPool.DistributionPeriod","components":[{"name":"periodId","type":"uint256","internalType":"uint256"},{"name":"startTime","type":"uint256","internalType":"uint256"},{"name":"endTime","type":"uint256","internalType":"uint256"},{"name":"totalRewards","type":"uint256","internalType":"uint256"},{"name":"totalSignatures","type":"uint256","internalType":"uint256"},{"name":"finalized","type":"bool","internalType":"bool"}]}],"stateMutability":"view"},{"type":"function","name":"getProverReward","inputs":[{"name":"prover","type":"address","internalType":"address"}],"outputs":[{"name":"","type":"tuple","internalType":"struct IProverRewardPool.ProverReward","components":[{"name":"pendingRewards","type":"uint256","internalType":"uint256"},{"name":"totalClaimed","type":"uint256","internalType":"uint256"},{"name":"lastClaimTime","type":"uint256","internalType":"uint256"},{"name":"signatureCount","type":"uint256","internalType":"uint256"}]}],"stateMutability":"view"},{"type":"function","name":"minClaimAmount","inputs":[],"outputs":[{"name":"","type":"uint256","internalType":"uint256"}],"stateMutability":"view"},{"type":"function","name":"pendingRewards","inputs":[{"name":"prover","type":"address","internalType":"address"}],"outputs":[{"name":"","type":"uint256","internalType":"uint256"}],"stateMutability":"view"},{"type":"function","name":"periodDuration","inputs":[],"outputs":[{"name":"","type":"uint256","internalType":"uint256"}],"stateMutability":"view"},{"type":"function","name":"qsToken","inputs":[],"outputs":[{"name":"","type":"address","internalType":"address"}],"stateMutability":"view"},{"type":"function","name":"recordSignatures","inputs":[{"name":"prover","type":"address","internalType":"address"},{"name":"count","type":"uint256","internalType":"uint256"}],"outputs":[],"stateMutability":"nonpayable"},{"type":"function","name":"registerProver","inputs":[{"name":"prover","type":"address","internalType":"address"}],"outputs":[],"stateMutability":"nonpayable"},{"type":"function","name":"totalDistributed","inputs":[],"outputs":[{"name":"","type":"uint256","internalType":"uint256"}],"stateMutability":"view"},{"type":"event","name":"PeriodFinalized","inputs":[{"name":"periodId","type":"uint256","indexed":true,"internalType":"uint256"},{"name":"totalRewards","type":"uint256","indexed":false,"internalType":"uint256"},{"name":"totalSignatures","type":"uint256","indexed":false,"internalType":"uint256"},{"name":"proverCount","type":"uint256","indexed":false,"internalType":"uint256"}],"anonymous":false},{"type":"event","name":"RewardClaimed","inputs":[{"name":"prover","type":"address","indexed":true,"internalType":"address"},{"name":"amount","type":"uint256","indexed":false,"internalType":"uint256"},{"name":"totalClaimed","type":"uint256","indexed":false,"internalType":"uint256"}],"anonymous":false},{"type":"event","name":"RewardsAdded","inputs":[{"name":"amount","type":"uint256","indexed":false,"internalType":"uint256"},{"name":"from","type":"address","indexed":true,"internalType":"address"}],"anonymous":false},{"type":"event","name":"SignaturesRecorded","inputs":[{"name":"prover","type":"address","indexed":true,"internalType":"address"},{"name":"count","type":"uint256","indexed":false,"internalType":"uint256"},{"name":"periodId","type":"uint256","indexed":false,"internalType":"uint256"}],"anonymous":false},{"type":"error","name":"InvalidAddress","inputs":[]},{"type":"error","name":"NoRewardsToClaim","inputs":[]},{"type":"error","name":"NotAuthorized","inputs":[]},{"type":"error","name":"PeriodAlreadyFinalized","inputs":[]},{"type":"error","name":"PeriodNotFinalized","inputs":[]},{"type":"error","name":"ProverNotRegistered","inputs":[]},{"type":"error","name":"ZeroAmount","inputs":[]}],"bytecode":{"object":"0x60c03461024857601f610fde38819003918201601f1916830192916001600160401b0391828511848610176101715781608092859260409788528339810103126102485761004c8261024c565b91602092838201519161006c606061006588840161024c565b920161024c565b6001600160a01b0391838316156102115784156101cd578216928315610199576080528360a05260018060a01b0319928360015416176001551690600254161760025560015f55670de0b6b3a764000060055542018042116101855783519060c0820192828410908411176101715760059285525f82528382019042825285830190815260608301905f825260808401925f8452600760a08601975f89525f805252875f2094518555516001850155516002840155516003830155516004820155019051151560ff8019835416911617905551610d7d9081610261823960805181818160f7015281816101e70152610d1c015260a0518181816103da01526104e10152f35b634e487b7160e01b5f52604160045260245ffd5b634e487b7160e01b5f52601160045260245ffd5b875162461bcd60e51b815260048101889052600d60248201526c24b73b30b634b21030b236b4b760991b6044820152606490fd5b875162461bcd60e51b815260048101889052601760248201527f496e76616c696420706572696f64206475726174696f6e0000000000000000006044820152606490fd5b875162461bcd60e51b815260048101889052601060248201526f24b73b30b634b21028a9903a37b5b2b760811b6044820152606490fd5b5f80fd5b51906001600160a01b03821682036102485756fe6080604081815260049182361015610015575f80fd5b5f3560e01c908163028cac0c146109a75750806325255f6e1461088c57806331d7a26214610855578063410df78c146107ba5780634b2c0706146106f757806395ccea67146106bd578063988e65951461069f578063a98132071461041b578063adc25bde146103fd578063b470aade146103c3578063b88a802f14610298578063beceed391461016f578063c0004e5514610126578063c5ebfa9a146100e35763efca2eed146100c4575f80fd5b346100df575f3660031901126100df57602091549051908152f35b5f80fd5b50346100df575f3660031901126100df57517f00000000000000000000000000000000000000000000000000000000000000006001600160a01b03168152602090f35b50346100df5760203660031901126100df576101406109ee565b6001549091906001600160a01b031633036101605761015e82610b5a565b005b5163ea8e4eb560e01b81529050fd5b50346100df5760203660031901126100df57813591821561028a5761019683600c54610b01565b600c55815160208101916323b872dd60e01b83523360248301523060448301528460648301526064825260a082019082821067ffffffffffffffff831117610277575083525161021c915f918291827f00000000000000000000000000000000000000000000000000000000000000005af1610210610c3e565b81610248575b50610ca0565b519081527f5e60183dabac4cd15ced44d40b9f2f385ce62ad9238550fa50f4fe58f3db9de560203392a2005b805180159250821561025d575b50505f610216565b6102709250602080918301019101610c88565b5f80610255565b604190634e487b7160e01b5f525260245ffd5b9051631f2a200560e01b8152fd5b5090346100df575f3660031901126100df5760025f54146103815760025f55335f526020916009835260ff815f2054161561037457335f5260068352805f20549182156103665760055483106103665750335f52600683526001815f205f815501610304838254610b01565b9055335f5260068352426002825f20015561031f8233610cde565b335f52600683526001815f200154815190838252848201527ff01da32686223933d8a18a391060918c7f11a3648639edd87ae013e2e2731743823392a260015f5551908152f35b90516373380d9960e01b8152fd5b516305e3d4e760e11b8152fd5b6020606492519162461bcd60e51b8352820152601f60248201527f5265656e7472616e637947756172643a207265656e7472616e742063616c6c006044820152fd5b50346100df575f3660031901126100df57602090517f00000000000000000000000000000000000000000000000000000000000000008152f35b50346100df575f3660031901126100df576020906005549051908152f35b50346100df575f3660031901126100df5760039081545f52602060078152815f20926002840154421061066957600584019360ff85541661065957600c548282019081555f600c558660019260ff19976001898254161790550191825415158061064f575b61057f575b507f85e7e0faa078e9dc92724367a452123990b65fa18c68a36a0f14843b4df85ec560608454938493549054600a549089519283528883015288820152a25f19811461056c579460059260ff949260015f9801918282556105067f000000000000000000000000000000000000000000000000000000000000000042610b01565b85519561051287610b3e565b84875282870190428252808801928352600760608901948d865260808a01978e895260a08b019e8f525f52525f20965187555160018701555160028601555190840155519082015501925115159183541691161790555f80f35b601186634e487b7160e01b5f525260245ffd5b5f815b61058d575b50610485565b600a5481101561064a57816105a182610a04565b60018060a01b03915490881b1c1686545f5260088852885f20815f528852885f2054806105d4575b505080910190610582565b90915084548181029181830414901517156106375785549081156106245784939192849361061b9204905f5260068a528a5f20610612828254610b01565b90558c54610b01565b8b55915f6105c9565b60128c634e487b7160e01b5f525260245ffd5b60118b634e487b7160e01b5f525260245ffd5b610587565b5081541515610480565b8351633a0c88ab60e21b81528690fd5b825162461bcd60e51b8152808601839052601060248201526f14195c9a5bd9081b9bdd08195b99195960821b6044820152606490fd5b50346100df575f3660031901126100df576020906003549051908152f35b50346100df57806003193601126100df576106d66109ee565b6001549091906001600160a01b031633036101605761015e60243583610cde565b50346100df5760203660031901126100df5760c0915f60a0835161071a81610b3e565b8281528260208201528285820152826060820152826080820152015280355f526007602052815f2082519161074e83610b3e565b81549384845260018301546020850190815260028401549082860191825260a060ff600560038801549660608a019788528801549760808a01988952015416960195151586528251968752516020870152519085015251606084015251608083015251151560a0820152f35b50346100df5760203660031901126100df576080906107d76109ee565b5f606083516107e581610b22565b8281528260208201528285820152015260018060a01b03165f526006602052805f209080519061081482610b22565b825492838352600181015460208401908152606060036002840154938587019485520154940193845282519485525160208501525190830152516060820152f35b50346100df5760203660031901126100df576020906001600160a01b0361087a6109ee565b165f5260068252805f20549051908152f35b50346100df57806003193601126100df576108a56109ee565b60015460243592916001600160a01b0391821633141580610999575b610989571691825f5260206009815260ff835f20541615610979578115610969577f4ecd9718758ddcd95b4a215681b060f8ec3b77e1edd876908a65edc3314d9b8393946003545f5260088252835f20865f528252835f20610924848254610b01565b90556003545f5260078252835f200161093e838254610b01565b9055845f52600681526003835f2001610958838254610b01565b9055600354908351928352820152a2005b8251631f2a200560e01b81528590fd5b82516305e3d4e760e11b81528590fd5b825163ea8e4eb560e01b81528590fd5b5081600254163314156108c1565b8390346100df5760203660031901126100df576109c26109ee565b6001549091906001600160a01b031633036109e05761015e82610a4d565b63ea8e4eb560e01b81529050fd5b600435906001600160a01b03821682036100df57565b600a54811015610a3957600a5f527fc65a7bb8d6351c1cf70c95a316cc6a92839c986682d98bc35f958f4883f9d2a801905f90565b634e487b7160e01b5f52603260045260245ffd5b6001600160a01b038116908115610aef57815f52600960205260405f20805460ff8116610ae95760ff19166001179055600a549068010000000000000000821015610ad557610aa5826001610ac39401600a55610a04565b90919060018060a01b038084549260031b9316831b921b1916179055565b600a54905f52600b60205260405f2055565b634e487b7160e01b5f52604160045260245ffd5b50505050565b60405163e6c4247b60e01b8152600490fd5b91908201809211610b0e57565b634e487b7160e01b5f52601160045260245ffd5b6080810190811067ffffffffffffffff821117610ad557604052565b60c0810190811067ffffffffffffffff821117610ad557604052565b6001600160a01b039081165f818152600960205260409020805491929160ff811615610ae95760ff19169055600b60205260405f205480610b9a57505050565b5f1990808201818111610b0e57600a54838101908111610b0e578181869303610c09575b50505050600a548015610bf5570190610bd682610a04565b909182549160031b1b19169055600a555f52600b6020525f6040812055565b634e487b7160e01b5f52603160045260245ffd5b610aa592610c19610c2993610a04565b90549060031b1c16928391610a04565b5f52600b60205260405f20555f828180610bbe565b3d15610c835767ffffffffffffffff903d828111610ad55760405192601f8201601f19908116603f0116840190811184821017610ad55760405282523d5f602084013e565b606090565b908160209103126100df575180151581036100df5790565b15610ca757565b60405162461bcd60e51b815260206004820152600f60248201526e151c985b9cd9995c8819985a5b1959608a1b6044820152606490fd5b5f8091610d459360405190602082019263a9059cbb60e01b845260018060a01b03166024830152604482015260448152610d1781610b22565b5190827f00000000000000000000000000000000000000000000000000000000000000005af1610210610c3e565b56fea26469706673582212203cc03c1046e67d618c183c5af3ffa347f30177bd6c1878e1622247cfb96237f064736f6c63430008180033","linkReferences":{}},"methodIdentifiers":{"addRewards(uint256)":"beceed39","claimReward()":"b88a802f","currentPeriodId()":"988e6595","deregisterProver(address)":"c0004e55","emergencyWithdraw(address,uint256)":"95ccea67","finalizePeriod()":"a9813207","getPeriod(uint256)":"4b2c0706","getProverReward(address)":"410df78c","minClaimAmount()":"adc25bde","pendingRewards(address)":"31d7a262","periodDuration()":"b470aade","qsToken()":"c5ebfa9a","recordSignatures(address,uint256)":"25255f6e","registerProver(address)":"028cac0c","totalDistributed()":"efca2eed"},"id":70}