{"abi":[{"type":"constructor","inputs":[{"name":"_constitutionLock","type":"address","internalType":"address"}],"stateMutability":"nonpayable"},{"type":"function","name":"MIN_EMERGENCY_TIMELOCK","inputs":[],"outputs":[{"name":"","type":"uint256","internalType":"uint256"}],"stateMutability":"view"},{"type":"function","name":"MIN_NORMAL_TIMELOCK","inputs":[],"outputs":[{"name":"","type":"uint256","internalType":"uint256"}],"stateMutability":"view"},{"type":"function","name":"SLASHING_BASE_RATE_BPS","inputs":[],"outputs":[{"name":"","type":"uint256","internalType":"uint256"}],"stateMutability":"view"},{"type":"function","name":"TOTAL_CPS","inputs":[],"outputs":[{"name":"","type":"uint8","internalType":"uint8"}],"stateMutability":"view"},{"type":"function","name":"constitutionLock","inputs":[],"outputs":[{"name":"","type":"address","internalType":"contract IConstitutionLock"}],"stateMutability":"view"},{"type":"function","name":"emergencyTimeLock","inputs":[],"outputs":[{"name":"","type":"uint256","internalType":"uint256"}],"stateMutability":"view"},{"type":"function","name":"getComplianceHistoryCount","inputs":[{"name":"cpNumber","type":"uint8","internalType":"uint8"}],"outputs":[{"name":"","type":"uint256","internalType":"uint256"}],"stateMutability":"view"},{"type":"function","name":"getComplianceRecord","inputs":[{"name":"cpNumber","type":"uint8","internalType":"uint8"},{"name":"index","type":"uint256","internalType":"uint256"}],"outputs":[{"name":"","type":"tuple","internalType":"struct ConstitutionRegistry.ComplianceRecord","components":[{"name":"timestamp","type":"uint256","internalType":"uint256"},{"name":"compliant","type":"bool","internalType":"bool"},{"name":"notes","type":"string","internalType":"string"}]}],"stateMutability":"view"},{"type":"function","name":"getEmergencyTimeLock","inputs":[],"outputs":[{"name":"","type":"uint256","internalType":"uint256"}],"stateMutability":"view"},{"type":"function","name":"getLastComplianceCheckTime","inputs":[{"name":"cpNumber","type":"uint8","internalType":"uint8"}],"outputs":[{"name":"","type":"uint256","internalType":"uint256"}],"stateMutability":"view"},{"type":"function","name":"getNormalTimeLock","inputs":[],"outputs":[{"name":"","type":"uint256","internalType":"uint256"}],"stateMutability":"view"},{"type":"function","name":"getSlashingRate","inputs":[{"name":"violationCount","type":"uint256","internalType":"uint256"}],"outputs":[{"name":"","type":"uint256","internalType":"uint256"}],"stateMutability":"pure"},{"type":"function","name":"hasEventEmission","inputs":[],"outputs":[{"name":"","type":"bool","internalType":"bool"}],"stateMutability":"pure"},{"type":"function","name":"hasOffchainSecretComputation","inputs":[],"outputs":[{"name":"","type":"bool","internalType":"bool"}],"stateMutability":"pure"},{"type":"function","name":"hasServerKeyStorage","inputs":[],"outputs":[{"name":"","type":"bool","internalType":"bool"}],"stateMutability":"pure"},{"type":"function","name":"hasSlashingMechanism","inputs":[],"outputs":[{"name":"","type":"bool","internalType":"bool"}],"stateMutability":"pure"},{"type":"function","name":"isCompliant","inputs":[{"name":"cpNumber","type":"uint8","internalType":"uint8"}],"outputs":[{"name":"","type":"bool","internalType":"bool"}],"stateMutability":"view"},{"type":"function","name":"isFullyCompliant","inputs":[],"outputs":[{"name":"","type":"bool","internalType":"bool"}],"stateMutability":"view"},{"type":"function","name":"normalTimeLock","inputs":[],"outputs":[{"name":"","type":"uint256","internalType":"uint256"}],"stateMutability":"view"},{"type":"function","name":"recordComplianceCheck","inputs":[{"name":"cpNumber","type":"uint8","internalType":"uint8"},{"name":"notes","type":"string","internalType":"string"}],"outputs":[],"stateMutability":"nonpayable"},{"type":"function","name":"syncTimeLocks","inputs":[],"outputs":[],"stateMutability":"nonpayable"},{"type":"function","name":"usesProhibitedAlgorithm","inputs":[{"name":"algorithm","type":"string","internalType":"string"}],"outputs":[{"name":"","type":"bool","internalType":"bool"}],"stateMutability":"view"},{"type":"event","name":"CPComplianceChanged","inputs":[{"name":"cpNumber","type":"uint8","indexed":true,"internalType":"uint8"},{"name":"compliant","type":"bool","indexed":false,"internalType":"bool"},{"name":"notes","type":"string","indexed":false,"internalType":"string"}],"anonymous":false},{"type":"event","name":"ProhibitedAlgorithmDetected","inputs":[{"name":"algorithm","type":"string","indexed":false,"internalType":"string"},{"name":"reporter","type":"address","indexed":true,"internalType":"address"}],"anonymous":false},{"type":"event","name":"TimeLockUpdated","inputs":[{"name":"normalTimeLock","type":"uint256","indexed":false,"internalType":"uint256"},{"name":"emergencyTimeLock","type":"uint256","indexed":false,"internalType":"uint256"}],"anonymous":false}],"bytecode":{"object":"0x60a03461018a57601f610c9f38819003918201601f191683019291906001600160401b0384118385101761018f57816020928492604096875283398101031261018a57516001600160a01b0381169081900361018a5780156101475760805262093a806029825164454344534160d81b815260256002918260058201522090600192839160ff19938385825416179055602387516252534160e81b815282600382015220838582541617905581875168736563703235366b3160b81b8152826009820152208385825416179055602787516629a42096991a9b60c91b8152826007820152208385825416179055602587516429a420969960d91b81528260058201522083858254161790558651906835b2b1b1b0b5991a9b60b91b825260098201522091825416179055620151806000555551610af990816101a682396080518161014f0152f35b6064825162461bcd60e51b815260206004820152602060248201527f496e76616c696420436f6e737469747574696f6e4c6f636b20616464726573736044820152fd5b600080fd5b634e487b7160e01b600052604160045260246000fdfe6040608081526004908136101561001557600080fd5b600090813560e01c928363293d860e1461080f5783633034e7cf146107f35783633761b3771461066157836345cec8361461061b5783634b4dbe76146103905783634cd968011461038b57836366f38f18146103595783636f0a110f146102a55783637270513e1461033d5783637ede4f161461031f5783638adc21c8146102ef57836399a52066146102c1578363a9f8f713146102a5578363b386e35914610117578363b3b57a2b14610288578363ba13020114610227578363c138fd3a146101b557508263ced8cdec14610198578263d7072e191461017e578263db7c351a1461013c578263e725d4341461011c57505063ee906dff1461011757600080fd5b610933565b346101385781600319360112610138576020905162093a808152f35b5080fd5b34610138578160031936011261013857517f00000000000000000000000000000000000000000000000000000000000000006001600160a01b03168152602090f35b346101385781600319360112610138576020905160058152f35b346101385781600319360112610138576020906001549051908152f35b91346102245760203660031901126102245782359081800291808304811490151715610211576103e89182810292818404149015171561021157506020925061271090818111156102095750905b51908152f35b905090610203565b634e487b7160e01b815260118452602490fd5b80fd5b91346102245760203660031901126102245782359067ffffffffffffffff821161022457506102736020610261819560ff943691016108dc565b81855193828580945193849201610840565b81016002815203019020541690519015158152f35b503461013857816003193601126101385760209051620151808152f35b5034610138578160031936011261013857602091549051908152f35b5034610138576020366003190112610138576020906102e66102e1610830565b61098f565b90519015158152f35b5034610138576020366003190112610138578060209260ff61030f610830565b1681526003845220549051908152f35b50346101385781600319360112610138576020906001549051908152f35b5034610138578160031936011261013857602090516103e88152f35b3461038757602036600319011261038757602092829160ff610379610830565b168252845220549051908152f35b8280fd5b61080f565b90346103875780600319360112610387576103a9610830565b67ffffffffffffffff91602435838111610617576103ca90369086016108dc565b9060ff8316946103e9600194858810158061060c575b6102e19061094f565b938688526020956003875283892091845161040381610888565b4281528881019715159788815286820194888652805490680100000000000000008210156105f9579061043a918582018155610a57565b9290926105e75790600292915182558382019051151560ff8019835416911617905501925180519283116105d4576104728454610a89565b601f811161058e575b5088908b601f851160011461050157936104f0979593819382937ffaf947bec700d92837eb679bf6ac402dd6d0e6dfdb847e0fe0115a2e9f02c5db9d9c9b9997946104f6575b50501b916000199060031b1c19161790555b878952855242818920558080519586958652850152830190610863565b0390a280f35b015192508e806104c1565b50848c52898c209293929190601f1984168d5b8181106105795750917ffaf947bec700d92837eb679bf6ac402dd6d0e6dfdb847e0fe0115a2e9f02c5db9b9a9997959391856104f09a98969410610560575b505050811b0190556104d3565b015160001960f88460031b161c191690558c8080610553565b82840151855593860193928c01928c01610514565b848c52898c20601f850160051c8101918b86106105ca575b601f0160051c019083905b8281106105bf57505061047b565b8d81550183906105b1565b90915081906105a6565b634e487b7160e01b8b526041855260248bfd5b634e487b7160e01b8d528c875260248dfd5b634e487b7160e01b8e526041885260248efd5b5060058811156103e0565b8580fd5b50346101385781600319360112610138577f2a72574d775756e698a258fc07c826b7185131fff8a96b868feacab45fb2343290825460015482519182526020820152a180f35b92503461013857806003193601126101385761067b610830565b926024359060ff83519561068e87610888565b858752606085602098888a8201520152169081855260038652838520548310156107ba5750906106c691845260038552828420610a57565b508151916106d383610888565b81548352600191600260ff84830154169187860192151583520186835194878354936106fe85610a89565b808952948381169081156107955750600114610759575b505050505061072a83610755959603846108ba565b8185019283528151958695818752519086015251151590840152516060808401526080830190610863565b0390f35b908094939950528783205b8284106107825750505083019094019361072a866107558538610715565b80548785018a0152928801928101610764565b60ff1916858a01525050505090151560051b840101945061072a866107558538610715565b835162461bcd60e51b81529081018690526013602482015272496e646578206f7574206f6620626f756e647360681b6044820152606490fd5b50346101385781600319360112610138576020906102e6610a06565b3461082b57600036600319011261082b57602060405160018152f35b600080fd5b6004359060ff8216820361082b57565b60005b8381106108535750506000910152565b8181015183820152602001610843565b9060209161087c81518092818552858086019101610840565b601f01601f1916010190565b6060810190811067ffffffffffffffff8211176108a457604052565b634e487b7160e01b600052604160045260246000fd5b90601f8019910116810190811067ffffffffffffffff8211176108a457604052565b81601f8201121561082b5780359067ffffffffffffffff82116108a45760405192610911601f8401601f1916602001856108ba565b8284526020838301011161082b57816000926020809301838601378301015290565b3461082b57600036600319011261082b57602060405160008152f35b1561095657565b60405162461bcd60e51b815260206004820152601160248201527024b73b30b634b21021a810373ab6b132b960791b6044820152606490fd5b60ff1660019081811015806109fb575b6109a89061094f565b8181146109d757600281146109d757600381146109db57600481146109d7576005146109d45750600090565b90565b5090565b5062015180600054101590816109ef575090565b62093a80915054101590565b50600581111561099f565b6001805b600560ff82161115610a1a575090565b610a238161098f565b15610a505760ff809116908114610a3b578101610a0a565b60246000634e487b7160e01b81526011600452fd5b5050600090565b8054821015610a73576000526003602060002091020190600090565b634e487b7160e01b600052603260045260246000fd5b90600182811c92168015610ab9575b6020831014610aa357565b634e487b7160e01b600052602260045260246000fd5b91607f1691610a9856fea2646970667358221220bcad13809c4674a41623c2046629aa62a64118d9213c924311644992da7923d964736f6c63430008140033","linkReferences":{}},"methodIdentifiers":{"MIN_EMERGENCY_TIMELOCK()":"e725d434","MIN_NORMAL_TIMELOCK()":"b3b57a2b","SLASHING_BASE_RATE_BPS()":"7270513e","TOTAL_CPS()":"d7072e19","constitutionLock()":"db7c351a","emergencyTimeLock()":"ced8cdec","getComplianceHistoryCount(uint8)":"8adc21c8","getComplianceRecord(uint8,uint256)":"3761b377","getEmergencyTimeLock()":"7ede4f16","getLastComplianceCheckTime(uint8)":"66f38f18","getNormalTimeLock()":"6f0a110f","getSlashingRate(uint256)":"c138fd3a","hasEventEmission()":"293d860e","hasOffchainSecretComputation()":"b386e359","hasServerKeyStorage()":"ee906dff","hasSlashingMechanism()":"4cd96801","isCompliant(uint8)":"99a52066","isFullyCompliant()":"3034e7cf","normalTimeLock()":"a9f8f713","recordComplianceCheck(uint8,string)":"4b4dbe76","syncTimeLocks()":"45cec836","usesProhibitedAlgorithm(string)":"ba130201"},"id":14}