{"abi":[{"type":"constructor","inputs":[{"name":"initialOwner_","type":"address","internalType":"address"},{"name":"initialEdition_","type":"uint8","internalType":"enum EditionConfig.Edition"}],"stateMutability":"nonpayable"},{"type":"function","name":"FIXED_NODE_COUNT","inputs":[],"outputs":[{"name":"","type":"uint8","internalType":"uint8"}],"stateMutability":"view"},{"type":"function","name":"MAX_DYNAMIC_NODES","inputs":[],"outputs":[{"name":"","type":"uint8","internalType":"uint8"}],"stateMutability":"view"},{"type":"function","name":"MIN_NODES","inputs":[],"outputs":[{"name":"","type":"uint8","internalType":"uint8"}],"stateMutability":"view"},{"type":"function","name":"acceptOwnership","inputs":[],"outputs":[],"stateMutability":"nonpayable"},{"type":"function","name":"calculateBftThreshold","inputs":[],"outputs":[{"name":"","type":"uint8","internalType":"uint8"}],"stateMutability":"view"},{"type":"function","name":"getConsensusType","inputs":[],"outputs":[{"name":"","type":"uint8","internalType":"enum EditionConfig.ConsensusType"}],"stateMutability":"view"},{"type":"function","name":"getEdition","inputs":[],"outputs":[{"name":"","type":"uint8","internalType":"enum EditionConfig.Edition"}],"stateMutability":"view"},{"type":"function","name":"getNodeConfig","inputs":[],"outputs":[{"name":"","type":"tuple","internalType":"struct EditionConfig.NodeConfig","components":[{"name":"minNodes","type":"uint8","internalType":"uint8"},{"name":"maxNodes","type":"uint8","internalType":"uint8"},{"name":"dynamicMembership","type":"bool","internalType":"bool"},{"name":"consensus","type":"uint8","internalType":"enum EditionConfig.ConsensusType"}]}],"stateMutability":"view"},{"type":"function","name":"getProverApprovalMode","inputs":[],"outputs":[{"name":"","type":"uint8","internalType":"enum EditionConfig.ProverApprovalMode"}],"stateMutability":"view"},{"type":"function","name":"getSettings","inputs":[],"outputs":[{"name":"","type":"tuple","internalType":"struct EditionConfig.Settings","components":[{"name":"edition","type":"uint8","internalType":"enum EditionConfig.Edition"},{"name":"nodeConfig","type":"tuple","internalType":"struct EditionConfig.NodeConfig","components":[{"name":"minNodes","type":"uint8","internalType":"uint8"},{"name":"maxNodes","type":"uint8","internalType":"uint8"},{"name":"dynamicMembership","type":"bool","internalType":"bool"},{"name":"consensus","type":"uint8","internalType":"enum EditionConfig.ConsensusType"}]},{"name":"proverApprovalMode","type":"uint8","internalType":"enum EditionConfig.ProverApprovalMode"},{"name":"governanceEnabled","type":"bool","internalType":"bool"}]}],"stateMutability":"view"},{"type":"function","name":"isDecentralized","inputs":[],"outputs":[{"name":"","type":"bool","internalType":"bool"}],"stateMutability":"view"},{"type":"function","name":"isDynamicMembershipEnabled","inputs":[],"outputs":[{"name":"","type":"bool","internalType":"bool"}],"stateMutability":"view"},{"type":"function","name":"isEnterprise","inputs":[],"outputs":[{"name":"","type":"bool","internalType":"bool"}],"stateMutability":"view"},{"type":"function","name":"isGovernanceEnabled","inputs":[],"outputs":[{"name":"","type":"bool","internalType":"bool"}],"stateMutability":"view"},{"type":"function","name":"isNodeConfigChangeValid","inputs":[{"name":"newConfig","type":"tuple","internalType":"struct EditionConfig.NodeConfig","components":[{"name":"minNodes","type":"uint8","internalType":"uint8"},{"name":"maxNodes","type":"uint8","internalType":"uint8"},{"name":"dynamicMembership","type":"bool","internalType":"bool"},{"name":"consensus","type":"uint8","internalType":"enum EditionConfig.ConsensusType"}]}],"outputs":[{"name":"","type":"bool","internalType":"bool"},{"name":"","type":"string","internalType":"string"}],"stateMutability":"view"},{"type":"function","name":"isProverApprovalModeAllowed","inputs":[{"name":"mode","type":"uint8","internalType":"enum EditionConfig.ProverApprovalMode"}],"outputs":[{"name":"","type":"bool","internalType":"bool"}],"stateMutability":"view"},{"type":"function","name":"owner","inputs":[],"outputs":[{"name":"","type":"address","internalType":"address"}],"stateMutability":"view"},{"type":"function","name":"pendingOwner","inputs":[],"outputs":[{"name":"","type":"address","internalType":"address"}],"stateMutability":"view"},{"type":"function","name":"setGovernanceEnabled","inputs":[{"name":"enabled","type":"bool","internalType":"bool"}],"outputs":[],"stateMutability":"nonpayable"},{"type":"function","name":"switchEdition","inputs":[{"name":"newEdition","type":"uint8","internalType":"enum EditionConfig.Edition"}],"outputs":[],"stateMutability":"nonpayable"},{"type":"function","name":"transferOwnership","inputs":[{"name":"newOwner","type":"address","internalType":"address"}],"outputs":[],"stateMutability":"nonpayable"},{"type":"function","name":"updateNodeConfig","inputs":[{"name":"newConfig","type":"tuple","internalType":"struct EditionConfig.NodeConfig","components":[{"name":"minNodes","type":"uint8","internalType":"uint8"},{"name":"maxNodes","type":"uint8","internalType":"uint8"},{"name":"dynamicMembership","type":"bool","internalType":"bool"},{"name":"consensus","type":"uint8","internalType":"enum EditionConfig.ConsensusType"}]}],"outputs":[],"stateMutability":"nonpayable"},{"type":"function","name":"updateProverApprovalMode","inputs":[{"name":"newMode","type":"uint8","internalType":"enum EditionConfig.ProverApprovalMode"}],"outputs":[],"stateMutability":"nonpayable"},{"type":"event","name":"EditionChanged","inputs":[{"name":"oldEdition","type":"uint8","indexed":true,"internalType":"enum EditionConfig.Edition"},{"name":"newEdition","type":"uint8","indexed":true,"internalType":"enum EditionConfig.Edition"},{"name":"changedBy","type":"address","indexed":true,"internalType":"address"}],"anonymous":false},{"type":"event","name":"GovernanceEnabledChanged","inputs":[{"name":"oldValue","type":"bool","indexed":false,"internalType":"bool"},{"name":"newValue","type":"bool","indexed":false,"internalType":"bool"}],"anonymous":false},{"type":"event","name":"NodeConfigChanged","inputs":[{"name":"oldMinNodes","type":"uint8","indexed":false,"internalType":"uint8"},{"name":"oldMaxNodes","type":"uint8","indexed":false,"internalType":"uint8"},{"name":"oldDynamicMembership","type":"bool","indexed":false,"internalType":"bool"},{"name":"oldConsensus","type":"uint8","indexed":false,"internalType":"enum EditionConfig.ConsensusType"},{"name":"newMinNodes","type":"uint8","indexed":false,"internalType":"uint8"},{"name":"newMaxNodes","type":"uint8","indexed":false,"internalType":"uint8"},{"name":"newDynamicMembership","type":"bool","indexed":false,"internalType":"bool"},{"name":"newConsensus","type":"uint8","indexed":false,"internalType":"enum EditionConfig.ConsensusType"}],"anonymous":false},{"type":"event","name":"OwnerChanged","inputs":[{"name":"oldOwner","type":"address","indexed":true,"internalType":"address"},{"name":"newOwner","type":"address","indexed":true,"internalType":"address"}],"anonymous":false},{"type":"event","name":"ProverApprovalModeChanged","inputs":[{"name":"oldMode","type":"uint8","indexed":true,"internalType":"enum EditionConfig.ProverApprovalMode"},{"name":"newMode","type":"uint8","indexed":true,"internalType":"enum EditionConfig.ProverApprovalMode"},{"name":"changedBy","type":"address","indexed":true,"internalType":"address"}],"anonymous":false},{"type":"error","name":"EnterpriseConstraintViolation","inputs":[{"name":"reason","type":"string","internalType":"string"}]},{"type":"error","name":"InvalidEditionTransition","inputs":[{"name":"from","type":"uint8","internalType":"enum EditionConfig.Edition"},{"name":"to","type":"uint8","internalType":"enum EditionConfig.Edition"}]},{"type":"error","name":"InvalidNodeConfig","inputs":[{"name":"reason","type":"string","internalType":"string"}]},{"type":"error","name":"InvalidProverApprovalMode","inputs":[{"name":"edition","type":"uint8","internalType":"enum EditionConfig.Edition"},{"name":"mode","type":"uint8","internalType":"enum EditionConfig.ProverApprovalMode"}]},{"type":"error","name":"SameEdition","inputs":[]},{"type":"error","name":"Unauthorized","inputs":[]},{"type":"error","name":"ZeroAddress","inputs":[]}],"bytecode":{"object":"0x6080346200026557620013e390601f38839003908101601f19168201906001600160401b038211838310176200026a5780839160409586948552833981010312620002655780516001600160a01b0381169190829003620002655760200151906002821015620002655780156200025457600380546001600160a01b0319169190911790556200008f81620002a0565b62000180576200009e62000280565b6004815260208101906004825263ff00000083820160009384825260608401858152620000ca62000280565b9286845285602085015260ff606089860195898752019688885281198954168955511662ff000060015494519251151560101b169251906200010c82620002a0565b6200011782620002a0565b61ff0096879260181b169463ffffffff1916179160081b16171717600155519260048410156200016c575060ff906002549251151560081b1692169061ffff191617176002555b516111219081620002c28239f35b634e487b7160e01b81526021600452602490fd5b6200018a62000280565b6004815260208101906004825263ff000000838201926000938481526060840191858352620001b862000280565b9260019283855286602086015260ff60608a87019686885201978589528582198b5416178a55511662ff0000855494519251151560101b16925190620001fe82620002a0565b6200020982620002a0565b61ff0097889260181b169463ffffffff1916179160081b161717179055519260048410156200016c575060ff906002549251151560081b1692169061ffff191617176002556200015e565b825163d92e233d60e01b8152600490fd5b600080fd5b634e487b7160e01b600052604160045260246000fd5b60405190608082016001600160401b038111838210176200026a57604052565b60021115620002ab57565b634e487b7160e01b600052602160045260246000fdfe608060408181526004908136101561001657600080fd5b600092833560e01c908163110b32c514610c455750806313ac5b5d14610c295780632c74e809146109cb578063421f951514610bfd5780636303e75514610bd6578063630ce9dc14610bac57806379ba509714610b3f57806385b4bb5314610a6e57806388ac828414610a495780638bcaff61146109f95780638da5cb5b146109d05780639e690271146109cb578063a7c7675f14610996578063ab54d50a14610962578063be1dbb2214610802578063bf9af326146107d5578063cb050ae4146103d5578063ce2661f114610342578063ce7851001461031b578063d275f4aa14610229578063e30c397814610201578063eb021ee5146101905763f2fde38b1461012157600080fd5b3461018c57602036600319011261018c5781356001600160a01b0381811692918390036101885760035416330361017a57811561016b575081546001600160a01b03191617905580f35b5163d92e233d60e01b81529050fd5b516282b42960e81b81529050fd5b8480fd5b8280fd5b8382346101fd5760803660031901126101fd576101ab610e16565b918051938492151583526020828185015284518093850152815b8381106101e657505060608094508284010152601f80199101168101030190f35b8086018201518782016060015286945081016101c5565b5080fd5b50903461018c578260031936011261018c575490516001600160a01b03909116815260209150f35b50903461018c57602036600319011261018c57803590808210159283610188576003546001600160a01b0316330361030f5760ff85541661026981610ca9565b156102e2575b506002549260ff84169360ff84169060ff191617600255818410156102cf576102bc575033917f07e433d05f015405ca1cf5264a8d8c3a1bf2dc1113318baf08a25e0ded4a87a28480a480f35b634e487b7160e01b845260219052602483fd5b634e487b7160e01b855260218252602485fd5b849350821561026f5751636aaa3b8d60e01b815290810184905260449161030d906024830190610c65565bfd5b516282b42960e81b8152fd5b8382346101fd57816003193601126101fd5760209060ff60015460101c1690519015158152f35b50903461018c57602036600319011261018c578035908115158092036103d1576003546001600160a01b031633036103c45750907f03fe40fb980b48fd903b4823eec23a9472f0c7ee1ad8a0d086a191a11bda69cd916002549061ff008160081b1661ff001983161760025560ff83519260081c16151582526020820152a180f35b82516282b42960e81b8152fd5b8380fd5b50903461018c57608036600319011261018c576003546001600160a01b031633036107c85760ff908082610407610d5d565b161061078c57610415610d6d565b828061041f610d5d565b169116106107485761042f610d7d565b80610735575b6106df578184541661044681610ca9565b156105e7575b610454610d7d565b806105c7575b6105725750610467610d8c565b8181511690826020820151169160608583015115159201519261048984610ca9565b610491610d5d565b9561049a610d6d565b6104a2610d7d565b926064359860028a101561056e577fd68296dd6fe6e2666380d6a9be9ac29f5f52b7bef98d120aabac4663b83761d89761010097858b9694879551998a5260208a01528801526104f181610ca9565b60608701521660808501521660a0830152151560c082015261051285610ca9565b8460e0820152a1610521610d5d565b16906001549161ff00610532610d6d565b60081b169063ff00000062ff0000610548610d7d565b151560101b169361055881610ca9565b60181b169363ffffffff19161717171760015580f35b8a80fd5b60849060208451916329b1535360e01b8352820152602860248201527f64796e616d6963206d656d626572736869702072657175697265732044594e41604482015267135250d7d410919560c21b6064820152fd5b50606435600281101561018857806105e0600192610ca9565b141561045a565b6105ef610d7d565b61069b5780826105fd610d6d565b16036106615760643560028110156101885761061881610ca9565b1561044c576064906020845191630a51221560e11b8352820152601760248201527f6f6e6c792046495845445f3442465420616c6c6f7765640000000000000000006044820152fd5b6064906020845191630a51221560e11b835282015260136024820152721b585e081b9bd9195cc81b5d5cdd081899480d606a1b6044820152fd5b6064906020845191630a51221560e11b8352820152601e60248201527f64796e616d6963206d656d62657273686970206e6f7420616c6c6f77656400006044820152fd5b60849060208451916329b1535360e01b8352820152602960248201527f6d61784e6f6465732065786365656473206d6178696d756d20666f722064796e604482015268185b5a58c81410919560ba1b6064820152fd5b50601582610741610d6d565b1611610435565b60649060208451916329b1535360e01b8352820152601c60248201527f6d61784e6f646573206d757374206265203e3d206d696e4e6f646573000000006044820152fd5b60649060208451916329b1535360e01b835282015260156024820152741b5a5b939bd9195cc81b5d5cdd081899480f8f480d605a1b6044820152fd5b90516282b42960e81b8152fd5b8382346101fd57816003193601126101fd57600154905160209160181c60ff166107fe81610ca9565b8152f35b503461018c57602036600319011261018c5781359060028210156103d1576003546001600160a01b0316330361017a5783549060ff82169361084384610ca9565b61084c85610ca9565b8385146109545790859161085f85610ca9565b60ff1993841660ff861617835561087585610ca9565b60018514610908575b61088785610ca9565b84156108cd575b5050505061089b82610ca9565b6108a481610ca9565b33917fef8fe43f29d24f2da73af1f7f7cf62143c4e091b84c3b1ffc49f94e469e198778480a480f35b826060926108d9610ce7565b928084526020840152820152015261040463ffffffff196001541617600155600254166002553883818061088e565b7f03fe40fb980b48fd903b4823eec23a9472f0c7ee1ad8a0d086a191a11bda69cd8260025461010161ffff1982161760025560ff82519160081c161515815260016020820152a161087e565b9051631e5979dd60e11b8152fd5b8382346101fd57816003193601126101fd5760809061097f610dcb565b5061099461098b610d8c565b91518092610cb3565bf35b5082346109c85760203660031901126109c8578235928310156109c857506109bf602092610def565b90519015158152f35b80fd5b610c88565b8382346101fd57816003193601126101fd5760035490516001600160a01b039091168152602090f35b5082346109c857806003193601126109c85760026101fe60015460071c16019161ffff91828411610a365760208460ff6003868651931604168152f35b634e487b7160e01b815260118552602490fd5b8382346101fd57816003193601126101fd5760ff60209254169051906107fe81610ca9565b508290346101fd57816003193601126101fd57816060610a8c610ce7565b828152610a97610dcb565b602082015282848201520152610aab610ce7565b9160ff815416610aba81610ca9565b8352610ac4610d8c565b602084019081526002549260ff84168186019387821015610b2c5760e08787610b2288610b17898989845260ff606088019660081c1615158652519551610b0a81610ca9565b8652516020860190610cb3565b5160a0840190610c65565b51151560c0820152f35b634e487b7160e01b815260218852602490fd5b50903461018c578260031936011261018c5780546001600160a01b03808216939092903385900361030f5750600380546001600160a01b0319808216871790925592169055167fb532073b38c83145e3e5135377a08bf9aab55bc0fd7c1179cd4fb995d2a5159c8380a380f35b8382346101fd57816003193601126101fd5760ff602092541690610bcf82610ca9565b5190158152f35b8382346101fd57816003193601126101fd5760209060ff60025460081c1690519015158152f35b8382346101fd57816003193601126101fd57600160ff602093541691610c2283610ca9565b5191148152f35b8382346101fd57816003193601126101fd576020905160158152f35b8490346101fd57816003193601126101fd578061099460209260ff600254165b906004821015610c725752565b634e487b7160e01b600052602160045260246000fd5b34610ca4576000366003190112610ca457602060405160048152f35b600080fd5b60021115610c7257565b6060809160ff815116845260ff6020820151166020850152604081015115156040850152015191610ce383610ca9565b0152565b604051906080820182811067ffffffffffffffff821117610d0757604052565b634e487b7160e01b600052604160045260246000fd5b604051906040820182811067ffffffffffffffff821117610d0757604052565b604051906060820182811067ffffffffffffffff821117610d0757604052565b60043560ff81168103610ca45790565b60243560ff81168103610ca45790565b6044358015158103610ca45790565b610d94610ce7565b9060ff6001548181168452818160081c166020850152818160101c161515604085015260181c16610dc481610ca9565b6060830152565b610dd3610ce7565b9060008252600060208301526000604083015260006060830152565b60ff60005416610dfe81610ca9565b15610e095750600190565b6004811015610c72571590565b6004359060ff8216809203610ca457600482106110ba5760243560ff8116809114159283610ca457811061108057604435908115158214159081610ca4578280611072575b61102357829060009560ff875416610e7281610ca9565b15610f28575b50505061018c5780610f08575b610ec2576040516001926020820167ffffffffffffffff811183821017610eae57604052815290565b634e487b7160e01b82526041600452602482fd5b610eca610d3d565b602881527f64796e616d6963206d656d626572736869702072657175697265732044594e41602082015267135250d7d410919560c21b604082015290565b50606435600281101561018c5780610f21600192610ca9565b1415610e85565b8693509091610fd75761018857600403610fa057606435600281101561018857610f5181610ca9565b610f5d57813880610e78565b5050610f67610d3d565b602381527f456e74657270726973653a206f6e6c792046495845445f3442465420616c6c6f6020820152621dd95960ea1b604082015290565b5050610faa610d1d565b601f81527f456e74657270726973653a206d6178206e6f646573206d757374206265203400602082015290565b50505050610fe3610d3d565b602a81527f456e74657270726973653a2064796e616d6963206d656d62657273686970206e6020820152691bdd08185b1b1bddd95960b21b604082015290565b5050509050600090611033610d3d565b602981527f6d61784e6f6465732065786365656473206d6178696d756d20666f722064796e602082015268185b5a58c81410919560ba1b604082015290565b506000945060158111610e5b565b506000915061108d610d1d565b601c81527f6d61784e6f646573206d757374206265203e3d206d696e4e6f64657300000000602082015290565b600091506110c6610d1d565b60158152741b5a5b939bd9195cc81b5d5cdd081899480f8f480d605a1b60208201529056fea264697066735822122086bff96a94bfaafa3522b22b7fd8d02ef1e1ffea20eeb3a400ef41e875fca85e64736f6c63430008140033","linkReferences":{}},"methodIdentifiers":{"FIXED_NODE_COUNT()":"2c74e809","MAX_DYNAMIC_NODES()":"13ac5b5d","MIN_NODES()":"9e690271","acceptOwnership()":"79ba5097","calculateBftThreshold()":"8bcaff61","getConsensusType()":"bf9af326","getEdition()":"88ac8284","getNodeConfig()":"ab54d50a","getProverApprovalMode()":"110b32c5","getSettings()":"85b4bb53","isDecentralized()":"421f9515","isDynamicMembershipEnabled()":"ce785100","isEnterprise()":"630ce9dc","isGovernanceEnabled()":"6303e755","isNodeConfigChangeValid((uint8,uint8,bool,uint8))":"eb021ee5","isProverApprovalModeAllowed(uint8)":"a7c7675f","owner()":"8da5cb5b","pendingOwner()":"e30c3978","setGovernanceEnabled(bool)":"ce2661f1","switchEdition(uint8)":"be1dbb22","transferOwnership(address)":"f2fde38b","updateNodeConfig((uint8,uint8,bool,uint8))":"cb050ae4","updateProverApprovalMode(uint8)":"d275f4aa"},"id":39}