{"abi":[{"type":"constructor","inputs":[{"name":"_admin","type":"address","internalType":"address"},{"name":"_delay","type":"uint256","internalType":"uint256"}],"stateMutability":"nonpayable"},{"type":"receive","stateMutability":"payable"},{"type":"function","name":"GRACE_PERIOD","inputs":[],"outputs":[{"name":"","type":"uint256","internalType":"uint256"}],"stateMutability":"view"},{"type":"function","name":"MAX_DELAY","inputs":[],"outputs":[{"name":"","type":"uint256","internalType":"uint256"}],"stateMutability":"view"},{"type":"function","name":"MIN_DELAY","inputs":[],"outputs":[{"name":"","type":"uint256","internalType":"uint256"}],"stateMutability":"view"},{"type":"function","name":"acceptAdmin","inputs":[],"outputs":[],"stateMutability":"nonpayable"},{"type":"function","name":"admin","inputs":[],"outputs":[{"name":"","type":"address","internalType":"address"}],"stateMutability":"view"},{"type":"function","name":"cancel","inputs":[{"name":"target","type":"address","internalType":"address"},{"name":"value","type":"uint256","internalType":"uint256"},{"name":"data","type":"bytes","internalType":"bytes"},{"name":"eta","type":"uint256","internalType":"uint256"}],"outputs":[],"stateMutability":"nonpayable"},{"type":"function","name":"cancelBatch","inputs":[{"name":"targets","type":"address[]","internalType":"address[]"},{"name":"values","type":"uint256[]","internalType":"uint256[]"},{"name":"datas","type":"bytes[]","internalType":"bytes[]"},{"name":"eta","type":"uint256","internalType":"uint256"}],"outputs":[],"stateMutability":"nonpayable"},{"type":"function","name":"delay","inputs":[],"outputs":[{"name":"","type":"uint256","internalType":"uint256"}],"stateMutability":"view"},{"type":"function","name":"execute","inputs":[{"name":"target","type":"address","internalType":"address"},{"name":"value","type":"uint256","internalType":"uint256"},{"name":"data","type":"bytes","internalType":"bytes"},{"name":"eta","type":"uint256","internalType":"uint256"}],"outputs":[{"name":"result","type":"bytes","internalType":"bytes"}],"stateMutability":"payable"},{"type":"function","name":"executeBatch","inputs":[{"name":"targets","type":"address[]","internalType":"address[]"},{"name":"values","type":"uint256[]","internalType":"uint256[]"},{"name":"datas","type":"bytes[]","internalType":"bytes[]"},{"name":"eta","type":"uint256","internalType":"uint256"}],"outputs":[{"name":"results","type":"bytes[]","internalType":"bytes[]"}],"stateMutability":"payable"},{"type":"function","name":"getBatchHash","inputs":[{"name":"targets","type":"address[]","internalType":"address[]"},{"name":"values","type":"uint256[]","internalType":"uint256[]"},{"name":"datas","type":"bytes[]","internalType":"bytes[]"},{"name":"eta","type":"uint256","internalType":"uint256"}],"outputs":[{"name":"","type":"bytes32","internalType":"bytes32"}],"stateMutability":"pure"},{"type":"function","name":"getTransaction","inputs":[{"name":"txHash","type":"bytes32","internalType":"bytes32"}],"outputs":[{"name":"","type":"tuple","internalType":"struct ITimelock.TransactionDetail","components":[{"name":"target","type":"address","internalType":"address"},{"name":"value","type":"uint256","internalType":"uint256"},{"name":"data","type":"bytes","internalType":"bytes"},{"name":"eta","type":"uint256","internalType":"uint256"}]}],"stateMutability":"view"},{"type":"function","name":"getTransactionHash","inputs":[{"name":"target","type":"address","internalType":"address"},{"name":"value","type":"uint256","internalType":"uint256"},{"name":"data","type":"bytes","internalType":"bytes"},{"name":"eta","type":"uint256","internalType":"uint256"}],"outputs":[{"name":"","type":"bytes32","internalType":"bytes32"}],"stateMutability":"pure"},{"type":"function","name":"getTransactionState","inputs":[{"name":"txHash","type":"bytes32","internalType":"bytes32"}],"outputs":[{"name":"","type":"uint8","internalType":"enum ITimelock.TransactionState"}],"stateMutability":"view"},{"type":"function","name":"isExpired","inputs":[{"name":"txHash","type":"bytes32","internalType":"bytes32"}],"outputs":[{"name":"","type":"bool","internalType":"bool"}],"stateMutability":"view"},{"type":"function","name":"isQueued","inputs":[{"name":"txHash","type":"bytes32","internalType":"bytes32"}],"outputs":[{"name":"","type":"bool","internalType":"bool"}],"stateMutability":"view"},{"type":"function","name":"isReady","inputs":[{"name":"txHash","type":"bytes32","internalType":"bytes32"}],"outputs":[{"name":"","type":"bool","internalType":"bool"}],"stateMutability":"view"},{"type":"function","name":"pendingAdmin","inputs":[],"outputs":[{"name":"","type":"address","internalType":"address"}],"stateMutability":"view"},{"type":"function","name":"schedule","inputs":[{"name":"target","type":"address","internalType":"address"},{"name":"value","type":"uint256","internalType":"uint256"},{"name":"data","type":"bytes","internalType":"bytes"},{"name":"eta","type":"uint256","internalType":"uint256"}],"outputs":[{"name":"txHash","type":"bytes32","internalType":"bytes32"}],"stateMutability":"nonpayable"},{"type":"function","name":"scheduleBatch","inputs":[{"name":"targets","type":"address[]","internalType":"address[]"},{"name":"values","type":"uint256[]","internalType":"uint256[]"},{"name":"datas","type":"bytes[]","internalType":"bytes[]"},{"name":"eta","type":"uint256","internalType":"uint256"}],"outputs":[{"name":"batchHash","type":"bytes32","internalType":"bytes32"}],"stateMutability":"nonpayable"},{"type":"function","name":"setDelay","inputs":[{"name":"newDelay","type":"uint256","internalType":"uint256"}],"outputs":[],"stateMutability":"nonpayable"},{"type":"function","name":"setPendingAdmin","inputs":[{"name":"newPendingAdmin","type":"address","internalType":"address"}],"outputs":[],"stateMutability":"nonpayable"},{"type":"event","name":"AdminTransferred","inputs":[{"name":"oldAdmin","type":"address","indexed":true,"internalType":"address"},{"name":"newAdmin","type":"address","indexed":true,"internalType":"address"}],"anonymous":false},{"type":"event","name":"BatchCancelled","inputs":[{"name":"batchHash","type":"bytes32","indexed":true,"internalType":"bytes32"}],"anonymous":false},{"type":"event","name":"BatchExecuted","inputs":[{"name":"batchHash","type":"bytes32","indexed":true,"internalType":"bytes32"},{"name":"targets","type":"address[]","indexed":false,"internalType":"address[]"},{"name":"values","type":"uint256[]","indexed":false,"internalType":"uint256[]"},{"name":"datas","type":"bytes[]","indexed":false,"internalType":"bytes[]"}],"anonymous":false},{"type":"event","name":"BatchScheduled","inputs":[{"name":"batchHash","type":"bytes32","indexed":true,"internalType":"bytes32"},{"name":"targets","type":"address[]","indexed":false,"internalType":"address[]"},{"name":"values","type":"uint256[]","indexed":false,"internalType":"uint256[]"},{"name":"datas","type":"bytes[]","indexed":false,"internalType":"bytes[]"},{"name":"eta","type":"uint256","indexed":false,"internalType":"uint256"}],"anonymous":false},{"type":"event","name":"DelayUpdated","inputs":[{"name":"oldDelay","type":"uint256","indexed":false,"internalType":"uint256"},{"name":"newDelay","type":"uint256","indexed":false,"internalType":"uint256"}],"anonymous":false},{"type":"event","name":"PendingAdminSet","inputs":[{"name":"pendingAdmin","type":"address","indexed":true,"internalType":"address"}],"anonymous":false},{"type":"event","name":"TransactionCancelled","inputs":[{"name":"txHash","type":"bytes32","indexed":true,"internalType":"bytes32"}],"anonymous":false},{"type":"event","name":"TransactionExecuted","inputs":[{"name":"txHash","type":"bytes32","indexed":true,"internalType":"bytes32"},{"name":"target","type":"address","indexed":true,"internalType":"address"},{"name":"value","type":"uint256","indexed":false,"internalType":"uint256"},{"name":"data","type":"bytes","indexed":false,"internalType":"bytes"}],"anonymous":false},{"type":"event","name":"TransactionScheduled","inputs":[{"name":"txHash","type":"bytes32","indexed":true,"internalType":"bytes32"},{"name":"target","type":"address","indexed":true,"internalType":"address"},{"name":"value","type":"uint256","indexed":false,"internalType":"uint256"},{"name":"data","type":"bytes","indexed":false,"internalType":"bytes"},{"name":"eta","type":"uint256","indexed":false,"internalType":"uint256"}],"anonymous":false},{"type":"error","name":"AlreadyExecuted","inputs":[]},{"type":"error","name":"AlreadyQueued","inputs":[]},{"type":"error","name":"ArrayLengthMismatch","inputs":[]},{"type":"error","name":"DelayAboveMaximum","inputs":[]},{"type":"error","name":"DelayBelowMinimum","inputs":[]},{"type":"error","name":"DelayNotMet","inputs":[]},{"type":"error","name":"ExecutionFailed","inputs":[]},{"type":"error","name":"InvalidAddress","inputs":[]},{"type":"error","name":"NotAuthorized","inputs":[]},{"type":"error","name":"NotPendingAdmin","inputs":[]},{"type":"error","name":"NotQueued","inputs":[]},{"type":"error","name":"TimeLockNotReady","inputs":[]},{"type":"error","name":"TransactionExpired","inputs":[]},{"type":"error","name":"TransactionWasCancelled","inputs":[]}],"bytecode":{"object":"0x60803462000127576200295490601f38839003908101601f19168201906001600160401b038211838310176200012b5780839160409586948552833981010312620001275780516001600160a01b03811691908290036200012757602001518115620001165762093a808110620001055762278d008111620000f4575f80546001600160a01b03191683178155600282905583517fa580b4a9812995ffed1b336481c3f3bfeb3414df9f587a9d73856bab25aa4eee93859391927ff8ccb027dfcd135e000e9d45e6cc2d662578a8825d4c45b5e32e0adf67e79ec68180a35f82526020820152a1516128149081620001408239f35b82516390a8241560e01b8152600490fd5b82516311fc46b360e01b8152600490fd5b825163e6c4247b60e01b8152600490fd5b5f80fd5b634e487b7160e01b5f52604160045260245ffdfe6080604052600436101561001a575b3615610018575f80fd5b005b5f3560e01c80630dc051f8146101795780630e18b6811461017457806322c176a11461016f578063267822471461016a5780634125ff901461016557806348e2c1b9146101605780634aae13ca1461015b5780634dd18bf51461015657806364f9ad36146101515780636a42b8f81461014c5780636db2feb21461014757806371fe05bf1461014257806374420f4c1461013d5780637a3e7132146101385780639f81aed714610133578063b98a34de1461012e578063c1a287e214610129578063c1b637f214610124578063c71cca161461011f578063e177246e1461011a578063f851a440146101155763fc83e7db0361000e57610f98565b610f71565b610ee5565b610eb5565b610e12565b610df5565b610dd9565b610dbc565b610c77565b610b45565b6109e2565b610865565b610848565b610826565b6107a9565b610681565b610401565b610343565b61031b565b6102f4565b6101dc565b610194565b60209060031901126101905760043590565b5f80fd5b34610190576101a23661017e565b5f52600360205260ff60405f20541660048110156101c857602090600160405191148152f35b634e487b7160e01b5f52602160045260245ffd5b34610190575f366003190112610190576001546001600160a01b038082169133839003610249575f54906bffffffffffffffffffffffff60a01b9084828416175f5516600155167ff8ccb027dfcd135e000e9d45e6cc2d662578a8825d4c45b5e32e0adf67e79ec65f80a3005b60405163058d9a1b60e01b8152600490fd5b9181601f84011215610190578235916001600160401b038311610190576020808501948460051b01011161019057565b906080600319830112610190576001600160401b0360043581811161019057836102b79160040161025b565b9390939260243583811161019057826102d29160040161025b565b93909392604435918211610190576102ec9160040161025b565b909160643590565b346101905760206103136103073661028b565b959490949391936111cd565b604051908152f35b34610190575f366003190112610190576001546040516001600160a01b039091168152602090f35b34610190575f36600319011261019057602060405162278d008152f35b91908251928382525f5b84811061038a575050825f602080949584010152601f8019910116010190565b60208183018101518483018201520161036a565b6020808201906020835283518092526040830192602060408460051b8301019501935f915b8483106103d35750505050505090565b90919293949584806103f1600193603f198682030187528a51610360565b98019301930191949392906103c3565b61040a3661028b565b93949260018060a09894981b035f5416330361062e57808414801590610624575b6106125761043e858389848a89896111cd565b9461045b610454875f52600360205260405f2090565b5460ff1690565b61046481610eab565b80156106005761047381610eab565b600281146105ee5780610487600392610eab565b146105dc578042106105ca5761049c90611205565b42116105b8576104c46104b7865f52600360205260405f2090565b805460ff19166002179055565b6104cd846112d3565b955f5b85811061052457509161052097610511927f2cd6ee6638eca9753a74e2819fc829f0ca7ad54fb91bf5a649f77083b519f048969594604051968796876113fb565b0390a26040519182918261039e565b0390f35b885f8061053a610535858b8b611330565b611345565b610551858961054a828b8b611330565b359661134f565b9094604095610564875180948193611390565b03925af1906105716113b8565b9115610598575090600191610586828b6113e7565b52610591818a6113e7565b50016104d0565b8151156105a85750805190602001fd5b51632b3f6d1160e21b8152600490fd5b6040516338e5e54b60e21b8152600490fd5b604051634019a5d360e01b8152600490fd5b604051630f81591560e41b8152600490fd5b604051630dc1019760e01b8152600490fd5b60405163ccbc0d7160e01b8152600490fd5b60405163512509d360e11b8152600490fd5b508184141561042b565b60405163ea8e4eb560e01b8152600490fd5b6020815260018060a01b03825116602082015260208201516040820152608060606106786040850151838386015260a0850190610360565b93015191015290565b346101905761068f3661017e565b604080519161069d8361118c565b5f83525f60606020948286820152818582015201525f5260048252805f20908051916106c88361118c565b80546001600160a01b031683526001818101548585015282516002830180545f97929390916106f683611435565b8086529260018116908115610776575060011461073a575b5050505090816107256003936105209703826111ac565b83850152015460608301525191829182610640565b5f908152838120939850925b82841061076357505050810190940193806107258161052061070e565b80548585018a0152928801928101610746565b60ff191685870152505050151560051b8201019450806107258161052061070e565b6001600160a01b0381160361019057565b34610190576020366003190112610190576004356107c681610798565b30330361062e576001600160a01b0316801561081457600180546001600160a01b031916821790557fcfa6fb7a59d2f180dc7624ee733c7498c87bef80055a9964fb0fa01cd9d66d6b5f80a2005b60405163e6c4247b60e01b8152600490fd5b3461019057602061083e6108393661017e565b61146d565b6040519015158152f35b34610190575f366003190112610190576020600254604051908152f35b34610190576108733661017e565b5f5260206004815260405f206040519061088c8261118c565b80546001600160a01b03168252600181810154848401526040516002830180545f96929390916108bb83611435565b80865292600181169081156109635750600114610928575b5050505060609291816108ed6003936105209703826111ac565b6040840152015491829101528015159081610916575b5060405190151581529081906020820190565b6109209150611205565b42115f610903565b5f908152838120939750925b8284106109505750505081019093019281816108ed60036108d3565b8054858501890152928701928101610934565b60ff191685870152505050151560051b820101935081816108ed60036108d3565b9060806003198301126101905760043561099d81610798565b91602435916044356001600160401b03928382116101905780602383011215610190578160040135938411610190576024848301011161019057602401919060643590565b34610190576109f036610984565b5f549091906001600160a01b03908116330361062e57851692831561081457610a1b60025442611260565b8310610b1f57610a2e838383888a611772565b94610a44610454875f52600360205260405f2090565b610a4d81610eab565b610b0d57610afa86947fc2281debf3caa04aa2966382929c427d1b4c2a95e1fb29bea2c946b244bc877194610aee6105209a610aa1610a948a5f52600360205260405f2090565b805460ff19166001179055565b610abb610aac61126d565b6001600160a01b039092168252565b856020820152610acc36848961159c565b6040820152836060820152610ae9895f52600460205260405f2090565b611621565b6040519485948561173d565b0390a36040519081529081906020820190565b604051632fc2a3e160e11b8152600490fd5b6040516339d7381360e01b8152600490fd5b906020610b42928181520190610360565b90565b610b4e36610984565b5f546001600160a01b03959394939192908616330361062e57610b748382878786611772565b92610b8a610454855f52600360205260405f2090565b610b9381610eab565b801561060057610ba281610eab565b600281146105ee5780610bb6600392610eab565b146105dc578042106105ca57610bcb90611205565b42116105b857610be66104b7845f52600360205260405f2090565b5f8060405180610bf781868b611390565b039087865af194610c066113b8565b9515610c545791610c4561052097927f8b7b712167f6dc65bddd7d9a42eec3ed7de70db3ffda6e8fbb166195a0fa10cb9460405194859416978461175b565b0390a360405191829182610b31565b8551869015610c6557805190602001fd5b604051632b3f6d1160e21b8152600490fd5b3461019057610c853661028b565b5f5491969095929490916001600160a01b0316330361062e57838314801590610db2575b61061257821561081457610cbf60025442611260565b8610610b1f57610cd4868887878588886111cd565b95610cea610454885f52600360205260405f2090565b610cf381610eab565b610b0d576105209787967f65c6682e997a09a229d3d6e1010778c6f570bb8403a68ae9c6f177e2af8fc3ab96610d9f94610d38610a948b5f52600360205260405f2090565b610d9388610d6489610d5688888888604051978896602088016113fb565b03601f1981018352826111ac565b610d6c61126d565b905f82528a60208301526040820152866060820152610ae98c5f52600460205260405f2090565b60405197889788611135565b0390a26040519081529081906020820190565b5086831415610ca9565b34610190575f36600319011261019057602060405162093a808152f35b34610190576020610313610dec36610984565b93929092611772565b34610190575f366003190112610190576020604051621275008152f35b3461019057610e203661028b565b5f549095919492939291906001600160a01b0316330361062e57610e43966111cd565b805f526003602052600160ff60405f205416610e5e81610eab565b0361060057610e85610e78825f52600360205260405f2090565b805460ff19166003179055565b7fac01c50ce693d1fe783ba60ec0f82ab99f65e62446fffb028e3bd639cd5684d45f80a2005b600411156101c857565b3461019057610ec33661017e565b5f52600360205260ff60405f20541660405160048210156101c8576020918152f35b346101905760203660031901126101905760043530330361062e5762093a808110610f5f5762278d008111610f4d5760407fa580b4a9812995ffed1b336481c3f3bfeb3414df9f587a9d73856bab25aa4eee91600254908060025582519182526020820152a1005b6040516390a8241560e01b8152600490fd5b6040516311fc46b360e01b8152600490fd5b34610190575f366003190112610190575f546040516001600160a01b039091168152602090f35b3461019057610fa636610984565b5f549093919291906001600160a01b0316330361062e57610fc694611772565b805f526003602052600160ff60405f205416610fe181610eab565b0361060057610ffb610e78825f52600360205260405f2090565b7f0891e6c675e964cf1e5982f60fda276ad06301a9221b2f1d7bf2b2a42fbd69a15f80a2005b9190808252602080920192915f5b82811061103d575050505090565b909192938280600192873561105181610798565b848060a01b0316815201950191019291909261102f565b81835290916001600160fb1b0383116101905760209260051b809284830137010190565b908060209392818452848401375f828201840152601f01601f1916010190565b908281815260208091019360208360051b82010194845f925b8584106110d6575050505050505090565b90919293949596601f198282030184528735601e19843603018112156101905783018681019190356001600160401b038111610190578036038313610190576111248892839260019561108c565b9901940194019295949391906110c5565b979695919261117394611157611165936060989660808d5260808d0191611021565b918a830360208c0152611068565b9187830360408901526110ac565b930152565b634e487b7160e01b5f52604160045260245ffd5b608081019081106001600160401b038211176111a757604052565b611178565b90601f801991011681019081106001600160401b038211176111a757604052565b92946111ec94610b42979296610d569460405198899760208901611135565b61189b565b634e487b7160e01b5f52601160045260245ffd5b9062127500820180921161121557565b6111f1565b906001820180921161121557565b906088820180921161121557565b906002820180921161121557565b906003820180921161121557565b906004820180921161121557565b9190820180921161121557565b6040519061127a8261118c565b565b6040519061032082018281106001600160401b038211176111a757604052565b6040519061030082018281106001600160401b038211176111a757604052565b6001600160401b0381116111a75760051b60200190565b906112dd826112bc565b6112ea60405191826111ac565b82815280926112fb601f19916112bc565b01905f5b82811061130b57505050565b8060606020809385010152016112ff565b634e487b7160e01b5f52603260045260245ffd5b91908110156113405760051b0190565b61131c565b35610b4281610798565b91908110156113405760051b81013590601e19813603018212156101905701908135916001600160401b038311610190576020018236038113610190579190565b908092918237015f815290565b6001600160401b0381116111a757601f01601f191660200190565b3d156113e2573d906113c98261139d565b916113d760405193846111ac565b82523d5f602084013e565b606090565b80518210156113405760209160051b010190565b94929093611419610b42979561142794606089526060890191611021565b918683036020880152611068565b9260408185039101526110ac565b90600182811c92168015611463575b602083101461144f57565b634e487b7160e01b5f52602260045260245ffd5b91607f1691611444565b90815f5260206003815260ff60405f2054169261148984610eab565b6001809403611595576114a4905f52600460205260405f2090565b604051916114b18361118c565b81546001600160a01b031683526001820154818401526040516002830180545f9792939290916114e083611435565b80865292600181169081156115745750600114611539575b50505050908161150f6003936060969703826111ac565b604084015201549182910152804210159081611529575090565b6115339150611205565b42111590565b5f908152838120939850925b828410611561575050508101909401938061150f8160606114f8565b80548585018a0152928801928101611545565b60ff191685870152505050151560051b82010194508061150f8160606114f8565b505f925050565b9291926115a88261139d565b916115b660405193846111ac565b829481845281830111610190578281602093845f960137010152565b601f82116115df57505050565b5f5260205f20906020601f840160051c83019310611617575b601f0160051c01905b81811061160c575050565b5f8155600101611601565b90915081906115f8565b815181546001600160a01b0319166001600160a01b039190911617815590600160209060208301516001850155600284019160408401518051926001600160401b0384116111a75761167d846116778754611435565b876115d2565b602092601f85116001146116ca5750508260039593606095936116b5935f926116bf575b50508160011b915f199060031b1c19161790565b90555b0151910155565b015190505f806116a1565b929190601f198516906116e0875f5260205f2090565b945f915b8383106117265750505092600192859260039896606098961061170f575b505050811b0190556116b8565b01515f1983891b60f8161c191690555f8080611702565b8486015187559586019594810194918101916116e4565b9493929160409261117392875260606020880152606087019161108c565b604090610b4294928152816020820152019161108c565b9092936117a96111ec93610b429660405196879560018060a01b0316602087015260408601526080606086015260a085019161108c565b90608083015203601f1981018352826111ac565b604051906103208083018381106001600160401b038211176111a757604052368337565b6040519060a082018281106001600160401b038211176111a75760405260a0368337565b9060888202918083046088149015171561121557565b908160031b918083046008149015171561121557565b600181901b91906001600160ff1b0381160361121557565b908160030291600383040361121557565b908160050291600583040361121557565b5f1981019190821161121557565b908151811015611340570160200190565b9060198110156113405760051b0190565b906118a46117bd565b8251926118c26118bd6118b68661121a565b6088900490565b61121a565b935f915b858310611a6357505050610b4291925061194f6119496001600160401b0360606118f9828651166001600160401b031690565b611918611912846020890151166001600160401b031690565b60401b90565b17611938611932846040890151166001600160401b031690565b60801b90565b17940151166001600160401b031690565b60c01b90565b178060081c9060081b907eff000000ff000000ff000000ff000000ff000000ff000000ff000000ff00007fff000000ff000000ff000000ff000000ff000000ff000000ff000000ff0000007dff000000ff000000ff000000ff000000ff000000ff000000ff000000ff0084167cff000000ff000000ff000000ff000000ff000000ff000000ff000000ff84161760101b931691161760101c177bffffffff00000000ffffffff00000000ffffffff00000000ffffffff7fffffffff00000000ffffffff00000000ffffffff00000000ffffffff000000008260201b169160201c161777ffffffffffffffff0000000000000000ffffffffffffffff80198260401b169160401c16178060801b9060801c1790565b909192611a6f84611805565b5f5b60118110611a8f575050611a86600191611b9c565b930191906118c6565b5f805b60088110611adb575090611ad5600192611abc611aaf848861188a565b516001600160401b031690565b18611ac7838761188a565b906001600160401b03169052565b01611a71565b90600190611afa83611af5611aef8761181b565b88611260565b611260565b88811015611b5057611b29611b23611b15611b48938b611879565b516001600160f81b03191690565b60f81c90565b60ff611b348661181b565b9116906001600160401b03809216901b1690565b179101611a92565b808903611b625750611b486006611b29565b611b73611b6e87611228565b61186b565b03611b8257611b486080611b29565b611b485f611b29565b9060188110156113405760051b0190565b611ba46117bd565b50611bad6117e1565b611bb56117e1565b611bbd61127c565b5f815260016020820152603e6040820152601c6060820152601b6080820152602460a0820152602c60c0820152600660e0820152603761010082015260146101208201526003610140820152600a610160820152602b61018082015260196101a082015260276101c082015260296101e0820152602d610200820152600f61022082015260156102408201526008610260820152601261028082015260026102a0820152603d6102c082015260386102e0820152600e610300820152611c8161129c565b6001815291618082602084015267800000000000808a6040840152678000000080008000606084015261808b6080840152638000000160a084015267800000008000808160c084015267800000000000800960e0840152608a61010084015260886101208401526380008009610140840152638000000a610160840152638000808b61018084015267800000000000008b6101a08401526780000000000080896101c08401526780000000000080036101e084015267800000000000800261020084015267800000000000008061022084015261800a61024084015267800000008000000a6102608401526780000000800080816102808401526780000000000080806102a084015263800000016102c08401526780000000800080086102e08401525f5b60188110611db657505050505090565b611e126001600160401b038751166001600160401b0360a089015116186001600160401b0361014089015116186001600160401b036101e089015116186001600160401b03610280890151161886906001600160401b03169052565b611e746001600160401b036020880151166001600160401b0360c089015116186001600160401b0361016089015116186001600160401b0361020089015116186001600160401b036102a0890151161860208701906001600160401b03169052565b611ed66001600160401b036040880151166001600160401b0360e089015116186001600160401b0361018089015116186001600160401b0361022089015116186001600160401b036102c0890151161860408701906001600160401b03169052565b611f396001600160401b036060880151166001600160401b0361010089015116186001600160401b036101a089015116186001600160401b0361024089015116186001600160401b036102e0890151161860608701906001600160401b03169052565b611f9c6001600160401b036080880151166001600160401b0361012089015116186001600160401b036101c089015116186001600160401b0361026089015116186001600160401b03610300890151161860808701906001600160401b03169052565b611fe56001600160401b03608087015116611fd76001600160401b0360208901511667fffffffffffffffe600182603f1c169160011b161790565b186001600160401b03168352565b61202e6001600160401b0386511661201d6001600160401b0360408901511667fffffffffffffffe600182603f1c169160011b161790565b186001600160401b03166020840152565b61207a6001600160401b036020870151166120696001600160401b0360608901511667fffffffffffffffe600182603f1c169160011b161790565b186001600160401b03166040840152565b6120c66001600160401b036040870151166120b56001600160401b0360808901511667fffffffffffffffe600182603f1c169160011b161790565b186001600160401b03166060840152565b61210f6001600160401b036060870151166120fe6001600160401b0388511667fffffffffffffffe600182603f1c169160011b161790565b186001600160401b03166080840152565b6121386001600160401b038351166001600160401b038851161887906001600160401b03169052565b61216a6001600160401b036020840151166001600160401b036020890151161860208801906001600160401b03169052565b61219c6001600160401b036040840151166001600160401b036040890151161860408801906001600160401b03169052565b6121ce6001600160401b036060840151166001600160401b036060890151161860608801906001600160401b03169052565b6122006001600160401b036080840151166001600160401b036080890151161860808801906001600160401b03169052565b61222f6001600160401b038351166001600160401b0360a0890151161860a08801906001600160401b03169052565b6122616001600160401b036020840151166001600160401b0360c0890151161860c08801906001600160401b03169052565b6122936001600160401b036040840151166001600160401b0360e0890151161860e08801906001600160401b03169052565b6122c76001600160401b036060840151166001600160401b0361010089015116186101008801906001600160401b03169052565b6122fb6001600160401b036080840151166001600160401b0361012089015116186101208801906001600160401b03169052565b61232c6001600160401b038351166001600160401b0361014089015116186101408801906001600160401b03169052565b6123606001600160401b036020840151166001600160401b0361016089015116186101608801906001600160401b03169052565b6123946001600160401b036040840151166001600160401b0361018089015116186101808801906001600160401b03169052565b6123c86001600160401b036060840151166001600160401b036101a089015116186101a08801906001600160401b03169052565b6123fc6001600160401b036080840151166001600160401b036101c089015116186101c08801906001600160401b03169052565b61242d6001600160401b038351166001600160401b036101e089015116186101e08801906001600160401b03169052565b6124616001600160401b036020840151166001600160401b0361020089015116186102008801906001600160401b03169052565b6124956001600160401b036040840151166001600160401b0361022089015116186102208801906001600160401b03169052565b6124c96001600160401b036060840151166001600160401b0361024089015116186102408801906001600160401b03169052565b6124fd6001600160401b036080840151166001600160401b0361026089015116186102608801906001600160401b03169052565b61252e6001600160401b038351166001600160401b0361028089015116186102808801906001600160401b03169052565b6125626001600160401b036020840151166001600160401b036102a089015116186102a08801906001600160401b03169052565b6125966001600160401b036040840151166001600160401b036102c089015116186102c08801906001600160401b03169052565b6125ca6001600160401b036060840151166001600160401b036102e089015116186102e08801906001600160401b03169052565b6125fe6001600160401b036080840151166001600160401b0361030089015116186103008801906001600160401b03169052565b6126066117bd565b5f5b6019811061274657505f5b600581106126515750508061264b612630611aaf60019488611b8b565b6001600160401b038951161888906001600160401b03169052565b01611da6565b8061274061266060019361185a565b611ac761268b8c6001600160401b0361267c611aaf868b61188a565b612691611aaf61268b8861121a565b8c61188a565b906127366126ab611aaf8d6126a58b611236565b9061188a565b94611ac78d6127258b611ac761271f6126df611aaf6126d5611aaf6126cf87611244565b8961188a565b966126a586611252565b9b6126f58c828d1916168b18611ac7868b61188a565b6127128c87831916168c18611ac761270c8761121a565b8b61188a565b8b8d871916161892611236565b8661188a565b86858919161618916126a58b611244565b1916161892611252565b01612613565b6001906127aa89611ac761271f60056127846127a48c61279d89612797611aaf8261279161278a61277b8b84049b8406611831565b6127848c611849565b90611260565b6005900690565b9b61188a565b9261188a565b51906127b0565b9461185a565b01612608565b81156127d9576001600160401b038091168260400360408111611215578183911c16921b161790565b90509056fea264697066735822122060e6a71955cd569649c850a143e1323f01859edb9c54bf211acf688bc75e940964736f6c63430008180033","linkReferences":{}},"methodIdentifiers":{"GRACE_PERIOD()":"c1a287e2","MAX_DELAY()":"4125ff90","MIN_DELAY()":"9f81aed7","acceptAdmin()":"0e18b681","admin()":"f851a440","cancel(address,uint256,bytes,uint256)":"fc83e7db","cancelBatch(address[],uint256[],bytes[],uint256)":"c1b637f2","delay()":"6a42b8f8","execute(address,uint256,bytes,uint256)":"74420f4c","executeBatch(address[],uint256[],bytes[],uint256)":"48e2c1b9","getBatchHash(address[],uint256[],bytes[],uint256)":"22c176a1","getTransaction(bytes32)":"4aae13ca","getTransactionHash(address,uint256,bytes,uint256)":"b98a34de","getTransactionState(bytes32)":"c71cca16","isExpired(bytes32)":"6db2feb2","isQueued(bytes32)":"0dc051f8","isReady(bytes32)":"64f9ad36","pendingAdmin()":"26782247","schedule(address,uint256,bytes,uint256)":"71fe05bf","scheduleBatch(address[],uint256[],bytes[],uint256)":"7a3e7132","setDelay(uint256)":"e177246e","setPendingAdmin(address)":"4dd18bf5"},"id":41}