{"abi":[{"type":"constructor","inputs":[],"stateMutability":"nonpayable"},{"type":"receive","stateMutability":"payable"},{"type":"function","name":"BPS_DENOMINATOR","inputs":[],"outputs":[{"name":"","type":"uint256","internalType":"uint256"}],"stateMutability":"view"},{"type":"function","name":"EMERGENCY_BOND_BPS","inputs":[],"outputs":[{"name":"","type":"uint256","internalType":"uint256"}],"stateMutability":"view"},{"type":"function","name":"EMERGENCY_TIMELOCK","inputs":[],"outputs":[{"name":"","type":"uint256","internalType":"uint256"}],"stateMutability":"view"},{"type":"function","name":"EMERGENCY_TIMEOUT","inputs":[],"outputs":[{"name":"","type":"uint256","internalType":"uint256"}],"stateMutability":"view"},{"type":"function","name":"MIN_EMERGENCY_BOND","inputs":[],"outputs":[{"name":"","type":"uint256","internalType":"uint256"}],"stateMutability":"view"},{"type":"function","name":"NORMAL_TIMELOCK","inputs":[],"outputs":[{"name":"","type":"uint256","internalType":"uint256"}],"stateMutability":"view"},{"type":"function","name":"calculateEmergencyBond","inputs":[{"name":"amount","type":"uint256","internalType":"uint256"}],"outputs":[{"name":"bond","type":"uint256","internalType":"uint256"}],"stateMutability":"pure"},{"type":"function","name":"claim","inputs":[{"name":"txHash","type":"bytes32","internalType":"bytes32"},{"name":"recipient","type":"address","internalType":"address"}],"outputs":[],"stateMutability":"nonpayable"},{"type":"function","name":"emergencyUnlock","inputs":[{"name":"txHash","type":"bytes32","internalType":"bytes32"},{"name":"recipient","type":"address","internalType":"address"}],"outputs":[],"stateMutability":"payable"},{"type":"function","name":"getCPProtectionLevel","inputs":[{"name":"cpNumber","type":"uint8","internalType":"uint8"}],"outputs":[{"name":"","type":"string","internalType":"string"}],"stateMutability":"pure"},{"type":"function","name":"getEmergencyBond","inputs":[{"name":"txHash","type":"bytes32","internalType":"bytes32"}],"outputs":[{"name":"bond","type":"uint256","internalType":"uint256"}],"stateMutability":"view"},{"type":"function","name":"getStateRoot","inputs":[],"outputs":[{"name":"","type":"bytes32","internalType":"bytes32"}],"stateMutability":"view"},{"type":"function","name":"getTransaction","inputs":[{"name":"txHash","type":"bytes32","internalType":"bytes32"}],"outputs":[{"name":"","type":"tuple","internalType":"struct ICoreLayer.BridgeTx","components":[{"name":"txHash","type":"bytes32","internalType":"bytes32"},{"name":"token","type":"address","internalType":"address"},{"name":"amount","type":"uint256","internalType":"uint256"},{"name":"recipient","type":"bytes32","internalType":"bytes32"},{"name":"timestamp","type":"uint256","internalType":"uint256"},{"name":"unlockTime","type":"uint256","internalType":"uint256"},{"name":"isEmergency","type":"bool","internalType":"bool"},{"name":"executed","type":"bool","internalType":"bool"}]}],"stateMutability":"view"},{"type":"function","name":"isLocked","inputs":[{"name":"txHash","type":"bytes32","internalType":"bytes32"}],"outputs":[{"name":"","type":"bool","internalType":"bool"}],"stateMutability":"view"},{"type":"function","name":"lock","inputs":[{"name":"token","type":"address","internalType":"address"},{"name":"amount","type":"uint256","internalType":"uint256"},{"name":"recipient","type":"bytes32","internalType":"bytes32"}],"outputs":[{"name":"txHash","type":"bytes32","internalType":"bytes32"}],"stateMutability":"payable"},{"type":"function","name":"resync","inputs":[{"name":"txHash","type":"bytes32","internalType":"bytes32"},{"name":"newStateRoot","type":"bytes32","internalType":"bytes32"},{"name":"proof","type":"bytes","internalType":"bytes"}],"outputs":[],"stateMutability":"nonpayable"},{"type":"function","name":"unlock","inputs":[{"name":"txHash","type":"bytes32","internalType":"bytes32"},{"name":"proof","type":"bytes","internalType":"bytes"},{"name":"recipient","type":"address","internalType":"address"}],"outputs":[],"stateMutability":"nonpayable"},{"type":"function","name":"verifyCPCompliance","inputs":[],"outputs":[{"name":"","type":"bool","internalType":"bool"}],"stateMutability":"pure"},{"type":"function","name":"verifyState","inputs":[{"name":"stateRoot","type":"bytes32","internalType":"bytes32"},{"name":"proof","type":"bytes","internalType":"bytes"}],"outputs":[{"name":"","type":"bool","internalType":"bool"}],"stateMutability":"pure"},{"type":"event","name":"AssetLocked","inputs":[{"name":"txHash","type":"bytes32","indexed":true,"internalType":"bytes32"},{"name":"sender","type":"address","indexed":true,"internalType":"address"},{"name":"token","type":"address","indexed":true,"internalType":"address"},{"name":"amount","type":"uint256","indexed":false,"internalType":"uint256"},{"name":"recipient","type":"bytes32","indexed":false,"internalType":"bytes32"}],"anonymous":false},{"type":"event","name":"AssetUnlocked","inputs":[{"name":"txHash","type":"bytes32","indexed":true,"internalType":"bytes32"},{"name":"recipient","type":"address","indexed":true,"internalType":"address"},{"name":"amount","type":"uint256","indexed":false,"internalType":"uint256"},{"name":"isEmergency","type":"bool","indexed":false,"internalType":"bool"}],"anonymous":false},{"type":"event","name":"EmergencyBondDeposited","inputs":[{"name":"txHash","type":"bytes32","indexed":true,"internalType":"bytes32"},{"name":"amount","type":"uint256","indexed":false,"internalType":"uint256"}],"anonymous":false},{"type":"event","name":"EmergencyBondReturned","inputs":[{"name":"txHash","type":"bytes32","indexed":true,"internalType":"bytes32"},{"name":"recipient","type":"address","indexed":false,"internalType":"address"},{"name":"amount","type":"uint256","indexed":false,"internalType":"uint256"}],"anonymous":false},{"type":"event","name":"Resynced","inputs":[{"name":"txHash","type":"bytes32","indexed":true,"internalType":"bytes32"},{"name":"newStateRoot","type":"bytes32","indexed":false,"internalType":"bytes32"}],"anonymous":false},{"type":"event","name":"StateRootUpdated","inputs":[{"name":"oldRoot","type":"bytes32","indexed":true,"internalType":"bytes32"},{"name":"newRoot","type":"bytes32","indexed":true,"internalType":"bytes32"}],"anonymous":false},{"type":"event","name":"StateVerified","inputs":[{"name":"stateRoot","type":"bytes32","indexed":true,"internalType":"bytes32"},{"name":"verified","type":"bool","indexed":false,"internalType":"bool"}],"anonymous":false},{"type":"error","name":"CPComplianceFailed","inputs":[{"name":"cpNumber","type":"uint8","internalType":"uint8"}]},{"type":"error","name":"InvalidAmount","inputs":[]},{"type":"error","name":"StateVerificationFailed","inputs":[]},{"type":"error","name":"TimeLockNotExpired","inputs":[{"name":"unlockTime","type":"uint256","internalType":"uint256"},{"name":"currentTime","type":"uint256","internalType":"uint256"}]},{"type":"error","name":"TransactionAlreadyExecuted","inputs":[{"name":"txHash","type":"bytes32","internalType":"bytes32"}]},{"type":"error","name":"TransactionNotFound","inputs":[{"name":"txHash","type":"bytes32","internalType":"bytes32"}]}],"bytecode":{"object":"0x60808060405234610019575f8055611dab908161001e8239f35b5f80fdfe60a080604052600436101561001c575b50361561001a575f80fd5b005b5f3560e01c908163318360a7146118ce5750806332a16f4e146118845780634aae13ca146117775780634ec05d6b1461174d5780635d45f5a11461173257806360d7442b146117155780637f264076146116f85780638be9963a146116d6578063901b0a6b146116ba57806396c144f0146114495780639a146a1514611331578063ca3369c614610315578063cad723ce146102ef578063cd605a1a146102d3578063debde58d1461025b578063e0dbb99e14610212578063e1a45218146101f6578063e734af60146101d95763e93a379f146100f9575f61000f565b346101d55760603660031901126101d5576004356024356044356001600160401b0381116101d55761012f9036906004016119d0565b9050825f52600260205260405f2054156101bc5761014d9082611d1d565b156101aa5760207f1a30e4a209d2df1f7516cd316a4e52641d0b3d93e48c7511e648fb4d0db8df47915f5490805f5580604051927fad0a3d5b8b6cb0d7caca7d3d27b558603c571b923e8d8e5cb9b4ea4e944395945f80a38152a2005b604051635763b59560e11b8152600490fd5b60405163925fea7360e01b815260048101849052602490fd5b5f80fd5b346101d5575f3660031901126101d5576020604051620151808152f35b346101d5575f3660031901126101d55760206040516127108152f35b346101d55760403660031901126101d5576024356001600160401b0381116101d55761025161024760209236906004016119d0565b9050600435611d1d565b6040519015158152f35b346101d5576020806003193601126101d55760043560ff811681036101d55761028390611b38565b6040518092602082528251908160208401525f935b8285106102ba575050604092505f838284010152601f80199101168101030190f35b8481018201518686016040015293810193859350610298565b346101d5575f3660031901126101d55760205f54604051908152f35b346101d55760203660031901126101d557602061030d600435611b05565b604051908152f35b60603660031901126101d5576004356001600160a01b03811681036101d5576024351561068f576001545f1981146107cb5760010180600155604051907f4c9f5e2a1b3d8c7f6e0a9b2d5c8f1e4a7b0c3d6e9f2a5b8c1d4e7f0a3b6c9d2e60208301524660408301526bffffffffffffffffffffffff198360601b166060830152602435607483015260443560948301524260b483015260d482015260d481526103be81611a20565b5f6080526040516103ce81611a3c565b6103203682376080528051600181018082116107cb5760889004916001830183116107cb575f92915b60018301841061072a57846001600160401b0360805151166fffffffffffffffff00000000000000006020608051015160401b161760406080510151906001600160401b0360c01b6060608051015160c01b16916001600160401b0360801b9060801b1617177eff00ff00ff00ff00ff00ff00ff00ff00ff00ff00ff00ff00ff00ff00ff00ff7fff00ff00ff00ff00ff00ff00ff00ff00ff00ff00ff00ff00ff00ff00ff00ff008260081b169160081c16177dffff0000ffff0000ffff0000ffff0000ffff0000ffff0000ffff0000ffff7fffff0000ffff0000ffff0000ffff0000ffff0000ffff0000ffff0000ffff00008260101b169160101c16177bffffffff00000000ffffffff00000000ffffffff00000000ffffffff7fffffffff00000000ffffffff00000000ffffffff00000000ffffffff000000008260201b169160201c161777ffffffffffffffff0000000000000000ffffffffffffffff80198260401b169160401c16178060801b9060801c1760018060a01b038216155f146106a157602435340361068f576020915b60405161059581611a20565b82815283810160018060a01b03831681526006604083019260243584526060810160443581526080820142815260a08301915f835260c08401965f885260e08501965f88528a5f5260028c5260405f2095518655600186019060018060a01b039051166bffffffffffffffffffffffff60a01b82541617905551600285015551600384015551600483015551600582015501915115159060ff61ff0084549251151560081b1692169061ffff1916171790556040519060243582526044358483015260018060a01b031690827fb906e94bf919dbe49a821a12366ac41678794d69ac294b1d63fec8781eae5aff60403393a4604051908152f35b60405163162908e360e11b8152600490fd5b3461068f576040516323b872dd60e01b815233600482015230602480830191909152356044820152916020836064815f6001600160a01b0386165af192831561071f576020936106f2575b50610589565b61071190843d8611610718575b6107098183611a8e565b810190611aaf565b50836106ec565b503d6106ff565b6040513d5f823e3d90fd5b90919293846088810204608814851517156107cb57935f935b6011851015610874575f90815b6008831015610836578660031b878104600814881517156107cb578361077c6107819260888802611a13565b611a13565b858110156107f35786518110156107df5786016020015160f81c905b8360031b91848304600814851517156107cb5760019260ff6001600160401b039216901b1617920191610750565b634e487b7160e01b5f52601160045260245ffd5b634e487b7160e01b5f52603260045260245ffd5b808603610803575060069061079d565b608880860201908160888702116107cb57608760888702019182116107cb570361082f5760809061079d565b5f9061079d565b600192509692969590956001600160401b03908161085684608051611d3b565b5116189061086683608051611d3b565b911690520193949094610743565b935091909161032060405161088881611a3c565b36903760405161089781611a58565b60a03682376040516108a881611a58565b60a0368237604051806103208101106001600160401b036103208301111761131d5761032081016040525f815260016020820152603e6040820152601c6060820152601b6080820152602460a0820152602c60c0820152600660e0820152603761010082015260146101208201526003610140820152600a610160820152602b61018082015260196101a082015260276101c082015260296101e0820152602d610200820152600f61022082015260156102408201526008610260820152601261028082015260026102a0820152603d6102c082015260386102e0820152600e61030082015260405191826103008101106001600160401b036103008501111761131d57610300830160405260018352618082602084015267800000000000808a6040840152678000000080008000606084015261808b6080840152638000000160a084015267800000008000808160c084015267800000000000800960e0840152608a61010084015260886101208401526380008009610140840152638000000a610160840152638000808b61018084015267800000000000008b6101a08401526780000000000080896101c08401526780000000000080036101e084015267800000000000800261020084015267800000000000008061022084015261800a61024084015267800000008000000a6102608401526780000000800080816102808401526780000000000080806102a084015263800000016102c08401526780000000800080086102e08401525f935b60188510610af557505050600192909201949391506103f79050565b93986001600160401b03806080999498939795995151168160a0608051015116188161014060805101511618816101e06080510151161881610280608051015116181685526001600160401b0380808060206080510151168160c06080510151161881610160608051015116188161020060805101511618816102a06080510151161816806020890152818060406080510151168160e06080510151161881610180608051015116188161022060805101511618816102c060805101511618166040890152818060606080510151168161010060805101511618816101a0608051015116188161024060805101511618816102e060805101511618166060890152610c4f8280608080510151168161012060805101511618816101c0608051015116188161026060805101511618816103006080510151161816918260808b015267fffffffffffffffe600182603f1c169160011b161790565b18168088528180885116610c7c8260408b01511667fffffffffffffffe600182603f1c169160011b161790565b181660208901528180602089015116610cae8260608b01511667fffffffffffffffe600182603f1c169160011b161790565b181660408901528180604089015116610ce08260808b01511667fffffffffffffffe600182603f1c169160011b161790565b181660608901528180606089015116610d0f828a511667fffffffffffffffe600182603f1c169160011b161790565b181660808901528160805151161816608051526001600160401b03806020880151168160206080510151161816602060805101526001600160401b03806040880151168160406080510151161816604060805101526001600160401b03806060880151168160606080510151161816606060805101526001600160401b0380608088015116816080805101511618166080805101526001600160401b03808751168160a0608051015116181660a060805101526001600160401b03806020880151168160c0608051015116181660c060805101526001600160401b03806040880151168160e0608051015116181660e060805101526001600160401b038060608801511681610100608051015116181661010060805101526001600160401b038060808801511681610120608051015116181661012060805101526001600160401b038087511681610140608051015116181661014060805101526001600160401b038060208801511681610160608051015116181661016060805101526001600160401b038060408801511681610180608051015116181661018060805101526001600160401b0380606088015116816101a060805101511618166101a060805101526001600160401b0380608088015116816101c060805101511618166101c060805101526001600160401b0380875116816101e060805101511618166101e060805101526001600160401b038060208801511681610200608051015116181661020060805101526001600160401b038060408801511681610220608051015116181661022060805101526001600160401b038060608801511681610240608051015116181661024060805101526001600160401b038060808801511681610260608051015116181661026060805101526001600160401b038087511681610280608051015116181661028060805101526001600160401b0380602088015116816102a060805101511618166102a060805101526001600160401b0380604088015116816102c060805101511618166102c060805101526001600160401b0380606088015116816102e060805101511618166102e060805101526001600160401b038060808801511681610300608051015116181661030060805101526040519861105b8a611a3c565b610320368b375f5b6019811061127b57505f5b60058082101561124857808281020482036107cb5761108f8282028d611d3b565b519082810260018101106107cb576110ac8184026001018e611d3b565b5181840260028101106107cb576110c88285026002018f611d3b565b519184810260038101106107cb576110e68f60038784020190611d3b565b519085810260048101106107cb578f91869283830260040161110791611d3b565b51948383026080519061111991611d3b565b816001600160401b03871619166001600160401b03166001600160401b038916186001600160401b031690528383026001016080519061115891611d3b565b826001600160401b03831619166001600160401b03166001600160401b038716186001600160401b031690528383026002016080519061119791611d3b565b90866001600160401b03841619166001600160401b0316906001600160401b0316186001600160401b03169052828202600301608051906111d791611d3b565b90866001600160401b03871619166001600160401b0316906001600160401b0316186001600160401b03169052026004016080519061121591611d3b565b926001600160401b031619166001600160401b0316906001600160401b0316186001600160401b0316905260010161106e565b5050985098600190979395919692976001600160401b03808260051b870151168160805151161816608051520193610ad9565b600581066001600160ff1b03811690036107cb5760036005820481020460058204036107cb5760056112b781830460030282840660011b611a13565b06906112e36001600160401b036112d083608051611d3b565b51166112dc838d611d3b565b5190611d4c565b60058381020483036107cb576001600160401b036113138e61130d60019660050260058704611a13565b90611d3b565b9116905201611063565b634e487b7160e01b5f52604160045260245ffd5b60403660031901126101d5576004356113486119fd565b90805f52600260205260405f2080541561143057600681019060ff825460081c16611417576002810161137b8154611b05565b341061068f57835f5260036020523460405f205562093a804201928342116107cb577fd39928cd1b0bfab64a4efdeff9408c2c4b3e65ecbdb5da3f4b9c8d8953483dad9360056040940155600160ff19825416179055837fe822ba83fb8e860ea15bc7744c125143cd01680309d7b026cfa26e1e1e2314b660208451348152a2548151908152600160208201526001600160a01b0390941693a3005b6040516331744cb760e01b815260048101849052602490fd5b60405163925fea7360e01b815260048101839052602490fd5b346101d55760403660031901126101d5576004356114656119fd565b815f526020906002825260405f20908154156116a1576006820191825460ff8160081c16611688576005820154801561166a5780421061166a5750855f526004855260ff60405f2054166116515761ff001916610100178355600181015484906001600160a01b0316806115e65750505f808093600282940154905af16114ea611ac7565b50156115ab5760ff905b541680611597575b61150257005b815f526003815260405f20905f825492555f80808085335af1611523611ac7565b501561155e57506040805133815260208101929092527fbb83dbba107388ca7448c18d67469b2472e836270b1689c810e4db428adb27c491a2005b6064906040519062461bcd60e51b825260048201526012602482015271109bdb99081c995d1d5c9b8819985a5b195960721b6044820152fd5b50815f526003815260405f205415156114fc565b60405162461bcd60e51b8152600481018390526013602482015272115512081d1c985b9cd9995c8819985a5b1959606a1b6044820152606490fd5b6002929092015460405163a9059cbb60e01b81526001600160a01b03949094166004850152602484015291929190839060449082905f905af191821561071f5760ff92611634575b506114f4565b61164a90843d8611610718576107098183611a8e565b508461162e565b60405163925fea7360e01b815260048101879052602490fd5b6044906040519063336dc98d60e11b82526004820152426024820152fd5b6040516331744cb760e01b815260048101879052602490fd5b60405163925fea7360e01b815260048101859052602490fd5b346101d5575f3660031901126101d55760206040516101f48152f35b346101d5575f3660031901126101d55760206040516706f05b59d3b200008152f35b346101d5575f3660031901126101d55760206040516203f4808152f35b346101d5575f3660031901126101d557602060405162093a808152f35b346101d5575f3660031901126101d557602060405160018152f35b346101d55760203660031901126101d5576004355f526003602052602060405f2054604051908152f35b346101d55760203660031901126101d5575f60e060405161179781611a20565b8281528260208201528260408201528260608201528260808201528260a08201528260c082015201526004355f52600260205261010060405f20604051906117de82611a20565b80549182815260018060a01b03918260018201541692602083019384526002820154604084019081526003830154906060850191825260048401549260808601938452600660058601549560a0880196875201549660ff60e060c0890198828b1615158a52019860081c1615158852604051988952511660208801525160408701525160608601525160808501525160a084015251151560c083015251151560e0820152f35b346101d55760203660031901126101d5576004355f526002602052602060405f208054151590816118bb575b506040519015158152f35b60ff91506006015460081c1615826118b0565b346101d55760603660031901126101d5576004356024356001600160401b0381116101d5576119019036906004016119d0565b6044356001600160a01b0381169492508490036101d557825f52600260205260405f20918254156119ba5750600682019182549160ff8360081c166119a15761194b905f54611d1d565b156101aa57620151804201908142116107cb577fd39928cd1b0bfab64a4efdeff9408c2c4b3e65ecbdb5da3f4b9c8d8953483dad93604093600293600584015560ff19169055015481519081525f6020820152a3005b6040516331744cb760e01b815260048101869052602490fd5b63925fea7360e01b815260048101849052602490fd5b9181601f840112156101d5578235916001600160401b0383116101d557602083818601950101116101d557565b602435906001600160a01b03821682036101d557565b919082018092116107cb57565b61010081019081106001600160401b0382111761131d57604052565b61032081019081106001600160401b0382111761131d57604052565b60a081019081106001600160401b0382111761131d57604052565b606081019081106001600160401b0382111761131d57604052565b90601f801991011681019081106001600160401b0382111761131d57604052565b908160209103126101d5575180151581036101d55790565b3d15611b00573d906001600160401b03821161131d5760405191611af5601f8201601f191660200184611a8e565b82523d5f602084013e565b606090565b6101f4908181029181830414901517156107cb5761271090046706f05b59d3b2000080821115611b33575090565b905090565b60ff1660018114611ccc5760028114611c805760038114611c2c5760048114611be357600514611b9857604051604081018181106001600160401b0382111761131d57604052600a8152690554e4b4e4f574e2043560b41b602082015290565b604051611ba481611a73565b602981527f5452414e53504152454e4359202d20416c6c206f7065726174696f6e7320656d6020820152686974206576656e747360b81b604082015290565b50604051611bf081611a73565b602681527f534c415348494e47202d2051756164726174696320666f726d756c61204e5e32602082015265202a2031302560d01b604082015290565b50604051611c3981611a73565b603181527f54494d455f4c4f434b53202d20323468206e6f726d616c2c20376420656d657260208201527067656e63792028696d6d757461626c652960781b604082015290565b50604051611c8d81611a73565b602981527f53454c462d435553544f4459202d204e6f2061646d696e206f7665727269646560208201526820706f737369626c6560b81b604082015290565b50604051611cd981611a73565b602e81527f534841332d323536204f4e4c59202d204e6f206b656363616b32353620696e2060208201526d736563757269747920706174687360901b604082015290565b8115611d355715611d2f576020111590565b50600190565b50505f90565b9060198110156107df5760051b0190565b8115611b33576001600160401b0380911682604003604081116107cb578183911c16921b16179056fea264697066735822122036790cc086ecdc41bc93e9e86defe93be31815d8622b6218575569bef6d1cc9164736f6c63430008180033","linkReferences":{}},"methodIdentifiers":{"BPS_DENOMINATOR()":"e1a45218","EMERGENCY_BOND_BPS()":"901b0a6b","EMERGENCY_TIMELOCK()":"60d7442b","EMERGENCY_TIMEOUT()":"7f264076","MIN_EMERGENCY_BOND()":"8be9963a","NORMAL_TIMELOCK()":"e734af60","calculateEmergencyBond(uint256)":"cad723ce","claim(bytes32,address)":"96c144f0","emergencyUnlock(bytes32,address)":"9a146a15","getCPProtectionLevel(uint8)":"debde58d","getEmergencyBond(bytes32)":"4ec05d6b","getStateRoot()":"cd605a1a","getTransaction(bytes32)":"4aae13ca","isLocked(bytes32)":"32a16f4e","lock(address,uint256,bytes32)":"ca3369c6","resync(bytes32,bytes32,bytes)":"e93a379f","unlock(bytes32,bytes,address)":"318360a7","verifyCPCompliance()":"5d45f5a1","verifyState(bytes32,bytes)":"e0dbb99e"},"id":29}