{"abi":[{"type":"function","name":"D","inputs":[],"outputs":[{"name":"","type":"uint256","internalType":"uint256"}],"stateMutability":"view"},{"type":"function","name":"FORS_HEIGHT","inputs":[],"outputs":[{"name":"","type":"uint256","internalType":"uint256"}],"stateMutability":"view"},{"type":"function","name":"FORS_TREES","inputs":[],"outputs":[{"name":"","type":"uint256","internalType":"uint256"}],"stateMutability":"view"},{"type":"function","name":"N","inputs":[],"outputs":[{"name":"","type":"uint256","internalType":"uint256"}],"stateMutability":"view"},{"type":"function","name":"PUBLIC_KEY_SIZE","inputs":[],"outputs":[{"name":"","type":"uint256","internalType":"uint256"}],"stateMutability":"view"},{"type":"function","name":"SIGNATURE_SIZE","inputs":[],"outputs":[{"name":"","type":"uint256","internalType":"uint256"}],"stateMutability":"view"},{"type":"function","name":"SUBTREE_HEIGHT","inputs":[],"outputs":[{"name":"","type":"uint256","internalType":"uint256"}],"stateMutability":"view"},{"type":"function","name":"TREE_HEIGHT","inputs":[],"outputs":[{"name":"","type":"uint256","internalType":"uint256"}],"stateMutability":"view"},{"type":"function","name":"W","inputs":[],"outputs":[{"name":"","type":"uint256","internalType":"uint256"}],"stateMutability":"view"},{"type":"function","name":"WOTS_LEN","inputs":[],"outputs":[{"name":"","type":"uint256","internalType":"uint256"}],"stateMutability":"view"},{"type":"function","name":"WOTS_LEN1","inputs":[],"outputs":[{"name":"","type":"uint256","internalType":"uint256"}],"stateMutability":"view"},{"type":"function","name":"WOTS_LEN2","inputs":[],"outputs":[{"name":"","type":"uint256","internalType":"uint256"}],"stateMutability":"view"},{"type":"function","name":"computePublicKeyHash","inputs":[{"name":"publicKey","type":"bytes","internalType":"bytes"}],"outputs":[{"name":"","type":"bytes32","internalType":"bytes32"}],"stateMutability":"pure"},{"type":"function","name":"getSignatureSize","inputs":[],"outputs":[{"name":"","type":"uint256","internalType":"uint256"}],"stateMutability":"pure"},{"type":"function","name":"isValidPublicKeyFormat","inputs":[{"name":"publicKey","type":"bytes","internalType":"bytes"}],"outputs":[{"name":"","type":"bool","internalType":"bool"}],"stateMutability":"pure"},{"type":"function","name":"supportsInterface","inputs":[{"name":"interfaceId","type":"bytes4","internalType":"bytes4"}],"outputs":[{"name":"","type":"bool","internalType":"bool"}],"stateMutability":"pure"},{"type":"function","name":"verify","inputs":[{"name":"message","type":"bytes32","internalType":"bytes32"},{"name":"signature","type":"bytes","internalType":"bytes"},{"name":"publicKey","type":"bytes","internalType":"bytes"}],"outputs":[{"name":"valid","type":"bool","internalType":"bool"}],"stateMutability":"pure"},{"type":"function","name":"verifyBatch","inputs":[{"name":"messages","type":"bytes32[]","internalType":"bytes32[]"},{"name":"signatures","type":"bytes[]","internalType":"bytes[]"},{"name":"publicKeys","type":"bytes[]","internalType":"bytes[]"}],"outputs":[{"name":"validCount","type":"uint256","internalType":"uint256"}],"stateMutability":"nonpayable"},{"type":"function","name":"verifyWithDetails","inputs":[{"name":"message","type":"bytes32","internalType":"bytes32"},{"name":"signature","type":"bytes","internalType":"bytes"},{"name":"publicKey","type":"bytes","internalType":"bytes"}],"outputs":[{"name":"result","type":"tuple","internalType":"struct SPHINCSVerifier.VerificationResult","components":[{"name":"valid","type":"bool","internalType":"bool"},{"name":"computedRoot","type":"bytes32","internalType":"bytes32"},{"name":"gasUsed","type":"uint256","internalType":"uint256"},{"name":"errorReason","type":"string","internalType":"string"}]}],"stateMutability":"view"},{"type":"event","name":"BatchVerified","inputs":[{"name":"batchSize","type":"uint256","indexed":true,"internalType":"uint256"},{"name":"validCount","type":"uint256","indexed":false,"internalType":"uint256"},{"name":"totalGas","type":"uint256","indexed":false,"internalType":"uint256"}],"anonymous":false},{"type":"event","name":"SignatureVerified","inputs":[{"name":"messageHash","type":"bytes32","indexed":true,"internalType":"bytes32"},{"name":"pubKeyHash","type":"bytes32","indexed":true,"internalType":"bytes32"},{"name":"valid","type":"bool","indexed":false,"internalType":"bool"}],"anonymous":false},{"type":"error","name":"BatchSizeMismatch","inputs":[]},{"type":"error","name":"BatchTooLarge","inputs":[]},{"type":"error","name":"InvalidMessageLength","inputs":[]},{"type":"error","name":"InvalidPublicKeyLength","inputs":[]},{"type":"error","name":"InvalidSignatureLength","inputs":[]},{"type":"error","name":"VerificationFailed","inputs":[{"name":"reason","type":"string","internalType":"string"}]}],"bytecode":{"object":"0x608060405234801561001057600080fd5b50612ea8806100206000396000f3fe608060405234801561001057600080fd5b50600436106101215760003560e01c80635bf48e3a116100ad578063b4c85a7011610071578063b4c85a70146101fc578063ba4935e714610212578063c9e525df14610225578063db62488714610225578063fc378b351461022d57600080fd5b80635bf48e3a146101be5780635d07d80e146101d1578063720ede6a146101d95780637cbdf166146101e1578063a8d03fc5146101e957600080fd5b80632bea81ab116100f45780632bea81ab1461017d578063308ff0c91461019d578063394af6c4146101a6578063436fd968146101ae5780634e731b33146101b657600080fd5b806301ffc9a7146101265780630f529ba21461015f5780631eb6e023146101755780631f9df68514610175575b600080fd5b61014a6101343660046129dc565b6001600160e01b031916633fae272d60e11b1490565b60405190151581526020015b60405180910390f35b610167600781565b604051908152602001610156565b610167602081565b61019061018b366004612a55565b610235565b6040516101569190612af2565b610167611eb081565b610167600c81565b610167603f81565b610167600e81565b61014a6101cc366004612a55565b610373565b610167600981565b610167602381565b611eb0610167565b6101676101f7366004612b4e565b61044c565b61014a61020a366004612b4e565b602014919050565b610167610220366004612bd3565b6104b7565b610167601081565b610167600381565b60408051608081018252600080825260208201819052918101829052606080820152905a9050611eb085146102b7576000825260408051808201909152601881527f496e76616c6964207369676e6174757265206c656e6774680000000000000000602082015260608301525a6102ac9082612c82565b60408301525061036a565b60208314610307576000825260408051808201909152601981527f496e76616c6964207075626c6963206b6579206c656e67746800000000000000602082015260608301525a6102ac9082612c82565b61031487878787876105f8565b151582525a6103239082612c82565b604083015281516103685760408051808201909152601d81527f5369676e617475726520766572696669636174696f6e206661696c6564000000602082015260608301525b505b95945050505050565b6000611eb0841461039757604051634be6321b60e01b815260040160405180910390fd5b602082146103b8576040516318dca5e960e21b815260040160405180910390fd5b60006103c48484610601565b905060006103d5601082888a612c95565b6103de91612cbf565b905060006103f682846000015185602001518c610672565b905060006104128261040b8a6010818e612c95565b87516106c2565b90506000610426828b8b88600001516107f5565b6020909501516001600160801b03199586169516949094149a9950505050505050505050565b60006020821461046f576040516318dca5e960e21b815260040160405180910390fd5b6104ae83838080601f01602080910402602001604051908101604052809392919081815260200183838082843760009201919091525061094b92505050565b90505b92915050565b600085841415806104c85750838214155b156104e6576040516303cccf1f60e41b815260040160405180910390fd5b600a861115610508576040516305beb17160e11b815260040160405180910390fd5b60005a905060005b878110156105a65761058189898381811061052d5761052d612cef565b9050602002013588888481811061054657610546612cef565b90506020028101906105589190612d05565b88888681811061056a5761056a612cef565b905060200281019061057c9190612d05565b6105f8565b15610594578261059081612d4b565b9350505b8061059e81612d4b565b915050610510565b50867f6cedc2bc02d0738da2fff66f7bc5753bdbb34f5aaf4f9c2a71c4d52b661aed07835a6105d59085612c82565b6040805192835260208301919091520160405180910390a2509695505050505050565b6000806103c484845b6040805180820190915260008082526020820152604080518082019091528061062e601060008688612c95565b61063791612cbf565b6001600160801b03191681526020908101906106569060108688612c95565b61065f91612cbf565b6001600160801b03191690529392505050565b6040516000602082018190526001600160801b03198087166021840152808616603184015284166041830152605182018390529061036a906071015b604051602081830303815290604052610c55565b6000806106ce86610c6e565b90506106d8612923565b6000805b600e8110156107de5760008883896106f5826010612d64565b9261070293929190612c95565b61070b91612cbf565b9050610718601084612d64565b9250610722612942565b60005b600c81101561078e578a858b61073c826020612d64565b9261074993929190612c95565b61075291612d77565b8282600c811061076457610764612cef565b60200201818152505060208561077a9190612d64565b94508061078681612d4b565b915050610725565b506107b2828785600e81106107a5576107a5612cef565b6020020151838b87610d78565b8584600e81106107c4576107c4612cef565b6020020152508190506107d681612d4b565b9150506106dc565b506107e98286610e78565b98975050505050505050565b836000610804600c6020612d95565b61080f906010612d64565b61081a90600e612d95565b610825906010612d64565b905060005b60078110156109415761083b612961565b60005b60238110156108a757878488610855826020612d64565b9261086293929190612c95565b61086b91612d77565b82826023811061087d5761087d612cef565b6020020181815250506020846108939190612d64565b93508061089f81612d4b565b91505061083e565b506108b0612980565b60005b600981101561091c578885896108ca826020612d64565b926108d793929190612c95565b6108e091612d77565b8282600981106108f2576108f2612cef565b6020020181815250506020856109089190612d64565b94508061091481612d4b565b9150506108b3565b5061092a8583838987610f15565b94505050808061093990612d4b565b91505061082a565b5050949350505050565b600061095561299f565b825160006088610966836001612d64565b6109709190612dc2565b61097b906001612d64565b905060005b81811015610abd576000610995608883612d95565b905060005b6011811015610a9d576000805b6008811015610a61576000816109be856008612d95565b6109c89087612d64565b6109d29190612d64565b90506000888210156109ff578b82815181106109f0576109f0612cef565b016020015160f81c9050610a37565b888203610a0e57506006610a37565b6001610a1b608888612d64565b610a259190612c82565b8203610a3357506080610a37565b5060005b610a42836008612d95565b60ff909116901b92909217915080610a5981612d4b565b9150506109a7565b5080878360198110610a7557610a75612cef565b602002018051919091186001600160401b031690525080610a9581612d4b565b91505061099a565b50610aa785610fef565b9450508080610ab590612d4b565b915050610980565b5060c083600360200201516001600160401b0316901b608084600260200201516001600160401b0316901b604085600160200201516001600160401b0316901b85600060200201516001600160401b0316171717935061036a847bffffffff000000000000000000000000ffffffff00000000000000007eff000000ff000000ff000000ff000000ff000000ff000000ff000000ff0000600883811c9182167fff000000ff000000ff000000ff000000ff000000ff000000ff000000ff0000009490911b93841617601090811c7cff000000ff000000ff000000ff000000ff000000ff000000ff000000ff9092167dff000000ff000000ff000000ff000000ff000000ff000000ff000000ff009094169390931790921b91909117602081811c9283167fffffffff000000000000000000000000ffffffff0000000000000000000000009290911b91821617604090811c73ffffffff000000000000000000000000ffffffff90931677ffffffff000000000000000000000000ffffffff0000000090921691909117901b17608081811c91901b1790565b600080610c638360206119da565b602001519392505050565b610c76612923565b60005b600e811015610d72576000610c8f600c83612d95565b90506000610c9e600883612dc2565b90506000610cad600884612dd6565b905060006020610cbe846001612d64565b1015610d005786610cd0846001612d64565b60208110610ce057610ce0612cef565b1a6008888560208110610cf557610cf5612cef565b1a901b179050610d1a565b6008878460208110610d1457610d14612cef565b1a901b90505b610d276001611000612c82565b82610d34600c6010612c82565b610d3e9190612c82565b82901c168686600e8110610d5457610d54612cef565b602002015250839250610d6a9150829050612d4b565b915050610c79565b50919050565b604051600160f81b60208201526001600160801b031980841660218301526001600160e01b031960e084811b8216603185015287901b166035830152861660398201526000908190610dcc906049016106ae565b90508560005b600c811015610e6b5760008782600c8110610def57610def612cef565b6020020151905082600116600003610e2b57604051610e24906106ae90600160f91b908a908a9087908a908890602001612dea565b9350610e51565b604051610e4e906106ae90600160f91b908a908a90879087908b90602001612dea565b93505b5060019190911c9080610e6381612d4b565b915050610dd2565b5090979650505050505050565b60408051600360f81b60208201526001600160801b031983166021820152815160118183030181526031909101909152600090815b600e811015610f0357818582600e8110610ec957610ec9612cef565b6020020151604051602001610edf929190612e3a565b60405160208183030381529060405291508080610efb90612d4b565b915050610ead565b50610f0d81610c55565b949350505050565b600080610f2187611c7f565b9050610f2b612961565b60005b6023811015610fc657610f9d888260238110610f4c57610f4c612cef565b6020020151848360238110610f6357610f63612cef565b6020020151858460238110610f7a57610f7a612cef565b6020020151610f8b60016010612c82565b610f959190612c82565b898986611d8b565b828260238110610faf57610faf612cef565b602002015280610fbe81612d4b565b915050610f2e565b506000610fd4828787611e27565b9050610fe281888888611ed0565b9998505050505050505050565b610ff761299f565b816110006129be565b6110086129be565b60006040518061032001604052806000815260200160018152602001603e8152602001601c8152602001601b815260200160248152602001602c815260200160068152602001603781526020016014815260200160038152602001600a8152602001602b8152602001601981526020016027815260200160298152602001602d8152602001600f815260200160158152602001600881526020016012815260200160028152602001603d815260200160388152602001600e8152509050600060405180610300016040528060016001600160401b03166001600160401b031681526020016180826001600160401b03166001600160401b0316815260200167800000000000808a6001600160401b03166001600160401b031681526020016780000000800080006001600160401b03166001600160401b0316815260200161808b6001600160401b03166001600160401b0316815260200163800000016001600160401b03166001600160401b031681526020016780000000800080816001600160401b03166001600160401b031681526020016780000000000080096001600160401b03166001600160401b03168152602001608a6001600160401b03166001600160401b0316815260200160886001600160401b03166001600160401b0316815260200163800080096001600160401b03166001600160401b03168152602001638000000a6001600160401b03166001600160401b03168152602001638000808b6001600160401b03166001600160401b0316815260200167800000000000008b6001600160401b03166001600160401b031681526020016780000000000080896001600160401b03166001600160401b031681526020016780000000000080036001600160401b03166001600160401b031681526020016780000000000080026001600160401b03166001600160401b031681526020016780000000000000806001600160401b03166001600160401b0316815260200161800a6001600160401b03166001600160401b0316815260200167800000008000000a6001600160401b03166001600160401b031681526020016780000000800080816001600160401b03166001600160401b031681526020016780000000000080806001600160401b03166001600160401b0316815260200163800000016001600160401b03166001600160401b031681526020016780000000800080086001600160401b03166001600160401b0316815250905060005b60188110156119ce576102808601516101e087015161014088015160a08901518951181818186001600160401b0390811686526102a087015161020088015161016089015160c08a01516020808c01519091189091189091189091188216908701526102c087015161022088015161018089015160e08a01516040808c01519091189091189091189091188216908701526102e08701516102408801516101a08901516101008a01516060808c01519091189091189091189091188216908701526103008701516102608801516101c08901516101208a01516080808c0151909118909118909118909118909116908601526114a08560015b60200201516001611f39565b6080860151186001600160401b031684526114bc856002611494565b8551186001600160401b031660208501526114d8856003611494565b6020860151186001600160401b031660408501526114f7856004611494565b6040860151186001600160401b03166060850152611516856000611494565b6060808701516001600160401b0392188216608080880191825287518a511884168a5260208881018051918c01805190921886169091526040808a018051918d01805190921887169091528985018051958d01805190961887169095528351928c0180519093188616909252885160a08c01805190911886169052805160c08c01805190911886169052815160e08c0180519091188616905283516101008c0180519091188616905282516101208c0180519091188616905288516101408c0180519091188616905280516101608c0180519091188616905281516101808c0180519091188616905283516101a08c0180519091188616905282516101c08c0180519091188616905288516101e08c0180519091188616905280516102008c0180519091188616905281516102208c0180519091188616905283516102408c0180519091188616905282516102608c0180519091188616905288516102808c01805190911886169052516102a08b01805190911885169052516102c08a0180519091188416905290516102e08901805190911883169052516103008801805190911890911690526116c561299f565b60005b60198110156117a85760006116de600583612dd6565b905060006116ed600584612dc2565b905080600060056116ff836003612d95565b61170a866002612d95565b6117149190612d64565b61171e9190612dd6565b90506117568c866019811061173557611735612cef565b60200201518a876019811061174c5761174c612cef565b6020020151611f39565b86611762836005612d95565b61176c9085612d64565b6019811061177c5761177c612cef565b6001600160401b039092166020929092020152508392506117a09150829050612d4b565b9150506116c8565b5060005b60058110156119955760006117c2826005612d95565b905060008382601981106117d8576117d8612cef565b602002015190506000846117ed846001612d64565b601981106117fd576117fd612cef565b60200201519050600085611812856002612d64565b6019811061182257611822612cef565b60200201519050600086611837866003612d64565b6019811061184757611847612cef565b6020020151905060008761185c876004612d64565b6019811061186c5761186c612cef565b602002015190508284191685188e876019811061188b5761188b612cef565b6001600160401b0390921660209290920201528219821684188e6118b0886001612d64565b601981106118c0576118c0612cef565b6001600160401b0390921660209290920201528119811683188e6118e5886002612d64565b601981106118f5576118f5612cef565b6001600160401b0390921660209290920201528019851682188e61191a886003612d64565b6019811061192a5761192a612cef565b6001600160401b0390921660209290920201528419841681188e61194f886004612d64565b6019811061195f5761195f612cef565b60200201906001600160401b031690816001600160401b031681525050505050505050808061198d90612d4b565b9150506117ac565b508282601881106119a8576119a8612cef565b60200201518751186001600160401b0316875250806119c681612d4b565b91505061139b565b50939695505050505050565b60606119e461299f565b8351600060886119f5836001612d64565b6119ff9190612dc2565b611a0a906001612d64565b905060005b81811015611b4c576000611a24608883612d95565b905060005b6011811015611b2c576000805b6008811015611af057600081611a4d856008612d95565b611a579087612d64565b611a619190612d64565b9050600088821015611a8e578c8281518110611a7f57611a7f612cef565b016020015160f81c9050611ac6565b888203611a9d5750601f611ac6565b6001611aaa608888612d64565b611ab49190612c82565b8203611ac257506080611ac6565b5060005b611ad1836008612d95565b60ff909116901b92909217915080611ae881612d4b565b915050611a36565b5080878360198110611b0457611b04612cef565b602002018051919091186001600160401b031690525080611b2481612d4b565b915050611a29565b50611b3685611f6d565b9450508080611b4490612d4b565b915050611a0f565b50846001600160401b03811115611b6557611b65612e5c565b6040519080825280601f01601f191660200182016040528015611b8f576020820181803683370190505b50935060005b85811015611c755760005b601181108015611baf57508682105b15611c5b576000858260198110611bc857611bc8612cef565b6020020151905060005b600881108015611be157508884105b15611c4657611bf1816008612d95565b6001600160401b038316901c60f81b8885611c0b81612d4b565b965081518110611c1d57611c1d612cef565b60200101906001600160f81b031916908160001a90535080611c3e81612d4b565b915050611bd2565b50508080611c5390612d4b565b915050611ba0565b5085811015611c7057611c6d84611f6d565b93505b611b95565b5050505092915050565b611c87612961565b6000805b6010811015611d62576000848260208110611ca857611ca8612cef565b1a9050600481901c60ff16600f82168186611cc4866002612d95565b60238110611cd457611cd4612cef565b60200201528086611ce6866002612d95565b611cf1906001612d64565b60238110611d0157611d01612cef565b602002015281611d1360016010612c82565b611d1d9190612c82565b611d279086612d64565b945080611d3660016010612c82565b611d409190612c82565b611d4a9086612d64565b94505050508080611d5a90612d4b565b915050611c8b565b50600f600882901c8116610400840152600482901c811661042084015216610440820152919050565b8560005b85811015611e1c57611e08600160fa1b868686611dac868d612d64565b6040516001600160f81b031990951660208601526001600160801b031990931660218501526001600160e01b031960e092831b8116603186015290821b8116603585015291901b166039820152603d8101849052605d016106ae565b915080611e1481612d4b565b915050611d8f565b509695505050505050565b60408051600560f81b60208201526001600160801b03198416602182015260e083901b6001600160e01b0319166031820152815160158183030181526035909101909152600090815b6023811015611ec65781868260238110611e8c57611e8c612cef565b6020020151604051602001611ea2929190612e3a565b60405160208183030381529060405291508080611ebe90612d4b565b915050611e70565b5061036a81610c55565b8360005b6009811015611f30576000858260098110611ef157611ef1612cef565b60200201519050611f1a600660f81b86868587866040516020016106ae96959493929190612dea565b9250508080611f2890612d4b565b915050611ed4565b50949350505050565b600081600003611f4a5750816104b1565b611f55826040612c82565b6001600160401b03841680841b911c17905092915050565b611f7561299f565b81611f7e6129be565b611f866129be565b60006040518061032001604052806000815260200160018152602001603e8152602001601c8152602001601b815260200160248152602001602c815260200160068152602001603781526020016014815260200160038152602001600a8152602001602b8152602001601981526020016027815260200160298152602001602d8152602001600f815260200160158152602001600881526020016012815260200160028152602001603d815260200160388152602001600e8152509050600060405180610300016040528060016001600160401b03166001600160401b031681526020016180826001600160401b03166001600160401b0316815260200167800000000000808a6001600160401b03166001600160401b031681526020016780000000800080006001600160401b03166001600160401b0316815260200161808b6001600160401b03166001600160401b0316815260200163800000016001600160401b03166001600160401b031681526020016780000000800080816001600160401b03166001600160401b031681526020016780000000000080096001600160401b03166001600160401b03168152602001608a6001600160401b03166001600160401b0316815260200160886001600160401b03166001600160401b0316815260200163800080096001600160401b03166001600160401b03168152602001638000000a6001600160401b03166001600160401b03168152602001638000808b6001600160401b03166001600160401b0316815260200167800000000000008b6001600160401b03166001600160401b031681526020016780000000000080896001600160401b03166001600160401b031681526020016780000000000080036001600160401b03166001600160401b031681526020016780000000000080026001600160401b03166001600160401b031681526020016780000000000000806001600160401b03166001600160401b0316815260200161800a6001600160401b03166001600160401b0316815260200167800000008000000a6001600160401b03166001600160401b031681526020016780000000800080816001600160401b03166001600160401b031681526020016780000000000080806001600160401b03166001600160401b0316815260200163800000016001600160401b03166001600160401b031681526020016780000000800080086001600160401b03166001600160401b0316815250905060005b60188110156119ce576102808601516101e087015161014088015160a08901518951181818186001600160401b0390811686526102a087015161020088015161016089015160c08a01516020808c01519091189091189091189091188216908701526102c087015161022088015161018089015160e08a01516040808c01519091189091189091189091188216908701526102e08701516102408801516101a08901516101008a01516060808c01519091189091189091189091188216908701526103008701516102608801516101c08901516101208a01516080808c015190911890911890911890911890911690860152612416856001611494565b6080860151186001600160401b03168452612432856002611494565b8551186001600160401b0316602085015261244e856003611494565b6020860151186001600160401b0316604085015261246d856004611494565b6040860151186001600160401b0316606085015261248c856000611494565b6060808701516001600160401b0392188216608080880191825287518a511884168a5260208881018051918c01805190921886169091526040808a018051918d01805190921887169091528985018051958d01805190961887169095528351928c0180519093188616909252885160a08c01805190911886169052805160c08c01805190911886169052815160e08c0180519091188616905283516101008c0180519091188616905282516101208c0180519091188616905288516101408c0180519091188616905280516101608c0180519091188616905281516101808c0180519091188616905283516101a08c0180519091188616905282516101c08c0180519091188616905288516101e08c0180519091188616905280516102008c0180519091188616905281516102208c0180519091188616905283516102408c0180519091188616905282516102608c0180519091188616905288516102808c01805190911886169052516102a08b01805190911885169052516102c08a0180519091188416905290516102e089018051909118831690525161030088018051909118909116905261263b61299f565b60005b60198110156126fd576000612654600583612dd6565b90506000612663600584612dc2565b90508060006005612675836003612d95565b612680866002612d95565b61268a9190612d64565b6126949190612dd6565b90506126ab8c866019811061173557611735612cef565b866126b7836005612d95565b6126c19085612d64565b601981106126d1576126d1612cef565b6001600160401b039092166020929092020152508392506126f59150829050612d4b565b91505061263e565b5060005b60058110156128ea576000612717826005612d95565b9050600083826019811061272d5761272d612cef565b60200201519050600084612742846001612d64565b6019811061275257612752612cef565b60200201519050600085612767856002612d64565b6019811061277757612777612cef565b6020020151905060008661278c866003612d64565b6019811061279c5761279c612cef565b602002015190506000876127b1876004612d64565b601981106127c1576127c1612cef565b602002015190508284191685188e87601981106127e0576127e0612cef565b6001600160401b0390921660209290920201528219821684188e612805886001612d64565b6019811061281557612815612cef565b6001600160401b0390921660209290920201528119811683188e61283a886002612d64565b6019811061284a5761284a612cef565b6001600160401b0390921660209290920201528019851682188e61286f886003612d64565b6019811061287f5761287f612cef565b6001600160401b0390921660209290920201528419841681188e6128a4886004612d64565b601981106128b4576128b4612cef565b60200201906001600160401b031690816001600160401b03168152505050505050505080806128e290612d4b565b915050612701565b508282601881106128fd576128fd612cef565b60200201518751186001600160401b03168752508061291b81612d4b565b915050612319565b604051806101c00160405280600e906020820280368337509192915050565b604051806101800160405280600c906020820280368337509192915050565b6040518061046001604052806023906020820280368337509192915050565b6040518061012001604052806009906020820280368337509192915050565b6040518061032001604052806019906020820280368337509192915050565b6040518060a001604052806005906020820280368337509192915050565b6000602082840312156129ee57600080fd5b81356001600160e01b031981168114612a0657600080fd5b9392505050565b60008083601f840112612a1f57600080fd5b5081356001600160401b03811115612a3657600080fd5b602083019150836020828501011115612a4e57600080fd5b9250929050565b600080600080600060608688031215612a6d57600080fd5b8535945060208601356001600160401b0380821115612a8b57600080fd5b612a9789838a01612a0d565b90965094506040880135915080821115612ab057600080fd5b50612abd88828901612a0d565b969995985093965092949392505050565b60005b83811015612ae9578181015183820152602001612ad1565b50506000910152565b6020815281511515602082015260208201516040820152604082015160608201526000606083015160808084015280518060a0850152612b398160c0860160208501612ace565b601f01601f19169290920160c0019392505050565b60008060208385031215612b6157600080fd5b82356001600160401b03811115612b7757600080fd5b612b8385828601612a0d565b90969095509350505050565b60008083601f840112612ba157600080fd5b5081356001600160401b03811115612bb857600080fd5b6020830191508360208260051b8501011115612a4e57600080fd5b60008060008060008060608789031215612bec57600080fd5b86356001600160401b0380821115612c0357600080fd5b612c0f8a838b01612b8f565b90985096506020890135915080821115612c2857600080fd5b612c348a838b01612b8f565b90965094506040890135915080821115612c4d57600080fd5b50612c5a89828a01612b8f565b979a9699509497509295939492505050565b634e487b7160e01b600052601160045260246000fd5b818103818111156104b1576104b1612c6c565b60008085851115612ca557600080fd5b83861115612cb257600080fd5b5050820193919092039150565b6001600160801b03198135818116916010851015612ce75780818660100360031b1b83161692505b505092915050565b634e487b7160e01b600052603260045260246000fd5b6000808335601e19843603018112612d1c57600080fd5b8301803591506001600160401b03821115612d3657600080fd5b602001915036819003821315612a4e57600080fd5b600060018201612d5d57612d5d612c6c565b5060010190565b808201808211156104b1576104b1612c6c565b803560208310156104b157600019602084900360031b1b1692915050565b80820281158282048414176104b1576104b1612c6c565b634e487b7160e01b600052601260045260246000fd5b600082612dd157612dd1612dac565b500490565b600082612de557612de5612dac565b500690565b6001600160f81b03199690961686526001600160801b03199490941660018601526001600160e01b031960e093841b811660118701529190921b1660158401526019830152603982015260590190565b60008351612e4c818460208801612ace565b9190910191825250602001919050565b634e487b7160e01b600052604160045260246000fdfea2646970667358221220a1dc4ceec2653444773018759f1a038300f7417950dd9b54b141396f2f231afb64736f6c63430008140033","linkReferences":{}},"methodIdentifiers":{"D()":"0f529ba2","FORS_HEIGHT()":"394af6c4","FORS_TREES()":"4e731b33","N()":"c9e525df","PUBLIC_KEY_SIZE()":"1eb6e023","SIGNATURE_SIZE()":"308ff0c9","SUBTREE_HEIGHT()":"5d07d80e","TREE_HEIGHT()":"436fd968","W()":"db624887","WOTS_LEN()":"720ede6a","WOTS_LEN1()":"1f9df685","WOTS_LEN2()":"fc378b35","computePublicKeyHash(bytes)":"a8d03fc5","getSignatureSize()":"7cbdf166","isValidPublicKeyFormat(bytes)":"b4c85a70","supportsInterface(bytes4)":"01ffc9a7","verify(bytes32,bytes,bytes)":"5bf48e3a","verifyBatch(bytes32[],bytes[],bytes[])":"ba4935e7","verifyWithDetails(bytes32,bytes,bytes)":"2bea81ab"},"id":7}