{"abi":[{"type":"function","name":"D","inputs":[],"outputs":[{"name":"","type":"uint256","internalType":"uint256"}],"stateMutability":"view"},{"type":"function","name":"FORS_HEIGHT","inputs":[],"outputs":[{"name":"","type":"uint256","internalType":"uint256"}],"stateMutability":"view"},{"type":"function","name":"FORS_TREES","inputs":[],"outputs":[{"name":"","type":"uint256","internalType":"uint256"}],"stateMutability":"view"},{"type":"function","name":"N","inputs":[],"outputs":[{"name":"","type":"uint256","internalType":"uint256"}],"stateMutability":"view"},{"type":"function","name":"PUBLIC_KEY_SIZE","inputs":[],"outputs":[{"name":"","type":"uint256","internalType":"uint256"}],"stateMutability":"view"},{"type":"function","name":"SIGNATURE_SIZE","inputs":[],"outputs":[{"name":"","type":"uint256","internalType":"uint256"}],"stateMutability":"view"},{"type":"function","name":"SUBTREE_HEIGHT","inputs":[],"outputs":[{"name":"","type":"uint256","internalType":"uint256"}],"stateMutability":"view"},{"type":"function","name":"TREE_HEIGHT","inputs":[],"outputs":[{"name":"","type":"uint256","internalType":"uint256"}],"stateMutability":"view"},{"type":"function","name":"W","inputs":[],"outputs":[{"name":"","type":"uint256","internalType":"uint256"}],"stateMutability":"view"},{"type":"function","name":"WOTS_LEN","inputs":[],"outputs":[{"name":"","type":"uint256","internalType":"uint256"}],"stateMutability":"view"},{"type":"function","name":"WOTS_LEN1","inputs":[],"outputs":[{"name":"","type":"uint256","internalType":"uint256"}],"stateMutability":"view"},{"type":"function","name":"WOTS_LEN2","inputs":[],"outputs":[{"name":"","type":"uint256","internalType":"uint256"}],"stateMutability":"view"},{"type":"function","name":"computePublicKeyHash","inputs":[{"name":"publicKey","type":"bytes","internalType":"bytes"}],"outputs":[{"name":"","type":"bytes32","internalType":"bytes32"}],"stateMutability":"pure"},{"type":"function","name":"getSignatureSize","inputs":[],"outputs":[{"name":"","type":"uint256","internalType":"uint256"}],"stateMutability":"pure"},{"type":"function","name":"isValidPublicKeyFormat","inputs":[{"name":"publicKey","type":"bytes","internalType":"bytes"}],"outputs":[{"name":"","type":"bool","internalType":"bool"}],"stateMutability":"pure"},{"type":"function","name":"supportsInterface","inputs":[{"name":"interfaceId","type":"bytes4","internalType":"bytes4"}],"outputs":[{"name":"","type":"bool","internalType":"bool"}],"stateMutability":"pure"},{"type":"function","name":"verify","inputs":[{"name":"message","type":"bytes32","internalType":"bytes32"},{"name":"signature","type":"bytes","internalType":"bytes"},{"name":"publicKey","type":"bytes","internalType":"bytes"}],"outputs":[{"name":"valid","type":"bool","internalType":"bool"}],"stateMutability":"pure"},{"type":"function","name":"verifyBatch","inputs":[{"name":"messages","type":"bytes32[]","internalType":"bytes32[]"},{"name":"signatures","type":"bytes[]","internalType":"bytes[]"},{"name":"publicKeys","type":"bytes[]","internalType":"bytes[]"}],"outputs":[{"name":"validCount","type":"uint256","internalType":"uint256"}],"stateMutability":"nonpayable"},{"type":"function","name":"verifyWithDetails","inputs":[{"name":"message","type":"bytes32","internalType":"bytes32"},{"name":"signature","type":"bytes","internalType":"bytes"},{"name":"publicKey","type":"bytes","internalType":"bytes"}],"outputs":[{"name":"result","type":"tuple","internalType":"struct SPHINCSVerifier.VerificationResult","components":[{"name":"valid","type":"bool","internalType":"bool"},{"name":"computedRoot","type":"bytes32","internalType":"bytes32"},{"name":"gasUsed","type":"uint256","internalType":"uint256"},{"name":"errorReason","type":"string","internalType":"string"}]}],"stateMutability":"view"},{"type":"event","name":"BatchVerified","inputs":[{"name":"batchSize","type":"uint256","indexed":true,"internalType":"uint256"},{"name":"validCount","type":"uint256","indexed":false,"internalType":"uint256"},{"name":"totalGas","type":"uint256","indexed":false,"internalType":"uint256"}],"anonymous":false},{"type":"event","name":"SignatureVerified","inputs":[{"name":"messageHash","type":"bytes32","indexed":true,"internalType":"bytes32"},{"name":"pubKeyHash","type":"bytes32","indexed":true,"internalType":"bytes32"},{"name":"valid","type":"bool","indexed":false,"internalType":"bool"}],"anonymous":false},{"type":"error","name":"BatchSizeMismatch","inputs":[]},{"type":"error","name":"BatchTooLarge","inputs":[]},{"type":"error","name":"InvalidMessageLength","inputs":[]},{"type":"error","name":"InvalidPublicKeyLength","inputs":[]},{"type":"error","name":"InvalidSignatureLength","inputs":[]},{"type":"error","name":"VerificationFailed","inputs":[{"name":"reason","type":"string","internalType":"string"}]}],"bytecode":{"object":"0x60808060405234610016576126c9908161001c8239f35b600080fdfe6080604052600436101561001257600080fd5b60003560e01c806301ffc9a7146101385780630f529ba2146101335780631eb6e0231461012e5780631f9df6851461012e5780632bea81ab14610129578063308ff0c914610106578063394af6c414610124578063436fd9681461011f5780634e731b331461011a5780635bf48e3a146101155780635d07d80e14610110578063720ede6a1461010b5780637cbdf16614610106578063a8d03fc514610101578063b4c85a70146100fc578063ba4935e7146100f7578063c9e525df146100f2578063db624887146100f25763fc378b35146100ed57600080fd5b6109d7565b6109bb565b610852565b610806565b6104a9565b6102c0565b610463565b610447565b610331565b610315565b6102f9565b6102dd565b61024d565b610193565b610177565b346101725760203660031901126101725760043563ffffffff60e01b811680910361017257604051633fae272d60e11b9091148152602090f35b600080fd5b3461017257600036600319011261017257602060405160078152f35b34610172576000366003190112610172576020604051818152f35b9181601f84011215610172578235916001600160401b038311610172576020838186019501011161017257565b90606060031983011261017257600435916001600160401b0391602435838111610172578261020c916004016101ae565b9390939260443591821161017257610226916004016101ae565b9091565b60005b83811061023d5750506000910152565b818101518382015260200161022d565b3461017257606060c061026b610262366101db565b93929092610cfa565b604051928391602083528051151560208401526020810151604084015260408101518284015201516080808301526102b2815180928160a08601526020868601910161022a565b601f01601f19168101030190f35b34610172576000366003190112610172576020604051611eb08152f35b34610172576000366003190112610172576020604051600c8152f35b34610172576000366003190112610172576020604051603f8152f35b34610172576000366003190112610172576020604051600e8152f35b346101725761033f366101db565b90611eb0839493036104355760208203610423576103ac94610407946103eb946103e56103d66103b26103786103f8986103eb98610e12565b9561038c61038687876109f3565b90610a36565b87516001600160801b031916602089019d8e516001600160801b03191690565b91610e6d565b6103bd858086610a01565b906103d088516001600160801b03191690565b92611052565b93516001600160801b03191690565b92611281565b6001600160801b03191690565b92516001600160801b03191690565b6040516001600160801b031992909216148152602090f35b0390f35b6040516318dca5e960e21b8152600490fd5b604051634be6321b60e01b8152600490fd5b3461017257600036600319011261017257602060405160098152f35b3461017257600036600319011261017257602060405160238152f35b602060031982011261017257600435906001600160401b03821161017257610226916004016101ae565b34610172576104b73661047f565b9060208203610423576104c982610c34565b916104d76040519384610b9c565b80835236818301116101725780602092838501376000918291840101526104fc610ecc565b91805161051a61051561050e83610fa4565b6088900490565b610fa4565b9280925b8484106106c95761041f6106b9876105a561059f6001600160401b03606061054f828651166001600160401b031690565b61056e610568846020890151166001600160401b031690565b60401b90565b1761058e610588846040890151166001600160401b031690565b60801b90565b17940151166001600160401b031690565b60c01b90565b178060081c9060081b907eff000000ff000000ff000000ff000000ff000000ff000000ff000000ff00007fff000000ff000000ff000000ff000000ff000000ff000000ff000000ff0000007dff000000ff000000ff000000ff000000ff000000ff000000ff000000ff0084167cff000000ff000000ff000000ff000000ff000000ff000000ff000000ff84161760101b931691161760101c177bffffffff00000000ffffffff00000000ffffffff00000000ffffffff7fffffffff00000000ffffffff00000000ffffffff00000000ffffffff000000008260201b169160201c161777ffffffffffffffff0000000000000000ffffffffffffffff80198260401b169160401c16178060801b9060801c1790565b6040519081529081906020820190565b90919293946106d7856111cd565b835b601181106107005750506106ef6106f591611850565b94610a78565b92919094939461051e565b84855b6008811061075157509061074761074c9261072e610721848861182e565b516001600160401b031690565b18610739838761182e565b906001600160401b03169052565b610a78565b6106d9565b906107c6906107718361076c610766876111e3565b88611006565b611006565b898110156107cb576107a061079a61078c6107bf938b61181d565b516001600160f81b03191690565b60f81c90565b60ff6107ab866111e3565b9116906001600160401b03809216901b1690565b1791610a78565b610703565b808a036107dd57506107bf60066107a0565b6107ee6107e987610fb2565b610af8565b036107fd576107bf60806107a0565b6107bf886107a0565b346101725760206108163661047f565b90508160405191148152f35b9181601f84011215610172578235916001600160401b038311610172576020808501948460051b01011161017257565b34610172576060366003190112610172576001600160401b0360048035828111610172576108839036908301610822565b906024358481116101725761089b9036908501610822565b94604435908111610172576108b39036908601610822565b6000929192958786148015906109b1575b6109a257600a861161099357505a96865b86811061093b5761041f88887f6cedc2bc02d0738da2fff66f7bc5753bdbb34f5aaf4f9c2a71c4d52b661aed076109286109108e5a90610b23565b60408051868152602081019290925290918291820190565b0390a26040519081529081906020820190565b61096b610949828989610aa2565b35610955838588610ab7565b61096385888b959495610ab7565b939092610da9565b61097e575b61097990610a78565b6108d5565b9661098b61097991610a78565b979050610970565b6040516305beb17160e11b8152fd5b6040516303cccf1f60e41b8152fd5b50818814156108c4565b3461017257600036600319011261017257602060405160108152f35b3461017257600036600319011261017257602060405160038152f35b906010116101725790601090565b90929192836010116101725783116101725760100191600f190190565b90939293848311610172578411610172578101920390565b6001600160801b03199035818116939260108110610a5357505050565b60100360031b82901b16169150565b634e487b7160e01b600052601160045260246000fd5b6000198114610a875760010190565b610a62565b634e487b7160e01b600052603260045260246000fd5b9190811015610ab25760051b0190565b610a8c565b9190811015610ab25760051b81013590601e19813603018212156101725701908135916001600160401b038311610172576020018236038113610172579190565b600019810191908211610a8757565b6004039060048211610a8757565b600f0390600f8211610a8757565b91908203918211610a8757565b634e487b7160e01b600052604160045260246000fd5b604081019081106001600160401b03821117610b6157604052565b610b30565b606081019081106001600160401b03821117610b6157604052565b608081019081106001600160401b03821117610b6157604052565b90601f801991011681019081106001600160401b03821117610b6157604052565b6040519061032082018281106001600160401b03821117610b6157604052565b6040519061030082018281106001600160401b03821117610b6157604052565b60405190608082018281106001600160401b03821117610b6157604052606080836000815260006020820152600060408201520152565b6001600160401b038111610b6157601f01601f191660200190565b60405190610c5c82610b46565b601882527f496e76616c6964207369676e6174757265206c656e67746800000000000000006020830152565b60405190610c9582610b46565b601982527f496e76616c6964207075626c6963206b6579206c656e677468000000000000006020830152565b60405190610cce82610b46565b601d82527f5369676e617475726520766572696669636174696f6e206661696c65640000006020830152565b919492909394610d08610bfd565b945a93611eb08303610d935760208803610d695792610d3192610d3e96979892610d3795610da9565b15158552565b5a90610b23565b6040830152610d54610d508351151590565b1590565b610d5a57565b610d62610cc1565b6060830152565b50505050610d8b91935060008352610d7f610c88565b60608401525a90610b23565b604082015290565b50505050610d8b91935060008352610d7f610c4f565b93610db5919293610e12565b8260101161017257610e0a906001600160801b031993849384610e01610dec8286511699602087019a848c51169085873516610e6d565b8551831690600f198601906010860190611052565b93511692611281565b169151161490565b90602090604051610e2281610b46565b6000928184809352015280601011610e6957602011610e66575060405190610e4982610b46565b60106001600160801b031991828135168452013516602082015290565b80fd5b5080fd5b929160405193600060208601526001600160801b031992838092166021870152166031850152166041830152605182015260518152608081018181106001600160401b03821117610b6157602091610ec7916040526124a9565b015190565b604051906103208083018381106001600160401b03821117610b6157604052368337565b604051906101c08083018381106001600160401b03821117610b6157604052368337565b604051906101808083018381106001600160401b03821117610b6157604052368337565b604051906104608083018381106001600160401b03821117610b6157604052368337565b604051906101208083018381106001600160401b03821117610b6157604052368337565b6040519060a082018281106001600160401b03821117610b615760405260a0368337565b9060018201809211610a8757565b9060888201809211610a8757565b9060108201809211610a8757565b9060208201809211610a8757565b9060028201809211610a8757565b9060038201809211610a8757565b9060048201809211610a8757565b91908201809211610a8757565b359060208110611021575090565b6000199060200360031b1b1690565b90600c811015610ab25760051b0190565b90600e811015610ab25760051b0190565b909161105c610ef0565b9160005b600e8110611142575050611072610ef0565b92600092835b600e81106110925750505050509061108f916114d5565b90565b866110b36110ad6103866110a589610fc0565b898989610a1e565b96610fc0565b956110bc610f14565b9060005b600c81106110fa57509280926110e5926110f5956110de8489611041565b51906113a2565b6110ef8289611041565b52610a78565b611078565b97611139919293508061112361111d61111561113394610fce565b838c8c610a1e565b90611013565b61112d8b87611030565b52610fce565b97610a78565b908992916110c0565b61114b816111f9565b908160031c916020908161115e85610fa4565b10156111ac5781841015610ab25761117584610fa4565b91821015610ab25761119b60076111a7958780610fff961a911a60081b17925b16610b07565b1c166110ef8287611041565b611060565b9290811015610ab2576111a79261119b600786610fff941a60081b92611195565b90608882029180830460881490151715610a8757565b908160031b9180830460081490151715610a8757565b90600c820291808304600c1490151715610a8757565b908160011b9180830460021490151715610a8757565b600181901b91906001600160ff1b03811603610a8757565b9081600302916003830403610a8757565b9081600502916005830403610a8757565b906023811015610ab25760051b0190565b906009811015610ab25760051b0190565b939260009290916115f05b6007851061129b575050505050565b909192938481976112aa610f38565b60005b6023811061131c57506112be610f5c565b9160005b600981106112ea5750916112db93916112e19593611556565b96610a78565b9392919061128c565b956106ef9193955061131192945061130761111d61111583610fce565b61112d8888611270565b9189939188936112c2565b9461135092945061134a91935061134061111d61133883610fce565b838b8b610a1e565b61112d878661125f565b93610a78565b91869189936112ad565b9391909260599593600160f91b86526001600160801b031916600186015263ffffffff60e01b809260e01b16601186015260e01b166015840152601983015260398201520190565b60408051600160f81b6020808301919091526001600160801b031987811660218401526001600160e01b031960e08a811b8216603186015287901b1660358401529390931660398201526029815292959394939092601f199163ffffffff9190821690849061141b90611416604982610b9c565b6124a9565b015197956000965b600c88106114375750505050505050505090565b8690868986611446828e611030565b5160019e8f8616156000149661148d97611493576114169261148295926114769251958694168c8c8a870161135a565b038a8101835282610b9c565b01519a5b1c97610a78565b96611423565b6114af9491611416936114769251958694168c8c8a870161135a565b01519a611486565b60209291906114cd84928281519485920161022a565b019081520190565b6040908151602093600360f81b858301526001600160801b03191660218201526011815261150281610b46565b906000925b600e841061151b575050610ec791506124a9565b909161154e9061134a61152e8686611041565b519161154085519384928a84016114b7565b03601f198101835282610b9c565b929190611507565b9493929190611563610f38565b95600080915b601083106116085750600f8092508160081c16610400890152818160041c166104208901521661044087015261159d610f38565b9560005b602381106115c0575050506115bb838361108f9697611714565b61178f565b806115f98188886115d4611603968961125f565b516115df848961125f565b516115f36115ed868b61125f565b51610b15565b9161167c565b6110ef828b61125f565b6115a1565b906020831015610ab25761166f610515611663611669611675946116638e8961165d8a821a92611657600f808660041c16951699848661165161164b8e9861120f565b8661125f565b5261120f565b9061125f565b52610b15565b90611006565b91610b15565b92610a78565b9190611569565b959492906000945b83861061169357505050505050565b909192939496878301808411610a875761170261170a9260405190602093600160fa1b858401526001600160801b03198916602184015263ffffffff60e01b9060e08289821b166031860152828d821b1660358601521b166039830152603d9081830152815261141681610b66565b015197610a78565b9493929190611684565b60408051600560f81b6020808301919091526001600160801b0319909416602182015260e09490941b6001600160e01b031916603185015260158452919261175b81610b46565b906000925b60238410611774575050610ec791506124a9565b90916117879061134a61152e868661125f565b929190611760565b9392916000925b600984106117a45750505050565b909192946118159061180d6117b98887611270565b5160405190602093600360f91b858401526001600160801b03198816602184015263ffffffff60e01b8b60e0828a821b1660318701521b166035840152603983015260599081830152815261141681610b81565b015195610a78565b929190611796565b908151811015610ab2570160200190565b906019811015610ab25760051b0190565b906018811015610ab25760051b0190565b611858610ecc565b50611861610f80565b611869610f80565b611871610bbd565b6000815260016020820152603e6040820152601c6060820152601b6080820152602460a0820152602c60c0820152600660e0820152603761010082015260146101208201526003610140820152600a610160820152602b61018082015260196101a082015260276101c082015260296101e0820152602d610200820152600f61022082015260156102408201526008610260820152601261028082015260026102a0820152603d6102c082015260386102e0820152600e610300820152611936610bdd565b6001815291618082602084015267800000000000808a6040840152678000000080008000606084015261808b6080840152638000000160a084015267800000008000808160c084015267800000000000800960e0840152608a61010084015260886101208401526380008009610140840152638000000a610160840152638000808b61018084015267800000000000008b6101a08401526780000000000080896101c08401526780000000000080036101e084015267800000000000800261020084015267800000000000008061022084015261800a61024084015267800000008000000a6102608401526780000000800080816102808401526780000000000080806102a084015263800000016102c08401526780000000800080086102e084015260005b60188110611a6c57505050505090565b611ac86001600160401b038751166001600160401b0360a089015116186001600160401b0361014089015116186001600160401b036101e089015116186001600160401b03610280890151161886906001600160401b03169052565b611b2a6001600160401b036020880151166001600160401b0360c089015116186001600160401b0361016089015116186001600160401b0361020089015116186001600160401b036102a0890151161860208701906001600160401b03169052565b611b8c6001600160401b036040880151166001600160401b0360e089015116186001600160401b0361018089015116186001600160401b0361022089015116186001600160401b036102c0890151161860408701906001600160401b03169052565b611bef6001600160401b036060880151166001600160401b0361010089015116186001600160401b036101a089015116186001600160401b0361024089015116186001600160401b036102e0890151161860608701906001600160401b03169052565b611c526001600160401b036080880151166001600160401b0361012089015116186001600160401b036101c089015116186001600160401b0361026089015116186001600160401b03610300890151161860808701906001600160401b03169052565b611c9b6001600160401b03608087015116611c8d6001600160401b0360208901511667fffffffffffffffe600182603f1c169160011b161790565b186001600160401b03168352565b611ce46001600160401b03865116611cd36001600160401b0360408901511667fffffffffffffffe600182603f1c169160011b161790565b186001600160401b03166020840152565b611d306001600160401b03602087015116611d1f6001600160401b0360608901511667fffffffffffffffe600182603f1c169160011b161790565b186001600160401b03166040840152565b611d7c6001600160401b03604087015116611d6b6001600160401b0360808901511667fffffffffffffffe600182603f1c169160011b161790565b186001600160401b03166060840152565b611dc56001600160401b03606087015116611db46001600160401b0388511667fffffffffffffffe600182603f1c169160011b161790565b186001600160401b03166080840152565b611dee6001600160401b038351166001600160401b038851161887906001600160401b03169052565b611e206001600160401b036020840151166001600160401b036020890151161860208801906001600160401b03169052565b611e526001600160401b036040840151166001600160401b036040890151161860408801906001600160401b03169052565b611e846001600160401b036060840151166001600160401b036060890151161860608801906001600160401b03169052565b611eb66001600160401b036080840151166001600160401b036080890151161860808801906001600160401b03169052565b611ee56001600160401b038351166001600160401b0360a0890151161860a08801906001600160401b03169052565b611f176001600160401b036020840151166001600160401b0360c0890151161860c08801906001600160401b03169052565b611f496001600160401b036040840151166001600160401b0360e0890151161860e08801906001600160401b03169052565b611f7d6001600160401b036060840151166001600160401b0361010089015116186101008801906001600160401b03169052565b611fb16001600160401b036080840151166001600160401b0361012089015116186101208801906001600160401b03169052565b611fe26001600160401b038351166001600160401b0361014089015116186101408801906001600160401b03169052565b6120166001600160401b036020840151166001600160401b0361016089015116186101608801906001600160401b03169052565b61204a6001600160401b036040840151166001600160401b0361018089015116186101808801906001600160401b03169052565b61207e6001600160401b036060840151166001600160401b036101a089015116186101a08801906001600160401b03169052565b6120b26001600160401b036080840151166001600160401b036101c089015116186101c08801906001600160401b03169052565b6120e36001600160401b038351166001600160401b036101e089015116186101e08801906001600160401b03169052565b6121176001600160401b036020840151166001600160401b0361020089015116186102008801906001600160401b03169052565b61214b6001600160401b036040840151166001600160401b0361022089015116186102208801906001600160401b03169052565b61217f6001600160401b036060840151166001600160401b0361024089015116186102408801906001600160401b03169052565b6121b36001600160401b036080840151166001600160401b0361026089015116186102608801906001600160401b03169052565b6121e46001600160401b038351166001600160401b0361028089015116186102808801906001600160401b03169052565b6122186001600160401b036020840151166001600160401b036102a089015116186102a08801906001600160401b03169052565b61224c6001600160401b036040840151166001600160401b036102c089015116186102c08801906001600160401b03169052565b6122806001600160401b036060840151166001600160401b036102e089015116186102e08801906001600160401b03169052565b6122b46001600160401b036080840151166001600160401b0361030089015116186103008801906001600160401b03169052565b6122bc610ecc565b60005b601981106123fe575060005b60058110612309575050806107476122e9610721612304948861183f565b6001600160401b038951161888906001600160401b03169052565b611a5c565b806107476123196123f99361124e565b6107396123448c6001600160401b03612335610721868b61182e565b61234a61072161234488610fa4565b8c61182e565b906123ef6123646107218d61235e8b610fdc565b9061182e565b946107398d6123de8b6107396123d861239861072161238e61072161238887610fea565b8961182e565b9661235e86610ff8565b9b6123ae8c828d1916168b18610739868b61182e565b6123cb8c87831916168c186107396123c587610fa4565b8b61182e565b8b8d871916161892610fdc565b8661182e565b868589191616189161235e8b610fea565b1916161892610ff8565b6122cb565b61245d90610747896107396123d860056116636124578c6124508961244a6107218261244461243d6124348b84049b8406611225565b6116638c61123d565b6005900690565b9b61182e565b9261182e565b5190612462565b9461124e565b6122bf565b811561248b576001600160401b038091168260400360408111610a87578183911c16921b161790565b905090565b6040519061249d82610b46565b60208083523683820137565b906124b2610ecc565b918051906124c561051561050e84610fa4565b906000925b8284106125c757505050506124dd612490565b6000925b602092838510156125c057906000905b60118210806125b7575b1561259e5761250d610721838361182e565b9260005b6008811080612595575b15612581578061255e61254e61254861253661257c956111e3565b6001600160401b03808b1690911c1690565b60ff1690565b60f81b6001600160f81b03191690565b9861257661256b82610a78565b9a60001a918961181d565b53610a78565b612511565b509161258e919350610a78565b90916124f1565b5086881061251b565b919390508410156124e1576125b290611850565b6124e1565b508486106124fb565b9250509150565b909192946125d4866111cd565b60005b601181106125fb5750506125ed6125f391611850565b95610a78565b9291906124ca565b6000805b6008811061262257509061074761261d9261072e610721848861182e565b6125d7565b90612655906126378361076c610766876111e3565b60008882101561265a57506107a061079a61078c6107bf938c61181d565b6125ff565b9088810361266e5750506107bf601f6107a0565b61267a6107e988610fb2565b0361268a57506107bf60806107a0565b6107bf906107a056fea264697066735822122081165816f9ba469a4e37ffda7d29b43aa8a7ae41614d78691c6117d543404fa964736f6c63430008140033","linkReferences":{}},"methodIdentifiers":{"D()":"0f529ba2","FORS_HEIGHT()":"394af6c4","FORS_TREES()":"4e731b33","N()":"c9e525df","PUBLIC_KEY_SIZE()":"1eb6e023","SIGNATURE_SIZE()":"308ff0c9","SUBTREE_HEIGHT()":"5d07d80e","TREE_HEIGHT()":"436fd968","W()":"db624887","WOTS_LEN()":"720ede6a","WOTS_LEN1()":"1f9df685","WOTS_LEN2()":"fc378b35","computePublicKeyHash(bytes)":"a8d03fc5","getSignatureSize()":"7cbdf166","isValidPublicKeyFormat(bytes)":"b4c85a70","supportsInterface(bytes4)":"01ffc9a7","verify(bytes32,bytes,bytes)":"5bf48e3a","verifyBatch(bytes32[],bytes[],bytes[])":"ba4935e7","verifyWithDetails(bytes32,bytes,bytes)":"2bea81ab"},"id":27}