{"abi":[{"type":"constructor","inputs":[{"name":"_sphincsVerifier","type":"address","internalType":"address"}],"stateMutability":"nonpayable"},{"type":"function","name":"DEFAULT_THRESHOLD","inputs":[],"outputs":[{"name":"","type":"uint256","internalType":"uint256"}],"stateMutability":"view"},{"type":"function","name":"PUBLIC_KEY_SIZE","inputs":[],"outputs":[{"name":"","type":"uint256","internalType":"uint256"}],"stateMutability":"view"},{"type":"function","name":"SECURITY_LEVEL","inputs":[],"outputs":[{"name":"","type":"uint256","internalType":"uint256"}],"stateMutability":"view"},{"type":"function","name":"SIGNATURE_SIZE","inputs":[],"outputs":[{"name":"","type":"uint256","internalType":"uint256"}],"stateMutability":"view"},{"type":"function","name":"computePublicKeyHash","inputs":[{"name":"publicKey","type":"bytes","internalType":"bytes"}],"outputs":[{"name":"","type":"bytes32","internalType":"bytes32"}],"stateMutability":"pure"},{"type":"function","name":"getPublicKeySize","inputs":[],"outputs":[{"name":"","type":"uint256","internalType":"uint256"}],"stateMutability":"pure"},{"type":"function","name":"getSPHINCSVerifier","inputs":[],"outputs":[{"name":"","type":"address","internalType":"address"}],"stateMutability":"view"},{"type":"function","name":"getSignatureSize","inputs":[],"outputs":[{"name":"","type":"uint256","internalType":"uint256"}],"stateMutability":"pure"},{"type":"function","name":"isValidPublicKeyFormat","inputs":[{"name":"publicKey","type":"bytes","internalType":"bytes"}],"outputs":[{"name":"","type":"bool","internalType":"bool"}],"stateMutability":"pure"},{"type":"function","name":"securityLevel","inputs":[],"outputs":[{"name":"","type":"uint256","internalType":"uint256"}],"stateMutability":"pure"},{"type":"function","name":"sphincsVerifier","inputs":[],"outputs":[{"name":"","type":"address","internalType":"contract SPHINCSVerifier"}],"stateMutability":"view"},{"type":"function","name":"verifyMultiSPHINCS","inputs":[{"name":"message","type":"bytes32","internalType":"bytes32"},{"name":"signatures","type":"bytes[]","internalType":"bytes[]"},{"name":"publicKeys","type":"bytes[]","internalType":"bytes[]"},{"name":"threshold","type":"uint256","internalType":"uint256"}],"outputs":[{"name":"valid","type":"bool","internalType":"bool"},{"name":"validCount","type":"uint256","internalType":"uint256"}],"stateMutability":"view"},{"type":"function","name":"verifySPHINCS","inputs":[{"name":"message","type":"bytes32","internalType":"bytes32"},{"name":"signature","type":"bytes","internalType":"bytes"},{"name":"publicKey","type":"bytes","internalType":"bytes"}],"outputs":[{"name":"valid","type":"bool","internalType":"bool"}],"stateMutability":"view"},{"type":"function","name":"verifySPHINCSWithDetails","inputs":[{"name":"message","type":"bytes32","internalType":"bytes32"},{"name":"signature","type":"bytes","internalType":"bytes"},{"name":"publicKey","type":"bytes","internalType":"bytes"}],"outputs":[{"name":"result","type":"tuple","internalType":"struct ICoreVerifier.VerificationResult","components":[{"name":"valid","type":"bool","internalType":"bool"},{"name":"pubKeyHash","type":"bytes32","internalType":"bytes32"},{"name":"gasUsed","type":"uint256","internalType":"uint256"},{"name":"errorReason","type":"string","internalType":"string"}]}],"stateMutability":"view"},{"type":"function","name":"verifyTwoOfFive","inputs":[{"name":"message","type":"bytes32","internalType":"bytes32"},{"name":"signatures","type":"bytes[]","internalType":"bytes[]"},{"name":"publicKeys","type":"bytes[]","internalType":"bytes[]"}],"outputs":[{"name":"valid","type":"bool","internalType":"bool"}],"stateMutability":"view"},{"type":"event","name":"MultiSignatureVerified","inputs":[{"name":"messageHash","type":"bytes32","indexed":true,"internalType":"bytes32"},{"name":"validCount","type":"uint256","indexed":false,"internalType":"uint256"},{"name":"threshold","type":"uint256","indexed":false,"internalType":"uint256"}],"anonymous":false},{"type":"event","name":"SignatureVerified","inputs":[{"name":"messageHash","type":"bytes32","indexed":true,"internalType":"bytes32"},{"name":"pubKeyHash","type":"bytes32","indexed":true,"internalType":"bytes32"},{"name":"valid","type":"bool","indexed":false,"internalType":"bool"}],"anonymous":false},{"type":"error","name":"ArrayLengthMismatch","inputs":[]},{"type":"error","name":"InvalidPublicKeyLength","inputs":[{"name":"provided","type":"uint256","internalType":"uint256"},{"name":"expected","type":"uint256","internalType":"uint256"}]},{"type":"error","name":"InvalidSignatureLength","inputs":[{"name":"provided","type":"uint256","internalType":"uint256"},{"name":"expected","type":"uint256","internalType":"uint256"}]},{"type":"error","name":"ThresholdNotMet","inputs":[{"name":"validCount","type":"uint256","internalType":"uint256"},{"name":"required","type":"uint256","internalType":"uint256"}]},{"type":"error","name":"VerificationFailed","inputs":[]}],"bytecode":{"object":"0x60a0346100c857601f611c8338819003918201601f19168301916001600160401b038311848410176100cd578084926020946040528339810103126100c857516001600160a01b038116908190036100c857801561009457608052604051611b9f90816100e4823960805181818160dd0152818161029e0152818161056701528181610779015281816109820152610be60152f35b60405162461bcd60e51b815260206004820152600c60248201526b5a65726f206164647265737360a01b6044820152606490fd5b600080fd5b634e487b7160e01b600052604160045260246000fdfe60e060408181526004918236101561001657600080fd5b600092833560e01c91826312668c2214610553575081631eb6e02314610538578163229cf631146104cd578163308ff0c9146103f957816346b4c339146104a557816358afbfff146101875781636a6ce28a146104165781637cbdf166146103f9578163848e91551461023c578163a8d03fc5146101a3578163ac38d76214610187578163b4c85a701461014557508063b77996f21461012b578063b81cab4b146101105763dd365c28146100ca57600080fd5b3461010c578160031936011261010c57517f00000000000000000000000000000000000000000000000000000000000000006001600160a01b03168152602090f35b5080fd5b503461010c578160031936011261010c576020905160028152f35b503461010c578160031936011261010c5760209051818152f35b828434610184576020366003190112610184578235906001600160401b038211610184575061017a60209384923691016105cb565b9290505191148152f35b80fd5b50503461010c578160031936011261010c576020905160808152f35b90508234610184576020366003190112610184578135906001600160401b03821161018457506101d690369083016105cb565b9091602082036101fd576020846101f66101f1368688610838565b610d3f565b9051908152f35b606490602085519162461bcd60e51b83528201526019602482015278092dcecc2d8d2c840e0eac4d8d2c640d6caf240d8cadccee8d603b1b6044820152fd5b919050346103f55760603660031901126103f5578135602435936001600160401b039485811161010c576102739036908601610596565b90956044359081116103f55761028c9036908701610596565b9590948683036103e8579495929485937f00000000000000000000000000000000000000000000000000000000000000006001600160a01b031690855b858110806103de575b156103d057808886848d8f611eb06102ec8d988984610b78565b9050148015906103b9575b6103aa578561030e81610336989961031694610b78565b949093610b78565b8a969196519687948594632dfa471d60e11b865260209889988701610709565b0381885afa9182918a9361037b575b505061035b575b5061035690610b69565b6102c9565b610366575b3861034c565b9761037361035691610b69565b989050610360565b61039b929350803d106103a3575b61039381836106af565b8101906106d0565b903880610345565b503d610389565b50505050506103569150610b69565b5060206103c7878585610b78565b905014156102f7565b602089600286519110158152f35b50600289106102d2565b5163512509d360e11b8152fd5b8280fd5b50503461010c578160031936011261010c5760209051611eb08152f35b50503461010c579060609161043661042d366105f8565b939290926108ec565b90805193849260209283855281511515848601528382015181860152810151828501520151926080808401528351918260a0850152815b83811061048e57505060c08094508284010152601f80199101168101030190f35b80860182015187820160c00152869450810161046d565b50503461010c576020906104c46104bb366105f8565b93929092610738565b90519015158152f35b9050346103f55760803660031901126103f5576001600160401b039260243584811161010c576105009036908401610596565b91604435958611610184575061051d61052a949536908501610596565b9290916064359435610bcf565b825191151582526020820152f35b50503461010c578160031936011261010c5760209051818152f35b84903461010c578160031936011261010c577f00000000000000000000000000000000000000000000000000000000000000006001600160a01b03168152602090f35b9181601f840112156105c6578235916001600160401b0383116105c6576020808501948460051b0101116105c657565b600080fd5b9181601f840112156105c6578235916001600160401b0383116105c657602083818601950101116105c657565b9060606003198301126105c657600435916001600160401b03916024358381116105c65782610629916004016105cb565b939093926044359182116105c657610643916004016105cb565b9091565b604081019081106001600160401b0382111761066257604052565b634e487b7160e01b600052604160045260246000fd5b61032081019081106001600160401b0382111761066257604052565b60a081019081106001600160401b0382111761066257604052565b90601f801991011681019081106001600160401b0382111761066257604052565b908160209103126105c6575180151581036105c65790565b908060209392818452848401376000828201840152601f01601f1916010190565b939161073595936107279286526060602087015260608601916106e8565b9260408185039101526106e8565b90565b909192949394611eb08085036107f75750602086036107d7576020939495610775916040519687958695632dfa471d60e11b875260048701610709565b03817f00000000000000000000000000000000000000000000000000000000000000006001600160a01b03165afa600091816107b7575b506107355750600090565b6107d091925060203d81116103a35761039381836106af565b90386107ac565b604051631ffa36a360e11b81526004810187905260206024820152604490fd5b8460449160405191636b0aeb8360e11b835260048301526024820152fd5b9190820391821161082257565b634e487b7160e01b600052601160045260246000fd5b9291926001600160401b0382116106625760405191610861601f8201601f1916602001846106af565b8294818452818301116105c6578281602093846000960137010152565b600060443d1061073557604051600319913d83016004833e81516001600160401b03918282113d6024840111176108db578184019485519384116108e3573d850101602084870101116108db5750610735929101602001906106af565b949350505050565b50949350505050565b604080519296949093608084016001600160401b03811185821017610662578552600090818552602093828587015286860198838a5260609485880197868952809b5a99611eb08703610b1957505050868203610acb579161097e8b9c9288946109e19b9c9d866109616101f1368686610838565b9101528c51632dfa471d60e11b8152968795869560048701610709565b03817f00000000000000000000000000000000000000000000000000000000000000006001600160a01b03165afa829181610aac575b50610a5b575060018160033d11610a4b575b6308c379a014610a28575b6109e7575b5050505b5a90610815565b90830152565b87527f556e6b6e6f776e20766572696669636174696f6e206572726f72000000000000855192610a1684610647565b601a84528301528601523880806109d6565b610a3061087e565b80610a3c575b506109d1565b828a52838a0152508038610a36565b50600482803e815160e01c6109c6565b90501580158852610a6e575b50506109da565b7f5369676e617475726520766572696669636174696f6e206661696c6564000000855192610a9b84610647565b601d84528301528601523880610a67565b610ac4919250853d87116103a35761039381836106af565b90386109b4565b50505050610b1294959750865278092dcecc2d8d2c840e0eac4d8d2c640d6caf240d8cadccee8d603b1b855192610b0184610647565b601984528301528501525a90610815565b9082015290565b97509a9c509a5050505050507f496e76616c6964207369676e6174757265206c656e6774680000000000000000610b64945192610b5584610647565b60188452830152525a90610815565b905290565b60001981146108225760010190565b9190811015610bb95760051b81013590601e19813603018212156105c65701908135916001600160401b0383116105c65760200182360381136105c6579190565b634e487b7160e01b600052603260045260246000fd5b949394929192858403610d0f5760009591938692907f00000000000000000000000000000000000000000000000000000000000000006001600160a01b031690845b818110610c2657505050505050505081101591565b611eb0610c3482848b610b78565b905014801590610cf8575b610cef57610c4e81838a610b78565b9086610c5b84888c610b78565b93610c7f6040519586938493632dfa471d60e11b8552602097889760048701610709565b0381885afa9182918993610cd0575b5050610ca4575b50610c9f90610b69565b610c11565b610caf575b38610c95565b98610cb990610b69565b98888a10610ca95750600199975050505050505050565b610ce7929350803d106103a35761039381836106af565b903880610c8e565b610c9f90610b69565b506020610d0682868a610b78565b90501415610c3f565b60405163512509d360e11b8152600490fd5b9190820180921161082257565b906019811015610bb95760051b0190565b600060c052604051610d5081610678565b61032036823760c0528051906001820180831161082257608890049160018301831161082257916000905b600181018210610ef1575050505060c0516001600160401b038151166fffffffffffffffff0000000000000000602083015160401b161760408201519160606001600160401b0360c01b91015160c01b16916001600160401b0360801b9060801b1617177eff00ff00ff00ff00ff00ff00ff00ff00ff00ff00ff00ff00ff00ff00ff00ff7fff00ff00ff00ff00ff00ff00ff00ff00ff00ff00ff00ff00ff00ff00ff00ff008260081b169160081c16177dffff0000ffff0000ffff0000ffff0000ffff0000ffff0000ffff0000ffff7fffff0000ffff0000ffff0000ffff0000ffff0000ffff0000ffff0000ffff00008260101b169160101c16177bffffffff00000000ffffffff00000000ffffffff00000000ffffffff7fffffffff00000000ffffffff00000000ffffffff00000000ffffffff000000008260201b169160201c161777ffffffffffffffff0000000000000000ffffffffffffffff80198260401b169160401c16178060801b9060801c1790565b60888293949592029483860460881484151715610822576000925b6011928385101561105757600090815b60088084101561101757600388811b89810483148a1517156110025785610f46610f4b928f610d21565b610d21565b8c88821015610fad57508b51811015610bb957602086918d01015160f81c915b1b918583041485151715610f985760ff16901b6001600160401b03161791610f9290610b69565b91610f1c565b87634e487b7160e01b60005260045260246000fd5b90888103610fc057505084600691610f6b565b60888201809211610fed5760878e01918211610fed5703610fe45784608091610f6b565b84600091610f6b565b89634e487b7160e01b60005260045260246000fd5b88634e487b7160e01b60005260045260246000fd5b50909450611051929591506001600160401b0390816110388460c051610d2e565b511618906110488360c051610d2e565b91169052610b69565b92610f0c565b959492509550915061032060405161106e81610678565b36903760405161107d81610694565b60a03682376040519061108f82610694565b60a036833760405161032081018181106001600160401b03821117610662576040526000815260016020820152603e6040820152601c6060820152601b6080820152602460a0820152602c60c0820152600660e0820152603761010082015260146101208201526003610140820152600a610160820152602b61018082015260196101a082015260276101c082015260296101e0820152602d610200820152600f61022082015260156102408201526008610260820152601261028082015260026102a0820152603d6102c082015260386102e0820152600e61030082015260405180608052806103008101106001600160401b0361030083011117610662578061030060019201604052526180826020608051015267800000000000808a604060805101526780000000800080006060608051015261808b608080510152638000000160a0608051015267800000008000808160c0608051015267800000000000800960e06080510152608a61010060805101526088610120608051015263800080096101406080510152638000000a6101606080510152638000808b610180608051015267800000000000008b6101a060805101526780000000000080896101c060805101526780000000000080036101e060805101526780000000000080026102006080510152678000000000000080610220608051015261800a610240608051015267800000008000000a610260608051015267800000008000808161028060805101526780000000000080806102a0608051015263800000016102c060805101526780000000800080086102e060805101526000915b6018831061130a5750505050611301600191610b69565b91939050610d7b565b9491966001600160401b0360c099929794995181610280818351168260a08501511618826101408501511618826101e08501511618920151161816865260c0516001600160401b036102a0816020840151168260c0850151161882610160850151161882610200850151161892015116186001600160401b03811660208801526001600160401b0360c051816102c0816040840151168260e0850151161882610180850151161882610220850151161892015116181660408801526001600160401b0360c051816102e081606084015116826101008501511618826101a0850151161882610240850151161892015116181660608801526001600160401b03808060c0518161030081608084015116826101208501511618826101c085015116188261026085015116189201511618168060808b015281600185603f1c1667fffffffffffffffe8660011b16178218168d528c6020838c611488826040818451169301511667fffffffffffffffe600182603f1c169160011b161790565b18169101528c6040838c6114bc826060816020850151169301511667fffffffffffffffe600182603f1c169160011b161790565b18169101528c6060838c6114f0826080816040850151169301511667fffffffffffffffe600182603f1c169160011b161790565b18169101528c6080838c611521828060608401511692511667fffffffffffffffe600182603f1c169160011b161790565b181691015260c0519367fffffffffffffffe600182603f1c169160011b1617181681835116181690526001600160401b0360208a0151166001600160401b03602060c051019181835116181690526001600160401b0360408a0151166001600160401b03604060c051019181835116181690526001600160401b0360608a0151166001600160401b03606060c051019181835116181690526001600160401b0360808a0151166001600160401b03608060c051019181835116181690526001600160401b038951166001600160401b0360a060c051019181835116181690526001600160401b0360208a0151166001600160401b0360c08051019181835116181690526001600160401b0360408a0151166001600160401b0360e060c051019181835116181690526001600160401b0360608a0151166001600160401b0361010060c051019181835116181690526001600160401b0360808a0151166001600160401b0361012060c051019181835116181690526001600160401b038951166001600160401b0361014060c051019181835116181690526001600160401b0360208a0151166001600160401b0361016060c051019181835116181690526001600160401b0360408a0151166001600160401b0361018060c051019181835116181690526001600160401b0360608a0151166001600160401b036101a060c051019181835116181690526001600160401b0360808a0151166001600160401b036101c060c051019181835116181690526001600160401b038951166001600160401b036101e060c051019181835116181690526001600160401b0360208a0151166001600160401b0361020060c051019181835116181690526001600160401b0360408a0151166001600160401b0361022060c051019181835116181690526001600160401b0360608a0151166001600160401b0361024060c051019181835116181690526001600160401b0360808a0151166001600160401b0361026060c051019181835116181690526001600160401b038951166001600160401b0361028060c051019181835116181690526001600160401b0360208a0151166001600160401b036102a060c051019181835116181690526001600160401b0360408a0151166001600160401b036102c060c051019181835116181690526001600160401b0360608a0151166001600160401b036102e060c051019181835116181690526001600160401b0360808a0151166001600160401b0361030060c051019181835116181690526118d56040518060a052610678565b6103203660a0513760005b60198110611a9c575060005b600580821015611a5c57808281020482036108225761190f82820260a051610d2e565b519082810260018101106108225761192e60018483020160a051610d2e565b5181840260028101106108225761194c60028584020160a051610d2e565b519184810260038101106108225761196b60038683020160a051610d2e565b516004919086820280840110611a4757926001600160401b03611a348489858985998787611a429f9e81819f9d6119ab829e918a8493020160a051610d2e565b5196816119bc8b8b0260c051610d2e565b9616191616911618169052866119d960018686020160c051610d2e565b9a16998780838d191616818b161816905286806119fd60028787020160c051610d2e565b92169a81848d191616181690528580611a1d60038686020160c051610d2e565b921699818d8c19161618169052020160c051610d2e565b951619161618169052610b69565b6118ec565b601183634e487b7160e01b6000525260246000fd5b505096611a969098939691989592956001600160401b038160051b6080510151166001600160401b0360c051918183511618169052610b69565b916112ea565b600581066001600160ff1b0381169003610822576003600582048102046005820403610822576005611ad881830460030282840660011b610d21565b0690611b046001600160401b03611af18360c051610d2e565b5116611afd838c610d2e565b5190611b3b565b6005838102048303610822576001600160401b03611048611b2e611b369560050260058604610d21565b60a051610d2e565b6118e0565b8115611b64576001600160401b038091168260400360408111610822578183911c16921b161790565b90509056fea2646970667358221220e28ee16e76330ef07946b2033b175837c38f27759d811242693d4d89587e08a964736f6c63430008140033","linkReferences":{}},"methodIdentifiers":{"DEFAULT_THRESHOLD()":"b81cab4b","PUBLIC_KEY_SIZE()":"1eb6e023","SECURITY_LEVEL()":"ac38d762","SIGNATURE_SIZE()":"308ff0c9","computePublicKeyHash(bytes)":"a8d03fc5","getPublicKeySize()":"b77996f2","getSPHINCSVerifier()":"dd365c28","getSignatureSize()":"7cbdf166","isValidPublicKeyFormat(bytes)":"b4c85a70","securityLevel()":"58afbfff","sphincsVerifier()":"12668c22","verifyMultiSPHINCS(bytes32,bytes[],bytes[],uint256)":"229cf631","verifySPHINCS(bytes32,bytes,bytes)":"46b4c339","verifySPHINCSWithDetails(bytes32,bytes,bytes)":"6a6ce28a","verifyTwoOfFive(bytes32,bytes[],bytes[])":"848e9155"},"id":16}