{"abi":[{"type":"constructor","inputs":[{"name":"qsToken_","type":"address","internalType":"address"},{"name":"veQSDistributor_","type":"address","internalType":"address"},{"name":"proverPool_","type":"address","internalType":"address"},{"name":"observerPool_","type":"address","internalType":"address"},{"name":"treasury_","type":"address","internalType":"address"},{"name":"admin_","type":"address","internalType":"address"}],"stateMutability":"nonpayable"},{"type":"function","name":"BASIS_POINTS","inputs":[],"outputs":[{"name":"","type":"uint256","internalType":"uint256"}],"stateMutability":"view"},{"type":"function","name":"distribute","inputs":[],"outputs":[{"name":"totalAmount","type":"uint256","internalType":"uint256"}],"stateMutability":"nonpayable"},{"type":"function","name":"getAllocation","inputs":[],"outputs":[{"name":"","type":"tuple","internalType":"struct IRewardRouter.Allocation","components":[{"name":"veQSShare","type":"uint256","internalType":"uint256"},{"name":"proverShare","type":"uint256","internalType":"uint256"},{"name":"observerShare","type":"uint256","internalType":"uint256"},{"name":"treasuryShare","type":"uint256","internalType":"uint256"}]}],"stateMutability":"view"},{"type":"function","name":"observerPool","inputs":[],"outputs":[{"name":"","type":"address","internalType":"address"}],"stateMutability":"view"},{"type":"function","name":"pendingBalance","inputs":[],"outputs":[{"name":"","type":"uint256","internalType":"uint256"}],"stateMutability":"view"},{"type":"function","name":"proverPool","inputs":[],"outputs":[{"name":"","type":"address","internalType":"address"}],"stateMutability":"view"},{"type":"function","name":"qsToken","inputs":[],"outputs":[{"name":"","type":"address","internalType":"address"}],"stateMutability":"view"},{"type":"function","name":"setAllocation","inputs":[{"name":"veQSShare","type":"uint256","internalType":"uint256"},{"name":"proverShare","type":"uint256","internalType":"uint256"},{"name":"observerShare","type":"uint256","internalType":"uint256"},{"name":"treasuryShare","type":"uint256","internalType":"uint256"}],"outputs":[],"stateMutability":"nonpayable"},{"type":"function","name":"setObserverPool","inputs":[{"name":"newPool","type":"address","internalType":"address"}],"outputs":[],"stateMutability":"nonpayable"},{"type":"function","name":"setProverPool","inputs":[{"name":"newPool","type":"address","internalType":"address"}],"outputs":[],"stateMutability":"nonpayable"},{"type":"function","name":"setTreasury","inputs":[{"name":"newTreasury","type":"address","internalType":"address"}],"outputs":[],"stateMutability":"nonpayable"},{"type":"function","name":"setVeQSDistributor","inputs":[{"name":"newDistributor","type":"address","internalType":"address"}],"outputs":[],"stateMutability":"nonpayable"},{"type":"function","name":"totalDistributed","inputs":[],"outputs":[{"name":"","type":"uint256","internalType":"uint256"}],"stateMutability":"view"},{"type":"function","name":"treasury","inputs":[],"outputs":[{"name":"","type":"address","internalType":"address"}],"stateMutability":"view"},{"type":"function","name":"veQSDistributor","inputs":[],"outputs":[{"name":"","type":"address","internalType":"address"}],"stateMutability":"view"},{"type":"event","name":"AllocationUpdated","inputs":[{"name":"veQSShare","type":"uint256","indexed":false,"internalType":"uint256"},{"name":"proverShare","type":"uint256","indexed":false,"internalType":"uint256"},{"name":"observerShare","type":"uint256","indexed":false,"internalType":"uint256"},{"name":"treasuryShare","type":"uint256","indexed":false,"internalType":"uint256"}],"anonymous":false},{"type":"event","name":"Distributed","inputs":[{"name":"totalAmount","type":"uint256","indexed":false,"internalType":"uint256"},{"name":"veQSAmount","type":"uint256","indexed":false,"internalType":"uint256"},{"name":"proverAmount","type":"uint256","indexed":false,"internalType":"uint256"},{"name":"observerAmount","type":"uint256","indexed":false,"internalType":"uint256"},{"name":"treasuryAmount","type":"uint256","indexed":false,"internalType":"uint256"},{"name":"timestamp","type":"uint256","indexed":false,"internalType":"uint256"}],"anonymous":false},{"type":"event","name":"PoolAddressUpdated","inputs":[{"name":"poolName","type":"string","indexed":false,"internalType":"string"},{"name":"oldAddress","type":"address","indexed":true,"internalType":"address"},{"name":"newAddress","type":"address","indexed":true,"internalType":"address"}],"anonymous":false},{"type":"error","name":"InvalidAddress","inputs":[]},{"type":"error","name":"InvalidAllocation","inputs":[]},{"type":"error","name":"NotAuthorized","inputs":[]},{"type":"error","name":"ZeroAmount","inputs":[]},{"type":"error","name":"ZeroBalance","inputs":[]}],"bytecode":{"object":"0x60a060405234801562000010575f80fd5b506040516200108b3803806200108b8339810160408190526200003391620002e3565b6001600160a01b038616620000825760405162461bcd60e51b815260206004820152601060248201526f24b73b30b634b21028a9903a37b5b2b760811b60448201526064015b60405180910390fd5b6001600160a01b038516620000da5760405162461bcd60e51b815260206004820152601860248201527f496e76616c69642076655153206469737472696275746f720000000000000000604482015260640162000079565b6001600160a01b038416620001325760405162461bcd60e51b815260206004820152601360248201527f496e76616c69642070726f76657220706f6f6c00000000000000000000000000604482015260640162000079565b6001600160a01b0383166200018a5760405162461bcd60e51b815260206004820152601560248201527f496e76616c6964206f6273657276657220706f6f6c0000000000000000000000604482015260640162000079565b6001600160a01b038216620001d55760405162461bcd60e51b815260206004820152601060248201526f496e76616c696420747265617375727960801b604482015260640162000079565b6001600160a01b0381166200021d5760405162461bcd60e51b815260206004820152600d60248201526c24b73b30b634b21030b236b4b760991b604482015260640162000079565b6001600160a01b039586166080908152600280546001600160a01b031990811697891697909717905560038054871695881695909517909455600480548616938716939093179092556005805485169186169190911790556001805490931693169290921781555f55604080519182018152611388808352610bb8602084018190526103e89284018390526060909301829052600655600791909155600881905560095562000360565b80516001600160a01b0381168114620002de575f80fd5b919050565b5f805f805f8060c08789031215620002f9575f80fd5b6200030487620002c7565b95506200031460208801620002c7565b94506200032460408801620002c7565b93506200033460608801620002c7565b92506200034460808801620002c7565b91506200035460a08801620002c7565b90509295509295509295565b608051610d04620003875f395f81816101e8015281816108b401526109dc0152610d045ff3fe608060405234801561000f575f80fd5b50600436106100f0575f3560e01c8063ac68975811610093578063e1f1c4a711610063578063e1f1c4a71461021b578063e4fc6b6d14610224578063efca2eed1461022c578063f0f4426014610234575f80fd5b8063ac689758146101bf578063c5a1de25146101d2578063c5ebfa9a146101e3578063cd748ee21461020a575f80fd5b806361d027b3116100ce57806361d027b3146101635780636ca9e5a2146101885780638f8cf9ef146101995780639f5b5821146101ac575f80fd5b80630c9e1e8e146100f4578063441f70251461013857806357b4d18e1461014d575b5f80fd5b6100fc610247565b60405161012f91908151815260208083015190820152604080830151908201526060918201519181019190915260800190565b60405180910390f35b61014b610146366004610b7a565b61029b565b005b61015561035d565b60405190815260200161012f565b6005546001600160a01b03165b6040516001600160a01b03909116815260200161012f565b6002546001600160a01b0316610170565b61014b6101a7366004610ba7565b61036b565b61014b6101ba366004610b7a565b610457565b61014b6101cd366004610b7a565b610508565b6003546001600160a01b0316610170565b6101707f000000000000000000000000000000000000000000000000000000000000000081565b6004546001600160a01b0316610170565b61015561271081565b6101556105bb565b600a54610155565b61014b610242366004610b7a565b6107ec565b61026e60405180608001604052805f81526020015f81526020015f81526020015f81525090565b50604080516080810182526006548152600754602082015260085491810191909152600954606082015290565b6001546001600160a01b031633146102c65760405163ea8e4eb560e01b815260040160405180910390fd5b6001600160a01b0381166102ed5760405163e6c4247b60e01b815260040160405180910390fd5b600280546001600160a01b038381166001600160a01b0319831681179093556040519116919082905f80516020610caf83398151915290610351906020808252600f908201526e3b32a8a9a234b9ba3934b13aba37b960891b604082015260600190565b60405180910390a35050565b5f61036661089b565b905090565b6001546001600160a01b031633146103965760405163ea8e4eb560e01b815260040160405180910390fd5b61271081836103a58688610bea565b6103af9190610bea565b6103b99190610bea565b146103d7576040516305d7ba1960e11b815260040160405180910390fd5b604080516080808201835286825260208083018790528284018690526060928301859052600688905560078790556008869055600985905583518881529081018790529283018590529082018390527f2aee75084665eb680a4dd0db9edb242c0c4d7ded1aa2c77572e6616fa8c6e285910160405180910390a150505050565b6001546001600160a01b031633146104825760405163ea8e4eb560e01b815260040160405180910390fd5b6001600160a01b0381166104a95760405163e6c4247b60e01b815260040160405180910390fd5b600380546001600160a01b038381166001600160a01b0319831681179093556040519116919082905f80516020610caf83398151915290610351906020808252600a90820152691c1c9bdd995c941bdbdb60b21b604082015260600190565b6001546001600160a01b031633146105335760405163ea8e4eb560e01b815260040160405180910390fd5b6001600160a01b03811661055a5760405163e6c4247b60e01b815260040160405180910390fd5b600480546001600160a01b038381166001600160a01b0319831681179093556040519116919082905f80516020610caf83398151915290610351906020808252600c908201526b1bd89cd95c9d995c941bdbdb60a21b604082015260600190565b5f60025f54036106125760405162461bcd60e51b815260206004820152601f60248201527f5265656e7472616e637947756172643a207265656e7472616e742063616c6c0060448201526064015b60405180910390fd5b60025f5561061e61089b565b9050805f036106405760405163334ab3f560e11b815260040160405180910390fd5b6006545f90612710906106539084610c03565b61065d9190610c1a565b90505f612710600660010154846106749190610c03565b61067e9190610c1a565b90505f612710600660020154856106959190610c03565b61069f9190610c1a565b90505f81836106ae8688610c39565b6106b89190610c39565b6106c29190610c39565b905083156106f6576002546106e0906001600160a01b0316856109bc565b6002546106f6906001600160a01b031685610ae1565b821561072857600354610712906001600160a01b0316846109bc565b600354610728906001600160a01b031684610ae1565b811561075a57600454610744906001600160a01b0316836109bc565b60045461075a906001600160a01b031683610ae1565b801561077657600554610776906001600160a01b0316826109bc565b84600a5f8282546107879190610bea565b9091555050604080518681526020810186905290810184905260608101839052608081018290524260a08201527f714c4637727cfacc0b64d95afc3afd00db9bd5d3a0d09deee92978db71402cfb9060c00160405180910390a15050505060015f5590565b6001546001600160a01b031633146108175760405163ea8e4eb560e01b815260040160405180910390fd5b6001600160a01b03811661083e5760405163e6c4247b60e01b815260040160405180910390fd5b600580546001600160a01b038381166001600160a01b0319831681179093556040519116919082905f80516020610caf8339815191529061035190602080825260089082015267747265617375727960c01b604082015260600190565b6040513060248201525f90819081906001600160a01b037f0000000000000000000000000000000000000000000000000000000000000000169060440160408051601f198184030181529181526020820180516001600160e01b03166370a0823160e01b1790525161090d9190610c4c565b5f60405180830381855afa9150503d805f8114610945576040519150601f19603f3d011682016040523d82523d5f602084013e61094a565b606091505b509150915081801561095e57506020815110155b6109a15760405162461bcd60e51b815260206004820152601460248201527310985b185b98d9481c5d595c9e4819985a5b195960621b6044820152606401610609565b808060200190518101906109b59190610c78565b9250505090565b6040516001600160a01b038381166024830152604482018390525f9182917f0000000000000000000000000000000000000000000000000000000000000000169060640160408051601f198184030181529181526020820180516001600160e01b031663a9059cbb60e01b17905251610a359190610c4c565b5f604051808303815f865af19150503d805f8114610a6e576040519150601f19603f3d011682016040523d82523d5f602084013e610a73565b606091505b5091509150818015610a9d575080511580610a9d575080806020019051810190610a9d9190610c8f565b610adb5760405162461bcd60e51b815260206004820152600f60248201526e151c985b9cd9995c8819985a5b1959608a1b6044820152606401610609565b50505050565b5f826001600160a01b031682604051602401610aff91815260200190565b60408051601f198184030181529181526020820180516001600160e01b0316633c6b16ab60e01b17905251610b349190610c4c565b5f604051808303815f865af19150503d805f8114610b6d576040519150601f19603f3d011682016040523d82523d5f602084013e610b72565b606091505b505050505050565b5f60208284031215610b8a575f80fd5b81356001600160a01b0381168114610ba0575f80fd5b9392505050565b5f805f8060808587031215610bba575f80fd5b5050823594602084013594506040840135936060013592509050565b634e487b7160e01b5f52601160045260245ffd5b80820180821115610bfd57610bfd610bd6565b92915050565b8082028115828204841417610bfd57610bfd610bd6565b5f82610c3457634e487b7160e01b5f52601260045260245ffd5b500490565b81810381811115610bfd57610bfd610bd6565b5f82515f5b81811015610c6b5760208186018101518583015201610c51565b505f920191825250919050565b5f60208284031215610c88575f80fd5b5051919050565b5f60208284031215610c9f575f80fd5b81518015158114610ba0575f80fdfe2f143404b97ade6232b6a76aa2e0ab30b6ba3400fcb444baa429fc049365a346a26469706673582212203fbd1ccd629a8ab704e12402b5060d0a528f9cb6bb9bd0e25f7091b166bb1fbd64736f6c63430008180033","linkReferences":{}},"methodIdentifiers":{"BASIS_POINTS()":"e1f1c4a7","distribute()":"e4fc6b6d","getAllocation()":"0c9e1e8e","observerPool()":"cd748ee2","pendingBalance()":"57b4d18e","proverPool()":"c5a1de25","qsToken()":"c5ebfa9a","setAllocation(uint256,uint256,uint256,uint256)":"8f8cf9ef","setObserverPool(address)":"ac689758","setProverPool(address)":"9f5b5821","setTreasury(address)":"f0f44260","setVeQSDistributor(address)":"441f7025","totalDistributed()":"efca2eed","treasury()":"61d027b3","veQSDistributor()":"6ca9e5a2"},"id":69}