{"abi":[{"type":"constructor","inputs":[{"name":"_registryContract","type":"address","internalType":"address"},{"name":"_stakingContract","type":"address","internalType":"address"},{"name":"admin","type":"address","internalType":"address"}],"stateMutability":"nonpayable"},{"type":"function","name":"ADMIN_ROLE","inputs":[],"outputs":[{"name":"","type":"bytes32","internalType":"bytes32"}],"stateMutability":"view"},{"type":"function","name":"DEFAULT_ADMIN_ROLE","inputs":[],"outputs":[{"name":"","type":"bytes32","internalType":"bytes32"}],"stateMutability":"view"},{"type":"function","name":"EPOCH_LENGTH","inputs":[],"outputs":[{"name":"","type":"uint256","internalType":"uint256"}],"stateMutability":"view"},{"type":"function","name":"HEALTH_ROLE","inputs":[],"outputs":[{"name":"","type":"bytes32","internalType":"bytes32"}],"stateMutability":"view"},{"type":"function","name":"checkAndRotate","inputs":[],"outputs":[],"stateMutability":"nonpayable"},{"type":"function","name":"currentEpoch","inputs":[],"outputs":[{"name":"","type":"uint256","internalType":"uint256"}],"stateMutability":"view"},{"type":"function","name":"currentSequencer","inputs":[],"outputs":[{"name":"","type":"address","internalType":"address"}],"stateMutability":"view"},{"type":"function","name":"currentSequencerIndex","inputs":[],"outputs":[{"name":"","type":"uint256","internalType":"uint256"}],"stateMutability":"view"},{"type":"function","name":"epochSequencer","inputs":[{"name":"","type":"uint256","internalType":"uint256"}],"outputs":[{"name":"","type":"address","internalType":"address"}],"stateMutability":"view"},{"type":"function","name":"epochStartBlock","inputs":[],"outputs":[{"name":"","type":"uint256","internalType":"uint256"}],"stateMutability":"view"},{"type":"function","name":"forceRotation","inputs":[],"outputs":[],"stateMutability":"nonpayable"},{"type":"function","name":"forceRotationTo","inputs":[{"name":"sequencer","type":"address","internalType":"address"}],"outputs":[],"stateMutability":"nonpayable"},{"type":"function","name":"getBlocksUntilRotation","inputs":[],"outputs":[{"name":"","type":"uint256","internalType":"uint256"}],"stateMutability":"view"},{"type":"function","name":"getCurrentEpoch","inputs":[],"outputs":[{"name":"","type":"uint256","internalType":"uint256"}],"stateMutability":"view"},{"type":"function","name":"getCurrentSequencer","inputs":[],"outputs":[{"name":"","type":"address","internalType":"address"}],"stateMutability":"view"},{"type":"function","name":"getNextSequencer","inputs":[],"outputs":[{"name":"","type":"address","internalType":"address"}],"stateMutability":"view"},{"type":"function","name":"getRoleAdmin","inputs":[{"name":"role","type":"bytes32","internalType":"bytes32"}],"outputs":[{"name":"","type":"bytes32","internalType":"bytes32"}],"stateMutability":"view"},{"type":"function","name":"getSequencerForEpoch","inputs":[{"name":"epoch","type":"uint256","internalType":"uint256"}],"outputs":[{"name":"","type":"address","internalType":"address"}],"stateMutability":"view"},{"type":"function","name":"grantRole","inputs":[{"name":"role","type":"bytes32","internalType":"bytes32"},{"name":"account","type":"address","internalType":"address"}],"outputs":[],"stateMutability":"nonpayable"},{"type":"function","name":"hasRole","inputs":[{"name":"role","type":"bytes32","internalType":"bytes32"},{"name":"account","type":"address","internalType":"address"}],"outputs":[{"name":"","type":"bool","internalType":"bool"}],"stateMutability":"view"},{"type":"function","name":"isRotationDue","inputs":[],"outputs":[{"name":"","type":"bool","internalType":"bool"}],"stateMutability":"view"},{"type":"function","name":"registryContract","inputs":[],"outputs":[{"name":"","type":"address","internalType":"contract ISequencerRegistry"}],"stateMutability":"view"},{"type":"function","name":"renounceRole","inputs":[{"name":"role","type":"bytes32","internalType":"bytes32"},{"name":"callerConfirmation","type":"address","internalType":"address"}],"outputs":[],"stateMutability":"nonpayable"},{"type":"function","name":"revokeRole","inputs":[{"name":"role","type":"bytes32","internalType":"bytes32"},{"name":"account","type":"address","internalType":"address"}],"outputs":[],"stateMutability":"nonpayable"},{"type":"function","name":"setHealthContract","inputs":[{"name":"health","type":"address","internalType":"address"}],"outputs":[],"stateMutability":"nonpayable"},{"type":"function","name":"setRegistry","inputs":[{"name":"registry","type":"address","internalType":"address"}],"outputs":[],"stateMutability":"nonpayable"},{"type":"function","name":"setStaking","inputs":[{"name":"staking","type":"address","internalType":"address"}],"outputs":[],"stateMutability":"nonpayable"},{"type":"function","name":"stakingContract","inputs":[],"outputs":[{"name":"","type":"address","internalType":"contract ISequencerStaking"}],"stateMutability":"view"},{"type":"function","name":"supportsInterface","inputs":[{"name":"interfaceId","type":"bytes4","internalType":"bytes4"}],"outputs":[{"name":"","type":"bool","internalType":"bool"}],"stateMutability":"view"},{"type":"event","name":"EpochAdvanced","inputs":[{"name":"oldEpoch","type":"uint256","indexed":false,"internalType":"uint256"},{"name":"newEpoch","type":"uint256","indexed":false,"internalType":"uint256"}],"anonymous":false},{"type":"event","name":"ForceRotation","inputs":[{"name":"triggeredBy","type":"address","indexed":true,"internalType":"address"},{"name":"newSequencer","type":"address","indexed":true,"internalType":"address"}],"anonymous":false},{"type":"event","name":"RegistrySet","inputs":[{"name":"registry","type":"address","indexed":true,"internalType":"address"}],"anonymous":false},{"type":"event","name":"RoleAdminChanged","inputs":[{"name":"role","type":"bytes32","indexed":true,"internalType":"bytes32"},{"name":"previousAdminRole","type":"bytes32","indexed":true,"internalType":"bytes32"},{"name":"newAdminRole","type":"bytes32","indexed":true,"internalType":"bytes32"}],"anonymous":false},{"type":"event","name":"RoleGranted","inputs":[{"name":"role","type":"bytes32","indexed":true,"internalType":"bytes32"},{"name":"account","type":"address","indexed":true,"internalType":"address"},{"name":"sender","type":"address","indexed":true,"internalType":"address"}],"anonymous":false},{"type":"event","name":"RoleRevoked","inputs":[{"name":"role","type":"bytes32","indexed":true,"internalType":"bytes32"},{"name":"account","type":"address","indexed":true,"internalType":"address"},{"name":"sender","type":"address","indexed":true,"internalType":"address"}],"anonymous":false},{"type":"event","name":"SequencerRotated","inputs":[{"name":"oldSequencer","type":"address","indexed":true,"internalType":"address"},{"name":"newSequencer","type":"address","indexed":true,"internalType":"address"},{"name":"epoch","type":"uint256","indexed":false,"internalType":"uint256"},{"name":"blockNumber","type":"uint256","indexed":false,"internalType":"uint256"}],"anonymous":false},{"type":"event","name":"StakingSet","inputs":[{"name":"staking","type":"address","indexed":true,"internalType":"address"}],"anonymous":false},{"type":"error","name":"AccessControlBadConfirmation","inputs":[]},{"type":"error","name":"AccessControlUnauthorizedAccount","inputs":[{"name":"account","type":"address","internalType":"address"},{"name":"neededRole","type":"bytes32","internalType":"bytes32"}]}],"bytecode":{"object":"0x608060405234801562000010575f80fd5b50604051620014c8380380620014c883398101604081905262000033916200020f565b6001600160a01b038316620000825760405162461bcd60e51b815260206004820152601060248201526f496e76616c696420726567697374727960801b60448201526064015b60405180910390fd5b6001600160a01b038216620000cc5760405162461bcd60e51b815260206004820152600f60248201526e496e76616c6964207374616b696e6760881b604482015260640162000079565b600180546001600160a01b038086166001600160a01b0319928316179092556002805492851692909116919091179055620001085f8262000147565b50620001357fa49807205ce4d355092ef5a8a18f56e8913cf4a201fbe287825b095693c217758262000147565b50505f60035550504360045562000256565b5f828152602081815260408083206001600160a01b038516845290915281205460ff16620001ea575f838152602081815260408083206001600160a01b03861684529091529020805460ff19166001179055620001a13390565b6001600160a01b0316826001600160a01b0316847f2f8788117e7eff1d82e926ec794901d17c78024a50270940304540a733656f0d60405160405180910390a4506001620001ed565b505f5b92915050565b80516001600160a01b03811681146200020a575f80fd5b919050565b5f805f6060848603121562000222575f80fd5b6200022d84620001f3565b92506200023d60208501620001f3565b91506200024d60408501620001f3565b90509250925092565b61126480620002645f395ff3fe608060405234801561000f575f80fd5b50600436106101c6575f3560e01c806378b65370116100fe578063a91ee0dc1161009e578063d547741f1161006e578063d547741f146103a4578063e8129030146103b7578063ee99205c146103ca578063fb36ad04146103dd575f80fd5b8063a91ee0dc14610378578063ac4746ab1461038b578063b97dd9e214610394578063c850ddbe1461039c575f80fd5b806391d14854116100d957806391d148541461032e57806395cb1cab14610341578063a217fddf14610369578063a46c3d1414610370575f80fd5b806378b653701461030a57806384939032146103125780638ff390991461031b575f80fd5b806336568abe1161016957806350453d9b1161014457806350453d9b146102d457806375b238fc146102dc57806376671808146102f0578063775f4d69146102f9575f80fd5b806336568abe146102b057806337d0210f146102c35780633ed55b7b146102cb575f80fd5b8063248a9ca3116101a4578063248a9ca31461024757806328c1f99b146102775780632f2ff15d1461028a5780633116a2661461029d575f80fd5b806301ffc9a7146101ca5780632000bef7146101f2578063209b6c4114610207575b5f80fd5b6101dd6101d8366004610fbb565b610404565b60405190151581526020015b60405180910390f35b610205610200366004610ffd565b61043a565b005b61022f610215366004611018565b60076020525f90815260409020546001600160a01b031681565b6040516001600160a01b0390911681526020016101e9565b610269610255366004611018565b5f9081526020819052604090206001015490565b6040519081526020016101e9565b60015461022f906001600160a01b031681565b61020561029836600461102f565b610714565b6102056102ab366004610ffd565b61073e565b6102056102be36600461102f565b6107aa565b6102056107dd565b61026960045481565b6101dd6107ff565b6102695f8051602061120f83398151915281565b61026960035481565b6006546001600160a01b031661022f565b610205610818565b61026960055481565b610205610329366004610ffd565b6108e0565b6101dd61033c36600461102f565b610967565b61022f61034f366004611018565b5f908152600760205260409020546001600160a01b031690565b6102695f81565b61026961098f565b610205610386366004610ffd565b6109c1565b6102696103e881565b600354610269565b61022f610a48565b6102056103b236600461102f565b610b10565b60065461022f906001600160a01b031681565b60025461022f906001600160a01b031681565b6102697f2e6d6c5568fae3f1b55c2ab3d6c6ec71efd564a5ac70aa6177d7f21d3e8bd89181565b5f6001600160e01b03198216637965db0b60e01b148061043457506301ffc9a760e01b6001600160e01b03198316145b92915050565b5f8051602061120f83398151915261045181610b34565b60015460405163c3c5a54760e01b81526001600160a01b0384811660048301529091169063c3c5a54790602401602060405180830381865afa158015610499573d5f803e3d5ffd5b505050506040513d601f19601f820116820180604052508101906104bd919061105d565b6104ff5760405162461bcd60e51b815260206004820152600e60248201526d139bdd081c9959da5cdd195c995960921b60448201526064015b60405180910390fd5b6002546040516366e305fd60e01b81526001600160a01b038481166004830152909116906366e305fd90602401602060405180830381865afa158015610547573d5f803e3d5ffd5b505050506040513d601f19601f8201168201806040525081019061056b919061105d565b6105a65760405162461bcd60e51b815260206004820152600c60248201526b4e6f7420656c696769626c6560a01b60448201526064016104f6565b600680546001600160a01b038481166001600160a01b031983161790925560015460408051637a75d42160e11b81529051928416935f9392169163f4eba8429160048082019286929091908290030181865afa158015610608573d5f803e3d5ffd5b505050506040513d5f823e601f3d908101601f1916820160405261062f91908101906110a0565b90505f5b815181101561068057846001600160a01b031682828151811061065857610658611160565b60200260200101516001600160a01b031603610678576005819055610680565b600101610633565b50836001600160a01b0316826001600160a01b03167fdbf07e553f839b283ff1a38e802b154f8e2c8e847f30ccc6049cbf9611ea73f3600354436040516106d1929190918252602082015260400190565b60405180910390a36040516001600160a01b0385169033907fce3d5d141c08e690ee932f3e6943ae3f749633f0ba1172999515caaff0db8de9905f90a350505050565b5f8281526020819052604090206001015461072e81610b34565b6107388383610b3e565b50505050565b5f8051602061120f83398151915261075581610b34565b6001600160a01b03821661077b5760405162461bcd60e51b81526004016104f690611174565b6107a57f2e6d6c5568fae3f1b55c2ab3d6c6ec71efd564a5ac70aa6177d7f21d3e8bd89183610b3e565b505050565b6001600160a01b03811633146107d35760405163334bd91960e11b815260040160405180910390fd5b6107a58282610bcd565b6103e86004546107ed91906111b1565b43106107fd576107fb610c36565b505b565b5f6103e860045461081091906111b1565b431015905090565b61082f5f8051602061120f83398151915233610967565b8061085f575061085f7f2e6d6c5568fae3f1b55c2ab3d6c6ec71efd564a5ac70aa6177d7f21d3e8bd89133610967565b61089c5760405162461bcd60e51b815260206004820152600e60248201526d139bdd08185d5d1a1bdc9a5e995960921b60448201526064016104f6565b5f6108a5610c36565b6040519091506001600160a01b0382169033907fce3d5d141c08e690ee932f3e6943ae3f749633f0ba1172999515caaff0db8de9905f90a350565b5f8051602061120f8339815191526108f781610b34565b6001600160a01b03821661091d5760405162461bcd60e51b81526004016104f690611174565b600280546001600160a01b0319166001600160a01b0384169081179091556040517ff520447191196b125f76f7110397fdf32b1b9cefb7dec323bd3b998022ac2338905f90a25050565b5f918252602082815260408084206001600160a01b0393909316845291905290205460ff1690565b5f806103e86004546109a191906111b1565b90508043106109b1575f91505090565b6109bb43826111c4565b91505090565b5f8051602061120f8339815191526109d881610b34565b6001600160a01b0382166109fe5760405162461bcd60e51b81526004016104f690611174565b600180546001600160a01b0319166001600160a01b0384169081179091556040517f27fe5f0c1c3b1ed427cc63d0f05759ffdecf9aec9e18d31ef366fc8a6cb5dc3b905f90a25050565b5f8060015f9054906101000a90046001600160a01b03166001600160a01b031663f4eba8426040518163ffffffff1660e01b81526004015f60405180830381865afa158015610a99573d5f803e3d5ffd5b505050506040513d5f823e601f3d908101601f19168201604052610ac091908101906110a0565b905080515f03610ad1575f91505090565b5f81516005546001610ae391906111b1565b610aed91906111d7565b9050818181518110610b0157610b01611160565b60200260200101519250505090565b5f82815260208190526040902060010154610b2a81610b34565b6107388383610bcd565b6107fb8133610f7e565b5f610b498383610967565b610bc6575f838152602081815260408083206001600160a01b03861684529091529020805460ff19166001179055610b7e3390565b6001600160a01b0316826001600160a01b0316847f2f8788117e7eff1d82e926ec794901d17c78024a50270940304540a733656f0d60405160405180910390a4506001610434565b505f610434565b5f610bd88383610967565b15610bc6575f838152602081815260408083206001600160a01b0386168085529252808320805460ff1916905551339286917ff6391f5c32d9c69d2a47ea670b442974b53935d1edc7fd64eb21e047a839171b9190a4506001610434565b5f8060015f9054906101000a90046001600160a01b03166001600160a01b031663f4eba8426040518163ffffffff1660e01b81526004015f60405180830381865afa158015610c87573d5f803e3d5ffd5b505050506040513d5f823e601f3d908101601f19168201604052610cae91908101906110a0565b90505f815111610cf75760405162461bcd60e51b81526020600482015260146024820152734e6f206163746976652073657175656e6365727360601b60448201526064016104f6565b6005545f5b8251600554610d0c9060016111b1565b610d1691906111d7565b600581905583518491908110610d2e57610d2e611160565b602002602001015193508080610d43906111f6565b6002546040516366e305fd60e01b81526001600160a01b038881166004830152929450911691506366e305fd90602401602060405180830381865afa158015610d8e573d5f803e3d5ffd5b505050506040513d601f19601f82011682018060405250810190610db2919061105d565b610dcd57825181108015610dc857508160055414155b610cfc575b6002546040516366e305fd60e01b81526001600160a01b038681166004830152909116906366e305fd90602401602060405180830381865afa158015610e15573d5f803e3d5ffd5b505050506040513d601f19601f82011682018060405250810190610e39919061105d565b610e7d5760405162461bcd60e51b815260206004820152601560248201527427379032b634b3b4b136329039b2b8bab2b731b2b960591b60448201526064016104f6565b600680546001600160a01b038681166001600160a01b03198316179092556003805492909116919081905f610eb1836111f6565b909155505043600455600380545f9081526007602090815260409182902080546001600160a01b0319166001600160a01b038b1617905591548151848152928301527facfa06cebbab8226f9a388bff9f5fcf4569298028d939f4765958dc57dbb330b910160405180910390a1856001600160a01b0316826001600160a01b03167fdbf07e553f839b283ff1a38e802b154f8e2c8e847f30ccc6049cbf9611ea73f360035443604051610f6e929190918252602082015260400190565b60405180910390a3505050505090565b610f888282610967565b610fb75760405163e2517d3f60e01b81526001600160a01b0382166004820152602481018390526044016104f6565b5050565b5f60208284031215610fcb575f80fd5b81356001600160e01b031981168114610fe2575f80fd5b9392505050565b6001600160a01b03811681146107fb575f80fd5b5f6020828403121561100d575f80fd5b8135610fe281610fe9565b5f60208284031215611028575f80fd5b5035919050565b5f8060408385031215611040575f80fd5b82359150602083013561105281610fe9565b809150509250929050565b5f6020828403121561106d575f80fd5b81518015158114610fe2575f80fd5b634e487b7160e01b5f52604160045260245ffd5b805161109b81610fe9565b919050565b5f60208083850312156110b1575f80fd5b825167ffffffffffffffff808211156110c8575f80fd5b818501915085601f8301126110db575f80fd5b8151818111156110ed576110ed61107c565b8060051b604051601f19603f830116810181811085821117156111125761111261107c565b60405291825284820192508381018501918883111561112f575f80fd5b938501935b828510156111545761114585611090565b84529385019392850192611134565b98975050505050505050565b634e487b7160e01b5f52603260045260245ffd5b6020808252600f908201526e496e76616c6964206164647265737360881b604082015260600190565b634e487b7160e01b5f52601160045260245ffd5b808201808211156104345761043461119d565b818103818111156104345761043461119d565b5f826111f157634e487b7160e01b5f52601260045260245ffd5b500690565b5f600182016112075761120761119d565b506001019056fea49807205ce4d355092ef5a8a18f56e8913cf4a201fbe287825b095693c21775a2646970667358221220e8fc01ebcfd26113db5316e6f5ba2620dd602f7a44f83ed449dbde4c06b72bf064736f6c63430008180033","linkReferences":{}},"methodIdentifiers":{"ADMIN_ROLE()":"75b238fc","DEFAULT_ADMIN_ROLE()":"a217fddf","EPOCH_LENGTH()":"ac4746ab","HEALTH_ROLE()":"fb36ad04","checkAndRotate()":"37d0210f","currentEpoch()":"76671808","currentSequencer()":"e8129030","currentSequencerIndex()":"84939032","epochSequencer(uint256)":"209b6c41","epochStartBlock()":"3ed55b7b","forceRotation()":"78b65370","forceRotationTo(address)":"2000bef7","getBlocksUntilRotation()":"a46c3d14","getCurrentEpoch()":"b97dd9e2","getCurrentSequencer()":"775f4d69","getNextSequencer()":"c850ddbe","getRoleAdmin(bytes32)":"248a9ca3","getSequencerForEpoch(uint256)":"95cb1cab","grantRole(bytes32,address)":"2f2ff15d","hasRole(bytes32,address)":"91d14854","isRotationDue()":"50453d9b","registryContract()":"28c1f99b","renounceRole(bytes32,address)":"36568abe","revokeRole(bytes32,address)":"d547741f","setHealthContract(address)":"3116a266","setRegistry(address)":"a91ee0dc","setStaking(address)":"8ff39099","stakingContract()":"ee99205c","supportsInterface(bytes4)":"01ffc9a7"},"id":66}