{"abi":[{"type":"constructor","inputs":[{"name":"veQS_","type":"address","internalType":"address"},{"name":"rewardToken_","type":"address","internalType":"address"},{"name":"epochDuration_","type":"uint256","internalType":"uint256"},{"name":"admin_","type":"address","internalType":"address"}],"stateMutability":"nonpayable"},{"type":"function","name":"addRewards","inputs":[{"name":"amount","type":"uint256","internalType":"uint256"}],"outputs":[],"stateMutability":"nonpayable"},{"type":"function","name":"calculateUserShare","inputs":[{"name":"user","type":"address","internalType":"address"},{"name":"epoch","type":"uint256","internalType":"uint256"}],"outputs":[{"name":"","type":"uint256","internalType":"uint256"}],"stateMutability":"view"},{"type":"function","name":"claim","inputs":[],"outputs":[{"name":"","type":"uint256","internalType":"uint256"}],"stateMutability":"nonpayable"},{"type":"function","name":"claimForEpochs","inputs":[{"name":"epochs","type":"uint256[]","internalType":"uint256[]"}],"outputs":[{"name":"","type":"uint256","internalType":"uint256"}],"stateMutability":"nonpayable"},{"type":"function","name":"currentEpoch","inputs":[],"outputs":[{"name":"","type":"uint256","internalType":"uint256"}],"stateMutability":"view"},{"type":"function","name":"emergencyWithdraw","inputs":[{"name":"to","type":"address","internalType":"address"},{"name":"amount","type":"uint256","internalType":"uint256"}],"outputs":[],"stateMutability":"nonpayable"},{"type":"function","name":"epochDuration","inputs":[],"outputs":[{"name":"","type":"uint256","internalType":"uint256"}],"stateMutability":"view"},{"type":"function","name":"finalizeEpoch","inputs":[],"outputs":[],"stateMutability":"nonpayable"},{"type":"function","name":"getEpoch","inputs":[{"name":"epoch","type":"uint256","internalType":"uint256"}],"outputs":[{"name":"","type":"tuple","internalType":"struct IVeQSRewardDistributor.Epoch","components":[{"name":"startTime","type":"uint256","internalType":"uint256"},{"name":"endTime","type":"uint256","internalType":"uint256"},{"name":"totalRewards","type":"uint256","internalType":"uint256"},{"name":"totalVotingPower","type":"uint256","internalType":"uint256"},{"name":"finalized","type":"bool","internalType":"bool"}]}],"stateMutability":"view"},{"type":"function","name":"getUserClaim","inputs":[{"name":"user","type":"address","internalType":"address"}],"outputs":[{"name":"","type":"tuple","internalType":"struct IVeQSRewardDistributor.UserClaim","components":[{"name":"lastClaimedEpoch","type":"uint256","internalType":"uint256"},{"name":"totalClaimed","type":"uint256","internalType":"uint256"}]}],"stateMutability":"view"},{"type":"function","name":"pendingRewards","inputs":[{"name":"user","type":"address","internalType":"address"}],"outputs":[{"name":"","type":"uint256","internalType":"uint256"}],"stateMutability":"view"},{"type":"function","name":"rewardToken","inputs":[],"outputs":[{"name":"","type":"address","internalType":"address"}],"stateMutability":"view"},{"type":"function","name":"veQS","inputs":[],"outputs":[{"name":"","type":"address","internalType":"address"}],"stateMutability":"view"},{"type":"event","name":"EmergencyWithdrawal","inputs":[{"name":"to","type":"address","indexed":true,"internalType":"address"},{"name":"amount","type":"uint256","indexed":false,"internalType":"uint256"}],"anonymous":false},{"type":"event","name":"EpochFinalized","inputs":[{"name":"epoch","type":"uint256","indexed":true,"internalType":"uint256"},{"name":"totalRewards","type":"uint256","indexed":false,"internalType":"uint256"},{"name":"totalVotingPower","type":"uint256","indexed":false,"internalType":"uint256"}],"anonymous":false},{"type":"event","name":"RewardsAdded","inputs":[{"name":"epoch","type":"uint256","indexed":true,"internalType":"uint256"},{"name":"amount","type":"uint256","indexed":false,"internalType":"uint256"},{"name":"addedBy","type":"address","indexed":true,"internalType":"address"}],"anonymous":false},{"type":"event","name":"RewardsClaimed","inputs":[{"name":"user","type":"address","indexed":true,"internalType":"address"},{"name":"epoch","type":"uint256","indexed":true,"internalType":"uint256"},{"name":"amount","type":"uint256","indexed":false,"internalType":"uint256"}],"anonymous":false},{"type":"error","name":"AlreadyClaimed","inputs":[]},{"type":"error","name":"EpochAlreadyFinalized","inputs":[]},{"type":"error","name":"EpochNotFinalized","inputs":[]},{"type":"error","name":"InvalidEpoch","inputs":[]},{"type":"error","name":"NoRewardsToClaim","inputs":[]},{"type":"error","name":"NotAuthorized","inputs":[]},{"type":"error","name":"ZeroAmount","inputs":[]}],"bytecode":{"object":"0x60e060405234801562000010575f80fd5b50604051620012a7380380620012a78339810160408190526200003391620002d5565b6001600160a01b0384166200007e5760405162461bcd60e51b815260206004820152600c60248201526b496e76616c6964207665515360a01b60448201526064015b60405180910390fd5b6001600160a01b038316620000d65760405162461bcd60e51b815260206004820152601460248201527f496e76616c69642072657761726420746f6b656e000000000000000000000000604482015260640162000075565b5f8211620001275760405162461bcd60e51b815260206004820152601660248201527f496e76616c69642065706f6368206475726174696f6e00000000000000000000604482015260640162000075565b6001600160a01b0381166200016f5760405162461bcd60e51b815260206004820152600d60248201526c24b73b30b634b21030b236b4b760991b604482015260640162000075565b6001600160a01b0384811660805283811660a090815260c0849052600180546001600160a01b0319169284169290921782555f91909155604080519182019052428082526020820190620001c590859062000326565b81525f6020808301829052604080840183905260609384018390529180526003815283517f3617319a054d772f909f7c479a2cebe5066e836a939412e32403c99029b92eff558301517f3617319a054d772f909f7c479a2cebe5066e836a939412e32403c99029b92f00558201517f3617319a054d772f909f7c479a2cebe5066e836a939412e32403c99029b92f01558101517f3617319a054d772f909f7c479a2cebe5066e836a939412e32403c99029b92f0255608001517f3617319a054d772f909f7c479a2cebe5066e836a939412e32403c99029b92f03805460ff1916911515919091179055506200034c92505050565b80516001600160a01b0381168114620002d0575f80fd5b919050565b5f805f8060808587031215620002e9575f80fd5b620002f485620002b9565b93506200030460208601620002b9565b9250604085015191506200031b60608601620002b9565b905092959194509250565b808201808211156200034657634e487b7160e01b5f52601160045260245ffd5b92915050565b60805160a05160c051610f0d6200039a5f395f8181610183015261061301525f818161028a01528181610b480152610c7301525f81816101bc0152818161050d0152610a850152610f0d5ff3fe608060405234801561000f575f80fd5b50600436106100cb575f3560e01c806382ae9ef711610088578063bc0bc6ba11610063578063bc0bc6ba14610209578063beceed391461025f578063f63b450c14610272578063f7c618c114610285575f80fd5b806382ae9ef7146101ad57806383dd229d146101b757806395ccea67146101f6575f80fd5b80632c6875ee146100cf57806331d7a26214610142578063440a4912146101635780634e71d92d146101765780634ff0876a1461017e57806376671808146101a5575b5f80fd5b6101226100dd366004610ce7565b604080518082019091525f8082526020820152506001600160a01b03165f90815260046020908152604091829020825180840190935280548352600101549082015290565b604080518251815260209283015192810192909252015b60405180910390f35b610155610150366004610ce7565b6102ac565b604051908152602001610139565b610155610171366004610d00565b610347565b61015561035b565b6101557f000000000000000000000000000000000000000000000000000000000000000081565b600254610155565b6101b561048f565b005b6101de7f000000000000000000000000000000000000000000000000000000000000000081565b6040516001600160a01b039091168152602001610139565b6101b5610204366004610d00565b6106a1565b61021c610217366004610d28565b61071d565b60405161013991905f60a0820190508251825260208301516020830152604083015160408301526060830151606083015260808301511515608083015292915050565b6101b561026d366004610d28565b61079e565b610155610280366004610d3f565b61087f565b6101de7f000000000000000000000000000000000000000000000000000000000000000081565b6001600160a01b0381165f90815260046020526040812054819081816102d2575f6102d4565b815b9050805b60025481101561033d575f8181526003602052604090206004015460ff16801561031957506001600160a01b0386165f908152600460205260409020548110155b15610335576103288682610a0d565b6103329085610dc2565b93505b6001016102d8565b5091949350505050565b5f6103528383610a0d565b90505b92915050565b5f60025f54036103865760405162461bcd60e51b815260040161037d90610dd5565b60405180910390fd5b60025f908155805b60025481101561042c575f8181526003602052604090206004015460ff1680156103c65750335f908152600460205260409020548110155b15610424575f6103d63383610a0d565b90508015610422576103e88184610dc2565b9250604051818152829033907fdacbdde355ba930696a362ea6738feb9f8bd52dfb3d81947558fd3217e23e3259060200160405180910390a35b505b60010161038e565b50805f0361044d576040516373380d9960e01b815260040160405180910390fd5b600254335f90815260046020526040812091825560019091018054839290610476908490610dc2565b9091555061048690503382610b28565b905060015f5590565b6002545f90815260036020526040902060018101544210156104e55760405162461bcd60e51b815260206004820152600f60248201526e115c1bd8da081b9bdd08195b991959608a1b604482015260640161037d565b600481015460ff161561050b57604051630cd9898f60e21b815260040160405180910390fd5b7f00000000000000000000000000000000000000000000000000000000000000006001600160a01b03166311acc1a76040518163ffffffff1660e01b8152600401602060405180830381865afa158015610567573d5f803e3d5ffd5b505050506040513d601f19601f8201168201806040525081019061058b9190610e0c565b6003820181905560048201805460ff19166001179055600280549083015460405191927fb463d19ecf455be65365092cf8e1db6934a0334cf8cd532ddf9964d01f36b5b2926105e4929190918252602082015260400190565b60405180910390a260028054905f6105fb83610e23565b91905055506040518060a001604052804281526020017f00000000000000000000000000000000000000000000000000000000000000004261063d9190610dc2565b81525f60208083018290526040808401839052606093840183905260028054845260038084529382902086518155928601516001840155908501519082015591830151908201556080909101516004909101805460ff191691151591909117905550565b6001546001600160a01b031633146106cc5760405163ea8e4eb560e01b815260040160405180910390fd5b6106d68282610b28565b816001600160a01b03167f23d6711a1d031134a36921253c75aa59e967d38e369ac625992824315e204f208260405161071191815260200190565b60405180910390a25050565b61074c6040518060a001604052805f81526020015f81526020015f81526020015f81526020015f151581525090565b505f90815260036020818152604092839020835160a0810185528154815260018201549281019290925260028101549382019390935290820154606082015260049091015460ff161515608082015290565b60025f54036107bf5760405162461bcd60e51b815260040161037d90610dd5565b60025f9081558190036107e557604051631f2a200560e01b815260040160405180910390fd5b6002545f908152600360205260409020600481015460ff161561081b57604051630cd9898f60e21b815260040160405180910390fd5b81816002015f82825461082e9190610dc2565b9091555061083e90503383610c4d565b6002546040518381523391907f31055275ed1c52e3c2c906750e908d15538e6c1c01092da5ee55dfcad29da39f9060200160405180910390a3505060015f55565b5f60025f54036108a15760405162461bcd60e51b815260040161037d90610dd5565b60025f908155805b838110156109b0575f8585838181106108c4576108c4610e3b565b90506020020135905060025481106108ef5760405163d5b25b6360e01b815260040160405180910390fd5b5f8181526003602052604090206004015460ff1661092057604051638cf7570760e01b815260040160405180910390fd5b335f9081526004602052604090205481101561094f57604051630c8d9eab60e31b815260040160405180910390fd5b5f61095a3383610a0d565b905080156109a65761096c8185610dc2565b9350604051818152829033907fdacbdde355ba930696a362ea6738feb9f8bd52dfb3d81947558fd3217e23e3259060200160405180910390a35b50506001016108a9565b50805f036109d1576040516373380d9960e01b815260040160405180910390fd5b335f90815260046020526040812060010180548392906109f2908490610dc2565b90915550610a0290503382610b28565b60015f559392505050565b5f818152600360205260408120600481015460ff16610a2f575f915050610355565b80600301545f03610a43575f915050610355565b80600201545f03610a57575f915050610355565b600181015460405163eaeded5f60e01b81526001600160a01b03868116600483015260248201929092525f917f0000000000000000000000000000000000000000000000000000000000000000169063eaeded5f90604401602060405180830381865afa158015610aca573d5f803e3d5ffd5b505050506040513d601f19601f82011682018060405250810190610aee9190610e0c565b9050805f03610b01575f92505050610355565b60038201546002830154610b159083610e4f565b610b1f9190610e66565b95945050505050565b6040516001600160a01b038381166024830152604482018390525f9182917f0000000000000000000000000000000000000000000000000000000000000000169060640160408051601f198184030181529181526020820180516001600160e01b031663a9059cbb60e01b17905251610ba19190610e85565b5f604051808303815f865af19150503d805f8114610bda576040519150601f19603f3d011682016040523d82523d5f602084013e610bdf565b606091505b5091509150818015610c09575080511580610c09575080806020019051810190610c099190610eb1565b610c475760405162461bcd60e51b815260206004820152600f60248201526e151c985b9cd9995c8819985a5b1959608a1b604482015260640161037d565b50505050565b6040516001600160a01b038381166024830152306044830152606482018390525f9182917f0000000000000000000000000000000000000000000000000000000000000000169060840160408051601f198184030181529181526020820180516001600160e01b03166323b872dd60e01b17905251610ba19190610e85565b80356001600160a01b0381168114610ce2575f80fd5b919050565b5f60208284031215610cf7575f80fd5b61035282610ccc565b5f8060408385031215610d11575f80fd5b610d1a83610ccc565b946020939093013593505050565b5f60208284031215610d38575f80fd5b5035919050565b5f8060208385031215610d50575f80fd5b823567ffffffffffffffff80821115610d67575f80fd5b818501915085601f830112610d7a575f80fd5b813581811115610d88575f80fd5b8660208260051b8501011115610d9c575f80fd5b60209290920196919550909350505050565b634e487b7160e01b5f52601160045260245ffd5b8082018082111561035557610355610dae565b6020808252601f908201527f5265656e7472616e637947756172643a207265656e7472616e742063616c6c00604082015260600190565b5f60208284031215610e1c575f80fd5b5051919050565b5f60018201610e3457610e34610dae565b5060010190565b634e487b7160e01b5f52603260045260245ffd5b808202811582820484141761035557610355610dae565b5f82610e8057634e487b7160e01b5f52601260045260245ffd5b500490565b5f82515f5b81811015610ea45760208186018101518583015201610e8a565b505f920191825250919050565b5f60208284031215610ec1575f80fd5b81518015158114610ed0575f80fd5b939250505056fea264697066735822122024ac4f45ed72660aff2f6cb97813559db466685068567f342e021c3cfd0da65564736f6c63430008180033","linkReferences":{}},"methodIdentifiers":{"addRewards(uint256)":"beceed39","calculateUserShare(address,uint256)":"440a4912","claim()":"4e71d92d","claimForEpochs(uint256[])":"f63b450c","currentEpoch()":"76671808","emergencyWithdraw(address,uint256)":"95ccea67","epochDuration()":"4ff0876a","finalizeEpoch()":"82ae9ef7","getEpoch(uint256)":"bc0bc6ba","getUserClaim(address)":"2c6875ee","pendingRewards(address)":"31d7a262","rewardToken()":"f7c618c1","veQS()":"83dd229d"},"id":73}