{"abi":[{"type":"constructor","inputs":[{"name":"veqs_","type":"address","internalType":"address"},{"name":"securityCouncil_","type":"address","internalType":"address"},{"name":"governance_","type":"address","internalType":"address"}],"stateMutability":"nonpayable"},{"type":"function","name":"MAX_CONSECUTIVE_TERMS","inputs":[],"outputs":[{"name":"","type":"uint256","internalType":"uint256"}],"stateMutability":"view"},{"type":"function","name":"MAX_MEMBERS","inputs":[],"outputs":[{"name":"","type":"uint256","internalType":"uint256"}],"stateMutability":"view"},{"type":"function","name":"MIN_VEQS_TO_NOMINATE","inputs":[],"outputs":[{"name":"","type":"uint256","internalType":"uint256"}],"stateMutability":"view"},{"type":"function","name":"MIN_VEQS_TO_VOTE","inputs":[],"outputs":[{"name":"","type":"uint256","internalType":"uint256"}],"stateMutability":"view"},{"type":"function","name":"NOMINATION_PERIOD","inputs":[],"outputs":[{"name":"","type":"uint256","internalType":"uint256"}],"stateMutability":"view"},{"type":"function","name":"TERM_DURATION","inputs":[],"outputs":[{"name":"","type":"uint256","internalType":"uint256"}],"stateMutability":"view"},{"type":"function","name":"VOTING_PERIOD","inputs":[],"outputs":[{"name":"","type":"uint256","internalType":"uint256"}],"stateMutability":"view"},{"type":"function","name":"currentElectionId","inputs":[],"outputs":[{"name":"","type":"uint256","internalType":"uint256"}],"stateMutability":"view"},{"type":"function","name":"finalize","inputs":[],"outputs":[],"stateMutability":"nonpayable"},{"type":"function","name":"getCandidate","inputs":[{"name":"electionId","type":"uint256","internalType":"uint256"},{"name":"candidate","type":"address","internalType":"address"}],"outputs":[{"name":"","type":"tuple","internalType":"struct SecurityCouncilElection.Candidate","components":[{"name":"addr","type":"address","internalType":"address"},{"name":"veQSBalance","type":"uint256","internalType":"uint256"},{"name":"votesReceived","type":"uint256","internalType":"uint256"},{"name":"nominated","type":"bool","internalType":"bool"}]}],"stateMutability":"view"},{"type":"function","name":"getCandidates","inputs":[{"name":"electionId","type":"uint256","internalType":"uint256"}],"outputs":[{"name":"","type":"address[]","internalType":"address[]"}],"stateMutability":"view"},{"type":"function","name":"getConsecutiveTerms","inputs":[{"name":"member","type":"address","internalType":"address"}],"outputs":[{"name":"","type":"uint256","internalType":"uint256"}],"stateMutability":"view"},{"type":"function","name":"getElection","inputs":[{"name":"electionId","type":"uint256","internalType":"uint256"}],"outputs":[{"name":"","type":"tuple","internalType":"struct SecurityCouncilElection.Election","components":[{"name":"id","type":"uint256","internalType":"uint256"},{"name":"nominationStart","type":"uint256","internalType":"uint256"},{"name":"nominationEnd","type":"uint256","internalType":"uint256"},{"name":"votingEnd","type":"uint256","internalType":"uint256"},{"name":"candidateCount","type":"uint256","internalType":"uint256"},{"name":"finalized","type":"bool","internalType":"bool"},{"name":"winners","type":"address[9]","internalType":"address[9]"}]}],"stateMutability":"view"},{"type":"function","name":"getTermEnd","inputs":[{"name":"member","type":"address","internalType":"address"}],"outputs":[{"name":"","type":"uint256","internalType":"uint256"}],"stateMutability":"view"},{"type":"function","name":"getTermInfo","inputs":[{"name":"member","type":"address","internalType":"address"}],"outputs":[{"name":"","type":"tuple","internalType":"struct SecurityCouncilElection.TermInfo","components":[{"name":"termNumber","type":"uint256","internalType":"uint256"},{"name":"startTime","type":"uint256","internalType":"uint256"},{"name":"endTime","type":"uint256","internalType":"uint256"},{"name":"consecutiveTerms","type":"uint256","internalType":"uint256"},{"name":"lastElectionId","type":"uint256","internalType":"uint256"}]}],"stateMutability":"view"},{"type":"function","name":"getVotesReceived","inputs":[{"name":"candidate","type":"address","internalType":"address"}],"outputs":[{"name":"","type":"uint256","internalType":"uint256"}],"stateMutability":"view"},{"type":"function","name":"getWinners","inputs":[{"name":"electionId","type":"uint256","internalType":"uint256"}],"outputs":[{"name":"","type":"address[9]","internalType":"address[9]"}],"stateMutability":"view"},{"type":"function","name":"governance","inputs":[],"outputs":[{"name":"","type":"address","internalType":"address"}],"stateMutability":"view"},{"type":"function","name":"hasVoted","inputs":[{"name":"electionId","type":"uint256","internalType":"uint256"},{"name":"voter","type":"address","internalType":"address"}],"outputs":[{"name":"","type":"bool","internalType":"bool"}],"stateMutability":"view"},{"type":"function","name":"isNominated","inputs":[{"name":"candidate","type":"address","internalType":"address"}],"outputs":[{"name":"","type":"bool","internalType":"bool"}],"stateMutability":"view"},{"type":"function","name":"isNominationPeriod","inputs":[],"outputs":[{"name":"","type":"bool","internalType":"bool"}],"stateMutability":"view"},{"type":"function","name":"isVotingPeriod","inputs":[],"outputs":[{"name":"","type":"bool","internalType":"bool"}],"stateMutability":"view"},{"type":"function","name":"nominate","inputs":[],"outputs":[],"stateMutability":"nonpayable"},{"type":"function","name":"securityCouncil","inputs":[],"outputs":[{"name":"","type":"address","internalType":"contract ISecurityCouncil"}],"stateMutability":"view"},{"type":"function","name":"setGovernance","inputs":[{"name":"newGovernance","type":"address","internalType":"address"}],"outputs":[],"stateMutability":"nonpayable"},{"type":"function","name":"startElection","inputs":[],"outputs":[],"stateMutability":"nonpayable"},{"type":"function","name":"veqs","inputs":[],"outputs":[{"name":"","type":"address","internalType":"contract IveQS"}],"stateMutability":"view"},{"type":"function","name":"vote","inputs":[{"name":"candidate","type":"address","internalType":"address"}],"outputs":[],"stateMutability":"nonpayable"},{"type":"event","name":"CandidateNominated","inputs":[{"name":"electionId","type":"uint256","indexed":true,"internalType":"uint256"},{"name":"candidate","type":"address","indexed":true,"internalType":"address"},{"name":"veQSBalance","type":"uint256","indexed":false,"internalType":"uint256"}],"anonymous":false},{"type":"event","name":"ElectionFinalized","inputs":[{"name":"electionId","type":"uint256","indexed":true,"internalType":"uint256"},{"name":"winners","type":"address[9]","indexed":false,"internalType":"address[9]"}],"anonymous":false},{"type":"event","name":"ElectionStarted","inputs":[{"name":"electionId","type":"uint256","indexed":true,"internalType":"uint256"},{"name":"nominationEnd","type":"uint256","indexed":false,"internalType":"uint256"},{"name":"votingEnd","type":"uint256","indexed":false,"internalType":"uint256"}],"anonymous":false},{"type":"event","name":"MemberRotated","inputs":[{"name":"oldMember","type":"address","indexed":true,"internalType":"address"},{"name":"newMember","type":"address","indexed":true,"internalType":"address"},{"name":"seatId","type":"uint256","indexed":false,"internalType":"uint256"}],"anonymous":false},{"type":"event","name":"TermEnded","inputs":[{"name":"member","type":"address","indexed":true,"internalType":"address"},{"name":"termNumber","type":"uint256","indexed":false,"internalType":"uint256"}],"anonymous":false},{"type":"event","name":"TermStarted","inputs":[{"name":"member","type":"address","indexed":true,"internalType":"address"},{"name":"termNumber","type":"uint256","indexed":false,"internalType":"uint256"},{"name":"startTime","type":"uint256","indexed":false,"internalType":"uint256"},{"name":"endTime","type":"uint256","indexed":false,"internalType":"uint256"}],"anonymous":false},{"type":"event","name":"VoteCast","inputs":[{"name":"electionId","type":"uint256","indexed":true,"internalType":"uint256"},{"name":"voter","type":"address","indexed":true,"internalType":"address"},{"name":"candidate","type":"address","indexed":true,"internalType":"address"},{"name":"weight","type":"uint256","indexed":false,"internalType":"uint256"}],"anonymous":false},{"type":"error","name":"AlreadyNominated","inputs":[]},{"type":"error","name":"AlreadyVoted","inputs":[]},{"type":"error","name":"ElectionAlreadyActive","inputs":[]},{"type":"error","name":"ElectionAlreadyFinalized","inputs":[]},{"type":"error","name":"ElectionNotActive","inputs":[]},{"type":"error","name":"ElectionNotFinalized","inputs":[]},{"type":"error","name":"InsufficientVeQS","inputs":[]},{"type":"error","name":"InvalidCandidate","inputs":[]},{"type":"error","name":"MaxConsecutiveTermsReached","inputs":[]},{"type":"error","name":"NominationPeriodEnded","inputs":[]},{"type":"error","name":"NominationPeriodNotEnded","inputs":[]},{"type":"error","name":"NotEnoughCandidates","inputs":[]},{"type":"error","name":"NotGovernance","inputs":[]},{"type":"error","name":"NotNominated","inputs":[]},{"type":"error","name":"VotingPeriodEnded","inputs":[]},{"type":"error","name":"VotingPeriodNotStarted","inputs":[]}],"bytecode":{"object":"0x60c060405234801562000010575f80fd5b5060405162001b3d38038062001b3d83398101604081905262000033916200015a565b6001600160a01b0383166200007e5760405162461bcd60e51b815260206004820152600c60248201526b496e76616c6964207665515360a01b60448201526064015b60405180910390fd5b6001600160a01b038216620000c35760405162461bcd60e51b815260206004820152600a602482015269496e76616c696420534360b01b604482015260640162000075565b6001600160a01b038116620001105760405162461bcd60e51b8152602060048201526012602482015271496e76616c696420676f7665726e616e636560701b604482015260640162000075565b6001600160a01b0392831660805290821660a0525f80546001600160a01b03191691909216179055620001a1565b80516001600160a01b038116811462000155575f80fd5b919050565b5f805f606084860312156200016d575f80fd5b62000178846200013e565b925062000188602085016200013e565b915062000198604085016200013e565b90509250925092565b60805160a051611965620001d85f395f818161023601526113ba01525f81816101c401528181610b8b0152610f9301526119655ff3fe608060405234801561000f575f80fd5b50600436106101bb575f3560e01c806362d73eb8116100f3578063a3dbd32911610093578063ba4f2c0d1161006e578063ba4f2c0d1461053e578063e16fd62e14610546578063ea0e35b11461054e578063fcd7e1d714610556575f80fd5b8063a3dbd32914610516578063ab033ea914610521578063b1610d7e14610534575f80fd5b80636dd7d8ea116100ce5780636dd7d8ea146104af57806398ecf2a0146104c25780639d710777146104cb5780639d806a28146104eb575f80fd5b806362d73eb81461045c578063676ae617146104645780636b1426a41461048f575f80fd5b806340b0b1da1161015e5780634bb278f3116101395780634bb278f31461036c578063551bdead146103765780635aa6e675146103805780635bf343d214610392575f80fd5b806340b0b1da146102fd5780634385963214610351578063485e20ad14610364575f80fd5b806327eb6c0f1161019957806327eb6c0f146102315780632f4b379b146102585780633a3e6c81146102915780633e39a7a5146102dd575f80fd5b80630ed1f660146101bf578063188cf0b8146102035780631cdcf03114610220575b5f80fd5b6101e67f000000000000000000000000000000000000000000000000000000000000000081565b6040516001600160a01b0390911681526020015b60405180910390f35b610212670de0b6b3a764000081565b6040519081526020016101fa565b61021269152d02c7e14af680000081565b6101e67f000000000000000000000000000000000000000000000000000000000000000081565b610212610266366004611751565b6001545f9081526003602090815260408083206001600160a01b039094168352929052206002015490565b6102cd61029f366004611751565b6001545f9081526003602081815260408084206001600160a01b039095168452939052919020015460ff1690565b60405190151581526020016101fa565b6102f06102eb366004611773565b61055e565b6040516101fa919061178a565b61031061030b366004611751565b6105c7565b6040516101fa91905f60a082019050825182526020830151602083015260408301516040830152606083015160608301526080830151608083015292915050565b6102cd61035f3660046117d6565b61064b565b610212600381565b610374610677565b005b6102126203f48081565b5f546101e6906001600160a01b031681565b61041e6103a03660046117d6565b604080516080810182525f808252602082018190529181018290526060810191909152505f8281526003602081815260408084206001600160a01b03808716865290835293819020815160808101835281549095168552600181015492850192909252600282015490840152015460ff161515606082015292915050565b6040516101fa919081516001600160a01b03168152602080830151908201526040808301519082015260609182015115159181019190915260800190565b6103746107eb565b610212610472366004611751565b6001600160a01b03165f9081526007602052604090206003015490565b6104a261049d366004611773565b610a71565b6040516101fa919061182f565b6103746104bd366004611751565b610af7565b61021260015481565b6104de6104d9366004611773565b610d76565b6040516101fa919061183e565b6102126104f9366004611751565b6001600160a01b03165f9081526007602052604090206002015490565b6102126301e1338081565b61037461052f366004611751565b610e1d565b61021262093a8081565b6102cd610eb7565b6102cd610ee7565b610212600981565b610374610f23565b5f818152600460209081526040918290208054835181840281018401909452808452606093928301828280156105bb57602002820191905f5260205f20905b81546001600160a01b0316815260019091019060200180831161059d575b50505050509050919050565b6105f46040518060a001604052805f81526020015f81526020015f81526020015f81526020015f81525090565b506001600160a01b03165f90815260076020908152604091829020825160a0810184528154815260018201549281019290925260028101549282019290925260038201546060820152600490910154608082015290565b5f8281526005602090815260408083206001600160a01b038516845290915290205460ff165b92915050565b600180545f9081526002602052604081209182015490036106ab57604051638744898560e01b815260040160405180910390fd5b806003015442116106cf576040516304add5b960e31b815260040160405180910390fd5b600581015460ff16156106f55760405163192daa6160e01b815260040160405180910390fd5b60098160040154101561071b57604051631217258560e01b815260040160405180910390fd5b5f61072760015461118a565b9050610731611671565b5f5b60098110156107835782818151811061074e5761074e611897565b602002602001015182826009811061076857610768611897565b6001600160a01b039092166020929092020152600101610733565b5061079360068401826009611690565b5060058301805460ff191660011790556107ac81611385565b6001547f2766fac687bd7c7a6f464079c44017fa60edc1f09ae1e086e38cebce17046523826040516107de919061182f565b60405180910390a2505050565b5f546001600160a01b0316331461081557604051632d5be4cb60e21b815260040160405180910390fd5b60015415610866576001545f908152600260205260409020600581015460ff16158015610846575080600301544211155b1561086457604051635370c06360e11b815260040160405180910390fd5b505b60018054905f610875836118bf565b909155505f90506108896203f480426118d7565b90505f61089962093a80836118d7565b90506040518060e0016040528060015481526020014281526020018381526020018281526020015f81526020015f151581526020016040518061012001604052805f6001600160a01b03166001600160a01b031681526020015f6001600160a01b03166001600160a01b031681526020015f6001600160a01b03166001600160a01b031681526020015f6001600160a01b03166001600160a01b031681526020015f6001600160a01b03166001600160a01b031681526020015f6001600160a01b03166001600160a01b031681526020015f6001600160a01b03166001600160a01b031681526020015f6001600160a01b03166001600160a01b031681526020015f6001600160a01b03166001600160a01b031681525081525060025f60015481526020019081526020015f205f820151815f01556020820151816001015560408201518160020155606082015181600301556080820151816004015560a0820151816005015f6101000a81548160ff02191690831515021790555060c082015181600601906009610a2c929190611690565b505060015460408051858152602081018590529192507f05c86f625f5abd1385c78f66fa5cae221087d7ef4e0a8b37efdfd0592c85a759910160405180910390a25050565b610a79611671565b5f8281526002602052604090206005015460ff16610aaa576040516338d531cb60e21b815260040160405180910390fd5b5f8281526002602090815260409182902082516101208101938490526006820180546001600160a01b031682529093909260099260070190850180831161059d5750505050509050919050565b600180545f908152600260205260408120918201549003610b2b57604051638744898560e01b815260040160405180910390fd5b80600201544211610b4f576040516304add5b960e31b815260040160405180910390fd5b8060030154421115610b745760405163370ec37160e21b815260040160405180910390fd5b604051636a292c0360e01b81523360048201525f907f00000000000000000000000000000000000000000000000000000000000000006001600160a01b031690636a292c0390602401602060405180830381865afa158015610bd8573d5f803e3d5ffd5b505050506040513d601f19601f82011682018060405250810190610bfc91906118ea565b9050670de0b6b3a7640000811015610c2757604051632e141d1360e21b815260040160405180910390fd5b6001545f90815260056020908152604080832033845290915290205460ff1615610c6457604051637c9a1cf960e01b815260040160405180910390fd5b6001545f9081526003602081815260408084206001600160a01b0388168552909152909120015460ff16610cab5760405163e66ea08f60e01b815260040160405180910390fd5b600180545f90815260056020908152604080832033808552908352818420805460ff1916861790558454845260068352818420908452825280832080546001600160a01b0319166001600160a01b03891690811790915593548352600382528083209383529290529081206002018054839290610d299084906118d7565b90915550506001546040518281526001600160a01b0385169133917f044652d717a831bada29c3f4822836fca71492a56031a029c131e915bd00ce8e9060200160405180910390a4505050565b610d7e6116e8565b5f82815260026020818152604092839020835160e0810185528154815260018201549281019290925291820154818401526003820154606082015260048201546080820152600582015460ff16151560a08201528251610120810193849052909260c084019190600684019060099082845b81546001600160a01b03168152600190910190602001808311610df0575050505050815250509050919050565b5f546001600160a01b03163314610e4757604051632d5be4cb60e21b815260040160405180910390fd5b6001600160a01b038116610e965760405162461bcd60e51b8152602060048201526012602482015271496e76616c696420676f7665726e616e636560701b604482015260640160405180910390fd5b5f80546001600160a01b0319166001600160a01b0392909216919091179055565b600180545f9081526002602052604081209182015490919015801590610ee1575080600201544211155b91505090565b600180545f9081526002602052604081209182015490919015801590610f105750806002015442115b8015610ee1575060030154421115919050565b600180545f908152600260205260408120918201549003610f5757604051638744898560e01b815260040160405180910390fd5b8060020154421115610f7c57604051630c29700360e21b815260040160405180910390fd5b604051635da6a21b60e11b81523360048201525f907f00000000000000000000000000000000000000000000000000000000000000006001600160a01b03169063bb4d443690602401602060405180830381865afa158015610fe0573d5f803e3d5ffd5b505050506040513d601f19601f8201168201806040525081019061100491906118ea565b905069152d02c7e14af680000081101561103157604051632e141d1360e21b815260040160405180910390fd5b6001545f908152600360208181526040808420338552909152909120015460ff1615611070576040516328f3e0eb60e11b815260040160405180910390fd5b6110793361160a565b61109657604051630efd544160e11b815260040160405180910390fd5b604080516080810182523380825260208083018581525f8486018181526001606087018181528154845260038087528985208886528752898520985189546001600160a01b03919091166001600160a01b0319918216178a55955189840155925160028901555196909101805496151560ff19909716969096179095558454815260048084529581208054958601815581529182209093018054909316909117909155908301805491611148836118bf565b90915550506001546040518281523391907ff2b0b0b3b7a188eaf1241c39009b9dcbde85bf0cb0fc07738c55a8e0e99ac2b69060200160405180910390a35050565b5f8181526004602090815260408083208054825181850281018501909352808352606094938301828280156111e657602002820191905f5260205f20905b81546001600160a01b031681526001909101906020018083116111c8575b505083519394505f925050505b6111fe600183611901565b81101561137c57805f6112128260016118d7565b90505b838110156112cd5760035f8881526020019081526020015f205f86848151811061124157611241611897565b60200260200101516001600160a01b03166001600160a01b031681526020019081526020015f206002015460035f8981526020019081526020015f205f87848151811061129057611290611897565b60200260200101516001600160a01b03166001600160a01b031681526020019081526020015f206002015411156112c5578091505b600101611215565b50818114611373575f8483815181106112e8576112e8611897565b6020026020010151905084828151811061130457611304611897565b602002602001015185848151811061131e5761131e611897565b60200260200101906001600160a01b031690816001600160a01b0316815250508085838151811061135157611351611897565b60200260200101906001600160a01b031690816001600160a01b031681525050505b506001016111f3565b50909392505050565b425f6113956301e13380836118d7565b90505f5b60098110156116045760405163ab3545e560e01b8152600481018290525f907f00000000000000000000000000000000000000000000000000000000000000006001600160a01b03169063ab3545e590602401602060405180830381865afa158015611407573d5f803e3d5ffd5b505050506040513d601f19601f8201168201806040525081019061142b9190611914565b90505f85836009811061144057611440611897565b60200201519050806001600160a01b0316826001600160a01b031614611522576001600160a01b0382165f90815260076020526040902054156114d4576001600160a01b0382165f81815260086020908152604080832042905560078252918290205491519182527f0738525463d0173ea394488da017cb5ef45789920d3c7792398ebc11df9b7565910160405180910390a25b806001600160a01b0316826001600160a01b03167fd35d87b05f3b74214d65b41e0c138f4181e21e4e879785b0dd6bf427b32296e88560405161151991815260200190565b60405180910390a35b6001600160a01b0381165f90815260076020526040902060048101541580159061155d57506001548160040154600161155b91906118d7565b145b1561157d57600381018054905f611573836118bf565b9190505550611585565b600160038201555b8054815f611592836118bf565b90915550506001818101879055600282018690555460048201558054604080519182526020820188905281018690526001600160a01b038316907f038e0ea7635073b270fd97d69dd06ee7a73a19f96a7cbd56c2d709e72825a9719060600160405180910390a2505050600101611399565b50505050565b6001600160a01b0381165f908152600760205260408120805482036116325750600192915050565b5f816004015411801561165657506001548160040154600161165491906118d7565b105b156116645750600192915050565b6003908101541092915050565b6040518061012001604052806009906020820280368337509192915050565b82600981019282156116d8579160200282015b828111156116d857825182546001600160a01b0319166001600160a01b039091161782556020909201916001909101906116a3565b506116e4929150611726565b5090565b6040518060e001604052805f81526020015f81526020015f81526020015f81526020015f81526020015f15158152602001611721611671565b905290565b5b808211156116e4575f8155600101611727565b6001600160a01b038116811461174e575f80fd5b50565b5f60208284031215611761575f80fd5b813561176c8161173a565b9392505050565b5f60208284031215611783575f80fd5b5035919050565b602080825282518282018190525f9190848201906040850190845b818110156117ca5783516001600160a01b0316835292840192918401916001016117a5565b50909695505050505050565b5f80604083850312156117e7575f80fd5b8235915060208301356117f98161173a565b809150509250929050565b805f5b60098110156116045781516001600160a01b0316845260209384019390910190600101611807565b61012081016106718284611804565b5f6101e082019050825182526020830151602083015260408301516040830152606083015160608301526080830151608083015260a0830151151560a083015260c083015161189060c0840182611804565b5092915050565b634e487b7160e01b5f52603260045260245ffd5b634e487b7160e01b5f52601160045260245ffd5b5f600182016118d0576118d06118ab565b5060010190565b80820180821115610671576106716118ab565b5f602082840312156118fa575f80fd5b5051919050565b81810381811115610671576106716118ab565b5f60208284031215611924575f80fd5b815161176c8161173a56fea2646970667358221220aa564bdd3b6eebfcb803bfeffea01d80496e1e89ab9b9dd9f8e442c492d84d7264736f6c63430008180033","linkReferences":{}},"methodIdentifiers":{"MAX_CONSECUTIVE_TERMS()":"485e20ad","MAX_MEMBERS()":"ea0e35b1","MIN_VEQS_TO_NOMINATE()":"1cdcf031","MIN_VEQS_TO_VOTE()":"188cf0b8","NOMINATION_PERIOD()":"551bdead","TERM_DURATION()":"a3dbd329","VOTING_PERIOD()":"b1610d7e","currentElectionId()":"98ecf2a0","finalize()":"4bb278f3","getCandidate(uint256,address)":"5bf343d2","getCandidates(uint256)":"3e39a7a5","getConsecutiveTerms(address)":"676ae617","getElection(uint256)":"9d710777","getTermEnd(address)":"9d806a28","getTermInfo(address)":"40b0b1da","getVotesReceived(address)":"2f4b379b","getWinners(uint256)":"6b1426a4","governance()":"5aa6e675","hasVoted(uint256,address)":"43859632","isNominated(address)":"3a3e6c81","isNominationPeriod()":"ba4f2c0d","isVotingPeriod()":"e16fd62e","nominate()":"fcd7e1d7","securityCouncil()":"27eb6c0f","setGovernance(address)":"ab033ea9","startElection()":"62d73eb8","veqs()":"0ed1f660","vote(address)":"6dd7d8ea"},"id":37}