{"abi":[{"type":"function","name":"DOMAIN_LOCK","inputs":[],"outputs":[{"name":"","type":"bytes32","internalType":"bytes32"}],"stateMutability":"view"},{"type":"function","name":"DOMAIN_UNLOCK","inputs":[],"outputs":[{"name":"","type":"bytes32","internalType":"bytes32"}],"stateMutability":"view"}],"bytecode":{"object":"0x608080604052346100195760d9908161001f823930815050f35b600080fdfe6080806040526004361015601257600080fd5b600090813560e01c90816307c1d9c114606b575063155b101914603457600080fd5b8060031936011260685760206040517fc1092c7f825a13e6e2df4be421deaca778b8a52bbf38bd696bd3e7c3a45e08548152f35b80fd5b905081600319360112609f57807f413f4c7a034bb455a77260c9f071651135e9ce0a039b91c830fb3d2f8e3a19cd60209252f35b5080fdfea2646970667358221220f36b883184f73599eb38064c1c5de78ff72843c986919477b7465f31851d544664736f6c63430008140033","linkReferences":{}},"methodIdentifiers":{"DOMAIN_LOCK()":"155b1019","DOMAIN_UNLOCK()":"07c1d9c1"},"id":33}