{"abi":[{"type":"function","name":"VERSION","inputs":[],"outputs":[{"name":"","type":"uint256","internalType":"uint256"}],"stateMutability":"view"},{"type":"error","name":"LengthMismatch","inputs":[]},{"type":"error","name":"ModExpFailed","inputs":[]},{"type":"error","name":"ZeroInverse","inputs":[]}],"bytecode":{"object":"0x608080604052346018576075908161001e823930815050f35b600080fdfe6080806040526004361015601257600080fd5b60003560e01c63ffa1ad7414602657600080fd5b6000366003190112603a5780600160209252f35b600080fdfea26469706673582212206572513c79c2bde3b34338a5b63fe95da109f2a88e3adbce614bedeee33d6cea64736f6c63430008140033","linkReferences":{}},"methodIdentifiers":{"VERSION()":"ffa1ad74"},"id":47}