{"src/bridge/ExternalBridgeAdapter.sol":{"ExternalBridgeAdapter":{"abi":[{"type":"constructor","inputs":[{"name":"admin_","type":"address","internalType":"address"}],"stateMutability":"nonpayable"},{"type":"function","name":"canExecuteCoreAction","inputs":[{"name":"action","type":"bytes4","internalType":"bytes4"},{"name":"caller","type":"address","internalType":"address"}],"outputs":[{"name":"","type":"bool","internalType":"bool"}],"stateMutability":"view"},{"type":"function","name":"getAdmin","inputs":[],"outputs":[{"name":"","type":"address","internalType":"address"}],"stateMutability":"view"},{"type":"function","name":"getGovernanceMode","inputs":[],"outputs":[{"name":"","type":"uint8","internalType":"enum IGovernanceSwitch.GovernanceMode"}],"stateMutability":"view"},{"type":"function","name":"getGovernanceSwitchAddress","inputs":[],"outputs":[{"name":"","type":"address","internalType":"address"}],"stateMutability":"view"},{"type":"function","name":"getMinimumStake","inputs":[],"outputs":[{"name":"","type":"uint256","internalType":"uint256"}],"stateMutability":"view"},{"type":"function","name":"getStakeCurrency","inputs":[],"outputs":[{"name":"","type":"address","internalType":"address"}],"stateMutability":"view"},{"type":"function","name":"getTokenMode","inputs":[],"outputs":[{"name":"","type":"uint8","internalType":"enum ITokenSwitch.TokenMode"}],"stateMutability":"view"},{"type":"function","name":"getTokenSwitchAddress","inputs":[],"outputs":[{"name":"","type":"address","internalType":"address"}],"stateMutability":"view"},{"type":"function","name":"hasVotingPower","inputs":[{"name":"account","type":"address","internalType":"address"}],"outputs":[{"name":"","type":"bool","internalType":"bool"}],"stateMutability":"view"},{"type":"function","name":"initialize","inputs":[{"name":"governance","type":"address","internalType":"address"},{"name":"token","type":"address","internalType":"address"}],"outputs":[],"stateMutability":"nonpayable"},{"type":"function","name":"isInitialized","inputs":[],"outputs":[{"name":"","type":"bool","internalType":"bool"}],"stateMutability":"view"},{"type":"function","name":"isTokenRequired","inputs":[{"name":"action","type":"bytes4","internalType":"bytes4"}],"outputs":[{"name":"","type":"bool","internalType":"bool"}],"stateMutability":"view"},{"type":"function","name":"transferAdmin","inputs":[{"name":"newAdmin","type":"address","internalType":"address"}],"outputs":[],"stateMutability":"nonpayable"},{"type":"function","name":"updateLayerReferences","inputs":[{"name":"governance","type":"address","internalType":"address"},{"name":"token","type":"address","internalType":"address"}],"outputs":[],"stateMutability":"nonpayable"},{"type":"function","name":"validateLayerCompatibility","inputs":[],"outputs":[{"name":"","type":"bool","internalType":"bool"}],"stateMutability":"view"},{"type":"event","name":"ActionAuthorizationChecked","inputs":[{"name":"action","type":"bytes4","indexed":true,"internalType":"bytes4"},{"name":"caller","type":"address","indexed":true,"internalType":"address"},{"name":"authorized","type":"bool","indexed":false,"internalType":"bool"}],"anonymous":false},{"type":"event","name":"AdminTransferred","inputs":[{"name":"oldAdmin","type":"address","indexed":true,"internalType":"address"},{"name":"newAdmin","type":"address","indexed":true,"internalType":"address"}],"anonymous":false},{"type":"event","name":"LayerReferenceUpdated","inputs":[{"name":"governance","type":"address","indexed":true,"internalType":"address"},{"name":"token","type":"address","indexed":true,"internalType":"address"}],"anonymous":false},{"type":"event","name":"ModeCompatibilityChecked","inputs":[{"name":"govMode","type":"uint8","indexed":true,"internalType":"enum IGovernanceSwitch.GovernanceMode"},{"name":"tokenMode","type":"uint8","indexed":true,"internalType":"enum ITokenSwitch.TokenMode"},{"name":"valid","type":"bool","indexed":false,"internalType":"bool"}],"anonymous":false},{"type":"error","name":"AlreadyInitialized","inputs":[]},{"type":"error","name":"InvalidModeComposition","inputs":[{"name":"govMode","type":"uint8","internalType":"enum IGovernanceSwitch.GovernanceMode"},{"name":"tokenMode","type":"uint8","internalType":"enum ITokenSwitch.TokenMode"}]},{"type":"error","name":"NotInitialized","inputs":[]},{"type":"error","name":"UnauthorizedCaller","inputs":[{"name":"caller","type":"address","internalType":"address"},{"name":"action","type":"bytes4","internalType":"bytes4"}]},{"type":"error","name":"UnsupportedAction","inputs":[{"name":"action","type":"bytes4","internalType":"bytes4"}]},{"type":"error","name":"ZeroAddress","inputs":[]}],"userdoc":{},"devdoc":{},"evm":{"bytecode":{"object":"6080346100ae57601f610d2438819003918201601f19168301916001600160401b038311848410176100b2578084926020946040528339810103126100ae57516001600160a01b038116908190036100ae578015610079575f80546001600160a01b031916919091179055604051610c5d90816100c78239f35b60405162461bcd60e51b815260206004820152600d60248201526c24b73b30b634b21030b236b4b760991b6044820152606490fd5b5f80fd5b634e487b7160e01b5f52604160045260245ffdfe6080604090808252600480361015610015575f80fd5b5f3560e01c91826311a30cf7146106a157508163141518a31461066a578163392e53cd14610644578163485cc9551461055c5781636e9960c3146105355781636f4067241461045f57816375829def1461039357816393a3a385146103485781639e35369e146102db578163a9b4563c146102a6578163c6f59ee314610268578163d9bbd278146101c4578163db6c40861461019c578163dee5e55b146100f0575063e27c0f7c146100c5575f80fd5b346100ec575f3660031901126100ec5760025490516001600160a01b039091168152602090f35b5f80fd5b9050346100ec575f3660031901126100ec5760ff60025460a01c161561018e57600154825163dee5e55b60e01b81529160209183919082906001600160a01b03165afa90811561018457916020925f92610155575b5051906101518161078e565b8152f35b610176919250833d851161017d575b61016e81836107ac565b8101906107e2565b905f610145565b503d610164565b82513d5f823e3d90fd5b90516321c4e35760e21b8152fd5b82346100ec575f3660031901126100ec5760015490516001600160a01b039091168152602090f35b82346100ec575f3660031901126100ec5760025460ff8160a01c161561025a578151631b377a4f60e31b81529260209184919082906001600160a01b03165afa908115610251575f9161021c575b6020925051908152f35b90506020823d602011610249575b81610237602093836107ac565b810103126100ec576020915190610212565b3d915061022a565b513d5f823e3d90fd5b50516321c4e35760e21b8152fd5b82346100ec5760203660031901126100ec57610282610777565b9160ff60025460a01c161561018e575061029d602092610ada565b90519015158152f35b82346100ec5760203660031901126100ec576102c061074b565b9160ff60025460a01c161561018e575061029d602092610a6d565b9050346100ec575f3660031901126100ec5760025460ff8160a01c1615610339578251634f1a9b4f60e11b81529160209183919082906001600160a01b03165afa90811561018457916020925f92610155575051906101518161078e565b5090516321c4e35760e21b8152fd5b82346100ec57806003193601126100ec57610361610777565b610369610761565b9260ff60025460a01c1615610385575060209261029d916108fc565b82516321c4e35760e21b8152fd5b9050346100ec5760203660031901126100ec576103ae61074b565b5f546001600160a01b038082169391923385900361043d57169384156104065750506001600160a01b03191682175f9081557ff8ccb027dfcd135e000e9d45e6cc2d662578a8825d4c45b5e32e0adf67e79ec69080a3005b906020606492519162461bcd60e51b8352820152601160248201527024b73b30b634b2103732bb9030b236b4b760791b6044820152fd5b8551631923429360e21b8152338185019081525f602082015281906040010390fd5b9050346100ec57816003193601126100ec5761047961074b565b90610482610761565b9161048c33610b1c565b15610513576001600160a01b0390811692831561050357169283156104f6575050816bffffffffffffffffffffffff60a01b8281600154161760015560025416176002557f3b0fdaa79927e9bf4d850068bd2d0551e212d24c1fad46434e738ed2ae40c2c65f80a3005b5163d92e233d60e01b8152fd5b845163d92e233d60e01b81528390fd5b8351631923429360e21b8152338184019081525f602082015281906040010390fd5b82346100ec575f3660031901126100ec575f5490516001600160a01b039091168152602090f35b9050346100ec57816003193601126100ec5761057661074b565b61057e610761565b5f549092906001600160a01b039081163303610622576002549260ff8460a01c1661061357811693841561060357169384156104f6575050600180546001600160a01b031916831790556001600160a81b0319168217600160a01b176002557f3b0fdaa79927e9bf4d850068bd2d0551e212d24c1fad46434e738ed2ae40c2c65f80a3005b855163d92e233d60e01b81528390fd5b855162dc149f60e41b81528390fd5b8451631923429360e21b8152338184019081525f602082015281906040010390fd5b82346100ec575f3660031901126100ec5760209060ff60025460a01c1690519015158152f35b82346100ec575f3660031901126100ec5760ff60025460a01c16156106945760209061029d6107fa565b516321c4e35760e21b8152fd5b8382346100ec575f3660031901126100ec576002549260ff8460a01c161561073f575081516311a30cf760e01b8152926001600160a01b0391602091859190829085165afa918215610251575f926106ff575b602093505191168152f35b9150916020813d602011610737575b8161071b602093836107ac565b810103126100ec57519180831683036100ec57602092916106f4565b3d915061070e565b6321c4e35760e21b8152fd5b600435906001600160a01b03821682036100ec57565b602435906001600160a01b03821682036100ec57565b600435906001600160e01b0319821682036100ec57565b6003111561079857565b634e487b7160e01b5f52602160045260245ffd5b90601f8019910116810190811067ffffffffffffffff8211176107ce57604052565b634e487b7160e01b5f52604160045260245ffd5b908160209103126100ec575160038110156100ec5790565b60015460405163dee5e55b60e01b81526020916001600160a01b03919083908290600490829086165afa9081156108b95783905f926108c4575b50600254604051634f1a9b4f60e11b8152929383916004918391165afa9283156108b9575f93610895575b50508061086d60029261078e565b149081610883575b5061087f57600190565b5f90565b905061088e8161078e565b155f610875565b600292935090816108b192903d1061017d5761016e81836107ac565b91905f61085f565b6040513d5f823e3d90fd5b600492506108de90823d841161017d5761016e81836107ac565b91610834565b908160209103126100ec575180151581036100ec5790565b6001546040805163dee5e55b60e01b815290936001600160a01b03936020939192918516908483600481855afa928315610a63575f93610a41575b50600490858760025416895193848092634f1a9b4f60e11b82525afa918215610a37575f92610a18575b506001600160e01b03191692632b3c480960e11b84146109dd57505083929160449187519687948593637d7c0e1f60e01b855260048501521660248301525afa92831561025157505f926109b457505090565b6109d39250803d106109d6575b6109cb81836107ac565b8101906108e4565b90565b503d6109c1565b93965094505050600291506109f18161078e565b03610a12576109ff8161078e565b15610a0d576109d390610ba4565b505f90565b50505f90565b610a30919250863d881161017d5761016e81836107ac565b905f610961565b88513d5f823e3d90fd5b6004919350610a5c90863d881161017d5761016e81836107ac565b9290610937565b87513d5f823e3d90fd5b60015460405163dee5e55b60e01b815290602090829060049082906001600160a01b03165afa80156108b9576002915f91610abb575b50610aad8161078e565b03610a0d576109d390610ba4565b610ad4915060203d60201161017d5761016e81836107ac565b5f610aa3565b6001600160e01b031916634567890160e01b8114610b1657636789012360e01b8114610b1657632b3c480960e11b14610b11575f90565b600190565b50600190565b5f546001600160a01b03918216919081168214610b9d5760ff60025460a01c1615610a1257600154604051637d7c0e1f60e01b815263048d048d60e21b6004820152602481019390935260209183916044918391165afa9081156108b9575f91610b84575090565b6109d3915060203d6020116109d6576109cb81836107ac565b5050600190565b600254604051634f1a9b4f60e11b81526001600160a01b0392916020908290600490829087165afa9081156108b9575f91610c08575b50610be48161078e565b8015610c015780610bf660019261078e565b14610a125716151590565b5050505f90565b610c21915060203d60201161017d5761016e81836107ac565b5f610bda56fea264697066735822122081f4134f1538114799c917f8883473d95b13977bfa0ee99c5dac2015bcf9d26d64736f6c63430008180033","linkReferences":{}},"methodIdentifiers":{"canExecuteCoreAction(bytes4,address)":"93a3a385","getAdmin()":"6e9960c3","getGovernanceMode()":"dee5e55b","getGovernanceSwitchAddress()":"db6c4086","getMinimumStake()":"d9bbd278","getStakeCurrency()":"11a30cf7","getTokenMode()":"9e35369e","getTokenSwitchAddress()":"e27c0f7c","hasVotingPower(address)":"a9b4563c","initialize(address,address)":"485cc955","isInitialized()":"392e53cd","isTokenRequired(bytes4)":"c6f59ee3","transferAdmin(address)":"75829def","updateLayerReferences(address,address)":"6f406724","validateLayerCompatibility()":"141518a3"}}}}}