{"abi":[{"type":"constructor","inputs":[{"name":"_admin","type":"address","internalType":"address"},{"name":"_securityCouncil","type":"address[]","internalType":"address[]"}],"stateMutability":"nonpayable"},{"type":"function","name":"MIN_EMERGENCY_TIMELOCK","inputs":[],"outputs":[{"name":"","type":"uint256","internalType":"uint256"}],"stateMutability":"view"},{"type":"function","name":"MIN_NORMAL_TIMELOCK","inputs":[],"outputs":[{"name":"","type":"uint256","internalType":"uint256"}],"stateMutability":"view"},{"type":"function","name":"SC_THRESHOLD_BPS","inputs":[],"outputs":[{"name":"","type":"uint256","internalType":"uint256"}],"stateMutability":"view"},{"type":"function","name":"TIMELOCK_SECONDS","inputs":[],"outputs":[{"name":"","type":"uint256","internalType":"uint256"}],"stateMutability":"view"},{"type":"function","name":"TOTAL_CPS","inputs":[],"outputs":[{"name":"","type":"uint8","internalType":"uint8"}],"stateMutability":"view"},{"type":"function","name":"VEQS_THRESHOLD_BPS","inputs":[],"outputs":[{"name":"","type":"uint256","internalType":"uint256"}],"stateMutability":"view"},{"type":"function","name":"addSecurityCouncilMember","inputs":[{"name":"member","type":"address","internalType":"address"}],"outputs":[],"stateMutability":"nonpayable"},{"type":"function","name":"admin","inputs":[],"outputs":[{"name":"","type":"address","internalType":"address"}],"stateMutability":"view"},{"type":"function","name":"approveSC","inputs":[{"name":"proposalId","type":"uint256","internalType":"uint256"}],"outputs":[],"stateMutability":"nonpayable"},{"type":"function","name":"calculateRequiredSCApprovals","inputs":[{"name":"totalMembers","type":"uint256","internalType":"uint256"}],"outputs":[{"name":"","type":"uint256","internalType":"uint256"}],"stateMutability":"pure"},{"type":"function","name":"calculateRequiredVeQS","inputs":[{"name":"totalVeQS","type":"uint256","internalType":"uint256"}],"outputs":[{"name":"","type":"uint256","internalType":"uint256"}],"stateMutability":"pure"},{"type":"function","name":"cancelProposal","inputs":[{"name":"proposalId","type":"uint256","internalType":"uint256"}],"outputs":[],"stateMutability":"nonpayable"},{"type":"function","name":"emergencyTimeLock","inputs":[],"outputs":[{"name":"","type":"uint256","internalType":"uint256"}],"stateMutability":"view"},{"type":"function","name":"executeProposal","inputs":[{"name":"proposalId","type":"uint256","internalType":"uint256"}],"outputs":[],"stateMutability":"nonpayable"},{"type":"function","name":"getProposal","inputs":[{"name":"proposalId","type":"uint256","internalType":"uint256"}],"outputs":[{"name":"","type":"tuple","internalType":"struct IConstitutionLock.Proposal","components":[{"name":"cpNumber","type":"uint8","internalType":"uint8"},{"name":"proposedData","type":"bytes","internalType":"bytes"},{"name":"proposedAt","type":"uint256","internalType":"uint256"},{"name":"veQSVotesBps","type":"uint256","internalType":"uint256"},{"name":"scApprovals","type":"uint256","internalType":"uint256"},{"name":"executed","type":"bool","internalType":"bool"},{"name":"cancelled","type":"bool","internalType":"bool"}]}],"stateMutability":"view"},{"type":"function","name":"getProtectionLevel","inputs":[{"name":"cpNumber","type":"uint8","internalType":"uint8"}],"outputs":[{"name":"","type":"uint8","internalType":"enum IConstitutionLock.ProtectionLevel"}],"stateMutability":"view"},{"type":"function","name":"getSecurityCouncilCount","inputs":[],"outputs":[{"name":"","type":"uint256","internalType":"uint256"}],"stateMutability":"view"},{"type":"function","name":"getSupermajorityRequirements","inputs":[],"outputs":[{"name":"","type":"tuple","internalType":"struct IConstitutionLock.SupermajorityRequirements","components":[{"name":"veQSThresholdBps","type":"uint256","internalType":"uint256"},{"name":"scThresholdBps","type":"uint256","internalType":"uint256"},{"name":"timelockSeconds","type":"uint256","internalType":"uint256"}]}],"stateMutability":"pure"},{"type":"function","name":"hasSCApproved","inputs":[{"name":"proposalId","type":"uint256","internalType":"uint256"},{"name":"member","type":"address","internalType":"address"}],"outputs":[{"name":"","type":"bool","internalType":"bool"}],"stateMutability":"view"},{"type":"function","name":"isCompliant","inputs":[{"name":"cpNumber","type":"uint8","internalType":"uint8"}],"outputs":[{"name":"","type":"bool","internalType":"bool"}],"stateMutability":"view"},{"type":"function","name":"isSecurityCouncilMember","inputs":[{"name":"","type":"address","internalType":"address"}],"outputs":[{"name":"","type":"bool","internalType":"bool"}],"stateMutability":"view"},{"type":"function","name":"normalTimeLock","inputs":[],"outputs":[{"name":"","type":"uint256","internalType":"uint256"}],"stateMutability":"view"},{"type":"function","name":"proposeChange","inputs":[{"name":"cpNumber","type":"uint8","internalType":"uint8"},{"name":"proposedData","type":"bytes","internalType":"bytes"}],"outputs":[{"name":"proposalId","type":"uint256","internalType":"uint256"}],"stateMutability":"nonpayable"},{"type":"function","name":"recordVeQSVotes","inputs":[{"name":"proposalId","type":"uint256","internalType":"uint256"},{"name":"votesBps","type":"uint256","internalType":"uint256"}],"outputs":[],"stateMutability":"nonpayable"},{"type":"function","name":"removeSecurityCouncilMember","inputs":[{"name":"member","type":"address","internalType":"address"}],"outputs":[],"stateMutability":"nonpayable"},{"type":"function","name":"securityCouncil","inputs":[{"name":"","type":"uint256","internalType":"uint256"}],"outputs":[{"name":"","type":"address","internalType":"address"}],"stateMutability":"view"},{"type":"function","name":"setAdmin","inputs":[{"name":"newAdmin","type":"address","internalType":"address"}],"outputs":[],"stateMutability":"nonpayable"},{"type":"function","name":"setVoteRecorder","inputs":[{"name":"_voteRecorder","type":"address","internalType":"address"}],"outputs":[],"stateMutability":"nonpayable"},{"type":"function","name":"voteRecorder","inputs":[],"outputs":[{"name":"","type":"address","internalType":"address"}],"stateMutability":"view"},{"type":"event","name":"AdminChanged","inputs":[{"name":"previousAdmin","type":"address","indexed":true,"internalType":"address"},{"name":"newAdmin","type":"address","indexed":true,"internalType":"address"}],"anonymous":false},{"type":"event","name":"ImmutableCPViolationAttempted","inputs":[{"name":"cpNumber","type":"uint8","indexed":true,"internalType":"uint8"},{"name":"attacker","type":"address","indexed":true,"internalType":"address"}],"anonymous":false},{"type":"event","name":"ProposalCreated","inputs":[{"name":"proposalId","type":"uint256","indexed":true,"internalType":"uint256"},{"name":"cpNumber","type":"uint8","indexed":true,"internalType":"uint8"},{"name":"proposedData","type":"bytes","indexed":false,"internalType":"bytes"},{"name":"proposer","type":"address","indexed":false,"internalType":"address"}],"anonymous":false},{"type":"event","name":"ProposalExecuted","inputs":[{"name":"proposalId","type":"uint256","indexed":true,"internalType":"uint256"},{"name":"cpNumber","type":"uint8","indexed":true,"internalType":"uint8"},{"name":"appliedData","type":"bytes","indexed":false,"internalType":"bytes"}],"anonymous":false},{"type":"event","name":"SCApprovalRecorded","inputs":[{"name":"proposalId","type":"uint256","indexed":true,"internalType":"uint256"},{"name":"member","type":"address","indexed":true,"internalType":"address"},{"name":"totalApprovals","type":"uint256","indexed":false,"internalType":"uint256"}],"anonymous":false},{"type":"event","name":"SecurityCouncilMemberAdded","inputs":[{"name":"member","type":"address","indexed":true,"internalType":"address"}],"anonymous":false},{"type":"event","name":"SecurityCouncilMemberRemoved","inputs":[{"name":"member","type":"address","indexed":true,"internalType":"address"}],"anonymous":false},{"type":"event","name":"VeQSVotesRecorded","inputs":[{"name":"proposalId","type":"uint256","indexed":true,"internalType":"uint256"},{"name":"votesBps","type":"uint256","indexed":false,"internalType":"uint256"},{"name":"totalVotesBps","type":"uint256","indexed":false,"internalType":"uint256"}],"anonymous":false},{"type":"event","name":"VoteRecorderChanged","inputs":[{"name":"previousRecorder","type":"address","indexed":true,"internalType":"address"},{"name":"newRecorder","type":"address","indexed":true,"internalType":"address"}],"anonymous":false},{"type":"error","name":"CPImmutable","inputs":[{"name":"cpNumber","type":"uint8","internalType":"uint8"}]},{"type":"error","name":"InsufficientSCApprovals","inputs":[{"name":"current","type":"uint256","internalType":"uint256"},{"name":"required","type":"uint256","internalType":"uint256"}]},{"type":"error","name":"InsufficientVeQS","inputs":[{"name":"current","type":"uint256","internalType":"uint256"},{"name":"required","type":"uint256","internalType":"uint256"}]},{"type":"error","name":"InvalidCPNumber","inputs":[{"name":"cpNumber","type":"uint8","internalType":"uint8"}]},{"type":"error","name":"ProposalAlreadyExecuted","inputs":[{"name":"proposalId","type":"uint256","internalType":"uint256"}]},{"type":"error","name":"ProposalCancelled","inputs":[{"name":"proposalId","type":"uint256","internalType":"uint256"}]},{"type":"error","name":"ProposalNotFound","inputs":[{"name":"proposalId","type":"uint256","internalType":"uint256"}]},{"type":"error","name":"ReentrancyGuardReentrantCall","inputs":[]},{"type":"error","name":"SlashingCannotBeReduced","inputs":[]},{"type":"error","name":"TimeLockCannotBeShortened","inputs":[{"name":"current","type":"uint256","internalType":"uint256"},{"name":"proposed","type":"uint256","internalType":"uint256"}]},{"type":"error","name":"TimeLockNotExpired","inputs":[{"name":"remainingTime","type":"uint256","internalType":"uint256"}]},{"type":"error","name":"Unauthorized","inputs":[]}],"bytecode":{"object":"0x60406080815234620003735762001a3b803803806200001e816200038e565b928339810190828183031262000373576200003981620003b4565b916020908183015160018060401b039384821162000373570181601f820112156200037357805193841162000378578360051b9083806200007c8185016200038e565b809781520192820101928311620003735783809101915b838310620003585750505050600191827f9b779b17422d0df92223018b32b4d1fa46e071723d6817e2486d003becc55f005560018060a01b0380941693841562000324576007825110620002e057600080546001600160a01b03199081169096178155949185855b6200016e575b5050505060039082845252828083209260ff1993848154169055600281528181208481541690556003815281812083858254161790556004815281812083858254161790556005815220918254161790556201518060075562093a80600855516116469081620003f58239f35b8151811015620002da5782620001858284620003c9565b511615620002a257826200019a8284620003c9565b51168752600280865260ff89892054166200025e5783620001bc8385620003c9565b51168754680100000000000000008110156200024a57888101808a558110156200023657888a52878a2001908682541617905583620001fc8385620003c9565b511688528552878720805460ff19168717905560001981146200022257850185620000fb565b634e487b7160e01b87526011600452602487fd5b634e487b7160e01b8a52603260045260248afd5b634e487b7160e01b8a52604160045260248afd5b885162461bcd60e51b815260048101879052601360248201527f4475706c6963617465205343206d656d626572000000000000000000000000006044820152606490fd5b875162461bcd60e51b815260048101869052601160248201527024b73b30b634b21029a19036b2b6b132b960791b6044820152606490fd5b62000101565b855162461bcd60e51b815260048101849052601d60248201527f4d696e696d756d2037205343206d656d626572732072657175697265640000006044820152606490fd5b855162461bcd60e51b815260048101849052600d60248201526c24b73b30b634b21030b236b4b760991b6044820152606490fd5b81906200036584620003b4565b815201910190839062000093565b600080fd5b634e487b7160e01b600052604160045260246000fd5b6040519190601f01601f191682016001600160401b038111838210176200037857604052565b51906001600160a01b03821682036200037357565b8051821015620003de5760209160051b010190565b634e487b7160e01b600052603260045260246000fdfe608080604052600436101561001357600080fd5b60003560e01c9081629e5b571461123d5750806309deb463146111fd5780630d61b51914610f8c5780631200b1e514610e4b5780631a8ec5e314610e2d5780631eb6c94714610e0f57806328acb4e114610de65780632ac8a25f14610da75780632f50cb0114610d5557806345de1fa7146109b05780635085f7051461094857806359a987801461092b578063704b6c02146108865780638cba78311461079d578063963d5b6a1461078057806399a5206614610737578063a9f8f71314610719578063ad779f7714610663578063b3b57a2b14610645578063b675560a146105c0578063b6eb871814610574578063c7f758a8146103f2578063ced8cdec146103d4578063d7072e19146103b8578063e0a8f6f514610321578063e6a6072a146102df578063e725d434146102c1578063e8ec4ef71461018b5763f851a4401461015d57600080fd5b34610186576000366003190112610186576000546040516001600160a01b039091168152602090f35b600080fd5b346101865760208060031936011261018657600435336000526002825260ff604060002054161561026557806000526004825260406000206002810154156102a857600581015460ff811661028f5760081c60ff16610276578160005260058352604060002033600052835260ff604060002054166102655760047fc27e0a72ab59c97359075d9a8c2152689961917c55e719ab287e231982b708a591836000526005855260406000203360005285526040600020600160ff1982541617905501926102578454611601565b8094556040519384523393a3005b6040516282b42960e81b8152600490fd5b60405163105b99a760e21b815260048101839052602490fd5b604051632776407360e11b815260048101849052602490fd5b60405163428d06a960e01b815260048101839052602490fd5b3461018657600036600319011261018657602060405162093a808152f35b346101865760203660031901126101865760043560015481101561018657610308602091611431565b905460405160039290921b1c6001600160a01b03168152f35b3461018657602036600319011261018657600054600435906001600160a01b031633036102655780600052600460205260406000206002810154156102a8576005019081549060ff82166103a05760ff8260081c16610388575061ff001916610100179055005b6024906040519063105b99a760e21b82526004820152fd5b60249060405190632776407360e11b82526004820152fd5b3461018657600036600319011261018657602060405160058152f35b34610186576000366003190112610186576020600854604051908152f35b346101865760208060031936011261018657600435600060c0604051610417816114d7565b8281526060858201528260408201528260608201528260808201528260a0820152015280600052600482526002604060002001541561055c5760005260048152604060002060405190610469826114d7565b60ff815416825260405161048b81610484816001860161156b565b038261150f565b838301908152600282015491604084019283526003810154916060850192835260056004830154926080870193845201549160a086019160ff84161515835260ff60c088019460081c161515845260ff60405197898952511688880152519360e060408801528451948561010089015260005b868110610547575050869750610120969560008887890101525160608701525160808601525160a085015251151560c084015251151560e0830152601f80199101168101030190f35b8181018a0151898201610120015289016104fe565b6024906040519063428d06a960e01b82526004820152fd5b3461018657602036600319011261018657611d4c6004358181029181159183041417156105aa5760209061271060405191048152f35b634e487b7160e01b600052601160045260246000fd5b346101865760203660031901126101865760ff6105db611421565b168015801561063b575b61062357600052600360205260ff60406000205416604051600282101561060d576020918152f35b634e487b7160e01b600052602160045260246000fd5b60249060405190636cd3491f60e11b82526004820152fd5b50600581116105e5565b34610186576000366003190112610186576020604051620151808152f35b346101865760203660031901126101865761067c61140b565b6000546001600160a01b039190821633036102655781169081156106dc57600954826bffffffffffffffffffffffff60a01b821617600955167f984dc79caeb1b1d804881e16fc5e2fab3ce7cf1f7ad20df7037efb5b183f6f8f600080a3005b60405162461bcd60e51b815260206004820152601560248201527424b73b30b634b2103b37ba32903932b1b7b93232b960591b6044820152606490fd5b34610186576000366003190112610186576020600754604051908152f35b3461018657602036600319011261018657610750611421565b60ff811680158015610776575b61062357602061076c8361147e565b6040519015158152f35b506005811161075d565b34610186576000366003190112610186576020604051611d4c8152f35b346101865760403660031901126101865760095460043590602435906001600160a01b0316330361026557816000526004602052604060002060028101541561086d57600581015460ff81166108545760081c60ff1661083b576003018054918083018093116105aa57827f698d488149d38ceae7e5f7340a3313c852547a6a9d2001a847b62f4a122637d0936040935582519182526020820152a2005b60405163105b99a760e21b815260048101849052602490fd5b604051632776407360e11b815260048101859052602490fd5b60405163428d06a960e01b815260048101849052602490fd5b346101865760203660031901126101865761089f61140b565b600054906001600160a01b03808316913383900361026557169182156108f6576001600160a01b031916821760009081557f7e644d79422f17c01e4894b5f4f588d331ebfa28653d42ae832dc59e38c9798f9080a3005b60405162461bcd60e51b815260206004820152600d60248201526c24b73b30b634b21030b236b4b760991b6044820152606490fd5b3461018657600036600319011261018657602060405161217b8152f35b3461018657600036600319011261018657600060408051610968816114f3565b82815282602082015201526060604051610981816114f3565b611d4c908181526040602082019161217b8352019062278d008252604051928352516020830152516040820152f35b34610186576040366003190112610186576109c9611421565b67ffffffffffffffff60243511610186573660236024350112156101865767ffffffffffffffff60243560040135116101865736602480356004013581350101116101865760ff8116158015610d48575b610d2c5760ff8116600052600360205260ff60406000205416600281101561060d5715610ce857610a4c600654611601565b8060065560405191610a5d836114d7565b60ff81168352604051610a8060046024350135601f01601f19166020018261150f565b6024803560048101358084529101602083013760006020602435600401358301015260208401524260408401526000606084015260006080840152600060a0840152600060c084015281600052600460205260406000209260ff81511660ff19855416178455602081015193845167ffffffffffffffff8111610cd257610b0a6001830154611531565b95601f8711610c8b575b602096508690601f8311600114610c1a57600593929160009183610c0f575b50508160011b916000199060031b1c19161760018201555b604083015160028201556060830151600382015560808301516004820155019060a081015115159060ff61ff0060c08554930151151560081b1692169061ffff191617179055817f911da2602ade2e007e24523281fa0472781cc74106e825d47d14da347b8d734760ff6040519360408552602435600401356040860152602435600401356024803501606087013760006060602435600401358701015233878601521692606081601f19601f6024356004013501168101030190a3604051908152f35b015190508880610b33565b9060018401600052876000209160005b601f1985168110610c74575091839160019360059695601f19811610610c5b575b505050811b016001820155610b4b565b015160001960f88460031b161c19169055888080610c4b565b919289600181928685015181550194019201610c2a565b600183016000526020600020601f830160051c810160208410610ccb575b601f890160051c82018110610cbf575050610b14565b60008155600101610ca9565b5080610ca9565b634e487b7160e01b600052604160045260246000fd5b60249060ff60405191338282167fd0e269f2fe4a46acb6a9a7d5c3a3dbb631b42a8703689f9a586d2b130bc34ef7600080a36319a44a2160e01b8352166004820152fd5b604051636cd3491f60e11b815260ff9091166004820152602490fd5b50600560ff821611610a1a565b34610186576040366003190112610186576024356001600160a01b03811690819003610186576004356000526005602052604060002090600052602052602060ff604060002054166040519015158152f35b34610186576020366003190112610186576001600160a01b03610dc861140b565b166000526002602052602060ff604060002054166040519015158152f35b34610186576000366003190112610186576009546040516001600160a01b039091168152602090f35b3461018657600036600319011261018657602060405162278d008152f35b34610186576000366003190112610186576020600154604051908152f35b3461018657602036600319011261018657610e6461140b565b6000546001600160a01b039081163303610265578116908115610f565781600052600260205260ff60406000205416610f1e576001549068010000000000000000821015610cd257610ebf826001610ede9401600155611431565b90919082549060031b9160018060a01b03809116831b921b1916179055565b8060005260026020526040600020600160ff198254161790557f7272860843dd6d485507277e59f943bbbe0e2f7e543cc527584b5d7bc175e797600080a2005b60405162461bcd60e51b815260206004820152601060248201526f20b63932b0b23c90309036b2b6b132b960811b6044820152606490fd5b60405162461bcd60e51b815260206004820152600e60248201526d24b73b30b634b21036b2b6b132b960911b6044820152606490fd5b34610186576020366003190112610186576004357f9b779b17422d0df92223018b32b4d1fa46e071723d6817e2486d003becc55f0060028154146111eb5760028155816000526004602052604060002091600283015480156102a857600584019081549060ff82166108545760ff8260081c166111d25742034281116105aa5762278d00908181106111b15750506003850154611d4c8082106111935750506001546006810290808204600614901517156105aa57600681018091116105aa576007900460048601549080821061117557505060019060ff191617905560ff83541690600184019160036040519161108f83611088818861156b565b038461150f565b146110dc575b507f13a76ae979186069ee2702af9b493f94489bafff852c0cb645c704aedd3e80ab6110d660ff60019654169360405191829160208352602083019061156b565b0390a355005b93604085805181010312610186576040602086015195015194600754808210611158575060085480871061113a57506007556008949094557f13a76ae979186069ee2702af9b493f94489bafff852c0cb645c704aedd3e80ab611095565b604490876040519163d53b833760e01b835260048301526024820152fd5b6044916040519163d53b833760e01b835260048301526024820152fd5b6044925060405191633695866f60e01b835260048301526024820152fd5b604492506040519163ff254b9d60e01b835260048301526024820152fd5b81039081116105aa576024906040519063119ddda760e01b82526004820152fd5b60405163105b99a760e21b815260048101859052602490fd5b604051633ee5aeb560e01b8152600490fd5b34610186576020366003190112610186576004356006810290808204600614901517156105aa57600681018091116105aa57602090600760405191048152f35b346101865760203660031901126101865761125661140b565b6000546001600160a01b039190821633036113fd5781169081600052600260205260ff60406000205416156113c957600190600782541115611384576000838152600260205260408120805460ff191690559190815b6112d9575b837fa4bf67078fea063741ef5edeaf1716112f28988e2a9beeb7968e053287072820600080a2005b81548084101561137e578190856112ef86611431565b939054600394851b1c16146113135750509061130b8193611601565b9291906112ac565b909360001991808301919082116105aa57610ebf8461133461134194611431565b905490891b1c1691611431565b8254801561136857019261135484611431565b81939154921b1b19169055558180806112b1565b634e487b7160e01b600052603160045260246000fd5b506112b1565b60405162461bcd60e51b815260206004820152601960248201527f43616e6e6f7420676f2062656c6f772037206d656d62657273000000000000006044820152606490fd5b60405162461bcd60e51b815260206004820152600c60248201526b2737ba10309036b2b6b132b960a11b6044820152606490fd5b6282b42960e81b8352600483fd5b600435906001600160a01b038216820361018657565b6004359060ff8216820361018657565b6001548110156114685760016000527fb10e2d527612073b26eecdfd717e6a320cf44b4afac2b0732d9fcbe2b7fa0cf60190600090565b634e487b7160e01b600052603260045260246000fd5b60ff16600181146114b257600281146114b257600381146114b857600481146114b2576005146114ad57600090565b600190565b50600190565b50620151806007541015806114ca5790565b5062093a80600854101590565b60e0810190811067ffffffffffffffff821117610cd257604052565b6060810190811067ffffffffffffffff821117610cd257604052565b90601f8019910116810190811067ffffffffffffffff821117610cd257604052565b90600182811c92168015611561575b602083101461154b57565b634e487b7160e01b600052602260045260246000fd5b91607f1691611540565b906000929180549161157c83611531565b9182825260019384811690816000146115de575060011461159e575b50505050565b90919394506000526020928360002092846000945b8386106115ca575050505001019038808080611598565b8054858701830152940193859082016115b3565b9294505050602093945060ff191683830152151560051b01019038808080611598565b60001981146105aa576001019056fea26469706673582212200f9c12378eef802f3cae35f86c6720f4195b75cba0b9dfec8882e543b7f6fab364736f6c63430008140033","linkReferences":{}},"methodIdentifiers":{"MIN_EMERGENCY_TIMELOCK()":"e725d434","MIN_NORMAL_TIMELOCK()":"b3b57a2b","SC_THRESHOLD_BPS()":"59a98780","TIMELOCK_SECONDS()":"1eb6c947","TOTAL_CPS()":"d7072e19","VEQS_THRESHOLD_BPS()":"963d5b6a","addSecurityCouncilMember(address)":"1200b1e5","admin()":"f851a440","approveSC(uint256)":"e8ec4ef7","calculateRequiredSCApprovals(uint256)":"09deb463","calculateRequiredVeQS(uint256)":"b6eb8718","cancelProposal(uint256)":"e0a8f6f5","emergencyTimeLock()":"ced8cdec","executeProposal(uint256)":"0d61b519","getProposal(uint256)":"c7f758a8","getProtectionLevel(uint8)":"b675560a","getSecurityCouncilCount()":"1a8ec5e3","getSupermajorityRequirements()":"5085f705","hasSCApproved(uint256,address)":"2f50cb01","isCompliant(uint8)":"99a52066","isSecurityCouncilMember(address)":"2ac8a25f","normalTimeLock()":"a9f8f713","proposeChange(uint8,bytes)":"45de1fa7","recordVeQSVotes(uint256,uint256)":"8cba7831","removeSecurityCouncilMember(address)":"009e5b57","securityCouncil(uint256)":"e6a6072a","setAdmin(address)":"704b6c02","setVoteRecorder(address)":"ad779f77","voteRecorder()":"28acb4e1"},"id":13}