{"abi":[{"type":"constructor","inputs":[{"name":"initialMembers","type":"address[9]","internalType":"address[9]"},{"name":"_governor","type":"address","internalType":"address"}],"stateMutability":"nonpayable"},{"type":"function","name":"ACTION_EXPIRY","inputs":[],"outputs":[{"name":"","type":"uint256","internalType":"uint256"}],"stateMutability":"view"},{"type":"function","name":"MAX_MEMBERS","inputs":[],"outputs":[{"name":"","type":"uint256","internalType":"uint256"}],"stateMutability":"view"},{"type":"function","name":"PAUSE_THRESHOLD","inputs":[],"outputs":[{"name":"","type":"uint256","internalType":"uint256"}],"stateMutability":"view"},{"type":"function","name":"UPGRADE_THRESHOLD","inputs":[],"outputs":[{"name":"","type":"uint256","internalType":"uint256"}],"stateMutability":"view"},{"type":"function","name":"VETO_THRESHOLD","inputs":[],"outputs":[{"name":"","type":"uint256","internalType":"uint256"}],"stateMutability":"view"},{"type":"function","name":"emergencyController","inputs":[],"outputs":[{"name":"","type":"address","internalType":"address"}],"stateMutability":"view"},{"type":"function","name":"executeAction","inputs":[{"name":"actionId","type":"bytes32","internalType":"bytes32"}],"outputs":[],"stateMutability":"nonpayable"},{"type":"function","name":"getAction","inputs":[{"name":"actionId","type":"bytes32","internalType":"bytes32"}],"outputs":[{"name":"","type":"tuple","internalType":"struct ISecurityCouncil.Action","components":[{"name":"id","type":"bytes32","internalType":"bytes32"},{"name":"actionType","type":"uint8","internalType":"enum ISecurityCouncil.ActionType"},{"name":"proposer","type":"address","internalType":"address"},{"name":"proposedAt","type":"uint256","internalType":"uint256"},{"name":"expiresAt","type":"uint256","internalType":"uint256"},{"name":"signatureCount","type":"uint256","internalType":"uint256"},{"name":"state","type":"uint8","internalType":"enum ISecurityCouncil.ActionState"},{"name":"data","type":"bytes","internalType":"bytes"}]}],"stateMutability":"view"},{"type":"function","name":"getMember","inputs":[{"name":"seatId","type":"uint256","internalType":"uint256"}],"outputs":[{"name":"","type":"address","internalType":"address"}],"stateMutability":"view"},{"type":"function","name":"getSeatId","inputs":[{"name":"member","type":"address","internalType":"address"}],"outputs":[{"name":"","type":"uint256","internalType":"uint256"}],"stateMutability":"view"},{"type":"function","name":"getSignatureCount","inputs":[{"name":"actionId","type":"bytes32","internalType":"bytes32"}],"outputs":[{"name":"","type":"uint256","internalType":"uint256"}],"stateMutability":"view"},{"type":"function","name":"getThreshold","inputs":[{"name":"actionType","type":"uint8","internalType":"enum ISecurityCouncil.ActionType"}],"outputs":[{"name":"","type":"uint256","internalType":"uint256"}],"stateMutability":"pure"},{"type":"function","name":"getValidSignatureCount","inputs":[{"name":"actionId","type":"bytes32","internalType":"bytes32"}],"outputs":[{"name":"","type":"uint256","internalType":"uint256"}],"stateMutability":"view"},{"type":"function","name":"governor","inputs":[],"outputs":[{"name":"","type":"address","internalType":"address"}],"stateMutability":"view"},{"type":"function","name":"hasSigned","inputs":[{"name":"actionId","type":"bytes32","internalType":"bytes32"},{"name":"signer","type":"address","internalType":"address"}],"outputs":[{"name":"","type":"bool","internalType":"bool"}],"stateMutability":"view"},{"type":"function","name":"isActionExpired","inputs":[{"name":"actionId","type":"bytes32","internalType":"bytes32"}],"outputs":[{"name":"","type":"bool","internalType":"bool"}],"stateMutability":"view"},{"type":"function","name":"isActionReady","inputs":[{"name":"actionId","type":"bytes32","internalType":"bytes32"}],"outputs":[{"name":"","type":"bool","internalType":"bool"}],"stateMutability":"view"},{"type":"function","name":"isMember","inputs":[{"name":"account","type":"address","internalType":"address"}],"outputs":[{"name":"","type":"bool","internalType":"bool"}],"stateMutability":"view"},{"type":"function","name":"memberCount","inputs":[],"outputs":[{"name":"","type":"uint256","internalType":"uint256"}],"stateMutability":"pure"},{"type":"function","name":"proposeAction","inputs":[{"name":"actionType","type":"uint8","internalType":"enum ISecurityCouncil.ActionType"},{"name":"data","type":"bytes","internalType":"bytes"}],"outputs":[{"name":"actionId","type":"bytes32","internalType":"bytes32"}],"stateMutability":"nonpayable"},{"type":"function","name":"replaceMember","inputs":[{"name":"seatId","type":"uint256","internalType":"uint256"},{"name":"newMember","type":"address","internalType":"address"}],"outputs":[],"stateMutability":"nonpayable"},{"type":"function","name":"setEmergencyController","inputs":[{"name":"_emergencyController","type":"address","internalType":"address"}],"outputs":[],"stateMutability":"nonpayable"},{"type":"function","name":"setGovernor","inputs":[{"name":"newGovernor","type":"address","internalType":"address"}],"outputs":[],"stateMutability":"nonpayable"},{"type":"function","name":"signAction","inputs":[{"name":"actionId","type":"bytes32","internalType":"bytes32"}],"outputs":[],"stateMutability":"nonpayable"},{"type":"event","name":"ActionCancelled","inputs":[{"name":"actionId","type":"bytes32","indexed":true,"internalType":"bytes32"}],"anonymous":false},{"type":"event","name":"ActionExecuted","inputs":[{"name":"actionId","type":"bytes32","indexed":true,"internalType":"bytes32"},{"name":"actionType","type":"uint8","indexed":false,"internalType":"enum ISecurityCouncil.ActionType"},{"name":"executor","type":"address","indexed":true,"internalType":"address"}],"anonymous":false},{"type":"event","name":"ActionProposed","inputs":[{"name":"actionId","type":"bytes32","indexed":true,"internalType":"bytes32"},{"name":"actionType","type":"uint8","indexed":false,"internalType":"enum ISecurityCouncil.ActionType"},{"name":"proposer","type":"address","indexed":true,"internalType":"address"},{"name":"data","type":"bytes","indexed":false,"internalType":"bytes"},{"name":"expiresAt","type":"uint256","indexed":false,"internalType":"uint256"}],"anonymous":false},{"type":"event","name":"ActionSigned","inputs":[{"name":"actionId","type":"bytes32","indexed":true,"internalType":"bytes32"},{"name":"signer","type":"address","indexed":true,"internalType":"address"},{"name":"signatureCount","type":"uint256","indexed":false,"internalType":"uint256"}],"anonymous":false},{"type":"event","name":"MemberAdded","inputs":[{"name":"seatId","type":"uint256","indexed":true,"internalType":"uint256"},{"name":"member","type":"address","indexed":true,"internalType":"address"}],"anonymous":false},{"type":"event","name":"MemberRemoved","inputs":[{"name":"seatId","type":"uint256","indexed":true,"internalType":"uint256"},{"name":"member","type":"address","indexed":true,"internalType":"address"}],"anonymous":false},{"type":"event","name":"MemberReplaced","inputs":[{"name":"seatId","type":"uint256","indexed":true,"internalType":"uint256"},{"name":"oldMember","type":"address","indexed":true,"internalType":"address"},{"name":"newMember","type":"address","indexed":true,"internalType":"address"}],"anonymous":false},{"type":"error","name":"ActionExpiredError","inputs":[]},{"type":"error","name":"ActionNotActive","inputs":[]},{"type":"error","name":"ActionNotFound","inputs":[]},{"type":"error","name":"AlreadySigned","inputs":[]},{"type":"error","name":"DuplicateMember","inputs":[]},{"type":"error","name":"ExecutionFailed","inputs":[]},{"type":"error","name":"InvalidMember","inputs":[]},{"type":"error","name":"InvalidSeat","inputs":[]},{"type":"error","name":"NotGovernor","inputs":[]},{"type":"error","name":"NotMember","inputs":[]},{"type":"error","name":"ThresholdNotMet","inputs":[]}],"bytecode":{"object":"0x608034620001a2576001600160401b0390601f620023a738819003918201601f1916830192919084841183851017620001a657819060409485528339810161014082820312620001a25780601f83011215620001a257825191610120948584019084821090821117620001a657845282948101918211620001a257935b8185106200018757506001600160a01b03919082906200009c90620001ba565b1691821562000176575f80546001600160a01b031990811690941781555b60098110620000d25784516121d79081620001d08239f35b818160051b8401511680156200016557805f526004602081815260ff885f2054166200015657908392916001945f5260028152885f208389825416179055825f526003815283895f205552865f208360ff19825416179055817ff328ac0f8bcae00933fe87ba0aa2d0d505c1df94bc9c1aa05b8441c28b74032c5f80a301620000ba565b508651637670720160e11b8152fd5b85516339ec64c160e11b8152600490fd5b83516339ec64c160e11b8152600490fd5b602080916200019687620001ba565b8152019401936200007c565b5f80fd5b634e487b7160e01b5f52604160045260245ffd5b51906001600160a01b0382168203620001a25756fe60a0806040526004361015610012575f80fd5b5f3560e01c90816305040df414610b0f575080630c340a2414610ae857806311aee3801461012457806313de801914610aca57806329832c0f14610aa45780632bbe96bc14610a7757806337837a6214610a2a5780634bf7d919146109b05780634eb91c24146109785780636ca7dc89146109285780637a936beb146109005780638664165e146108e55780638ff65651146108c8578063948e3e79146108a0578063a230c52414610863578063aa821fd31461077a578063ab3545e51461072d578063c42cf535146106c4578063cd9782d7146106a9578063dce9f07014610565578063de7bea7414610535578063e125ab9c1461015e578063e15ec557146101435763ea0e35b114610124575f80fd5b3461013f575f36600319011261013f57602060405160098152f35b5f80fd5b3461013f575f36600319011261013f57602060405160058152f35b3461013f5760208060031936011261013f57600435335f526004825260ff60405f2054161561052357805f526005825260405f20600281015415610511576005810190815460ff81166101b081611ce1565b6104ff57600382015442116104ed57600182019260ff845416916101d383611f9c565b6004850154106104db5760ff191660011790556101ef81611ce1565b806102f157506001546001600160a01b03169081610233575b505060ff5f80516020612182833981519152915b5416926040519361022c81611ce1565b84523393a3005b600661023f9101611efa565b8051810190858181840193031261013f5785810151906001600160401b03821161013f57019181603f8401121561013f576102855f9392836040898796015191016120de565b826040516102c6816102af8b82019563cf65996360e01b8752604060248401526064830190611d20565b6203f480604483015203601f198101835282611dc6565b51925af16102d2612113565b50156102df578380610208565b604051632b3f6d1160e21b8152600490fd5b6102fa81611ce1565b600281036103b157505f546001600160a01b0316908161032d575b505060ff5f805160206121828339815191529161021c565b60066103399101611efa565b848180518101031261013f5784015190604051908582019263fb6f93f960e01b845260248301526024825260608201928284106001600160401b0385111761039d575f809493819460405251925af1610390612113565b50156102df578380610315565b634e487b7160e01b5f52604160045260245ffd5b6103ba81611ce1565b6001810361045a575060066103cf9101611efa565b8051810160408286830192031261013f576103eb8583016120ca565b916040810151906001600160401b03821161013f57019181603f8401121561013f576104225f9392836040898796015191016120de565b8051919087019083906001600160a01b03165af161043e612113565b50156102df5760ff5f805160206121828339815191529161021c565b80610466600392611ce1565b14610483575b5060ff5f805160206121828339815191529161021c565b600661048f9101611efa565b60408180518101031261013f57838101515f805160206121828339815191529260ff9290916104d4916001600160a01b03906104cd906040016120ca565b1690611ff9565b915061046c565b6040516359fa4a9360e01b8152600490fd5b60405163bd86ae2b60e01b8152600490fd5b60405163269e887b60e21b8152600490fd5b60405163073ec13d60e31b8152600490fd5b60405163148fe22160e11b8152600490fd5b3461013f57602036600319011261013f57600435600481101561013f5761055d602091611f9c565b604051908152f35b3461013f5760208060031936011261013f57606060e060405161058781611d73565b5f81525f848201525f60408201525f838201525f60808201525f60a08201525f60c082015201526004355f526005815260405f206106a5604051916105cb83611d73565b805483526001810154848401919060ff81166105e681611ce1565b835260018060a01b0380604087019260081c1682526002830154606087019081526003840154916080880192835260048501549360a08901948552610645600660ff6005890154169760c08c019861063d81611ce1565b895201611efa565b9660e08a019788526040519a8b9a818c5251908b01525161066581611ce1565b60408a0152511660608801525160808701525160a08601525160c08501525161068d81611ce1565b60e08401525161010080840152610120830190611d20565b0390f35b3461013f575f36600319011261013f57602060405160078152f35b3461013f57602036600319011261013f576106dd611ccb565b5f54906001600160a01b0390818316330361071b5716908115610709576001600160a01b031916175f55005b6040516339ec64c160e11b8152600490fd5b604051633b8d9d7560e21b8152600490fd5b3461013f57602036600319011261013f576004356009811015610768575f526002602052602060018060a01b0360405f205416604051908152f35b6040516367ee0b4d60e11b8152600490fd5b3461013f5760208060031936011261013f57600435335f526004825260ff60405f2054161561052357805f526005825260405f206002810154156105115760ff6005820154166107c981611ce1565b6104ff57600381015442116104ed57815f526006835260405f20335f52835260ff60405f2054166108515760047f08851ea8de54deb23379847797e07be584bfd9646cfb3c79cf1f5b68482fd4dc91835f526006855260405f20335f52855260405f20600160ff1982541617905501926108438454611d45565b8094556040519384523393a3005b60405163585eb56560e11b8152600490fd5b3461013f57602036600319011261013f576001600160a01b03610884611ccb565b165f526004602052602060ff60405f2054166040519015158152f35b3461013f57602036600319011261013f5760206108be600435611edc565b6040519015158152f35b3461013f575f36600319011261013f5760206040516202a3008152f35b3461013f575f36600319011261013f57602060405160068152f35b3461013f575f36600319011261013f576001546040516001600160a01b039091168152602090f35b3461013f57602036600319011261013f57610941611ccb565b5f546001600160a01b0391908216330361071b57168015610709576bffffffffffffffffffffffff60a01b60015416176001555f80f35b3461013f57604036600319011261013f57610991611cb5565b5f546001600160a01b0316330361071b576109ae90600435611ff9565b005b3461013f5760208060031936011261013f575f90600435825b600981106109dc57602084604051908152f35b5f81815260028452604080822054848352600686528183206001600160a01b039091168352855290205460ff16610a16575b6001016109c9565b92610a22600191611d45565b939050610a0e565b3461013f57602036600319011261013f576001600160a01b03610a4b611ccb565b16805f52600460205260ff60405f20541615610523575f526003602052602060405f2054604051908152f35b3461013f57602036600319011261013f576004355f5260056020526020600460405f200154604051908152f35b3461013f57604036600319011261013f5760206108be610ac2611cb5565b600435611e9b565b3461013f57602036600319011261013f5760206108be600435611e47565b3461013f575f36600319011261013f575f546040516001600160a01b039091168152602090f35b3461013f57604036600319011261013f5760048035101561013f57602435906001600160401b03821161013f573660238301121561013f576001600160401b0382600401351161013f5736602483600401358401011161013f57335f52600460205260ff60405f20541615611ca65750610b8a600754611d45565b80600755610bdf6040518092610ba1600435611ce1565b600435602083015260806040830152610bc560a08301866004013560248801611d53565b90606083015242608083015203601f198101835282611dc6565b5f608052604051610bef81611d8f565b6103203682376080528051600181018082116110b25760889004916001830183116110b2575f92915b6001830184106110c657846001600160401b0360805151166fffffffffffffffff00000000000000006020608051015160401b16176001600160401b0360801b6040608051015160801b16176001600160401b0360c01b6060608051015160c01b16177eff00ff00ff00ff00ff00ff00ff00ff00ff00ff00ff00ff00ff00ff00ff00ff7fff00ff00ff00ff00ff00ff00ff00ff00ff00ff00ff00ff00ff00ff00ff00ff008260081b169160081c16177dffff0000ffff0000ffff0000ffff0000ffff0000ffff0000ffff0000ffff7fffff0000ffff0000ffff0000ffff0000ffff0000ffff0000ffff0000ffff00008260101b169160101c16177bffffffff00000000ffffffff00000000ffffffff00000000ffffffff7fffffffff00000000ffffffff00000000ffffffff00000000ffffffff000000008260201b169160201c161777ffffffffffffffff0000000000000000ffffffffffffffff80198260401b169160401c16176202a300420142116110b25760405191610d9a83611d73565b8160801b8260801c178352610db0600435611ce1565b60043560208401523360408401524260608401526202a30042016080840152600160a08401525f60c0840152610de98160040135611df4565b610df66040519182611dc6565b60048201358082526024830160208301375f602083600401358301015260e084019081528260801b8360801c175f52600560205260405f209380518555600185016020820151610e4581611ce1565b610e4e81611ce1565b815460ff610100600160a81b03604086015160081b169216906affffffffffffffffffffff60a81b1617179055606081015160028601556080810151600386015560a0810151600486015560c060058601910151610eab81611ce1565b610eb481611ce1565b60ff80198354169116179055519283516001600160401b03811161039d57610edf6006830154611e0f565b94601f861161106a575b602095508590601f831160011461100057600692915f9183610ff5575b50508160011b915f199060031b1c1916179101555b8160801b8260801c175f526006835260405f20335f52835260405f20600160ff19825416179055610f7260405191610f54600435611ce1565b60043583526060858401526060830190602481600401359101611d53565b6202a300420160408301527f262b1a5a20587459ad9a97d628b9ba1828b5b6ef75fb737628b5fe6985b427b73392808560801b8660801c17930390a36040516001815233907f08851ea8de54deb23379847797e07be584bfd9646cfb3c79cf1f5b68482fd4dc848460801b8560801c1792a3604051908060801b9060801c178152f35b015190508780610f06565b90600684015f52865f20915f5b601f19851681106110535750918391600193600695601f1981161061103b575b505050811b01910155610f1b565b01515f1960f88460031b161c1916905587808061102d565b91928860018192868501518155019401920161100d565b600683015f5260205f20601f830160051c810196602084106110a8575b601f0160051c01955b86811061109d5750610ee9565b5f8155600101611090565b9096508690611087565b634e487b7160e01b5f52601160045260245ffd5b90919293846088810204608814851517156110b257935f935b6011851015611205575f90815b60088310156111c2578660031b878104600814881517156110b2578361111861111d9260888802611de7565b611de7565b8581101561117b5786518110156111675786016020015160f81c905b838060031b04600814841517156110b2576001600160401b0360ff600193168560031b1b16179201916110ec565b634e487b7160e01b5f52603260045260245ffd5b80860361118b5750600690611139565b6088808602018060888702116110b25760876088870201116110b25760888502608701036111bb57608090611139565b5f90611139565b600192509692969590956001600160401b036111e083608051612142565b5116186001600160401b036111f783608051612142565b9116905201939490946110df565b935091909161032060405161121981611d8f565b36903760405161122881611dab565b60a036823760405161123981611dab565b60a0368237604051806103208101106001600160401b036103208301111761039d5761032081016040525f815260016020820152603e6040820152601c6060820152601b6080820152602460a0820152602c60c0820152600660e0820152603761010082015260146101208201526003610140820152600a610160820152602b61018082015260196101a082015260276101c082015260296101e0820152602d610200820152600f61022082015260156102408201526008610260820152601261028082015260026102a0820152603d6102c082015260386102e0820152600e61030082015260405191826103008101106001600160401b036103008501111761039d57610300830160405260018352618082602084015267800000000000808a6040840152678000000080008000606084015261808b6080840152638000000160a08401526780000000800080818060c085015267800000000000800960e0850152608a61010085015260886101208501526380008009610140850152638000000a610160850152638000808b61018085015267800000000000008b6101a08501526780000000000080896101c08501526780000000000080036101e085015267800000000000800261020085015267800000000000008061022085015261800a61024085015267800000008000000a6102608501526102808401526780000000000080806102a084015263800000016102c08401526780000000800080086102e08401525f935b6018851061147e5750505060019290920194939150610c189050565b93986001600160401b03806080999498939795995151168160a0608051015116188161014060805101511618816101e06080510151161881610280608051015116181685526001600160401b0380808060206080510151168160c06080510151161881610160608051015116188161020060805101511618816102a06080510151161816806020890152818060406080510151168160e06080510151161881610180608051015116188161022060805101511618816102c060805101511618166040890152818060606080510151168161010060805101511618816101a0608051015116188161024060805101511618816102e0608051015116181660608901526115d88280608080510151168161012060805101511618816101c0608051015116188161026060805101511618816103006080510151161816918260808b015267fffffffffffffffe600182603f1c169160011b161790565b181680885281808851166116058260408b01511667fffffffffffffffe600182603f1c169160011b161790565b1816602089015281806020890151166116378260608b01511667fffffffffffffffe600182603f1c169160011b161790565b1816604089015281806040890151166116698260808b01511667fffffffffffffffe600182603f1c169160011b161790565b181660608901528180606089015116611698828a511667fffffffffffffffe600182603f1c169160011b161790565b181660808901528160805151161816608051526001600160401b03806020880151168160206080510151161816602060805101526001600160401b03806040880151168160406080510151161816604060805101526001600160401b03806060880151168160606080510151161816606060805101526001600160401b0380608088015116816080805101511618166080805101526001600160401b03808751168160a0608051015116181660a060805101526001600160401b03806020880151168160c0608051015116181660c060805101526001600160401b03806040880151168160e0608051015116181660e060805101526001600160401b038060608801511681610100608051015116181661010060805101526001600160401b038060808801511681610120608051015116181661012060805101526001600160401b038087511681610140608051015116181661014060805101526001600160401b038060208801511681610160608051015116181661016060805101526001600160401b038060408801511681610180608051015116181661018060805101526001600160401b0380606088015116816101a060805101511618166101a060805101526001600160401b0380608088015116816101c060805101511618166101c060805101526001600160401b0380875116816101e060805101511618166101e060805101526001600160401b038060208801511681610200608051015116181661020060805101526001600160401b038060408801511681610220608051015116181661022060805101526001600160401b038060608801511681610240608051015116181661024060805101526001600160401b038060808801511681610260608051015116181661026060805101526001600160401b038087511681610280608051015116181661028060805101526001600160401b0380602088015116816102a060805101511618166102a060805101526001600160401b0380604088015116816102c060805101511618166102c060805101526001600160401b0380606088015116816102e060805101511618166102e060805101526001600160401b03806080880151168161030060805101511618166103006080510152604051986119e48a611d8f565b610320368b375f5b60198110611c0457505f5b600580821015611bd157808281020482036110b257611a188282028d612142565b519082810260018101106110b257611a358184026001018e612142565b5181840260028101106110b257611a518285026002018f612142565b519184810260038101106110b257611a6f8f60038784020190612142565b519085810260048101106110b2578f918692838302600401611a9091612142565b519483830260805190611aa291612142565b816001600160401b03871619166001600160401b03166001600160401b038916186001600160401b0316905283830260010160805190611ae191612142565b826001600160401b03831619166001600160401b03166001600160401b038716186001600160401b0316905283830260020160805190611b2091612142565b90866001600160401b03841619166001600160401b0316906001600160401b0316186001600160401b0316905282820260030160805190611b6091612142565b90866001600160401b03871619166001600160401b0316906001600160401b0316186001600160401b031690520260040160805190611b9e91612142565b926001600160401b031619166001600160401b0316906001600160401b0316186001600160401b031690526001016119f7565b5050985098600190979395919692976001600160401b03808260051b870151168160805151161816608051520193611462565b600581066001600160ff1b03811690036110b25760036005820481020460058204036110b2576005611c4081830460030282840660011b611de7565b0690611c6c6001600160401b03611c5983608051612142565b5116611c65838d612142565b5190612153565b60058381020483036110b2576001600160401b03611c9c8e611c9660019660050260058704611de7565b90612142565b91169052016119ec565b63148fe22160e11b8152600490fd5b602435906001600160a01b038216820361013f57565b600435906001600160a01b038216820361013f57565b60041115611ceb57565b634e487b7160e01b5f52602160045260245ffd5b5f5b838110611d105750505f910152565b8181015183820152602001611d01565b90602091611d3981518092818552858086019101611cff565b601f01601f1916010190565b5f1981146110b25760010190565b908060209392818452848401375f828201840152601f01601f1916010190565b61010081019081106001600160401b0382111761039d57604052565b61032081019081106001600160401b0382111761039d57604052565b60a081019081106001600160401b0382111761039d57604052565b90601f801991011681019081106001600160401b0382111761039d57604052565b919082018092116110b257565b6001600160401b03811161039d57601f01601f191660200190565b90600182811c92168015611e3d575b6020831014611e2957565b634e487b7160e01b5f52602260045260245ffd5b91607f1691611e1e565b5f52600560205260405f20600281015415611e965760ff600582015416611e6d81611ce1565b611e965760038101544211611e96576004611e8e60ff600184015416611f9c565b910154101590565b505f90565b9060018060a01b031690815f52600460205260ff60405f20541615611ed6575f52600660205260405f20905f5260205260ff60405f20541690565b50505f90565b5f52600560205260405f20600281015415611e965760030154421190565b9060405191825f8254611f0c81611e0f565b908184526020946001916001811690815f14611f7a5750600114611f3c575b505050611f3a92500383611dc6565b565b5f90815285812095935091905b818310611f62575050611f3a93508201015f8080611f2b565b85548884018501529485019487945091830191611f49565b92505050611f3a94925060ff191682840152151560051b8201015f8080611f2b565b611fa581611ce1565b80611fb05750600590565b611fb981611ce1565b60028103611fc75750600690565b611fd081611ce1565b60018103611fde5750600790565b80611fea600392611ce1565b14611ff457600990565b600690565b906009821015610768576001600160a01b0390811691821561070957825f5260206004815260409260ff845f2054166120b957600190835f5260028352845f20541693845f52600483526004815f209360ff1994858154169055600381525f83812055855f5260028152825f20886bffffffffffffffffffffffff60a01b825416179055875f526003815285835f2055525f20918254161790557fe7fbc4b279069e25255afe7186c1b3d18586395cd71cee3b86f9caedb8520b215f80a4565b8351637670720160e11b8152600490fd5b51906001600160a01b038216820361013f57565b909291926120eb81611df4565b916120f96040519384611dc6565b82948284528282011161013f576020611f3a930190611cff565b3d1561213d573d9061212482611df4565b916121326040519384611dc6565b82523d5f602084013e565b606090565b9060198110156111675760051b0190565b811561217c576001600160401b0380911682604003604081116110b2578183911c16921b161790565b90509056fe8afc2ad3f0122fcd8e13915f863c9468589ccd7c1da1dc16ab34dbd0b9ffda77a264697066735822122032426ba83a509201ee30d1c8b8e04e4c402775fa5fad04b116d092022440c3a664736f6c63430008180033","linkReferences":{}},"methodIdentifiers":{"ACTION_EXPIRY()":"8ff65651","MAX_MEMBERS()":"ea0e35b1","PAUSE_THRESHOLD()":"e15ec557","UPGRADE_THRESHOLD()":"cd9782d7","VETO_THRESHOLD()":"8664165e","emergencyController()":"7a936beb","executeAction(bytes32)":"e125ab9c","getAction(bytes32)":"dce9f070","getMember(uint256)":"ab3545e5","getSeatId(address)":"37837a62","getSignatureCount(bytes32)":"2bbe96bc","getThreshold(uint8)":"de7bea74","getValidSignatureCount(bytes32)":"4bf7d919","governor()":"0c340a24","hasSigned(bytes32,address)":"29832c0f","isActionExpired(bytes32)":"948e3e79","isActionReady(bytes32)":"13de8019","isMember(address)":"a230c524","memberCount()":"11aee380","proposeAction(uint8,bytes)":"05040df4","replaceMember(uint256,address)":"4eb91c24","setEmergencyController(address)":"6ca7dc89","setGovernor(address)":"c42cf535","signAction(bytes32)":"aa821fd3"},"id":39}