{"abi":[{"type":"constructor","inputs":[{"name":"admin_","type":"address","internalType":"address"},{"name":"minter_","type":"address","internalType":"address"}],"stateMutability":"nonpayable"},{"type":"function","name":"MAX_SUPPLY","inputs":[],"outputs":[{"name":"","type":"uint256","internalType":"uint256"}],"stateMutability":"view"},{"type":"function","name":"admin","inputs":[],"outputs":[{"name":"","type":"address","internalType":"address"}],"stateMutability":"view"},{"type":"function","name":"allowance","inputs":[{"name":"owner","type":"address","internalType":"address"},{"name":"spender","type":"address","internalType":"address"}],"outputs":[{"name":"","type":"uint256","internalType":"uint256"}],"stateMutability":"view"},{"type":"function","name":"approve","inputs":[{"name":"spender","type":"address","internalType":"address"},{"name":"amount","type":"uint256","internalType":"uint256"}],"outputs":[{"name":"","type":"bool","internalType":"bool"}],"stateMutability":"nonpayable"},{"type":"function","name":"balanceOf","inputs":[{"name":"account","type":"address","internalType":"address"}],"outputs":[{"name":"","type":"uint256","internalType":"uint256"}],"stateMutability":"view"},{"type":"function","name":"burn","inputs":[{"name":"amount","type":"uint256","internalType":"uint256"}],"outputs":[],"stateMutability":"nonpayable"},{"type":"function","name":"burnFrom","inputs":[{"name":"from","type":"address","internalType":"address"},{"name":"amount","type":"uint256","internalType":"uint256"}],"outputs":[],"stateMutability":"nonpayable"},{"type":"function","name":"decimals","inputs":[],"outputs":[{"name":"","type":"uint8","internalType":"uint8"}],"stateMutability":"view"},{"type":"function","name":"mint","inputs":[{"name":"to","type":"address","internalType":"address"},{"name":"amount","type":"uint256","internalType":"uint256"}],"outputs":[],"stateMutability":"nonpayable"},{"type":"function","name":"minter","inputs":[],"outputs":[{"name":"","type":"address","internalType":"address"}],"stateMutability":"view"},{"type":"function","name":"name","inputs":[],"outputs":[{"name":"","type":"string","internalType":"string"}],"stateMutability":"view"},{"type":"function","name":"pause","inputs":[],"outputs":[],"stateMutability":"nonpayable"},{"type":"function","name":"paused","inputs":[],"outputs":[{"name":"","type":"bool","internalType":"bool"}],"stateMutability":"view"},{"type":"function","name":"setAdmin","inputs":[{"name":"newAdmin","type":"address","internalType":"address"}],"outputs":[],"stateMutability":"nonpayable"},{"type":"function","name":"setMinter","inputs":[{"name":"newMinter","type":"address","internalType":"address"}],"outputs":[],"stateMutability":"nonpayable"},{"type":"function","name":"symbol","inputs":[],"outputs":[{"name":"","type":"string","internalType":"string"}],"stateMutability":"view"},{"type":"function","name":"totalSupply","inputs":[],"outputs":[{"name":"","type":"uint256","internalType":"uint256"}],"stateMutability":"view"},{"type":"function","name":"transfer","inputs":[{"name":"to","type":"address","internalType":"address"},{"name":"amount","type":"uint256","internalType":"uint256"}],"outputs":[{"name":"","type":"bool","internalType":"bool"}],"stateMutability":"nonpayable"},{"type":"function","name":"transferFrom","inputs":[{"name":"from","type":"address","internalType":"address"},{"name":"to","type":"address","internalType":"address"},{"name":"amount","type":"uint256","internalType":"uint256"}],"outputs":[{"name":"","type":"bool","internalType":"bool"}],"stateMutability":"nonpayable"},{"type":"function","name":"unpause","inputs":[],"outputs":[],"stateMutability":"nonpayable"},{"type":"event","name":"AdminChanged","inputs":[{"name":"oldAdmin","type":"address","indexed":true,"internalType":"address"},{"name":"newAdmin","type":"address","indexed":true,"internalType":"address"}],"anonymous":false},{"type":"event","name":"Approval","inputs":[{"name":"owner","type":"address","indexed":true,"internalType":"address"},{"name":"spender","type":"address","indexed":true,"internalType":"address"},{"name":"value","type":"uint256","indexed":false,"internalType":"uint256"}],"anonymous":false},{"type":"event","name":"MinterChanged","inputs":[{"name":"oldMinter","type":"address","indexed":true,"internalType":"address"},{"name":"newMinter","type":"address","indexed":true,"internalType":"address"}],"anonymous":false},{"type":"event","name":"Paused","inputs":[{"name":"account","type":"address","indexed":true,"internalType":"address"}],"anonymous":false},{"type":"event","name":"Transfer","inputs":[{"name":"from","type":"address","indexed":true,"internalType":"address"},{"name":"to","type":"address","indexed":true,"internalType":"address"},{"name":"value","type":"uint256","indexed":false,"internalType":"uint256"}],"anonymous":false},{"type":"event","name":"Unpaused","inputs":[{"name":"account","type":"address","indexed":true,"internalType":"address"}],"anonymous":false},{"type":"error","name":"EnforcedPause","inputs":[]},{"type":"error","name":"ExceedsMaxSupply","inputs":[]},{"type":"error","name":"ExpectedPause","inputs":[]},{"type":"error","name":"InsufficientAllowance","inputs":[]},{"type":"error","name":"InsufficientBalance","inputs":[]},{"type":"error","name":"NotAdmin","inputs":[]},{"type":"error","name":"NotMinter","inputs":[]},{"type":"error","name":"ZeroAddress","inputs":[]}],"bytecode":{"object":"0x6080346100b757601f610afb38819003918201601f19168301916001600160401b038311848410176100bb5780849260409485528339810103126100b757610052602061004b836100cf565b92016100cf565b6001600160a01b03918216919082156100a5571680156100a55760048054600380546001600160a01b0319169093179092556001600160a81b0319909116919091179055604051610a1790816100e48239f35b60405163d92e233d60e01b8152600490fd5b5f80fd5b634e487b7160e01b5f52604160045260245ffd5b51906001600160a01b03821682036100b75756fe608060409080825260049081361015610016575f80fd5b5f3560e01c90816306fdde03146107fa5750806307546172146107d2578063095ea7b31461074657806318160ddd1461072957806323b872dd14610671578063313ce5671461065657806332cb6b0c146106305780633f4ba83a146105bf57806340c10f19146104cc57806342966c68146104af5780635c975abb1461048a578063704b6c02146103fd57806370a08231146103c657806379cc67901461033b5780638456cb59146102b657806395d89b4114610254578063a9059cbb14610207578063dd62ed3e146101be578063f851a440146101965763fca3b5aa146100fc575f80fd5b3461019257602036600319011261019257610115610892565b81546001600160a01b0392919083163303610183578216928315610176575050600354826bffffffffffffffffffffffff60a01b821617600355167f3b0007eb941cf645526cbb3a4fdaecda9d28ce4843167d9263b536a1f1edc0f65f80a3005b5163d92e233d60e01b8152fd5b508251637bfa4b9f60e01b8152fd5b5f80fd5b509034610192575f36600319011261019257905490516001600160a01b039091168152602090f35b82346101925780600319360112610192576020906101da610892565b6101e26108a8565b9060018060a01b038091165f5260028452825f2091165f528252805f20549051908152f35b509034610192578060031936011261019257610221610892565b9160ff815460a01c16610246575061023f60209260243590336108df565b5160018152f35b905163d93c066560e01b8152fd5b509034610192575f3660031901126101925780519080820182811067ffffffffffffffff8211176102a35761029f935081526002825261515360f01b6020830152519182918261084b565b0390f35b604184634e487b7160e01b5f525260245ffd5b509034610192575f366003190112610192578154906001600160a01b038216330361032c5760ff8260a01c1661031d575060ff60a01b1916600160a01b179055337f62e78cea01bee320cd4e420270b5ea74000d11b0c9f74754ebdbfc544b05a2585f80a2005b5163d93c066560e01b81529050fd5b51637bfa4b9f60e01b81529050fd5b509034610192578060031936011261019257610355610892565b6024359160018060a01b038216805f526002602052815f20335f52602052815f2054945f19860361038d575b61038b858561097a565b005b8486106103b8575061038b9484915f526002602052825f20335f5260205203905f20555f8080610381565b82516313be252b60e01b8152fd5b8234610192576020366003190112610192576020906001600160a01b036103eb610892565b165f5260018252805f20549051908152f35b503461019257602036600319011261019257610417610892565b81546001600160a01b0380821693923385900361047a571693841561046b57506001600160a01b031916831790557f7e644d79422f17c01e4894b5f4f588d331ebfa28653d42ae832dc59e38c9798f5f80a3005b5163d92e233d60e01b81529050fd5b8551637bfa4b9f60e01b81528490fd5b509034610192575f3660031901126101925760ff6020925460a01c1690519015158152f35b50346101925760203660031901126101925761038b90353361097a565b5090346101925780600319360112610192576104e6610892565b60035460243592916001600160a01b0391821633036105af5760ff855460a01c1661059f5716928315610591575f54906b033b2e3c9fd0803ce800000061052d85846108be565b116105835750827fddf252ad1be2c89b69c2b068fc378daa952ba7f163c4a11628f55a4df523b3ef926105635f956020946108be565b85558585526001835280852061057a8382546108be565b905551908152a3005b825163c30436e960e01b8152fd5b905163d92e233d60e01b8152fd5b825163d93c066560e01b81528590fd5b8251633e34a41b60e21b81528590fd5b509034610192575f366003190112610192578154906001600160a01b038216330361032c5760ff8260a01c1615610621575060ff60a01b19169055337f5db9ee0a495bf2e6ff9c91a7834c1ba4fdd244a5e8aa4e537bd38aeae4b073aa5f80a2005b51638dfc202b60e01b81529050fd5b8234610192575f36600319011261019257602090516b033b2e3c9fd0803ce80000008152f35b8234610192575f366003190112610192576020905160128152f35b5090346101925760603660031901126101925761068c610892565b6106946108a8565b906044359360ff815460a01c1661071b576001600160a01b0382165f8181526002602090815286822033835290528590205491600183016106de575b60208661023f8988886108df565b86831061070d5750918561023f9492602097945f5260028852865f20335f52885203855f2055919481936106d0565b85516313be252b60e01b8152fd5b835163d93c066560e01b8152fd5b8234610192575f366003190112610192576020905f549051908152f35b509034610192578060031936011261019257610760610892565b6024359033156107c3576001600160a01b03169081156107c35760209350335f5260028452825f20825f52845280835f205582519081527f8c5be1e5ebec7d5bd14f71427d1e84f3dd0314c0f7b2291e5b200ac8c7c3b925843392a35160018152f35b50505163d92e233d60e01b8152fd5b8234610192575f3660031901126101925760035490516001600160a01b039091168152602090f35b90508234610192575f3660031901126101925780820182811067ffffffffffffffff8211176102a35761029f93508152600e82526d145d585b9d1d5b4814da1a595b1960921b602083015251918291825b602080825282518183018190529093925f5b82811061087e57505060409293505f838284010152601f8019910116010190565b81810186015184820160400152850161085d565b600435906001600160a01b038216820361019257565b602435906001600160a01b038216820361019257565b919082018092116108cb57565b634e487b7160e01b5f52601160045260245ffd5b6001600160a01b03908116918215610968571691821561096857815f52600160205260405f205481811061095657817fddf252ad1be2c89b69c2b068fc378daa952ba7f163c4a11628f55a4df523b3ef92602092855f52600184520360405f2055845f5260405f20818154019055604051908152a3565b604051631e9acf1760e31b8152600490fd5b60405163d92e233d60e01b8152600490fd5b6001600160a01b0316801561096857805f52600160205260405f205491808310610956576020817fddf252ad1be2c89b69c2b068fc378daa952ba7f163c4a11628f55a4df523b3ef925f9585875260018452036040862055808554038555604051908152a356fea2646970667358221220749bbe76c6a878e924677e41efed0987e35a032b941159a470564247ab595ebc64736f6c63430008180033","linkReferences":{}},"methodIdentifiers":{"MAX_SUPPLY()":"32cb6b0c","admin()":"f851a440","allowance(address,address)":"dd62ed3e","approve(address,uint256)":"095ea7b3","balanceOf(address)":"70a08231","burn(uint256)":"42966c68","burnFrom(address,uint256)":"79cc6790","decimals()":"313ce567","mint(address,uint256)":"40c10f19","minter()":"07546172","name()":"06fdde03","pause()":"8456cb59","paused()":"5c975abb","setAdmin(address)":"704b6c02","setMinter(address)":"fca3b5aa","symbol()":"95d89b41","totalSupply()":"18160ddd","transfer(address,uint256)":"a9059cbb","transferFrom(address,address,uint256)":"23b872dd","unpause()":"3f4ba83a"},"id":79}