{"abi":[{"type":"constructor","inputs":[{"name":"_admin","type":"address","internalType":"address"},{"name":"_delay","type":"uint256","internalType":"uint256"}],"stateMutability":"nonpayable"},{"type":"receive","stateMutability":"payable"},{"type":"function","name":"GRACE_PERIOD","inputs":[],"outputs":[{"name":"","type":"uint256","internalType":"uint256"}],"stateMutability":"view"},{"type":"function","name":"MAX_DELAY","inputs":[],"outputs":[{"name":"","type":"uint256","internalType":"uint256"}],"stateMutability":"view"},{"type":"function","name":"MIN_DELAY","inputs":[],"outputs":[{"name":"","type":"uint256","internalType":"uint256"}],"stateMutability":"view"},{"type":"function","name":"acceptAdmin","inputs":[],"outputs":[],"stateMutability":"nonpayable"},{"type":"function","name":"admin","inputs":[],"outputs":[{"name":"","type":"address","internalType":"address"}],"stateMutability":"view"},{"type":"function","name":"cancel","inputs":[{"name":"target","type":"address","internalType":"address"},{"name":"value","type":"uint256","internalType":"uint256"},{"name":"data","type":"bytes","internalType":"bytes"},{"name":"eta","type":"uint256","internalType":"uint256"}],"outputs":[],"stateMutability":"nonpayable"},{"type":"function","name":"cancelBatch","inputs":[{"name":"targets","type":"address[]","internalType":"address[]"},{"name":"values","type":"uint256[]","internalType":"uint256[]"},{"name":"datas","type":"bytes[]","internalType":"bytes[]"},{"name":"eta","type":"uint256","internalType":"uint256"}],"outputs":[],"stateMutability":"nonpayable"},{"type":"function","name":"delay","inputs":[],"outputs":[{"name":"","type":"uint256","internalType":"uint256"}],"stateMutability":"view"},{"type":"function","name":"execute","inputs":[{"name":"target","type":"address","internalType":"address"},{"name":"value","type":"uint256","internalType":"uint256"},{"name":"data","type":"bytes","internalType":"bytes"},{"name":"eta","type":"uint256","internalType":"uint256"}],"outputs":[{"name":"result","type":"bytes","internalType":"bytes"}],"stateMutability":"payable"},{"type":"function","name":"executeBatch","inputs":[{"name":"targets","type":"address[]","internalType":"address[]"},{"name":"values","type":"uint256[]","internalType":"uint256[]"},{"name":"datas","type":"bytes[]","internalType":"bytes[]"},{"name":"eta","type":"uint256","internalType":"uint256"}],"outputs":[{"name":"results","type":"bytes[]","internalType":"bytes[]"}],"stateMutability":"payable"},{"type":"function","name":"getBatchHash","inputs":[{"name":"targets","type":"address[]","internalType":"address[]"},{"name":"values","type":"uint256[]","internalType":"uint256[]"},{"name":"datas","type":"bytes[]","internalType":"bytes[]"},{"name":"eta","type":"uint256","internalType":"uint256"}],"outputs":[{"name":"","type":"bytes32","internalType":"bytes32"}],"stateMutability":"pure"},{"type":"function","name":"getTransaction","inputs":[{"name":"txHash","type":"bytes32","internalType":"bytes32"}],"outputs":[{"name":"","type":"tuple","internalType":"struct ITimelock.TransactionDetail","components":[{"name":"target","type":"address","internalType":"address"},{"name":"value","type":"uint256","internalType":"uint256"},{"name":"data","type":"bytes","internalType":"bytes"},{"name":"eta","type":"uint256","internalType":"uint256"}]}],"stateMutability":"view"},{"type":"function","name":"getTransactionHash","inputs":[{"name":"target","type":"address","internalType":"address"},{"name":"value","type":"uint256","internalType":"uint256"},{"name":"data","type":"bytes","internalType":"bytes"},{"name":"eta","type":"uint256","internalType":"uint256"}],"outputs":[{"name":"","type":"bytes32","internalType":"bytes32"}],"stateMutability":"pure"},{"type":"function","name":"getTransactionState","inputs":[{"name":"txHash","type":"bytes32","internalType":"bytes32"}],"outputs":[{"name":"","type":"uint8","internalType":"enum ITimelock.TransactionState"}],"stateMutability":"view"},{"type":"function","name":"isExpired","inputs":[{"name":"txHash","type":"bytes32","internalType":"bytes32"}],"outputs":[{"name":"","type":"bool","internalType":"bool"}],"stateMutability":"view"},{"type":"function","name":"isQueued","inputs":[{"name":"txHash","type":"bytes32","internalType":"bytes32"}],"outputs":[{"name":"","type":"bool","internalType":"bool"}],"stateMutability":"view"},{"type":"function","name":"isReady","inputs":[{"name":"txHash","type":"bytes32","internalType":"bytes32"}],"outputs":[{"name":"","type":"bool","internalType":"bool"}],"stateMutability":"view"},{"type":"function","name":"pendingAdmin","inputs":[],"outputs":[{"name":"","type":"address","internalType":"address"}],"stateMutability":"view"},{"type":"function","name":"schedule","inputs":[{"name":"target","type":"address","internalType":"address"},{"name":"value","type":"uint256","internalType":"uint256"},{"name":"data","type":"bytes","internalType":"bytes"},{"name":"eta","type":"uint256","internalType":"uint256"}],"outputs":[{"name":"txHash","type":"bytes32","internalType":"bytes32"}],"stateMutability":"nonpayable"},{"type":"function","name":"scheduleBatch","inputs":[{"name":"targets","type":"address[]","internalType":"address[]"},{"name":"values","type":"uint256[]","internalType":"uint256[]"},{"name":"datas","type":"bytes[]","internalType":"bytes[]"},{"name":"eta","type":"uint256","internalType":"uint256"}],"outputs":[{"name":"batchHash","type":"bytes32","internalType":"bytes32"}],"stateMutability":"nonpayable"},{"type":"function","name":"setDelay","inputs":[{"name":"newDelay","type":"uint256","internalType":"uint256"}],"outputs":[],"stateMutability":"nonpayable"},{"type":"function","name":"setPendingAdmin","inputs":[{"name":"newPendingAdmin","type":"address","internalType":"address"}],"outputs":[],"stateMutability":"nonpayable"},{"type":"event","name":"AdminTransferred","inputs":[{"name":"oldAdmin","type":"address","indexed":true,"internalType":"address"},{"name":"newAdmin","type":"address","indexed":true,"internalType":"address"}],"anonymous":false},{"type":"event","name":"BatchCancelled","inputs":[{"name":"batchHash","type":"bytes32","indexed":true,"internalType":"bytes32"}],"anonymous":false},{"type":"event","name":"BatchExecuted","inputs":[{"name":"batchHash","type":"bytes32","indexed":true,"internalType":"bytes32"},{"name":"targets","type":"address[]","indexed":false,"internalType":"address[]"},{"name":"values","type":"uint256[]","indexed":false,"internalType":"uint256[]"},{"name":"datas","type":"bytes[]","indexed":false,"internalType":"bytes[]"}],"anonymous":false},{"type":"event","name":"BatchScheduled","inputs":[{"name":"batchHash","type":"bytes32","indexed":true,"internalType":"bytes32"},{"name":"targets","type":"address[]","indexed":false,"internalType":"address[]"},{"name":"values","type":"uint256[]","indexed":false,"internalType":"uint256[]"},{"name":"datas","type":"bytes[]","indexed":false,"internalType":"bytes[]"},{"name":"eta","type":"uint256","indexed":false,"internalType":"uint256"}],"anonymous":false},{"type":"event","name":"DelayUpdated","inputs":[{"name":"oldDelay","type":"uint256","indexed":false,"internalType":"uint256"},{"name":"newDelay","type":"uint256","indexed":false,"internalType":"uint256"}],"anonymous":false},{"type":"event","name":"PendingAdminSet","inputs":[{"name":"pendingAdmin","type":"address","indexed":true,"internalType":"address"}],"anonymous":false},{"type":"event","name":"TransactionCancelled","inputs":[{"name":"txHash","type":"bytes32","indexed":true,"internalType":"bytes32"}],"anonymous":false},{"type":"event","name":"TransactionExecuted","inputs":[{"name":"txHash","type":"bytes32","indexed":true,"internalType":"bytes32"},{"name":"target","type":"address","indexed":true,"internalType":"address"},{"name":"value","type":"uint256","indexed":false,"internalType":"uint256"},{"name":"data","type":"bytes","indexed":false,"internalType":"bytes"}],"anonymous":false},{"type":"event","name":"TransactionScheduled","inputs":[{"name":"txHash","type":"bytes32","indexed":true,"internalType":"bytes32"},{"name":"target","type":"address","indexed":true,"internalType":"address"},{"name":"value","type":"uint256","indexed":false,"internalType":"uint256"},{"name":"data","type":"bytes","indexed":false,"internalType":"bytes"},{"name":"eta","type":"uint256","indexed":false,"internalType":"uint256"}],"anonymous":false},{"type":"error","name":"AlreadyExecuted","inputs":[]},{"type":"error","name":"AlreadyQueued","inputs":[]},{"type":"error","name":"ArrayLengthMismatch","inputs":[]},{"type":"error","name":"DelayAboveMaximum","inputs":[]},{"type":"error","name":"DelayBelowMinimum","inputs":[]},{"type":"error","name":"DelayNotMet","inputs":[]},{"type":"error","name":"ExecutionFailed","inputs":[]},{"type":"error","name":"InvalidAddress","inputs":[]},{"type":"error","name":"NotAuthorized","inputs":[]},{"type":"error","name":"NotPendingAdmin","inputs":[]},{"type":"error","name":"NotQueued","inputs":[]},{"type":"error","name":"TimeLockNotReady","inputs":[]},{"type":"error","name":"TransactionExpired","inputs":[]},{"type":"error","name":"TransactionWasCancelled","inputs":[]}],"bytecode":{"object":"0x608060405234801562000010575f80fd5b5060405162002abe38038062002abe833981016040819052620000339162000132565b6001600160a01b0382166200005b5760405163e6c4247b60e01b815260040160405180910390fd5b62093a8081101562000080576040516311fc46b360e01b815260040160405180910390fd5b62278d00811115620000a5576040516390a8241560e01b815260040160405180910390fd5b5f80546001600160a01b0319166001600160a01b038416908117825560028390556040519091907ff8ccb027dfcd135e000e9d45e6cc2d662578a8825d4c45b5e32e0adf67e79ec6908290a3604080515f8152602081018390527fa580b4a9812995ffed1b336481c3f3bfeb3414df9f587a9d73856bab25aa4eee910160405180910390a150506200016b565b5f806040838503121562000144575f80fd5b82516001600160a01b03811681146200015b575f80fd5b6020939093015192949293505050565b61294580620001795f395ff3fe608060405260043610610134575f3560e01c806371fe05bf116100a8578063c1a287e21161006d578063c1a287e214610354578063c1b637f21461036a578063c71cca1614610389578063e177246e146103c4578063f851a440146103e3578063fc83e7db14610401575f80fd5b806371fe05bf146102c157806374420f4c146102e05780637a3e7132146103005780639f81aed71461031f578063b98a34de14610335575f80fd5b806348e2c1b9116100f957806348e2c1b9146102035780634aae13ca146102235780634dd18bf51461024f57806364f9ad361461026e5780636a42b8f81461028d5780636db2feb2146102a2575f80fd5b80630dc051f81461013f5780630e18b6811461017357806322c176a11461018957806326782247146101b65780634125ff90146101ed575f80fd5b3661013b57005b5f80fd5b34801561014a575f80fd5b5061015e610159366004612196565b610420565b60405190151581526020015b60405180910390f35b34801561017e575f80fd5b5061018761044e565b005b348015610194575f80fd5b506101a86101a33660046121f4565b6104d2565b60405190815260200161016a565b3480156101c1575f80fd5b506001546101d5906001600160a01b031681565b6040516001600160a01b03909116815260200161016a565b3480156101f8575f80fd5b506101a862278d0081565b6102166102113660046121f4565b610513565b60405161016a91906122d1565b34801561022e575f80fd5b5061024261023d366004612196565b61084d565b60405161016a9190612333565b34801561025a575f80fd5b5061018761026936600461239b565b610958565b348015610279575f80fd5b5061015e610288366004612196565b6109e8565b348015610298575f80fd5b506101a860025481565b3480156102ad575f80fd5b5061015e6102bc366004612196565b610b19565b3480156102cc575f80fd5b506101a86102db3660046123b4565b610c16565b6102f36102ee3660046123b4565b610dfc565b60405161016a919061243a565b34801561030b575f80fd5b506101a861031a3660046121f4565b611012565b34801561032a575f80fd5b506101a862093a8081565b348015610340575f80fd5b506101a861034f3660046123b4565b61120e565b34801561035f575f80fd5b506101a86212750081565b348015610375575f80fd5b506101876103843660046121f4565b611235565b348015610394575f80fd5b506103b76103a3366004612196565b5f9081526003602052604090205460ff1690565b60405161016a9190612460565b3480156103cf575f80fd5b506101876103de366004612196565b611301565b3480156103ee575f80fd5b505f546101d5906001600160a01b031681565b34801561040c575f80fd5b5061018761041b3660046123b4565b6113ae565b5f60015f8381526003602081905260409091205460ff16908111156104475761044761244c565b1492915050565b6001546001600160a01b031633146104795760405163058d9a1b60e01b815260040160405180910390fd5b5f8054600180546001600160a01b038082166001600160a01b031980861682178755909216909255604051919092169283917ff8ccb027dfcd135e000e9d45e6cc2d662578a8825d4c45b5e32e0adf67e79ec69190a350565b5f610507888888888888886040516020016104f397969594939291906125b4565b604051602081830303815290604052611476565b98975050505050505050565b5f546060906001600160a01b031633146105405760405163ea8e4eb560e01b815260040160405180910390fd5b868514158061054f5750868314155b1561056d5760405163512509d360e11b815260040160405180910390fd5b5f61057d898989898989896104d2565b5f8181526003602052604081205491925060ff909116908160038111156105a6576105a661244c565b036105c45760405163ccbc0d7160e01b815260040160405180910390fd5b60028160038111156105d8576105d861244c565b036105f657604051630dc1019760e01b815260040160405180910390fd5b600381600381111561060a5761060a61244c565b0361062857604051630f81591560e41b815260040160405180910390fd5b8342101561064957604051634019a5d360e01b815260040160405180910390fd5b6106566212750085612618565b421115610676576040516338e5e54b60e21b815260040160405180910390fd5b5f828152600360205260409020805460ff19166002179055886001600160401b038111156106a6576106a661262b565b6040519080825280602002602001820160405280156106d957816020015b60608152602001906001900390816106c45790505b5092505f5b898110156107fd575f808c8c848181106106fa576106fa61263f565b905060200201602081019061070f919061239b565b6001600160a01b03168b8b8581811061072a5761072a61263f565b905060200201358a8a868181106107435761074361263f565b90506020028101906107559190612653565b604051610763929190612695565b5f6040518083038185875af1925050503d805f811461079d576040519150601f19603f3d011682016040523d82523d5f602084013e6107a2565b606091505b5091509150816107d5578051156107bc5780518082602001fd5b604051632b3f6d1160e21b815260040160405180910390fd5b808684815181106107e8576107e861263f565b602090810291909101015250506001016106de565b50817f2cd6ee6638eca9753a74e2819fc829f0ca7ad54fb91bf5a649f77083b519f0488b8b8b8b8b8b604051610838969594939291906126a4565b60405180910390a25050979650505050505050565b61087e60405180608001604052805f6001600160a01b031681526020015f8152602001606081526020015f81525090565b5f82815260046020908152604091829020825160808101845281546001600160a01b0316815260018201549281019290925260028101805492939192918401916108c7906126ec565b80601f01602080910402602001604051908101604052809291908181526020018280546108f3906126ec565b801561093e5780601f106109155761010080835404028352916020019161093e565b820191905f5260205f20905b81548152906001019060200180831161092157829003601f168201915b505050505081526020016003820154815250509050919050565b3330146109785760405163ea8e4eb560e01b815260040160405180910390fd5b6001600160a01b03811661099f5760405163e6c4247b60e01b815260040160405180910390fd5b600180546001600160a01b0319166001600160a01b0383169081179091556040517fcfa6fb7a59d2f180dc7624ee733c7498c87bef80055a9964fb0fa01cd9d66d6b905f90a250565b5f60015f8381526003602081905260409091205460ff1690811115610a0f57610a0f61244c565b14610a1b57505f919050565b5f828152600460209081526040808320815160808101835281546001600160a01b031681526001820154938101939093526002810180549192840191610a60906126ec565b80601f0160208091040260200160405190810160405280929190818152602001828054610a8c906126ec565b8015610ad75780601f10610aae57610100808354040283529160200191610ad7565b820191905f5260205f20905b815481529060010190602001808311610aba57829003601f168201915b50505050508152602001600382015481525050905080606001514210158015610b125750621275008160600151610b0e9190612618565b4211155b9392505050565b5f818152600460209081526040808320815160808101835281546001600160a01b0316815260018201549381019390935260028101805485949384019190610b60906126ec565b80601f0160208091040260200160405190810160405280929190818152602001828054610b8c906126ec565b8015610bd75780601f10610bae57610100808354040283529160200191610bd7565b820191905f5260205f20905b815481529060010190602001808311610bba57829003601f168201915b5050505050815260200160038201548152505090505f8160600151118015610b125750621275008160600151610c0d9190612618565b42119392505050565b5f80546001600160a01b03163314610c415760405163ea8e4eb560e01b815260040160405180910390fd5b6001600160a01b038616610c685760405163e6c4247b60e01b815260040160405180910390fd5b600254610c759042612618565b821015610c95576040516339d7381360e01b815260040160405180910390fd5b610ca2868686868661120e565b90505f808281526003602081905260409091205460ff1690811115610cc957610cc961244c565b14610ce757604051632fc2a3e160e11b815260040160405180910390fd5b5f81815260036020908152604091829020805460ff1916600117905581516080810183526001600160a01b03891681528082018890528251601f87018390048302810183018452868152909283019187908790819084018382808284375f920182905250938552505050602091820185905283815260048252604090819020835181546001600160a01b0319166001600160a01b039091161781559183015160018301558201516002820190610d9d9082612770565b5060608201518160030155905050856001600160a01b0316817fc2281debf3caa04aa2966382929c427d1b4c2a95e1fb29bea2c946b244bc877187878787604051610deb949392919061282f565b60405180910390a395945050505050565b5f546060906001600160a01b03163314610e295760405163ea8e4eb560e01b815260040160405180910390fd5b5f610e37878787878761120e565b5f8181526003602052604081205491925060ff90911690816003811115610e6057610e6061244c565b03610e7e5760405163ccbc0d7160e01b815260040160405180910390fd5b6002816003811115610e9257610e9261244c565b03610eb057604051630dc1019760e01b815260040160405180910390fd5b6003816003811115610ec457610ec461244c565b03610ee257604051630f81591560e41b815260040160405180910390fd5b83421015610f0357604051634019a5d360e01b815260040160405180910390fd5b610f106212750085612618565b421115610f30576040516338e5e54b60e21b815260040160405180910390fd5b5f82815260036020526040808220805460ff191660021790555181906001600160a01b038b16908a90610f66908b908b90612695565b5f6040518083038185875af1925050503d805f8114610fa0576040519150601f19603f3d011682016040523d82523d5f602084013e610fa5565b606091505b509150915081610fbf578051156107bc5780518082602001fd5b896001600160a01b0316847f8b7b712167f6dc65bddd7d9a42eec3ed7de70db3ffda6e8fbb166195a0fa10cb8b8b8b604051610ffd93929190612859565b60405180910390a39998505050505050505050565b5f80546001600160a01b0316331461103d5760405163ea8e4eb560e01b815260040160405180910390fd5b868514158061104c5750868314155b1561106a5760405163512509d360e11b815260040160405180910390fd5b5f87900361108b5760405163e6c4247b60e01b815260040160405180910390fd5b6002546110989042612618565b8210156110b8576040516339d7381360e01b815260040160405180910390fd5b6110c7888888888888886104d2565b90505f808281526003602081905260409091205460ff16908111156110ee576110ee61244c565b1461110c57604051632fc2a3e160e11b815260040160405180910390fd5b5f818152600360209081526040808320805460ff1916600117905580516080810182529283528282018a9052805190830191611154918c918c918c918c918c918c91016126a4565b60408051808303601f1901815291815290825260209182018590525f84815260048352819020835181546001600160a01b0319166001600160a01b0390911617815591830151600183015582015160028201906111b19082612770565b5060608201518160030155905050807f65c6682e997a09a229d3d6e1010778c6f570bb8403a68ae9c6f177e2af8fc3ab898989898989896040516111fb97969594939291906125b4565b60405180910390a2979650505050505050565b5f61122b86868686866040516020016104f3959493929190612872565b9695505050505050565b5f546001600160a01b0316331461125f5760405163ea8e4eb560e01b815260040160405180910390fd5b5f61126f888888888888886104d2565b905060015f8281526003602081905260409091205460ff16908111156112975761129761244c565b146112b55760405163ccbc0d7160e01b815260040160405180910390fd5b5f818152600360208190526040808320805460ff19169092179091555182917fac01c50ce693d1fe783ba60ec0f82ab99f65e62446fffb028e3bd639cd5684d491a25050505050505050565b3330146113215760405163ea8e4eb560e01b815260040160405180910390fd5b62093a80811015611345576040516311fc46b360e01b815260040160405180910390fd5b62278d00811115611369576040516390a8241560e01b815260040160405180910390fd5b600280549082905560408051828152602081018490527fa580b4a9812995ffed1b336481c3f3bfeb3414df9f587a9d73856bab25aa4eee910160405180910390a15050565b5f546001600160a01b031633146113d85760405163ea8e4eb560e01b815260040160405180910390fd5b5f6113e6868686868661120e565b905060015f8281526003602081905260409091205460ff169081111561140e5761140e61244c565b1461142c5760405163ccbc0d7160e01b815260040160405180910390fd5b5f818152600360208190526040808320805460ff19169092179091555182917f0891e6c675e964cf1e5982f60fda276ad06301a9221b2f1d7bf2b2a42fbd69a191a2505050505050565b5f61148082611486565b92915050565b5f61148f612159565b82515f608861149f836001612618565b6114a991906128bf565b6114b4906001612618565b90505f5b818110156115d0575f6114cc6088836128d2565b90505f5b60118110156115bb575f805b6008811015611589575f816114f28560086128d2565b6114fc9087612618565b6115069190612618565b90505f88821015611532578b82815181106115235761152361263f565b016020015160f81c9050611569565b88820361154157506006611569565b600161154e608888612618565b61155891906128e9565b820361156657506080611569565b505f5b6115748360086128d2565b60ff909116901b9290921791506001016114dc565b508087836019811061159d5761159d61263f565b602002018051919091186001600160401b03169052506001016114d0565b506115c585611770565b9450506001016114b8565b5060c083600360200201516001600160401b0316901b608084600260200201516001600160401b0316901b604085600160200201516001600160401b0316901b855f60200201516001600160401b03161717179350611767847bffffffff000000000000000000000000ffffffff00000000000000007eff000000ff000000ff000000ff000000ff000000ff000000ff000000ff0000600883811c9182167fff000000ff000000ff000000ff000000ff000000ff000000ff000000ff0000009490911b93841617601090811c7cff000000ff000000ff000000ff000000ff000000ff000000ff000000ff9092167dff000000ff000000ff000000ff000000ff000000ff000000ff000000ff009094169390931790921b91909117602081811c9283167fffffffff000000000000000000000000ffffffff0000000000000000000000009290911b91821617604090811c73ffffffff000000000000000000000000ffffffff90931677ffffffff000000000000000000000000ffffffff0000000090921691909117901b17608081811c91901b1790565b95945050505050565b611778612159565b81611781612178565b611789612178565b5f6040518061032001604052805f815260200160018152602001603e8152602001601c8152602001601b815260200160248152602001602c815260200160068152602001603781526020016014815260200160038152602001600a8152602001602b8152602001601981526020016027815260200160298152602001602d8152602001600f815260200160158152602001600881526020016012815260200160028152602001603d815260200160388152602001600e81525090505f60405180610300016040528060016001600160401b03166001600160401b031681526020016180826001600160401b03166001600160401b0316815260200167800000000000808a6001600160401b03166001600160401b031681526020016780000000800080006001600160401b03166001600160401b0316815260200161808b6001600160401b03166001600160401b0316815260200163800000016001600160401b03166001600160401b031681526020016780000000800080816001600160401b03166001600160401b031681526020016780000000000080096001600160401b03166001600160401b03168152602001608a6001600160401b03166001600160401b0316815260200160886001600160401b03166001600160401b0316815260200163800080096001600160401b03166001600160401b03168152602001638000000a6001600160401b03166001600160401b03168152602001638000808b6001600160401b03166001600160401b0316815260200167800000000000008b6001600160401b03166001600160401b031681526020016780000000000080896001600160401b03166001600160401b031681526020016780000000000080036001600160401b03166001600160401b031681526020016780000000000080026001600160401b03166001600160401b031681526020016780000000000000806001600160401b03166001600160401b0316815260200161800a6001600160401b03166001600160401b0316815260200167800000008000000a6001600160401b03166001600160401b031681526020016780000000800080816001600160401b03166001600160401b031681526020016780000000000080806001600160401b03166001600160401b0316815260200163800000016001600160401b03166001600160401b031681526020016780000000800080086001600160401b03166001600160401b031681525090505f5b601881101561211b576102808601516101e087015161014088015160a08901518951181818186001600160401b0390811686526102a087015161020088015161016089015160c08a01516020808c01519091189091189091189091188216908701526102c087015161022088015161018089015160e08a01516040808c01519091189091189091189091188216908701526102e08701516102408801516101a08901516101008a01516060808c01519091189091189091189091188216908701526103008701516102608801516101c08901516101208a01516080808c015190911890911890911890911890911690860152611c1d8560015b60200201516001612127565b6080860151186001600160401b03168452611c39856002611c11565b8551186001600160401b03166020850152611c55856003611c11565b6020860151186001600160401b03166040850152611c74856004611c11565b6040860151186001600160401b03166060850152611c92855f611c11565b6060808701516001600160401b0392188216608080880191825287518a511884168a5260208881018051918c01805190921886169091526040808a018051918d01805190921887169091528985018051958d01805190961887169095528351928c0180519093188616909252885160a08c01805190911886169052805160c08c01805190911886169052815160e08c0180519091188616905283516101008c0180519091188616905282516101208c0180519091188616905288516101408c0180519091188616905280516101608c0180519091188616905281516101808c0180519091188616905283516101a08c0180519091188616905282516101c08c0180519091188616905288516101e08c0180519091188616905280516102008c0180519091188616905281516102208c0180519091188616905283516102408c0180519091188616905282516102608c0180519091188616905288516102808c01805190911886169052516102a08b01805190911885169052516102c08a0180519091188416905290516102e0890180519091188316905251610300880180519091189091169052611e41612159565b5f5b6019811015611f17575f611e586005836128fc565b90505f611e666005846128bf565b9050805f6005611e778360036128d2565b611e828660026128d2565b611e8c9190612618565b611e9691906128fc565b9050611ece8c8660198110611ead57611ead61263f565b60200201518a8760198110611ec457611ec461263f565b6020020151612127565b86611eda8360056128d2565b611ee49085612618565b60198110611ef457611ef461263f565b6001600160401b039092166020929092020152505060019092019150611e439050565b505f5b60058110156120ec575f611f2f8260056128d2565b90505f838260198110611f4457611f4461263f565b602002015190505f84611f58846001612618565b60198110611f6857611f6861263f565b602002015190505f85611f7c856002612618565b60198110611f8c57611f8c61263f565b602002015190505f86611fa0866003612618565b60198110611fb057611fb061263f565b602002015190505f87611fc4876004612618565b60198110611fd457611fd461263f565b602002015190508284191685188e8760198110611ff357611ff361263f565b6001600160401b0390921660209290920201528219821684188e612018886001612618565b601981106120285761202861263f565b6001600160401b0390921660209290920201528119811683188e61204d886002612618565b6019811061205d5761205d61263f565b6001600160401b0390921660209290920201528019851682188e612082886003612618565b601981106120925761209261263f565b6001600160401b0390921660209290920201528419841681188e6120b7886004612618565b601981106120c7576120c761263f565b6001600160401b039092166020929092020152505060019094019350611f1a92505050565b508282601881106120ff576120ff61263f565b60200201518751186001600160401b0316875250600101611b18565b50939695505050505050565b5f815f03612136575081611480565b6121418260406128e9565b6001600160401b03841680841b911c17905092915050565b6040518061032001604052806019906020820280368337509192915050565b6040518060a001604052806005906020820280368337509192915050565b5f602082840312156121a6575f80fd5b5035919050565b5f8083601f8401126121bd575f80fd5b5081356001600160401b038111156121d3575f80fd5b6020830191508360208260051b85010111156121ed575f80fd5b9250929050565b5f805f805f805f6080888a03121561220a575f80fd5b87356001600160401b0380821115612220575f80fd5b61222c8b838c016121ad565b909950975060208a0135915080821115612244575f80fd5b6122508b838c016121ad565b909750955060408a0135915080821115612268575f80fd5b506122758a828b016121ad565b989b979a50959894979596606090950135949350505050565b5f81518084525f5b818110156122b257602081850181015186830182015201612296565b505f602082860101526020601f19601f83011685010191505092915050565b5f60208083016020845280855180835260408601915060408160051b8701019250602087015f5b8281101561232657603f1988860301845261231485835161228e565b945092850192908501906001016122f8565b5092979650505050505050565b6020815260018060a01b038251166020820152602082015160408201525f60408301516080606084015261236a60a084018261228e565b9050606084015160808401528091505092915050565b80356001600160a01b0381168114612396575f80fd5b919050565b5f602082840312156123ab575f80fd5b610b1282612380565b5f805f805f608086880312156123c8575f80fd5b6123d186612380565b94506020860135935060408601356001600160401b03808211156123f3575f80fd5b818801915088601f830112612406575f80fd5b813581811115612414575f80fd5b896020828501011115612425575f80fd5b96999598505060200195606001359392505050565b602081525f610b12602083018461228e565b634e487b7160e01b5f52602160045260245ffd5b602081016004831061248057634e487b7160e01b5f52602160045260245ffd5b91905290565b8183525f60208085019450825f5b858110156124c0576001600160a01b036124ad83612380565b1687529582019590820190600101612494565b509495945050505050565b8183525f6001600160fb1b038311156124e2575f80fd5b8260051b80836020870137939093016020019392505050565b81835281816020850137505f828201602090810191909152601f909101601f19169091010190565b5f838385526020808601955060208560051b830101845f5b878110156125a757848303601f19018952813536889003601e19018112612560575f80fd5b870184810190356001600160401b0381111561257a575f80fd5b803603821315612588575f80fd5b6125938582846124fb565b9a86019a945050509083019060010161253b565b5090979650505050505050565b608081525f6125c760808301898b612486565b82810360208401526125da81888a6124cb565b905082810360408401526125ef818688612523565b91505082606083015298975050505050505050565b634e487b7160e01b5f52601160045260245ffd5b8082018082111561148057611480612604565b634e487b7160e01b5f52604160045260245ffd5b634e487b7160e01b5f52603260045260245ffd5b5f808335601e19843603018112612668575f80fd5b8301803591506001600160401b03821115612681575f80fd5b6020019150368190038213156121ed575f80fd5b818382375f9101908152919050565b606081525f6126b760608301888a612486565b82810360208401526126ca8187896124cb565b905082810360408401526126df818587612523565b9998505050505050505050565b600181811c9082168061270057607f821691505b60208210810361271e57634e487b7160e01b5f52602260045260245ffd5b50919050565b601f82111561276b57805f5260205f20601f840160051c810160208510156127495750805b601f840160051c820191505b81811015612768575f8155600101612755565b50505b505050565b81516001600160401b038111156127895761278961262b565b61279d8161279784546126ec565b84612724565b602080601f8311600181146127d0575f84156127b95750858301515b5f19600386901b1c1916600185901b178555612827565b5f85815260208120601f198616915b828110156127fe578886015182559484019460019091019084016127df565b508582101561281b57878501515f19600388901b60f8161c191681555b505060018460011b0185555b505050505050565b848152606060208201525f6128486060830185876124fb565b905082604083015295945050505050565b838152604060208201525f6117676040830184866124fb565b60018060a01b0386168152846020820152608060408201525f6128996080830185876124fb565b90508260608301529695505050505050565b634e487b7160e01b5f52601260045260245ffd5b5f826128cd576128cd6128ab565b500490565b808202811582820484141761148057611480612604565b8181038181111561148057611480612604565b5f8261290a5761290a6128ab565b50069056fea2646970667358221220d0f485b179e37d03b591bbf8a440e370810d3aced3e44d3d3c4234fb6d2e6a6e64736f6c63430008180033","linkReferences":{}},"methodIdentifiers":{"GRACE_PERIOD()":"c1a287e2","MAX_DELAY()":"4125ff90","MIN_DELAY()":"9f81aed7","acceptAdmin()":"0e18b681","admin()":"f851a440","cancel(address,uint256,bytes,uint256)":"fc83e7db","cancelBatch(address[],uint256[],bytes[],uint256)":"c1b637f2","delay()":"6a42b8f8","execute(address,uint256,bytes,uint256)":"74420f4c","executeBatch(address[],uint256[],bytes[],uint256)":"48e2c1b9","getBatchHash(address[],uint256[],bytes[],uint256)":"22c176a1","getTransaction(bytes32)":"4aae13ca","getTransactionHash(address,uint256,bytes,uint256)":"b98a34de","getTransactionState(bytes32)":"c71cca16","isExpired(bytes32)":"6db2feb2","isQueued(bytes32)":"0dc051f8","isReady(bytes32)":"64f9ad36","pendingAdmin()":"26782247","schedule(address,uint256,bytes,uint256)":"71fe05bf","scheduleBatch(address[],uint256[],bytes[],uint256)":"7a3e7132","setDelay(uint256)":"e177246e","setPendingAdmin(address)":"4dd18bf5"},"id":38}