{"abi":[{"type":"constructor","inputs":[{"name":"qsToken_","type":"address","internalType":"address"},{"name":"periodDuration_","type":"uint256","internalType":"uint256"},{"name":"admin_","type":"address","internalType":"address"},{"name":"rewardRouter_","type":"address","internalType":"address"}],"stateMutability":"nonpayable"},{"type":"function","name":"addRewards","inputs":[{"name":"amount","type":"uint256","internalType":"uint256"}],"outputs":[],"stateMutability":"nonpayable"},{"type":"function","name":"claimReward","inputs":[],"outputs":[{"name":"amount","type":"uint256","internalType":"uint256"}],"stateMutability":"nonpayable"},{"type":"function","name":"currentPeriodId","inputs":[],"outputs":[{"name":"","type":"uint256","internalType":"uint256"}],"stateMutability":"view"},{"type":"function","name":"deregisterProver","inputs":[{"name":"prover","type":"address","internalType":"address"}],"outputs":[],"stateMutability":"nonpayable"},{"type":"function","name":"emergencyWithdraw","inputs":[{"name":"to","type":"address","internalType":"address"},{"name":"amount","type":"uint256","internalType":"uint256"}],"outputs":[],"stateMutability":"nonpayable"},{"type":"function","name":"finalizePeriod","inputs":[],"outputs":[],"stateMutability":"nonpayable"},{"type":"function","name":"getPeriod","inputs":[{"name":"periodId","type":"uint256","internalType":"uint256"}],"outputs":[{"name":"","type":"tuple","internalType":"struct IProverRewardPool.DistributionPeriod","components":[{"name":"periodId","type":"uint256","internalType":"uint256"},{"name":"startTime","type":"uint256","internalType":"uint256"},{"name":"endTime","type":"uint256","internalType":"uint256"},{"name":"totalRewards","type":"uint256","internalType":"uint256"},{"name":"totalSignatures","type":"uint256","internalType":"uint256"},{"name":"finalized","type":"bool","internalType":"bool"}]}],"stateMutability":"view"},{"type":"function","name":"getProverReward","inputs":[{"name":"prover","type":"address","internalType":"address"}],"outputs":[{"name":"","type":"tuple","internalType":"struct IProverRewardPool.ProverReward","components":[{"name":"pendingRewards","type":"uint256","internalType":"uint256"},{"name":"totalClaimed","type":"uint256","internalType":"uint256"},{"name":"lastClaimTime","type":"uint256","internalType":"uint256"},{"name":"signatureCount","type":"uint256","internalType":"uint256"}]}],"stateMutability":"view"},{"type":"function","name":"minClaimAmount","inputs":[],"outputs":[{"name":"","type":"uint256","internalType":"uint256"}],"stateMutability":"view"},{"type":"function","name":"pendingRewards","inputs":[{"name":"prover","type":"address","internalType":"address"}],"outputs":[{"name":"","type":"uint256","internalType":"uint256"}],"stateMutability":"view"},{"type":"function","name":"periodDuration","inputs":[],"outputs":[{"name":"","type":"uint256","internalType":"uint256"}],"stateMutability":"view"},{"type":"function","name":"qsToken","inputs":[],"outputs":[{"name":"","type":"address","internalType":"address"}],"stateMutability":"view"},{"type":"function","name":"recordSignatures","inputs":[{"name":"prover","type":"address","internalType":"address"},{"name":"count","type":"uint256","internalType":"uint256"}],"outputs":[],"stateMutability":"nonpayable"},{"type":"function","name":"registerProver","inputs":[{"name":"prover","type":"address","internalType":"address"}],"outputs":[],"stateMutability":"nonpayable"},{"type":"function","name":"totalDistributed","inputs":[],"outputs":[{"name":"","type":"uint256","internalType":"uint256"}],"stateMutability":"view"},{"type":"event","name":"PeriodFinalized","inputs":[{"name":"periodId","type":"uint256","indexed":true,"internalType":"uint256"},{"name":"totalRewards","type":"uint256","indexed":false,"internalType":"uint256"},{"name":"totalSignatures","type":"uint256","indexed":false,"internalType":"uint256"},{"name":"proverCount","type":"uint256","indexed":false,"internalType":"uint256"}],"anonymous":false},{"type":"event","name":"RewardClaimed","inputs":[{"name":"prover","type":"address","indexed":true,"internalType":"address"},{"name":"amount","type":"uint256","indexed":false,"internalType":"uint256"},{"name":"totalClaimed","type":"uint256","indexed":false,"internalType":"uint256"}],"anonymous":false},{"type":"event","name":"RewardsAdded","inputs":[{"name":"amount","type":"uint256","indexed":false,"internalType":"uint256"},{"name":"from","type":"address","indexed":true,"internalType":"address"}],"anonymous":false},{"type":"event","name":"SignaturesRecorded","inputs":[{"name":"prover","type":"address","indexed":true,"internalType":"address"},{"name":"count","type":"uint256","indexed":false,"internalType":"uint256"},{"name":"periodId","type":"uint256","indexed":false,"internalType":"uint256"}],"anonymous":false},{"type":"error","name":"InvalidAddress","inputs":[]},{"type":"error","name":"NoRewardsToClaim","inputs":[]},{"type":"error","name":"NotAuthorized","inputs":[]},{"type":"error","name":"PeriodAlreadyFinalized","inputs":[]},{"type":"error","name":"PeriodNotFinalized","inputs":[]},{"type":"error","name":"ProverNotRegistered","inputs":[]},{"type":"error","name":"ZeroAmount","inputs":[]}],"bytecode":{"object":"0x60c060405234801562000010575f80fd5b5060405162001322380380620013228339810160408190526200003391620002c2565b6001600160a01b038416620000825760405162461bcd60e51b815260206004820152601060248201526f24b73b30b634b21028a9903a37b5b2b760811b60448201526064015b60405180910390fd5b5f8311620000d35760405162461bcd60e51b815260206004820152601760248201527f496e76616c696420706572696f64206475726174696f6e000000000000000000604482015260640162000079565b6001600160a01b0382166200011b5760405162461bcd60e51b815260206004820152600d60248201526c24b73b30b634b21030b236b4b760991b604482015260640162000079565b6001600160a01b0384811660805260a0849052600180546001600160a01b031990811685841617825560028054909116928416929092179091555f908155670de0b6b3a76400006005556040805160c0810182529182524260208301819052908201906200018b90869062000313565b81525f6020808301829052604080840183905260609384018390529180526007815283517f6d5257204ebe7d88fd91ae87941cb2dd9d8062b64ae5a2bd2d28ec40b9fbf6df558301517f6d5257204ebe7d88fd91ae87941cb2dd9d8062b64ae5a2bd2d28ec40b9fbf6e0558201517f6d5257204ebe7d88fd91ae87941cb2dd9d8062b64ae5a2bd2d28ec40b9fbf6e1558101517f6d5257204ebe7d88fd91ae87941cb2dd9d8062b64ae5a2bd2d28ec40b9fbf6e25560808101517f6d5257204ebe7d88fd91ae87941cb2dd9d8062b64ae5a2bd2d28ec40b9fbf6e35560a001517f6d5257204ebe7d88fd91ae87941cb2dd9d8062b64ae5a2bd2d28ec40b9fbf6e4805460ff1916911515919091179055506200033992505050565b80516001600160a01b0381168114620002bd575f80fd5b919050565b5f805f8060808587031215620002d6575f80fd5b620002e185620002a6565b935060208501519250620002f860408601620002a6565b91506200030860608601620002a6565b905092959194509250565b808201808211156200033357634e487b7160e01b5f52601160045260245ffd5b92915050565b60805160a051610fb2620003705f395f818161022d015261086b01525f818161028201528181610c7d0152610da80152610fb25ff3fe608060405234801561000f575f80fd5b50600436106100f0575f3560e01c8063a981320711610093578063beceed3911610063578063beceed3914610257578063c0004e551461026a578063c5ebfa9a1461027d578063efca2eed146102bc575f80fd5b8063a981320714610218578063adc25bde14610220578063b470aade14610228578063b88a802f1461024f575f80fd5b8063410df78c116100ce578063410df78c146101575780634b2c07061461019d57806395ccea67146101fd578063988e659514610210575f80fd5b8063028cac0c146100f457806325255f6e1461010957806331d7a2621461011c575b5f80fd5b610107610102366004610e1c565b6102c4565b005b610107610117366004610e3c565b6103aa565b61014461012a366004610e1c565b6001600160a01b03165f9081526006602052604090205490565b6040519081526020015b60405180910390f35b61016a610165366004610e1c565b610527565b60405161014e91908151815260208083015190820152604080830151908201526060918201519181019190915260800190565b6101b06101ab366004610e64565b61059b565b60405161014e91905f60c082019050825182526020830151602083015260408301516040830152606083015160608301526080830151608083015260a0830151151560a083015292915050565b61010761020b366004610e3c565b61062d565b600354610144565b610107610666565b600554610144565b6101447f000000000000000000000000000000000000000000000000000000000000000081565b610144610902565b610107610265366004610e64565b610a74565b610107610278366004610e1c565b610aed565b6102a47f000000000000000000000000000000000000000000000000000000000000000081565b6040516001600160a01b03909116815260200161014e565b600454610144565b6001546001600160a01b031633146102ef5760405163ea8e4eb560e01b815260040160405180910390fd5b6001600160a01b0381166103165760405163e6c4247b60e01b815260040160405180910390fd5b6001600160a01b0381165f9081526009602052604090205460ff166103a7576001600160a01b0381165f818152600960209081526040808320805460ff19166001908117909155600a805491820181557fc65a7bb8d6351c1cf70c95a316cc6a92839c986682d98bc35f958f4883f9d2a890910180546001600160a01b0319168617905554938352600b9091529020555b50565b6001546001600160a01b031633148015906103d057506002546001600160a01b03163314155b156103ee5760405163ea8e4eb560e01b815260040160405180910390fd5b6001600160a01b0382165f9081526009602052604090205460ff16610426576040516305e3d4e760e11b815260040160405180910390fd5b805f0361044657604051631f2a200560e01b815260040160405180910390fd5b6003545f9081526008602090815260408083206001600160a01b03861684529091528120805483929061047a908490610e8f565b90915550506003545f90815260076020526040812060040180548392906104a2908490610e8f565b90915550506001600160a01b0382165f90815260066020526040812060030180548392906104d1908490610e8f565b90915550506003546040516001600160a01b038416917f4ecd9718758ddcd95b4a215681b060f8ec3b77e1edd876908a65edc3314d9b839161051b91858252602082015260400190565b60405180910390a25050565b61054e60405180608001604052805f81526020015f81526020015f81526020015f81525090565b506001600160a01b03165f90815260066020908152604091829020825160808101845281548152600182015492810192909252600281015492820192909252600390910154606082015290565b6105d06040518060c001604052805f81526020015f81526020015f81526020015f81526020015f81526020015f151581525090565b505f90815260076020908152604091829020825160c08101845281548152600182015492810192909252600281015492820192909252600382015460608201526004820154608082015260059091015460ff16151560a082015290565b6001546001600160a01b031633146106585760405163ea8e4eb560e01b815260040160405180910390fd5b6106628282610c5d565b5050565b6003545f90815260076020526040902060028101544210156106c25760405162461bcd60e51b815260206004820152601060248201526f14195c9a5bd9081b9bdd08195b99195960821b60448201526064015b60405180910390fd5b600581015460ff16156106e857604051633a0c88ab60e21b815260040160405180910390fd5b600c805460038301555f905560058101805460ff1916600117905560048101541580159061071957505f8160030154115b156107ee575f5b600a548110156107ec575f600a828154811061073e5761073e610ea8565b5f91825260208083209091015460035483526008825260408084206001600160a01b039092168085529190925291205490915080156107e2575f846004015482866003015461078d9190610ebc565b6107979190610ed3565b6001600160a01b0384165f908152600660205260408120805492935083929091906107c3908490610e8f565b925050819055508060045f8282546107db9190610e8f565b9091555050505b5050600101610720565b505b60038054908201546004830154600a5460408051938452602084019290925282820152517f85e7e0faa078e9dc92724367a452123990b65fa18c68a36a0f14843b4df85ec59181900360600190a260038054905f61084b83610ef2565b91905055506040518060c0016040528060035481526020014281526020017f0000000000000000000000000000000000000000000000000000000000000000426108959190610e8f565b81525f602080830182905260408084018390526060938401839052600380548452600783529281902085518155918501516001830155840151600282015591830151908201556080820151600482015560a0909101516005909101805460ff191691151591909117905550565b5f60025f54036109545760405162461bcd60e51b815260206004820152601f60248201527f5265656e7472616e637947756172643a207265656e7472616e742063616c6c0060448201526064016106b9565b60025f9081553381526009602052604090205460ff16610987576040516305e3d4e760e11b815260040160405180910390fd5b50335f90815260066020526040812054908190036109b8576040516373380d9960e01b815260040160405180910390fd5b6005548110156109db576040516373380d9960e01b815260040160405180910390fd5b335f90815260066020526040812081815560010180548392906109ff908490610e8f565b9091555050335f81815260066020526040902042600290910155610a239082610c5d565b335f81815260066020908152604091829020600101548251858152918201527ff01da32686223933d8a18a391060918c7f11a3648639edd87ae013e2e2731743910160405180910390a260015f5590565b805f03610a9457604051631f2a200560e01b815260040160405180910390fd5b80600c5f828254610aa59190610e8f565b90915550610ab590503382610d82565b60405181815233907f5e60183dabac4cd15ced44d40b9f2f385ce62ad9238550fa50f4fe58f3db9de59060200160405180910390a250565b6001546001600160a01b03163314610b185760405163ea8e4eb560e01b815260040160405180910390fd5b6001600160a01b0381165f9081526009602052604090205460ff16156103a7576001600160a01b0381165f908152600960209081526040808320805460ff19169055600b9091529020548015610662575f610b74600183610f0a565b600a549091505f90610b8890600190610f0a565b9050808214610c0d575f600a8281548110610ba557610ba5610ea8565b5f91825260209091200154600a80546001600160a01b039092169250829185908110610bd357610bd3610ea8565b5f91825260208083209190910180546001600160a01b0319166001600160a01b03948516179055929091168152600b909152604090208390555b600a805480610c1e57610c1e610f1d565b5f828152602080822083015f1990810180546001600160a01b03191690559092019092556001600160a01b0386168252600b9052604081205550505050565b6040516001600160a01b038381166024830152604482018390525f9182917f0000000000000000000000000000000000000000000000000000000000000000169060640160408051601f198184030181529181526020820180516001600160e01b031663a9059cbb60e01b17905251610cd69190610f31565b5f604051808303815f865af19150503d805f8114610d0f576040519150601f19603f3d011682016040523d82523d5f602084013e610d14565b606091505b5091509150818015610d3e575080511580610d3e575080806020019051810190610d3e9190610f5d565b610d7c5760405162461bcd60e51b815260206004820152600f60248201526e151c985b9cd9995c8819985a5b1959608a1b60448201526064016106b9565b50505050565b6040516001600160a01b038381166024830152306044830152606482018390525f9182917f0000000000000000000000000000000000000000000000000000000000000000169060840160408051601f198184030181529181526020820180516001600160e01b03166323b872dd60e01b17905251610cd69190610f31565b80356001600160a01b0381168114610e17575f80fd5b919050565b5f60208284031215610e2c575f80fd5b610e3582610e01565b9392505050565b5f8060408385031215610e4d575f80fd5b610e5683610e01565b946020939093013593505050565b5f60208284031215610e74575f80fd5b5035919050565b634e487b7160e01b5f52601160045260245ffd5b80820180821115610ea257610ea2610e7b565b92915050565b634e487b7160e01b5f52603260045260245ffd5b8082028115828204841417610ea257610ea2610e7b565b5f82610eed57634e487b7160e01b5f52601260045260245ffd5b500490565b5f60018201610f0357610f03610e7b565b5060010190565b81810381811115610ea257610ea2610e7b565b634e487b7160e01b5f52603160045260245ffd5b5f82515f5b81811015610f505760208186018101518583015201610f36565b505f920191825250919050565b5f60208284031215610f6d575f80fd5b81518015158114610e35575f80fdfea2646970667358221220acf1cbe13cb4c663f0c990ce4b88b3f81d39a957d1c075bf067c51e4c32e621e64736f6c63430008180033","linkReferences":{}},"methodIdentifiers":{"addRewards(uint256)":"beceed39","claimReward()":"b88a802f","currentPeriodId()":"988e6595","deregisterProver(address)":"c0004e55","emergencyWithdraw(address,uint256)":"95ccea67","finalizePeriod()":"a9813207","getPeriod(uint256)":"4b2c0706","getProverReward(address)":"410df78c","minClaimAmount()":"adc25bde","pendingRewards(address)":"31d7a262","periodDuration()":"b470aade","qsToken()":"c5ebfa9a","recordSignatures(address,uint256)":"25255f6e","registerProver(address)":"028cac0c","totalDistributed()":"efca2eed"},"id":67}