{"abi":[{"type":"function","name":"MAX_BATCH_SIZE","inputs":[],"outputs":[{"name":"","type":"uint256","internalType":"uint256"}],"stateMutability":"view"},{"type":"function","name":"MAX_DEPTH","inputs":[],"outputs":[{"name":"","type":"uint256","internalType":"uint256"}],"stateMutability":"view"},{"type":"function","name":"computeLeaf","inputs":[{"name":"evaluation","type":"uint256","internalType":"uint256"},{"name":"index","type":"uint256","internalType":"uint256"}],"outputs":[{"name":"leaf","type":"bytes32","internalType":"bytes32"}],"stateMutability":"pure"},{"type":"function","name":"computeRoot","inputs":[{"name":"evaluations","type":"uint256[]","internalType":"uint256[]"}],"outputs":[{"name":"root","type":"bytes32","internalType":"bytes32"}],"stateMutability":"pure"},{"type":"function","name":"getVersion","inputs":[],"outputs":[{"name":"name","type":"string","internalType":"string"},{"name":"version","type":"string","internalType":"string"}],"stateMutability":"pure"},{"type":"function","name":"hashData","inputs":[{"name":"data","type":"bytes","internalType":"bytes"}],"outputs":[{"name":"","type":"bytes32","internalType":"bytes32"}],"stateMutability":"pure"},{"type":"function","name":"hashPair","inputs":[{"name":"left","type":"bytes32","internalType":"bytes32"},{"name":"right","type":"bytes32","internalType":"bytes32"}],"outputs":[{"name":"","type":"bytes32","internalType":"bytes32"}],"stateMutability":"pure"},{"type":"function","name":"verifyBatchProofs","inputs":[{"name":"leaves","type":"bytes32[]","internalType":"bytes32[]"},{"name":"indices","type":"uint256[]","internalType":"uint256[]"},{"name":"allSiblings","type":"bytes32[][]","internalType":"bytes32[][]"},{"name":"expectedRoot","type":"bytes32","internalType":"bytes32"}],"outputs":[{"name":"validCount","type":"uint256","internalType":"uint256"}],"stateMutability":"pure"},{"type":"function","name":"verifyProof","inputs":[{"name":"leaf","type":"bytes32","internalType":"bytes32"},{"name":"index","type":"uint256","internalType":"uint256"},{"name":"siblings","type":"bytes32[]","internalType":"bytes32[]"},{"name":"expectedRoot","type":"bytes32","internalType":"bytes32"}],"outputs":[{"name":"valid","type":"bool","internalType":"bool"}],"stateMutability":"pure"},{"type":"event","name":"ProofVerified","inputs":[{"name":"leaf","type":"bytes32","indexed":true,"internalType":"bytes32"},{"name":"root","type":"bytes32","indexed":true,"internalType":"bytes32"},{"name":"index","type":"uint256","indexed":false,"internalType":"uint256"}],"anonymous":false},{"type":"error","name":"BatchSizeTooLarge","inputs":[]},{"type":"error","name":"InvalidEvaluationCount","inputs":[]},{"type":"error","name":"InvalidProofDepth","inputs":[]},{"type":"error","name":"ProofDepthExceedsMax","inputs":[]}],"bytecode":{"object":"0x6080806040523461001657611a3e908161001c8239f35b600080fdfe61022060408181526004918236101561001757600080fd5b600090813560e01c9081630d8e6e2c14610415575080633695a940146103f3578063704ef207146103a35780638b6cb1941461020b578063a27154ba146101f0578063a4ae605514610159578063cfdbf25414610139578063e66ef92d146100b35763f4c5d4931461008857600080fd5b346100b057816003193601126100b057506100a96020926024359035610774565b9051908152f35b80fd5b509134610135576020366003190112610135578035906001600160401b039081831161013157366023840112156101315782013590811161012d57366024828401011161012d579060209384836100a994602487519561011c85601f19601f8601160188610587565b8287520183860137830101526107bd565b8380fd5b8480fd5b8280fd5b5090346101555781600319360112610155576020905160648152f35b5080fd5b509134610135576080366003190112610135576001600160401b0381358181116101315761018a90369084016104cf565b9290916024358181116101ec576101a490369084016104cf565b9290916044359081116101e857966101c86101de96959493926020993691016104cf565b9094610140526101205260e05260643593611638565b60e0519051908152f35b8780fd5b8680fd5b50903461015557816003193601126101555760209051818152f35b509190346101355760203660031901126101355781356001600160401b03811161012d5761023c90369084016104cf565b9390841561037e57600019850185811161039057851661037e57610261859295610696565b91855b818110610350575050505b8051600190818111156103255761028790821c610696565b9185825b610298575b50505061026f565b83518110156103205780831b6001600160ff1b038216820361030d576102be81846106d5565b51908481018091116102fa57916102e46102f4926102dd8795876106d5565b5190610732565b6102ee82886106d5565b526105a8565b9061028b565b634e487b7160e01b895260118852602489fd5b634e487b7160e01b885260118752602488fd5b610290565b8284878783511561033d576020848101518451908152f35b634e487b7160e01b825260329052602490fd5b8061036c816103666103769486889c999c6105cd565b35610774565b6102ee828a6106d5565b959295610264565b5050516001624a48b360e11b03198152fd5b634e487b7160e01b835260118552602483fd5b50346100b05760803660031901126100b057604435906001600160401b0382116100b057506020926103db6103ea92369083016104cf565b906064359260243590356105f3565b90519015158152f35b50346100b057816003193601126100b057506100a96020926024359035610732565b8383346100b057806003193601126100b0575061043182610504565b600c82526b5368617265644d65726b6c6560a01b602083015261048b815161045881610504565b6005815264302e322e3160d81b602082015261047d835194848695865285019061048f565b90838203602085015261048f565b0390f35b919082519283825260005b8481106104bb575050826000602080949584010152601f8019910116010190565b60208183018101518483018201520161049a565b9181601f840112156104ff578235916001600160401b0383116104ff576020808501948460051b0101116104ff57565b600080fd5b604081019081106001600160401b0382111761051f57604052565b634e487b7160e01b600052604160045260246000fd5b608081019081106001600160401b0382111761051f57604052565b61032081019081106001600160401b0382111761051f57604052565b60a081019081106001600160401b0382111761051f57604052565b90601f801991011681019081106001600160401b0382111761051f57604052565b60001981146105b75760010190565b634e487b7160e01b600052601160045260246000fd5b91908110156105dd5760051b0190565b634e487b7160e01b600052603260045260246000fd5b9291909282158015610675575b61066b5792906000915b83831061061957505050501490565b61064a9060019586821615600014610650576106419061063a8688876105cd565b3590610732565b955b1c926105a8565b9161060a565b6106659061065f8688876105cd565b35610732565b95610643565b5050505050600090565b5060208311610600565b6001600160401b03811161051f5760051b60200190565b906106a08261067f565b6106ad6040519182610587565b82815280926106be601f199161067f565b0190602036910137565b919082018092116105b757565b80518210156105dd5760209160051b010190565b9290919260005b848110610701575050505050600090565b8261070c82846106d5565b51146107205761071b906105a8565b6106f0565b9291505061072e92506106d5565b5190565b61077191604051917151535f535441524b5f4d45524b4c455f563160701b6020840152604083015260608201526060815261076c81610535565b6107bd565b90565b61077191604051916f51535f535441524b5f4c4541465f563160801b6020840152604083015260608201526060815261076c81610535565b9060198110156105dd5760051b0190565b60006101c0526040516107cf81610550565b6103203682376101c052805190600182018083116105b75760889004916001830183116105b757916000905b60018101821061097257505050506101c0516001600160401b038151166fffffffffffffffff0000000000000000602083015160401b161760408201519160606001600160401b0360c01b91015160c01b16916001600160401b0360801b9060801b1617177eff00ff00ff00ff00ff00ff00ff00ff00ff00ff00ff00ff00ff00ff00ff00ff7fff00ff00ff00ff00ff00ff00ff00ff00ff00ff00ff00ff00ff00ff00ff00ff008260081b169160081c16177dffff0000ffff0000ffff0000ffff0000ffff0000ffff0000ffff0000ffff7fffff0000ffff0000ffff0000ffff0000ffff0000ffff0000ffff0000ffff00008260101b169160101c16177bffffffff00000000ffffffff00000000ffffffff00000000ffffffff7fffffffff00000000ffffffff00000000ffffffff00000000ffffffff000000008260201b169160201c161777ffffffffffffffff0000000000000000ffffffffffffffff80198260401b169160401c16178060801b9060801c1790565b608882939495920294838604608814841517156105b7576000925b60119283851015610ada57600090815b600880841015610a9857600388811b89810483148a151715610a8357856109c76109cc928f6106c8565b6106c8565b8c88821015610a2e57508b518110156105dd57602086918d01015160f81c915b1b918583041485151715610a195760ff16901b6001600160401b03161791610a13906105a8565b9161099d565b87634e487b7160e01b60005260045260246000fd5b90888103610a41575050846006916109ec565b60888201809211610a6e5760878e01918211610a6e5703610a6557846080916109ec565b846000916109ec565b89634e487b7160e01b60005260045260246000fd5b88634e487b7160e01b60005260045260246000fd5b50909450610ad4929591506001600160401b039081610aba846101c0516107ac565b51161890610acb836101c0516107ac565b911690526105a8565b9261098d565b9594925095509150610320604051610af181610550565b369037604051610b008161056c565b60a036823760405190610b128261056c565b60a0368337604051806103208101106001600160401b036103208301111761051f5761032081016040526000815260016020820152603e6040820152601c6060820152601b6080820152602460a0820152602c60c0820152600660e0820152603761010082015260146101208201526003610140820152600a610160820152602b61018082015260196101a082015260276101c082015260296101e0820152602d610200820152600f61022082015260156102408201526008610260820152601261028082015260026102a0820152603d6102c082015260386102e0820152600e610300820152604051806101e052806103008101106001600160401b036103008301111761051f5780610300600192016040525261808260206101e051015267800000000000808a60406101e051015267800000008000800060606101e051015261808b60806101e0510152638000000160a06101e051015267800000008000808160c06101e051015267800000000000800960e06101e0510152608a6101006101e051015260886101206101e051015263800080096101406101e0510152638000000a6101606101e0510152638000808b6101806101e051015267800000000000008b6101a06101e05101526780000000000080896101c06101e05101526780000000000080036101e0805101526780000000000080026102006101e05101526780000000000000806102206101e051015261800a6102406101e051015267800000008000000a6102606101e05101526780000000800080816102806101e05101526780000000000080806102a06101e051015263800000016102c06101e05101526780000000800080086102e06101e05101526000915b60188310610dac5750505050610da36001916105a8565b919390506107fb565b9491966001600160401b036101c099929794995181610280818351168260a08501511618826101408501511618826101e0850151161892015116181686526101c0516001600160401b036102a0816020840151168260c0850151161882610160850151161882610200850151161892015116186001600160401b03811660208801526001600160401b036101c051816102c0816040840151168260e0850151161882610180850151161882610220850151161892015116181660408801526001600160401b036101c051816102e081606084015116826101008501511618826101a0850151161882610240850151161892015116181660608801526001600160401b0380806101c0518161030081608084015116826101208501511618826101c085015116188261026085015116189201511618168060808b015281600185603f1c1667fffffffffffffffe8660011b16178218168d528c6020838c610f2f826040818451169301511667fffffffffffffffe600182603f1c169160011b161790565b18169101528c6040838c610f63826060816020850151169301511667fffffffffffffffe600182603f1c169160011b161790565b18169101528c6060838c610f97826080816040850151169301511667fffffffffffffffe600182603f1c169160011b161790565b18169101528c6080838c610fc8828060608401511692511667fffffffffffffffe600182603f1c169160011b161790565b18169101526101c0519367fffffffffffffffe600182603f1c169160011b1617181681835116181690526001600160401b0360208a0151166001600160401b0360206101c051019181835116181690526001600160401b0360408a0151166001600160401b0360406101c051019181835116181690526001600160401b0360608a0151166001600160401b0360606101c051019181835116181690526001600160401b0360808a0151166001600160401b0360806101c051019181835116181690526001600160401b038951166001600160401b0360a06101c051019181835116181690526001600160401b0360208a0151166001600160401b0360c06101c051019181835116181690526001600160401b0360408a0151166001600160401b0360e06101c051019181835116181690526001600160401b0360608a0151166001600160401b036101006101c051019181835116181690526001600160401b0360808a0151166001600160401b036101206101c051019181835116181690526001600160401b038951166001600160401b036101406101c051019181835116181690526001600160401b0360208a0151166001600160401b036101606101c051019181835116181690526001600160401b0360408a0151166001600160401b036101806101c051019181835116181690526001600160401b0360608a0151166001600160401b036101a06101c051019181835116181690526001600160401b0360808a0151166001600160401b036101c08051019181835116181690526001600160401b038951166001600160401b036101e06101c051019181835116181690526001600160401b0360208a0151166001600160401b036102006101c051019181835116181690526001600160401b0360408a0151166001600160401b036102206101c051019181835116181690526001600160401b0360608a0151166001600160401b036102406101c051019181835116181690526001600160401b0360808a0151166001600160401b036102606101c051019181835116181690526001600160401b038951166001600160401b036102806101c051019181835116181690526001600160401b0360208a0151166001600160401b036102a06101c051019181835116181690526001600160401b0360408a0151166001600160401b036102c06101c051019181835116181690526001600160401b0360608a0151166001600160401b036102e06101c051019181835116181690526001600160401b0360808a0151166001600160401b036103006101c051019181835116181690526113956040518061020052610550565b61032036610200513760005b60198110611569575060005b60058082101561152757808281020482036105b7576113d1828202610200516107ac565b519082810260018101106105b7576113f1600184830201610200516107ac565b5181840260028101106105b757611410600285840201610200516107ac565b519184810260038101106105b757611430600386830201610200516107ac565b51600491908682028084011061151257926001600160401b036114ff848985898599878761150d9f9e81819f9d611471829e918a84930201610200516107ac565b5196816114838b8b026101c0516107ac565b9616191616911618169052866114a16001868602016101c0516107ac565b9a16998780838d191616818b161816905286806114c66002878702016101c0516107ac565b92169a81848d1916161816905285806114e76003868602016101c0516107ac565b921699818d8c1916161816905202016101c0516107ac565b9516191616181690526105a8565b6113ad565b601183634e487b7160e01b6000525260246000fd5b5050966115639098939691989592956001600160401b038160051b6101e0510151166001600160401b036101c0519181835116181690526105a8565b91610d8c565b600581066001600160ff1b03811690036105b75760036005820481020460058204036105b75760056115a581830460030282840660011b6106c8565b06906115d26001600160401b036115bf836101c0516107ac565b51166115cb838c6107ac565b519061160a565b60058381020483036105b7576001600160401b03610acb6115fc61160595600502600586046106c8565b610200516107ac565b6113a1565b8115611633576001600160401b0380911682604003604081116105b7578183911c16921b161790565b905090565b949392919091600060e0528186148015906119fb575b6119f35785156119f357606486116119e15761012051156105dd578035601e19823603018112156104ff578101946001600160401b038635116104ff57853560051b360360208701136104ff5785351580156119d6575b6119c8578686358102048635036105b7576116c286358802610696565b60a0526116d186358802610696565b6080526000610180526116e48635610696565b610160526116f28635610696565b6101005260006101a0525b6101a051878110156119be57610120518110156105dd57601e19833603018160051b84013512156104ff5760051b82013582016001600160401b038135116104ff57803560051b360360208201136104ff5786358135036119b8576040518060408101106001600160401b0360408301111761051f5786916040820160405260008252600060208301526117986101a0518b610140516105cd565b3582526117a96101a05187896105cd565b356020830152600060c0526000905b893582106118e657505051146117de575b6117d56101a0516105a8565b6101a0526116fd565b9091959294936117ef60e0516105a8565b60e0526000955b60c0518710806118d7575b156118ca5760009760005b610180518110156118ba576118238160a0516106d5565b516118318a610160516106d5565b511461184557611840906105a8565b61180c565b50929661185e91949295985060015b15611869576105a8565b9591969390926117f6565b61187681610160516106d5565b516118866101805160a0516106d5565b5261189481610100516106d5565b516118a4610180516080516106d5565b526118b1610180516105a8565b610180526105a8565b50929661185e9194929598611854565b93969291909495506117c9565b50853585026101805110611801565b90925060208201516001840184116105b75788936119329160011c806001830160801b1761191d816101805160805160a0516106e9565b908115611938575085525b60208501526105a8565b906117b8565b90506001602087015116156000146119965761195e865161063a85883560208a016105cd565b86525b61197060c051610160516106d5565b52845161198260c051610100516106d5565b5261198e60c0516105a8565b60c052611928565b6119b16119a8848735602089016105cd565b35875190610732565b8652611961565b506117c9565b5095505050505050565b95505050505050600060e052565b5060208635116116a5565b604051631e80759560e21b8152600490fd5b505050509050565b506101205186141561164e56fea2646970667358221220dc156c6d7935de367218cbe32a9c6697239a6d54e1c1088dcb74f84af19afbe864736f6c63430008140033","linkReferences":{}},"methodIdentifiers":{"MAX_BATCH_SIZE()":"cfdbf254","MAX_DEPTH()":"a27154ba","computeLeaf(uint256,uint256)":"f4c5d493","computeRoot(uint256[])":"8b6cb194","getVersion()":"0d8e6e2c","hashData(bytes)":"e66ef92d","hashPair(bytes32,bytes32)":"3695a940","verifyBatchProofs(bytes32[],uint256[],bytes32[][],bytes32)":"a4ae6055","verifyProof(bytes32,uint256,bytes32[],bytes32)":"704ef207"},"id":50}