{"abi":[{"type":"constructor","inputs":[{"name":"_l1Vault","type":"address","internalType":"address"}],"stateMutability":"nonpayable"},{"type":"function","name":"CALLBACK_GAS_LIMIT","inputs":[],"outputs":[{"name":"","type":"uint256","internalType":"uint256"}],"stateMutability":"view"},{"type":"function","name":"VRF_TIMEOUT","inputs":[],"outputs":[{"name":"","type":"uint256","internalType":"uint256"}],"stateMutability":"view"},{"type":"function","name":"addProver","inputs":[{"name":"prover","type":"address","internalType":"address"},{"name":"stake","type":"uint256","internalType":"uint256"}],"outputs":[],"stateMutability":"nonpayable"},{"type":"function","name":"getAllProvers","inputs":[],"outputs":[{"name":"","type":"tuple[]","internalType":"struct ProverSelector.ProverInfo[]","components":[{"name":"prover","type":"address","internalType":"address"},{"name":"stake","type":"uint256","internalType":"uint256"},{"name":"active","type":"bool","internalType":"bool"}]}],"stateMutability":"view"},{"type":"function","name":"getProverByIndex","inputs":[{"name":"index","type":"uint256","internalType":"uint256"}],"outputs":[{"name":"","type":"tuple","internalType":"struct ProverSelector.ProverInfo","components":[{"name":"prover","type":"address","internalType":"address"},{"name":"stake","type":"uint256","internalType":"uint256"},{"name":"active","type":"bool","internalType":"bool"}]}],"stateMutability":"view"},{"type":"function","name":"getProverPoolLength","inputs":[],"outputs":[{"name":"","type":"uint256","internalType":"uint256"}],"stateMutability":"view"},{"type":"function","name":"getSelectedProver","inputs":[{"name":"unlockRequestId","type":"bytes32","internalType":"bytes32"}],"outputs":[{"name":"prover","type":"address","internalType":"address"},{"name":"randomValue","type":"uint256","internalType":"uint256"}],"stateMutability":"view"},{"type":"function","name":"getVRFRequest","inputs":[{"name":"requestId","type":"uint256","internalType":"uint256"}],"outputs":[{"name":"","type":"tuple","internalType":"struct VRFConsumerMock.VRFRequest","components":[{"name":"unlockRequestId","type":"bytes32","internalType":"bytes32"},{"name":"requestedAt","type":"uint256","internalType":"uint256"},{"name":"randomValue","type":"uint256","internalType":"uint256"},{"name":"selectedProver","type":"address","internalType":"address"},{"name":"fulfilled","type":"bool","internalType":"bool"}]}],"stateMutability":"view"},{"type":"function","name":"isProverSelected","inputs":[{"name":"unlockRequestId","type":"bytes32","internalType":"bytes32"}],"outputs":[{"name":"ready","type":"bool","internalType":"bool"}],"stateMutability":"view"},{"type":"function","name":"l1Vault","inputs":[],"outputs":[{"name":"","type":"address","internalType":"address"}],"stateMutability":"view"},{"type":"function","name":"mockAutoFulfill","inputs":[{"name":"requestId","type":"uint256","internalType":"uint256"}],"outputs":[],"stateMutability":"nonpayable"},{"type":"function","name":"mockFulfillRandomWords","inputs":[{"name":"requestId","type":"uint256","internalType":"uint256"},{"name":"randomValue","type":"uint256","internalType":"uint256"}],"outputs":[],"stateMutability":"nonpayable"},{"type":"function","name":"owner","inputs":[],"outputs":[{"name":"","type":"address","internalType":"address"}],"stateMutability":"view"},{"type":"function","name":"proverPool","inputs":[{"name":"","type":"uint256","internalType":"uint256"}],"outputs":[{"name":"prover","type":"address","internalType":"address"},{"name":"stake","type":"uint256","internalType":"uint256"},{"name":"active","type":"bool","internalType":"bool"}],"stateMutability":"view"},{"type":"function","name":"removeProver","inputs":[{"name":"prover","type":"address","internalType":"address"}],"outputs":[],"stateMutability":"nonpayable"},{"type":"function","name":"requestProverSelection","inputs":[{"name":"unlockRequestId","type":"bytes32","internalType":"bytes32"}],"outputs":[{"name":"requestId","type":"uint256","internalType":"uint256"}],"stateMutability":"nonpayable"},{"type":"function","name":"setL1Vault","inputs":[{"name":"newL1Vault","type":"address","internalType":"address"}],"outputs":[],"stateMutability":"nonpayable"},{"type":"function","name":"transferOwnership","inputs":[{"name":"newOwner","type":"address","internalType":"address"}],"outputs":[],"stateMutability":"nonpayable"},{"type":"function","name":"triggerFallback","inputs":[{"name":"unlockRequestId","type":"bytes32","internalType":"bytes32"}],"outputs":[{"name":"prover","type":"address","internalType":"address"}],"stateMutability":"nonpayable"},{"type":"function","name":"unlockToVRFRequest","inputs":[{"name":"","type":"bytes32","internalType":"bytes32"}],"outputs":[{"name":"","type":"uint256","internalType":"uint256"}],"stateMutability":"view"},{"type":"function","name":"updateProverStake","inputs":[{"name":"prover","type":"address","internalType":"address"},{"name":"newStake","type":"uint256","internalType":"uint256"}],"outputs":[],"stateMutability":"nonpayable"},{"type":"function","name":"vrfRequests","inputs":[{"name":"","type":"uint256","internalType":"uint256"}],"outputs":[{"name":"unlockRequestId","type":"bytes32","internalType":"bytes32"},{"name":"requestedAt","type":"uint256","internalType":"uint256"},{"name":"randomValue","type":"uint256","internalType":"uint256"},{"name":"selectedProver","type":"address","internalType":"address"},{"name":"fulfilled","type":"bool","internalType":"bool"}],"stateMutability":"view"},{"type":"event","name":"FallbackProverSelected","inputs":[{"name":"unlockRequestId","type":"bytes32","indexed":true,"internalType":"bytes32"},{"name":"prover","type":"address","indexed":true,"internalType":"address"}],"anonymous":false},{"type":"event","name":"L1VaultUpdated","inputs":[{"name":"oldVault","type":"address","indexed":true,"internalType":"address"},{"name":"newVault","type":"address","indexed":true,"internalType":"address"}],"anonymous":false},{"type":"event","name":"OwnershipTransferred","inputs":[{"name":"previousOwner","type":"address","indexed":true,"internalType":"address"},{"name":"newOwner","type":"address","indexed":true,"internalType":"address"}],"anonymous":false},{"type":"event","name":"ProverAdded","inputs":[{"name":"prover","type":"address","indexed":true,"internalType":"address"},{"name":"stake","type":"uint256","indexed":false,"internalType":"uint256"}],"anonymous":false},{"type":"event","name":"ProverRemoved","inputs":[{"name":"prover","type":"address","indexed":true,"internalType":"address"}],"anonymous":false},{"type":"event","name":"ProverSelected","inputs":[{"name":"unlockRequestId","type":"bytes32","indexed":true,"internalType":"bytes32"},{"name":"prover","type":"address","indexed":true,"internalType":"address"},{"name":"randomValue","type":"uint256","indexed":false,"internalType":"uint256"}],"anonymous":false},{"type":"event","name":"VRFReceived","inputs":[{"name":"requestId","type":"uint256","indexed":true,"internalType":"uint256"},{"name":"randomValue","type":"uint256","indexed":false,"internalType":"uint256"}],"anonymous":false},{"type":"event","name":"VRFRequested","inputs":[{"name":"requestId","type":"uint256","indexed":true,"internalType":"uint256"},{"name":"unlockRequestId","type":"bytes32","indexed":true,"internalType":"bytes32"}],"anonymous":false},{"type":"error","name":"InvalidCallback","inputs":[]},{"type":"error","name":"InvalidRandomValue","inputs":[]},{"type":"error","name":"NoActiveProvers","inputs":[]},{"type":"error","name":"NotL1Vault","inputs":[]},{"type":"error","name":"NotOwner","inputs":[]},{"type":"error","name":"ProverAlreadyExists","inputs":[]},{"type":"error","name":"RequestAlreadyFulfilled","inputs":[]},{"type":"error","name":"RequestNotFound","inputs":[]},{"type":"error","name":"TimeoutNotReached","inputs":[]},{"type":"error","name":"UnauthorizedCallback","inputs":[]},{"type":"error","name":"VRFNotReady","inputs":[]},{"type":"error","name":"VRFRequestFailed","inputs":[]},{"type":"error","name":"VRFTimeout","inputs":[]},{"type":"error","name":"ZeroAddress","inputs":[]}],"bytecode":{"object":"0x60803461009757601f61129f38819003918201601f19168301916001600160401b0383118484101761009c5780849260209460405283398101031261009757516001600160a01b038116908190036100975780156100855760018060a01b031933816000541617600055600154161760015560016002556040516111ec90816100b38239f35b60405163d92e233d60e01b8152600490fd5b600080fd5b634e487b7160e01b600052604160045260246000fdfe608060408181526004918236101561001657600080fd5b600092833560e01c918263012df81714610bb1575081631a1d925214610b5357816333d608f114610b35578163354731ff14610a2d57816348ceaa59146109ac578163501e020b1461089757816354fa453c1461080b57816372d369a714610716578163811cbeb7146106f757816381fa4db1146106d05781638da5cb5b146106a8578163967de5561461053f578163a65661ef14610516578163b571d3dd146104cd578163c10672f014610498578163c1e582ba146103e5578163d228ad251461038d578163d72d1d791461031e578163f12084cd146101f5578163f2fde38b14610162578163f491c80c14610136575063f4d1c5f61461011757600080fd5b346101325781600319360112610132576020905161012c8152f35b5080fd5b82843461015f57602036600319011261015f575061015660209235610d18565b90519015158152f35b80fd5b9050346101f15760203660031901126101f15761017d610bfc565b83546001600160a01b03808216939192338590036101e157169384156101d45750506001600160a01b031916821783557f8be0079c531659141344cd1fd0a4f28419497f9722a3daafe3b4186f6b6457e08380a380f35b5163d92e233d60e01b8152fd5b85516330cd747160e01b81528390fd5b8280fd5b83915034610132576020366003190112610132578035908183528060205283832054801561030f578352600360205283832091600383019283549260ff8460a01c1661030157600182015461012c81018091116102ee5742106102e05750857f20ec7cf7912c9b857ee48087b73897b95592335fd89fc4f4c5372f1719eed6d091602097518881019044825242848201528560608201524360808201526080815261029f81610c8d565b51902060026102ad82610ef8565b9201556001600160a81b03199094166001600160a01b03909416938417600160a01b179094559251939192839280a38152f35b86516326c015ab60e21b8152fd5b634e487b7160e01b875260118252602487fd5b865163533d99dd60e01b8152fd5b508351632589d98f60e11b8152fd5b9050346101f15760203660031901126101f15761036161035b61038b9260609585805161034a81610cbf565b828152826020820152015235610c17565b50610e31565b915182516001600160a01b0316815260208084015190820152604092830151151592810192909252565bf35b9050346101f15760203660031901126101f157359160055483101561015f57506103b8606092610c17565b509060018060a01b038254169160ff60026001830154920154169082519384526020840152151590820152f35b9050346101f15760203660031901126101f15782829160a0946080845161040b81610c8d565b82815282602082015282868201528260608201520152358152600360205220815161043581610c8d565b815492838252600183015490602083019182526003600285015494828501958652015493606084019260ff60806001808b1b039687891687520196891c161515865282519687525160208701525190850152511660608301525115156080820152f35b9050823461015f57602036600319011261015f57506104b79035610cdb565b82516001600160a01b0390921682526020820152f35b9050346101f15760203660031901126101f1576104e8610bfc565b83549092906001600160a01b03163303610509578361050684610d59565b80f35b516330cd747160e01b8152fd5b50503461013257816003193601126101325760015490516001600160a01b039091168152602090f35b919050346101f157806003193601126101f15761055a610bfc565b835460243592916001600160a01b03918216330361069857811693841561068a5760055491865b838110610659575083519061059582610cbf565b8682526020820191868352858101946001865268010000000000000000811015610646578060016105c99201600555610c17565b9490946106345750927f25343d56d3f85e154bd7f16fac360991caeb9a82123cf0ff11f6b8a731d46d109694926002926020979551166bffffffffffffffffffffffff60a01b835416178255516001820155019051151560ff8019835416911617905551908152a280f35b634e487b7160e01b8a52899052602489fd5b634e487b7160e01b8a526041855260248afd5b868261066483610c17565b5054161461067a5761067590610c68565b610581565b84516312db1b9960e01b81528390fd5b825163d92e233d60e01b8152fd5b82516330cd747160e01b81528590fd5b505034610132578160031936011261013257905490516001600160a01b039091168152602090f35b9050346101f15760203660031901126101f157602092818392358252845220549051908152f35b5050346101325781600319360112610132576020906005549051908152f35b83915034610132576020366003190112610132576001548135906001600160a01b0390811633036107fb577ff7617d06180c24c92bad8c8436c3ae97409a09e1f5655da6c0807f50c5f9674860209560025494859361077485610c68565b6002558783519161078483610c8d565b87835260038b84019342855286810184815260608201958587528860808401968088528c8152602086905220925183555160018301555160028201550192511682549160ff60a01b9051151560a01b16916affffffffffffffffffffff60a81b161717905584875287528281872055519480a38152f35b8451632c2e97a760e21b81528390fd5b9050346101f15760203660031901126101f157610826610bfc565b83546001600160a01b03929190831633036108885782169283156101d4575050600154826bffffffffffffffffffffffff60a01b821617600155167fa0b0e8a015b8fe2e644e3cefb3e301a268bad6a0004222a2c372980616bc07178380a380f35b5082516330cd747160e01b8152fd5b919050346101f15760203660031901126101f157813590818452600360205280842090815492831561099c576003830180549560ff8760a01c1661098e5750917fd91da7087a9300778759c4df53dd712b6e8aa73d0a38b6b8a61b86b96d3d9667939160209382518581019042825243858201528360608201523360601b60808201526074815261092781610c8d565b5190209384600261093782610ef8565b9201556001600160a81b03199098166001600160a01b03909816978817600160a01b17905581518381527f936fe18cf1ae151e1bc53947d9b72671fb007ae8fb2ec8ad96d98a23c8d51dc1908590a251908152a380f35b835163533d99dd60e01b8152fd5b8151632589d98f60e11b81528590fd5b82843461015f578060031936011261015f57906109c7610e67565b81519160208080850192818652845180945285019301945b8281106109ec5784840385f35b90919282606082610a1e6001948a516040809160018060a01b0381511684526020810151602085015201511515910152565b019601910194929190946109df565b919050346101f157806003193601126101f15782546001600160a01b03916024359184359084163303610b255780865260036020528186208054948515610b1557600382019182549760ff8960a01c16610b0757509185939160209593856002610ab77fd91da7087a9300778759c4df53dd712b6e8aa73d0a38b6b8a61b86b96d3d96679a610ef8565b920155169788600160a01b916affffffffffffffffffffff60a81b16171790557f936fe18cf1ae151e1bc53947d9b72671fb007ae8fb2ec8ad96d98a23c8d51dc1848351858152a251908152a380f35b855163533d99dd60e01b8152fd5b8351632589d98f60e11b81528790fd5b81516330cd747160e01b81528590fd5b5050346101325781600319360112610132576020905162030d408152f35b9050346101f15760203660031901126101f1578160a09360ff9235815260036020522091825492600181015491600360028301549201549281519586526020860152840152600180851b0381166060840152831c1615156080820152f35b84918434610bf8573660031901126101f157610bcb610bfc565b83549092906001600160a01b03163303610bec578361050660243585610de5565b6330cd747160e01b8152fd5b8380fd5b600435906001600160a01b0382168203610c1257565b600080fd5b600554811015610c52576003906005600052027f036b6384b5eca791c62761152d0c79bb0604c104a5fb6f4eb0703f3154bb3db00190600090565b634e487b7160e01b600052603260045260246000fd5b6000198114610c775760010190565b634e487b7160e01b600052601160045260246000fd5b60a0810190811067ffffffffffffffff821117610ca957604052565b634e487b7160e01b600052604160045260246000fd5b6060810190811067ffffffffffffffff821117610ca957604052565b6000908152600460205260408120548015610d125790604091815260036020522090600260018060a01b0360038401541692015490565b50908190565b60005260046020526040600020548015610d4657600052600360205260ff60036040600020015460a01c1690565b50600090565b91908201809211610c7757565b600090815b600554811015610dd357610d7181610c17565b50546001600160a01b0383811691168114610d955750610d9090610c68565b610d5e565b92907fd64d11086d859b73cf85a91ca06cbc484398acabe3d9a1b26d4366dff377d9859250610dc5600291610c17565b5001805460ff1916905580a2565b604051632589d98f60e11b8152600490fd5b9060005b600554811015610dd357610dfc81610c17565b50546001600160a01b03848116911614610e1e57610e1990610c68565b610de9565b6001919250610e2c90610c17565b500155565b90604051610e3e81610cbf565b82546001600160a01b031681526001830154602082015260029092015460ff1615156040830152565b6005549067ffffffffffffffff91828111610ca95760405192600582901b603f01601f1916840190811184821017610ca9576040528083526005600090815260207f036b6384b5eca791c62761152d0c79bb0604c104a5fb6f4eb0703f3154bb3db08186015b848410610edb575050505050565b600383600192610eea85610e31565b815201920193019290610ecd565b60055415610f1557610f1190610f0c610e67565b610f5b565b5090565b604051637a8d088b60e01b8152600490fd5b8115610f31570690565b634e487b7160e01b600052601260045260246000fd5b8051821015610c525760209160051b010190565b81156111965760008093845b8351811015610fe9576040610f7c8286610f47565b510151151580610fc9575b610f9a575b610f9590610c68565b610f67565b9491610fc1610fbb610f95926020610fb28a89610f47565b51015190610d4c565b93610c68565b959050610f8c565b50670de0b6b3a76400006020610fdf8387610f47565b5101511015610f87565b5092909315610f1557610ffb846111a8565b936110068183610f27565b9480831015908161118c575b5061114a575b5050600092835b82518510156110b15760406110348685610f47565b510151158015611092575b61108857611053906020610fb28786610f47565b9384821061106a5761106490610c68565b9361101f565b93506001600160a01b039161108191508490610f47565b5151169190565b9361106490610c68565b50670de0b6b3a764000060206110a88786610f47565b5101511061103f565b50509091508051805b6110d057604051637a8d088b60e01b8152600490fd5b600019810181811180610c775760406110e98386610f47565b510151151580611127575b61110a5750508015610c775760001901806110ba565b9093929150610c77576001600160a01b0390611081908490610f47565b50506000670de0b6b3a764000060206111408487610f47565b51015110156110f4565b90919350604051916020830190815260208352604083019280841067ffffffffffffffff851117610ca95761118493604052519020610f27565b913880611018565b9050151538611012565b60405163602938e560e11b8152600490fd5b8015610d465760001906199056fea26469706673582212206255b9030ec0a02e70c49c3cf04f76b44cff44deee1957eae52b891230d285e364736f6c63430008140033","linkReferences":{}},"methodIdentifiers":{"CALLBACK_GAS_LIMIT()":"33d608f1","VRF_TIMEOUT()":"f4d1c5f6","addProver(address,uint256)":"967de556","getAllProvers()":"48ceaa59","getProverByIndex(uint256)":"d72d1d79","getProverPoolLength()":"811cbeb7","getSelectedProver(bytes32)":"c10672f0","getVRFRequest(uint256)":"c1e582ba","isProverSelected(bytes32)":"f491c80c","l1Vault()":"a65661ef","mockAutoFulfill(uint256)":"501e020b","mockFulfillRandomWords(uint256,uint256)":"354731ff","owner()":"8da5cb5b","proverPool(uint256)":"d228ad25","removeProver(address)":"b571d3dd","requestProverSelection(bytes32)":"72d369a7","setL1Vault(address)":"54fa453c","transferOwnership(address)":"f2fde38b","triggerFallback(bytes32)":"f12084cd","unlockToVRFRequest(bytes32)":"81fa4db1","updateProverStake(address,uint256)":"012df817","vrfRequests(uint256)":"1a1d9252"},"id":12}