{"abi":[{"type":"function","name":"verify","inputs":[{"name":"message","type":"bytes32","internalType":"bytes32"},{"name":"signature","type":"bytes","internalType":"bytes"},{"name":"publicKey","type":"bytes","internalType":"bytes"}],"outputs":[{"name":"success","type":"bool","internalType":"bool"}],"stateMutability":"pure"}],"bytecode":{"object":"0x608080604052346100155760e5908161001b8239f35b600080fdfe6080806040526004361015601257600080fd5b600090813560e01c635bf48e3a14602857600080fd5b34607b576060366003190112607b5767ffffffffffffffff91602435838111607b576056903690600401607f565b50506044359283116078575060706020923690600401607f565b505060018152f35b80fd5b5080fd5b9181601f8401121560aa5782359167ffffffffffffffff831160aa576020838186019501011160aa57565b600080fdfea26469706673582212201aedf9d0afa724487a270e7e039473c878a5728146eaaade9f33e87517a0abc164736f6c63430008140033","linkReferences":{}},"methodIdentifiers":{"verify(bytes32,bytes,bytes)":"5bf48e3a"},"id":80}