{"abi":[{"type":"function","name":"verify","inputs":[{"name":"message","type":"bytes32","internalType":"bytes32"},{"name":"signature","type":"bytes","internalType":"bytes"},{"name":"publicKey","type":"bytes","internalType":"bytes"}],"outputs":[{"name":"success","type":"bool","internalType":"bool"}],"stateMutability":"pure"}],"bytecode":{"object":"0x608060405234801561001057600080fd5b50610156806100206000396000f3fe608060405234801561001057600080fd5b506004361061002b5760003560e01c80635bf48e3a14610030575b600080fd5b61004961003e3660046100a6565b600195945050505050565b604051901515815260200160405180910390f35b60008083601f84011261006f57600080fd5b50813567ffffffffffffffff81111561008757600080fd5b60208301915083602082850101111561009f57600080fd5b9250929050565b6000806000806000606086880312156100be57600080fd5b85359450602086013567ffffffffffffffff808211156100dd57600080fd5b6100e989838a0161005d565b9096509450604088013591508082111561010257600080fd5b5061010f8882890161005d565b96999598509396509294939250505056fea2646970667358221220219e7b30fff38fd4fbe289ff734901b793ca498f5e8931882d0283ff9f4c04f264736f6c63430008140033","linkReferences":{}},"methodIdentifiers":{"verify(bytes32,bytes,bytes)":"5bf48e3a"},"id":63}