{"abi":[{"type":"constructor","inputs":[{"name":"admin_","type":"address","internalType":"address"},{"name":"minter_","type":"address","internalType":"address"}],"stateMutability":"nonpayable"},{"type":"function","name":"MAX_SUPPLY","inputs":[],"outputs":[{"name":"","type":"uint256","internalType":"uint256"}],"stateMutability":"view"},{"type":"function","name":"admin","inputs":[],"outputs":[{"name":"","type":"address","internalType":"address"}],"stateMutability":"view"},{"type":"function","name":"allowance","inputs":[{"name":"owner","type":"address","internalType":"address"},{"name":"spender","type":"address","internalType":"address"}],"outputs":[{"name":"","type":"uint256","internalType":"uint256"}],"stateMutability":"view"},{"type":"function","name":"approve","inputs":[{"name":"spender","type":"address","internalType":"address"},{"name":"amount","type":"uint256","internalType":"uint256"}],"outputs":[{"name":"","type":"bool","internalType":"bool"}],"stateMutability":"nonpayable"},{"type":"function","name":"balanceOf","inputs":[{"name":"account","type":"address","internalType":"address"}],"outputs":[{"name":"","type":"uint256","internalType":"uint256"}],"stateMutability":"view"},{"type":"function","name":"burn","inputs":[{"name":"amount","type":"uint256","internalType":"uint256"}],"outputs":[],"stateMutability":"nonpayable"},{"type":"function","name":"burnFrom","inputs":[{"name":"from","type":"address","internalType":"address"},{"name":"amount","type":"uint256","internalType":"uint256"}],"outputs":[],"stateMutability":"nonpayable"},{"type":"function","name":"decimals","inputs":[],"outputs":[{"name":"","type":"uint8","internalType":"uint8"}],"stateMutability":"view"},{"type":"function","name":"mint","inputs":[{"name":"to","type":"address","internalType":"address"},{"name":"amount","type":"uint256","internalType":"uint256"}],"outputs":[],"stateMutability":"nonpayable"},{"type":"function","name":"minter","inputs":[],"outputs":[{"name":"","type":"address","internalType":"address"}],"stateMutability":"view"},{"type":"function","name":"name","inputs":[],"outputs":[{"name":"","type":"string","internalType":"string"}],"stateMutability":"view"},{"type":"function","name":"setAdmin","inputs":[{"name":"newAdmin","type":"address","internalType":"address"}],"outputs":[],"stateMutability":"nonpayable"},{"type":"function","name":"setMinter","inputs":[{"name":"newMinter","type":"address","internalType":"address"}],"outputs":[],"stateMutability":"nonpayable"},{"type":"function","name":"symbol","inputs":[],"outputs":[{"name":"","type":"string","internalType":"string"}],"stateMutability":"view"},{"type":"function","name":"totalSupply","inputs":[],"outputs":[{"name":"","type":"uint256","internalType":"uint256"}],"stateMutability":"view"},{"type":"function","name":"transfer","inputs":[{"name":"to","type":"address","internalType":"address"},{"name":"amount","type":"uint256","internalType":"uint256"}],"outputs":[{"name":"","type":"bool","internalType":"bool"}],"stateMutability":"nonpayable"},{"type":"function","name":"transferFrom","inputs":[{"name":"from","type":"address","internalType":"address"},{"name":"to","type":"address","internalType":"address"},{"name":"amount","type":"uint256","internalType":"uint256"}],"outputs":[{"name":"","type":"bool","internalType":"bool"}],"stateMutability":"nonpayable"},{"type":"event","name":"AdminChanged","inputs":[{"name":"oldAdmin","type":"address","indexed":true,"internalType":"address"},{"name":"newAdmin","type":"address","indexed":true,"internalType":"address"}],"anonymous":false},{"type":"event","name":"Approval","inputs":[{"name":"owner","type":"address","indexed":true,"internalType":"address"},{"name":"spender","type":"address","indexed":true,"internalType":"address"},{"name":"value","type":"uint256","indexed":false,"internalType":"uint256"}],"anonymous":false},{"type":"event","name":"MinterChanged","inputs":[{"name":"oldMinter","type":"address","indexed":true,"internalType":"address"},{"name":"newMinter","type":"address","indexed":true,"internalType":"address"}],"anonymous":false},{"type":"event","name":"Transfer","inputs":[{"name":"from","type":"address","indexed":true,"internalType":"address"},{"name":"to","type":"address","indexed":true,"internalType":"address"},{"name":"value","type":"uint256","indexed":false,"internalType":"uint256"}],"anonymous":false},{"type":"error","name":"ExceedsMaxSupply","inputs":[]},{"type":"error","name":"InsufficientAllowance","inputs":[]},{"type":"error","name":"InsufficientBalance","inputs":[]},{"type":"error","name":"NotAdmin","inputs":[]},{"type":"error","name":"NotMinter","inputs":[]},{"type":"error","name":"ZeroAddress","inputs":[]}],"bytecode":{"object":"0x6080346100a857601f61095a38819003918201601f19168301916001600160401b038311848410176100ac5780849260409485528339810103126100a857610052602061004b836100c0565b92016100c0565b6001600160a01b039182169190821561009657169081156100965760018060a01b031990816004541617600455600354161760035560405161088590816100d58239f35b60405163d92e233d60e01b8152600490fd5b5f80fd5b634e487b7160e01b5f52604160045260245ffd5b51906001600160a01b03821682036100a85756fe608060409080825260049081361015610016575f80fd5b5f3560e01c90816306fdde0314610668575080630754617214610640578063095ea7b3146105b457806318160ddd1461059757806323b872dd146104fc578063313ce567146104e157806332cb6b0c146104bb57806340c10f19146103e457806342966c68146103c7578063704b6c021461033a57806370a082311461030357806379cc67901461027857806395d89b4114610216578063a9059cbb146101e6578063dd62ed3e1461019d578063f851a440146101755763fca3b5aa146100db575f80fd5b34610171576020366003190112610171576100f4610700565b81546001600160a01b0392919083163303610162578216928315610155575050600354826bffffffffffffffffffffffff60a01b821617600355167f3b0007eb941cf645526cbb3a4fdaecda9d28ce4843167d9263b536a1f1edc0f65f80a3005b5163d92e233d60e01b8152fd5b508251637bfa4b9f60e01b8152fd5b5f80fd5b509034610171575f36600319011261017157905490516001600160a01b039091168152602090f35b82346101715780600319360112610171576020906101b9610700565b6101c1610716565b9060018060a01b038091165f5260028452825f2091165f528252805f20549051908152f35b823461017157806003193601126101715760209061020f610205610700565b602435903361074d565b5160018152f35b509034610171575f3660031901126101715780519080820182811067ffffffffffffffff82111761026557610261935081526002825261515360f01b602083015251918291826106b9565b0390f35b604184634e487b7160e01b5f525260245ffd5b509034610171578060031936011261017157610292610700565b6024359160018060a01b038216805f526002602052815f20335f52602052815f2054945f1986036102ca575b6102c885856107e8565b005b8486106102f557506102c89484915f526002602052825f20335f5260205203905f20555f80806102be565b82516313be252b60e01b8152fd5b8234610171576020366003190112610171576020906001600160a01b03610328610700565b165f5260018252805f20549051908152f35b503461017157602036600319011261017157610354610700565b81546001600160a01b038082169392338590036103b757169384156103a857506001600160a01b031916831790557f7e644d79422f17c01e4894b5f4f588d331ebfa28653d42ae832dc59e38c9798f5f80a3005b5163d92e233d60e01b81529050fd5b8551637bfa4b9f60e01b81528490fd5b5034610171576020366003190112610171576102c89035336107e8565b5090346101715780600319360112610171576103fe610700565b60035460243592916001600160a01b0391821633036104ab571692831561049d575f54906b033b2e3c9fd0803ce8000000610439858461072c565b1161048f5750827fddf252ad1be2c89b69c2b068fc378daa952ba7f163c4a11628f55a4df523b3ef9261046f5f9560209461072c565b85558585526001835280852061048683825461072c565b905551908152a3005b825163c30436e960e01b8152fd5b905163d92e233d60e01b8152fd5b8251633e34a41b60e21b81528590fd5b8234610171575f36600319011261017157602090516b033b2e3c9fd0803ce80000008152f35b8234610171575f366003190112610171576020905160128152f35b50903461017157606036600319011261017157610517610700565b61051f610716565b906044359360018060a01b038216805f526002602052845f20335f52602052845f2054915f19830361055a575b60208661020f89888861074d565b8683106105895750918561020f9492602097945f5260028852865f20335f52885203855f20559194819361054c565b85516313be252b60e01b8152fd5b8234610171575f366003190112610171576020905f549051908152f35b5090346101715780600319360112610171576105ce610700565b602435903315610631576001600160a01b03169081156106315760209350335f5260028452825f20825f52845280835f205582519081527f8c5be1e5ebec7d5bd14f71427d1e84f3dd0314c0f7b2291e5b200ac8c7c3b925843392a35160018152f35b50505163d92e233d60e01b8152fd5b8234610171575f3660031901126101715760035490516001600160a01b039091168152602090f35b90508234610171575f3660031901126101715780820182811067ffffffffffffffff8211176102655761026193508152600e82526d145d585b9d1d5b4814da1a595b1960921b602083015251918291825b602080825282518183018190529093925f5b8281106106ec57505060409293505f838284010152601f8019910116010190565b8181018601518482016040015285016106cb565b600435906001600160a01b038216820361017157565b602435906001600160a01b038216820361017157565b9190820180921161073957565b634e487b7160e01b5f52601160045260245ffd5b6001600160a01b039081169182156107d657169182156107d657815f52600160205260405f20548181106107c457817fddf252ad1be2c89b69c2b068fc378daa952ba7f163c4a11628f55a4df523b3ef92602092855f52600184520360405f2055845f5260405f20818154019055604051908152a3565b604051631e9acf1760e31b8152600490fd5b60405163d92e233d60e01b8152600490fd5b6001600160a01b031680156107d657805f52600160205260405f2054918083106107c4576020817fddf252ad1be2c89b69c2b068fc378daa952ba7f163c4a11628f55a4df523b3ef925f9585875260018452036040862055808554038555604051908152a356fea2646970667358221220d288cba7c4efa8a8bed29a9744ad9180c958a55d6cc4c4c6e6829526dc76296d64736f6c63430008180033","linkReferences":{}},"methodIdentifiers":{"MAX_SUPPLY()":"32cb6b0c","admin()":"f851a440","allowance(address,address)":"dd62ed3e","approve(address,uint256)":"095ea7b3","balanceOf(address)":"70a08231","burn(uint256)":"42966c68","burnFrom(address,uint256)":"79cc6790","decimals()":"313ce567","mint(address,uint256)":"40c10f19","minter()":"07546172","name()":"06fdde03","setAdmin(address)":"704b6c02","setMinter(address)":"fca3b5aa","symbol()":"95d89b41","totalSupply()":"18160ddd","transfer(address,uint256)":"a9059cbb","transferFrom(address,address,uint256)":"23b872dd"},"id":50}