{"abi":[{"type":"constructor","inputs":[{"name":"admin_","type":"address","internalType":"address"},{"name":"minter_","type":"address","internalType":"address"}],"stateMutability":"nonpayable"},{"type":"function","name":"MAX_SUPPLY","inputs":[],"outputs":[{"name":"","type":"uint256","internalType":"uint256"}],"stateMutability":"view"},{"type":"function","name":"admin","inputs":[],"outputs":[{"name":"","type":"address","internalType":"address"}],"stateMutability":"view"},{"type":"function","name":"allowance","inputs":[{"name":"owner","type":"address","internalType":"address"},{"name":"spender","type":"address","internalType":"address"}],"outputs":[{"name":"","type":"uint256","internalType":"uint256"}],"stateMutability":"view"},{"type":"function","name":"approve","inputs":[{"name":"spender","type":"address","internalType":"address"},{"name":"amount","type":"uint256","internalType":"uint256"}],"outputs":[{"name":"","type":"bool","internalType":"bool"}],"stateMutability":"nonpayable"},{"type":"function","name":"balanceOf","inputs":[{"name":"account","type":"address","internalType":"address"}],"outputs":[{"name":"","type":"uint256","internalType":"uint256"}],"stateMutability":"view"},{"type":"function","name":"burn","inputs":[{"name":"amount","type":"uint256","internalType":"uint256"}],"outputs":[],"stateMutability":"nonpayable"},{"type":"function","name":"burnFrom","inputs":[{"name":"from","type":"address","internalType":"address"},{"name":"amount","type":"uint256","internalType":"uint256"}],"outputs":[],"stateMutability":"nonpayable"},{"type":"function","name":"decimals","inputs":[],"outputs":[{"name":"","type":"uint8","internalType":"uint8"}],"stateMutability":"view"},{"type":"function","name":"mint","inputs":[{"name":"to","type":"address","internalType":"address"},{"name":"amount","type":"uint256","internalType":"uint256"}],"outputs":[],"stateMutability":"nonpayable"},{"type":"function","name":"minter","inputs":[],"outputs":[{"name":"","type":"address","internalType":"address"}],"stateMutability":"view"},{"type":"function","name":"name","inputs":[],"outputs":[{"name":"","type":"string","internalType":"string"}],"stateMutability":"view"},{"type":"function","name":"pause","inputs":[],"outputs":[],"stateMutability":"nonpayable"},{"type":"function","name":"paused","inputs":[],"outputs":[{"name":"","type":"bool","internalType":"bool"}],"stateMutability":"view"},{"type":"function","name":"setAdmin","inputs":[{"name":"newAdmin","type":"address","internalType":"address"}],"outputs":[],"stateMutability":"nonpayable"},{"type":"function","name":"setMinter","inputs":[{"name":"newMinter","type":"address","internalType":"address"}],"outputs":[],"stateMutability":"nonpayable"},{"type":"function","name":"symbol","inputs":[],"outputs":[{"name":"","type":"string","internalType":"string"}],"stateMutability":"view"},{"type":"function","name":"totalSupply","inputs":[],"outputs":[{"name":"","type":"uint256","internalType":"uint256"}],"stateMutability":"view"},{"type":"function","name":"transfer","inputs":[{"name":"to","type":"address","internalType":"address"},{"name":"amount","type":"uint256","internalType":"uint256"}],"outputs":[{"name":"","type":"bool","internalType":"bool"}],"stateMutability":"nonpayable"},{"type":"function","name":"transferFrom","inputs":[{"name":"from","type":"address","internalType":"address"},{"name":"to","type":"address","internalType":"address"},{"name":"amount","type":"uint256","internalType":"uint256"}],"outputs":[{"name":"","type":"bool","internalType":"bool"}],"stateMutability":"nonpayable"},{"type":"function","name":"unpause","inputs":[],"outputs":[],"stateMutability":"nonpayable"},{"type":"event","name":"AdminChanged","inputs":[{"name":"oldAdmin","type":"address","indexed":true,"internalType":"address"},{"name":"newAdmin","type":"address","indexed":true,"internalType":"address"}],"anonymous":false},{"type":"event","name":"Approval","inputs":[{"name":"owner","type":"address","indexed":true,"internalType":"address"},{"name":"spender","type":"address","indexed":true,"internalType":"address"},{"name":"value","type":"uint256","indexed":false,"internalType":"uint256"}],"anonymous":false},{"type":"event","name":"MinterChanged","inputs":[{"name":"oldMinter","type":"address","indexed":true,"internalType":"address"},{"name":"newMinter","type":"address","indexed":true,"internalType":"address"}],"anonymous":false},{"type":"event","name":"Paused","inputs":[{"name":"account","type":"address","indexed":true,"internalType":"address"}],"anonymous":false},{"type":"event","name":"Transfer","inputs":[{"name":"from","type":"address","indexed":true,"internalType":"address"},{"name":"to","type":"address","indexed":true,"internalType":"address"},{"name":"value","type":"uint256","indexed":false,"internalType":"uint256"}],"anonymous":false},{"type":"event","name":"Unpaused","inputs":[{"name":"account","type":"address","indexed":true,"internalType":"address"}],"anonymous":false},{"type":"error","name":"EnforcedPause","inputs":[]},{"type":"error","name":"ExceedsMaxSupply","inputs":[]},{"type":"error","name":"ExpectedPause","inputs":[]},{"type":"error","name":"InsufficientAllowance","inputs":[]},{"type":"error","name":"InsufficientBalance","inputs":[]},{"type":"error","name":"NotAdmin","inputs":[]},{"type":"error","name":"NotMinter","inputs":[]},{"type":"error","name":"ZeroAddress","inputs":[]}],"bytecode":{"object":"0x608060405234801561000f575f80fd5b50604051610d53380380610d5383398101604081905261002e916100d0565b6001600160a01b0382166100555760405163d92e233d60e01b815260040160405180910390fd5b6001600160a01b03811661007c5760405163d92e233d60e01b815260040160405180910390fd5b60048054600380546001600160a01b039485166001600160a01b0319919091161790556001600160a81b03191691909216179055610101565b80516001600160a01b03811681146100cb575f80fd5b919050565b5f80604083850312156100e1575f80fd5b6100ea836100b5565b91506100f8602084016100b5565b90509250929050565b610c458061010e5f395ff3fe608060405234801561000f575f80fd5b5060043610610127575f3560e01c80635c975abb116100a957806395d89b411161006e57806395d89b411461029f578063a9059cbb146102c0578063dd62ed3e146102d3578063f851a4401461030b578063fca3b5aa1461031c575f80fd5b80635c975abb14610237578063704b6c021461024957806370a082311461025c57806379cc6790146102845780638456cb5914610297575f80fd5b8063313ce567116100ef578063313ce567146101da57806332cb6b0c146101f45780633f4ba83a1461020757806340c10f191461021157806342966c6814610224575f80fd5b806306fdde031461012b578063075461721461016e578063095ea7b31461019357806318160ddd146101b657806323b872dd146101c7575b5f80fd5b6101586040518060400160405280600e81526020016d145d585b9d1d5b4814da1a595b1960921b81525081565b6040516101659190610ac0565b60405180910390f35b6003546001600160a01b03165b6040516001600160a01b039091168152602001610165565b6101a66101a1366004610b27565b61032f565b6040519015158152602001610165565b5f545b604051908152602001610165565b6101a66101d5366004610b4f565b610345565b6101e2601281565b60405160ff9091168152602001610165565b6101b96b033b2e3c9fd0803ce800000081565b61020f6103fc565b005b61020f61021f366004610b27565b61048a565b61020f610232366004610b88565b6105c5565b600454600160a01b900460ff166101a6565b61020f610257366004610b9f565b6105d2565b6101b961026a366004610b9f565b6001600160a01b03165f9081526001602052604090205490565b61020f610292366004610b27565b610675565b61020f6106f8565b61015860405180604001604052806002815260200161515360f01b81525081565b6101a66102ce366004610b27565b61078d565b6101b96102e1366004610bbf565b6001600160a01b039182165f90815260026020908152604080832093909416825291909152205490565b6004546001600160a01b031661017b565b61020f61032a366004610b9f565b6107c5565b5f61033b338484610868565b5060015b92915050565b6004545f90600160a01b900460ff16156103725760405163d93c066560e01b815260040160405180910390fd5b6001600160a01b0384165f9081526002602090815260408083203384529091529020545f1981146103e657828110156103be576040516313be252b60e01b815260040160405180910390fd5b6001600160a01b0385165f908152600260209081526040808320338452909152902083820390555b6103f1858585610917565b506001949350505050565b6004546001600160a01b0316331461042757604051637bfa4b9f60e01b815260040160405180910390fd5b600454600160a01b900460ff1661045157604051638dfc202b60e01b815260040160405180910390fd5b6004805460ff60a01b1916905560405133907f5db9ee0a495bf2e6ff9c91a7834c1ba4fdd244a5e8aa4e537bd38aeae4b073aa905f90a2565b6003546001600160a01b031633146104b557604051633e34a41b60e21b815260040160405180910390fd5b600454600160a01b900460ff16156104e05760405163d93c066560e01b815260040160405180910390fd5b6001600160a01b0382166105075760405163d92e233d60e01b815260040160405180910390fd5b6b033b2e3c9fd0803ce8000000815f546105219190610bf0565b11156105405760405163c30436e960e01b815260040160405180910390fd5b805f808282546105509190610bf0565b90915550506001600160a01b0382165f908152600160205260408120805483929061057c908490610bf0565b90915550506040518181526001600160a01b038316905f907fddf252ad1be2c89b69c2b068fc378daa952ba7f163c4a11628f55a4df523b3ef9060200160405180910390a35050565b6105cf3382610a0b565b50565b6004546001600160a01b031633146105fd57604051637bfa4b9f60e01b815260040160405180910390fd5b6001600160a01b0381166106245760405163d92e233d60e01b815260040160405180910390fd5b600480546001600160a01b038381166001600160a01b0319831681179093556040519116919082907f7e644d79422f17c01e4894b5f4f588d331ebfa28653d42ae832dc59e38c9798f905f90a35050565b6001600160a01b0382165f9081526002602090815260408083203384529091529020545f1981146106e957818110156106c1576040516313be252b60e01b815260040160405180910390fd5b6001600160a01b0383165f908152600260209081526040808320338452909152902082820390555b6106f38383610a0b565b505050565b6004546001600160a01b0316331461072357604051637bfa4b9f60e01b815260040160405180910390fd5b600454600160a01b900460ff161561074e5760405163d93c066560e01b815260040160405180910390fd5b6004805460ff60a01b1916600160a01b17905560405133907f62e78cea01bee320cd4e420270b5ea74000d11b0c9f74754ebdbfc544b05a258905f90a2565b6004545f90600160a01b900460ff16156107ba5760405163d93c066560e01b815260040160405180910390fd5b61033b338484610917565b6004546001600160a01b031633146107f057604051637bfa4b9f60e01b815260040160405180910390fd5b6001600160a01b0381166108175760405163d92e233d60e01b815260040160405180910390fd5b600380546001600160a01b038381166001600160a01b0319831681179093556040519116919082907f3b0007eb941cf645526cbb3a4fdaecda9d28ce4843167d9263b536a1f1edc0f6905f90a35050565b6001600160a01b03831661088f5760405163d92e233d60e01b815260040160405180910390fd5b6001600160a01b0382166108b65760405163d92e233d60e01b815260040160405180910390fd5b6001600160a01b038381165f8181526002602090815260408083209487168084529482529182902085905590518481527f8c5be1e5ebec7d5bd14f71427d1e84f3dd0314c0f7b2291e5b200ac8c7c3b92591015b60405180910390a3505050565b6001600160a01b03831661093e5760405163d92e233d60e01b815260040160405180910390fd5b6001600160a01b0382166109655760405163d92e233d60e01b815260040160405180910390fd5b6001600160a01b0383165f908152600160205260409020548181101561099e57604051631e9acf1760e31b815260040160405180910390fd5b6001600160a01b038085165f8181526001602052604080822086860390559286168082529083902080548601905591517fddf252ad1be2c89b69c2b068fc378daa952ba7f163c4a11628f55a4df523b3ef906109fd9086815260200190565b60405180910390a350505050565b6001600160a01b038216610a325760405163d92e233d60e01b815260040160405180910390fd5b6001600160a01b0382165f9081526001602052604090205481811015610a6b57604051631e9acf1760e31b815260040160405180910390fd5b6001600160a01b0383165f818152600160209081526040808320868603905582548690038355518581529192917fddf252ad1be2c89b69c2b068fc378daa952ba7f163c4a11628f55a4df523b3ef910161090a565b5f602080835283518060208501525f5b81811015610aec57858101830151858201604001528201610ad0565b505f604082860101526040601f19601f8301168501019250505092915050565b80356001600160a01b0381168114610b22575f80fd5b919050565b5f8060408385031215610b38575f80fd5b610b4183610b0c565b946020939093013593505050565b5f805f60608486031215610b61575f80fd5b610b6a84610b0c565b9250610b7860208501610b0c565b9150604084013590509250925092565b5f60208284031215610b98575f80fd5b5035919050565b5f60208284031215610baf575f80fd5b610bb882610b0c565b9392505050565b5f8060408385031215610bd0575f80fd5b610bd983610b0c565b9150610be760208401610b0c565b90509250929050565b8082018082111561033f57634e487b7160e01b5f52601160045260245ffdfea26469706673582212209abab90e0ac54aa45e43b155e35801488193bba8a279875eb216a17a0a11e6b764736f6c63430008180033","linkReferences":{}},"methodIdentifiers":{"MAX_SUPPLY()":"32cb6b0c","admin()":"f851a440","allowance(address,address)":"dd62ed3e","approve(address,uint256)":"095ea7b3","balanceOf(address)":"70a08231","burn(uint256)":"42966c68","burnFrom(address,uint256)":"79cc6790","decimals()":"313ce567","mint(address,uint256)":"40c10f19","minter()":"07546172","name()":"06fdde03","pause()":"8456cb59","paused()":"5c975abb","setAdmin(address)":"704b6c02","setMinter(address)":"fca3b5aa","symbol()":"95d89b41","totalSupply()":"18160ddd","transfer(address,uint256)":"a9059cbb","transferFrom(address,address,uint256)":"23b872dd","unpause()":"3f4ba83a"},"id":76}