{"abi":[{"type":"function","name":"FIELD_MODULUS","inputs":[],"outputs":[{"name":"","type":"uint256","internalType":"uint256"}],"stateMutability":"view"},{"type":"function","name":"MAX_CONSTRAINT_DEGREE","inputs":[],"outputs":[{"name":"","type":"uint256","internalType":"uint256"}],"stateMutability":"view"},{"type":"function","name":"MIN_TRACE_LENGTH","inputs":[],"outputs":[{"name":"","type":"uint256","internalType":"uint256"}],"stateMutability":"view"},{"type":"function","name":"computeBoundaryZerofier","inputs":[{"name":"x","type":"uint256","internalType":"uint256"},{"name":"omega","type":"uint256","internalType":"uint256"},{"name":"boundaryIndex","type":"uint256","internalType":"uint256"}],"outputs":[{"name":"zerofier","type":"uint256","internalType":"uint256"}],"stateMutability":"pure"},{"type":"function","name":"computeDomainGenerator","inputs":[{"name":"domainSize","type":"uint256","internalType":"uint256"}],"outputs":[{"name":"omega","type":"uint256","internalType":"uint256"}],"stateMutability":"pure"},{"type":"function","name":"computeTransitionZerofier","inputs":[{"name":"x","type":"uint256","internalType":"uint256"},{"name":"omega","type":"uint256","internalType":"uint256"},{"name":"traceLength","type":"uint256","internalType":"uint256"}],"outputs":[{"name":"zerofier","type":"uint256","internalType":"uint256"}],"stateMutability":"pure"},{"type":"function","name":"evaluateAllTransitionConstraints","inputs":[{"name":"trace","type":"uint256[]","internalType":"uint256[]"}],"outputs":[{"name":"valid","type":"bool","internalType":"bool"}],"stateMutability":"pure"},{"type":"function","name":"evaluateDoublingConstraint","inputs":[{"name":"current","type":"uint256","internalType":"uint256"},{"name":"next","type":"uint256","internalType":"uint256"}],"outputs":[{"name":"constraintValue","type":"uint256","internalType":"uint256"}],"stateMutability":"pure"},{"type":"function","name":"evaluateFibonacciConstraint","inputs":[{"name":"current","type":"uint256","internalType":"uint256"},{"name":"next1","type":"uint256","internalType":"uint256"},{"name":"next2","type":"uint256","internalType":"uint256"}],"outputs":[{"name":"constraintValue","type":"uint256","internalType":"uint256"}],"stateMutability":"pure"},{"type":"function","name":"evaluatePolynomialConstraint","inputs":[{"name":"current","type":"uint256","internalType":"uint256"},{"name":"next","type":"uint256","internalType":"uint256"}],"outputs":[{"name":"valid","type":"bool","internalType":"bool"}],"stateMutability":"pure"},{"type":"function","name":"getVersion","inputs":[],"outputs":[{"name":"name","type":"string","internalType":"string"},{"name":"version","type":"string","internalType":"string"}],"stateMutability":"pure"},{"type":"function","name":"maxConstraintDegree","inputs":[],"outputs":[{"name":"","type":"uint256","internalType":"uint256"}],"stateMutability":"pure"},{"type":"function","name":"verifyAIR","inputs":[{"name":"trace","type":"uint256[]","internalType":"uint256[]"},{"name":"config","type":"tuple","internalType":"struct AIRConstraints.AIRConfig","components":[{"name":"traceLength","type":"uint256","internalType":"uint256"},{"name":"numBoundaryConstraints","type":"uint256","internalType":"uint256"},{"name":"numTransitionConstraints","type":"uint256","internalType":"uint256"},{"name":"blowupFactor","type":"uint256","internalType":"uint256"}]},{"name":"boundaryConstraints","type":"tuple[]","internalType":"struct AIRConstraints.BoundaryConstraint[]","components":[{"name":"index","type":"uint256","internalType":"uint256"},{"name":"expectedValue","type":"uint256","internalType":"uint256"}]}],"outputs":[{"name":"valid","type":"bool","internalType":"bool"}],"stateMutability":"pure"},{"type":"function","name":"verifyBoundaryConstraint","inputs":[{"name":"actualValue","type":"uint256","internalType":"uint256"},{"name":"expectedValue","type":"uint256","internalType":"uint256"},{"name":"index","type":"uint256","internalType":"uint256"}],"outputs":[{"name":"valid","type":"bool","internalType":"bool"}],"stateMutability":"pure"},{"type":"function","name":"verifyBoundaryConstraints","inputs":[{"name":"trace","type":"uint256[]","internalType":"uint256[]"},{"name":"constraints","type":"tuple[]","internalType":"struct AIRConstraints.BoundaryConstraint[]","components":[{"name":"index","type":"uint256","internalType":"uint256"},{"name":"expectedValue","type":"uint256","internalType":"uint256"}]}],"outputs":[{"name":"valid","type":"bool","internalType":"bool"}],"stateMutability":"pure"},{"type":"event","name":"AIRVerified","inputs":[{"name":"traceLength","type":"uint256","indexed":false,"internalType":"uint256"},{"name":"valid","type":"bool","indexed":false,"internalType":"bool"}],"anonymous":false},{"type":"event","name":"BoundaryConstraintChecked","inputs":[{"name":"index","type":"uint256","indexed":true,"internalType":"uint256"},{"name":"value","type":"uint256","indexed":false,"internalType":"uint256"},{"name":"valid","type":"bool","indexed":false,"internalType":"bool"}],"anonymous":false},{"type":"error","name":"ConstraintIndexOutOfBounds","inputs":[]},{"type":"error","name":"ConstraintVerificationFailed","inputs":[]},{"type":"error","name":"FieldOverflow","inputs":[]},{"type":"error","name":"InvalidTraceLength","inputs":[]}],"bytecode":{"object":"0x608060405234801561001057600080fd5b50610dff806100206000396000f3fe608060405234801561001057600080fd5b50600436106100f55760003560e01c806361d0977c1161009757806389a0a1e21161006657806389a0a1e214610216578063a660bccc14610229578063ab5f0eeb1461023c578063b8e9fdc31461024f57600080fd5b806361d0977c146101d55780636fe060c9146101e8578063724fc7aa146101fb57806382e764301461020357600080fd5b80631ae3e33b116100d35780631ae3e33b1461018d578063245f7704146101a057806326063da8146101b35780634f76a98e146101c657600080fd5b8063051208e7146100fa5780630d8e6e2c146101225780630da20ca814610177575b600080fd5b61010d61010836600461095f565b610256565b60405190151581526020015b60405180910390f35b610169604080518082018252600e81526d414952436f6e73747261696e747360901b602080830191909152825180840190935260058352640302e312e360dc1b9083015291565b6040516101199291906109c7565b61017f600281565b604051908152602001610119565b61017f61019b3660046109f5565b6102d2565b61017f6101ae3660046109f5565b6103f1565b61010d6101c1366004610bc2565b61047c565b61017f67ffffffff0000000181565b61010d6101e33660046109f5565b61054b565b61010d6101f6366004610c26565b61057e565b61017f600881565b61017f61021136600461095f565b6105db565b61010d610224366004610cd2565b610660565b61017f6102373660046109f5565b610715565b61017f61024a366004610d07565b610791565b600861017f565b600061026a67ffffffff0000000184610d36565b925061027e67ffffffff0000000183610d36565b9150600067ffffffff000000016002850990508083036102a25760019150506102cc565b600067ffffffff000000016001860890508084036102c5576001925050506102cc565b6000925050505b92915050565b60006102e667ffffffff0000000185610d36565b93506102fa67ffffffff0000000184610d36565b92506000610311858467ffffffff00000001610880565b905060006001821061032f57610328600183610d60565b9050610350565b81610343600167ffffffff00000001610d60565b61034d9190610d73565b90505b600061036f86610361600188610d60565b67ffffffff00000001610880565b9050600081881061038b576103848289610d60565b90506103ab565b8761039e8367ffffffff00000001610d60565b6103a89190610d73565b90505b806000036103c05760009450505050506103ea565b60006103d48267ffffffff00000001610903565b905067ffffffff00000001818509955050505050505b9392505050565b600061040567ffffffff0000000185610d36565b935061041967ffffffff0000000184610d36565b92506000610430848467ffffffff00000001610880565b905080851061045e5767ffffffff0000000161044c8287610d60565b6104569190610d36565b9150506103ea565b67ffffffff00000001856104728383610d60565b61044c9190610d73565b600082516000036104a05760405163d4856cff60e01b815260040160405180910390fd5b60005b82518110156105415760008382815181106104c0576104c0610d86565b6020026020010151905084518160000151106104ef5760405163ba8217ff60e01b815260040160405180910390fd5b61051f8582600001518151811061050857610508610d86565b60200260200101518260200151836000015161054b565b61052e576000925050506102cc565b508061053981610d9c565b9150506104a3565b5060019392505050565b600061055f67ffffffff0000000185610d36565b935061057367ffffffff0000000184610d36565b939093149392505050565b600083516000148061059257508251845114155b156105b05760405163d4856cff60e01b815260040160405180910390fd5b6105ba848361047c565b6105c6575060006103ea565b6105cf84610660565b610541575060006103ea565b60006105ef67ffffffff0000000184610d36565b925061060367ffffffff0000000183610d36565b9150600067ffffffff000000016002850990508083106106425767ffffffff000000016106308285610d60565b61063a9190610d36565b9150506102cc565b67ffffffff00000001836106568383610d60565b6106309190610d73565b60006002825110156106855760405163d4856cff60e01b815260040160405180910390fd5b60005b600183516106969190610d60565b81101561070c5760006106e78483815181106106b4576106b4610d86565b6020026020010151858460016106ca9190610d73565b815181106106da576106da610d86565b60200260200101516105db565b905080156106f9575060009392505050565b508061070481610d9c565b915050610688565b50600192915050565b600061072967ffffffff0000000185610d36565b935061073d67ffffffff0000000184610d36565b925061075167ffffffff0000000183610d36565b9150600067ffffffff00000001848608905080831061077d5767ffffffff0000000161044c8285610d60565b67ffffffff00000001836104728383610d60565b60008082116107e75760405162461bcd60e51b815260206004820152601c60248201527f446f6d61696e2073697a65206d75737420626520706f7369746976650000000060448201526064015b60405180910390fd5b6107f2600183610d60565b8216156108415760405162461bcd60e51b815260206004820152601e60248201527f446f6d61696e2073697a65206d75737420626520706f776572206f662032000060448201526064016107de565b6007600083610859600167ffffffff00000001610d60565b6108639190610db5565b9050610878828267ffffffff00000001610880565b949350505050565b6000816000036108a357604051636e51c50560e11b815260040160405180910390fd5b60016108af8386610d36565b94505b8315610878576108c3600285610d36565b6001036108de5782806108d8576108d8610d20565b85820990505b6108e9600285610db5565b935082806108f9576108f9610d20565b85860994506108b2565b60008260000361094a5760405162461bcd60e51b815260206004820152601260248201527143616e6e6f7420696e76657274207a65726f60701b60448201526064016107de565b6103ea83610959600285610d60565b84610880565b6000806040838503121561097257600080fd5b50508035926020909101359150565b6000815180845260005b818110156109a75760208185018101518683018201520161098b565b506000602082860101526020601f19601f83011685010191505092915050565b6040815260006109da6040830185610981565b82810360208401526109ec8185610981565b95945050505050565b600080600060608486031215610a0a57600080fd5b505081359360208301359350604090920135919050565b634e487b7160e01b600052604160045260246000fd5b6040805190810167ffffffffffffffff81118282101715610a5a57610a5a610a21565b60405290565b6040516080810167ffffffffffffffff81118282101715610a5a57610a5a610a21565b604051601f8201601f1916810167ffffffffffffffff81118282101715610aac57610aac610a21565b604052919050565b600067ffffffffffffffff821115610ace57610ace610a21565b5060051b60200190565b600082601f830112610ae957600080fd5b81356020610afe610af983610ab4565b610a83565b82815260059290921b84018101918181019086841115610b1d57600080fd5b8286015b84811015610b385780358352918301918301610b21565b509695505050505050565b600082601f830112610b5457600080fd5b81356020610b64610af983610ab4565b82815260069290921b84018101918181019086841115610b8357600080fd5b8286015b84811015610b385760408189031215610ba05760008081fd5b610ba8610a37565b813581528482013585820152835291830191604001610b87565b60008060408385031215610bd557600080fd5b823567ffffffffffffffff80821115610bed57600080fd5b610bf986838701610ad8565b93506020850135915080821115610c0f57600080fd5b50610c1c85828601610b43565b9150509250929050565b600080600083850360c0811215610c3c57600080fd5b843567ffffffffffffffff80821115610c5457600080fd5b610c6088838901610ad8565b95506080601f1984011215610c7457600080fd5b610c7c610a60565b92506020870135835260408701356020840152606087013560408401526080870135606084015282945060a0870135925080831115610cba57600080fd5b5050610cc886828701610b43565b9150509250925092565b600060208284031215610ce457600080fd5b813567ffffffffffffffff811115610cfb57600080fd5b61087884828501610ad8565b600060208284031215610d1957600080fd5b5035919050565b634e487b7160e01b600052601260045260246000fd5b600082610d4557610d45610d20565b500690565b634e487b7160e01b600052601160045260246000fd5b818103818111156102cc576102cc610d4a565b808201808211156102cc576102cc610d4a565b634e487b7160e01b600052603260045260246000fd5b600060018201610dae57610dae610d4a565b5060010190565b600082610dc457610dc4610d20565b50049056fea2646970667358221220f4278b6c54366d5c7d3b230abaecbe2692a85d3ad6423af79ef7d19c6dc344c164736f6c63430008140033","linkReferences":{}},"methodIdentifiers":{"FIELD_MODULUS()":"4f76a98e","MAX_CONSTRAINT_DEGREE()":"724fc7aa","MIN_TRACE_LENGTH()":"0da20ca8","computeBoundaryZerofier(uint256,uint256,uint256)":"245f7704","computeDomainGenerator(uint256)":"ab5f0eeb","computeTransitionZerofier(uint256,uint256,uint256)":"1ae3e33b","evaluateAllTransitionConstraints(uint256[])":"89a0a1e2","evaluateDoublingConstraint(uint256,uint256)":"82e76430","evaluateFibonacciConstraint(uint256,uint256,uint256)":"a660bccc","evaluatePolynomialConstraint(uint256,uint256)":"051208e7","getVersion()":"0d8e6e2c","maxConstraintDegree()":"b8e9fdc3","verifyAIR(uint256[],(uint256,uint256,uint256,uint256),(uint256,uint256)[])":"6fe060c9","verifyBoundaryConstraint(uint256,uint256,uint256)":"61d0977c","verifyBoundaryConstraints(uint256[],(uint256,uint256)[])":"26063da8"},"id":21}