{"abi":[{"type":"constructor","inputs":[{"name":"admin","type":"address","internalType":"address"}],"stateMutability":"nonpayable"},{"type":"function","name":"ADMIN_ROLE","inputs":[],"outputs":[{"name":"","type":"bytes32","internalType":"bytes32"}],"stateMutability":"view"},{"type":"function","name":"DEFAULT_ADMIN_ROLE","inputs":[],"outputs":[{"name":"","type":"bytes32","internalType":"bytes32"}],"stateMutability":"view"},{"type":"function","name":"MINIMUM_DELEGATED_STAKE","inputs":[],"outputs":[{"name":"","type":"uint256","internalType":"uint256"}],"stateMutability":"view"},{"type":"function","name":"MINIMUM_STAKE","inputs":[],"outputs":[{"name":"","type":"uint256","internalType":"uint256"}],"stateMutability":"view"},{"type":"function","name":"REGISTRY_ROLE","inputs":[],"outputs":[{"name":"","type":"bytes32","internalType":"bytes32"}],"stateMutability":"view"},{"type":"function","name":"SLASHING_ROLE","inputs":[],"outputs":[{"name":"","type":"bytes32","internalType":"bytes32"}],"stateMutability":"view"},{"type":"function","name":"UNBONDING_PERIOD","inputs":[],"outputs":[{"name":"","type":"uint256","internalType":"uint256"}],"stateMutability":"view"},{"type":"function","name":"delegateStake","inputs":[{"name":"sequencer","type":"address","internalType":"address"}],"outputs":[],"stateMutability":"payable"},{"type":"function","name":"getDelegatedStake","inputs":[{"name":"sequencer","type":"address","internalType":"address"}],"outputs":[{"name":"","type":"uint256","internalType":"uint256"}],"stateMutability":"view"},{"type":"function","name":"getDelegation","inputs":[{"name":"delegator","type":"address","internalType":"address"},{"name":"sequencer","type":"address","internalType":"address"}],"outputs":[{"name":"","type":"uint256","internalType":"uint256"}],"stateMutability":"view"},{"type":"function","name":"getDelegators","inputs":[{"name":"sequencer","type":"address","internalType":"address"}],"outputs":[{"name":"","type":"address[]","internalType":"address[]"}],"stateMutability":"view"},{"type":"function","name":"getRoleAdmin","inputs":[{"name":"role","type":"bytes32","internalType":"bytes32"}],"outputs":[{"name":"","type":"bytes32","internalType":"bytes32"}],"stateMutability":"view"},{"type":"function","name":"getStake","inputs":[{"name":"sequencer","type":"address","internalType":"address"}],"outputs":[{"name":"","type":"uint256","internalType":"uint256"}],"stateMutability":"view"},{"type":"function","name":"getTotalStake","inputs":[{"name":"sequencer","type":"address","internalType":"address"}],"outputs":[{"name":"","type":"uint256","internalType":"uint256"}],"stateMutability":"view"},{"type":"function","name":"getUnbondingEntries","inputs":[{"name":"sequencer","type":"address","internalType":"address"}],"outputs":[{"name":"","type":"tuple[]","internalType":"struct ISequencerStaking.UnbondingEntry[]","components":[{"name":"amount","type":"uint256","internalType":"uint256"},{"name":"unlockTime","type":"uint256","internalType":"uint256"}]}],"stateMutability":"view"},{"type":"function","name":"getWithdrawable","inputs":[{"name":"sequencer","type":"address","internalType":"address"}],"outputs":[{"name":"","type":"uint256","internalType":"uint256"}],"stateMutability":"view"},{"type":"function","name":"grantRole","inputs":[{"name":"role","type":"bytes32","internalType":"bytes32"},{"name":"account","type":"address","internalType":"address"}],"outputs":[],"stateMutability":"nonpayable"},{"type":"function","name":"hasRole","inputs":[{"name":"role","type":"bytes32","internalType":"bytes32"},{"name":"account","type":"address","internalType":"address"}],"outputs":[{"name":"","type":"bool","internalType":"bool"}],"stateMutability":"view"},{"type":"function","name":"isEligible","inputs":[{"name":"sequencer","type":"address","internalType":"address"}],"outputs":[{"name":"","type":"bool","internalType":"bool"}],"stateMutability":"view"},{"type":"function","name":"registryContract","inputs":[],"outputs":[{"name":"","type":"address","internalType":"address"}],"stateMutability":"view"},{"type":"function","name":"renounceRole","inputs":[{"name":"role","type":"bytes32","internalType":"bytes32"},{"name":"callerConfirmation","type":"address","internalType":"address"}],"outputs":[],"stateMutability":"nonpayable"},{"type":"function","name":"revokeRole","inputs":[{"name":"role","type":"bytes32","internalType":"bytes32"},{"name":"account","type":"address","internalType":"address"}],"outputs":[],"stateMutability":"nonpayable"},{"type":"function","name":"setRegistryContract","inputs":[{"name":"_registryContract","type":"address","internalType":"address"}],"outputs":[],"stateMutability":"nonpayable"},{"type":"function","name":"setSlashingContract","inputs":[{"name":"_slashingContract","type":"address","internalType":"address"}],"outputs":[],"stateMutability":"nonpayable"},{"type":"function","name":"slash","inputs":[{"name":"sequencer","type":"address","internalType":"address"},{"name":"amount","type":"uint256","internalType":"uint256"}],"outputs":[],"stateMutability":"nonpayable"},{"type":"function","name":"slashingContract","inputs":[],"outputs":[{"name":"","type":"address","internalType":"address"}],"stateMutability":"view"},{"type":"function","name":"stake","inputs":[],"outputs":[],"stateMutability":"payable"},{"type":"function","name":"stakeFor","inputs":[{"name":"sequencer","type":"address","internalType":"address"}],"outputs":[],"stateMutability":"payable"},{"type":"function","name":"supportsInterface","inputs":[{"name":"interfaceId","type":"bytes4","internalType":"bytes4"}],"outputs":[{"name":"","type":"bool","internalType":"bool"}],"stateMutability":"view"},{"type":"function","name":"undelegateStake","inputs":[{"name":"sequencer","type":"address","internalType":"address"},{"name":"amount","type":"uint256","internalType":"uint256"}],"outputs":[],"stateMutability":"nonpayable"},{"type":"function","name":"unstake","inputs":[{"name":"amount","type":"uint256","internalType":"uint256"}],"outputs":[],"stateMutability":"nonpayable"},{"type":"function","name":"unstakeFor","inputs":[{"name":"sequencer","type":"address","internalType":"address"},{"name":"amount","type":"uint256","internalType":"uint256"}],"outputs":[],"stateMutability":"nonpayable"},{"type":"function","name":"withdraw","inputs":[],"outputs":[],"stateMutability":"nonpayable"},{"type":"function","name":"withdrawDelegation","inputs":[{"name":"sequencer","type":"address","internalType":"address"}],"outputs":[],"stateMutability":"nonpayable"},{"type":"event","name":"DelegateStaked","inputs":[{"name":"delegator","type":"address","indexed":true,"internalType":"address"},{"name":"sequencer","type":"address","indexed":true,"internalType":"address"},{"name":"amount","type":"uint256","indexed":false,"internalType":"uint256"}],"anonymous":false},{"type":"event","name":"DelegateUnstaked","inputs":[{"name":"delegator","type":"address","indexed":true,"internalType":"address"},{"name":"sequencer","type":"address","indexed":true,"internalType":"address"},{"name":"amount","type":"uint256","indexed":false,"internalType":"uint256"},{"name":"unlockTime","type":"uint256","indexed":false,"internalType":"uint256"}],"anonymous":false},{"type":"event","name":"DelegateWithdrawn","inputs":[{"name":"delegator","type":"address","indexed":true,"internalType":"address"},{"name":"sequencer","type":"address","indexed":true,"internalType":"address"},{"name":"amount","type":"uint256","indexed":false,"internalType":"uint256"}],"anonymous":false},{"type":"event","name":"RoleAdminChanged","inputs":[{"name":"role","type":"bytes32","indexed":true,"internalType":"bytes32"},{"name":"previousAdminRole","type":"bytes32","indexed":true,"internalType":"bytes32"},{"name":"newAdminRole","type":"bytes32","indexed":true,"internalType":"bytes32"}],"anonymous":false},{"type":"event","name":"RoleGranted","inputs":[{"name":"role","type":"bytes32","indexed":true,"internalType":"bytes32"},{"name":"account","type":"address","indexed":true,"internalType":"address"},{"name":"sender","type":"address","indexed":true,"internalType":"address"}],"anonymous":false},{"type":"event","name":"RoleRevoked","inputs":[{"name":"role","type":"bytes32","indexed":true,"internalType":"bytes32"},{"name":"account","type":"address","indexed":true,"internalType":"address"},{"name":"sender","type":"address","indexed":true,"internalType":"address"}],"anonymous":false},{"type":"event","name":"SlashingContractSet","inputs":[{"name":"slashingContract","type":"address","indexed":true,"internalType":"address"}],"anonymous":false},{"type":"event","name":"StakeSlashed","inputs":[{"name":"sequencer","type":"address","indexed":true,"internalType":"address"},{"name":"amount","type":"uint256","indexed":false,"internalType":"uint256"}],"anonymous":false},{"type":"event","name":"Staked","inputs":[{"name":"sequencer","type":"address","indexed":true,"internalType":"address"},{"name":"amount","type":"uint256","indexed":false,"internalType":"uint256"}],"anonymous":false},{"type":"event","name":"Unstaked","inputs":[{"name":"sequencer","type":"address","indexed":true,"internalType":"address"},{"name":"amount","type":"uint256","indexed":false,"internalType":"uint256"},{"name":"unlockTime","type":"uint256","indexed":false,"internalType":"uint256"}],"anonymous":false},{"type":"event","name":"Withdrawn","inputs":[{"name":"sequencer","type":"address","indexed":true,"internalType":"address"},{"name":"amount","type":"uint256","indexed":false,"internalType":"uint256"}],"anonymous":false},{"type":"error","name":"AccessControlBadConfirmation","inputs":[]},{"type":"error","name":"AccessControlUnauthorizedAccount","inputs":[{"name":"account","type":"address","internalType":"address"},{"name":"neededRole","type":"bytes32","internalType":"bytes32"}]},{"type":"error","name":"ReentrancyGuardReentrantCall","inputs":[]}],"bytecode":{"object":"0x608060405234801562000010575f80fd5b5060405162001efb38038062001efb833981016040819052620000339162000144565b60017f9b779b17422d0df92223018b32b4d1fa46e071723d6817e2486d003becc55f0055620000635f8262000098565b50620000907fa49807205ce4d355092ef5a8a18f56e8913cf4a201fbe287825b095693c217758262000098565b505062000173565b5f828152602081815260408083206001600160a01b038516845290915281205460ff166200013b575f838152602081815260408083206001600160a01b03861684529091529020805460ff19166001179055620000f23390565b6001600160a01b0316826001600160a01b0316847f2f8788117e7eff1d82e926ec794901d17c78024a50270940304540a733656f0d60405160405180910390a45060016200013e565b505f5b92915050565b5f6020828403121562000155575f80fd5b81516001600160a01b03811681146200016c575f80fd5b9392505050565b611d7a80620001815f395ff3fe6080604052600436106101f1575f3560e01c806342f1e8791161010857806391d148541161009d578063c9fec4281161006d578063c9fec4281461064f578063cab3a5811461066c578063d547741f1461068b578063d9a912ec146106aa578063f094cc39146106c0575f80fd5b806391d14854146105cb5780639e17977a146105ea578063a217fddf14610609578063afe5d92e1461061c575f80fd5b806375b238fc116100d857806375b238fc146105115780637a766460146105445780637c47c16d146105785780638ac02037146105ac575f80fd5b806342f1e8791461045e5780634bf692061461049157806366e305fd146104a457806368e76346146104e5575f80fd5b8063252ab7e01161018957806332cc6ae61161015957806332cc6ae6146103e557806336568abe1461040457806336ef088c146104235780633a4b66f1146104425780633ccfd60b1461044a575f80fd5b8063252ab7e01461035c57806328c1f99b146103885780632e17de78146103a75780632f2ff15d146103c6575f80fd5b80630c505e51116101c45780630c505e511461029457806315049a5a146102cb5780631e7ff8f61461030f578063248a9ca31461032e575f80fd5b806301ffc9a7146101f5578063028ebc441461022957806302fb4d851461024a57806308dbbb0314610269575b5f80fd5b348015610200575f80fd5b5061021461020f366004611af8565b6106d3565b60405190151581526020015b60405180910390f35b348015610234575f80fd5b50610248610243366004611b41565b610709565b005b348015610255575f80fd5b50610248610264366004611b5a565b6107ca565b348015610274575f80fd5b506102866969e10de76676d080000081565b604051908152602001610220565b34801561029f575f80fd5b506008546102b3906001600160a01b031681565b6040516001600160a01b039091168152602001610220565b3480156102d6575f80fd5b506102866102e5366004611b82565b6001600160a01b039182165f90815260036020908152604080832093909416825291909152205490565b34801561031a575f80fd5b50610286610329366004611b41565b6108b1565b348015610339575f80fd5b50610286610348366004611bb3565b5f9081526020819052604090206001015490565b348015610367575f80fd5b5061037b610376366004611b41565b6108de565b6040516102209190611bca565b348015610393575f80fd5b506009546102b3906001600160a01b031681565b3480156103b2575f80fd5b506102486103c1366004611bb3565b610963565b3480156103d1575f80fd5b506102486103e0366004611c18565b610ab0565b3480156103f0575f80fd5b506102866103ff366004611b41565b610ada565b34801561040f575f80fd5b5061024861041e366004611c18565b610b93565b34801561042e575f80fd5b5061024861043d366004611b5a565b610bc6565b610248610d5a565b348015610455575f80fd5b50610248610e0e565b348015610469575f80fd5b506102867fc2979137d1774e40fe2638d355bf7a7b092be4c67f242aad1655e1e27f9df9cc81565b61024861049f366004611b41565b610f3b565b3480156104af575f80fd5b506102146104be366004611b41565b6001600160a01b03165f908152600160205260409020546969e10de76676d0800000111590565b3480156104f0575f80fd5b506105046104ff366004611b41565b611049565b6040516102209190611c39565b34801561051c575f80fd5b506102867fa49807205ce4d355092ef5a8a18f56e8913cf4a201fbe287825b095693c2177581565b34801561054f575f80fd5b5061028661055e366004611b41565b6001600160a01b03165f9081526001602052604090205490565b348015610583575f80fd5b50610286610592366004611b41565b6001600160a01b03165f9081526005602052604090205490565b3480156105b7575f80fd5b506102486105c6366004611b5a565b6110bc565b3480156105d6575f80fd5b506102146105e5366004611c18565b611271565b3480156105f5575f80fd5b50610248610604366004611b41565b611299565b348015610614575f80fd5b506102865f81565b348015610627575f80fd5b506102867fb801263e329db3167d0035f91876337d707144b20be6439dae64af0ca4d28a5f81565b34801561065a575f80fd5b50610286690a968163f0a57b40000081565b348015610677575f80fd5b50610248610686366004611b41565b6113d2565b348015610696575f80fd5b506102486106a5366004611c18565b6114c1565b3480156106b5575f80fd5b5061028662093a8081565b6102486106ce366004611b41565b6114e5565b5f6001600160e01b03198216637965db0b60e01b148061070357506301ffc9a760e01b6001600160e01b03198316145b92915050565b7fa49807205ce4d355092ef5a8a18f56e8913cf4a201fbe287825b095693c2177561073381611726565b6001600160a01b0382166107805760405162461bcd60e51b815260206004820152600f60248201526e496e76616c6964206164647265737360881b60448201526064015b60405180910390fd5b600980546001600160a01b0319166001600160a01b0384161790556107c57fc2979137d1774e40fe2638d355bf7a7b092be4c67f242aad1655e1e27f9df9cc83611730565b505050565b7fb801263e329db3167d0035f91876337d707144b20be6439dae64af0ca4d28a5f6107f481611726565b5f82116108135760405162461bcd60e51b815260040161077790611c85565b6001600160a01b0383165f9081526001602052604081205490818411610839578361083b565b815b6001600160a01b0386165f90815260016020526040812080549293508392909190610867908490611cbe565b90915550506040518181526001600160a01b038616907f83f5ea8bea7627d95274e94dd7e9e3d7e82cb55feab513ed49e325232dcc61e09060200160405180910390a25050505050565b6001600160a01b0381165f9081526005602090815260408083205460019092528220546107039190611cd1565b6001600160a01b0381165f908152600260209081526040808320805482518185028101850190935280835260609492939192909184015b82821015610958578382905f5260205f2090600202016040518060400160405290815f820154815260200160018201548152505081526020019060010190610915565b505050509050919050565b61096b6117bf565b5f811161098a5760405162461bcd60e51b815260040161077790611c85565b335f908152600160205260409020548111156109dd5760405162461bcd60e51b8152602060048201526012602482015271496e73756666696369656e74207374616b6560701b6044820152606401610777565b335f90815260016020526040812080548392906109fb908490611cbe565b909155505f9050610a0f62093a8042611cd1565b335f8181526002602081815260408084208151808301835289815280840188815282546001818101855593885294909620905193909402909301918255925191015551919250907f7fc4727e062e336010f2c282598ef5f14facb3de68cf8195c2f23e1454b2b74e90610a8e9085908590918252602082015260400190565b60405180910390a250610aad60015f80516020611d2583398151915255565b50565b5f82815260208190526040902060010154610aca81611726565b610ad48383611730565b50505050565b6001600160a01b0381165f9081526002602052604081208190815b8154811015610b8a5742828281548110610b1157610b11611ce4565b905f5260205f2090600202016001015411158015610b4e57505f828281548110610b3d57610b3d611ce4565b905f5260205f2090600202015f0154115b15610b8257818181548110610b6557610b65611ce4565b905f5260205f2090600202015f015483610b7f9190611cd1565b92505b600101610af5565b50909392505050565b6001600160a01b0381163314610bbc5760405163334bd91960e11b815260040160405180910390fd5b6107c582826117da565b610bce6117bf565b7fc2979137d1774e40fe2638d355bf7a7b092be4c67f242aad1655e1e27f9df9cc610bf881611726565b5f8211610c175760405162461bcd60e51b815260040161077790611c85565b6001600160a01b0383165f90815260016020526040902054821115610c735760405162461bcd60e51b8152602060048201526012602482015271496e73756666696369656e74207374616b6560701b6044820152606401610777565b6001600160a01b0383165f9081526001602052604081208054849290610c9a908490611cbe565b909155505f9050610cae62093a8042611cd1565b6001600160a01b0385165f818152600260208181526040808420815180830183528a815280840188815282546001818101855593885294909620905193909402909301918255925191015551919250907f7fc4727e062e336010f2c282598ef5f14facb3de68cf8195c2f23e1454b2b74e90610d369086908590918252602082015260400190565b60405180910390a25050610d5660015f80516020611d2583398151915255565b5050565b610d626117bf565b5f3411610d9e5760405162461bcd60e51b815260206004820152600a6024820152695a65726f207374616b6560b01b6044820152606401610777565b335f9081526001602052604081208054349290610dbc908490611cd1565b909155505060405134815233907f9e71bc8eea02a63969f509818f2dafb9254532904319f9dbda79b67bd34a5f3d9060200160405180910390a2610e0c60015f80516020611d2583398151915255565b565b610e166117bf565b5f610e2033611843565b90505f8111610e675760405162461bcd60e51b81526020600482015260136024820152724e6f7468696e6720746f20776974686472617760681b6044820152606401610777565b6040515f90339083908381818185875af1925050503d805f8114610ea6576040519150601f19603f3d011682016040523d82523d5f602084013e610eab565b606091505b5050905080610eee5760405162461bcd60e51b815260206004820152600f60248201526e151c985b9cd9995c8819985a5b1959608a1b6044820152606401610777565b60405182815233907f7084f5476618d8e60b11ef0d7d3f06914655adb8793e28ff7f018d4c76d505d59060200160405180910390a25050610e0c60015f80516020611d2583398151915255565b610f436117bf565b5f3411610f7f5760405162461bcd60e51b815260206004820152600a6024820152695a65726f207374616b6560b01b6044820152606401610777565b6001600160a01b038116610fc95760405162461bcd60e51b815260206004820152601160248201527024b73b30b634b21039b2b8bab2b731b2b960791b6044820152606401610777565b6001600160a01b0381165f9081526001602052604081208054349290610ff0908490611cd1565b90915550506040513481526001600160a01b038216907f9e71bc8eea02a63969f509818f2dafb9254532904319f9dbda79b67bd34a5f3d9060200160405180910390a2610aad60015f80516020611d2583398151915255565b6001600160a01b0381165f908152600660209081526040918290208054835181840281018401909452808452606093928301828280156110b057602002820191905f5260205f20905b81546001600160a01b03168152600190910190602001808311611092575b50505050509050919050565b6110c46117bf565b5f81116110e35760405162461bcd60e51b815260040161077790611c85565b335f9081526003602090815260408083206001600160a01b03861684529091529020548111156111555760405162461bcd60e51b815260206004820152601760248201527f496e73756666696369656e742064656c65676174696f6e0000000000000000006044820152606401610777565b335f9081526003602090815260408083206001600160a01b038616845290915281208054839290611187908490611cbe565b90915550506001600160a01b0382165f90815260056020526040812080548392906111b3908490611cbe565b909155505f90506111c762093a8042611cd1565b335f8181526004602090815260408083206001600160a01b03891680855290835281842082518084018452898152808501888152825460018082018555938852968690209151600290970290910195865551940193909355805187815291820185905293945090927f2df7b6cde1a6dc9291db0a1f87bfdef620bece2efd5e7e704eb1ab4bdeb7562f910160405180910390a350610d5660015f80516020611d2583398151915255565b5f918252602082815260408084206001600160a01b0393909316845291905290205460ff1690565b6112a16117bf565b5f6112ac338361195d565b90505f81116112f35760405162461bcd60e51b81526020600482015260136024820152724e6f7468696e6720746f20776974686472617760681b6044820152606401610777565b6040515f90339083908381818185875af1925050503d805f8114611332576040519150601f19603f3d011682016040523d82523d5f602084013e611337565b606091505b505090508061137a5760405162461bcd60e51b815260206004820152600f60248201526e151c985b9cd9995c8819985a5b1959608a1b6044820152606401610777565b6040518281526001600160a01b0384169033907fb1296e59c4148d97ce0bf24c50bb4bd58367005c1871eef38c03187f3cff85049060200160405180910390a35050610aad60015f80516020611d2583398151915255565b7fa49807205ce4d355092ef5a8a18f56e8913cf4a201fbe287825b095693c217756113fc81611726565b6001600160a01b0382166114445760405162461bcd60e51b815260206004820152600f60248201526e496e76616c6964206164647265737360881b6044820152606401610777565b600880546001600160a01b0319166001600160a01b0384161790556114897fb801263e329db3167d0035f91876337d707144b20be6439dae64af0ca4d28a5f83611730565b506040516001600160a01b038316907f302ce0ffdea10ad835a78a2a745bb6c53f3d57350156b7cb977f63b8e5174e3c905f90a25050565b5f828152602081905260409020600101546114db81611726565b610ad483836117da565b6114ed6117bf565b690a968163f0a57b4000003410156115475760405162461bcd60e51b815260206004820152601860248201527f42656c6f77206d696e696d756d2064656c65676174696f6e00000000000000006044820152606401610777565b6001600160a01b0381166115915760405162461bcd60e51b815260206004820152601160248201527024b73b30b634b21039b2b8bab2b731b2b960791b6044820152606401610777565b6001600160a01b0381165f908152600160205260409020546115e75760405162461bcd60e51b815260206004820152600f60248201526e2737ba10309039b2b8bab2b731b2b960891b6044820152606401610777565b335f9081526003602090815260408083206001600160a01b038516845290915281208054349290611619908490611cd1565b90915550506001600160a01b0381165f9081526005602052604081208054349290611645908490611cd1565b90915550506001600160a01b0381165f90815260076020908152604080832033845290915290205460ff166116d0576001600160a01b0381165f8181526006602090815260408083208054600181810183559185528385200180546001600160a01b0319163390811790915594845260078352818420948452939091529020805460ff191690911790555b6040513481526001600160a01b0382169033907f5d84fd7efe2fd5203970924007f1f56ec874f1fdbe6acec5f208000a72c704569060200160405180910390a3610aad60015f80516020611d2583398151915255565b610aad8133611a90565b5f61173b8383611271565b6117b8575f838152602081815260408083206001600160a01b03861684529091529020805460ff191660011790556117703390565b6001600160a01b0316826001600160a01b0316847f2f8788117e7eff1d82e926ec794901d17c78024a50270940304540a733656f0d60405160405180910390a4506001610703565b505f610703565b6117c7611ac9565b60025f80516020611d2583398151915255565b5f6117e58383611271565b156117b8575f838152602081815260408083206001600160a01b0386168085529252808320805460ff1916905551339286917ff6391f5c32d9c69d2a47ea670b442974b53935d1edc7fd64eb21e047a839171b9190a4506001610703565b6001600160a01b0381165f9081526002602052604081208190815b8154811015610b8a574282828154811061187a5761187a611ce4565b905f5260205f209060020201600101541161194b578181815481106118a1576118a1611ce4565b905f5260205f2090600202015f0154836118bb9190611cd1565b825490935082906118ce90600190611cbe565b815481106118de576118de611ce4565b905f5260205f2090600202018282815481106118fc576118fc611ce4565b5f91825260209091208254600290920201908155600191820154910155815482908061192a5761192a611cf8565b5f8281526020812060025f199093019283020181815560010155905561185e565b8061195581611d0c565b91505061185e565b6001600160a01b038083165f90815260046020908152604080832093851683529290529081208190815b8154811015611a8657428282815481106119a3576119a3611ce4565b905f5260205f2090600202016001015411611a74578181815481106119ca576119ca611ce4565b905f5260205f2090600202015f0154836119e49190611cd1565b825490935082906119f790600190611cbe565b81548110611a0757611a07611ce4565b905f5260205f209060020201828281548110611a2557611a25611ce4565b5f918252602090912082546002909202019081556001918201549101558154829080611a5357611a53611cf8565b5f8281526020812060025f1990930192830201818155600101559055611987565b80611a7e81611d0c565b915050611987565b5090949350505050565b611a9a8282611271565b610d565760405163e2517d3f60e01b81526001600160a01b038216600482015260248101839052604401610777565b5f80516020611d2583398151915254600203610e0c57604051633ee5aeb560e01b815260040160405180910390fd5b5f60208284031215611b08575f80fd5b81356001600160e01b031981168114611b1f575f80fd5b9392505050565b80356001600160a01b0381168114611b3c575f80fd5b919050565b5f60208284031215611b51575f80fd5b611b1f82611b26565b5f8060408385031215611b6b575f80fd5b611b7483611b26565b946020939093013593505050565b5f8060408385031215611b93575f80fd5b611b9c83611b26565b9150611baa60208401611b26565b90509250929050565b5f60208284031215611bc3575f80fd5b5035919050565b602080825282518282018190525f919060409081850190868401855b82811015611c0b57815180518552860151868501529284019290850190600101611be6565b5091979650505050505050565b5f8060408385031215611c29575f80fd5b82359150611baa60208401611b26565b602080825282518282018190525f9190848201906040850190845b81811015611c795783516001600160a01b031683529284019291840191600101611c54565b50909695505050505050565b6020808252600b908201526a16995c9bc8185b5bdd5b9d60aa1b604082015260600190565b634e487b7160e01b5f52601160045260245ffd5b8181038181111561070357610703611caa565b8082018082111561070357610703611caa565b634e487b7160e01b5f52603260045260245ffd5b634e487b7160e01b5f52603160045260245ffd5b5f60018201611d1d57611d1d611caa565b506001019056fe9b779b17422d0df92223018b32b4d1fa46e071723d6817e2486d003becc55f00a26469706673582212203770859368118bf59db1bbbea63463fe25fc8342e7ed8c2ef34d5549ca7d101364736f6c63430008180033","linkReferences":{}},"methodIdentifiers":{"ADMIN_ROLE()":"75b238fc","DEFAULT_ADMIN_ROLE()":"a217fddf","MINIMUM_DELEGATED_STAKE()":"c9fec428","MINIMUM_STAKE()":"08dbbb03","REGISTRY_ROLE()":"42f1e879","SLASHING_ROLE()":"afe5d92e","UNBONDING_PERIOD()":"d9a912ec","delegateStake(address)":"f094cc39","getDelegatedStake(address)":"7c47c16d","getDelegation(address,address)":"15049a5a","getDelegators(address)":"68e76346","getRoleAdmin(bytes32)":"248a9ca3","getStake(address)":"7a766460","getTotalStake(address)":"1e7ff8f6","getUnbondingEntries(address)":"252ab7e0","getWithdrawable(address)":"32cc6ae6","grantRole(bytes32,address)":"2f2ff15d","hasRole(bytes32,address)":"91d14854","isEligible(address)":"66e305fd","registryContract()":"28c1f99b","renounceRole(bytes32,address)":"36568abe","revokeRole(bytes32,address)":"d547741f","setRegistryContract(address)":"028ebc44","setSlashingContract(address)":"cab3a581","slash(address,uint256)":"02fb4d85","slashingContract()":"0c505e51","stake()":"3a4b66f1","stakeFor(address)":"4bf69206","supportsInterface(bytes4)":"01ffc9a7","undelegateStake(address,uint256)":"8ac02037","unstake(uint256)":"2e17de78","unstakeFor(address,uint256)":"36ef088c","withdraw()":"3ccfd60b","withdrawDelegation(address)":"9e17977a"},"id":92}