{"abi":[{"type":"constructor","inputs":[{"name":"_registryContract","type":"address","internalType":"address"},{"name":"_stakingContract","type":"address","internalType":"address"},{"name":"admin","type":"address","internalType":"address"}],"stateMutability":"nonpayable"},{"type":"function","name":"ADMIN_ROLE","inputs":[],"outputs":[{"name":"","type":"bytes32","internalType":"bytes32"}],"stateMutability":"view"},{"type":"function","name":"DEFAULT_ADMIN_ROLE","inputs":[],"outputs":[{"name":"","type":"bytes32","internalType":"bytes32"}],"stateMutability":"view"},{"type":"function","name":"EPOCH_LENGTH","inputs":[],"outputs":[{"name":"","type":"uint256","internalType":"uint256"}],"stateMutability":"view"},{"type":"function","name":"HEALTH_ROLE","inputs":[],"outputs":[{"name":"","type":"bytes32","internalType":"bytes32"}],"stateMutability":"view"},{"type":"function","name":"checkAndRotate","inputs":[],"outputs":[],"stateMutability":"nonpayable"},{"type":"function","name":"currentEpoch","inputs":[],"outputs":[{"name":"","type":"uint256","internalType":"uint256"}],"stateMutability":"view"},{"type":"function","name":"currentSequencer","inputs":[],"outputs":[{"name":"","type":"address","internalType":"address"}],"stateMutability":"view"},{"type":"function","name":"currentSequencerIndex","inputs":[],"outputs":[{"name":"","type":"uint256","internalType":"uint256"}],"stateMutability":"view"},{"type":"function","name":"epochSequencer","inputs":[{"name":"","type":"uint256","internalType":"uint256"}],"outputs":[{"name":"","type":"address","internalType":"address"}],"stateMutability":"view"},{"type":"function","name":"epochStartBlock","inputs":[],"outputs":[{"name":"","type":"uint256","internalType":"uint256"}],"stateMutability":"view"},{"type":"function","name":"forceRotation","inputs":[],"outputs":[],"stateMutability":"nonpayable"},{"type":"function","name":"forceRotationTo","inputs":[{"name":"sequencer","type":"address","internalType":"address"}],"outputs":[],"stateMutability":"nonpayable"},{"type":"function","name":"getBlocksUntilRotation","inputs":[],"outputs":[{"name":"","type":"uint256","internalType":"uint256"}],"stateMutability":"view"},{"type":"function","name":"getCurrentEpoch","inputs":[],"outputs":[{"name":"","type":"uint256","internalType":"uint256"}],"stateMutability":"view"},{"type":"function","name":"getCurrentSequencer","inputs":[],"outputs":[{"name":"","type":"address","internalType":"address"}],"stateMutability":"view"},{"type":"function","name":"getNextSequencer","inputs":[],"outputs":[{"name":"","type":"address","internalType":"address"}],"stateMutability":"view"},{"type":"function","name":"getRoleAdmin","inputs":[{"name":"role","type":"bytes32","internalType":"bytes32"}],"outputs":[{"name":"","type":"bytes32","internalType":"bytes32"}],"stateMutability":"view"},{"type":"function","name":"getSequencerForEpoch","inputs":[{"name":"epoch","type":"uint256","internalType":"uint256"}],"outputs":[{"name":"","type":"address","internalType":"address"}],"stateMutability":"view"},{"type":"function","name":"grantRole","inputs":[{"name":"role","type":"bytes32","internalType":"bytes32"},{"name":"account","type":"address","internalType":"address"}],"outputs":[],"stateMutability":"nonpayable"},{"type":"function","name":"hasRole","inputs":[{"name":"role","type":"bytes32","internalType":"bytes32"},{"name":"account","type":"address","internalType":"address"}],"outputs":[{"name":"","type":"bool","internalType":"bool"}],"stateMutability":"view"},{"type":"function","name":"isRotationDue","inputs":[],"outputs":[{"name":"","type":"bool","internalType":"bool"}],"stateMutability":"view"},{"type":"function","name":"registryContract","inputs":[],"outputs":[{"name":"","type":"address","internalType":"contract ISequencerRegistry"}],"stateMutability":"view"},{"type":"function","name":"renounceRole","inputs":[{"name":"role","type":"bytes32","internalType":"bytes32"},{"name":"callerConfirmation","type":"address","internalType":"address"}],"outputs":[],"stateMutability":"nonpayable"},{"type":"function","name":"revokeRole","inputs":[{"name":"role","type":"bytes32","internalType":"bytes32"},{"name":"account","type":"address","internalType":"address"}],"outputs":[],"stateMutability":"nonpayable"},{"type":"function","name":"setHealthContract","inputs":[{"name":"health","type":"address","internalType":"address"}],"outputs":[],"stateMutability":"nonpayable"},{"type":"function","name":"setRegistry","inputs":[{"name":"registry","type":"address","internalType":"address"}],"outputs":[],"stateMutability":"nonpayable"},{"type":"function","name":"setStaking","inputs":[{"name":"staking","type":"address","internalType":"address"}],"outputs":[],"stateMutability":"nonpayable"},{"type":"function","name":"stakingContract","inputs":[],"outputs":[{"name":"","type":"address","internalType":"contract ISequencerStaking"}],"stateMutability":"view"},{"type":"function","name":"supportsInterface","inputs":[{"name":"interfaceId","type":"bytes4","internalType":"bytes4"}],"outputs":[{"name":"","type":"bool","internalType":"bool"}],"stateMutability":"view"},{"type":"event","name":"EpochAdvanced","inputs":[{"name":"oldEpoch","type":"uint256","indexed":false,"internalType":"uint256"},{"name":"newEpoch","type":"uint256","indexed":false,"internalType":"uint256"}],"anonymous":false},{"type":"event","name":"ForceRotation","inputs":[{"name":"triggeredBy","type":"address","indexed":true,"internalType":"address"},{"name":"newSequencer","type":"address","indexed":true,"internalType":"address"}],"anonymous":false},{"type":"event","name":"RegistrySet","inputs":[{"name":"registry","type":"address","indexed":true,"internalType":"address"}],"anonymous":false},{"type":"event","name":"RoleAdminChanged","inputs":[{"name":"role","type":"bytes32","indexed":true,"internalType":"bytes32"},{"name":"previousAdminRole","type":"bytes32","indexed":true,"internalType":"bytes32"},{"name":"newAdminRole","type":"bytes32","indexed":true,"internalType":"bytes32"}],"anonymous":false},{"type":"event","name":"RoleGranted","inputs":[{"name":"role","type":"bytes32","indexed":true,"internalType":"bytes32"},{"name":"account","type":"address","indexed":true,"internalType":"address"},{"name":"sender","type":"address","indexed":true,"internalType":"address"}],"anonymous":false},{"type":"event","name":"RoleRevoked","inputs":[{"name":"role","type":"bytes32","indexed":true,"internalType":"bytes32"},{"name":"account","type":"address","indexed":true,"internalType":"address"},{"name":"sender","type":"address","indexed":true,"internalType":"address"}],"anonymous":false},{"type":"event","name":"SequencerRotated","inputs":[{"name":"oldSequencer","type":"address","indexed":true,"internalType":"address"},{"name":"newSequencer","type":"address","indexed":true,"internalType":"address"},{"name":"epoch","type":"uint256","indexed":false,"internalType":"uint256"},{"name":"blockNumber","type":"uint256","indexed":false,"internalType":"uint256"}],"anonymous":false},{"type":"event","name":"StakingSet","inputs":[{"name":"staking","type":"address","indexed":true,"internalType":"address"}],"anonymous":false},{"type":"error","name":"AccessControlBadConfirmation","inputs":[]},{"type":"error","name":"AccessControlUnauthorizedAccount","inputs":[{"name":"account","type":"address","internalType":"address"},{"name":"neededRole","type":"bytes32","internalType":"bytes32"}]}],"bytecode":{"object":"0x6080346200014057601f6200146738819003918201601f19168301916001600160401b03831184841017620001445780849260609460405283398101031262000140576200004d8162000158565b620000696040620000616020850162000158565b930162000158565b6001600160a01b039182169290919083156200010857168015620000d157620000b89260018060a01b0319908160015416176001556002541617600255620000b1816200016d565b50620001dd565b505f600355436004556040516111a990816200027e8239f35b60405162461bcd60e51b815260206004820152600f60248201526e496e76616c6964207374616b696e6760881b6044820152606490fd5b60405162461bcd60e51b815260206004820152601060248201526f496e76616c696420726567697374727960801b6044820152606490fd5b5f80fd5b634e487b7160e01b5f52604160045260245ffd5b51906001600160a01b03821682036200014057565b6001600160a01b03165f8181525f8051602062001447833981519152602052604090205460ff16620001d8575f8181525f805160206200144783398151915260205260408120805460ff191660011790553391905f80516020620014278339815191528180a4600190565b505f90565b6001600160a01b03165f8181527f7d7ffb7a348e1c6a02869081a26547b49160dd3df72d1d75a570eb9b698292ec60205260409020547fa49807205ce4d355092ef5a8a18f56e8913cf4a201fbe287825b095693c21775919060ff166200027757815f525f60205260405f20815f5260205260405f20600160ff1982541617905533915f80516020620014278339815191525f80a4600190565b50505f9056fe6080604090808252600480361015610015575f80fd5b5f3560e01c91826301ffc9a7146109af575081632000bef71461072e578163209b6c4114610338578163248a9ca31461070557816328c1f99b146106dd5781632f2ff15d146106b55781633116a2661461067857816336568abe1461063457816337d0210f146105f05781633ed55b7b146105d457816350453d9b1461059457816375b238fc1461055a5781637667180814610254578163775f4d691461053257816378b653701461043557816384939032146104175781638ff39099146103aa57816391d148541461036757816395cb1cab14610338578163a217fddf1461031e578163a46c3d14146102fb578163a91ee0dc1461028e578163ac4746ab14610272578163b97dd9e214610254578163c850ddbe14610227578163d547741f146101ec57508063e8129030146101c4578063ee99205c1461019c5763fb36ad041461015f575f80fd5b34610198575f36600319011261019857602090517f2e6d6c5568fae3f1b55c2ab3d6c6ec71efd564a5ac70aa6177d7f21d3e8bd8918152f35b5f80fd5b5034610198575f3660031901126101985760025490516001600160a01b039091168152602090f35b5034610198575f3660031901126101985760065490516001600160a01b039091168152602090f35b82346101985780600319360112610198576102259135610220600161020f610a17565b93835f525f6020525f200154610cd6565b610e18565b005b8234610198575f36600319011261019857602090610243610bcd565b90516001600160a01b039091168152f35b8234610198575f366003190112610198576020906003549051908152f35b8234610198575f36600319011261019857602090516103e88152f35b34610198576020366003190112610198576102a7610a01565b6102af610c5d565b6001600160a01b03166102c3811515610b2f565b600180546001600160a01b031916821790557f27fe5f0c1c3b1ed427cc63d0f05759ffdecf9aec9e18d31ef366fc8a6cb5dc3b5f80a2005b8234610198575f36600319011261019857602090610317610b6d565b9051908152f35b8234610198575f36600319011261019857602090515f8152f35b823461019857602036600319011261019857602091355f526007825260018060a01b03815f2054169051908152f35b8234610198578060031936011261019857602091610383610a17565b90355f525f8352815f209060018060a01b03165f52825260ff815f20541690519015158152f35b34610198576020366003190112610198576103c3610a01565b6103cb610c5d565b6001600160a01b03166103df811515610b2f565b600280546001600160a01b031916821790557ff520447191196b125f76f7110397fdf32b1b9cefb7dec323bd3b998022ac23385f80a2005b8234610198575f366003190112610198576020906005549051908152f35b905034610198575f366003190112610198577fa49807205ce4d355092ef5a8a18f56e8913cf4a201fbe287825b095693c217755f525f602052815f20335f5260205260ff825f20541680156104f5575b156104c2576001600160a01b0361049a610e98565b16337fce3d5d141c08e690ee932f3e6943ae3f749633f0ba1172999515caaff0db8de95f80a3005b6020606492519162461bcd60e51b8352820152600e60248201526d139bdd08185d5d1a1bdc9a5e995960921b6044820152fd5b507f2e6d6c5568fae3f1b55c2ab3d6c6ec71efd564a5ac70aa6177d7f21d3e8bd8915f525f602052815f20335f5260205260ff825f205416610485565b8234610198575f3660031901126101985760065490516001600160a01b039091168152602090f35b8234610198575f36600319011261019857602090517fa49807205ce4d355092ef5a8a18f56e8913cf4a201fbe287825b095693c217758152f35b8234610198575f366003190112610198578154906103e882018092116105c1576020925051904310158152f35b601183634e487b7160e01b5f525260245ffd5b8234610198575f36600319011261019857602091549051908152f35b34610198575f366003190112610198578054906103e88201809211610621575043101561061957005b610225610e98565b601190634e487b7160e01b5f525260245ffd5b823461019857806003193601126101985761064d610a17565b90336001600160a01b0383160361066957506102259135610e18565b5163334bd91960e11b81529050fd5b3461019857602036600319011261019857610225610694610a01565b61069c610c5d565b6106b06001600160a01b0382161515610b2f565b610cf7565b823461019857806003193601126101985761022591356106d8600161020f610a17565b610da2565b8234610198575f3660031901126101985760015490516001600160a01b039091168152602090f35b823461019857602036600319011261019857602091355f525f82526001815f2001549051908152f35b905034610198576020806003193601126101985761074a610a01565b91610753610c5d565b60018054855163c3c5a54760e01b81526001600160a01b0395861681850181905295939184169291908581602481875afa908115610954575f91610992575b501561095e5760248585600254168951928380926366e305fd60e01b82528b878301525afa908115610954575f91610927575b50156108f5575f60065493876bffffffffffffffffffffffff60a01b861617600655885192838092637a75d42160e11b82525afa80156108eb5782915f916108c9575b50905f905b610872575b505050937fdbf07e553f839b283ff1a38e802b154f8e2c8e847f30ccc6049cbf9611ea73f391849560035494835195865243908601521692a3337fce3d5d141c08e690ee932f3e6943ae3f749633f0ba1172999515caaff0db8de95f80a3005b81518110156108c45786856108878385610b07565b5116146108965782018261080d565b60055550829050847fdbf07e553f839b283ff1a38e802b154f8e2c8e847f30ccc6049cbf9611ea73f3610812565b610812565b6108e591503d805f833e6108dd8183610a2d565b810190610a7b565b5f610808565b87513d5f823e3d90fd5b865162461bcd60e51b8152908101859052600c60248201526b4e6f7420656c696769626c6560a01b6044820152606490fd5b6109479150863d881161094d575b61093f8183610a2d565b810190610a63565b5f6107c5565b503d610935565b88513d5f823e3d90fd5b865162461bcd60e51b8152908101859052600e60248201526d139bdd081c9959da5cdd195c995960921b6044820152606490fd5b6109a99150863d881161094d5761093f8183610a2d565b5f610792565b903461019857602036600319011261019857359063ffffffff60e01b821680920361019857602091637965db0b60e01b81149081156109f0575b5015158152f35b6301ffc9a760e01b149050836109e9565b600435906001600160a01b038216820361019857565b602435906001600160a01b038216820361019857565b90601f8019910116810190811067ffffffffffffffff821117610a4f57604052565b634e487b7160e01b5f52604160045260245ffd5b90816020910312610198575180151581036101985790565b90602090818382031261019857825167ffffffffffffffff93848211610198570181601f82011215610198578051938411610a4f578360051b9060405194610ac585840187610a2d565b85528380860192820101928311610198578301905b828210610ae8575050505090565b81516001600160a01b0381168103610198578152908301908301610ada565b8051821015610b1b5760209160051b010190565b634e487b7160e01b5f52603260045260245ffd5b15610b3657565b60405162461bcd60e51b815260206004820152600f60248201526e496e76616c6964206164647265737360881b6044820152606490fd5b6004546103e880820191828111610b945782431015610ba85743900301908111610b945790565b634e487b7160e01b5f52601160045260245ffd5b5050505f90565b8115610bb9570690565b634e487b7160e01b5f52601260045260245ffd5b600154604051637a75d42160e11b81526001600160a01b03915f908290600490829086165afa908115610c52575f91610c38575b50805115610c32576005549060018201809211610b9457610c27610c2d92825190610baf565b90610b07565b511690565b50505f90565b610c4c91503d805f833e6108dd8183610a2d565b5f610c01565b6040513d5f823e3d90fd5b335f9081527f7d7ffb7a348e1c6a02869081a26547b49160dd3df72d1d75a570eb9b698292ec60205260409020547fa49807205ce4d355092ef5a8a18f56e8913cf4a201fbe287825b095693c217759060ff1615610cb85750565b6044906040519063e2517d3f60e01b82523360048301526024820152fd5b805f525f60205260405f20335f5260205260ff60405f20541615610cb85750565b6001600160a01b03165f8181527f18bab404dcfdf66738141a8e7d3ca7c5ecc18f3b78fd8e73f6d69e8fe68cbcdf60205260409020547f2e6d6c5568fae3f1b55c2ab3d6c6ec71efd564a5ac70aa6177d7f21d3e8bd891919060ff16610c3257815f525f60205260405f20815f5260205260405f20600160ff1982541617905533917f2f8788117e7eff1d82e926ec794901d17c78024a50270940304540a733656f0d5f80a4600190565b90815f525f60205260405f209060018060a01b031690815f5260205260ff60405f205416155f14610c3257815f525f60205260405f20815f5260205260405f20600160ff1982541617905533917f2f8788117e7eff1d82e926ec794901d17c78024a50270940304540a733656f0d5f80a4600190565b90815f525f60205260405f209060018060a01b031690815f5260205260ff60405f2054165f14610c3257815f525f60205260405f20815f5260205260405f2060ff19815416905533917ff6391f5c32d9c69d2a47ea670b442974b53935d1edc7fd64eb21e047a839171b5f80a4600190565b5f198114610b945760010190565b6001805460408051637a75d42160e11b81525f936001600160a01b03936004939290869082908690829089165afa908115611169575f9161114f575b508051156111155760058054915f93806001905b611035575b50505050505082600254169281516366e305fd60e01b81528082871695868683015281602460209485935afa90811561102b575f9161100e575b5015610fd457907fdbf07e553f839b283ff1a38e802b154f8e2c8e847f30ccc6049cbf9611ea73f39291600654906bffffffffffffffffffffffff60a01b878184161760065560035496610f7a88610e8a565b90816003554390555f526007825287855f20918254161790557facfa06cebbab8226f9a388bff9f5fcf4569298028d939f4765958dc57dbb330b846003549781519081528884820152a1835195865243908601521692a390565b8360649184519162461bcd60e51b8352820152601560248201527427379032b634b3b4b136329039b2b8bab2b731b2b960591b6044820152fd5b6110259150823d841161094d5761093f8183610a2d565b5f610f27565b84513d5f823e3d90fd5b98909192939498156110f5575b505f9383548281018091116110e2578861106d61106461107593875190610baf565b80885586610b07565b511699610e8a565b948860025416875180916366e305fd60e01b82528c8b83015281602460209485935afa9182156110d8575f926110bb575b50506110b6578291949392610ee8565b610eed565b6110d19250803d1061094d5761093f8183610a2d565b5f806110a6565b89513d5f823e3d90fd5b601188634e487b7160e01b5f525260245ffd5b825189108061110a575b611042579780610eed565b5084845414156110ff565b825162461bcd60e51b815260208186015260146024820152734e6f206163746976652073657175656e6365727360601b6044820152606490fd5b61116391503d805f833e6108dd8183610a2d565b5f610ed4565b83513d5f823e3d90fdfea2646970667358221220780f33912b75f9b5419f7098ee157406fd666fdc91411862a85ebd4b0f696bbd64736f6c634300081800332f8788117e7eff1d82e926ec794901d17c78024a50270940304540a733656f0dad3228b676f7d3cd4284a5443f17f1962b36e491b30a40b2405849e597ba5fb5","linkReferences":{}},"methodIdentifiers":{"ADMIN_ROLE()":"75b238fc","DEFAULT_ADMIN_ROLE()":"a217fddf","EPOCH_LENGTH()":"ac4746ab","HEALTH_ROLE()":"fb36ad04","checkAndRotate()":"37d0210f","currentEpoch()":"76671808","currentSequencer()":"e8129030","currentSequencerIndex()":"84939032","epochSequencer(uint256)":"209b6c41","epochStartBlock()":"3ed55b7b","forceRotation()":"78b65370","forceRotationTo(address)":"2000bef7","getBlocksUntilRotation()":"a46c3d14","getCurrentEpoch()":"b97dd9e2","getCurrentSequencer()":"775f4d69","getNextSequencer()":"c850ddbe","getRoleAdmin(bytes32)":"248a9ca3","getSequencerForEpoch(uint256)":"95cb1cab","grantRole(bytes32,address)":"2f2ff15d","hasRole(bytes32,address)":"91d14854","isRotationDue()":"50453d9b","registryContract()":"28c1f99b","renounceRole(bytes32,address)":"36568abe","revokeRole(bytes32,address)":"d547741f","setHealthContract(address)":"3116a266","setRegistry(address)":"a91ee0dc","setStaking(address)":"8ff39099","stakingContract()":"ee99205c","supportsInterface(bytes4)":"01ffc9a7"},"id":75}