{"abi":[{"type":"constructor","inputs":[{"name":"_sharedMerkle","type":"address","internalType":"address"}],"stateMutability":"nonpayable"},{"type":"function","name":"MAX_BATCH_SIZE","inputs":[],"outputs":[{"name":"","type":"uint256","internalType":"uint256"}],"stateMutability":"view"},{"type":"function","name":"MIN_BATCH_SIZE","inputs":[],"outputs":[{"name":"","type":"uint256","internalType":"uint256"}],"stateMutability":"view"},{"type":"function","name":"estimateBatchGas","inputs":[{"name":"batchSize","type":"uint256","internalType":"uint256"},{"name":"proofDepth","type":"uint256","internalType":"uint256"}],"outputs":[{"name":"estimatedGas","type":"uint256","internalType":"uint256"}],"stateMutability":"pure"},{"type":"function","name":"getSharedMerkleAddress","inputs":[],"outputs":[{"name":"","type":"address","internalType":"address"}],"stateMutability":"view"},{"type":"function","name":"getVersion","inputs":[],"outputs":[{"name":"name","type":"string","internalType":"string"},{"name":"version","type":"string","internalType":"string"}],"stateMutability":"pure"},{"type":"function","name":"isOptimalBatchSize","inputs":[{"name":"batchSize","type":"uint256","internalType":"uint256"}],"outputs":[{"name":"optimal","type":"bool","internalType":"bool"}],"stateMutability":"pure"},{"type":"function","name":"sharedMerkle","inputs":[],"outputs":[{"name":"","type":"address","internalType":"contract SharedMerkle"}],"stateMutability":"view"},{"type":"function","name":"verifyBatch","inputs":[{"name":"leaves","type":"bytes32[]","internalType":"bytes32[]"},{"name":"indices","type":"uint256[]","internalType":"uint256[]"},{"name":"allSiblings","type":"bytes32[][]","internalType":"bytes32[][]"},{"name":"expectedRoot","type":"bytes32","internalType":"bytes32"}],"outputs":[{"name":"validCount","type":"uint256","internalType":"uint256"}],"stateMutability":"view"},{"type":"function","name":"verifyBatchDetailed","inputs":[{"name":"leaves","type":"bytes32[]","internalType":"bytes32[]"},{"name":"indices","type":"uint256[]","internalType":"uint256[]"},{"name":"allSiblings","type":"bytes32[][]","internalType":"bytes32[][]"},{"name":"expectedRoot","type":"bytes32","internalType":"bytes32"}],"outputs":[{"name":"results","type":"bool[]","internalType":"bool[]"}],"stateMutability":"view"},{"type":"function","name":"verifySTARKBatch","inputs":[{"name":"proofs","type":"tuple[]","internalType":"struct ProofCodec.STARKProof[]","components":[{"name":"traceCommitment","type":"bytes32","internalType":"bytes32"},{"name":"constraintCommitment","type":"bytes32","internalType":"bytes32"},{"name":"friCommitments","type":"bytes32[]","internalType":"bytes32[]"},{"name":"friChallenges","type":"uint256[]","internalType":"uint256[]"},{"name":"queryIndices","type":"uint256[]","internalType":"uint256[]"},{"name":"merkleProofs","type":"bytes32[][]","internalType":"bytes32[][]"},{"name":"evaluations","type":"uint256[][]","internalType":"uint256[][]"},{"name":"finalPolynomial","type":"uint256[]","internalType":"uint256[]"}]},{"name":"publicInputs","type":"bytes32[]","internalType":"bytes32[]"}],"outputs":[{"name":"validCount","type":"uint256","internalType":"uint256"}],"stateMutability":"view"},{"type":"event","name":"BatchVerificationComplete","inputs":[{"name":"batchSize","type":"uint256","indexed":true,"internalType":"uint256"},{"name":"validCount","type":"uint256","indexed":false,"internalType":"uint256"},{"name":"gasUsed","type":"uint256","indexed":false,"internalType":"uint256"}],"anonymous":false},{"type":"event","name":"ProofValidated","inputs":[{"name":"index","type":"uint256","indexed":true,"internalType":"uint256"},{"name":"leaf","type":"bytes32","indexed":false,"internalType":"bytes32"},{"name":"valid","type":"bool","indexed":false,"internalType":"bool"}],"anonymous":false},{"type":"error","name":"ArrayLengthMismatch","inputs":[]},{"type":"error","name":"BatchSizeExceedsMax","inputs":[]},{"type":"error","name":"InvalidSharedMerkle","inputs":[]}],"bytecode":{"object":"0x60a03461009257601f610a5238819003918201601f19168301916001600160401b038311848410176100975780849260209460405283398101031261009257516001600160a01b03811690819003610092578015610080576080526040516109a490816100ae82396080518181816102050152818161054a015261074d0152f35b604051637040b13960e01b8152600490fd5b600080fd5b634e487b7160e01b600052604160045260246000fdfe608060408181526004918236101561001657600080fd5b600092833560e01c9182630d8e6e2c146102cf57508163310724f5146101f05781633e2b0f2d1461029557816341502ab5146102345781636936c84f146101f057816380dd2be8146101d4578163a2a1f3021461016d578163ad437cb114610144578163ad85f21f146100b1575063cfdbf2541461009357600080fd5b346100ad57816003193601126100ad576020905160648152f35b5080fd5b8383346100ad57806003193601126100ad57823591602493843593620f4240948581029581870414901517156101325761138885018095116101325784810294818604149015171561012057615208938085018095116101325761791801809411610120576020848451908152f35b634e487b7160e01b8252601190528390fd5b634e487b7160e01b8352601182528583fd5b5050346100ad5760209061016661015a366103c0565b959490949391936104a2565b9051908152f35b9050346101d057816003193601126101d05767ffffffffffffffff9080358281116101cc5761019f903690830161038a565b9290946024359182116101c95750916101c1602095926101669436910161038a565b9290506108c9565b80fd5b8480fd5b8280fd5b5050346100ad57816003193601126100ad576020905160028152f35b5050346100ad57816003193601126100ad57517f00000000000000000000000000000000000000000000000000000000000000006001600160a01b03168152602090f35b5050346100ad57610253610247366103c0565b959490949391936106ec565b815192839260208080860192818752855180945286019401925b82811061027c57505050500390f35b835115158552869550938101939281019260010161026d565b9050346101d05760203660031901126101d057602092503590600282101591826102c3575b50519015158152f35b606410159150386102ba565b8385346101c957806003193601126101c957506102eb8261042a565b600d82526c2130ba31b42b32b934b334b2b960991b602083015261034681516103138161042a565b60058152640302e312e360dc1b6020820152610338835194848695865285019061034a565b90838203602085015261034a565b0390f35b919082519283825260005b848110610376575050826000602080949584010152601f8019910116010190565b602081830181015184830182015201610355565b9181601f840112156103bb5782359167ffffffffffffffff83116103bb576020808501948460051b0101116103bb57565b600080fd5b9060806003198301126103bb5767ffffffffffffffff6004358181116103bb57836103ed9160040161038a565b939093926024358381116103bb57826104089160040161038a565b939093926044359182116103bb576104229160040161038a565b909160643590565b6040810190811067ffffffffffffffff82111761044657604052565b634e487b7160e01b600052604160045260246000fd5b90601f8019910116810190811067ffffffffffffffff82111761044657604052565b81835290916001600160fb1b0383116103bb5760209260051b809284830137010190565b909592949194808714801590610649575b61063d57861561063d576064871161062b5760405163a4ae605560e01b815260806004820152969495929487949261050992916104f59160848801919061047e565b90600319948587840301602488015261047e565b9183830301604484015283825260209485948584019360058783821b83010195846000935b8585106105c157505050506064860193909352505050819003817f00000000000000000000000000000000000000000000000000000000000000006001600160a01b03165afa9081156105b557600091610589575b50905090565b82813d83116105ae575b61059d818361045c565b810103126101c95750518038610583565b503d610593565b6040513d6000823e3d90fd5b92959950929597509295601f198282030184528835601e19843603018112156103bb5783018a810191903567ffffffffffffffff81116103bb5780871b360383136103bb576106158c92839260019561047e565b9a019401950191948a97958a999794959261052e565b60405163da322f0760e01b8152600490fd5b50505050505050600090565b50828714156104b3565b67ffffffffffffffff81116104465760051b60200190565b600019811461067a5760010190565b634e487b7160e01b600052601160045260246000fd5b91908110156106a05760051b0190565b634e487b7160e01b600052603260045260246000fd5b903590601e19813603018212156103bb570180359067ffffffffffffffff82116103bb57602001918160051b360383136103bb57565b929695919390938785148015906108bf575b61088e5760649384861161062b579461071681610653565b946040916107268351978861045c565b808752601f1961073582610653565b019560209636888a0137879b60009260018060a01b037f000000000000000000000000000000000000000000000000000000000000000016935b8181106107855750505050505050505050505050565b8c61079182848f610690565b3561079d83868c610690565b35918310156106a0578a916107f3918d8b898c6107c18960051b98898101906106b6565b92909351978894859463704ef20760e01b8652600498898701526024998a87015260806044870152608486019161047e565b9183015203818c5afa928315610883578f908f600095610843575b5050518510156108305750501515908c018b015261082b9061066b565b61076f565b603290634e487b7160e01b600052526000fd5b9080925081959394953d831161087c575b61085e818361045c565b810103126100ad57519081151582036101c9575091908e388f61080e565b503d610854565b8b513d6000823e3d90fd5b50505050505090506040516020810181811067ffffffffffffffff8211176104465760405260008152600036813790565b50858514156106fe565b9291906000936000928203610967578115610967576064821161062b578291905b8184106108f75750505050565b909192948560051b82013560fe19833603018112156101cc57820180351561095c5760208101351561095c578060406109319201906106b6565b9050156109525761094461094a9161066b565b9561066b565b9291906108ea565b9461094a9061066b565b509461094a9061066b565b509092505056fea2646970667358221220c57cf2bbf623f8550496328b45daa134c7425d156b26e5ddeb1b72fd2584622f64736f6c63430008140033","linkReferences":{}},"methodIdentifiers":{"MAX_BATCH_SIZE()":"cfdbf254","MIN_BATCH_SIZE()":"80dd2be8","estimateBatchGas(uint256,uint256)":"ad85f21f","getSharedMerkleAddress()":"310724f5","getVersion()":"0d8e6e2c","isOptimalBatchSize(uint256)":"3e2b0f2d","sharedMerkle()":"6936c84f","verifyBatch(bytes32[],uint256[],bytes32[][],bytes32)":"ad437cb1","verifyBatchDetailed(bytes32[],uint256[],bytes32[][],bytes32)":"41502ab5","verifySTARKBatch((bytes32,bytes32,bytes32[],uint256[],uint256[],bytes32[][],uint256[][],uint256[])[],bytes32[])":"a2a1f302"},"id":23}