{"abi":[{"type":"function","name":"DEFAULT_TRACE_DEPTH","inputs":[],"outputs":[{"name":"","type":"uint256","internalType":"uint256"}],"stateMutability":"view"},{"type":"function","name":"FIELD_MODULUS","inputs":[],"outputs":[{"name":"","type":"uint256","internalType":"uint256"}],"stateMutability":"view"},{"type":"function","name":"MAX_FRI_LAYERS","inputs":[],"outputs":[{"name":"","type":"uint256","internalType":"uint256"}],"stateMutability":"view"},{"type":"function","name":"MIN_QUERIES","inputs":[],"outputs":[{"name":"","type":"uint256","internalType":"uint256"}],"stateMutability":"view"},{"type":"function","name":"PRIMITIVE_ROOT","inputs":[],"outputs":[{"name":"","type":"uint256","internalType":"uint256"}],"stateMutability":"view"},{"type":"function","name":"SECURITY_LEVEL","inputs":[],"outputs":[{"name":"","type":"uint256","internalType":"uint256"}],"stateMutability":"view"},{"type":"function","name":"computeDomainElement","inputs":[{"name":"index","type":"uint256","internalType":"uint256"},{"name":"domainSize","type":"uint256","internalType":"uint256"}],"outputs":[{"name":"","type":"uint256","internalType":"uint256"}],"stateMutability":"pure"},{"type":"function","name":"computeTraceLeaf","inputs":[{"name":"evaluation","type":"uint256","internalType":"uint256"},{"name":"index","type":"uint256","internalType":"uint256"}],"outputs":[{"name":"leaf","type":"bytes32","internalType":"bytes32"}],"stateMutability":"pure"},{"type":"function","name":"computeTraceRoot","inputs":[{"name":"evaluations","type":"uint256[]","internalType":"uint256[]"}],"outputs":[{"name":"root","type":"bytes32","internalType":"bytes32"}],"stateMutability":"pure"},{"type":"function","name":"fieldAdd","inputs":[{"name":"a","type":"uint256","internalType":"uint256"},{"name":"b","type":"uint256","internalType":"uint256"}],"outputs":[{"name":"","type":"uint256","internalType":"uint256"}],"stateMutability":"pure"},{"type":"function","name":"fieldExp","inputs":[{"name":"base","type":"uint256","internalType":"uint256"},{"name":"exp","type":"uint256","internalType":"uint256"}],"outputs":[{"name":"","type":"uint256","internalType":"uint256"}],"stateMutability":"pure"},{"type":"function","name":"fieldInverse","inputs":[{"name":"a","type":"uint256","internalType":"uint256"}],"outputs":[{"name":"","type":"uint256","internalType":"uint256"}],"stateMutability":"pure"},{"type":"function","name":"fieldMul","inputs":[{"name":"a","type":"uint256","internalType":"uint256"},{"name":"b","type":"uint256","internalType":"uint256"}],"outputs":[{"name":"","type":"uint256","internalType":"uint256"}],"stateMutability":"pure"},{"type":"function","name":"getVersion","inputs":[],"outputs":[{"name":"name","type":"string","internalType":"string"},{"name":"version","type":"string","internalType":"string"}],"stateMutability":"pure"},{"type":"function","name":"hashData","inputs":[{"name":"data","type":"bytes","internalType":"bytes"}],"outputs":[{"name":"","type":"bytes32","internalType":"bytes32"}],"stateMutability":"pure"},{"type":"function","name":"hashPair","inputs":[{"name":"left","type":"bytes32","internalType":"bytes32"},{"name":"right","type":"bytes32","internalType":"bytes32"}],"outputs":[{"name":"","type":"bytes32","internalType":"bytes32"}],"stateMutability":"pure"},{"type":"function","name":"isValidDomainSize","inputs":[{"name":"size","type":"uint256","internalType":"uint256"}],"outputs":[{"name":"","type":"bool","internalType":"bool"}],"stateMutability":"pure"},{"type":"function","name":"securityLevel","inputs":[],"outputs":[{"name":"","type":"uint256","internalType":"uint256"}],"stateMutability":"pure"},{"type":"function","name":"verifyConstraintCommitment","inputs":[{"name":"constraintRoot","type":"bytes32","internalType":"bytes32"},{"name":"expectedCommitment","type":"bytes32","internalType":"bytes32"}],"outputs":[{"name":"","type":"bool","internalType":"bool"}],"stateMutability":"pure"},{"type":"function","name":"verifyProof","inputs":[{"name":"proof","type":"tuple","internalType":"struct ProofCodec.STARKProof","components":[{"name":"traceCommitment","type":"bytes32","internalType":"bytes32"},{"name":"constraintCommitment","type":"bytes32","internalType":"bytes32"},{"name":"friCommitments","type":"bytes32[]","internalType":"bytes32[]"},{"name":"friChallenges","type":"uint256[]","internalType":"uint256[]"},{"name":"queryIndices","type":"uint256[]","internalType":"uint256[]"},{"name":"merkleProofs","type":"bytes32[][]","internalType":"bytes32[][]"},{"name":"evaluations","type":"uint256[][]","internalType":"uint256[][]"},{"name":"finalPolynomial","type":"uint256[]","internalType":"uint256[]"}]},{"name":"publicInput","type":"bytes32","internalType":"bytes32"}],"outputs":[{"name":"","type":"bool","internalType":"bool"}],"stateMutability":"view"},{"type":"function","name":"verifyTraceCommitment","inputs":[{"name":"traceRoot","type":"bytes32","internalType":"bytes32"},{"name":"expectedCommitment","type":"bytes32","internalType":"bytes32"}],"outputs":[{"name":"","type":"bool","internalType":"bool"}],"stateMutability":"pure"},{"type":"function","name":"verifyTraceEvaluationAtIndex","inputs":[{"name":"leaf","type":"bytes32","internalType":"bytes32"},{"name":"index","type":"uint256","internalType":"uint256"},{"name":"siblings","type":"bytes32[]","internalType":"bytes32[]"},{"name":"expectedRoot","type":"bytes32","internalType":"bytes32"}],"outputs":[{"name":"valid","type":"bool","internalType":"bool"}],"stateMutability":"pure"},{"type":"function","name":"verifyTraceEvaluationsBatch","inputs":[{"name":"leaves","type":"bytes32[]","internalType":"bytes32[]"},{"name":"indices","type":"uint256[]","internalType":"uint256[]"},{"name":"allSiblings","type":"bytes32[][]","internalType":"bytes32[][]"},{"name":"expectedRoot","type":"bytes32","internalType":"bytes32"}],"outputs":[{"name":"validCount","type":"uint256","internalType":"uint256"}],"stateMutability":"pure"},{"type":"event","name":"ProofRejected","inputs":[{"name":"publicInput","type":"bytes32","indexed":true,"internalType":"bytes32"},{"name":"reason","type":"string","indexed":false,"internalType":"string"}],"anonymous":false},{"type":"event","name":"ProofVerified","inputs":[{"name":"publicInput","type":"bytes32","indexed":true,"internalType":"bytes32"},{"name":"timestamp","type":"uint256","indexed":false,"internalType":"uint256"}],"anonymous":false},{"type":"event","name":"TraceEvaluationVerified","inputs":[{"name":"index","type":"uint256","indexed":true,"internalType":"uint256"},{"name":"leaf","type":"bytes32","indexed":false,"internalType":"bytes32"},{"name":"root","type":"bytes32","indexed":false,"internalType":"bytes32"}],"anonymous":false},{"type":"error","name":"InsufficientQueries","inputs":[]},{"type":"error","name":"InvalidCommitment","inputs":[]},{"type":"error","name":"InvalidDomainSize","inputs":[]},{"type":"error","name":"InvalidFRIProof","inputs":[]},{"type":"error","name":"InvalidMerkleProof","inputs":[]},{"type":"error","name":"InvalidMerkleProofDepth","inputs":[]},{"type":"error","name":"InvalidProofStructure","inputs":[]}],"bytecode":{"object":"0x608060405234801561001057600080fd5b50611fe0806100206000396000f3fe608060405234801561001057600080fd5b506004361061014d5760003560e01c806358afbfff116100c3578063c42c381a1161007c578063c42c381a146102ae578063c568ccf4146102c1578063d3e59d2c146102c9578063dead39c7146102dc578063e66ef92d146102ef578063ff6d42381461030257600080fd5b806358afbfff1461025e57806389b92870146102655780638bad60c91461026d578063a653873014610280578063ac38d76214610293578063bc471b021461029b57600080fd5b8063387f223311610115578063387f2233146101d05780633bd9e8e31461020e578063445a1527146102215780634a573026146102345780634af7d4851461023c5780634f76a98e1461024f57600080fd5b80630d8e6e2c146101525780630deedb62146101af57806311c24d4e146101d05780631ebbbf7b146101f35780633695a940146101fb575b600080fd5b610198604080518082018252600d81526c29aa20a925ab32b934b334b2b960991b602080830191909152825180840190935260058352640302e322e360dc1b9083015291565b6040516101a69291906119b5565b60405180910390f35b6101c26101bd3660046119da565b610315565b6040519081526020016101a6565b6101e36101de3660046119da565b61041d565b60405190151581526020016101a6565b6101c2600a81565b6101c26102093660046119da565b610454565b6101c261021c3660046119da565b610467565b6101c261022f3660046119fc565b6104a1565b6101c2605081565b6101c261024a3660046119da565b61050d565b6101c267ffffffff0000000181565b60806101c2565b6101c2601081565b6101c261027b366004611b12565b610522565b6101c261028e3660046119da565b6107cc565b6101c2608081565b6101e36102a93660046119fc565b6107e1565b6101e36102bc366004611b46565b610807565b6101c2600781565b6101c26102d7366004611c1c565b6108a5565b6101e36102ea366004611d19565b6109eb565b6101c26102fd366004611e56565b610a6b565b6101c26103103660046119da565b610a76565b600080821161036b5760405162461bcd60e51b815260206004820152601c60248201527f446f6d61696e2073697a65206d75737420626520706f7369746976650000000060448201526064015b60405180910390fd5b610376600183611f00565b8216156103c55760405162461bcd60e51b815260206004820152601e60248201527f446f6d61696e2073697a65206d75737420626520706f776572206f66203200006044820152606401610362565b6000826103db600167ffffffff00000001611f00565b6103e59190611f29565b905060006103fd60078367ffffffff00000001610a87565b9050610412818667ffffffff00000001610a87565b925050505b92915050565b60008061044a8460405160200161043691815260200190565b604051602081830303815290604052610b0a565b9092149392505050565b60006104608383610b15565b9392505050565b604080517051535f535441524b5f54524143455f563160781b60208201529081018390526060810182905260009061046090608001610436565b6000816000036104e85760405162461bcd60e51b815260206004820152601260248201527143616e6e6f7420696e76657274207a65726f60701b6044820152606401610362565b610417826104ff600267ffffffff00000001611f00565b67ffffffff00000001610a87565b600067ffffffff000000018284089392505050565b6000808251116105685760405162461bcd60e51b8152602060048201526011602482015270456d707479206576616c756174696f6e7360781b6044820152606401610362565b600182516105769190611f00565b825116156105d25760405162461bcd60e51b815260206004820152602360248201527f4576616c756174696f6e20636f756e74206d75737420626520706f776572206f60448201526233101960e91b6064820152608401610362565b600082516001600160401b038111156105ed576105ed611a15565b604051908082528060200260200182016040528015610616578160200160208202803683370190505b50905060005b83518110156106aa5761067b7051535f535441524b5f54524143455f563160781b85838151811061064f5761064f611f3d565b602002602001015183604051602001610436939291909283526020830191909152604082015260600190565b82828151811061068d5761068d611f3d565b6020908102919091010152806106a281611f53565b91505061061c565b505b6001815111156107a9576000600282516106c69190611f29565b6001600160401b038111156106dd576106dd611a15565b604051908082528060200260200182016040528015610706578160200160208202803683370190505b50905060005b81518110156107a15761077283610724836002611f6c565b8151811061073457610734611f3d565b60200260200101518483600261074a9190611f6c565b610755906001611f83565b8151811061076557610765611f3d565b6020026020010151610b21565b82828151811061078457610784611f3d565b60209081029190910101528061079981611f53565b91505061070c565b5090506106ac565b806000815181106107bc576107bc611f3d565b6020026020010151915050919050565b600067ffffffff000000018284099392505050565b6000816000036107f357506000919050565b6107fe600183611f00565b90911615919050565b600082516000148061081a575060108351115b156108275750600061089d565b848460005b855181101561089657600086828151811061084957610849611f3d565b602002602001015190508260011660000361086f576108688482610b21565b935061087c565b6108798185610b21565b93505b5060019190911c908061088e81611f53565b91505061082c565b5050821490505b949350505050565b6000835185511415806108ba57508251855114155b156108c75750600061089d565b60005b85518110156109e25760008482815181106108e7576108e7611f3d565b60200260200101519050805160001480610902575060108151115b1561090d57506109d0565b600087838151811061092157610921611f3d565b60200260200101519050600087848151811061093f5761093f611f3d565b6020026020010151905060005b83518110156109b657600084828151811061096957610969611f3d565b602002602001015190508260011660000361098f576109888482610b21565b935061099c565b6109998185610b21565b93505b5060019190911c90806109ae81611f53565b91505061094c565b508582036109cc57846109c881611f53565b9550505b5050505b806109da81611f53565b9150506108ca565b50949350505050565b60006109f683610b5c565b610a0257506000610417565b8251610a1057506000610417565b6020830151610a2157506000610417565b826040015151600003610a3657506000610417565b60508360800151511015610a4c57506000610417565b60048360e00151511115610a6257506000610417565b50600192915050565b600061041782610b0a565b6000610460838367ffffffff000000015b600081600003610aaa5760405163ca85496360e01b815260040160405180910390fd5b6001610ab68386611f96565b94505b831561089d57610aca600285611f96565b600103610ae5578280610adf57610adf611f13565b85820990505b610af0600285611f29565b93508280610b0057610b00611f13565b8586099450610ab9565b600061041782610bc7565b60006104608383610eda565b604080517151535f535441524b5f4d45524b4c455f563160701b60208201529081018390526060810182905260009061046090608001610436565b600081606001515182604001515114610b7757506000919050565b8160800151518260a001515114610b9057506000919050565b8160800151518260c001515114610ba957506000919050565b60108260400151511115610bbf57506000919050565b506001919050565b6000610bd1611932565b825160006088610be2836001611f83565b610bec9190611f29565b610bf7906001611f83565b905060005b81811015610d39576000610c11608883611f6c565b905060005b6011811015610d19576000805b6008811015610cdd57600081610c3a856008611f6c565b610c449087611f83565b610c4e9190611f83565b9050600088821015610c7b578b8281518110610c6c57610c6c611f3d565b016020015160f81c9050610cb3565b888203610c8a57506006610cb3565b6001610c97608888611f83565b610ca19190611f00565b8203610caf57506080610cb3565b5060005b610cbe836008611f6c565b60ff909116901b92909217915080610cd581611f53565b915050610c23565b5080878360198110610cf157610cf1611f3d565b602002018051919091186001600160401b031690525080610d1181611f53565b915050610c16565b50610d2385610f13565b9450508080610d3190611f53565b915050610bfc565b5060c083600360200201516001600160401b0316901b608084600260200201516001600160401b0316901b604085600160200201516001600160401b0316901b85600060200201516001600160401b03161717179350610ed1847bffffffff000000000000000000000000ffffffff00000000000000007eff000000ff000000ff000000ff000000ff000000ff000000ff000000ff0000600883811c9182167fff000000ff000000ff000000ff000000ff000000ff000000ff000000ff0000009490911b93841617601090811c7cff000000ff000000ff000000ff000000ff000000ff000000ff000000ff9092167dff000000ff000000ff000000ff000000ff000000ff000000ff000000ff009094169390931790921b91909117602081811c9283167fffffffff000000000000000000000000ffffffff0000000000000000000000009290911b91821617604090811c73ffffffff000000000000000000000000ffffffff90931677ffffffff000000000000000000000000ffffffff0000000090921691909117901b17608081811c91901b1790565b95945050505050565b6000808383604051602001610ef9929190918252602082015260400190565b604051602081830303815290604052905061089d81610bc7565b610f1b611932565b81610f24611951565b610f2c611951565b60006040518061032001604052806000815260200160018152602001603e8152602001601c8152602001601b815260200160248152602001602c815260200160068152602001603781526020016014815260200160038152602001600a8152602001602b8152602001601981526020016027815260200160298152602001602d8152602001600f815260200160158152602001600881526020016012815260200160028152602001603d815260200160388152602001600e8152509050600060405180610300016040528060016001600160401b03166001600160401b031681526020016180826001600160401b03166001600160401b0316815260200167800000000000808a6001600160401b03166001600160401b031681526020016780000000800080006001600160401b03166001600160401b0316815260200161808b6001600160401b03166001600160401b0316815260200163800000016001600160401b03166001600160401b031681526020016780000000800080816001600160401b03166001600160401b031681526020016780000000000080096001600160401b03166001600160401b03168152602001608a6001600160401b03166001600160401b0316815260200160886001600160401b03166001600160401b0316815260200163800080096001600160401b03166001600160401b03168152602001638000000a6001600160401b03166001600160401b03168152602001638000808b6001600160401b03166001600160401b0316815260200167800000000000008b6001600160401b03166001600160401b031681526020016780000000000080896001600160401b03166001600160401b031681526020016780000000000080036001600160401b03166001600160401b031681526020016780000000000080026001600160401b03166001600160401b031681526020016780000000000000806001600160401b03166001600160401b0316815260200161800a6001600160401b03166001600160401b0316815260200167800000008000000a6001600160401b03166001600160401b031681526020016780000000800080816001600160401b03166001600160401b031681526020016780000000000080806001600160401b03166001600160401b0316815260200163800000016001600160401b03166001600160401b031681526020016780000000800080086001600160401b03166001600160401b0316815250905060005b60188110156118f2576102808601516101e087015161014088015160a08901518951181818186001600160401b0390811686526102a087015161020088015161016089015160c08a01516020808c01519091189091189091189091188216908701526102c087015161022088015161018089015160e08a01516040808c01519091189091189091189091188216908701526102e08701516102408801516101a08901516101008a01516060808c01519091189091189091189091188216908701526103008701516102608801516101c08901516101208a01516080808c0151909118909118909118909118909116908601526113c48560015b602002015160016118fe565b6080860151186001600160401b031684526113e08560026113b8565b8551186001600160401b031660208501526113fc8560036113b8565b6020860151186001600160401b0316604085015261141b8560046113b8565b6040860151186001600160401b0316606085015261143a8560006113b8565b6060808701516001600160401b0392188216608080880191825287518a511884168a5260208881018051918c01805190921886169091526040808a018051918d01805190921887169091528985018051958d01805190961887169095528351928c0180519093188616909252885160a08c01805190911886169052805160c08c01805190911886169052815160e08c0180519091188616905283516101008c0180519091188616905282516101208c0180519091188616905288516101408c0180519091188616905280516101608c0180519091188616905281516101808c0180519091188616905283516101a08c0180519091188616905282516101c08c0180519091188616905288516101e08c0180519091188616905280516102008c0180519091188616905281516102208c0180519091188616905283516102408c0180519091188616905282516102608c0180519091188616905288516102808c01805190911886169052516102a08b01805190911885169052516102c08a0180519091188416905290516102e08901805190911883169052516103008801805190911890911690526115e9611932565b60005b60198110156116cc576000611602600583611f96565b90506000611611600584611f29565b90508060006005611623836003611f6c565b61162e866002611f6c565b6116389190611f83565b6116429190611f96565b905061167a8c866019811061165957611659611f3d565b60200201518a876019811061167057611670611f3d565b60200201516118fe565b86611686836005611f6c565b6116909085611f83565b601981106116a0576116a0611f3d565b6001600160401b039092166020929092020152508392506116c49150829050611f53565b9150506115ec565b5060005b60058110156118b95760006116e6826005611f6c565b905060008382601981106116fc576116fc611f3d565b60200201519050600084611711846001611f83565b6019811061172157611721611f3d565b60200201519050600085611736856002611f83565b6019811061174657611746611f3d565b6020020151905060008661175b866003611f83565b6019811061176b5761176b611f3d565b60200201519050600087611780876004611f83565b6019811061179057611790611f3d565b602002015190508284191685188e87601981106117af576117af611f3d565b6001600160401b0390921660209290920201528219821684188e6117d4886001611f83565b601981106117e4576117e4611f3d565b6001600160401b0390921660209290920201528119811683188e611809886002611f83565b6019811061181957611819611f3d565b6001600160401b0390921660209290920201528019851682188e61183e886003611f83565b6019811061184e5761184e611f3d565b6001600160401b0390921660209290920201528419841681188e611873886004611f83565b6019811061188357611883611f3d565b60200201906001600160401b031690816001600160401b03168152505050505050505080806118b190611f53565b9150506116d0565b508282601881106118cc576118cc611f3d565b60200201518751186001600160401b0316875250806118ea81611f53565b9150506112bf565b50939695505050505050565b60008160000361190f575081610417565b61191a826040611f00565b6001600160401b03841680841b911c17905092915050565b6040518061032001604052806019906020820280368337509192915050565b6040518060a001604052806005906020820280368337509192915050565b6000815180845260005b8181101561199557602081850181015186830182015201611979565b506000602082860101526020601f19601f83011685010191505092915050565b6040815260006119c8604083018561196f565b8281036020840152610ed1818561196f565b600080604083850312156119ed57600080fd5b50508035926020909101359150565b600060208284031215611a0e57600080fd5b5035919050565b634e487b7160e01b600052604160045260246000fd5b60405161010081016001600160401b0381118282101715611a4e57611a4e611a15565b60405290565b604051601f8201601f191681016001600160401b0381118282101715611a7c57611a7c611a15565b604052919050565b60006001600160401b03821115611a9d57611a9d611a15565b5060051b60200190565b600082601f830112611ab857600080fd5b81356020611acd611ac883611a84565b611a54565b82815260059290921b84018101918181019086841115611aec57600080fd5b8286015b84811015611b075780358352918301918301611af0565b509695505050505050565b600060208284031215611b2457600080fd5b81356001600160401b03811115611b3a57600080fd5b61089d84828501611aa7565b60008060008060808587031215611b5c57600080fd5b843593506020850135925060408501356001600160401b03811115611b8057600080fd5b611b8c87828801611aa7565b949793965093946060013593505050565b600082601f830112611bae57600080fd5b81356020611bbe611ac883611a84565b82815260059290921b84018101918181019086841115611bdd57600080fd5b8286015b84811015611b075780356001600160401b03811115611c005760008081fd5b611c0e8986838b0101611aa7565b845250918301918301611be1565b60008060008060808587031215611c3257600080fd5b84356001600160401b0380821115611c4957600080fd5b611c5588838901611aa7565b95506020870135915080821115611c6b57600080fd5b611c7788838901611aa7565b94506040870135915080821115611c8d57600080fd5b50611b8c87828801611b9d565b600082601f830112611cab57600080fd5b81356020611cbb611ac883611a84565b82815260059290921b84018101918181019086841115611cda57600080fd5b8286015b84811015611b075780356001600160401b03811115611cfd5760008081fd5b611d0b8986838b0101611aa7565b845250918301918301611cde565b60008060408385031215611d2c57600080fd5b82356001600160401b0380821115611d4357600080fd5b908401906101008287031215611d5857600080fd5b611d60611a2b565b8235815260208301356020820152604083013582811115611d8057600080fd5b611d8c88828601611aa7565b604083015250606083013582811115611da457600080fd5b611db088828601611aa7565b606083015250608083013582811115611dc857600080fd5b611dd488828601611aa7565b60808301525060a083013582811115611dec57600080fd5b611df888828601611b9d565b60a08301525060c083013582811115611e1057600080fd5b611e1c88828601611c9a565b60c08301525060e083013582811115611e3457600080fd5b611e4088828601611aa7565b60e0830152509660209590950135955050505050565b60006020808385031215611e6957600080fd5b82356001600160401b0380821115611e8057600080fd5b818501915085601f830112611e9457600080fd5b813581811115611ea657611ea6611a15565b611eb8601f8201601f19168501611a54565b91508082528684828501011115611ece57600080fd5b8084840185840137600090820190930192909252509392505050565b634e487b7160e01b600052601160045260246000fd5b8181038181111561041757610417611eea565b634e487b7160e01b600052601260045260246000fd5b600082611f3857611f38611f13565b500490565b634e487b7160e01b600052603260045260246000fd5b600060018201611f6557611f65611eea565b5060010190565b808202811582820484141761041757610417611eea565b8082018082111561041757610417611eea565b600082611fa557611fa5611f13565b50069056fea264697066735822122058117be0f4ba9f9d5ed2f723cf64566220124e4be5b7eb6eaaad729320d6df0364736f6c63430008140033","linkReferences":{}},"methodIdentifiers":{"DEFAULT_TRACE_DEPTH()":"1ebbbf7b","FIELD_MODULUS()":"4f76a98e","MAX_FRI_LAYERS()":"89b92870","MIN_QUERIES()":"4a573026","PRIMITIVE_ROOT()":"c568ccf4","SECURITY_LEVEL()":"ac38d762","computeDomainElement(uint256,uint256)":"0deedb62","computeTraceLeaf(uint256,uint256)":"3bd9e8e3","computeTraceRoot(uint256[])":"8bad60c9","fieldAdd(uint256,uint256)":"4af7d485","fieldExp(uint256,uint256)":"ff6d4238","fieldInverse(uint256)":"445a1527","fieldMul(uint256,uint256)":"a6538730","getVersion()":"0d8e6e2c","hashData(bytes)":"e66ef92d","hashPair(bytes32,bytes32)":"3695a940","isValidDomainSize(uint256)":"bc471b02","securityLevel()":"58afbfff","verifyConstraintCommitment(bytes32,bytes32)":"387f2233","verifyProof((bytes32,bytes32,bytes32[],uint256[],uint256[],bytes32[][],uint256[][],uint256[]),bytes32)":"dead39c7","verifyTraceCommitment(bytes32,bytes32)":"11c24d4e","verifyTraceEvaluationAtIndex(bytes32,uint256,bytes32[],bytes32)":"c42c381a","verifyTraceEvaluationsBatch(bytes32[],uint256[],bytes32[][],bytes32)":"d3e59d2c"},"id":8}