{"abi":[{"type":"function","name":"DEFAULT_BLOWUP","inputs":[],"outputs":[{"name":"","type":"uint256","internalType":"uint256"}],"stateMutability":"view"},{"type":"function","name":"DEFAULT_TRACE_DEPTH","inputs":[],"outputs":[{"name":"","type":"uint256","internalType":"uint256"}],"stateMutability":"view"},{"type":"function","name":"FIELD_MODULUS","inputs":[],"outputs":[{"name":"","type":"uint256","internalType":"uint256"}],"stateMutability":"view"},{"type":"function","name":"MAX_FRI_LAYERS","inputs":[],"outputs":[{"name":"","type":"uint256","internalType":"uint256"}],"stateMutability":"view"},{"type":"function","name":"MIN_QUERIES","inputs":[],"outputs":[{"name":"","type":"uint256","internalType":"uint256"}],"stateMutability":"view"},{"type":"function","name":"PRIMITIVE_ROOT","inputs":[],"outputs":[{"name":"","type":"uint256","internalType":"uint256"}],"stateMutability":"view"},{"type":"function","name":"SECURITY_LEVEL","inputs":[],"outputs":[{"name":"","type":"uint256","internalType":"uint256"}],"stateMutability":"view"},{"type":"function","name":"computeDomainElement","inputs":[{"name":"index","type":"uint256","internalType":"uint256"},{"name":"domainSize","type":"uint256","internalType":"uint256"}],"outputs":[{"name":"","type":"uint256","internalType":"uint256"}],"stateMutability":"view"},{"type":"function","name":"computeTraceLeaf","inputs":[{"name":"evaluation","type":"uint256","internalType":"uint256"},{"name":"index","type":"uint256","internalType":"uint256"}],"outputs":[{"name":"leaf","type":"bytes32","internalType":"bytes32"}],"stateMutability":"pure"},{"type":"function","name":"computeTraceRoot","inputs":[{"name":"evaluations","type":"uint256[]","internalType":"uint256[]"}],"outputs":[{"name":"root","type":"bytes32","internalType":"bytes32"}],"stateMutability":"pure"},{"type":"function","name":"fieldAdd","inputs":[{"name":"a","type":"uint256","internalType":"uint256"},{"name":"b","type":"uint256","internalType":"uint256"}],"outputs":[{"name":"","type":"uint256","internalType":"uint256"}],"stateMutability":"pure"},{"type":"function","name":"fieldBatchMul","inputs":[{"name":"a","type":"uint256[]","internalType":"uint256[]"},{"name":"b","type":"uint256[]","internalType":"uint256[]"}],"outputs":[{"name":"","type":"uint256[]","internalType":"uint256[]"}],"stateMutability":"pure"},{"type":"function","name":"fieldExp","inputs":[{"name":"base","type":"uint256","internalType":"uint256"},{"name":"exp","type":"uint256","internalType":"uint256"}],"outputs":[{"name":"","type":"uint256","internalType":"uint256"}],"stateMutability":"view"},{"type":"function","name":"fieldInverse","inputs":[{"name":"a","type":"uint256","internalType":"uint256"}],"outputs":[{"name":"","type":"uint256","internalType":"uint256"}],"stateMutability":"view"},{"type":"function","name":"fieldMul","inputs":[{"name":"a","type":"uint256","internalType":"uint256"},{"name":"b","type":"uint256","internalType":"uint256"}],"outputs":[{"name":"","type":"uint256","internalType":"uint256"}],"stateMutability":"pure"},{"type":"function","name":"getVersion","inputs":[],"outputs":[{"name":"name","type":"string","internalType":"string"},{"name":"version","type":"string","internalType":"string"}],"stateMutability":"pure"},{"type":"function","name":"hashData","inputs":[{"name":"data","type":"bytes","internalType":"bytes"}],"outputs":[{"name":"","type":"bytes32","internalType":"bytes32"}],"stateMutability":"pure"},{"type":"function","name":"hashPair","inputs":[{"name":"left","type":"bytes32","internalType":"bytes32"},{"name":"right","type":"bytes32","internalType":"bytes32"}],"outputs":[{"name":"","type":"bytes32","internalType":"bytes32"}],"stateMutability":"pure"},{"type":"function","name":"isValidDomainSize","inputs":[{"name":"size","type":"uint256","internalType":"uint256"}],"outputs":[{"name":"","type":"bool","internalType":"bool"}],"stateMutability":"pure"},{"type":"function","name":"securityLevel","inputs":[],"outputs":[{"name":"","type":"uint256","internalType":"uint256"}],"stateMutability":"pure"},{"type":"function","name":"verifyConstraintCommitment","inputs":[{"name":"constraintRoot","type":"bytes32","internalType":"bytes32"},{"name":"expectedCommitment","type":"bytes32","internalType":"bytes32"}],"outputs":[{"name":"","type":"bool","internalType":"bool"}],"stateMutability":"pure"},{"type":"function","name":"verifyProof","inputs":[{"name":"proof","type":"tuple","internalType":"struct ProofCodec.STARKProof","components":[{"name":"traceCommitment","type":"bytes32","internalType":"bytes32"},{"name":"constraintCommitment","type":"bytes32","internalType":"bytes32"},{"name":"friCommitments","type":"bytes32[]","internalType":"bytes32[]"},{"name":"friChallenges","type":"uint256[]","internalType":"uint256[]"},{"name":"queryIndices","type":"uint256[]","internalType":"uint256[]"},{"name":"merkleProofs","type":"bytes32[][]","internalType":"bytes32[][]"},{"name":"evaluations","type":"uint256[][]","internalType":"uint256[][]"},{"name":"finalPolynomial","type":"uint256[]","internalType":"uint256[]"}]},{"name":"publicInput","type":"bytes32","internalType":"bytes32"}],"outputs":[{"name":"","type":"bool","internalType":"bool"}],"stateMutability":"view"},{"type":"function","name":"verifyProofFull","inputs":[{"name":"proof","type":"tuple","internalType":"struct ProofCodec.STARKProof","components":[{"name":"traceCommitment","type":"bytes32","internalType":"bytes32"},{"name":"constraintCommitment","type":"bytes32","internalType":"bytes32"},{"name":"friCommitments","type":"bytes32[]","internalType":"bytes32[]"},{"name":"friChallenges","type":"uint256[]","internalType":"uint256[]"},{"name":"queryIndices","type":"uint256[]","internalType":"uint256[]"},{"name":"merkleProofs","type":"bytes32[][]","internalType":"bytes32[][]"},{"name":"evaluations","type":"uint256[][]","internalType":"uint256[][]"},{"name":"finalPolynomial","type":"uint256[]","internalType":"uint256[]"}]},{"name":"publicInput","type":"bytes32","internalType":"bytes32"},{"name":"domainSize","type":"uint256","internalType":"uint256"}],"outputs":[{"name":"valid","type":"bool","internalType":"bool"}],"stateMutability":"view"},{"type":"function","name":"verifyTraceCommitment","inputs":[{"name":"traceRoot","type":"bytes32","internalType":"bytes32"},{"name":"expectedCommitment","type":"bytes32","internalType":"bytes32"}],"outputs":[{"name":"","type":"bool","internalType":"bool"}],"stateMutability":"pure"},{"type":"function","name":"verifyTraceEvaluationAtIndex","inputs":[{"name":"leaf","type":"bytes32","internalType":"bytes32"},{"name":"index","type":"uint256","internalType":"uint256"},{"name":"siblings","type":"bytes32[]","internalType":"bytes32[]"},{"name":"expectedRoot","type":"bytes32","internalType":"bytes32"}],"outputs":[{"name":"valid","type":"bool","internalType":"bool"}],"stateMutability":"pure"},{"type":"function","name":"verifyTraceEvaluationsBatch","inputs":[{"name":"leaves","type":"bytes32[]","internalType":"bytes32[]"},{"name":"indices","type":"uint256[]","internalType":"uint256[]"},{"name":"allSiblings","type":"bytes32[][]","internalType":"bytes32[][]"},{"name":"expectedRoot","type":"bytes32","internalType":"bytes32"}],"outputs":[{"name":"validCount","type":"uint256","internalType":"uint256"}],"stateMutability":"pure"},{"type":"event","name":"ProofRejected","inputs":[{"name":"publicInput","type":"bytes32","indexed":true,"internalType":"bytes32"},{"name":"reason","type":"string","indexed":false,"internalType":"string"}],"anonymous":false},{"type":"event","name":"ProofVerified","inputs":[{"name":"publicInput","type":"bytes32","indexed":true,"internalType":"bytes32"},{"name":"timestamp","type":"uint256","indexed":false,"internalType":"uint256"}],"anonymous":false},{"type":"event","name":"TraceEvaluationVerified","inputs":[{"name":"index","type":"uint256","indexed":true,"internalType":"uint256"},{"name":"leaf","type":"bytes32","indexed":false,"internalType":"bytes32"},{"name":"root","type":"bytes32","indexed":false,"internalType":"bytes32"}],"anonymous":false},{"type":"error","name":"ConstraintViolation","inputs":[]},{"type":"error","name":"FRIFoldingError","inputs":[]},{"type":"error","name":"InsufficientQueries","inputs":[]},{"type":"error","name":"InvalidCommitment","inputs":[]},{"type":"error","name":"InvalidDomainSize","inputs":[]},{"type":"error","name":"InvalidFRIProof","inputs":[]},{"type":"error","name":"InvalidMerkleProof","inputs":[]},{"type":"error","name":"InvalidMerkleProofDepth","inputs":[]},{"type":"error","name":"InvalidProofStructure","inputs":[]},{"type":"error","name":"LengthMismatch","inputs":[]},{"type":"error","name":"ZeroInverse","inputs":[]}],"bytecode":{"object":"0x6080806040523461001657612542908161001c8239f35b600080fdfe6080604052600436101561001257600080fd5b60003560e01c80630d8e6e2c146101ad5780630deedb62146101a857806311c24d4e146101995780631ebbbf7b146101a35780633695a9401461019e578063387f2233146101995780633bd9e8e3146101945780633fd4f1821461018f578063445a15271461018a5780634a573026146101855780634af7d485146101805780634f76a98e1461017b57806358afbfff1461015d5780636fd8cc9c1461017657806385ef806a1461017157806389b928701461016c5780638bad60c914610167578063a653873014610162578063ac38d7621461015d578063bc471b0214610158578063c42c381a14610153578063c568ccf41461014e578063d3e59d2c14610149578063dead39c714610144578063e66ef92d1461013f5763ff6d42381461013a57600080fd5b610d77565b610d02565b610cad565b610c3a565b610c1e565b610bda565b610bbc565b61081a565b610b92565b610a16565b6109fa565b6109de565b610992565b6107f7565b6107cd565b6107b1565b610752565b610623565b610414565b610363565b6103bd565b6103a1565b610278565b6101f2565b919082519283825260005b8481106101de575050826000602080949584010152601f8019910116010190565b6020818301810151848301820152016101bd565b346102735760003660031901126102735761026160405161021281610486565b600d81526c29aa20a925ab32b934b334b2b960991b602082015261026f60405161023b81610486565b60058152640312e302e360dc1b60208201526040519384936040855260408501906101b2565b9083820360208501526101b2565b0390f35b600080fd5b3461027357604036600319011261027357602435801561031e5760001981018181116103195781166102d4576102c461026f916102bf6102ba60043592611141565b61136b565b611408565b6040519081529081906020820190565b60405162461bcd60e51b815260206004820152601e60248201527f446f6d61696e2073697a65206d75737420626520706f776572206f66203200006044820152606490fd5b610e66565b60405162461bcd60e51b815260206004820152601c60248201527f446f6d61696e2073697a65206d75737420626520706f736974697665000000006044820152606490fd5b346102735760403660031901126102735760206040516004358282015281815261038c81610486565b610398602435916115b2565b14604051908152f35b34610273576000366003190112610273576020604051600a8152f35b346102735760408060031936011261027357805190600435602083015260243581830152808252606082018281106001600160401b0382111761040f576020926104089183526115b2565b9051908152f35b610470565b346102735760403660031901126102735760206104686040517051535f535441524b5f54524143455f563160781b838201526004356040820152602435606082015260608152610463816104a1565b6115b2565b604051908152f35b634e487b7160e01b600052604160045260246000fd5b604081019081106001600160401b0382111761040f57604052565b608081019081106001600160401b0382111761040f57604052565b60a081019081106001600160401b0382111761040f57604052565b60e081019081106001600160401b0382111761040f57604052565b90601f801991011681019081106001600160401b0382111761040f57604052565b6040519061010082018281106001600160401b0382111761040f57604052565b6040519061032082018281106001600160401b0382111761040f57604052565b6040519061030082018281106001600160401b0382111761040f57604052565b6001600160401b03811161040f5760051b60200190565b81601f82011215610273578035916105a183610573565b926105af60405194856104f2565b808452602092838086019260051b820101928311610273578301905b8282106105d9575050505090565b813581529083019083016105cb565b6020908160408183019282815285518094520193019160005b82811061060f575050505090565b835185529381019392810192600101610601565b3461027357604080600319360112610273576004906001600160401b0390823582811161027357610657903690850161058a565b916024359081116102735761066f903690850161058a565b91805183510361073f57805193926106868561110f565b93600090600387168703905b8183106106da5750505b8581106106b05783518061026f87826105e8565b8060019160051b602067ffffffff000000018183870101518284890101510991880101520161069c565b828192989360051b8086016020918282015190808a019067ffffffff0000000180938684015109908d0194850152818b8401518c830151098b850152606082818501518284015109908501526080808094015191015109910152019690969196610692565b81516001621398b960e31b031981528490fd5b34610273576020366003190112610273576004358015610777576104686020916114b1565b60405162461bcd60e51b815260206004820152601260248201527143616e6e6f7420696e76657274207a65726f60701b6044820152606490fd5b3461027357600036600319011261027357602060405160508152f35b3461027357604036600319011261027357602060405167ffffffff00000001602435600435088152f35b3461027357600036600319011261027357602060405167ffffffff000000018152f35b3461027357600036600319011261027357602060405160808152f35b9080601f830112156102735781359061084e82610573565b9261085c60405194856104f2565b828452602092838086019160051b8301019280841161027357848301915b84831061088a5750505050505090565b82356001600160401b0381116102735786916108ab8484809489010161058a565b81520192019161087a565b91909161010081840312610273576108cc610513565b92813584526020820135602085015260408201356001600160401b039081811161027357826108fc91850161058a565b60408601526060830135818111610273578261091991850161058a565b60608601526080830135818111610273578261093691850161058a565b608086015260a08301358181116102735782610953918501610836565b60a086015260c08301358181116102735782610970918501610836565b60c086015260e08301359081116102735761098b920161058a565b60e0830152565b34610273576060366003190112610273576004356001600160401b038111610273576109d46109c760209236906004016108b6565b6044359060243590610df2565b6040519015158152f35b3461027357600036600319011261027357602060405160088152f35b3461027357600036600319011261027357602060405160108152f35b3461027357602080600319360112610273576004356001600160401b03811161027357610a4790369060040161058a565b610a5381511515611068565b610a688151610a61816110a8565b16156110b7565b610a72815161110f565b600091825b8151811015610aef5780610ada81610463610a95610aea9587610eb3565b51610acc6040519384928c840190916060927051535f535441524b5f54524143455f563160781b8352602083015260408201520190565b03601f1981018352826104f2565b610ae48286610eb3565b52610e7c565b610a77565b50505b805160019081811115610b7557610b0a90821c61110f565b9183825b610b1b575b505050610af2565b8351811015610b7057610b6a81610b60610b3e610b38879561116a565b86610eb3565b51610b59610b53610b4e8561116a565b6111d0565b87610eb3565b5190611318565b610ae48288610eb3565b90610b0e565b610b13565b61026f610b8184610ea1565b516040519081529081906020820190565b3461027357604036600319011261027357602060405167ffffffff00000001602435600435098152f35b346102735760203660031901126102735760206109d4600435611223565b34610273576080366003190112610273576044356001600160401b038111610273576109d4610c0f602092369060040161058a565b60643590602435600435610ec7565b3461027357600036600319011261027357602060405160078152f35b34610273576080366003190112610273576001600160401b0360043581811161027357610c6b90369060040161058a565b9060243581811161027357610c8490369060040161058a565b9160443591821161027357602092610ca3610468933690600401610836565b9060643592610f48565b34610273576040366003190112610273576004356001600160401b038111610273576109d4610ce260209236906004016108b6565b610d98565b6001600160401b03811161040f57601f01601f191660200190565b34610273576020366003190112610273576004356001600160401b038111610273573660238201121561027357806004013590610d3e82610ce7565b610d4b60405191826104f2565b828152366024848401011161027357600060208461026f9560246102c4960183860137830101526115b2565b34610273576040366003190112610273576020610468602435600435611408565b610da8610da48261123b565b1590565b610dec57805115610dec57602081015115610dec5760408101515115610dec57605060808201515110610dec5760e060049101515111610de757600190565b600090565b50600090565b91610dff610da48461123b565b610e52578251158015610e5a575b610e5257610da4610e1e9184611278565b610e4b57605060808301515110610e4b5760e082015151600410610e4b57610e45916112cd565b50600190565b5050600090565b505050600090565b50602083015115610e0d565b634e487b7160e01b600052601160045260246000fd5b60001981146103195760010190565b634e487b7160e01b600052603260045260246000fd5b805115610eae5760200190565b610e8b565b8051821015610eae5760209160051b010190565b93919384518015908115610f3d575b50610f335790916000925b8551841015610f2b57610f1690610ef88588610eb3565b51600194828616610f1c5790610f0d91611318565b935b1c93610e7c565b92610ee1565b610f2591611318565b93610f0f565b509214925050565b5050915050600090565b601091501138610ed6565b9093600080938351875181149081159161105c575b50611052579392959183925b875184101561104857610f7c8487610eb3565b51948551801590811561103d575b5061102e57610f99858a610eb3565b5198610fa58684610eb3565b519382945b8851861015610ff457610fdf90610fc1878b610eb3565b5160019d828f16610fe55790610fd691611318565b9c5b1c95610e7c565b94610faa565b610fee91611318565b9c610fd8565b50959299909650889197935014611019575b61100f90610e7c565b9290949396610f69565b9161102661100f91610e7c565b929050611006565b95919361100f91989550610e7c565b601091501138610f8a565b5094509450505050565b5050935050905090565b90508151141538610f5d565b1561106f57565b60405162461bcd60e51b8152602060048201526011602482015270456d707479206576616c756174696f6e7360781b6044820152606490fd5b60001981019190821161031957565b156110be57565b60405162461bcd60e51b815260206004820152602360248201527f4576616c756174696f6e20636f756e74206d75737420626520706f776572206f60448201526233101960e91b6064820152608490fd5b9061111982610573565b61112660405191826104f2565b8281528092611137601f1991610573565b0190602036910137565b80156111545767ffffffff000000000490565b634e487b7160e01b600052601260045260246000fd5b600181901b91906001600160ff1b0381160361031957565b9060888202918083046088149015171561031957565b908160031b918083046008149015171561031957565b908160030291600383040361031957565b908160050291600583040361031957565b906001820180921161031957565b906088820180921161031957565b906002820180921161031957565b906003820180921161031957565b906004820180921161031957565b9190820180921161031957565b8015610dec5760001981019080821161031957161590565b604081015151906060810151518203610e4b5760a08101515190608081015151809203610e525760c001515103610dec57601010610de757600190565b90801580156112b7575b610e4b576000905b6001808211156112a5571c9061129f90610e7c565b9061128a565b505090604001515111610de757600190565b5060001981018181116103195781161515611282565b90611315916020815191015190604051927151535f535441524b5f4348414c4c454e474560701b602085015260408401526060830152608082015260808152610463816104bc565b90565b61131591604051917151535f535441524b5f4d45524b4c455f563160701b60208401526040830152606082015260608152610463816104a1565b6040519061135f82610486565b60208083523683820137565b8015610e455760c0906040516020808201818152816040840152816060840152600760808401528360a08401526113b267ffffffff000000019384878201528681526104d7565b816113bb611352565b0194859160055afa156113cf575b50505190565b60019081926007815b6113e4575050506113c9565b8382166113fa575b8083910990831c90816113d8565b9382858192099490506113ec565b81156114aa578015610e4b5760c09160405160208082018181528160408401528160608401528460808401528360a084015261145467ffffffff000000019384888201528781526104d7565b8161145d611352565b0195869160055afa15611472575b5050505190565b60019181839406815b61148657505061146b565b83821661149c575b8083910990831c908161147b565b93828581920994905061148e565b5050600190565b8015610dec5760c0906040516020908181019180835280604083015280606083015283608083015267fffffffeffffffff928360a084015261150367ffffffff000000019384888201528781526104d7565b8161150c611352565b0195869160055afa15611520575050505190565b60019181839406815b61153457505061146b565b83821661154a575b8083910990831c9081611529565b93828581920994905061153c565b604051906103208083018381106001600160401b0382111761040f57604052368337565b60405190611589826104bc565b60a0368337565b908151811015610eae570160200190565b906019811015610eae5760051b0190565b6115ba611558565b8151916115d3610b4e6115cc856111d0565b6088900490565b906000935b82851061177457505050611315915061166061165a6001600160401b03606061160a828651166001600160401b031690565b611629611623846020890151166001600160401b031690565b60401b90565b17611649611643846040890151166001600160401b031690565b60801b90565b17940151166001600160401b031690565b60c01b90565b178060081c9060081b907eff000000ff000000ff000000ff000000ff000000ff000000ff000000ff00007fff000000ff000000ff000000ff000000ff000000ff000000ff000000ff0000007dff000000ff000000ff000000ff000000ff000000ff000000ff000000ff0084167cff000000ff000000ff000000ff000000ff000000ff000000ff000000ff84161760101b931691161760101c177bffffffff00000000ffffffff00000000ffffffff00000000ffffffff7fffffffff00000000ffffffff00000000ffffffff00000000ffffffff000000008260201b169160201c161777ffffffffffffffff0000000000000000ffffffffffffffff80198260401b169160401c16178060801b9060801c1790565b90919261178085611182565b60005b601181106117a857505061179961179f916118c6565b94610e7c565b939291906115d8565b6000805b600881106117fa5750906117f06117f5926117d76117ca84886115a1565b516001600160401b031690565b186117e283876115a1565b906001600160401b03169052565b610e7c565b611783565b906118729061181a8361181561180f87611198565b88611216565b611216565b600088821015611877575061184c61184661183861186b938c611590565b516001600160f81b03191690565b60f81c90565b60ff61185786611198565b9116906001600160401b03809216901b1690565b1791610e7c565b6117ac565b9088810361188b57505061186b600661184c565b61189c611897886111de565b6110a8565b036118ac575061186b608061184c565b61186b9061184c565b906018811015610eae5760051b0190565b6118ce611558565b506118d761157c565b6118df61157c565b6118e7610533565b6000815260016020820152603e6040820152601c6060820152601b6080820152602460a0820152602c60c0820152600660e0820152603761010082015260146101208201526003610140820152600a610160820152602b61018082015260196101a082015260276101c082015260296101e0820152602d610200820152600f61022082015260156102408201526008610260820152601261028082015260026102a0820152603d6102c082015260386102e0820152600e6103008201526119ac610553565b6001815291618082602084015267800000000000808a6040840152678000000080008000606084015261808b6080840152638000000160a084015267800000008000808160c084015267800000000000800960e0840152608a61010084015260886101208401526380008009610140840152638000000a610160840152638000808b61018084015267800000000000008b6101a08401526780000000000080896101c08401526780000000000080036101e084015267800000000000800261020084015267800000000000008061022084015261800a61024084015267800000008000000a6102608401526780000000800080816102808401526780000000000080806102a084015263800000016102c08401526780000000800080086102e084015260005b60188110611ae257505050505090565b611b3e6001600160401b038751166001600160401b0360a089015116186001600160401b0361014089015116186001600160401b036101e089015116186001600160401b03610280890151161886906001600160401b03169052565b611ba06001600160401b036020880151166001600160401b0360c089015116186001600160401b0361016089015116186001600160401b0361020089015116186001600160401b036102a0890151161860208701906001600160401b03169052565b611c026001600160401b036040880151166001600160401b0360e089015116186001600160401b0361018089015116186001600160401b0361022089015116186001600160401b036102c0890151161860408701906001600160401b03169052565b611c656001600160401b036060880151166001600160401b0361010089015116186001600160401b036101a089015116186001600160401b0361024089015116186001600160401b036102e0890151161860608701906001600160401b03169052565b611cc86001600160401b036080880151166001600160401b0361012089015116186001600160401b036101c089015116186001600160401b0361026089015116186001600160401b03610300890151161860808701906001600160401b03169052565b611d116001600160401b03608087015116611d036001600160401b0360208901511667fffffffffffffffe600182603f1c169160011b161790565b186001600160401b03168352565b611d5a6001600160401b03865116611d496001600160401b0360408901511667fffffffffffffffe600182603f1c169160011b161790565b186001600160401b03166020840152565b611da66001600160401b03602087015116611d956001600160401b0360608901511667fffffffffffffffe600182603f1c169160011b161790565b186001600160401b03166040840152565b611df26001600160401b03604087015116611de16001600160401b0360808901511667fffffffffffffffe600182603f1c169160011b161790565b186001600160401b03166060840152565b611e3b6001600160401b03606087015116611e2a6001600160401b0388511667fffffffffffffffe600182603f1c169160011b161790565b186001600160401b03166080840152565b611e646001600160401b038351166001600160401b038851161887906001600160401b03169052565b611e966001600160401b036020840151166001600160401b036020890151161860208801906001600160401b03169052565b611ec86001600160401b036040840151166001600160401b036040890151161860408801906001600160401b03169052565b611efa6001600160401b036060840151166001600160401b036060890151161860608801906001600160401b03169052565b611f2c6001600160401b036080840151166001600160401b036080890151161860808801906001600160401b03169052565b611f5b6001600160401b038351166001600160401b0360a0890151161860a08801906001600160401b03169052565b611f8d6001600160401b036020840151166001600160401b0360c0890151161860c08801906001600160401b03169052565b611fbf6001600160401b036040840151166001600160401b0360e0890151161860e08801906001600160401b03169052565b611ff36001600160401b036060840151166001600160401b0361010089015116186101008801906001600160401b03169052565b6120276001600160401b036080840151166001600160401b0361012089015116186101208801906001600160401b03169052565b6120586001600160401b038351166001600160401b0361014089015116186101408801906001600160401b03169052565b61208c6001600160401b036020840151166001600160401b0361016089015116186101608801906001600160401b03169052565b6120c06001600160401b036040840151166001600160401b0361018089015116186101808801906001600160401b03169052565b6120f46001600160401b036060840151166001600160401b036101a089015116186101a08801906001600160401b03169052565b6121286001600160401b036080840151166001600160401b036101c089015116186101c08801906001600160401b03169052565b6121596001600160401b038351166001600160401b036101e089015116186101e08801906001600160401b03169052565b61218d6001600160401b036020840151166001600160401b0361020089015116186102008801906001600160401b03169052565b6121c16001600160401b036040840151166001600160401b0361022089015116186102208801906001600160401b03169052565b6121f56001600160401b036060840151166001600160401b0361024089015116186102408801906001600160401b03169052565b6122296001600160401b036080840151166001600160401b0361026089015116186102608801906001600160401b03169052565b61225a6001600160401b038351166001600160401b0361028089015116186102808801906001600160401b03169052565b61228e6001600160401b036020840151166001600160401b036102a089015116186102a08801906001600160401b03169052565b6122c26001600160401b036040840151166001600160401b036102c089015116186102c08801906001600160401b03169052565b6122f66001600160401b036060840151166001600160401b036102e089015116186102e08801906001600160401b03169052565b61232a6001600160401b036080840151166001600160401b0361030089015116186103008801906001600160401b03169052565b612332611558565b60005b60198110612474575060005b6005811061237f575050806117f061235f6117ca61237a94886118b5565b6001600160401b038951161888906001600160401b03169052565b611ad2565b806117f061238f61246f936111bf565b6117e26123ba8c6001600160401b036123ab6117ca868b6115a1565b6123c06117ca6123ba886111d0565b8c6115a1565b906124656123da6117ca8d6123d48b6111ec565b906115a1565b946117e28d6124548b6117e261244e61240e6117ca6124046117ca6123fe876111fa565b896115a1565b966123d486611208565b9b6124248c828d1916168b186117e2868b6115a1565b6124418c87831916168c186117e261243b876111d0565b8b6115a1565b8b8d8719161618926111ec565b866115a1565b86858919161618916123d48b6111fa565b1916161892611208565b612341565b6124d9906117f0896117e261244e60056124b36124d38c6124cc896124c66117ca826124c06124b96124aa8b84049b840661116a565b6124b38c6111ae565b90611216565b6005900690565b9b6115a1565b926115a1565b51906124de565b946111bf565b612335565b8115612507576001600160401b038091168260400360408111610319578183911c16921b161790565b90509056fea26469706673582212204017efe966d7ce18a99859fd5082d76f860c3f9ea31ce609eb1dd2bb8e71bc5c64736f6c63430008140033","linkReferences":{}},"methodIdentifiers":{"DEFAULT_BLOWUP()":"85ef806a","DEFAULT_TRACE_DEPTH()":"1ebbbf7b","FIELD_MODULUS()":"4f76a98e","MAX_FRI_LAYERS()":"89b92870","MIN_QUERIES()":"4a573026","PRIMITIVE_ROOT()":"c568ccf4","SECURITY_LEVEL()":"ac38d762","computeDomainElement(uint256,uint256)":"0deedb62","computeTraceLeaf(uint256,uint256)":"3bd9e8e3","computeTraceRoot(uint256[])":"8bad60c9","fieldAdd(uint256,uint256)":"4af7d485","fieldBatchMul(uint256[],uint256[])":"3fd4f182","fieldExp(uint256,uint256)":"ff6d4238","fieldInverse(uint256)":"445a1527","fieldMul(uint256,uint256)":"a6538730","getVersion()":"0d8e6e2c","hashData(bytes)":"e66ef92d","hashPair(bytes32,bytes32)":"3695a940","isValidDomainSize(uint256)":"bc471b02","securityLevel()":"58afbfff","verifyConstraintCommitment(bytes32,bytes32)":"387f2233","verifyProof((bytes32,bytes32,bytes32[],uint256[],uint256[],bytes32[][],uint256[][],uint256[]),bytes32)":"dead39c7","verifyProofFull((bytes32,bytes32,bytes32[],uint256[],uint256[],bytes32[][],uint256[][],uint256[]),bytes32,uint256)":"6fd8cc9c","verifyTraceCommitment(bytes32,bytes32)":"11c24d4e","verifyTraceEvaluationAtIndex(bytes32,uint256,bytes32[],bytes32)":"c42c381a","verifyTraceEvaluationsBatch(bytes32[],uint256[],bytes32[][],bytes32)":"d3e59d2c"},"id":10}