{"abi":[{"type":"function","name":"DEFAULT_TRACE_DEPTH","inputs":[],"outputs":[{"name":"","type":"uint256","internalType":"uint256"}],"stateMutability":"view"},{"type":"function","name":"FIELD_MODULUS","inputs":[],"outputs":[{"name":"","type":"uint256","internalType":"uint256"}],"stateMutability":"view"},{"type":"function","name":"MAX_FRI_LAYERS","inputs":[],"outputs":[{"name":"","type":"uint256","internalType":"uint256"}],"stateMutability":"view"},{"type":"function","name":"MIN_QUERIES","inputs":[],"outputs":[{"name":"","type":"uint256","internalType":"uint256"}],"stateMutability":"view"},{"type":"function","name":"PRIMITIVE_ROOT","inputs":[],"outputs":[{"name":"","type":"uint256","internalType":"uint256"}],"stateMutability":"view"},{"type":"function","name":"SECURITY_LEVEL","inputs":[],"outputs":[{"name":"","type":"uint256","internalType":"uint256"}],"stateMutability":"view"},{"type":"function","name":"computeDomainElement","inputs":[{"name":"index","type":"uint256","internalType":"uint256"},{"name":"domainSize","type":"uint256","internalType":"uint256"}],"outputs":[{"name":"","type":"uint256","internalType":"uint256"}],"stateMutability":"pure"},{"type":"function","name":"computeTraceLeaf","inputs":[{"name":"evaluation","type":"uint256","internalType":"uint256"},{"name":"index","type":"uint256","internalType":"uint256"}],"outputs":[{"name":"leaf","type":"bytes32","internalType":"bytes32"}],"stateMutability":"pure"},{"type":"function","name":"computeTraceRoot","inputs":[{"name":"evaluations","type":"uint256[]","internalType":"uint256[]"}],"outputs":[{"name":"root","type":"bytes32","internalType":"bytes32"}],"stateMutability":"pure"},{"type":"function","name":"fieldAdd","inputs":[{"name":"a","type":"uint256","internalType":"uint256"},{"name":"b","type":"uint256","internalType":"uint256"}],"outputs":[{"name":"","type":"uint256","internalType":"uint256"}],"stateMutability":"pure"},{"type":"function","name":"fieldExp","inputs":[{"name":"base","type":"uint256","internalType":"uint256"},{"name":"exp","type":"uint256","internalType":"uint256"}],"outputs":[{"name":"","type":"uint256","internalType":"uint256"}],"stateMutability":"pure"},{"type":"function","name":"fieldInverse","inputs":[{"name":"a","type":"uint256","internalType":"uint256"}],"outputs":[{"name":"","type":"uint256","internalType":"uint256"}],"stateMutability":"pure"},{"type":"function","name":"fieldMul","inputs":[{"name":"a","type":"uint256","internalType":"uint256"},{"name":"b","type":"uint256","internalType":"uint256"}],"outputs":[{"name":"","type":"uint256","internalType":"uint256"}],"stateMutability":"pure"},{"type":"function","name":"getVersion","inputs":[],"outputs":[{"name":"name","type":"string","internalType":"string"},{"name":"version","type":"string","internalType":"string"}],"stateMutability":"pure"},{"type":"function","name":"hashData","inputs":[{"name":"data","type":"bytes","internalType":"bytes"}],"outputs":[{"name":"","type":"bytes32","internalType":"bytes32"}],"stateMutability":"pure"},{"type":"function","name":"hashPair","inputs":[{"name":"left","type":"bytes32","internalType":"bytes32"},{"name":"right","type":"bytes32","internalType":"bytes32"}],"outputs":[{"name":"","type":"bytes32","internalType":"bytes32"}],"stateMutability":"pure"},{"type":"function","name":"isValidDomainSize","inputs":[{"name":"size","type":"uint256","internalType":"uint256"}],"outputs":[{"name":"","type":"bool","internalType":"bool"}],"stateMutability":"pure"},{"type":"function","name":"securityLevel","inputs":[],"outputs":[{"name":"","type":"uint256","internalType":"uint256"}],"stateMutability":"pure"},{"type":"function","name":"verifyConstraintCommitment","inputs":[{"name":"constraintRoot","type":"bytes32","internalType":"bytes32"},{"name":"expectedCommitment","type":"bytes32","internalType":"bytes32"}],"outputs":[{"name":"","type":"bool","internalType":"bool"}],"stateMutability":"pure"},{"type":"function","name":"verifyProof","inputs":[{"name":"proof","type":"tuple","internalType":"struct ProofCodec.STARKProof","components":[{"name":"traceCommitment","type":"bytes32","internalType":"bytes32"},{"name":"constraintCommitment","type":"bytes32","internalType":"bytes32"},{"name":"friCommitments","type":"bytes32[]","internalType":"bytes32[]"},{"name":"friChallenges","type":"uint256[]","internalType":"uint256[]"},{"name":"queryIndices","type":"uint256[]","internalType":"uint256[]"},{"name":"merkleProofs","type":"bytes32[][]","internalType":"bytes32[][]"},{"name":"evaluations","type":"uint256[][]","internalType":"uint256[][]"},{"name":"finalPolynomial","type":"uint256[]","internalType":"uint256[]"}]},{"name":"publicInput","type":"bytes32","internalType":"bytes32"}],"outputs":[{"name":"","type":"bool","internalType":"bool"}],"stateMutability":"view"},{"type":"function","name":"verifyTraceCommitment","inputs":[{"name":"traceRoot","type":"bytes32","internalType":"bytes32"},{"name":"expectedCommitment","type":"bytes32","internalType":"bytes32"}],"outputs":[{"name":"","type":"bool","internalType":"bool"}],"stateMutability":"pure"},{"type":"function","name":"verifyTraceEvaluationAtIndex","inputs":[{"name":"leaf","type":"bytes32","internalType":"bytes32"},{"name":"index","type":"uint256","internalType":"uint256"},{"name":"siblings","type":"bytes32[]","internalType":"bytes32[]"},{"name":"expectedRoot","type":"bytes32","internalType":"bytes32"}],"outputs":[{"name":"valid","type":"bool","internalType":"bool"}],"stateMutability":"pure"},{"type":"function","name":"verifyTraceEvaluationsBatch","inputs":[{"name":"leaves","type":"bytes32[]","internalType":"bytes32[]"},{"name":"indices","type":"uint256[]","internalType":"uint256[]"},{"name":"allSiblings","type":"bytes32[][]","internalType":"bytes32[][]"},{"name":"expectedRoot","type":"bytes32","internalType":"bytes32"}],"outputs":[{"name":"validCount","type":"uint256","internalType":"uint256"}],"stateMutability":"pure"},{"type":"event","name":"ProofRejected","inputs":[{"name":"publicInput","type":"bytes32","indexed":true,"internalType":"bytes32"},{"name":"reason","type":"string","indexed":false,"internalType":"string"}],"anonymous":false},{"type":"event","name":"ProofVerified","inputs":[{"name":"publicInput","type":"bytes32","indexed":true,"internalType":"bytes32"},{"name":"timestamp","type":"uint256","indexed":false,"internalType":"uint256"}],"anonymous":false},{"type":"event","name":"TraceEvaluationVerified","inputs":[{"name":"index","type":"uint256","indexed":true,"internalType":"uint256"},{"name":"leaf","type":"bytes32","indexed":false,"internalType":"bytes32"},{"name":"root","type":"bytes32","indexed":false,"internalType":"bytes32"}],"anonymous":false},{"type":"error","name":"InsufficientQueries","inputs":[]},{"type":"error","name":"InvalidCommitment","inputs":[]},{"type":"error","name":"InvalidDomainSize","inputs":[]},{"type":"error","name":"InvalidFRIProof","inputs":[]},{"type":"error","name":"InvalidMerkleProof","inputs":[]},{"type":"error","name":"InvalidMerkleProofDepth","inputs":[]},{"type":"error","name":"InvalidProofStructure","inputs":[]}],"bytecode":{"object":"0x6080806040523461001657611e5c908161001c8239f35b600080fdfe60e060408181526004918236101561001657600080fd5b600092833560e01c9182630d8e6e2c14610a14575081630deedb62146108f257816311c24d4e146108765781631ebbbf7b146108d65781633695a9401461087b578163387f2233146108765781633bd9e8e31461082e578163445a1527146107865781634a5730261461076a5781634af7d485146107455781634f76a98e1461072257816358afbfff1461048b57816389b92870146107065781638bad60c9146104cc578163a6538730146104a7578163ac38d7621461048b578163bc471b021461046b578163c42c381a14610424578163c568ccf414610408578163d3e59d2c14610394578163dead39c7146101e0578163e66ef92d14610147575063ff6d42381461012257600080fd5b346101435760209061013c61013636610acf565b90610fd9565b9051908152f35b5080fd5b9050346101dc5760203660031901126101dc578035906001600160401b03908183116101c557366023840112156101c557828101359182116101c9575082519161019b601f8301601f191660200184610b9f565b81835236602483830101116101c5579360208261013c949360248398018386013783010152611033565b8480fd5b634e487b7160e01b855260419052602484fd5b8280fd5b9050346101dc57600319908282360112610390578035906001600160401b0380831161037957610100809484360301126103795784519384018481108282111761037d578552828201358452602495602096808501358887015260448501358381116101dc5761025590853691880101610bd7565b8787015260648501358381116101dc5761027490853691880101610bd7565b606087015260848501358381116101dc5761029490853691880101610bd7565b608087015260a48501358381116101dc576102b490853691880101610c35565b60a087015260c48501358381116101dc57850190366023830112156101dc57848201356102e081610bc0565b926102ed8a519485610b9f565b818452828b85019260051b8201019236841161037957808201925b84841061034f57505050505060c086015260e484013591821161034c57509161033991610343949336920101610bd7565b60e0820152610cb5565b90519015158152f35b80fd5b8335888111610375578d9161036a8392853691880101610bd7565b815201930192610308565b8780fd5b8580fd5b634e487b7160e01b875260418352602487fd5b8380fd5b82843461034c57608036600319011261034c576001600160401b039280358481116101dc576103c69036908301610bd7565b93602435818111610390576103de9036908401610bd7565b9260443591821161034c5750916103fe6020959261013c94369101610c35565b9060643592610dd9565b5050346101435781600319360112610143576020905160078152f35b82843461034c57608036600319011261034c57604435906001600160401b03821161034c575060209261045d6103439236908301610bd7565b606435916024359035610d58565b82843461034c57602036600319011261034c575061034360209235610f38565b5050346101435781600319360112610143576020905160808152f35b5050346101435760209067ffffffff000000016104c336610acf565b90925192098152f35b83833461014357602090816003193601126101dc5783356001600160401b038111610390576104fe9036908601610bd7565b8051156106cf5780516000198101908082116106bc571661066d576105238151610ef9565b94845b825181101561058d57806105786105406105889386610d2e565b518651907051535f535441524b5f54524143455f563160781b898301528782015260608381830152815261057381610b4d565b611033565b610582828a610d2e565b52610d09565b610526565b848285888a5b805160019081811115610643576105ab90821c610ef9565b9183825b6105bc575b505050610593565b835181101561063e5780831b6001600160ff1b038216820361062b576105e28184610d2e565b5190848101809111610618579161060861061292610601879587610d2e565b5190610f9c565b6105828288610d2e565b906105af565b634e487b7160e01b875260118952602487fd5b634e487b7160e01b865260118852602486fd5b6105b4565b5050919282511561065a5750508201519051908152f35b634e487b7160e01b825260329052602490fd5b815162461bcd60e51b8152808601849052602360248201527f4576616c756174696f6e20636f756e74206d75737420626520706f776572206f60448201526233101960e91b6064820152608490fd5b634e487b7160e01b865260118752602486fd5b815162461bcd60e51b81528086018490526011602482015270456d707479206576616c756174696f6e7360781b6044820152606490fd5b5050346101435781600319360112610143576020905160108152f35b5050346101435781600319360112610143576020905167ffffffff000000018152f35b5050346101435760209067ffffffff0000000161076136610acf565b90925192088152f35b5050346101435781600319360112610143576020905160508152f35b82843461034c57602036600319011261034c575081359182156107f757509067fffffffeffffffff91600191838367ffffffff00000001809306915b6107d0576020858551908152f35b858180859816146107ec575b811c9282849309929592916107c2565b9482849109946107dc565b6020606492519162461bcd60e51b8352820152601260248201527143616e6e6f7420696e76657274207a65726f60701b6044820152fd5b5050346101435760209061013c61084436610acf565b8351917051535f535441524b5f54524143455f563160781b868401528483015260608201526060815261057381610b4d565b610aea565b82843461034c5761088b36610acf565b83929192519260208401528383015282825260608201908282106001600160401b038311176108c35760208461013c85858352611033565b634e487b7160e01b815260418552602490fd5b50503461014357816003193601126101435760209051600a8152f35b9050346101dc5761090236610acf565b91909382156109d1576000198301908382116109be5750821661097b575060019067ffffffff0000000004600782825b6109435760208561013c8887610fd9565b80808495941614610967575b67ffffffff000000019293811c928284930991610932565b67ffffffff0000000182819409925061094f565b606490602084519162461bcd60e51b8352820152601e60248201527f446f6d61696e2073697a65206d75737420626520706f776572206f66203200006044820152fd5b634e487b7160e01b815260118352602490fd5b835162461bcd60e51b8152602081840152601c60248201527f446f6d61696e2073697a65206d75737420626520706f736974697665000000006044820152606490fd5b83853461034c578060031936011261034c5750610a3082610b1c565b600d82526c29aa20a925ab32b934b334b2b960991b6020830152610a8b8151610a5881610b1c565b60058152640302e322e360dc1b6020820152610a7d8351948486958652850190610a8f565b908382036020850152610a8f565b0390f35b919082519283825260005b848110610abb575050826000602080949584010152601f8019910116010190565b602081830181015184830182015201610a9a565b6040906003190112610ae5576004359060243590565b600080fd5b34610ae5576020610b13610afd36610acf565b9190604051908482015283815261057381610b1c565b14604051908152f35b604081019081106001600160401b03821117610b3757604052565b634e487b7160e01b600052604160045260246000fd5b608081019081106001600160401b03821117610b3757604052565b61032081019081106001600160401b03821117610b3757604052565b60a081019081106001600160401b03821117610b3757604052565b90601f801991011681019081106001600160401b03821117610b3757604052565b6001600160401b038111610b375760051b60200190565b81601f82011215610ae557803591610bee83610bc0565b92610bfc6040519485610b9f565b808452602092838086019260051b820101928311610ae5578301905b828210610c26575050505090565b81358152908301908301610c18565b9080601f83011215610ae557813590610c4d82610bc0565b92610c5b6040519485610b9f565b828452602092838086019160051b83010192808411610ae557848301915b848310610c895750505050505090565b82356001600160401b038111610ae5578691610caa84848094890101610bd7565b815201920191610c79565b610cbe81610f50565b15610d0357805115610d0357602081015115610d035760408101515115610d0357605060808201515110610d035760e060049101515111610cfe57600190565b600090565b50600090565b6000198114610d185760010190565b634e487b7160e01b600052601160045260246000fd5b8051821015610d425760209160051b010190565b634e487b7160e01b600052603260045260246000fd5b93919384518015908115610dce575b50610dc45790916000925b8551841015610dbc57610da790610d898588610d2e565b51600194828616610dad5790610d9e91610f9c565b935b1c93610d09565b92610d72565b610db691610f9c565b93610da0565b509214925050565b5050915050600090565b601091501138610d67565b90936000809383518751811490811591610eed575b50610ee3579392959183925b8751841015610ed957610e0d8487610d2e565b519485518015908115610ece575b50610ebf57610e2a858a610d2e565b5198610e368684610d2e565b519382945b8851861015610e8557610e7090610e52878b610d2e565b5160019d828f16610e765790610e6791610f9c565b9c5b1c95610d09565b94610e3b565b610e7f91610f9c565b9c610e69565b50959299909650889197935014610eaa575b610ea090610d09565b9290949396610dfa565b91610eb7610ea091610d09565b929050610e97565b959193610ea091989550610d09565b601091501138610e1b565b5094509450505050565b5050935050905090565b90508151141538610dee565b90610f0382610bc0565b610f106040519182610b9f565b8281528092610f21601f1991610bc0565b0190602036910137565b91908201809211610d1857565b8015610d0357600019810190808211610d1857161590565b604081015151906060810151518203610f955760a08101515190608081015151809203610f8d5760c001515103610d0357601010610cfe57600190565b505050600090565b5050600090565b610fd691604051917151535f535441524b5f4d45524b4c455f563160701b6020840152604083015260608201526060815261057381610b4d565b90565b600190828267ffffffff00000001809306915b610ff857505050905090565b8080861614611016575b829394811c92828493099294939291610fec565b82828195099350611002565b906019811015610d425760051b0190565b600060805260405161104481610b68565b610320368237608052805160018101808211610d18576088900491600183018311610d1857600092915b6001830184106111e457505050506080516001600160401b038151166fffffffffffffffff0000000000000000602083015160401b161760408201519160606001600160401b0360c01b91015160c01b16916001600160401b0360801b9060801b1617177eff00ff00ff00ff00ff00ff00ff00ff00ff00ff00ff00ff00ff00ff00ff00ff7fff00ff00ff00ff00ff00ff00ff00ff00ff00ff00ff00ff00ff00ff00ff00ff008260081b169160081c16177dffff0000ffff0000ffff0000ffff0000ffff0000ffff0000ffff0000ffff7fffff0000ffff0000ffff0000ffff0000ffff0000ffff0000ffff0000ffff00008260101b169160101c16177bffffffff00000000ffffffff00000000ffffffff00000000ffffffff7fffffffff00000000ffffffff00000000ffffffff00000000ffffffff000000008260201b169160201c161777ffffffffffffffff0000000000000000ffffffffffffffff80198260401b169160401c16178060801b9060801c1790565b9091929384608881020460881485151715610d1857936000935b601185101561131757600090815b60088310156112d4578660031b87810460081488151715610d18578361123861123d9260888802610f2b565b610f2b565b8581101561128c578651811015610d425786016020015160f81c905b8360031b9184830460081485151715610d18576112869260ff6001600160401b039216901b161792610d09565b9161120c565b80860361129c5750600690611259565b608880860201806088870211610d18576087608887020111610d185760888502608701036112cc57608090611259565b600090611259565b61130e92509692969590956001600160401b0390816112f584608051611022565b5116189061130583608051611022565b91169052610d09565b939490946111fe565b935091909161032060405161132b81610b68565b36903760405161133a81610b84565b60a03682376040519061134c82610b84565b60a036833760405161032081018181106001600160401b03821117610b37576040526000815260016020820152603e6040820152601c6060820152601b6080820152602460a0820152602c60c0820152600660e0820152603761010082015260146101208201526003610140820152600a610160820152602b61018082015260196101a082015260276101c082015260296101e0820152602d610200820152600f61022082015260156102408201526008610260820152601261028082015260026102a0820152603d6102c082015260386102e0820152600e6103008201526040518060a052806103008101106001600160401b0361030083011117610b3757806103006001920160405252618082602060a051015267800000000000808a604060a0510152678000000080008000606060a051015261808b608060a0510152638000000160a08051015267800000008000808160c060a051015267800000000000800960e060a0510152608a61010060a0510152608861012060a0510152638000800961014060a0510152638000000a61016060a0510152638000808b61018060a051015267800000000000008b6101a060a05101526780000000000080896101c060a05101526780000000000080036101e060a051015267800000000000800261020060a051015267800000000000008061022060a051015261800a61024060a051015267800000008000000a61026060a051015267800000008000808161028060a05101526780000000000080806102a060a051015263800000016102c060a05101526780000000800080086102e060a05101526000915b601883106115c757505050506115be600191610d09565b9392905061106e565b9491966001600160401b03608099929794995181610280818351168260a08501511618826101408501511618826101e0850151161892015116181686526080516001600160401b036102a0816020840151168260c0850151161882610160850151161882610200850151161892015116186001600160401b03811660208801526001600160401b03608051816102c0816040840151168260e0850151161882610180850151161882610220850151161892015116181660408801526001600160401b03608051816102e081606084015116826101008501511618826101a0850151161882610240850151161892015116181660608801526001600160401b0380806080518161030081608084015116826101208501511618826101c085015116188261026085015116189201511618168060808b015281600185603f1c1667fffffffffffffffe8660011b16178218168d528c6020838c611745826040818451169301511667fffffffffffffffe600182603f1c169160011b161790565b18169101528c6040838c611779826060816020850151169301511667fffffffffffffffe600182603f1c169160011b161790565b18169101528c6060838c6117ad826080816040850151169301511667fffffffffffffffe600182603f1c169160011b161790565b18169101528c6080838c6117de828060608401511692511667fffffffffffffffe600182603f1c169160011b161790565b18169101526080519367fffffffffffffffe600182603f1c169160011b1617181681835116181690526001600160401b0360208a0151166001600160401b036020608051019181835116181690526001600160401b0360408a0151166001600160401b036040608051019181835116181690526001600160401b0360608a0151166001600160401b036060608051019181835116181690526001600160401b0360808a0151166001600160401b0360808051019181835116181690526001600160401b038951166001600160401b0360a0608051019181835116181690526001600160401b0360208a0151166001600160401b0360c0608051019181835116181690526001600160401b0360408a0151166001600160401b0360e0608051019181835116181690526001600160401b0360608a0151166001600160401b03610100608051019181835116181690526001600160401b0360808a0151166001600160401b03610120608051019181835116181690526001600160401b038951166001600160401b03610140608051019181835116181690526001600160401b0360208a0151166001600160401b03610160608051019181835116181690526001600160401b0360408a0151166001600160401b03610180608051019181835116181690526001600160401b0360608a0151166001600160401b036101a0608051019181835116181690526001600160401b0360808a0151166001600160401b036101c0608051019181835116181690526001600160401b038951166001600160401b036101e0608051019181835116181690526001600160401b0360208a0151166001600160401b03610200608051019181835116181690526001600160401b0360408a0151166001600160401b03610220608051019181835116181690526001600160401b0360608a0151166001600160401b03610240608051019181835116181690526001600160401b0360808a0151166001600160401b03610260608051019181835116181690526001600160401b038951166001600160401b03610280608051019181835116181690526001600160401b0360208a0151166001600160401b036102a0608051019181835116181690526001600160401b0360408a0151166001600160401b036102c0608051019181835116181690526001600160401b0360608a0151166001600160401b036102e0608051019181835116181690526001600160401b0360808a0151166001600160401b0361030060805101918183511618169052611b926040518060c052610b68565b6103203660c0513760005b60198110611d59575060005b600580821015611d195780828102048203610d1857611bcc82820260c051611022565b51908281026001810110610d1857611beb60018483020160c051611022565b518184026002810110610d1857611c0960028584020160c051611022565b51918481026003810110610d1857611c2860038683020160c051611022565b516004919086820280840110611d0457926001600160401b03611cf18489858985998787611cff9f9e81819f9d611c68829e918a8493020160c051611022565b519681611c798b8b02608051611022565b961619161691161816905286611c96600186860201608051611022565b9a16998780838d191616818b16181690528680611cba600287870201608051611022565b92169a81848d191616181690528580611cda600386860201608051611022565b921699818d8c191616181690520201608051611022565b951619161618169052610d09565b611ba9565b601183634e487b7160e01b6000525260246000fd5b505096611d539098939691989592956001600160401b038160051b60a0510151166001600160401b03608051918183511618169052610d09565b916115a7565b600581066001600160ff1b0381169003610d18576003600582048102046005820403610d18576005611d9581830460030282840660011b610f2b565b0690611dc16001600160401b03611dae83608051611022565b5116611dba838c611022565b5190611df8565b6005838102048303610d18576001600160401b03611305611deb611df39560050260058604610f2b565b60c051611022565b611b9d565b8115611e21576001600160401b038091168260400360408111610d18578183911c16921b161790565b90509056fea2646970667358221220faabbed8424a2de98c7899e6b6983ac804d7b95be5b28c99358515f72ca2522964736f6c63430008140033","linkReferences":{}},"methodIdentifiers":{"DEFAULT_TRACE_DEPTH()":"1ebbbf7b","FIELD_MODULUS()":"4f76a98e","MAX_FRI_LAYERS()":"89b92870","MIN_QUERIES()":"4a573026","PRIMITIVE_ROOT()":"c568ccf4","SECURITY_LEVEL()":"ac38d762","computeDomainElement(uint256,uint256)":"0deedb62","computeTraceLeaf(uint256,uint256)":"3bd9e8e3","computeTraceRoot(uint256[])":"8bad60c9","fieldAdd(uint256,uint256)":"4af7d485","fieldExp(uint256,uint256)":"ff6d4238","fieldInverse(uint256)":"445a1527","fieldMul(uint256,uint256)":"a6538730","getVersion()":"0d8e6e2c","hashData(bytes)":"e66ef92d","hashPair(bytes32,bytes32)":"3695a940","isValidDomainSize(uint256)":"bc471b02","securityLevel()":"58afbfff","verifyConstraintCommitment(bytes32,bytes32)":"387f2233","verifyProof((bytes32,bytes32,bytes32[],uint256[],uint256[],bytes32[][],uint256[][],uint256[]),bytes32)":"dead39c7","verifyTraceCommitment(bytes32,bytes32)":"11c24d4e","verifyTraceEvaluationAtIndex(bytes32,uint256,bytes32[],bytes32)":"c42c381a","verifyTraceEvaluationsBatch(bytes32[],uint256[],bytes32[][],bytes32)":"d3e59d2c"},"id":28}