{"abi":[{"type":"constructor","inputs":[],"stateMutability":"nonpayable"},{"type":"receive","stateMutability":"payable"},{"type":"function","name":"BPS_DENOMINATOR","inputs":[],"outputs":[{"name":"","type":"uint256","internalType":"uint256"}],"stateMutability":"view"},{"type":"function","name":"EMERGENCY_BOND_BPS","inputs":[],"outputs":[{"name":"","type":"uint256","internalType":"uint256"}],"stateMutability":"view"},{"type":"function","name":"EMERGENCY_TIMELOCK","inputs":[],"outputs":[{"name":"","type":"uint256","internalType":"uint256"}],"stateMutability":"view"},{"type":"function","name":"EMERGENCY_TIMEOUT","inputs":[],"outputs":[{"name":"","type":"uint256","internalType":"uint256"}],"stateMutability":"view"},{"type":"function","name":"MIN_EMERGENCY_BOND","inputs":[],"outputs":[{"name":"","type":"uint256","internalType":"uint256"}],"stateMutability":"view"},{"type":"function","name":"NORMAL_TIMELOCK","inputs":[],"outputs":[{"name":"","type":"uint256","internalType":"uint256"}],"stateMutability":"view"},{"type":"function","name":"calculateEmergencyBond","inputs":[{"name":"amount","type":"uint256","internalType":"uint256"}],"outputs":[{"name":"bond","type":"uint256","internalType":"uint256"}],"stateMutability":"pure"},{"type":"function","name":"claim","inputs":[{"name":"txHash","type":"bytes32","internalType":"bytes32"},{"name":"recipient","type":"address","internalType":"address"}],"outputs":[],"stateMutability":"nonpayable"},{"type":"function","name":"emergencyUnlock","inputs":[{"name":"txHash","type":"bytes32","internalType":"bytes32"},{"name":"recipient","type":"address","internalType":"address"}],"outputs":[],"stateMutability":"payable"},{"type":"function","name":"getCPProtectionLevel","inputs":[{"name":"cpNumber","type":"uint8","internalType":"uint8"}],"outputs":[{"name":"","type":"string","internalType":"string"}],"stateMutability":"pure"},{"type":"function","name":"getEmergencyBond","inputs":[{"name":"txHash","type":"bytes32","internalType":"bytes32"}],"outputs":[{"name":"bond","type":"uint256","internalType":"uint256"}],"stateMutability":"view"},{"type":"function","name":"getStateRoot","inputs":[],"outputs":[{"name":"","type":"bytes32","internalType":"bytes32"}],"stateMutability":"view"},{"type":"function","name":"getTransaction","inputs":[{"name":"txHash","type":"bytes32","internalType":"bytes32"}],"outputs":[{"name":"","type":"tuple","internalType":"struct ICoreLayer.BridgeTx","components":[{"name":"txHash","type":"bytes32","internalType":"bytes32"},{"name":"token","type":"address","internalType":"address"},{"name":"amount","type":"uint256","internalType":"uint256"},{"name":"recipient","type":"bytes32","internalType":"bytes32"},{"name":"timestamp","type":"uint256","internalType":"uint256"},{"name":"unlockTime","type":"uint256","internalType":"uint256"},{"name":"isEmergency","type":"bool","internalType":"bool"},{"name":"executed","type":"bool","internalType":"bool"}]}],"stateMutability":"view"},{"type":"function","name":"isLocked","inputs":[{"name":"txHash","type":"bytes32","internalType":"bytes32"}],"outputs":[{"name":"","type":"bool","internalType":"bool"}],"stateMutability":"view"},{"type":"function","name":"lock","inputs":[{"name":"token","type":"address","internalType":"address"},{"name":"amount","type":"uint256","internalType":"uint256"},{"name":"recipient","type":"bytes32","internalType":"bytes32"}],"outputs":[{"name":"txHash","type":"bytes32","internalType":"bytes32"}],"stateMutability":"payable"},{"type":"function","name":"resync","inputs":[{"name":"txHash","type":"bytes32","internalType":"bytes32"},{"name":"newStateRoot","type":"bytes32","internalType":"bytes32"},{"name":"proof","type":"bytes","internalType":"bytes"}],"outputs":[],"stateMutability":"nonpayable"},{"type":"function","name":"unlock","inputs":[{"name":"txHash","type":"bytes32","internalType":"bytes32"},{"name":"proof","type":"bytes","internalType":"bytes"},{"name":"recipient","type":"address","internalType":"address"}],"outputs":[],"stateMutability":"nonpayable"},{"type":"function","name":"verifyCPCompliance","inputs":[],"outputs":[{"name":"","type":"bool","internalType":"bool"}],"stateMutability":"pure"},{"type":"function","name":"verifyState","inputs":[{"name":"stateRoot","type":"bytes32","internalType":"bytes32"},{"name":"proof","type":"bytes","internalType":"bytes"}],"outputs":[{"name":"","type":"bool","internalType":"bool"}],"stateMutability":"pure"},{"type":"event","name":"AssetLocked","inputs":[{"name":"txHash","type":"bytes32","indexed":true,"internalType":"bytes32"},{"name":"sender","type":"address","indexed":true,"internalType":"address"},{"name":"token","type":"address","indexed":true,"internalType":"address"},{"name":"amount","type":"uint256","indexed":false,"internalType":"uint256"},{"name":"recipient","type":"bytes32","indexed":false,"internalType":"bytes32"}],"anonymous":false},{"type":"event","name":"AssetUnlocked","inputs":[{"name":"txHash","type":"bytes32","indexed":true,"internalType":"bytes32"},{"name":"recipient","type":"address","indexed":true,"internalType":"address"},{"name":"amount","type":"uint256","indexed":false,"internalType":"uint256"},{"name":"isEmergency","type":"bool","indexed":false,"internalType":"bool"}],"anonymous":false},{"type":"event","name":"EmergencyBondDeposited","inputs":[{"name":"txHash","type":"bytes32","indexed":true,"internalType":"bytes32"},{"name":"amount","type":"uint256","indexed":false,"internalType":"uint256"}],"anonymous":false},{"type":"event","name":"EmergencyBondReturned","inputs":[{"name":"txHash","type":"bytes32","indexed":true,"internalType":"bytes32"},{"name":"recipient","type":"address","indexed":false,"internalType":"address"},{"name":"amount","type":"uint256","indexed":false,"internalType":"uint256"}],"anonymous":false},{"type":"event","name":"Resynced","inputs":[{"name":"txHash","type":"bytes32","indexed":true,"internalType":"bytes32"},{"name":"newStateRoot","type":"bytes32","indexed":false,"internalType":"bytes32"}],"anonymous":false},{"type":"event","name":"StateRootUpdated","inputs":[{"name":"oldRoot","type":"bytes32","indexed":true,"internalType":"bytes32"},{"name":"newRoot","type":"bytes32","indexed":true,"internalType":"bytes32"}],"anonymous":false},{"type":"event","name":"StateVerified","inputs":[{"name":"stateRoot","type":"bytes32","indexed":true,"internalType":"bytes32"},{"name":"verified","type":"bool","indexed":false,"internalType":"bool"}],"anonymous":false},{"type":"error","name":"CPComplianceFailed","inputs":[{"name":"cpNumber","type":"uint8","internalType":"uint8"}]},{"type":"error","name":"InvalidAmount","inputs":[]},{"type":"error","name":"StateVerificationFailed","inputs":[]},{"type":"error","name":"TimeLockNotExpired","inputs":[{"name":"unlockTime","type":"uint256","internalType":"uint256"},{"name":"currentTime","type":"uint256","internalType":"uint256"}]},{"type":"error","name":"TransactionAlreadyExecuted","inputs":[{"name":"txHash","type":"bytes32","internalType":"bytes32"}]},{"type":"error","name":"TransactionNotFound","inputs":[{"name":"txHash","type":"bytes32","internalType":"bytes32"}]}],"bytecode":{"object":"0x608060405234801561000f575f80fd5b505f8055611ffc806100205f395ff3fe608060405260043610610113575f3560e01c806396c144f01161009d578063debde58d11610062578063debde58d146103d5578063e0dbb99e14610401578063e1a4521814610420578063e734af6014610435578063e93a379f1461044b575f80fd5b806396c144f01461035e5780639a146a151461037d578063ca3369c614610390578063cad723ce146103a3578063cd605a1a146103c2575f80fd5b80635d45f5a1116100e35780635d45f5a1146102ef57806360d7442b146103025780637f264076146103185780638be9963a1461032e578063901b0a6b14610349575f80fd5b8063318360a71461011e57806332a16f4e1461013f5780634aae13ca146101735780634ec05d6b146102b6575f80fd5b3661011a57005b5f80fd5b348015610129575f80fd5b5061013d610138366004611c4e565b61046a565b005b34801561014a575f80fd5b5061015e610159366004611ca7565b610564565b60405190151581526020015b60405180910390f35b34801561017e575f80fd5b5061024d61018d366004611ca7565b60408051610100810182525f80825260208201819052918101829052606081018290526080810182905260a0810182905260c0810182905260e0810191909152505f90815260026020818152604092839020835161010080820186528254825260018301546001600160a01b03169382019390935292810154938301939093526003830154606083015260048301546080830152600583015460a083015260069092015460ff808216151560c0840152929004909116151560e082015290565b60405161016a9190815181526020808301516001600160a01b03169082015260408083015190820152606080830151908201526080808301519082015260a0808301519082015260c08083015115159082015260e0918201511515918101919091526101000190565b3480156102c1575f80fd5b506102e16102d0366004611ca7565b5f9081526003602052604090205490565b60405190815260200161016a565b3480156102fa575f80fd5b50600161015e565b34801561030d575f80fd5b506102e162093a8081565b348015610323575f80fd5b506102e16203f48081565b348015610339575f80fd5b506102e16706f05b59d3b2000081565b348015610354575f80fd5b506102e16101f481565b348015610369575f80fd5b5061013d610378366004611cbe565b610592565b61013d61038b366004611cbe565b6108cb565b6102e161039e366004611ce8565b610a17565b3480156103ae575f80fd5b506102e16103bd366004611ca7565b610c0b565b3480156103cd575f80fd5b505f546102e1565b3480156103e0575f80fd5b506103f46103ef366004611d18565b610c4b565b60405161016a9190611d38565b34801561040c575f80fd5b5061015e61041b366004611d84565b610d45565b34801561042b575f80fd5b506102e161271081565b348015610440575f80fd5b506102e16201518081565b348015610456575f80fd5b5061013d610465366004611dcb565b610d59565b5f848152600260205260409020805461049e5760405163925fea7360e01b8152600481018690526024015b60405180910390fd5b6006810154610100900460ff16156104cc576040516331744cb760e01b815260048101869052602401610495565b6104d85f548585610e24565b6104f557604051635763b59560e11b815260040160405180910390fd5b6105026201518042611e2d565b600582015560068101805460ff191690556002810154604080519182525f60208301526001600160a01b0384169187917fd39928cd1b0bfab64a4efdeff9408c2c4b3e65ecbdb5da3f4b9c8d8953483dad910160405180910390a35050505050565b5f81815260026020526040812080541580159061058b57506006810154610100900460ff16155b9392505050565b5f82815260026020526040902080546105c15760405163925fea7360e01b815260048101849052602401610495565b6006810154610100900460ff16156105ef576040516331744cb760e01b815260048101849052602401610495565b80600501545f0361062257600581015460405163336dc98d60e11b81526004810191909152426024820152604401610495565b806005015442101561065657600581015460405163336dc98d60e11b81526004810191909152426024820152604401610495565b5f8381526004602052604090205460ff16156106885760405163925fea7360e01b815260048101849052602401610495565b60068101805461ff00191661010017905560018101546001600160a01b03166107485760028101546040515f916001600160a01b038516918381818185875af1925050503d805f81146106f6576040519150601f19603f3d011682016040523d82523d5f602084013e6106fb565b606091505b50509050806107425760405162461bcd60e51b8152602060048201526013602482015272115512081d1c985b9cd9995c8819985a5b1959606a1b6044820152606401610495565b506107c5565b6001810154600282015460405163a9059cbb60e01b81526001600160a01b038581166004830152602482019290925291169063a9059cbb906044016020604051808303815f875af115801561079f573d5f803e3d5ffd5b505050506040513d601f19601f820116820180604052508101906107c39190611e40565b505b600681015460ff1680156107e557505f8381526003602052604090205415155b156108c6575f838152600360205260408082208054908390559051909190339083908381818185875af1925050503d805f811461083d576040519150601f19603f3d011682016040523d82523d5f602084013e610842565b606091505b50509050806108885760405162461bcd60e51b8152602060048201526012602482015271109bdb99081c995d1d5c9b8819985a5b195960721b6044820152606401610495565b604080513381526020810184905286917fbb83dbba107388ca7448c18d67469b2472e836270b1689c810e4db428adb27c4910160405180910390a250505b505050565b5f82815260026020526040902080546108fa5760405163925fea7360e01b815260048101849052602401610495565b6006810154610100900460ff1615610928576040516331744cb760e01b815260048101849052602401610495565b5f6109368260020154610c0b565b9050803410156109595760405163162908e360e11b815260040160405180910390fd5b5f84815260036020526040902034905561097662093a8042611e2d565b600583015560068201805460ff1916600117905560405184907fe822ba83fb8e860ea15bc7744c125143cd01680309d7b026cfa26e1e1e2314b6906109be9034815260200190565b60405180910390a2600282015460408051918252600160208301526001600160a01b0385169186917fd39928cd1b0bfab64a4efdeff9408c2c4b3e65ecbdb5da3f4b9c8d8953483dad910160405180910390a350505050565b5f825f03610a385760405163162908e360e11b815260040160405180910390fd5b610a43848484610e4b565b90506001600160a01b038416610a7857823414610a735760405163162908e360e11b815260040160405180910390fd5b610b0d565b3415610a975760405163162908e360e11b815260040160405180910390fd5b6040516323b872dd60e01b8152336004820152306024820152604481018490526001600160a01b038516906323b872dd906064016020604051808303815f875af1158015610ae7573d5f803e3d5ffd5b505050506040513d601f19601f82011682018060405250810190610b0b9190611e40565b505b6040805161010080820183528382526001600160a01b0387811660208085018281528587018a8152606087018a815242608089019081525f60a08a0181815260c08b0182815260e08c018381528e84526002808a52938e90209c518d55965160018d0180546001600160a01b03191691909b16179099559351908a015590516003890155516004880155516005870155925160069095018054935161ffff1990941695151561ff001916959095179215159093029190911790925582518681529081018590529091339184917fb906e94bf919dbe49a821a12366ac41678794d69ac294b1d63fec8781eae5aff910160405180910390a49392505050565b5f80612710610c1c6101f485611e5f565b610c269190611e8a565b90506706f05b59d3b200008111610c45576706f05b59d3b2000061058b565b92915050565b60608160ff16600103610c77576040518060600160405280602e8152602001611f70602e913992915050565b8160ff16600203610ca157604051806060016040528060298152602001611f9e6029913992915050565b8160ff16600303610ccb57604051806060016040528060318152602001611ef06031913992915050565b8160ff16600403610cf557604051806060016040528060268152602001611f216026913992915050565b8160ff16600503610d1f57604051806060016040528060298152602001611f476029913992915050565b505060408051808201909152600a8152690554e4b4e4f574e2043560b41b602082015290565b5f610d51848484610e24565b949350505050565b5f8481526002602052604090208054610d885760405163925fea7360e01b815260048101869052602401610495565b610d93848484610e24565b610db057604051635763b59560e11b815260040160405180910390fd5b5f80548582556040519091869183917fad0a3d5b8b6cb0d7caca7d3d27b558603c571b923e8d8e5cb9b4ea4e9443959491a3857f1a30e4a209d2df1f7516cd316a4e52641d0b3d93e48c7511e648fb4d0db8df4786604051610e1491815260200190565b60405180910390a2505050505050565b5f818103610e3357505f61058b565b83610e405750600161058b565b506020111592915050565b600180545f9182610e5b83611e9d565b9091555050600154604080517f4c9f5e2a1b3d8c7f6e0a9b2d5c8f1e4a7b0c3d6e9f2a5b8c1d4e7f0a3b6c9d2e60208201524681830152606087811b6bffffffffffffffffffffffff19169082015260748101869052609481018590524260b482015260d4808201939093528151808203909301835260f4019052610edf81610ee8565b95945050505050565b5f610ef1611bb2565b82515f6088610f01836001611e2d565b610f0b9190611e8a565b610f16906001611e2d565b90505f5b81811015611032575f610f2e608883611e5f565b90505f5b601181101561101d575f805b6008811015610feb575f81610f54856008611e5f565b610f5e9087611e2d565b610f689190611e2d565b90505f88821015610f94578b8281518110610f8557610f85611eb5565b016020015160f81c9050610fcb565b888203610fa357506006610fcb565b6001610fb0608888611e2d565b610fba9190611ec9565b8203610fc857506080610fcb565b505f5b610fd6836008611e5f565b60ff909116901b929092179150600101610f3e565b5080878360198110610fff57610fff611eb5565b602002018051919091186001600160401b0316905250600101610f32565b50611027856111c9565b945050600101610f1a565b5060c083600360200201516001600160401b0316901b608084600260200201516001600160401b0316901b604085600160200201516001600160401b0316901b855f60200201516001600160401b03161717179350610edf847bffffffff000000000000000000000000ffffffff00000000000000007eff000000ff000000ff000000ff000000ff000000ff000000ff000000ff0000600883811c9182167fff000000ff000000ff000000ff000000ff000000ff000000ff000000ff0000009490911b93841617601090811c7cff000000ff000000ff000000ff000000ff000000ff000000ff000000ff9092167dff000000ff000000ff000000ff000000ff000000ff000000ff000000ff009094169390931790921b91909117602081811c9283167fffffffff000000000000000000000000ffffffff0000000000000000000000009290911b91821617604090811c73ffffffff000000000000000000000000ffffffff90931677ffffffff000000000000000000000000ffffffff0000000090921691909117901b17608081811c91901b1790565b6111d1611bb2565b816111da611bd1565b6111e2611bd1565b5f6040518061032001604052805f815260200160018152602001603e8152602001601c8152602001601b815260200160248152602001602c815260200160068152602001603781526020016014815260200160038152602001600a8152602001602b8152602001601981526020016027815260200160298152602001602d8152602001600f815260200160158152602001600881526020016012815260200160028152602001603d815260200160388152602001600e81525090505f60405180610300016040528060016001600160401b03166001600160401b031681526020016180826001600160401b03166001600160401b0316815260200167800000000000808a6001600160401b03166001600160401b031681526020016780000000800080006001600160401b03166001600160401b0316815260200161808b6001600160401b03166001600160401b0316815260200163800000016001600160401b03166001600160401b031681526020016780000000800080816001600160401b03166001600160401b031681526020016780000000000080096001600160401b03166001600160401b03168152602001608a6001600160401b03166001600160401b0316815260200160886001600160401b03166001600160401b0316815260200163800080096001600160401b03166001600160401b03168152602001638000000a6001600160401b03166001600160401b03168152602001638000808b6001600160401b03166001600160401b0316815260200167800000000000008b6001600160401b03166001600160401b031681526020016780000000000080896001600160401b03166001600160401b031681526020016780000000000080036001600160401b03166001600160401b031681526020016780000000000080026001600160401b03166001600160401b031681526020016780000000000000806001600160401b03166001600160401b0316815260200161800a6001600160401b03166001600160401b0316815260200167800000008000000a6001600160401b03166001600160401b031681526020016780000000800080816001600160401b03166001600160401b031681526020016780000000000080806001600160401b03166001600160401b0316815260200163800000016001600160401b03166001600160401b031681526020016780000000800080086001600160401b03166001600160401b031681525090505f5b6018811015611b74576102808601516101e087015161014088015160a08901518951181818186001600160401b0390811686526102a087015161020088015161016089015160c08a01516020808c01519091189091189091189091188216908701526102c087015161022088015161018089015160e08a01516040808c01519091189091189091189091188216908701526102e08701516102408801516101a08901516101008a01516060808c01519091189091189091189091188216908701526103008701516102608801516101c08901516101208a01516080808c0151909118909118909118909118909116908601526116768560015b60200201516001611b80565b6080860151186001600160401b0316845261169285600261166a565b8551186001600160401b031660208501526116ae85600361166a565b6020860151186001600160401b031660408501526116cd85600461166a565b6040860151186001600160401b031660608501526116eb855f61166a565b6060808701516001600160401b0392188216608080880191825287518a511884168a5260208881018051918c01805190921886169091526040808a018051918d01805190921887169091528985018051958d01805190961887169095528351928c0180519093188616909252885160a08c01805190911886169052805160c08c01805190911886169052815160e08c0180519091188616905283516101008c0180519091188616905282516101208c0180519091188616905288516101408c0180519091188616905280516101608c0180519091188616905281516101808c0180519091188616905283516101a08c0180519091188616905282516101c08c0180519091188616905288516101e08c0180519091188616905280516102008c0180519091188616905281516102208c0180519091188616905283516102408c0180519091188616905282516102608c0180519091188616905288516102808c01805190911886169052516102a08b01805190911885169052516102c08a0180519091188416905290516102e089018051909118831690525161030088018051909118909116905261189a611bb2565b5f5b6019811015611970575f6118b1600583611edc565b90505f6118bf600584611e8a565b9050805f60056118d0836003611e5f565b6118db866002611e5f565b6118e59190611e2d565b6118ef9190611edc565b90506119278c866019811061190657611906611eb5565b60200201518a876019811061191d5761191d611eb5565b6020020151611b80565b86611933836005611e5f565b61193d9085611e2d565b6019811061194d5761194d611eb5565b6001600160401b03909216602092909202015250506001909201915061189c9050565b505f5b6005811015611b45575f611988826005611e5f565b90505f83826019811061199d5761199d611eb5565b602002015190505f846119b1846001611e2d565b601981106119c1576119c1611eb5565b602002015190505f856119d5856002611e2d565b601981106119e5576119e5611eb5565b602002015190505f866119f9866003611e2d565b60198110611a0957611a09611eb5565b602002015190505f87611a1d876004611e2d565b60198110611a2d57611a2d611eb5565b602002015190508284191685188e8760198110611a4c57611a4c611eb5565b6001600160401b0390921660209290920201528219821684188e611a71886001611e2d565b60198110611a8157611a81611eb5565b6001600160401b0390921660209290920201528119811683188e611aa6886002611e2d565b60198110611ab657611ab6611eb5565b6001600160401b0390921660209290920201528019851682188e611adb886003611e2d565b60198110611aeb57611aeb611eb5565b6001600160401b0390921660209290920201528419841681188e611b10886004611e2d565b60198110611b2057611b20611eb5565b6001600160401b03909216602092909202015250506001909401935061197392505050565b50828260188110611b5857611b58611eb5565b60200201518751186001600160401b0316875250600101611571565b50939695505050505050565b5f815f03611b8f575081610c45565b611b9a826040611ec9565b6001600160401b03841680841b911c17905092915050565b6040518061032001604052806019906020820280368337509192915050565b6040518060a001604052806005906020820280368337509192915050565b5f8083601f840112611bff575f80fd5b5081356001600160401b03811115611c15575f80fd5b602083019150836020828501011115611c2c575f80fd5b9250929050565b80356001600160a01b0381168114611c49575f80fd5b919050565b5f805f8060608587031215611c61575f80fd5b8435935060208501356001600160401b03811115611c7d575f80fd5b611c8987828801611bef565b9094509250611c9c905060408601611c33565b905092959194509250565b5f60208284031215611cb7575f80fd5b5035919050565b5f8060408385031215611ccf575f80fd5b82359150611cdf60208401611c33565b90509250929050565b5f805f60608486031215611cfa575f80fd5b611d0384611c33565b95602085013595506040909401359392505050565b5f60208284031215611d28575f80fd5b813560ff8116811461058b575f80fd5b5f602080835283518060208501525f5b81811015611d6457858101830151858201604001528201611d48565b505f604082860101526040601f19601f8301168501019250505092915050565b5f805f60408486031215611d96575f80fd5b8335925060208401356001600160401b03811115611db2575f80fd5b611dbe86828701611bef565b9497909650939450505050565b5f805f8060608587031215611dde575f80fd5b843593506020850135925060408501356001600160401b03811115611e01575f80fd5b611e0d87828801611bef565b95989497509550505050565b634e487b7160e01b5f52601160045260245ffd5b80820180821115610c4557610c45611e19565b5f60208284031215611e50575f80fd5b8151801515811461058b575f80fd5b8082028115828204841417610c4557610c45611e19565b634e487b7160e01b5f52601260045260245ffd5b5f82611e9857611e98611e76565b500490565b5f60018201611eae57611eae611e19565b5060010190565b634e487b7160e01b5f52603260045260245ffd5b81810381811115610c4557610c45611e19565b5f82611eea57611eea611e76565b50069056fe54494d455f4c4f434b53202d20323468206e6f726d616c2c20376420656d657267656e63792028696d6d757461626c6529534c415348494e47202d2051756164726174696320666f726d756c61204e5e32202a203130255452414e53504152454e4359202d20416c6c206f7065726174696f6e7320656d6974206576656e7473534841332d323536204f4e4c59202d204e6f206b656363616b32353620696e20736563757269747920706174687353454c462d435553544f4459202d204e6f2061646d696e206f7665727269646520706f737369626c65a26469706673582212209c84d6488333e9029deddbb2713710f308dae5d67cbc5e5a1e7c0b847d1273e064736f6c63430008180033","linkReferences":{}},"methodIdentifiers":{"BPS_DENOMINATOR()":"e1a45218","EMERGENCY_BOND_BPS()":"901b0a6b","EMERGENCY_TIMELOCK()":"60d7442b","EMERGENCY_TIMEOUT()":"7f264076","MIN_EMERGENCY_BOND()":"8be9963a","NORMAL_TIMELOCK()":"e734af60","calculateEmergencyBond(uint256)":"cad723ce","claim(bytes32,address)":"96c144f0","emergencyUnlock(bytes32,address)":"9a146a15","getCPProtectionLevel(uint8)":"debde58d","getEmergencyBond(bytes32)":"4ec05d6b","getStateRoot()":"cd605a1a","getTransaction(bytes32)":"4aae13ca","isLocked(bytes32)":"32a16f4e","lock(address,uint256,bytes32)":"ca3369c6","resync(bytes32,bytes32,bytes)":"e93a379f","unlock(bytes32,bytes,address)":"318360a7","verifyCPCompliance()":"5d45f5a1","verifyState(bytes32,bytes)":"e0dbb99e"},"id":26}