{"abi":[{"type":"constructor","inputs":[{"name":"_token","type":"address","internalType":"address"},{"name":"_treasury","type":"address","internalType":"address"},{"name":"_insuranceFund","type":"address","internalType":"address"},{"name":"_registry","type":"address","internalType":"address"}],"stateMutability":"nonpayable"},{"type":"function","name":"BASIS_POINTS","inputs":[],"outputs":[{"name":"","type":"uint256","internalType":"uint256"}],"stateMutability":"view"},{"type":"function","name":"BURN_ADDRESS","inputs":[],"outputs":[{"name":"","type":"address","internalType":"address"}],"stateMutability":"view"},{"type":"function","name":"BURN_SHARE","inputs":[],"outputs":[{"name":"","type":"uint256","internalType":"uint256"}],"stateMutability":"view"},{"type":"function","name":"INSURANCE_SHARE","inputs":[],"outputs":[{"name":"","type":"uint256","internalType":"uint256"}],"stateMutability":"view"},{"type":"function","name":"PROVER_SHARE","inputs":[],"outputs":[{"name":"","type":"uint256","internalType":"uint256"}],"stateMutability":"view"},{"type":"function","name":"TREASURY_SHARE","inputs":[],"outputs":[{"name":"","type":"uint256","internalType":"uint256"}],"stateMutability":"view"},{"type":"function","name":"admin","inputs":[],"outputs":[{"name":"","type":"address","internalType":"address"}],"stateMutability":"view"},{"type":"function","name":"allocateReward","inputs":[{"name":"operator","type":"address","internalType":"address"},{"name":"amount","type":"uint256","internalType":"uint256"}],"outputs":[],"stateMutability":"nonpayable"},{"type":"function","name":"claimRewards","inputs":[],"outputs":[{"name":"amount","type":"uint256","internalType":"uint256"}],"stateMutability":"nonpayable"},{"type":"function","name":"distribute","inputs":[{"name":"amount","type":"uint256","internalType":"uint256"}],"outputs":[],"stateMutability":"nonpayable"},{"type":"function","name":"getInsuranceFund","inputs":[],"outputs":[{"name":"","type":"address","internalType":"address"}],"stateMutability":"view"},{"type":"function","name":"getRewardInfo","inputs":[{"name":"operator","type":"address","internalType":"address"}],"outputs":[{"name":"","type":"tuple","internalType":"struct IRewardDistributor.RewardInfo","components":[{"name":"pendingRewards","type":"uint256","internalType":"uint256"},{"name":"totalClaimed","type":"uint256","internalType":"uint256"},{"name":"lastClaimTime","type":"uint256","internalType":"uint256"}]}],"stateMutability":"view"},{"type":"function","name":"getShares","inputs":[],"outputs":[{"name":"","type":"tuple","internalType":"struct IRewardDistributor.DistributionShares","components":[{"name":"proverShare","type":"uint256","internalType":"uint256"},{"name":"treasuryShare","type":"uint256","internalType":"uint256"},{"name":"burnShare","type":"uint256","internalType":"uint256"},{"name":"insuranceShare","type":"uint256","internalType":"uint256"}]}],"stateMutability":"view"},{"type":"function","name":"getTotalBurned","inputs":[],"outputs":[{"name":"","type":"uint256","internalType":"uint256"}],"stateMutability":"view"},{"type":"function","name":"getTotalDistributed","inputs":[],"outputs":[{"name":"","type":"uint256","internalType":"uint256"}],"stateMutability":"view"},{"type":"function","name":"getTreasury","inputs":[],"outputs":[{"name":"","type":"address","internalType":"address"}],"stateMutability":"view"},{"type":"function","name":"getUnclaimedRewards","inputs":[{"name":"operator","type":"address","internalType":"address"}],"outputs":[{"name":"","type":"uint256","internalType":"uint256"}],"stateMutability":"view"},{"type":"function","name":"insuranceFund","inputs":[],"outputs":[{"name":"","type":"address","internalType":"address"}],"stateMutability":"view"},{"type":"function","name":"registry","inputs":[],"outputs":[{"name":"","type":"address","internalType":"address"}],"stateMutability":"view"},{"type":"function","name":"setInsuranceFund","inputs":[{"name":"newInsurance","type":"address","internalType":"address"}],"outputs":[],"stateMutability":"nonpayable"},{"type":"function","name":"setShares","inputs":[{"name":"proverShare","type":"uint256","internalType":"uint256"},{"name":"treasuryShare","type":"uint256","internalType":"uint256"},{"name":"burnShare","type":"uint256","internalType":"uint256"},{"name":"insuranceShare","type":"uint256","internalType":"uint256"}],"outputs":[],"stateMutability":"nonpayable"},{"type":"function","name":"setTreasury","inputs":[{"name":"newTreasury","type":"address","internalType":"address"}],"outputs":[],"stateMutability":"nonpayable"},{"type":"function","name":"token","inputs":[],"outputs":[{"name":"","type":"address","internalType":"contract IERC20"}],"stateMutability":"view"},{"type":"function","name":"totalBurned","inputs":[],"outputs":[{"name":"","type":"uint256","internalType":"uint256"}],"stateMutability":"view"},{"type":"function","name":"totalDistributed","inputs":[],"outputs":[{"name":"","type":"uint256","internalType":"uint256"}],"stateMutability":"view"},{"type":"function","name":"treasury","inputs":[],"outputs":[{"name":"","type":"address","internalType":"address"}],"stateMutability":"view"},{"type":"event","name":"FeesDistributed","inputs":[{"name":"totalAmount","type":"uint256","indexed":false,"internalType":"uint256"},{"name":"proverAmount","type":"uint256","indexed":false,"internalType":"uint256"},{"name":"treasuryAmount","type":"uint256","indexed":false,"internalType":"uint256"},{"name":"burnAmount","type":"uint256","indexed":false,"internalType":"uint256"},{"name":"insuranceAmount","type":"uint256","indexed":false,"internalType":"uint256"}],"anonymous":false},{"type":"event","name":"RewardsClaimed","inputs":[{"name":"claimant","type":"address","indexed":true,"internalType":"address"},{"name":"amount","type":"uint256","indexed":false,"internalType":"uint256"},{"name":"totalClaimed","type":"uint256","indexed":false,"internalType":"uint256"}],"anonymous":false},{"type":"event","name":"SharesUpdated","inputs":[{"name":"proverShare","type":"uint256","indexed":false,"internalType":"uint256"},{"name":"treasuryShare","type":"uint256","indexed":false,"internalType":"uint256"},{"name":"burnShare","type":"uint256","indexed":false,"internalType":"uint256"},{"name":"insuranceShare","type":"uint256","indexed":false,"internalType":"uint256"}],"anonymous":false},{"type":"event","name":"TokensBurned","inputs":[{"name":"amount","type":"uint256","indexed":false,"internalType":"uint256"},{"name":"totalBurned","type":"uint256","indexed":false,"internalType":"uint256"}],"anonymous":false},{"type":"error","name":"InvalidAddress","inputs":[]},{"type":"error","name":"InvalidSharesSum","inputs":[]},{"type":"error","name":"NoRewardsAvailable","inputs":[]},{"type":"error","name":"NotAuthorized","inputs":[]},{"type":"error","name":"NotRegisteredOperator","inputs":[]},{"type":"error","name":"ZeroAmount","inputs":[]}],"bytecode":{"object":"0x60e060405234801562000010575f80fd5b50604051620013cb380380620013cb833981016040819052620000339162000171565b6001600160a01b0384166200005b5760405163e6c4247b60e01b815260040160405180910390fd5b6001600160a01b038316620000835760405163e6c4247b60e01b815260040160405180910390fd5b6001600160a01b038216620000ab5760405163e6c4247b60e01b815260040160405180910390fd5b6001600160a01b038116620000d35760405163e6c4247b60e01b815260040160405180910390fd5b6001600160a01b0393841660809081525f80549486166001600160a01b0319958616179055600180549386169390941692909217909255911660c0523360a052604080519182018152610fa0808352610bb8602084018190526107d09284018390526103e86060909401849052600291909155600355600455600555620001cb565b80516001600160a01b03811681146200016c575f80fd5b919050565b5f805f806080858703121562000185575f80fd5b620001908562000155565b9350620001a06020860162000155565b9250620001b06040860162000155565b9150620001c06060860162000155565b905092959194509250565b60805160a05160c051611188620002435f395f818161027201528181610e120152610f1501525f81816103740152818161063401528181610b9701528181610c7d0152610d8701525f818161039b015281816104e4015281816106e60152818161084a015281816109290152610a6401526111885ff3fe608060405234801561000f575f80fd5b5060043610610187575f3560e01c806393b998fb116100d9578063e1f1c4a711610093578063f0f442601161006e578063f0f442601461035c578063f851a4401461036f578063fc0c546a14610396578063fccc2813146103bd575f80fd5b8063e1f1c4a714610337578063efca2eed14610340578063f03b6ffc14610349575f80fd5b806393b998fb146102bc578063b55cd04b146102c5578063b7902303146102cd578063c3c05293146102e0578063d73fe0aa146102f3578063d89135cd1461032e575f80fd5b80635695fa581161014457806369a69e291161011f57806369a69e29146102455780637b1039991461026d578063829aae8f1461029457806391c05b0b146102a9575f80fd5b80635695fa581461022257806356b307031461022a57806361d027b314610233575f80fd5b806306032d741461018b578063158626f7146101c557806332696174146101ea57806334f5a17814610201578063372500ab1461020a5780633b19e84a14610212575b5f80fd5b61019e610199366004611003565b6103c6565b60408051825181526020808401519082015291810151908201526060015b60405180910390f35b6001546001600160a01b03165b6040516001600160a01b0390911681526020016101bc565b6101f3610bb881565b6040519081526020016101bc565b6101f3610fa081565b6101f3610428565b5f546001600160a01b03166101d2565b6008546101f3565b6101f36103e881565b5f546101d2906001600160a01b031681565b6101f3610253366004611003565b6001600160a01b03165f9081526006602052604090205490565b6101d27f000000000000000000000000000000000000000000000000000000000000000081565b6102a76102a2366004611023565b6105e2565b005b6102a76102b736600461104b565b6106a2565b6101f36107d081565b6007546101f3565b6001546101d2906001600160a01b031681565b6102a76102ee366004611003565b610b8c565b6102fb610c1e565b6040516101bc91908151815260208083015190820152604080830151908201526060918201519181019190915260800190565b6101f360075481565b6101f361271081565b6101f360085481565b6102a7610357366004611062565b610c72565b6102a761036a366004611003565b610d7c565b6101d27f000000000000000000000000000000000000000000000000000000000000000081565b6101d27f000000000000000000000000000000000000000000000000000000000000000081565b6101d261dead81565b6103e760405180606001604052805f81526020015f81526020015f81525090565b506001600160a01b03165f90815260066020908152604091829020825160608101845281548152600182015492810192909252600201549181019190915290565b5f61043233610e0d565b61044f576040516303fa1eaf60e41b815260040160405180910390fd5b50335f90815260066020526040812054908190036104805760405163afb0be3360e01b815260040160405180910390fd5b335f90815260066020526040812081815560010180548392906104a49084906110a5565b9091555050335f81815260066020526040808220426002909101555163a9059cbb60e01b8152600481019290925260248201839052906001600160a01b037f0000000000000000000000000000000000000000000000000000000000000000169063a9059cbb906044016020604051808303815f875af115801561052a573d5f803e3d5ffd5b505050506040513d601f19601f8201168201806040525081019061054e91906110be565b9050806105945760405162461bcd60e51b815260206004820152600f60248201526e151c985b9cd9995c8819985a5b1959608a1b60448201526064015b60405180910390fd5b335f81815260066020908152604091829020600101548251868152918201527fdacbdde355ba930696a362ea6738feb9f8bd52dfb3d81947558fd3217e23e325910160405180910390a25090565b6001600160a01b0382166106095760405163e6c4247b60e01b815260040160405180910390fd5b805f0361062957604051631f2a200560e01b815260040160405180910390fd5b336001600160a01b037f000000000000000000000000000000000000000000000000000000000000000016146106725760405163ea8e4eb560e01b815260040160405180910390fd5b6001600160a01b0382165f90815260066020526040812080548392906106999084906110a5565b90915550505050565b805f036106c257604051631f2a200560e01b815260040160405180910390fd5b6040516323b872dd60e01b8152336004820152306024820152604481018290525f907f00000000000000000000000000000000000000000000000000000000000000006001600160a01b0316906323b872dd906064016020604051808303815f875af1158015610734573d5f803e3d5ffd5b505050506040513d601f19601f8201168201806040525081019061075891906110be565b9050806107995760405162461bcd60e51b815260206004820152600f60248201526e151c985b9cd9995c8819985a5b1959608a1b604482015260640161058b565b6002545f90612710906107ac90856110dd565b6107b691906110f4565b90505f612710600260010154856107cd91906110dd565b6107d791906110f4565b90505f6127106002800154866107ed91906110dd565b6107f791906110f4565b90505f81836108068689611113565b6108109190611113565b61081a9190611113565b90508215610905575f5460405163a9059cbb60e01b81526001600160a01b039182166004820152602481018590527f00000000000000000000000000000000000000000000000000000000000000009091169063a9059cbb906044016020604051808303815f875af1158015610892573d5f803e3d5ffd5b505050506040513d601f19601f820116820180604052508101906108b691906110be565b9450846109055760405162461bcd60e51b815260206004820152601860248201527f5472656173757279207472616e73666572206661696c65640000000000000000604482015260640161058b565b8115610a355760405163a9059cbb60e01b815261dead6004820152602481018390527f00000000000000000000000000000000000000000000000000000000000000006001600160a01b03169063a9059cbb906044016020604051808303815f875af1158015610977573d5f803e3d5ffd5b505050506040513d601f19601f8201168201806040525081019061099b91906110be565b9450846109e15760405162461bcd60e51b8152602060048201526014602482015273109d5c9b881d1c985b9cd9995c8819985a5b195960621b604482015260640161058b565b8160075f8282546109f291906110a5565b90915550506007546040805184815260208101929092527f8bc81353cf6671d259d22783e39ed930583c86f3f4cf7e981298e6a872dfb15d910160405180910390a15b8015610b1f5760015460405163a9059cbb60e01b81526001600160a01b039182166004820152602481018390527f00000000000000000000000000000000000000000000000000000000000000009091169063a9059cbb906044016020604051808303815f875af1158015610aac573d5f803e3d5ffd5b505050506040513d601f19601f82011682018060405250810190610ad091906110be565b945084610b1f5760405162461bcd60e51b815260206004820152601960248201527f496e737572616e6365207472616e73666572206661696c656400000000000000604482015260640161058b565b8560085f828254610b3091906110a5565b9091555050604080518781526020810186905290810184905260608101839052608081018290527f5e6c0cbe2644fd646f1214bf0ff8bc707760f5625a4d69c66d1c98af4cde26e79060a00160405180910390a1505050505050565b336001600160a01b037f00000000000000000000000000000000000000000000000000000000000000001614610bd55760405163ea8e4eb560e01b815260040160405180910390fd5b6001600160a01b038116610bfc5760405163e6c4247b60e01b815260040160405180910390fd5b600180546001600160a01b0319166001600160a01b0392909216919091179055565b610c4560405180608001604052805f81526020015f81526020015f81526020015f81525090565b50604080516080810182526002548152600354602082015260045491810191909152600554606082015290565b336001600160a01b037f00000000000000000000000000000000000000000000000000000000000000001614610cbb5760405163ea8e4eb560e01b815260040160405180910390fd5b6127108183610cca86886110a5565b610cd491906110a5565b610cde91906110a5565b14610cfc576040516328342b2960e11b815260040160405180910390fd5b604080516080808201835286825260208083018790528284018690526060928301859052600288905560038790556004869055600585905583518881529081018790529283018590529082018390527f1ab182163a0683cd3182c000705483ef0ccdc375a845ab7b68678f89d90de4d7910160405180910390a150505050565b336001600160a01b037f00000000000000000000000000000000000000000000000000000000000000001614610dc55760405163ea8e4eb560e01b815260040160405180910390fd5b6001600160a01b038116610dec5760405163e6c4247b60e01b815260040160405180910390fd5b5f80546001600160a01b0319166001600160a01b0392909216919091179055565b5f805f7f00000000000000000000000000000000000000000000000000000000000000006001600160a01b031684604051602401610e5a91906001600160a01b0391909116815260200190565b60408051601f198184030181529181526020820180516001600160e01b0316637632421760e11b17905251610e8f9190611126565b5f60405180830381855afa9150503d805f8114610ec7576040519150601f19603f3d011682016040523d82523d5f602084013e610ecc565b606091505b5091509150818015610eed575080806020019051810190610eed91906110be565b15610efc575060019392505050565b6040516001600160a01b0385811660248301525f9182917f0000000000000000000000000000000000000000000000000000000000000000169060440160408051601f198184030181529181526020820180516001600160e01b031663499df3d160e11b17905251610f6e9190611126565b5f60405180830381855afa9150503d805f8114610fa6576040519150601f19603f3d011682016040523d82523d5f602084013e610fab565b606091505b5091509150818015610fcc575080806020019051810190610fcc91906110be565b15610fdd5750600195945050505050565b505f95945050505050565b80356001600160a01b0381168114610ffe575f80fd5b919050565b5f60208284031215611013575f80fd5b61101c82610fe8565b9392505050565b5f8060408385031215611034575f80fd5b61103d83610fe8565b946020939093013593505050565b5f6020828403121561105b575f80fd5b5035919050565b5f805f8060808587031215611075575f80fd5b5050823594602084013594506040840135936060013592509050565b634e487b7160e01b5f52601160045260245ffd5b808201808211156110b8576110b8611091565b92915050565b5f602082840312156110ce575f80fd5b8151801515811461101c575f80fd5b80820281158282048414176110b8576110b8611091565b5f8261110e57634e487b7160e01b5f52601260045260245ffd5b500490565b818103818111156110b8576110b8611091565b5f82515f5b81811015611145576020818601810151858301520161112b565b505f92019182525091905056fea2646970667358221220865aed27771fe9f88093a938959e2bb2ca9711982c195ffb0cc4d260b174027064736f6c63430008180033","linkReferences":{}},"methodIdentifiers":{"BASIS_POINTS()":"e1f1c4a7","BURN_ADDRESS()":"fccc2813","BURN_SHARE()":"93b998fb","INSURANCE_SHARE()":"56b30703","PROVER_SHARE()":"34f5a178","TREASURY_SHARE()":"32696174","admin()":"f851a440","allocateReward(address,uint256)":"829aae8f","claimRewards()":"372500ab","distribute(uint256)":"91c05b0b","getInsuranceFund()":"158626f7","getRewardInfo(address)":"06032d74","getShares()":"d73fe0aa","getTotalBurned()":"b55cd04b","getTotalDistributed()":"5695fa58","getTreasury()":"3b19e84a","getUnclaimedRewards(address)":"69a69e29","insuranceFund()":"b7902303","registry()":"7b103999","setInsuranceFund(address)":"c3c05293","setShares(uint256,uint256,uint256,uint256)":"f03b6ffc","setTreasury(address)":"f0f44260","token()":"fc0c546a","totalBurned()":"d89135cd","totalDistributed()":"efca2eed","treasury()":"61d027b3"},"id":0}