{"abi":[{"type":"constructor","inputs":[{"name":"_token","type":"address","internalType":"address"},{"name":"_rewardDistributor","type":"address","internalType":"address"}],"stateMutability":"nonpayable"},{"type":"function","name":"BASIS_POINTS","inputs":[],"outputs":[{"name":"","type":"uint256","internalType":"uint256"}],"stateMutability":"view"},{"type":"function","name":"EPOCH_DURATION","inputs":[],"outputs":[{"name":"","type":"uint256","internalType":"uint256"}],"stateMutability":"view"},{"type":"function","name":"FINAL_INFLATION_RATE","inputs":[],"outputs":[{"name":"","type":"uint256","internalType":"uint256"}],"stateMutability":"view"},{"type":"function","name":"INITIAL_INFLATION_RATE","inputs":[],"outputs":[{"name":"","type":"uint256","internalType":"uint256"}],"stateMutability":"view"},{"type":"function","name":"REDUCTION_PERIOD","inputs":[],"outputs":[{"name":"","type":"uint256","internalType":"uint256"}],"stateMutability":"view"},{"type":"function","name":"admin","inputs":[],"outputs":[{"name":"","type":"address","internalType":"address"}],"stateMutability":"view"},{"type":"function","name":"calculateYearlyMint","inputs":[{"name":"totalSupply","type":"uint256","internalType":"uint256"}],"outputs":[{"name":"","type":"uint256","internalType":"uint256"}],"stateMutability":"view"},{"type":"function","name":"canMint","inputs":[],"outputs":[{"name":"","type":"bool","internalType":"bool"}],"stateMutability":"view"},{"type":"function","name":"deploymentTimestamp","inputs":[],"outputs":[{"name":"","type":"uint256","internalType":"uint256"}],"stateMutability":"view"},{"type":"function","name":"getCurrentEpoch","inputs":[],"outputs":[{"name":"","type":"tuple","internalType":"struct IQSInflation.InflationEpoch","components":[{"name":"epochId","type":"uint256","internalType":"uint256"},{"name":"startTime","type":"uint256","internalType":"uint256"},{"name":"endTime","type":"uint256","internalType":"uint256"},{"name":"inflationRate","type":"uint256","internalType":"uint256"},{"name":"mintedAmount","type":"uint256","internalType":"uint256"},{"name":"isMinted","type":"bool","internalType":"bool"}]}],"stateMutability":"view"},{"type":"function","name":"getCurrentInflationRate","inputs":[],"outputs":[{"name":"","type":"uint256","internalType":"uint256"}],"stateMutability":"view"},{"type":"function","name":"getInflationRateForYear","inputs":[{"name":"year","type":"uint256","internalType":"uint256"}],"outputs":[{"name":"","type":"uint256","internalType":"uint256"}],"stateMutability":"pure"},{"type":"function","name":"getTotalInflationMinted","inputs":[],"outputs":[{"name":"","type":"uint256","internalType":"uint256"}],"stateMutability":"view"},{"type":"function","name":"lastMintedEpoch","inputs":[],"outputs":[{"name":"","type":"uint256","internalType":"uint256"}],"stateMutability":"view"},{"type":"function","name":"mintInflation","inputs":[],"outputs":[{"name":"amount","type":"uint256","internalType":"uint256"}],"stateMutability":"nonpayable"},{"type":"function","name":"rewardDistributor","inputs":[],"outputs":[{"name":"","type":"address","internalType":"address"}],"stateMutability":"view"},{"type":"function","name":"setRewardDistributor","inputs":[{"name":"_distributor","type":"address","internalType":"address"}],"outputs":[],"stateMutability":"nonpayable"},{"type":"function","name":"timeUntilNextMint","inputs":[],"outputs":[{"name":"","type":"uint256","internalType":"uint256"}],"stateMutability":"view"},{"type":"function","name":"token","inputs":[],"outputs":[{"name":"","type":"address","internalType":"contract IQSToken"}],"stateMutability":"view"},{"type":"function","name":"totalInflationMinted","inputs":[],"outputs":[{"name":"","type":"uint256","internalType":"uint256"}],"stateMutability":"view"},{"type":"event","name":"InflationMinted","inputs":[{"name":"epochId","type":"uint256","indexed":true,"internalType":"uint256"},{"name":"amount","type":"uint256","indexed":false,"internalType":"uint256"},{"name":"totalSupply","type":"uint256","indexed":false,"internalType":"uint256"},{"name":"timestamp","type":"uint256","indexed":false,"internalType":"uint256"}],"anonymous":false},{"type":"event","name":"InflationRateTransitioned","inputs":[{"name":"oldRate","type":"uint256","indexed":false,"internalType":"uint256"},{"name":"newRate","type":"uint256","indexed":false,"internalType":"uint256"},{"name":"timestamp","type":"uint256","indexed":false,"internalType":"uint256"}],"anonymous":false},{"type":"event","name":"RewardDistributorUpdated","inputs":[{"name":"oldDistributor","type":"address","indexed":true,"internalType":"address"},{"name":"newDistributor","type":"address","indexed":true,"internalType":"address"}],"anonymous":false},{"type":"error","name":"InvalidDistributor","inputs":[]},{"type":"error","name":"InvalidToken","inputs":[]},{"type":"error","name":"MintingNotAvailable","inputs":[]},{"type":"error","name":"NotAuthorized","inputs":[]},{"type":"error","name":"TokenNotSet","inputs":[]}],"bytecode":{"object":"0x60e03461010a57601f610a9038819003918201601f19168301916001600160401b0383118484101761010e57808492604094855283398101031261010a57610052602061004b83610122565b9201610122565b6001600160a01b03918216919082156100f857169081156100e6576080525f80546001600160a01b0319169190911790553360a0524260c0526040516109599081610137823960805181818161010c0152610231015260a0518181816101530152610687015260c0518181816101d4015281816103dc0152818161041d015281816104a6015281816107e101526108660152f35b604051635c187b8d60e01b8152600490fd5b60405163c1ab6dc160e01b8152600490fd5b5f80fd5b634e487b7160e01b5f52604160045260245ffd5b51906001600160a01b038216820361010a5756fe604060808152600480361015610013575f80fd5b5f3560e01c9081630ac9dcd0146107825781630e8601fc146107665781631384b2191461074a5781638125981d1461072c57816395d957771461070e578163a1809b951461065a578163a4e2e7b01461063c578163a70b9f0c1461061e578163acc2166a146105f7578163b034a315146105c5578163b540e156146105a0578163b97dd9e214610469578163be8db6661461044e578163beb9716d146103ff578163bfc12c05146103c5578163c551a2f9146101bc57508063e1f1c4a7146101a0578063e80710ae14610182578063f851a4401461013f5763fc0c546a146100f9575f80fd5b3461013b575f36600319011261013b57517f00000000000000000000000000000000000000000000000000000000000000006001600160a01b03168152602090f35b5f80fd5b503461013b575f36600319011261013b57517f00000000000000000000000000000000000000000000000000000000000000006001600160a01b03168152602090f35b503461013b575f36600319011261013b576020906002549051908152f35b503461013b575f36600319011261013b57602090516127108152f35b823461013b575f36600319011261013b576301e133807f0000000000000000000000000000000000000000000000000000000000000000816101fe82426107d2565b0460015410156103b65761021290426107d2565b82516318160ddd60e01b81526020946001600160a01b039493909204917f000000000000000000000000000000000000000000000000000000000000000085169086838281855afa928315610353575f9361035d575b5061271061027d610277610861565b856107bf565b04958460015561028f8760025461079e565b6002555f5416823b1561013b575f9260448492885195869384926340c10f1960e01b8452878401528b60248401525af1801561035357610306575b505060607f7d4cc56a76dbd89d8fda9e27aa051b7e14c3a44af0647765f4f49197b580eeff91845190868252878201524285820152a251908152f35b67ffffffffffffffff82116103405750835260607f7d4cc56a76dbd89d8fda9e27aa051b7e14c3a44af0647765f4f49197b580eeff6102ca565b604190634e487b7160e01b5f525260245ffd5b85513d5f823e3d90fd5b909250863d88116103af575b601f8101601f1916820167ffffffffffffffff81118382101761039c578891839188528101031261013b57519187610268565b604185634e487b7160e01b5f525260245ffd5b503d610369565b50505163921e794960e01b8152fd5b823461013b575f36600319011261013b57602090517f00000000000000000000000000000000000000000000000000000000000000008152f35b823461013b575f36600319011261013b576020906301e133806104427f0000000000000000000000000000000000000000000000000000000000000000426107d2565b04600154109051908152f35b823461013b575f36600319011261013b576020905160648152f35b823461013b575f36600319011261013b575f60a08251610488816108f3565b828152826020820152828482015282606082015282608082015201527f0000000000000000000000000000000000000000000000000000000000000000906301e13380806104d684426107d2565b04926104e0610861565b908285029085820484148615171561058d57906104fc9161079e565b9182019283831161057a5760015460c096509385850361057357600254935b60a08351610528816108f3565b888152602081019283528481019384526060810195865260808101968752019587111586528251968752516020870152519085015251606084015251608083015251151560a0820152f35b5f9361051b565b601186634e487b7160e01b5f525260245ffd5b601187634e487b7160e01b5f525260245ffd5b823461013b57602036600319011261013b576105be602092356108d1565b9051908152f35b823461013b57602036600319011261013b576127106105ef6020936105e8610861565b90356107bf565b049051908152f35b823461013b575f36600319011261013b575f5490516001600160a01b039091168152602090f35b823461013b575f36600319011261013b57602090516301e133808152f35b823461013b575f36600319011261013b5760209051630784ce008152f35b823461013b57602036600319011261013b576001600160a01b0382358181169391929084900361013b57827f00000000000000000000000000000000000000000000000000000000000000001633036107015783156106f45750505f54826bffffffffffffffffffffffff60a01b8216175f55167f1df95772db25c427e0df149fe4cd5b7c2e970e096ee7305ff86f6e1167281d7b5f80a3005b51635c187b8d60e01b8152fd5b5163ea8e4eb560e01b8152fd5b823461013b575f36600319011261013b576020906002549051908152f35b823461013b575f36600319011261013b576020906001549051908152f35b823461013b575f36600319011261013b576020906105be610861565b823461013b575f36600319011261013b57602090516101f48152f35b823461013b575f36600319011261013b576020906105be6107df565b919082018092116107ab57565b634e487b7160e01b5f52601160045260245ffd5b818102929181159184041417156107ab57565b919082039182116107ab57565b7f00000000000000000000000000000000000000000000000000000000000000006301e133808061081083426107d2565b0460015480911161085a57600181018091116107ab578181029181830414901517156107ab5761083f9161079e565b80421015610855576108529042906107d2565b90565b505f90565b5050505f90565b61088b7f0000000000000000000000000000000000000000000000000000000000000000426107d2565b630784ce008110156108cb576301e13380900480156108c457600181146108bd576002146108b857606490565b60fa90565b5061017790565b506101f490565b50606490565b80156108c457600181146108c457600281146108bd576003146108b857606490565b60c0810190811067ffffffffffffffff82111761090f57604052565b634e487b7160e01b5f52604160045260245ffdfea264697066735822122052106c5258bf9510ef8180955da950c36de56914cda404627c6049eee8a0136464736f6c63430008180033","linkReferences":{}},"methodIdentifiers":{"BASIS_POINTS()":"e1f1c4a7","EPOCH_DURATION()":"a70b9f0c","FINAL_INFLATION_RATE()":"be8db666","INITIAL_INFLATION_RATE()":"0e8601fc","REDUCTION_PERIOD()":"a4e2e7b0","admin()":"f851a440","calculateYearlyMint(uint256)":"b034a315","canMint()":"beb9716d","deploymentTimestamp()":"bfc12c05","getCurrentEpoch()":"b97dd9e2","getCurrentInflationRate()":"1384b219","getInflationRateForYear(uint256)":"b540e156","getTotalInflationMinted()":"e80710ae","lastMintedEpoch()":"8125981d","mintInflation()":"c551a2f9","rewardDistributor()":"acc2166a","setRewardDistributor(address)":"a1809b95","timeUntilNextMint()":"0ac9dcd0","token()":"fc0c546a","totalInflationMinted()":"95d95777"},"id":77}