{"abi":[{"type":"constructor","inputs":[{"name":"_compressor","type":"address","internalType":"address"}],"stateMutability":"nonpayable"},{"type":"function","name":"EXPECTED_VERSION","inputs":[],"outputs":[{"name":"","type":"uint32","internalType":"uint32"}],"stateMutability":"view"},{"type":"function","name":"MAX_DECOMPRESSED_SIZE","inputs":[],"outputs":[{"name":"","type":"uint256","internalType":"uint256"}],"stateMutability":"view"},{"type":"function","name":"compressor","inputs":[],"outputs":[{"name":"","type":"address","internalType":"contract ProofCompressor"}],"stateMutability":"view"},{"type":"function","name":"decompressEvaluations","inputs":[{"name":"compressed","type":"bytes","internalType":"bytes"}],"outputs":[{"name":"evaluations","type":"uint256[]","internalType":"uint256[]"}],"stateMutability":"pure"},{"type":"function","name":"decompressMerklePath","inputs":[{"name":"compressed","type":"bytes","internalType":"bytes"}],"outputs":[{"name":"siblings","type":"bytes32[]","internalType":"bytes32[]"}],"stateMutability":"pure"},{"type":"function","name":"decompressSTARKProof","inputs":[{"name":"compressed","type":"bytes","internalType":"bytes"}],"outputs":[{"name":"proof","type":"tuple","internalType":"struct ProofCompressor.UncompressedProof","components":[{"name":"traceCommitment","type":"bytes32","internalType":"bytes32"},{"name":"constraintCommitment","type":"bytes32","internalType":"bytes32"},{"name":"friCommitments","type":"bytes32[]","internalType":"bytes32[]"},{"name":"traceEvaluations","type":"uint256[]","internalType":"uint256[]"},{"name":"constraintEvaluations","type":"uint256[]","internalType":"uint256[]"}]}],"stateMutability":"pure"},{"type":"function","name":"getFormatVersion","inputs":[{"name":"compressed","type":"bytes","internalType":"bytes"}],"outputs":[{"name":"version","type":"uint32","internalType":"uint32"}],"stateMutability":"pure"},{"type":"function","name":"getVersion","inputs":[],"outputs":[{"name":"name","type":"string","internalType":"string"},{"name":"version","type":"string","internalType":"string"}],"stateMutability":"pure"},{"type":"function","name":"validateFormat","inputs":[{"name":"compressed","type":"bytes","internalType":"bytes"}],"outputs":[{"name":"valid","type":"bool","internalType":"bool"}],"stateMutability":"pure"},{"type":"error","name":"DataTruncated","inputs":[]},{"type":"error","name":"DecompressedSizeTooLarge","inputs":[]},{"type":"error","name":"InvalidCompressedData","inputs":[]},{"type":"error","name":"InvalidFormat","inputs":[]},{"type":"error","name":"InvalidVersion","inputs":[{"name":"found","type":"uint32","internalType":"uint32"},{"name":"expected","type":"uint32","internalType":"uint32"}]}],"bytecode":{"object":"0x60a03461006c57601f610f3838819003918201601f19168301916001600160401b038311848410176100715780849260209460405283398101031261006c57516001600160a01b0381169081900361006c57608052604051610eb090816100888239608051816101540152f35b600080fd5b634e487b7160e01b600052604160045260246000fdfe6040608081526004908136101561001557600080fd5b60009160e0908335821c918262f93add146104fd5782630d8e6e2c1461048a5782637937a064146101c65782638060423b146101a05782638a28f6b61461018357826394c16bbc1461013e578263bea3cce5146101005750508063e07b2f38146100e35763e97a63b81461008857600080fd5b346100df5761009f61009936610557565b9061076b565b815192839260208080860192818752855180945286019401925b8281106100c857505050500390f35b8351855286955093810193928101926001016100b9565b5080fd5b50346100df57816003193601126100df5760209051620186a08152f35b9150913461012c5761011136610557565b9093808210610130571161012c5760209350519135901c8152f35b8380fd5b8251631dc1c3ef60e11b8152fd5b505050346100df57816003193601126100df57517f00000000000000000000000000000000000000000000000000000000000000006001600160a01b03168152602090f35b505050346100df57816003193601126100df576020905160018152f35b505050346100df576020906101bd6101b736610557565b90610e4d565b90519015158152f35b83828634610487576101d736610557565b92909184519060a0820182811067ffffffffffffffff821117610474578652808252602090818301968188528084019060608252606085019660608852608086019860608a5260188110610464578088116104605781358c1c9781600c1161045c578160101161045c578160141161045c576001988981036104315750601882605811610406578260381161042d57830135885260388301358c5260588760088501358f1c15610415575082605a1161040657879594939291605a9184013560f01c6102a2816106a0565b875288915b818310610391575050505b600c8301358e1c1561037e576102c9908284610cca565b91908b525b60108301358e1c15610364576102e392610cca565b50895295949392955b805199838b5260c08b019551848c015251908a0152519860a060608a0152895180945288019801935b82811061035157878061034d898c61033c8b5191601f1992838783030160808801526105e6565b9151908483030160a08501526105e6565b0390f35b8451895297810197938101938301610315565b50505061036f610650565b848152895295949392956102ec565b90610387610650565b8781528b526102ce565b91939495969783919301908181116103f3578582116103e357906103c36103bd826103d594898b610670565b9061072d565b6103ce868b51610757565b5293610708565b9091899796959493926102a7565b8751631dc1c3ef60e11b81528390fd5b634e487b7160e01b8a526011835260248afd5b508351631dc1c3ef60e11b8152fd5b959493929150610423610650565b87815285526102b2565b8680fd5b8451631c7cd17960e11b815263ffffffff909116918101918252600160208301529081906040010390fd5b8580fd5b8480fd5b8251631dc1c3ef60e11b81528890fd5b634e487b7160e01b825260418452602482fd5b80fd5b838534610487578060031936011261048757506104a561061a565b90600c82526b283937b7b32232b1b7b232b960a11b602083015261034d6104ca61061a565b60058152640302e312e360dc1b60208201526104ef83519484869586528501906105a6565b9083820360208501526105a6565b505050346100df5761051761051136610557565b90610a65565b815192839260208080860192818752855180945286019401925b82811061054057505050500390f35b835185528695509381019392810192600101610531565b9060206003198301126105a15760043567ffffffffffffffff928382116105a157806023830112156105a15781600401359384116105a157602484830101116105a1576024019190565b600080fd5b919082519283825260005b8481106105d2575050826000602080949584010152601f8019910116010190565b6020818301810151848301820152016105b1565b90815180825260208080930193019160005b828110610606575050505090565b8351855293810193928101926001016105f8565b604051906040820182811067ffffffffffffffff82111761063a57604052565b634e487b7160e01b600052604160045260246000fd5b604051906020820182811067ffffffffffffffff82111761063a57604052565b909392938483116105a15784116105a1578101920390565b67ffffffffffffffff811161063a5760051b60200190565b906106aa82610688565b60405190601f1990601f018116820167ffffffffffffffff81118382101761063a576040528382526106dc8294610688565b0190602036910137565b908210156106f2570190565b634e487b7160e01b600052603260045260246000fd5b60001981146107175760010190565b634e487b7160e01b600052601160045260246000fd5b35906020811061073b575090565b6000199060200360031b1b1690565b8051156106f25760200190565b80518210156106f25760209160051b010190565b91909160108310610a0b576004908382116105a157803560e01c84600c116105a157600882013560e01c916001918281036109e157506107aa836106a0565b9583156109da576000916010845b6107d9575b5050509050106107ca5750565b604051631dc1c3ef60e11b8152fd5b858410806109d1575b156109cc576107f28184846106e6565b3561080160f891821c92610708565b809280156000146108775750505060208101908181116108625783821161085157816108366103bd8894610847948888610670565b610840878d610757565b5294610708565b945b9493906107b8565b604051631dc1c3ef60e11b81528890fd5b601188634e487b7160e01b6000525260246000fd5b959692958084036108ff57505083851015610851576108a5829161089c8787876106e6565b35901c95610708565b946000915b6108b7575b505080610849565b90958a828810806108f6575b156108ef576108e38260006108dd8796956108e995610757565b52610708565b97610708565b916108aa565b50956108af565b508882106108c3565b9095506002036109bb57602185018086116109a657841061085157610932906109298686866106e6565b35901c94610708565b60208101908181116109a6579061094f6103bd8285948888610670565b90956000925b610963575b50505080610849565b9091968b8289108061099d575b156109965761098982856108dd88969561098f95610757565b98610708565b9291610955565b509661095a565b50898210610970565b601189634e487b7160e01b6000525260246000fd5b604051630758072d60e11b81528890fd5b6107bd565b508281106107e2565b5050505050565b60408051631c7cd17960e11b815263ffffffff909216828701908152600160208201528291010390fd5b604051631dc1c3ef60e11b8152600490fd5b9190916000838201938412911290801582169115161761071757565b6001600160f01b03199035818116939260028110610a5657505050565b60020360031b82901b16169150565b91909160108310610a0b576004908382116105a15760e0918135831c9480600c116105a1576008830135841c92600196878103610ca05750610aa6846106a0565b968415610c9857601083603011610c8757820135610ac38961074a565b5260309581965b868810610adb575050505050505050565b84811015610c7657610afb610af18287876106e6565b3560f81c91610708565b9080610b6657506020810190818111610b5057858211610b3f5790610b286103bd82610b39948989610670565b610b328a8d610757565b5297610708565b96610aca565b604051631dc1c3ef60e11b81528790fd5b634e487b7160e01b600090815260118852602490fd5b909790808403610be457506002880197888111610b5057858911610b3f57610b9389610b99928888610670565b90610a39565b60f01d6000198201828111610bce57610b399291610bba610bc4928e610757565b5190860b90610a1d565b6108dd828d610757565b634e487b7160e01b600090815260118952602490fd5b600203610c655785880197888111610b5057858911610b3f5788610c09918787610670565b6001600160e01b031991358281169a9291898110610c51575b50505097600019820182811161086257610b399291610c44610bc4928e610757565b5190851d60030b90610a1d565b890360031b82901b16169850388080610c22565b604051630758072d60e11b81528690fd5b604051631dc1c3ef60e11b81528690fd5b604051631dc1c3ef60e11b81528590fd5b505050505050565b60408051631c7cd17960e11b815263ffffffff909216828601908152600160208201528291010390fd5b9291906002938483019182841161071757808311610a0b57610cf1610b9384868486610670565b9560f096871c93610d01856106a0565b958515610e42576022019081811161071757838211610a0b576103bd82610d2d92868897969998610670565b610d368761074a565b529660019081955b858710610d5057505050505050509190565b9091929394959884811015610a0b5783610d78610d6e83888a6106e6565b3560f81c92610708565b9180610dd557505060208101808211610dc057858111610a0b57610da46103bd82610db594898b610670565b610dae8c8b610757565b5299610708565b959493929190610d3e565b60246000634e487b7160e01b81526011600452fd5b03610e305781810190818111610dc057858211610a0b57610b9382610dfb92888a610670565b831d90996000198101818111610dc057610db592610e1c610e26928c610757565b5190870b90610a1d565b6108dd828b610757565b604051630758072d60e11b8152600490fd5b509650505050509190565b9060108110610e73576004116105a1576001903560e01c03610e6e57600190565b600090565b505060009056fea264697066735822122021849021498c6be4c0c8ae267b4c7b76ec835d51d1203324b039cafa816b72c564736f6c63430008140033","linkReferences":{}},"methodIdentifiers":{"EXPECTED_VERSION()":"8a28f6b6","MAX_DECOMPRESSED_SIZE()":"e07b2f38","compressor()":"94c16bbc","decompressEvaluations(bytes)":"00f93add","decompressMerklePath(bytes)":"e97a63b8","decompressSTARKProof(bytes)":"7937a064","getFormatVersion(bytes)":"bea3cce5","getVersion()":"0d8e6e2c","validateFormat(bytes)":"8060423b"},"id":25}