{"abi":[{"type":"function","name":"FIELD_MODULUS","inputs":[],"outputs":[{"name":"","type":"uint256","internalType":"uint256"}],"stateMutability":"view"},{"type":"function","name":"MAX_CONSTRAINT_DEGREE","inputs":[],"outputs":[{"name":"","type":"uint256","internalType":"uint256"}],"stateMutability":"view"},{"type":"function","name":"MIN_TRACE_LENGTH","inputs":[],"outputs":[{"name":"","type":"uint256","internalType":"uint256"}],"stateMutability":"view"},{"type":"function","name":"computeBoundaryZerofier","inputs":[{"name":"x","type":"uint256","internalType":"uint256"},{"name":"omega","type":"uint256","internalType":"uint256"},{"name":"boundaryIndex","type":"uint256","internalType":"uint256"}],"outputs":[{"name":"zerofier","type":"uint256","internalType":"uint256"}],"stateMutability":"pure"},{"type":"function","name":"computeDomainGenerator","inputs":[{"name":"domainSize","type":"uint256","internalType":"uint256"}],"outputs":[{"name":"omega","type":"uint256","internalType":"uint256"}],"stateMutability":"pure"},{"type":"function","name":"computeTransitionZerofier","inputs":[{"name":"x","type":"uint256","internalType":"uint256"},{"name":"omega","type":"uint256","internalType":"uint256"},{"name":"traceLength","type":"uint256","internalType":"uint256"}],"outputs":[{"name":"zerofier","type":"uint256","internalType":"uint256"}],"stateMutability":"pure"},{"type":"function","name":"evaluateAllTransitionConstraints","inputs":[{"name":"trace","type":"uint256[]","internalType":"uint256[]"}],"outputs":[{"name":"valid","type":"bool","internalType":"bool"}],"stateMutability":"pure"},{"type":"function","name":"evaluateDoublingConstraint","inputs":[{"name":"current","type":"uint256","internalType":"uint256"},{"name":"next","type":"uint256","internalType":"uint256"}],"outputs":[{"name":"constraintValue","type":"uint256","internalType":"uint256"}],"stateMutability":"pure"},{"type":"function","name":"evaluateFibonacciConstraint","inputs":[{"name":"current","type":"uint256","internalType":"uint256"},{"name":"next1","type":"uint256","internalType":"uint256"},{"name":"next2","type":"uint256","internalType":"uint256"}],"outputs":[{"name":"constraintValue","type":"uint256","internalType":"uint256"}],"stateMutability":"pure"},{"type":"function","name":"evaluatePolynomialConstraint","inputs":[{"name":"current","type":"uint256","internalType":"uint256"},{"name":"next","type":"uint256","internalType":"uint256"}],"outputs":[{"name":"valid","type":"bool","internalType":"bool"}],"stateMutability":"pure"},{"type":"function","name":"getVersion","inputs":[],"outputs":[{"name":"name","type":"string","internalType":"string"},{"name":"version","type":"string","internalType":"string"}],"stateMutability":"pure"},{"type":"function","name":"maxConstraintDegree","inputs":[],"outputs":[{"name":"","type":"uint256","internalType":"uint256"}],"stateMutability":"pure"},{"type":"function","name":"verifyAIR","inputs":[{"name":"trace","type":"uint256[]","internalType":"uint256[]"},{"name":"config","type":"tuple","internalType":"struct AIRConstraints.AIRConfig","components":[{"name":"traceLength","type":"uint256","internalType":"uint256"},{"name":"numBoundaryConstraints","type":"uint256","internalType":"uint256"},{"name":"numTransitionConstraints","type":"uint256","internalType":"uint256"},{"name":"blowupFactor","type":"uint256","internalType":"uint256"}]},{"name":"boundaryConstraints","type":"tuple[]","internalType":"struct AIRConstraints.BoundaryConstraint[]","components":[{"name":"index","type":"uint256","internalType":"uint256"},{"name":"expectedValue","type":"uint256","internalType":"uint256"}]}],"outputs":[{"name":"valid","type":"bool","internalType":"bool"}],"stateMutability":"pure"},{"type":"function","name":"verifyBoundaryConstraint","inputs":[{"name":"actualValue","type":"uint256","internalType":"uint256"},{"name":"expectedValue","type":"uint256","internalType":"uint256"},{"name":"index","type":"uint256","internalType":"uint256"}],"outputs":[{"name":"valid","type":"bool","internalType":"bool"}],"stateMutability":"pure"},{"type":"function","name":"verifyBoundaryConstraints","inputs":[{"name":"trace","type":"uint256[]","internalType":"uint256[]"},{"name":"constraints","type":"tuple[]","internalType":"struct AIRConstraints.BoundaryConstraint[]","components":[{"name":"index","type":"uint256","internalType":"uint256"},{"name":"expectedValue","type":"uint256","internalType":"uint256"}]}],"outputs":[{"name":"valid","type":"bool","internalType":"bool"}],"stateMutability":"pure"},{"type":"event","name":"AIRVerified","inputs":[{"name":"traceLength","type":"uint256","indexed":false,"internalType":"uint256"},{"name":"valid","type":"bool","indexed":false,"internalType":"bool"}],"anonymous":false},{"type":"event","name":"BoundaryConstraintChecked","inputs":[{"name":"index","type":"uint256","indexed":true,"internalType":"uint256"},{"name":"value","type":"uint256","indexed":false,"internalType":"uint256"},{"name":"valid","type":"bool","indexed":false,"internalType":"bool"}],"anonymous":false},{"type":"error","name":"ConstraintIndexOutOfBounds","inputs":[]},{"type":"error","name":"ConstraintVerificationFailed","inputs":[]},{"type":"error","name":"FieldOverflow","inputs":[]},{"type":"error","name":"InvalidTraceLength","inputs":[]}],"bytecode":{"object":"0x6080806040523461001657610ac1908161001c8239f35b600080fdfe608060408181526004918236101561001657600080fd5b600092833560e01c918263051208e7146104cf575081630d8e6e2c146104565781630da20ca81461043a5781631ae3e33b1461041e578163245f77041461040257816326063da8146103a85781634f76a98e1461038557816361d0977c1461035b5781636fe060c9146102af578163724fc7aa1461029357816382e764301461027757816389a0a1e21461022e578163a660bccc1461020b578163ab5f0eeb146100e8575063b8e9fdc3146100ca57600080fd5b346100e457816003193601126100e4576020905160088152f35b5080fd5b839150346100e45760203660031901126100e45780359182156101c8576000198301908382116101b557508216610172575060019067ffffffff0000000004600782825b61013a576020848651908152f35b8080849594161461015e575b67ffffffff000000019293811c92828493099161012c565b67ffffffff00000001828194099250610146565b606490602084519162461bcd60e51b8352820152601e60248201527f446f6d61696e2073697a65206d75737420626520706f776572206f66203200006044820152fd5b634e487b7160e01b815260118352602490fd5b835162461bcd60e51b8152602081840152601c60248201527f446f6d61696e2073697a65206d75737420626520706f736974697665000000006044820152606490fd5b5050346100e4576020906102276102213661054c565b91610809565b9051908152f35b8284346102745760203660031901126102745782359067ffffffffffffffff8211610274575061026660209361026b923691016105da565b610865565b90519015158152f35b80fd5b5050346100e45760209061022761028d366104f1565b906107cd565b5050346100e457816003193601126100e4576020905160088152f35b8284346102745760c03660031901126102745767ffffffffffffffff928035848111610357576102e290369083016105da565b9360803660231901126103575783519260808401848110838211176103445785526024358452604435602085015260643585850152608435606085015260a43591821161027457509161033e6020959261026b94369101610635565b916108d1565b634e487b7160e01b825260418452602482fd5b8280fd5b5050346100e45760209061036e3661054c565b5091519167ffffffff000000018091069106148152f35b5050346100e457816003193601126100e4576020905167ffffffff000000018152f35b90503461035757816003193601126103575767ffffffffffffffff81358181116103fe576103d990369084016105da565b936024359182116102745750926103f861026b92602095369101610635565b90610722565b8480fd5b5050346100e4576020906102276104183661054c565b9161091e565b5050346100e4576020906102276104343661054c565b91610947565b5050346100e457816003193601126100e4576020905160028152f35b82843461027457806003193601126102745750610471610566565b90600e82526d414952436f6e73747261696e747360901b60208301526104cb610498610566565b60058152640302e312e360dc1b60208201526104bd835194848695865285019061050c565b90838203602085015261050c565b0390f35b8490346100e4576020906104eb6104e5366104f1565b9061082f565b15158152f35b6040906003190112610507576004359060243590565b600080fd5b919082519283825260005b848110610538575050826000602080949584010152601f8019910116010190565b602081830181015184830182015201610517565b606090600319011261050757600435906024359060443590565b604051906040820182811067ffffffffffffffff82111761058657604052565b634e487b7160e01b600052604160045260246000fd5b6040519190601f01601f1916820167ffffffffffffffff81118382101761058657604052565b67ffffffffffffffff81116105865760051b60200190565b9080601f83011215610507578135906105fa6105f5836105c2565b61059c565b9182938184526020808095019260051b820101928311610507578301905b828210610626575050505090565b81358152908301908301610618565b81601f8201121561050757803561064e6105f5826105c2565b9081938183526020808094019260061b85010193818511610507578301915b84831061067c57505050505090565b60408084840312610507578051918183019280841067ffffffffffffffff8511176106be5760409387935285358152828601358382015281520192019161066d565b60246000634e487b7160e01b81526041600452fd5b60001981146106e25760010190565b634e487b7160e01b600052601160045260246000fd5b805182101561070c5760209160051b010190565b634e487b7160e01b600052603260045260246000fd5b8051156107a157600090815b83518110156107985761074181856106f8565b518051835111156107865760206107598251856106f8565b519167ffffffff0000000191829101510691060361077f5761077a906106d3565b61072e565b5050905090565b60405163ba8217ff60e01b8152600490fd5b50505050600190565b60405163d4856cff60e01b8152600490fd5b919082039182116106e257565b919082018092116106e257565b60029167ffffffff000000019283808093069306098082106107f6576107f2916107b3565b0690565b8203908282116106e2576107f2916107c0565b9167ffffffff000000019283808080940694069106088082106107f6576107f2916107b3565b67ffffffff00000001808092069206918160028209831461085d57600190081461085857600090565b600190565b505050600190565b60028151106107a15760005b815160001981019081116106e2578110156108ca5761089081836106f8565b5160018201908183116106e2576108aa6108b192856106f8565b51906107cd565b6108c3576108be906106d3565b610871565b5050600090565b5050600190565b919082518015918215610912575b50506107a1576108ef9082610722565b1561090c576108fd90610865565b1561090757600190565b600090565b50600090565b511415905038806108df565b916109379067ffffffff00000001808095069306610a42565b8082106107f6576107f2916107b3565b9167ffffffff0000000180930661095e8282610a42565b600193906000858210610a28575060001981019081116106e257925b60001981019081116106e257856109919206610a42565b60008183106109f857506109a4916107b3565b915b82156109ef579183908190068367fffffffeffffffff805b6109ca57505050500990565b81808216146109e4575b811c9282849309928693926109be565b9482849109946109d4565b50505050600090565b90850390858211610a14575090610a0e916107c0565b916109a6565b634e487b7160e01b81526011600452602490fd5b67ffffffff00000000918201809211610a1457509261097a565b600190828267ffffffff00000001809306915b610a6157505050905090565b8080861614610a7f575b829394811c92828493099294939291610a55565b82828195099350610a6b56fea26469706673582212208ddcf1d029bd4a8c9d189d85c79b6235d4b1dbcdef22c706dd38be14b256cae264736f6c63430008140033","linkReferences":{}},"methodIdentifiers":{"FIELD_MODULUS()":"4f76a98e","MAX_CONSTRAINT_DEGREE()":"724fc7aa","MIN_TRACE_LENGTH()":"0da20ca8","computeBoundaryZerofier(uint256,uint256,uint256)":"245f7704","computeDomainGenerator(uint256)":"ab5f0eeb","computeTransitionZerofier(uint256,uint256,uint256)":"1ae3e33b","evaluateAllTransitionConstraints(uint256[])":"89a0a1e2","evaluateDoublingConstraint(uint256,uint256)":"82e76430","evaluateFibonacciConstraint(uint256,uint256,uint256)":"a660bccc","evaluatePolynomialConstraint(uint256,uint256)":"051208e7","getVersion()":"0d8e6e2c","maxConstraintDegree()":"b8e9fdc3","verifyAIR(uint256[],(uint256,uint256,uint256,uint256),(uint256,uint256)[])":"6fe060c9","verifyBoundaryConstraint(uint256,uint256,uint256)":"61d0977c","verifyBoundaryConstraints(uint256[],(uint256,uint256)[])":"26063da8"},"id":59}