{"abi":[{"type":"constructor","inputs":[],"stateMutability":"nonpayable"},{"type":"receive","stateMutability":"payable"},{"type":"function","name":"BLOWUP_FACTOR","inputs":[],"outputs":[{"name":"","type":"uint256","internalType":"uint256"}],"stateMutability":"view"},{"type":"function","name":"FRI_DOMAIN_SIZE","inputs":[],"outputs":[{"name":"","type":"uint256","internalType":"uint256"}],"stateMutability":"view"},{"type":"function","name":"FRI_NUM_QUERIES","inputs":[],"outputs":[{"name":"","type":"uint256","internalType":"uint256"}],"stateMutability":"view"},{"type":"function","name":"MAX_PROOF_SIZE","inputs":[],"outputs":[{"name":"","type":"uint256","internalType":"uint256"}],"stateMutability":"view"},{"type":"function","name":"estimateVerificationGas","inputs":[{"name":"proofSize","type":"uint256","internalType":"uint256"}],"outputs":[{"name":"","type":"uint256","internalType":"uint256"}],"stateMutability":"pure"},{"type":"function","name":"getLock","inputs":[{"name":"lockId","type":"bytes32","internalType":"bytes32"}],"outputs":[{"name":"sender","type":"address","internalType":"address"},{"name":"amount","type":"uint256","internalType":"uint256"},{"name":"dilithiumPubKeyHash","type":"bytes32","internalType":"bytes32"},{"name":"timestamp","type":"uint256","internalType":"uint256"},{"name":"released","type":"bool","internalType":"bool"}],"stateMutability":"view"},{"type":"function","name":"getVerificationMode","inputs":[],"outputs":[{"name":"","type":"string","internalType":"string"}],"stateMutability":"view"},{"type":"function","name":"isQuantumResistant","inputs":[],"outputs":[{"name":"","type":"bool","internalType":"bool"}],"stateMutability":"pure"},{"type":"function","name":"lock","inputs":[{"name":"dilithiumPubKeyHash","type":"bytes32","internalType":"bytes32"}],"outputs":[{"name":"lockId","type":"bytes32","internalType":"bytes32"}],"stateMutability":"payable"},{"type":"function","name":"locks","inputs":[{"name":"","type":"bytes32","internalType":"bytes32"}],"outputs":[{"name":"sender","type":"address","internalType":"address"},{"name":"amount","type":"uint256","internalType":"uint256"},{"name":"dilithiumPubKeyHash","type":"bytes32","internalType":"bytes32"},{"name":"timestamp","type":"uint256","internalType":"uint256"},{"name":"released","type":"bool","internalType":"bool"}],"stateMutability":"view"},{"type":"function","name":"nonceCounter","inputs":[],"outputs":[{"name":"","type":"uint256","internalType":"uint256"}],"stateMutability":"view"},{"type":"function","name":"owner","inputs":[],"outputs":[{"name":"","type":"address","internalType":"address"}],"stateMutability":"view"},{"type":"function","name":"pause","inputs":[],"outputs":[],"stateMutability":"nonpayable"},{"type":"function","name":"paused","inputs":[],"outputs":[{"name":"","type":"bool","internalType":"bool"}],"stateMutability":"view"},{"type":"function","name":"releaseWithProof","inputs":[{"name":"publicInputs","type":"tuple","internalType":"struct QuantumShield.PublicInputs","components":[{"name":"publicKeyHash","type":"bytes32","internalType":"bytes32"},{"name":"messageHash","type":"bytes32","internalType":"bytes32"},{"name":"signatureValid","type":"bool","internalType":"bool"},{"name":"nonce","type":"uint64","internalType":"uint64"},{"name":"recipient","type":"address","internalType":"address"},{"name":"amount","type":"uint256","internalType":"uint256"},{"name":"lockId","type":"bytes32","internalType":"bytes32"}]},{"name":"proof","type":"tuple","internalType":"struct QuantumShield.StarkProof","components":[{"name":"traceCommitment","type":"bytes32","internalType":"bytes32"},{"name":"friProof","type":"bytes","internalType":"bytes"},{"name":"queryResponses","type":"bytes32[]","internalType":"bytes32[]"}]}],"outputs":[],"stateMutability":"nonpayable"},{"type":"function","name":"setVerifier","inputs":[{"name":"_verifier","type":"address","internalType":"address"}],"outputs":[],"stateMutability":"nonpayable"},{"type":"function","name":"totalLocked","inputs":[],"outputs":[{"name":"","type":"uint256","internalType":"uint256"}],"stateMutability":"view"},{"type":"function","name":"transferOwnership","inputs":[{"name":"newOwner","type":"address","internalType":"address"}],"outputs":[],"stateMutability":"nonpayable"},{"type":"function","name":"unpause","inputs":[],"outputs":[],"stateMutability":"nonpayable"},{"type":"function","name":"usedNonces","inputs":[{"name":"","type":"uint256","internalType":"uint256"}],"outputs":[{"name":"","type":"bool","internalType":"bool"}],"stateMutability":"view"},{"type":"function","name":"usedProofCommitments","inputs":[{"name":"","type":"bytes32","internalType":"bytes32"}],"outputs":[{"name":"","type":"bool","internalType":"bool"}],"stateMutability":"view"},{"type":"function","name":"verifier","inputs":[],"outputs":[{"name":"","type":"address","internalType":"address"}],"stateMutability":"view"},{"type":"event","name":"EmergencyPaused","inputs":[{"name":"by","type":"address","indexed":true,"internalType":"address"}],"anonymous":false},{"type":"event","name":"EmergencyUnpaused","inputs":[{"name":"by","type":"address","indexed":true,"internalType":"address"}],"anonymous":false},{"type":"event","name":"Locked","inputs":[{"name":"lockId","type":"bytes32","indexed":true,"internalType":"bytes32"},{"name":"sender","type":"address","indexed":true,"internalType":"address"},{"name":"amount","type":"uint256","indexed":false,"internalType":"uint256"},{"name":"dilithiumPubKeyHash","type":"bytes32","indexed":false,"internalType":"bytes32"},{"name":"nonce","type":"uint256","indexed":false,"internalType":"uint256"}],"anonymous":false},{"type":"event","name":"ProofVerified","inputs":[{"name":"lockId","type":"bytes32","indexed":true,"internalType":"bytes32"},{"name":"publicInputsHash","type":"bytes32","indexed":false,"internalType":"bytes32"},{"name":"gasUsed","type":"uint256","indexed":false,"internalType":"uint256"}],"anonymous":false},{"type":"event","name":"Released","inputs":[{"name":"lockId","type":"bytes32","indexed":true,"internalType":"bytes32"},{"name":"recipient","type":"address","indexed":true,"internalType":"address"},{"name":"amount","type":"uint256","indexed":false,"internalType":"uint256"}],"anonymous":false},{"type":"event","name":"VerifierUpdated","inputs":[{"name":"newVerifier","type":"address","indexed":true,"internalType":"address"}],"anonymous":false},{"type":"error","name":"CommitmentMismatch","inputs":[]},{"type":"error","name":"InsufficientAmount","inputs":[]},{"type":"error","name":"InvalidProof","inputs":[]},{"type":"error","name":"InvalidPublicInputs","inputs":[]},{"type":"error","name":"LockAlreadyReleased","inputs":[]},{"type":"error","name":"LockNotFound","inputs":[]},{"type":"error","name":"NonceAlreadyUsed","inputs":[]},{"type":"error","name":"NotOwner","inputs":[]},{"type":"error","name":"Paused","inputs":[]},{"type":"error","name":"ProofTooLarge","inputs":[]},{"type":"error","name":"SignatureNotValid","inputs":[]},{"type":"error","name":"TransferFailed","inputs":[]},{"type":"error","name":"ZeroAddress","inputs":[]}],"bytecode":{"object":"0x60808060405234610027575f80546001600160a01b0319163317905561115f908161002c8239f35b5f80fdfe608080604052600436101561001c575b50361561001a575f80fd5b005b5f3560e01c90816301670ba914610939575080632b7ac3f3146109115780633e153802146105425780633f4ba83a146104f05780635437988d14610488578063568914121461046b5780635c975abb146104475780635cd3ce271461042a5780636717e41c146103fb5780636f173079146103e05780638456cb59146103855780638da5cb5b1461035e578063b1a9c8e51461032f578063ccaaac44146102ce578063d5d754eb146102b1578063d6f27b5814610227578063de780bbd14610294578063ed5e843714610227578063f2fde38b146101bc578063f3b1b9d1146101a1578063f6f32ac5146101395763fda1293e1461011a575f61000f565b34610135575f36600319011261013557602060405160088152f35b5f80fd5b34610135575f366003190112610135576101516110c4565b6040519081602080825282519081818401525f935b828510610188575050604092505f838284010152601f80199101168101030190f35b8481018201518686016040015293810193859350610166565b34610135575f36600319011261013557602060405160508152f35b34610135576020366003190112610135576004356001600160a01b0381811691829003610135575f549081163303610215578115610203576001600160a01b031916175f55005b60405163d92e233d60e01b8152600490fd5b6040516330cd747160e01b8152600490fd5b3461013557602036600319011261013557600480355f90815260208281526040918290208054600182015460028301546003840154939096015485516001600160a01b0390931683529382015292830193909352606082019290925260ff9091161515608082015260a090f35b34610135575f366003190112610135576020600254604051908152f35b34610135575f366003190112610135576020604051621000008152f35b34610135576020366003190112610135576004358060041b908082046010149015171561031b57620186a09080820180921161031b57623e8fa00180911161031b57602090604051908152f35b634e487b7160e01b5f52601160045260245ffd5b34610135576020366003190112610135576004355f526006602052602060ff60405f2054166040519015158152f35b34610135575f366003190112610135575f546040516001600160a01b039091168152602090f35b34610135575f366003190112610135575f546001600160a01b03811633036102155760ff60a01b1916600160a01b175f90815533907fb8fad2fa0ed7a383e747c309ef2c4391d7b65592a48893e57ccc1fab707914569080a2005b34610135575f36600319011261013557602060405160018152f35b34610135576020366003190112610135576004355f526005602052602060ff60405f2054166040519015158152f35b34610135575f366003190112610135576020604051620100008152f35b34610135575f36600319011261013557602060ff5f5460a01c166040519015158152f35b34610135575f366003190112610135576020600154604051908152f35b34610135576020366003190112610135576004356001600160a01b0381811691829003610135575f5416330361021557600380546001600160a01b031916821790557fd24015cc99cc1700cafca3042840a1d8ac1e3964fd2e0e37ea29c654056ee3275f80a2005b34610135575f366003190112610135575f546001600160a01b03811633036102155760ff60a01b19165f55337ff5cbf596165cc457b2cd92e8d8450827ee314968160a5696402d75766fc52caf5f80a2005b346101355760031936810161010081126101355760e0136101355760e435906001600160401b0382116101355760609082360301126101355760ff5f5460a01c166108ff575a6210000061059c6024840184600401610b1c565b9050116108ed57600435156108a557602435156108a55760c435156108a55760a435156108a55760c4355f52600460205260405f209160018060a01b03835416156108db5760048301549160ff83166108c9576004356002850154036108b75760a4356001850154036108a557604435928315938415036101355783610893576001600160401b0361062c610b4e565b165f52600560205260ff60405f2054166108825782600401355f52600660205260ff60405f2054166108705761066483600401610bbc565b156108705760ff1990811660011760048601556106d2926001600160401b0361068b610b4e565b165f52600560205260405f20600183825416179055600401355f526006602052600160405f20918254161790556106c86001850154600154610b64565b6001555a90610b64565b906064356001600160401b0381168103610135576084356001600160a01b038116810361013557604051916020830193600435855260243560408501521560f81b60608401526001600160401b0360c01b9060c01b1660618301526001600160601b03199060601b16606982015260a435607d82015260c435609d820152609d815261075d81610aaa565b5190209060405191825260208201527f5218389e256f588f1b0c542d774ec9ba39106830c105126b25a30eab96afa3be604060c43592a26001600160a01b036107a4610b71565b1615610203575f8080806107b6610b71565b6001860154905af13d1561086b573d6001600160401b03811161085757604051906107eb601f8201601f191660200183610afb565b81525f60203d92013e5b15610845576001610804610b71565b9101546040519081526001600160a01b039091169060c435907fc8fa66dff4b9073528c3f1bf21a8dc9a18fdf09847e88e96188bc953aef519f090602090a3005b6040516312171d8360e31b8152600490fd5b634e487b7160e01b5f52604160045260245ffd5b6107f5565b6040516309bde33960e01b8152600490fd5b604051623f613760e71b8152600490fd5b60405163401b4d9760e01b8152600490fd5b6040516319dcebfb60e21b8152600490fd5b604051635054097b60e01b8152600490fd5b604051632c04416160e01b8152600490fd5b604051636086ee6f60e11b8152600490fd5b604051630967beaf60e11b8152600490fd5b6040516313d0ff5960e31b8152600490fd5b34610135575f366003190112610135576003546040516001600160a01b039091168152602090f35b60209081600319360112610135576004359060ff5f5460a01c16610a8d57503415610a7b576002549061096b82610a9c565b600255604051838101903360601b8252346034820152826054820152836074820152426094820152609481526109a081610aaa565b5190209160405160a081018181106001600160401b038211176108575760405233815260048582019134835260408101858152606082019042825260808301945f8652885f52848a5260405f209360018060a01b039051166001600160601b0360a01b855416178455516001840155516002830155516003820155019051151560ff8019835416911617905560015434810180911161031b5760015560405191348352848301526040820152817f90b4652709ecf95c465dbc53abc979fad77829d2ccc7fe10e6e0815f9b4f303860603393a3604051908152f35b604051632ca2f52b60e11b8152600490fd5b6313d0ff5960e31b8152600490fd5b5f19811461031b5760010190565b60c081019081106001600160401b0382111761085757604052565b606081019081106001600160401b0382111761085757604052565b604081019081106001600160401b0382111761085757604052565b90601f801991011681019081106001600160401b0382111761085757604052565b903590601e198136030182121561013557018035906001600160401b0382116101355760200191813603831361013557565b6064356001600160401b03811681036101355790565b9190820391821161031b57565b6084356001600160a01b03811681036101355790565b903590601e198136030182121561013557018035906001600160401b03821161013557602001918160051b3603831361013557565b6003546001600160a01b039190821680610bde5750610bdb9150610d6e565b90565b60443580151580910361013557606435936001600160401b03851685036101355760843590811681036101355760405190602095868301936004358552602435604085015260f81b60608401526001600160401b0360c01b9060c01b1660618301526001600160601b03199060601b16606982015260a435607d82015260c435609d820152609d8152610c7081610aaa565b51902090610c8084840184610b1c565b939084610c906040840184610b87565b92909360405196631358580f60e11b885260048801523560248701526080604487015281608487015260a48601375f948560a48287010152601f801991011684019060a08583030160648601528060a483015260018060fb1b038111610d6a5760c4858094899694829460051b809285830137010301915afa928315610d5f578293610d1d575b50505090565b9080929350813d8311610d58575b610d358183610afb565b81010312610d545751908115158203610d5157505f8080610d17565b80fd5b5080fd5b503d610d2b565b6040513d84823e3d90fd5b8580fd5b80359081156110be576020908181019082610d898383610b1c565b9050106110b657610d9a8282610b1c565b1561107457359360f89480861c90811580156110ac575b6110a15760f31c94611fe060e087169616860361031b5760019586019460ff9586811161031b5786610de38388610b1c565b929050161161109557604094858101986050610dff8b84610b87565b905010611014575f808a5b611022575b5015611014576044359687151580980361013557610e2b610b4e565b96610e34610b71565b82518781019160049a8b35845260249c8d3587850152871b60608401526001600160401b0360c01b9060c01b1660618301526001600160601b03199060601b16606982015260a435607d82015260c435609d820152609d8152610e9681610aaa565b51902082519087820192835283820152828152610eb281610ac5565b519020905f9b610ec28186610b87565b9050610fb9575b5050508894855f965b610ee5575b505050505050505050505090565b818a88161080610f88575b15610f83575f805b878110610f44575015610f3457858101809111610f2257958916808a14610f22578a01958a610ed2565b88601189634e487b7160e01b5f52525ffd5b5050505050505050505050505f90565b90610f4f8787610b1c565b9083850191821015610f71570135851c601f83900360031b1b17908c01610ef8565b8c60328d634e487b7160e01b5f52525ffd5b610ed7565b50858101808211610fa757610f9d8686610b1c565b9190501115610ef0565b8960118a634e487b7160e01b5f52525ffd5b610fc790859d93949d610b87565b9290921561100257508051808701938452913582820152815289959493929190610ff081610ac5565b51902015159990919293945f80610ec9565b634e487b7160e01b8152603289528990fd5b505050505050505050505f90565b61102c8c85610b87565b905081108061108d575b15611088576110458c85610b87565b8291921015611074578b918160051b013561106a575b61106490610a9c565b90610e0a565b909150819061105b565b634e487b7160e01b5f52603260045260245ffd5b610e0f565b508115611036565b50505050505050505f90565b505050505050505f90565b5060148211610db1565b505050505f90565b50505f90565b6003546001600160a01b03166110fc576040516110e081610ae0565b600c81526b4e41544956455f535441524b60a01b602082015290565b60405161110881610ae0565b601181527022ac2a22a92720a62fab22a924a324a2a960791b60208201529056fea2646970667358221220316a0c9b8a3a45bdb120b11080d98bfb3631a4c40d1f0c103d98b0c41b59fe4964736f6c63430008140033","linkReferences":{}},"methodIdentifiers":{"BLOWUP_FACTOR()":"fda1293e","FRI_DOMAIN_SIZE()":"5cd3ce27","FRI_NUM_QUERIES()":"f3b1b9d1","MAX_PROOF_SIZE()":"d5d754eb","estimateVerificationGas(uint256)":"ccaaac44","getLock(bytes32)":"d6f27b58","getVerificationMode()":"f6f32ac5","isQuantumResistant()":"6f173079","lock(bytes32)":"01670ba9","locks(bytes32)":"ed5e8437","nonceCounter()":"de780bbd","owner()":"8da5cb5b","pause()":"8456cb59","paused()":"5c975abb","releaseWithProof((bytes32,bytes32,bool,uint64,address,uint256,bytes32),(bytes32,bytes,bytes32[]))":"3e153802","setVerifier(address)":"5437988d","totalLocked()":"56891412","transferOwnership(address)":"f2fde38b","unpause()":"3f4ba83a","usedNonces(uint256)":"6717e41c","usedProofCommitments(bytes32)":"b1a9c8e5","verifier()":"2b7ac3f3"},"id":1}