{"abi":[{"type":"constructor","inputs":[{"name":"_stakingContract","type":"address","internalType":"address"},{"name":"admin","type":"address","internalType":"address"}],"stateMutability":"nonpayable"},{"type":"function","name":"ADMIN_ROLE","inputs":[],"outputs":[{"name":"","type":"bytes32","internalType":"bytes32"}],"stateMutability":"view"},{"type":"function","name":"DEFAULT_ADMIN_ROLE","inputs":[],"outputs":[{"name":"","type":"bytes32","internalType":"bytes32"}],"stateMutability":"view"},{"type":"function","name":"HEALTH_ROLE","inputs":[],"outputs":[{"name":"","type":"bytes32","internalType":"bytes32"}],"stateMutability":"view"},{"type":"function","name":"MINIMUM_STAKE","inputs":[],"outputs":[{"name":"","type":"uint256","internalType":"uint256"}],"stateMutability":"view"},{"type":"function","name":"ROTATION_ROLE","inputs":[],"outputs":[{"name":"","type":"bytes32","internalType":"bytes32"}],"stateMutability":"view"},{"type":"function","name":"SPHINCS_KEY_LENGTH","inputs":[],"outputs":[{"name":"","type":"uint256","internalType":"uint256"}],"stateMutability":"view"},{"type":"function","name":"deregister","inputs":[],"outputs":[],"stateMutability":"nonpayable"},{"type":"function","name":"forceDeregister","inputs":[{"name":"sequencer","type":"address","internalType":"address"}],"outputs":[],"stateMutability":"nonpayable"},{"type":"function","name":"getActiveSequencers","inputs":[],"outputs":[{"name":"","type":"address[]","internalType":"address[]"}],"stateMutability":"view"},{"type":"function","name":"getActiveSequencersCount","inputs":[],"outputs":[{"name":"","type":"uint256","internalType":"uint256"}],"stateMutability":"view"},{"type":"function","name":"getRoleAdmin","inputs":[{"name":"role","type":"bytes32","internalType":"bytes32"}],"outputs":[{"name":"","type":"bytes32","internalType":"bytes32"}],"stateMutability":"view"},{"type":"function","name":"getSequencerInfo","inputs":[{"name":"sequencer","type":"address","internalType":"address"}],"outputs":[{"name":"","type":"tuple","internalType":"struct ISequencerRegistry.SequencerInfo","components":[{"name":"sequencerAddress","type":"address","internalType":"address"},{"name":"sphincsKey","type":"bytes","internalType":"bytes"},{"name":"stake","type":"uint256","internalType":"uint256"},{"name":"registeredAt","type":"uint256","internalType":"uint256"},{"name":"isActive","type":"bool","internalType":"bool"},{"name":"totalBlocksProduced","type":"uint256","internalType":"uint256"}]}],"stateMutability":"view"},{"type":"function","name":"getSphincsKey","inputs":[{"name":"sequencer","type":"address","internalType":"address"}],"outputs":[{"name":"","type":"bytes","internalType":"bytes"}],"stateMutability":"view"},{"type":"function","name":"grantRole","inputs":[{"name":"role","type":"bytes32","internalType":"bytes32"},{"name":"account","type":"address","internalType":"address"}],"outputs":[],"stateMutability":"nonpayable"},{"type":"function","name":"hasRole","inputs":[{"name":"role","type":"bytes32","internalType":"bytes32"},{"name":"account","type":"address","internalType":"address"}],"outputs":[{"name":"","type":"bool","internalType":"bool"}],"stateMutability":"view"},{"type":"function","name":"healthContract","inputs":[],"outputs":[{"name":"","type":"address","internalType":"address"}],"stateMutability":"view"},{"type":"function","name":"incrementBlocksProduced","inputs":[{"name":"sequencer","type":"address","internalType":"address"}],"outputs":[],"stateMutability":"nonpayable"},{"type":"function","name":"isRegistered","inputs":[{"name":"sequencer","type":"address","internalType":"address"}],"outputs":[{"name":"","type":"bool","internalType":"bool"}],"stateMutability":"view"},{"type":"function","name":"register","inputs":[{"name":"sphincsKey","type":"bytes","internalType":"bytes"}],"outputs":[],"stateMutability":"payable"},{"type":"function","name":"renounceRole","inputs":[{"name":"role","type":"bytes32","internalType":"bytes32"},{"name":"callerConfirmation","type":"address","internalType":"address"}],"outputs":[],"stateMutability":"nonpayable"},{"type":"function","name":"revokeRole","inputs":[{"name":"role","type":"bytes32","internalType":"bytes32"},{"name":"account","type":"address","internalType":"address"}],"outputs":[],"stateMutability":"nonpayable"},{"type":"function","name":"rotationContract","inputs":[],"outputs":[{"name":"","type":"address","internalType":"address"}],"stateMutability":"view"},{"type":"function","name":"setHealthContract","inputs":[{"name":"_healthContract","type":"address","internalType":"address"}],"outputs":[],"stateMutability":"nonpayable"},{"type":"function","name":"setRotationContract","inputs":[{"name":"_rotationContract","type":"address","internalType":"address"}],"outputs":[],"stateMutability":"nonpayable"},{"type":"function","name":"stakingContract","inputs":[],"outputs":[{"name":"","type":"address","internalType":"contract ISequencerStaking"}],"stateMutability":"view"},{"type":"function","name":"supportsInterface","inputs":[{"name":"interfaceId","type":"bytes4","internalType":"bytes4"}],"outputs":[{"name":"","type":"bool","internalType":"bool"}],"stateMutability":"view"},{"type":"function","name":"updateSphincsKey","inputs":[{"name":"newSphincsKey","type":"bytes","internalType":"bytes"}],"outputs":[],"stateMutability":"nonpayable"},{"type":"function","name":"updateStakeInfo","inputs":[{"name":"sequencer","type":"address","internalType":"address"},{"name":"newStake","type":"uint256","internalType":"uint256"}],"outputs":[],"stateMutability":"nonpayable"},{"type":"event","name":"HealthContractSet","inputs":[{"name":"healthContract","type":"address","indexed":true,"internalType":"address"}],"anonymous":false},{"type":"event","name":"RoleAdminChanged","inputs":[{"name":"role","type":"bytes32","indexed":true,"internalType":"bytes32"},{"name":"previousAdminRole","type":"bytes32","indexed":true,"internalType":"bytes32"},{"name":"newAdminRole","type":"bytes32","indexed":true,"internalType":"bytes32"}],"anonymous":false},{"type":"event","name":"RoleGranted","inputs":[{"name":"role","type":"bytes32","indexed":true,"internalType":"bytes32"},{"name":"account","type":"address","indexed":true,"internalType":"address"},{"name":"sender","type":"address","indexed":true,"internalType":"address"}],"anonymous":false},{"type":"event","name":"RoleRevoked","inputs":[{"name":"role","type":"bytes32","indexed":true,"internalType":"bytes32"},{"name":"account","type":"address","indexed":true,"internalType":"address"},{"name":"sender","type":"address","indexed":true,"internalType":"address"}],"anonymous":false},{"type":"event","name":"RotationContractSet","inputs":[{"name":"rotationContract","type":"address","indexed":true,"internalType":"address"}],"anonymous":false},{"type":"event","name":"SequencerDeregistered","inputs":[{"name":"sequencer","type":"address","indexed":true,"internalType":"address"},{"name":"timestamp","type":"uint256","indexed":false,"internalType":"uint256"}],"anonymous":false},{"type":"event","name":"SequencerRegistered","inputs":[{"name":"sequencer","type":"address","indexed":true,"internalType":"address"},{"name":"sphincsKey","type":"bytes","indexed":false,"internalType":"bytes"},{"name":"stake","type":"uint256","indexed":false,"internalType":"uint256"},{"name":"timestamp","type":"uint256","indexed":false,"internalType":"uint256"}],"anonymous":false},{"type":"event","name":"SequencerStakeUpdated","inputs":[{"name":"sequencer","type":"address","indexed":true,"internalType":"address"},{"name":"oldStake","type":"uint256","indexed":false,"internalType":"uint256"},{"name":"newStake","type":"uint256","indexed":false,"internalType":"uint256"}],"anonymous":false},{"type":"error","name":"AccessControlBadConfirmation","inputs":[]},{"type":"error","name":"AccessControlUnauthorizedAccount","inputs":[{"name":"account","type":"address","internalType":"address"},{"name":"neededRole","type":"bytes32","internalType":"bytes32"}]},{"type":"error","name":"ReentrancyGuardReentrantCall","inputs":[]}],"bytecode":{"object":"0x608034620000e457601f62001bd138819003918201601f19168301916001600160401b03831184841017620000e8578084926040948552833981010312620000e4576200005a60206200005283620000fc565b9201620000fc565b600180556001600160a01b03909116908115620000ad57600280546001600160a01b0319169092179091556200009c90620000958162000111565b5062000181565b5060405161196f9081620002228239f35b60405162461bcd60e51b815260206004820152600f60248201526e496e76616c6964207374616b696e6760881b6044820152606490fd5b5f80fd5b634e487b7160e01b5f52604160045260245ffd5b51906001600160a01b0382168203620000e457565b6001600160a01b03165f8181525f8051602062001bb1833981519152602052604090205460ff166200017c575f8181525f8051602062001bb183398151915260205260408120805460ff191660011790553391905f8051602062001b918339815191528180a4600190565b505f90565b6001600160a01b03165f8181527f7d7ffb7a348e1c6a02869081a26547b49160dd3df72d1d75a570eb9b698292ec60205260409020547fa49807205ce4d355092ef5a8a18f56e8913cf4a201fbe287825b095693c21775919060ff166200021b57815f525f60205260405f20815f5260205260405f20600160ff1982541617905533915f8051602062001b918339815191525f80a4600190565b50505f9056fe60808060405260049081361015610014575f80fd5b5f915f3560e01c91826301ffc9a7146111155750816308dbbb03146110f1578163248a9ca3146110c75781632f2ff15d1461108c57816330527b6614610f4d5781633116a26614610ed757816336568abe14610e9257816345a4f50614610e755781634672bb3214610dfc57816365a3275614610cfe5781636ffbf73214610b5f57816371c9b18e14610b3957816375b238fc14610aff5781637fab90f814610ae557816382fbdc9c1461071257816391d14854146106ca578163a217fddf146106ae578163aa378a7d146105af578163ad14d30c14610574578163aff5edb114610419578163c18cf7b9146103c2578163c3c5a54714610383578163d547741f14610342578163d5f950c3146102aa57508063dbc76e6314610281578063ee99205c14610258578063f4eba842146101925763fb36ad0414610155575f80fd5b3461018f578060031936011261018f5760206040517f2e6d6c5568fae3f1b55c2ab3d6c6ec71efd564a5ac70aa6177d7f21d3e8bd8918152f35b80fd5b503461018f578060031936011261018f5760405180916006549081835260208093018092600683527ff652222313e28459528d920b65115c16c04f3efc82aaedc97be59f3f377c0d3f90835b81811061023b57505050846101f4910385611307565b60405193838594850191818652518092526040850193925b82811061021b57505050500390f35b83516001600160a01b03168552869550938101939281019260010161020c565b82546001600160a01b0316845292860192600192830192016101de565b503461018f578060031936011261018f576002546040516001600160a01b039091168152602090f35b503461018f578060031936011261018f576003546040516001600160a01b039091168152602090f35b90503461033e57602036600319011261033e576102c561117d565b906102ce6114e3565b6001600160a01b0382168084526008602052604084205490926102fc916102f79060ff16611259565b611798565b8183526005602052604083200160ff1981541690557ffd32e98e8fa123b352fdb8bc5f3f29f11ecfdc2b70a767613960f522071297096020604051428152a280f35b5080fd5b90503461033e57604036600319011261033e5761037f9035610362611167565b908084528360205261037a600160408620015461155c565b6118a4565b5080f35b823461018f57602036600319011261018f5760209060ff906040906001600160a01b036103ae61117d565b168152600884522054166040519015158152f35b823461018f57602036600319011261018f5761041590610401906001906040906001600160a01b036103f261117d565b168152600560205220016113f2565b6040519182916020835260208301906111dd565b0390f35b90503461033e578160031936011261033e57610433611916565b3382526020906008825261044d60ff604085205416611259565b33835260058252600260408420015461046533611798565b3384526005835281604085200160ff19815416905560018060a01b03600254169060405184810191630dbbc22360e21b83523360248301526044820152604481526080810181811067ffffffffffffffff8211176105615760405251859283929083905af13d1561055c573d6104da81611329565b906104e86040519283611307565b815284843d92013e5b1561052957507ffd32e98e8fa123b352fdb8bc5f3f29f11ecfdc2b70a767613960f52207129709604051914283523392a26001805580f35b6064916040519162461bcd60e51b8352820152600e60248201526d155b9cdd185ad94819985a5b195960921b6044820152fd5b6104f1565b604185634e487b7160e01b5f525260245ffd5b823461018f578060031936011261018f5760206040517f3e1b4437445193a89df18d730e3f81b20c05ee8efeeb1289fe7bebcb05c4fa008152f35b90503461033e57602090816003193601126106aa5760406105ce61117d565b938060a083516105dd816112d7565b8281526060878201528285820152826060820152826080820152015260018060a01b03809516815260058452209160405192610618846112d7565b84815416845261062a600182016113f2565b9282850193845261068b60028301549460408701958652600560ff60038601549460608a01958652860154169460808901951515865201549460a08801958652604051988998828a525116908801525160c0604088015260e08701906111dd565b9351606086015251608085015251151560a08401525160c08301520390f35b8280fd5b823461018f578060031936011261018f57602090604051908152f35b823461018f57604036600319011261018f576040906106e7611167565b9235815280602052209060018060a01b03165f52602052602060ff60405f2054166040519015158152f35b8261071c36611193565b90610725611916565b335f52600860205260ff60405f205416610aac5761074560208314611296565b610750368383611345565b602081519101205f52600960205260018060a01b036107758160405f2054161561137b565b6969e10de76676d08000003410610a73578060025416803b15610a6f575f602491604051928380926325fb490360e11b8252338b83015234905af18015610a6457610a47575b50604051906107c9826112d7565b3382526107d7368585611345565b60208301908152604083013481526060840191428352600160808601528760a0860152338852600560205260408820938551166001600160601b0360a01b8554161784555180519067ffffffffffffffff8211610a34576108488261083f60018801546113ba565b60018801611494565b602090601f83116001146109c65761087792918a91836109bb575b50508160011b915f199060031b1c19161790565b60018401555b516002830155516003820155600560a087830193608081015115159460ff199560ff87835416911617905501519101556006543385526007602052806040862055680100000000000000008110156109a857906109236109058360017ff913bf968d5234e498cc7bd3696586deae8b462d84e882c5f4e41cb0d45e5f1b96950160065561174f565b81546001600160a01b0360039290921b91821b19163390911b179055565b338552600860205260016040862091825416179055610943368483611345565b602081519101208452600960205260408420336001600160601b0360a01b825416179055826040519160608352816060840152608083013783608084830101523460208201524260408201526080813394601f80199101168101030190a26001805580f35b634e487b7160e01b855260418652602485fd5b015190508b80610863565b9190600186018a5260208a20908a935b601f1984168510610a19576001945083601f19811610610a01575b505050811b01600184015561087d565b01515f1960f88460031b161c191690558a80806109f1565b818101518355602094850194600190930192909101906109d6565b634e487b7160e01b895260418a52602489fd5b90935067ffffffffffffffff8111610561576040525f92856107bb565b6040513d5f823e3d90fd5b5f80fd5b60405162461bcd60e51b81526020818701526012602482015271496e73756666696369656e74207374616b6560701b6044820152606490fd5b60405162461bcd60e51b81526020818601526012602482015271105b1c9958591e481c9959da5cdd195c995960721b6044820152606490fd5b34610a6f575f366003190112610a6f576020604051818152f35b34610a6f575f366003190112610a6f5760206040517fa49807205ce4d355092ef5a8a18f56e8913cf4a201fbe287825b095693c217758152f35b34610a6f575f366003190112610a6f57546040516001600160a01b039091168152602090f35b34610a6f57610b6d36611193565b91335f5260209060088252610b8860ff60405f205416611259565b610b93828514611296565b610b9e368585611345565b82815191012090815f5260098352610bc260018060a01b0360405f2054161561137b565b335f52600583526001610bda600160405f20016113f2565b8481519101205f526009845260405f20946001600160601b0360a01b95868154169055335f5260058552600160405f20019267ffffffffffffffff8811610ceb5750610c3087610c2a85546113ba565b85611494565b5f91601f8811600114610c8457509580610c6292600997985f92610c795750508160011b915f199060031b1c19161790565b90555b5f525260405f209033908254161790555f80f35b013590508880610863565b91601f198816845f52865f20935f905b828210610cd45750509160019391896009999a9410610cbb575b505050811b019055610c65565b01355f19600384901b60f8161c19169055878080610cae565b848401358655948501949288019290880190610c94565b604190634e487b7160e01b5f525260245ffd5b34610a6f5760209081600319360112610a6f57610d1961117d565b7f3e1b4437445193a89df18d730e3f81b20c05ee8efeeb1289fe7bebcb05c4fa00805f525f845260405f20335f52845260ff60405f20541615610ddd57506001600160a01b03165f81815260088452604090205490929060ff1615610dad57600591925f5252600560405f2001908154905f198214610d9a57506001019055005b601190634e487b7160e01b5f525260245ffd5b60405162461bcd60e51b815291820152600a6024820152694e6f742061637469766560b01b604482015260649150fd5b60405163e2517d3f60e01b815233818501526024810191909152604490fd5b34610a6f576020366003190112610a6f57610e1561117d565b610e1d6114e3565b6001600160a01b03811690610e4e90610e3783151561121b565b600380546001600160a01b0319168417905561162e565b507f0fde0c27361fb720f5cb9ae4fd151aba17575bddfc54575a5a19c13b7cb16bcf5f80a2005b34610a6f575f366003190112610a6f576020600654604051908152f35b34610a6f576040366003190112610a6f57610eab611167565b336001600160a01b03821603610ec757610ec591356118a4565b005b5060405163334bd91960e11b8152fd5b34610a6f576020366003190112610a6f57610f26610ef361117d565b610efb6114e3565b6001600160a01b03811692610f1184151561121b565b80546001600160a01b0319168417905561157d565b507f2425b20c4b1858f8a8fbf017210473df8d9195697c8a4439517c3e8e814619c85f80a2005b34610a6f576040366003190112610a6f57610f6661117d565b600254602435906001600160a01b0390811633148015611055575b1561102057916040917f33b604a8b72477b69046a59ccf5f8d86a8249493ea648567620b03fc372489d393821694855f5260056020526002845f20019282845494556969e10de76676d080000083108061100e575b610fea575b505082519182526020820152a2005b610ff390611798565b855f526005602052835f200160ff1981541690558580610fdb565b50600860205260ff855f205416610fd6565b60405162461bcd60e51b8152602081860152600e60248201526d139bdd08185d5d1a1bdc9a5e995960921b6044820152606490fd5b50335f9081527f7d7ffb7a348e1c6a02869081a26547b49160dd3df72d1d75a570eb9b698292ec602052604090205460ff16610f81565b34610a6f576040366003190112610a6f57610ec590356110aa611167565b90805f525f6020526110c2600160405f20015461155c565b6116d9565b34610a6f576020366003190112610a6f57355f525f6020526020600160405f200154604051908152f35b34610a6f575f366003190112610a6f5760206040516969e10de76676d08000008152f35b9034610a6f576020366003190112610a6f57359063ffffffff60e01b8216809203610a6f57602091637965db0b60e01b8114908115611156575b5015158152f35b6301ffc9a760e01b1490508361114f565b602435906001600160a01b0382168203610a6f57565b600435906001600160a01b0382168203610a6f57565b906020600319830112610a6f5760043567ffffffffffffffff92838211610a6f5780602383011215610a6f578160040135938411610a6f5760248483010111610a6f576024019190565b91908251928382525f5b848110611207575050825f602080949584010152601f8019910116010190565b6020818301810151848301820152016111e7565b1561122257565b60405162461bcd60e51b815260206004820152600f60248201526e496e76616c6964206164647265737360881b6044820152606490fd5b1561126057565b60405162461bcd60e51b815260206004820152600e60248201526d139bdd081c9959da5cdd195c995960921b6044820152606490fd5b1561129d57565b60405162461bcd60e51b8152602060048201526012602482015271092dcecc2d8d2c840d6caf240d8cadccee8d60731b6044820152606490fd5b60c0810190811067ffffffffffffffff8211176112f357604052565b634e487b7160e01b5f52604160045260245ffd5b90601f8019910116810190811067ffffffffffffffff8211176112f357604052565b67ffffffffffffffff81116112f357601f01601f191660200190565b92919261135182611329565b9161135f6040519384611307565b829481845281830111610a6f578281602093845f960137010152565b1561138257565b60405162461bcd60e51b815260206004820152601060248201526f12d95e48185b1c9958591e481d5cd95960821b6044820152606490fd5b90600182811c921680156113e8575b60208310146113d457565b634e487b7160e01b5f52602260045260245ffd5b91607f16916113c9565b9060405191825f8254611404816113ba565b908184526020946001916001811690815f146114725750600114611434575b50505061143292500383611307565b565b5f90815285812095935091905b81831061145a57505061143293508201015f8080611423565b85548884018501529485019487945091830191611441565b9250505061143294925060ff191682840152151560051b8201015f8080611423565b601f82116114a157505050565b5f5260205f20906020601f840160051c830193106114d9575b601f0160051c01905b8181106114ce575050565b5f81556001016114c3565b90915081906114ba565b335f9081527f7d7ffb7a348e1c6a02869081a26547b49160dd3df72d1d75a570eb9b698292ec60205260409020547fa49807205ce4d355092ef5a8a18f56e8913cf4a201fbe287825b095693c217759060ff161561153e5750565b6044906040519063e2517d3f60e01b82523360048301526024820152fd5b805f525f60205260405f20335f5260205260ff60405f2054161561153e5750565b6001600160a01b03165f8181527f18bab404dcfdf66738141a8e7d3ca7c5ecc18f3b78fd8e73f6d69e8fe68cbcdf60205260409020547f2e6d6c5568fae3f1b55c2ab3d6c6ec71efd564a5ac70aa6177d7f21d3e8bd891919060ff1661162857815f525f60205260405f20815f5260205260405f20600160ff1982541617905533917f2f8788117e7eff1d82e926ec794901d17c78024a50270940304540a733656f0d5f80a4600190565b50505f90565b6001600160a01b03165f8181527ffbc263d39a728713a83c24ed9b87f69a58fbcfaec656e0441992558cf19ffc3560205260409020547f3e1b4437445193a89df18d730e3f81b20c05ee8efeeb1289fe7bebcb05c4fa00919060ff1661162857815f525f60205260405f20815f5260205260405f20600160ff1982541617905533917f2f8788117e7eff1d82e926ec794901d17c78024a50270940304540a733656f0d5f80a4600190565b90815f525f60205260405f209060018060a01b031690815f5260205260ff60405f205416155f1461162857815f525f60205260405f20815f5260205260405f20600160ff1982541617905533917f2f8788117e7eff1d82e926ec794901d17c78024a50270940304540a733656f0d5f80a4600190565b6006548110156117845760065f527ff652222313e28459528d920b65115c16c04f3efc82aaedc97be59f3f377c0d3f01905f90565b634e487b7160e01b5f52603260045260245ffd5b6001600160a01b039081165f8181526008602052604090205490919060ff16156118a057600760205260405f20546006545f19919082810190811161188c57808491830361183c575b50505060065480156118285701906117f88261174f565b909182549160031b1b191690556006555f5260076020525f6040812055600860205260405f2060ff198154169055565b634e487b7160e01b5f52603160045260245ffd5b6118459061174f565b90549060031b1c166118788161185a8461174f565b90919060018060a01b038084549260031b9316831b921b1916179055565b5f52600760205260405f20555f82816117e1565b634e487b7160e01b5f52601160045260245ffd5b5050565b90815f525f60205260405f209060018060a01b031690815f5260205260ff60405f2054165f1461162857815f525f60205260405f20815f5260205260405f2060ff19815416905533917ff6391f5c32d9c69d2a47ea670b442974b53935d1edc7fd64eb21e047a839171b5f80a4600190565b600260015414611927576002600155565b604051633ee5aeb560e01b8152600490fdfea2646970667358221220ffe832e60ea93d169344d00fe5890538cf9d4fbd23d877730cd2e3b66c98569164736f6c634300081800332f8788117e7eff1d82e926ec794901d17c78024a50270940304540a733656f0dad3228b676f7d3cd4284a5443f17f1962b36e491b30a40b2405849e597ba5fb5","linkReferences":{}},"methodIdentifiers":{"ADMIN_ROLE()":"75b238fc","DEFAULT_ADMIN_ROLE()":"a217fddf","HEALTH_ROLE()":"fb36ad04","MINIMUM_STAKE()":"08dbbb03","ROTATION_ROLE()":"ad14d30c","SPHINCS_KEY_LENGTH()":"7fab90f8","deregister()":"aff5edb1","forceDeregister(address)":"d5f950c3","getActiveSequencers()":"f4eba842","getActiveSequencersCount()":"45a4f506","getRoleAdmin(bytes32)":"248a9ca3","getSequencerInfo(address)":"aa378a7d","getSphincsKey(address)":"c18cf7b9","grantRole(bytes32,address)":"2f2ff15d","hasRole(bytes32,address)":"91d14854","healthContract()":"71c9b18e","incrementBlocksProduced(address)":"65a32756","isRegistered(address)":"c3c5a547","register(bytes)":"82fbdc9c","renounceRole(bytes32,address)":"36568abe","revokeRole(bytes32,address)":"d547741f","rotationContract()":"dbc76e63","setHealthContract(address)":"3116a266","setRotationContract(address)":"4672bb32","stakingContract()":"ee99205c","supportsInterface(bytes4)":"01ffc9a7","updateSphincsKey(bytes)":"6ffbf732","updateStakeInfo(address,uint256)":"30527b66"},"id":73}