{"abi":[{"type":"constructor","inputs":[{"name":"_stakingContract","type":"address","internalType":"address"},{"name":"_insuranceFund","type":"address","internalType":"address"},{"name":"admin","type":"address","internalType":"address"}],"stateMutability":"nonpayable"},{"type":"receive","stateMutability":"payable"},{"type":"function","name":"ADMIN_ROLE","inputs":[],"outputs":[{"name":"","type":"bytes32","internalType":"bytes32"}],"stateMutability":"view"},{"type":"function","name":"BASE_SLASH_PERCENT","inputs":[],"outputs":[{"name":"","type":"uint256","internalType":"uint256"}],"stateMutability":"view"},{"type":"function","name":"BURN_ADDRESS","inputs":[],"outputs":[{"name":"","type":"address","internalType":"address"}],"stateMutability":"view"},{"type":"function","name":"BURN_PERCENT","inputs":[],"outputs":[{"name":"","type":"uint256","internalType":"uint256"}],"stateMutability":"view"},{"type":"function","name":"CHALLENGER_REWARD_PERCENT","inputs":[],"outputs":[{"name":"","type":"uint256","internalType":"uint256"}],"stateMutability":"view"},{"type":"function","name":"CHALLENGE_BOND","inputs":[],"outputs":[{"name":"","type":"uint256","internalType":"uint256"}],"stateMutability":"view"},{"type":"function","name":"DEFAULT_ADMIN_ROLE","inputs":[],"outputs":[{"name":"","type":"bytes32","internalType":"bytes32"}],"stateMutability":"view"},{"type":"function","name":"HEALTH_MONITOR_ROLE","inputs":[],"outputs":[{"name":"","type":"bytes32","internalType":"bytes32"}],"stateMutability":"view"},{"type":"function","name":"INSURANCE_PERCENT","inputs":[],"outputs":[{"name":"","type":"uint256","internalType":"uint256"}],"stateMutability":"view"},{"type":"function","name":"calculateSlash","inputs":[{"name":"stake","type":"uint256","internalType":"uint256"},{"name":"violationCount","type":"uint256","internalType":"uint256"}],"outputs":[{"name":"","type":"uint256","internalType":"uint256"}],"stateMutability":"pure"},{"type":"function","name":"getInsuranceFund","inputs":[],"outputs":[{"name":"","type":"address","internalType":"address"}],"stateMutability":"view"},{"type":"function","name":"getRoleAdmin","inputs":[{"name":"role","type":"bytes32","internalType":"bytes32"}],"outputs":[{"name":"","type":"bytes32","internalType":"bytes32"}],"stateMutability":"view"},{"type":"function","name":"getViolationCount","inputs":[{"name":"sequencer","type":"address","internalType":"address"}],"outputs":[{"name":"","type":"uint256","internalType":"uint256"}],"stateMutability":"view"},{"type":"function","name":"getViolationRecords","inputs":[{"name":"sequencer","type":"address","internalType":"address"}],"outputs":[{"name":"","type":"tuple[]","internalType":"struct ISequencerSlashing.ViolationRecord[]","components":[{"name":"violationType","type":"uint8","internalType":"enum ISequencerSlashing.ViolationType"},{"name":"timestamp","type":"uint256","internalType":"uint256"},{"name":"slashAmount","type":"uint256","internalType":"uint256"},{"name":"challenger","type":"address","internalType":"address"}]}],"stateMutability":"view"},{"type":"function","name":"grantRole","inputs":[{"name":"role","type":"bytes32","internalType":"bytes32"},{"name":"account","type":"address","internalType":"address"}],"outputs":[],"stateMutability":"nonpayable"},{"type":"function","name":"hasRole","inputs":[{"name":"role","type":"bytes32","internalType":"bytes32"},{"name":"account","type":"address","internalType":"address"}],"outputs":[{"name":"","type":"bool","internalType":"bool"}],"stateMutability":"view"},{"type":"function","name":"insuranceFund","inputs":[],"outputs":[{"name":"","type":"address","internalType":"address"}],"stateMutability":"view"},{"type":"function","name":"renounceRole","inputs":[{"name":"role","type":"bytes32","internalType":"bytes32"},{"name":"callerConfirmation","type":"address","internalType":"address"}],"outputs":[],"stateMutability":"nonpayable"},{"type":"function","name":"reportDoubleSign","inputs":[{"name":"sequencer","type":"address","internalType":"address"},{"name":"proof","type":"bytes","internalType":"bytes"}],"outputs":[],"stateMutability":"payable"},{"type":"function","name":"reportDowntime","inputs":[{"name":"sequencer","type":"address","internalType":"address"}],"outputs":[],"stateMutability":"nonpayable"},{"type":"function","name":"reportInvalidStateRoot","inputs":[{"name":"sequencer","type":"address","internalType":"address"},{"name":"proof","type":"bytes","internalType":"bytes"}],"outputs":[],"stateMutability":"payable"},{"type":"function","name":"revokeRole","inputs":[{"name":"role","type":"bytes32","internalType":"bytes32"},{"name":"account","type":"address","internalType":"address"}],"outputs":[],"stateMutability":"nonpayable"},{"type":"function","name":"setAuthorizedMonitor","inputs":[{"name":"monitor","type":"address","internalType":"address"},{"name":"authorized","type":"bool","internalType":"bool"}],"outputs":[],"stateMutability":"nonpayable"},{"type":"function","name":"setChallengeBond","inputs":[{"name":"","type":"uint256","internalType":"uint256"}],"outputs":[],"stateMutability":"view"},{"type":"function","name":"setInsuranceFund","inputs":[{"name":"newFund","type":"address","internalType":"address"}],"outputs":[],"stateMutability":"nonpayable"},{"type":"function","name":"stakingContract","inputs":[],"outputs":[{"name":"","type":"address","internalType":"contract ISequencerStaking"}],"stateMutability":"view"},{"type":"function","name":"supportsInterface","inputs":[{"name":"interfaceId","type":"bytes4","internalType":"bytes4"}],"outputs":[{"name":"","type":"bool","internalType":"bool"}],"stateMutability":"view"},{"type":"function","name":"totalBurned","inputs":[],"outputs":[{"name":"","type":"uint256","internalType":"uint256"}],"stateMutability":"view"},{"type":"event","name":"ChallengeBondUpdated","inputs":[{"name":"newBond","type":"uint256","indexed":false,"internalType":"uint256"}],"anonymous":false},{"type":"event","name":"DoubleSignReported","inputs":[{"name":"sequencer","type":"address","indexed":true,"internalType":"address"},{"name":"challenger","type":"address","indexed":true,"internalType":"address"},{"name":"slashAmount","type":"uint256","indexed":false,"internalType":"uint256"},{"name":"violationCount","type":"uint256","indexed":false,"internalType":"uint256"}],"anonymous":false},{"type":"event","name":"DowntimeReported","inputs":[{"name":"sequencer","type":"address","indexed":true,"internalType":"address"},{"name":"slashAmount","type":"uint256","indexed":false,"internalType":"uint256"},{"name":"violationCount","type":"uint256","indexed":false,"internalType":"uint256"}],"anonymous":false},{"type":"event","name":"InsuranceFundUpdated","inputs":[{"name":"newFund","type":"address","indexed":true,"internalType":"address"}],"anonymous":false},{"type":"event","name":"RoleAdminChanged","inputs":[{"name":"role","type":"bytes32","indexed":true,"internalType":"bytes32"},{"name":"previousAdminRole","type":"bytes32","indexed":true,"internalType":"bytes32"},{"name":"newAdminRole","type":"bytes32","indexed":true,"internalType":"bytes32"}],"anonymous":false},{"type":"event","name":"RoleGranted","inputs":[{"name":"role","type":"bytes32","indexed":true,"internalType":"bytes32"},{"name":"account","type":"address","indexed":true,"internalType":"address"},{"name":"sender","type":"address","indexed":true,"internalType":"address"}],"anonymous":false},{"type":"event","name":"RoleRevoked","inputs":[{"name":"role","type":"bytes32","indexed":true,"internalType":"bytes32"},{"name":"account","type":"address","indexed":true,"internalType":"address"},{"name":"sender","type":"address","indexed":true,"internalType":"address"}],"anonymous":false},{"type":"event","name":"SlashDistributed","inputs":[{"name":"sequencer","type":"address","indexed":true,"internalType":"address"},{"name":"challengerReward","type":"uint256","indexed":false,"internalType":"uint256"},{"name":"insuranceAmount","type":"uint256","indexed":false,"internalType":"uint256"},{"name":"burnedAmount","type":"uint256","indexed":false,"internalType":"uint256"}],"anonymous":false},{"type":"error","name":"AccessControlBadConfirmation","inputs":[]},{"type":"error","name":"AccessControlUnauthorizedAccount","inputs":[{"name":"account","type":"address","internalType":"address"},{"name":"neededRole","type":"bytes32","internalType":"bytes32"}]},{"type":"error","name":"ReentrancyGuardReentrantCall","inputs":[]}],"bytecode":{"object":"0x6080346200015d57601f62001e0138819003918201601f19168301916001600160401b0383118484101762000161578084926060946040528339810103126200015d576200004d8162000175565b620000696040620000616020850162000175565b930162000175565b60017f9b779b17422d0df92223018b32b4d1fa46e071723d6817e2486d003becc55f00556001600160a01b039182169290919083156200012657168015620000ed57620000dc9260018060a01b0319908160015416176001556002541617600255620000d5816200018a565b50620001fa565b50604051611b2690816200029b8239f35b60405162461bcd60e51b8152602060048201526011602482015270496e76616c696420696e737572616e636560781b6044820152606490fd5b60405162461bcd60e51b815260206004820152600f60248201526e496e76616c6964207374616b696e6760881b6044820152606490fd5b5f80fd5b634e487b7160e01b5f52604160045260245ffd5b51906001600160a01b03821682036200015d57565b6001600160a01b03165f8181525f8051602062001de1833981519152602052604090205460ff16620001f5575f8181525f8051602062001de183398151915260205260408120805460ff191660011790553391905f8051602062001dc18339815191528180a4600190565b505f90565b6001600160a01b03165f8181527f7d7ffb7a348e1c6a02869081a26547b49160dd3df72d1d75a570eb9b698292ec60205260409020547fa49807205ce4d355092ef5a8a18f56e8913cf4a201fbe287825b095693c21775919060ff166200029457815f525f60205260405f20815f5260205260405f20600160ff1982541617905533915f8051602062001dc18339815191525f80a4600190565b50505f9056fe6080604081815260049182361015610021575b505050361561001f575f80fd5b005b5f3560e01c90816301ffc9a71461137a57508063158626f714610baa57806318c281a61461132b578063248a9ca3146113025780632975fd3b146112e65780632f2ff15d146112be57806336568abe1461127a57806338c7c57e146111215780634623740714610bec578063489cfb96146111055780636d30f53314610cb757806375b238fc14610c7d5780638fb55aa714610c5657806391d1485414610c135780639790ce7114610bf15780639c98676414610bec578063a217fddf14610bd2578063b790230314610baa578063bfdd631c14610775578063c1998be314610732578063c3c0529314610691578063d547741f14610658578063d89135cd1461063a578063ee99205c14610612578063f5d00eab146105ea578063f8c92bba146105b3578063fccc2813146105975763fe0cab21146101615780610012565b61019a61019f9261017136611428565b61017e96929491966118c9565b67016345785d8a0000966101948834101561150b565b85611a1a565b61154b565b5f9160018060a01b0380911693845f5260209060038252805f2080545f198114610584576001019055855f5260038252805f20549583600154169082516303d3b32360e51b8152818782015260249885828b81875afa801561057a575f9061054b575b61020c9250611990565b91803b15610547575f82604489838d95888a5197889687956302fb4d8560e01b87528601528401525af1801561053d5761052a575b508652848352818620825161025581611485565b60028152848101428152848201908482526060830193338552805490600160401b8210156105185760018201808255821015610506578b52878b209060021b019251898110156104f4579188939160039360ff80198554169116178355516001830155516002820155019151166001600160601b0360a01b82541617905585926107d09182810290801593818304148417156104a357612710918290049586949033156104b557506117708083029283041417156104a35704948780808089335af161031f6115a3565b5015610466578780808581945b600254165af161033a6115a3565b501561042957868080808761dead5af16103526115a3565b50156103f1579083929161036a889695600654611ac3565b60065582519485528401528201527f887162e32eaf5070c7712bca7d916cd8572a13a86ce1032776bad520b889ed2e60603392a26103e1576103bb5f80808088335af16103b56115a3565b506115d2565b60017f9b779b17422d0df92223018b32b4d1fa46e071723d6817e2486d003becc55f0055005b634e487b7160e01b825260219052fd5b8560148960649386519362461bcd60e51b855284015282015273109d5c9b881d1c985b9cd9995c8819985a5b195960621b6044820152fd5b8560198960649386519362461bcd60e51b855284015282015278125b9cdd5c985b98d9481d1c985b9cd9995c8819985a5b1959603a1b6044820152fd5b835162461bcd60e51b81528088018390526018818b01527710da185b1b195b99d95c881c995dd85c990819985a5b195960421b6044820152606490fd5b634e487b7160e01b8952601188528989fd5b97949291906117708083029283041417156104e257896104db8194829483940490611ac3565b809661032c565b634e487b7160e01b8a52601189528a8afd5b634e487b7160e01b8b5260218a528b8bfd5b634e487b7160e01b8c5260328b528c8cfd5b634e487b7160e01b8c5260418b528c8cfd5b6105359197506114b5565b5f955f610241565b84513d5f823e3d90fd5b5f80fd5b508582813d8311610573575b61056181836114c9565b810103126105475761020c9151610202565b503d610557565b85513d5f823e3d90fd5b601186634e487b7160e01b5f525260245ffd5b5034610547575f366003190112610547576020905161dead8152f35b5034610547576020366003190112610547576020906001600160a01b036105d86113e2565b165f5260038252805f20549051908152f35b503461054757806003193601126105475761060b6020926024359035611990565b9051908152f35b5034610547575f3660031901126105475760015490516001600160a01b039091168152602090f35b5034610547575f366003190112610547576020906006549051908152f35b503461054757806003193601126105475761001f913561068c600161067b6113cc565b93835f525f6020525f20015461168c565b611857565b509034610547576020366003190112610547576106ac6113e2565b6106b4611613565b6001600160a01b03169182156106fd57600280546001600160a01b03191684179055827f7aa78e1baf57af40dede9e6b906523dcd0de972d7ed5e1961f0fcc2b9cf19f005f80a2005b906020606492519162461bcd60e51b8352820152600f60248201526e496e76616c6964206164647265737360881b6044820152fd5b5034610547573660031901126105475761074a6113e2565b60243580151581036105475761075e611613565b1561076c5761001f906116ad565b61001f906117c1565b6107af8361019a8461078636611428565b61079396929491966118c9565b67016345785d8a0000966107a98834101561150b565b8561190b565b5f60018060a01b0380931692835f5260209060038252835f2080545f198114610b97576001019055845f5260038252835f2054928160015416968551926303d3b32360e51b84528782850152602493858186818d5afa8015610b5c5787905f90610b66575b61081e9250611990565b98803b15610547575f8a60448b838c5195869485936302fb4d8560e01b85528a8501528b8401525af18015610b5c57610b49575b50878352818552868320875161086781611485565b61087185826114eb565b868101428152898201908c82526060830193338552805490600160401b821015610b375760018201808255821015610b255788528988209060021b01925186811015610b13579185939160039360ff80198554169116178355516001830155516002820155019151166001600160601b0360a01b825416179055826107d0808b028b15918c820414821715610b0157612710908190049283928d913315610ac25750611770808302928304141715610ab05704928580808087335af16109356115a3565b5015610a73578580808481945b600254165af16109506115a3565b5015610a3557848080808561dead5af16109686115a3565b50156109fc579084929161097e82600654611ac3565b600655895192835287830152888201527f887162e32eaf5070c7712bca7d916cd8572a13a86ce1032776bad520b889ed2e60603392a26103e1576103bb5f8080808d8d8d7f4449938b4d9f21ac7d9d829c8778dd0d2290371df6dd7de5f1ccc950580ce21e8e8e8e82519586528501523393a3335af16103b56115a3565b885162461bcd60e51b815280850188905260148188015273109d5c9b881d1c985b9cd9995c8819985a5b195960621b6044820152606490fd5b885162461bcd60e51b815280850188905260198188015278125b9cdd5c985b98d9481d1c985b9cd9995c8819985a5b1959603a1b6044820152606490fd5b895162461bcd60e51b81528086018990526018818901527710da185b1b195b99d95c881c995dd85c990819985a5b195960421b6044820152606490fd5b634e487b7160e01b8752601186528787fd5b9593929190611770808302928304141715610aef5787610ae88194829483940490611ac3565b8095610942565b634e487b7160e01b8852601187528888fd5b634e487b7160e01b8652601185528686fd5b634e487b7160e01b8852602187528888fd5b634e487b7160e01b8952603288528989fd5b634e487b7160e01b8952604188528989fd5b610b549193506114b5565b5f918a610852565b88513d5f823e3d90fd5b50508581813d8311610b90575b610b7d81836114c9565b81010312610547578661081e9151610814565b503d610b73565b601188634e487b7160e01b5f525260245ffd5b5034610547575f3660031901126105475760025490516001600160a01b039091168152602090f35b5034610547575f36600319011261054757602090515f8152f35b61140c565b5034610547575f366003190112610547576020905167016345785d8a00008152f35b5034610547578060031936011261054757602091610c2f6113cc565b90355f525f8352815f209060018060a01b03165f52825260ff815f20541690519015158152f35b5034610547575f36600319011261054757602090515f80516020611ad18339815191528152f35b5034610547575f36600319011261054757602090517fa49807205ce4d355092ef5a8a18f56e8913cf4a201fbe287825b095693c217758152f35b5034610547576020908160031936011261054757610cd36113e2565b925f80516020611ad1833981519152805f525f8452825f20335f52845260ff835f205416156110ea57506001600160a01b039384165f818152600385528381208054929591925f1981146110d7576001019055845f5260038152835f2054918660015416938551976303d3b32360e51b895287828a015260249884818b818a5afa8015610b5c5786905f906110a6575b610d6d9250611990565b95803b15610547575f8a60448b838b958d5196879586946302fb4d8560e01b86528b8601528401525af18015610b5c57611093575b508783528184528683208751610db781611485565b60018152858101428152898201908982526060830193878552805490600160401b821015611081576001820180825582101561106f5788528888209060021b0192518681101561105d579185939160039360ff80198554169116178355516001830155516002820155019151166001600160601b0360a01b825416179055826107d08088028815918982041482171561104b57612710809104918293875f1461100b575061177090818b02918b8304141715610ff95704928580808087815af1610e7f6115a3565b5015610fbc578580808481945b600254165af1610e9a6115a3565b5015610f7e57848080808561dead5af1610eb26115a3565b5015610f455790849291610ec882600654611ac3565b600655895192835286830152888201527f887162e32eaf5070c7712bca7d916cd8572a13a86ce1032776bad520b889ed2e60603392a2610f335750507fd7a347efb1959d1030c1f576ea3d30fbe4f58bc18c26dc917f59a855f0a2e2949495508351928352820152a2005b634e487b7160e01b8252602190528690fd5b885162461bcd60e51b81528085018790526014818d015273109d5c9b881d1c985b9cd9995c8819985a5b195960621b6044820152606490fd5b885162461bcd60e51b81528085018790526019818d015278125b9cdd5c985b98d9481d1c985b9cd9995c8819985a5b1959603a1b6044820152606490fd5b895162461bcd60e51b81528086018890526018818e01527710da185b1b195b99d95c881c995dd85c990819985a5b195960421b6044820152606490fd5b634e487b7160e01b8752601186528c87fd5b9492919061177090818c02918c830414171561103957876110328194829483940490611ac3565b8095610e8c565b8d601188634e487b7160e01b5f52525ffd5b634e487b7160e01b8652601185528b86fd5b634e487b7160e01b8852602187528d88fd5b634e487b7160e01b8952603288528e89fd5b634e487b7160e01b8952604188528e89fd5b61109e9193506114b5565b5f915f610da2565b50508481813d83116110d0575b6110bd81836114c9565b810103126105475785610d6d9151610d63565b503d6110b3565b601185634e487b7160e01b5f525260245ffd5b604492519163e2517d3f60e01b835233908301526024820152fd5b5034610547575f36600319011261054757602090516103e88152f35b5090346105475760209081600319360112610547576001600160a01b0391826111486113e2565b165f52818152835f209384549267ffffffffffffffff841161126757939492919080519261117b838260051b01856114c9565b80845282840180955f52835f205f915b8383106112115750505050805194828601938387525180945281860194965f925b8584106111b95787870388f35b90919293949588518051858110156111fe57825280870151878301528281015183830152606090810151841690820152978501976080019594936001019291906111ac565b602186634e487b7160e01b5f525260245ffd5b88866001928798999a9c9b975161122781611485565b61123560ff875416826114eb565b848601548382015260028601548a8201528c60038701541660608201528152019201920191909896959493979861118b565b604190634e487b7160e01b5f525260245ffd5b50346105475780600319360112610547576112936113cc565b90336001600160a01b038316036112af575061001f9135611857565b5163334bd91960e11b81529050fd5b503461054757806003193601126105475761001f91356112e1600161067b6113cc565b61174b565b5034610547575f36600319011261054757602090516117708152f35b503461054757602036600319011261054757602091355f525f82526001815f2001549051908152f35b50903461054757602036600319011261054757602060649261134b611613565b5162461bcd60e51b815291820152600f60248201526e496d6d757461626c6520696e20763160881b6044820152fd5b833461054757602036600319011261054757359063ffffffff60e01b821680920361054757602091637965db0b60e01b81149081156113bb575b5015158152f35b6301ffc9a760e01b149050836113b4565b602435906001600160a01b038216820361054757565b600435906001600160a01b038216820361054757565b35906001600160a01b038216820361054757565b34610547575f3660031901126105475760206040516107d08152f35b6040600319820112610547576004356001600160a01b0381168103610547579160243567ffffffffffffffff9283821161054757806023830112156105475781600401359384116105475760248483010111610547576024019190565b6080810190811067ffffffffffffffff8211176114a157604052565b634e487b7160e01b5f52604160045260245ffd5b67ffffffffffffffff81116114a157604052565b90601f8019910116810190811067ffffffffffffffff8211176114a157604052565b60048210156114f75752565b634e487b7160e01b5f52602160045260245ffd5b1561151257565b60405162461bcd60e51b8152602060048201526011602482015270125b9cdd59999a58da595b9d08189bdb99607a1b6044820152606490fd5b1561155257565b60405162461bcd60e51b815260206004820152600d60248201526c24b73b30b634b210383937b7b360991b6044820152606490fd5b67ffffffffffffffff81116114a157601f01601f191660200190565b3d156115cd573d906115b482611587565b916115c260405193846114c9565b82523d5f602084013e565b606090565b156115d957565b60405162461bcd60e51b8152602060048201526012602482015271109bdb99081c995d1d5c9b8819985a5b195960721b6044820152606490fd5b335f9081527f7d7ffb7a348e1c6a02869081a26547b49160dd3df72d1d75a570eb9b698292ec60205260409020547fa49807205ce4d355092ef5a8a18f56e8913cf4a201fbe287825b095693c217759060ff161561166e5750565b6044906040519063e2517d3f60e01b82523360048301526024820152fd5b805f525f60205260405f20335f5260205260ff60405f2054161561166e5750565b6001600160a01b03165f8181527f84fd4630b0d2e198d8a7810c123bdc0606640e573acb26f8296741718b52505460205260409020545f80516020611ad1833981519152919060ff1661174557815f525f60205260405f20815f5260205260405f20600160ff1982541617905533917f2f8788117e7eff1d82e926ec794901d17c78024a50270940304540a733656f0d5f80a4600190565b50505f90565b90815f525f60205260405f209060018060a01b031690815f5260205260ff60405f205416155f1461174557815f525f60205260405f20815f5260205260405f20600160ff1982541617905533917f2f8788117e7eff1d82e926ec794901d17c78024a50270940304540a733656f0d5f80a4600190565b6001600160a01b03165f8181527f84fd4630b0d2e198d8a7810c123bdc0606640e573acb26f8296741718b52505460205260409020545f80516020611ad1833981519152919060ff161561174557815f525f60205260405f20815f5260205260405f2060ff19815416905533917ff6391f5c32d9c69d2a47ea670b442974b53935d1edc7fd64eb21e047a839171b5f80a4600190565b90815f525f60205260405f209060018060a01b031690815f5260205260ff60405f2054165f1461174557815f525f60205260405f20815f5260205260405f2060ff19815416905533917ff6391f5c32d9c69d2a47ea670b442974b53935d1edc7fd64eb21e047a839171b5f80a4600190565b7f9b779b17422d0df92223018b32b4d1fa46e071723d6817e2486d003becc55f0060028154146118f95760029055565b604051633ee5aeb560e01b8152600490fd5b9091606481106119625782608091810103126105475761192a826113f8565b6001600160a01b0391821691160361195d57606081013560408201351461195d57602001351561195957600190565b5f90565b505f90565b5050505f90565b8181029291811591840414171561197c57565b634e487b7160e01b5f52601160045260245ffd5b90801561174557806119a191611969565b90600a820291808304600a149015171561197c576064916119c8918382116119cc57611969565b0490565b839150611969565b81601f82011215610547578035906119eb82611587565b926119f960405194856114c9565b8284526020838301011161054757815f926020809301838601378301015290565b91608081106119625781019060a08183031261054757611a39816113f8565b67ffffffffffffffff60608301358181116105475784611a5a9185016119d4565b93608084013591821161054757611a729184016119d4565b936001600160a01b0390811691160361196257602081013515908115611ab6575b50611745575115908115611aac575b5061195957600190565b905051155f611aa2565b604091500135155f611a93565b9190820180921161197c5756fe1f530620f59dd4478a0d470ae5cf0ccd4496058a01876872466d1b4621488faea26469706673582212207ee5855e2dcc293a458edfa90f9b109e76111c924443a0e75cd536b3422198c664736f6c634300081800332f8788117e7eff1d82e926ec794901d17c78024a50270940304540a733656f0dad3228b676f7d3cd4284a5443f17f1962b36e491b30a40b2405849e597ba5fb5","linkReferences":{}},"methodIdentifiers":{"ADMIN_ROLE()":"75b238fc","BASE_SLASH_PERCENT()":"489cfb96","BURN_ADDRESS()":"fccc2813","BURN_PERCENT()":"9c986764","CHALLENGER_REWARD_PERCENT()":"2975fd3b","CHALLENGE_BOND()":"9790ce71","DEFAULT_ADMIN_ROLE()":"a217fddf","HEALTH_MONITOR_ROLE()":"8fb55aa7","INSURANCE_PERCENT()":"46237407","calculateSlash(uint256,uint256)":"f5d00eab","getInsuranceFund()":"158626f7","getRoleAdmin(bytes32)":"248a9ca3","getViolationCount(address)":"f8c92bba","getViolationRecords(address)":"38c7c57e","grantRole(bytes32,address)":"2f2ff15d","hasRole(bytes32,address)":"91d14854","insuranceFund()":"b7902303","renounceRole(bytes32,address)":"36568abe","reportDoubleSign(address,bytes)":"bfdd631c","reportDowntime(address)":"6d30f533","reportInvalidStateRoot(address,bytes)":"fe0cab21","revokeRole(bytes32,address)":"d547741f","setAuthorizedMonitor(address,bool)":"c1998be3","setChallengeBond(uint256)":"18c281a6","setInsuranceFund(address)":"c3c05293","stakingContract()":"ee99205c","supportsInterface(bytes4)":"01ffc9a7","totalBurned()":"d89135cd"},"id":76}