{"abi":[{"type":"constructor","inputs":[{"name":"_stakingContract","type":"address","internalType":"address"},{"name":"admin","type":"address","internalType":"address"}],"stateMutability":"nonpayable"},{"type":"function","name":"ADMIN_ROLE","inputs":[],"outputs":[{"name":"","type":"bytes32","internalType":"bytes32"}],"stateMutability":"view"},{"type":"function","name":"DEFAULT_ADMIN_ROLE","inputs":[],"outputs":[{"name":"","type":"bytes32","internalType":"bytes32"}],"stateMutability":"view"},{"type":"function","name":"HEALTH_ROLE","inputs":[],"outputs":[{"name":"","type":"bytes32","internalType":"bytes32"}],"stateMutability":"view"},{"type":"function","name":"MINIMUM_STAKE","inputs":[],"outputs":[{"name":"","type":"uint256","internalType":"uint256"}],"stateMutability":"view"},{"type":"function","name":"ROTATION_ROLE","inputs":[],"outputs":[{"name":"","type":"bytes32","internalType":"bytes32"}],"stateMutability":"view"},{"type":"function","name":"SPHINCS_KEY_LENGTH","inputs":[],"outputs":[{"name":"","type":"uint256","internalType":"uint256"}],"stateMutability":"view"},{"type":"function","name":"deregister","inputs":[],"outputs":[],"stateMutability":"nonpayable"},{"type":"function","name":"forceDeregister","inputs":[{"name":"sequencer","type":"address","internalType":"address"}],"outputs":[],"stateMutability":"nonpayable"},{"type":"function","name":"getActiveSequencers","inputs":[],"outputs":[{"name":"","type":"address[]","internalType":"address[]"}],"stateMutability":"view"},{"type":"function","name":"getActiveSequencersCount","inputs":[],"outputs":[{"name":"","type":"uint256","internalType":"uint256"}],"stateMutability":"view"},{"type":"function","name":"getRoleAdmin","inputs":[{"name":"role","type":"bytes32","internalType":"bytes32"}],"outputs":[{"name":"","type":"bytes32","internalType":"bytes32"}],"stateMutability":"view"},{"type":"function","name":"getSequencerInfo","inputs":[{"name":"sequencer","type":"address","internalType":"address"}],"outputs":[{"name":"","type":"tuple","internalType":"struct ISequencerRegistry.SequencerInfo","components":[{"name":"sequencerAddress","type":"address","internalType":"address"},{"name":"sphincsKey","type":"bytes","internalType":"bytes"},{"name":"stake","type":"uint256","internalType":"uint256"},{"name":"registeredAt","type":"uint256","internalType":"uint256"},{"name":"isActive","type":"bool","internalType":"bool"},{"name":"totalBlocksProduced","type":"uint256","internalType":"uint256"}]}],"stateMutability":"view"},{"type":"function","name":"getSphincsKey","inputs":[{"name":"sequencer","type":"address","internalType":"address"}],"outputs":[{"name":"","type":"bytes","internalType":"bytes"}],"stateMutability":"view"},{"type":"function","name":"grantRole","inputs":[{"name":"role","type":"bytes32","internalType":"bytes32"},{"name":"account","type":"address","internalType":"address"}],"outputs":[],"stateMutability":"nonpayable"},{"type":"function","name":"hasRole","inputs":[{"name":"role","type":"bytes32","internalType":"bytes32"},{"name":"account","type":"address","internalType":"address"}],"outputs":[{"name":"","type":"bool","internalType":"bool"}],"stateMutability":"view"},{"type":"function","name":"healthContract","inputs":[],"outputs":[{"name":"","type":"address","internalType":"address"}],"stateMutability":"view"},{"type":"function","name":"incrementBlocksProduced","inputs":[{"name":"sequencer","type":"address","internalType":"address"}],"outputs":[],"stateMutability":"nonpayable"},{"type":"function","name":"isRegistered","inputs":[{"name":"sequencer","type":"address","internalType":"address"}],"outputs":[{"name":"","type":"bool","internalType":"bool"}],"stateMutability":"view"},{"type":"function","name":"register","inputs":[{"name":"sphincsKey","type":"bytes","internalType":"bytes"}],"outputs":[],"stateMutability":"payable"},{"type":"function","name":"renounceRole","inputs":[{"name":"role","type":"bytes32","internalType":"bytes32"},{"name":"callerConfirmation","type":"address","internalType":"address"}],"outputs":[],"stateMutability":"nonpayable"},{"type":"function","name":"revokeRole","inputs":[{"name":"role","type":"bytes32","internalType":"bytes32"},{"name":"account","type":"address","internalType":"address"}],"outputs":[],"stateMutability":"nonpayable"},{"type":"function","name":"rotationContract","inputs":[],"outputs":[{"name":"","type":"address","internalType":"address"}],"stateMutability":"view"},{"type":"function","name":"setHealthContract","inputs":[{"name":"_healthContract","type":"address","internalType":"address"}],"outputs":[],"stateMutability":"nonpayable"},{"type":"function","name":"setRotationContract","inputs":[{"name":"_rotationContract","type":"address","internalType":"address"}],"outputs":[],"stateMutability":"nonpayable"},{"type":"function","name":"stakingContract","inputs":[],"outputs":[{"name":"","type":"address","internalType":"contract ISequencerStaking"}],"stateMutability":"view"},{"type":"function","name":"supportsInterface","inputs":[{"name":"interfaceId","type":"bytes4","internalType":"bytes4"}],"outputs":[{"name":"","type":"bool","internalType":"bool"}],"stateMutability":"view"},{"type":"function","name":"updateSphincsKey","inputs":[{"name":"newSphincsKey","type":"bytes","internalType":"bytes"}],"outputs":[],"stateMutability":"nonpayable"},{"type":"function","name":"updateStakeInfo","inputs":[{"name":"sequencer","type":"address","internalType":"address"},{"name":"newStake","type":"uint256","internalType":"uint256"}],"outputs":[],"stateMutability":"nonpayable"},{"type":"event","name":"HealthContractSet","inputs":[{"name":"healthContract","type":"address","indexed":true,"internalType":"address"}],"anonymous":false},{"type":"event","name":"RoleAdminChanged","inputs":[{"name":"role","type":"bytes32","indexed":true,"internalType":"bytes32"},{"name":"previousAdminRole","type":"bytes32","indexed":true,"internalType":"bytes32"},{"name":"newAdminRole","type":"bytes32","indexed":true,"internalType":"bytes32"}],"anonymous":false},{"type":"event","name":"RoleGranted","inputs":[{"name":"role","type":"bytes32","indexed":true,"internalType":"bytes32"},{"name":"account","type":"address","indexed":true,"internalType":"address"},{"name":"sender","type":"address","indexed":true,"internalType":"address"}],"anonymous":false},{"type":"event","name":"RoleRevoked","inputs":[{"name":"role","type":"bytes32","indexed":true,"internalType":"bytes32"},{"name":"account","type":"address","indexed":true,"internalType":"address"},{"name":"sender","type":"address","indexed":true,"internalType":"address"}],"anonymous":false},{"type":"event","name":"RotationContractSet","inputs":[{"name":"rotationContract","type":"address","indexed":true,"internalType":"address"}],"anonymous":false},{"type":"event","name":"SequencerDeregistered","inputs":[{"name":"sequencer","type":"address","indexed":true,"internalType":"address"},{"name":"timestamp","type":"uint256","indexed":false,"internalType":"uint256"}],"anonymous":false},{"type":"event","name":"SequencerRegistered","inputs":[{"name":"sequencer","type":"address","indexed":true,"internalType":"address"},{"name":"sphincsKey","type":"bytes","indexed":false,"internalType":"bytes"},{"name":"stake","type":"uint256","indexed":false,"internalType":"uint256"},{"name":"timestamp","type":"uint256","indexed":false,"internalType":"uint256"}],"anonymous":false},{"type":"event","name":"SequencerStakeUpdated","inputs":[{"name":"sequencer","type":"address","indexed":true,"internalType":"address"},{"name":"oldStake","type":"uint256","indexed":false,"internalType":"uint256"},{"name":"newStake","type":"uint256","indexed":false,"internalType":"uint256"}],"anonymous":false},{"type":"error","name":"AccessControlBadConfirmation","inputs":[]},{"type":"error","name":"AccessControlUnauthorizedAccount","inputs":[{"name":"account","type":"address","internalType":"address"},{"name":"neededRole","type":"bytes32","internalType":"bytes32"}]},{"type":"error","name":"ReentrancyGuardReentrantCall","inputs":[]}],"bytecode":{"object":"0x608060405234801562000010575f80fd5b5060405162001e5c38038062001e5c8339810160408190526200003391620001a9565b600180556001600160a01b038216620000845760405162461bcd60e51b815260206004820152600f60248201526e496e76616c6964207374616b696e6760881b604482015260640160405180910390fd5b600280546001600160a01b0319166001600160a01b038416179055620000ab5f82620000e1565b50620000d87fa49807205ce4d355092ef5a8a18f56e8913cf4a201fbe287825b095693c2177582620000e1565b505050620001df565b5f828152602081815260408083206001600160a01b038516845290915281205460ff1662000184575f838152602081815260408083206001600160a01b03861684529091529020805460ff191660011790556200013b3390565b6001600160a01b0316826001600160a01b0316847f2f8788117e7eff1d82e926ec794901d17c78024a50270940304540a733656f0d60405160405180910390a450600162000187565b505f5b92915050565b80516001600160a01b0381168114620001a4575f80fd5b919050565b5f8060408385031215620001bb575f80fd5b620001c6836200018d565b9150620001d6602084016200018d565b90509250929050565b611c6f80620001ed5f395ff3fe6080604052600436106101af575f3560e01c806382fbdc9c116100e7578063c3c5a54711610087578063dbc76e6311610062578063dbc76e63146104f3578063ee99205c14610512578063f4eba84214610531578063fb36ad0414610552575f80fd5b8063c3c5a5471461047e578063d547741f146104b5578063d5f950c3146104d4575f80fd5b8063aa378a7d116100c2578063aa378a7d146103df578063ad14d30c1461040b578063aff5edb11461043e578063c18cf7b914610452575f80fd5b806382fbdc9c1461039a57806391d14854146103ad578063a217fddf146103cc575f80fd5b806345a4f506116101525780636ffbf7321161012d5780636ffbf7321461031057806371c9b18e1461032f57806375b238fc146103665780637fab90f814610386575f80fd5b806345a4f506146102be5780634672bb32146102d257806365a32756146102f1575f80fd5b80632f2ff15d1161018d5780632f2ff15d1461024057806330527b66146102615780633116a2661461028057806336568abe1461029f575f80fd5b806301ffc9a7146101b357806308dbbb03146101e7578063248a9ca314610212575b5f80fd5b3480156101be575f80fd5b506101d26101cd36600461165a565b610585565b60405190151581526020015b60405180910390f35b3480156101f2575f80fd5b506102046969e10de76676d080000081565b6040519081526020016101de565b34801561021d575f80fd5b5061020461022c366004611688565b5f9081526020819052604090206001015490565b34801561024b575f80fd5b5061025f61025a3660046116ba565b6105bb565b005b34801561026c575f80fd5b5061025f61027b3660046116e4565b6105e5565b34801561028b575f80fd5b5061025f61029a36600461170c565b61071d565b3480156102aa575f80fd5b5061025f6102b93660046116ba565b6107f9565b3480156102c9575f80fd5b50600654610204565b3480156102dd575f80fd5b5061025f6102ec36600461170c565b610831565b3480156102fc575f80fd5b5061025f61030b36600461170c565b61090d565b34801561031b575f80fd5b5061025f61032a366004611725565b6109ba565b34801561033a575f80fd5b5060045461034e906001600160a01b031681565b6040516001600160a01b0390911681526020016101de565b348015610371575f80fd5b506102045f80516020611c1a83398151915281565b348015610391575f80fd5b50610204602081565b61025f6103a8366004611725565b610b2c565b3480156103b8575f80fd5b506101d26103c73660046116ba565b610b56565b3480156103d7575f80fd5b506102045f81565b3480156103ea575f80fd5b506103fe6103f936600461170c565b610b7e565b6040516101de91906117de565b348015610416575f80fd5b506102047f3e1b4437445193a89df18d730e3f81b20c05ee8efeeb1289fe7bebcb05c4fa0081565b348015610449575f80fd5b5061025f610cb3565b34801561045d575f80fd5b5061047161046c36600461170c565b610e3b565b6040516101de9190611841565b348015610489575f80fd5b506101d261049836600461170c565b6001600160a01b03165f9081526008602052604090205460ff1690565b3480156104c0575f80fd5b5061025f6104cf3660046116ba565b610ee7565b3480156104df575f80fd5b5061025f6104ee36600461170c565b610f0b565b3480156104fe575f80fd5b5060035461034e906001600160a01b031681565b34801561051d575f80fd5b5060025461034e906001600160a01b031681565b34801561053c575f80fd5b50610545610fc2565b6040516101de9190611853565b34801561055d575f80fd5b506102047f2e6d6c5568fae3f1b55c2ab3d6c6ec71efd564a5ac70aa6177d7f21d3e8bd89181565b5f6001600160e01b03198216637965db0b60e01b14806105b557506301ffc9a760e01b6001600160e01b03198316145b92915050565b5f828152602081905260409020600101546105d581611022565b6105df838361102f565b50505050565b6002546001600160a01b031633148061061057506106105f80516020611c1a83398151915233610b56565b6106525760405162461bcd60e51b815260206004820152600e60248201526d139bdd08185d5d1a1bdc9a5e995960921b60448201526064015b60405180910390fd5b6001600160a01b0382165f9081526005602052604090206002018054908290556969e10de76676d0800000821080156106a257506001600160a01b0383165f9081526008602052604090205460ff165b156106d3576106b0836110be565b6001600160a01b0383165f908152600560205260409020600401805460ff191690555b60408051828152602081018490526001600160a01b038516917f33b604a8b72477b69046a59ccf5f8d86a8249493ea648567620b03fc372489d391015b60405180910390a2505050565b5f80516020611c1a83398151915261073481611022565b6001600160a01b03821661077c5760405162461bcd60e51b815260206004820152600f60248201526e496e76616c6964206164647265737360881b6044820152606401610649565b600480546001600160a01b0319166001600160a01b0384161790556107c17f2e6d6c5568fae3f1b55c2ab3d6c6ec71efd564a5ac70aa6177d7f21d3e8bd8918361102f565b506040516001600160a01b038316907f2425b20c4b1858f8a8fbf017210473df8d9195697c8a4439517c3e8e814619c8905f90a25050565b6001600160a01b03811633146108225760405163334bd91960e11b815260040160405180910390fd5b61082c82826111f3565b505050565b5f80516020611c1a83398151915261084881611022565b6001600160a01b0382166108905760405162461bcd60e51b815260206004820152600f60248201526e496e76616c6964206164647265737360881b6044820152606401610649565b600380546001600160a01b0319166001600160a01b0384161790556108d57f3e1b4437445193a89df18d730e3f81b20c05ee8efeeb1289fe7bebcb05c4fa008361102f565b506040516001600160a01b038316907f0fde0c27361fb720f5cb9ae4fd151aba17575bddfc54575a5a19c13b7cb16bcf905f90a25050565b7f3e1b4437445193a89df18d730e3f81b20c05ee8efeeb1289fe7bebcb05c4fa0061093781611022565b6001600160a01b0382165f9081526008602052604090205460ff1661098b5760405162461bcd60e51b815260206004820152600a6024820152694e6f742061637469766560b01b6044820152606401610649565b6001600160a01b0382165f9081526005602081905260408220018054916109b1836118b3565b91905055505050565b335f9081526008602052604090205460ff166109e85760405162461bcd60e51b8152600401610649906118cb565b60208114610a2d5760405162461bcd60e51b8152602060048201526012602482015271092dcecc2d8d2c840d6caf240d8cadccee8d60731b6044820152606401610649565b5f8282604051610a3e9291906118f3565b60408051918290039091205f818152600960205291909120549091506001600160a01b031615610aa35760405162461bcd60e51b815260206004820152601060248201526f12d95e48185b1c9958591e481d5cd95960821b6044820152606401610649565b335f90815260056020526040808220905160099291610ac79160019091019061193a565b604080519182900390912082526020808301939093529081015f90812080546001600160a01b031916905533815260059092529020600101610b0a838583611a0b565b505f90815260096020526040902080546001600160a01b031916331790555050565b610b3461125c565b610b3e8282611286565b610b498282346113ed565b610b5260018055565b5050565b5f918252602082815260408084206001600160a01b0393909316845291905290205460ff1690565b610bbd6040518060c001604052805f6001600160a01b03168152602001606081526020015f81526020015f81526020015f151581526020015f81525090565b6001600160a01b038083165f90815260056020908152604091829020825160c081019093528054909316825260018301805492939291840191610bff90611902565b80601f0160208091040260200160405190810160405280929190818152602001828054610c2b90611902565b8015610c765780601f10610c4d57610100808354040283529160200191610c76565b820191905f5260205f20905b815481529060010190602001808311610c5957829003601f168201915b50505091835250506002820154602082015260038201546040820152600482015460ff161515606082015260059091015460809091015292915050565b610cbb61125c565b335f9081526008602052604090205460ff16610ce95760405162461bcd60e51b8152600401610649906118cb565b335f8181526005602052604090206002015490610d05906110be565b335f81815260056020526040808220600401805460ff19169055600254905160248101939093526044830184905290916001600160a01b039091169060640160408051601f198184030181529181526020820180516001600160e01b0316630dbbc22360e21b17905251610d799190611ac5565b5f604051808303815f865af19150503d805f8114610db2576040519150601f19603f3d011682016040523d82523d5f602084013e610db7565b606091505b5050905080610df95760405162461bcd60e51b815260206004820152600e60248201526d155b9cdd185ad94819985a5b195960921b6044820152606401610649565b60405142815233907ffd32e98e8fa123b352fdb8bc5f3f29f11ecfdc2b70a767613960f522071297099060200160405180910390a25050610e3960018055565b565b6001600160a01b0381165f908152600560205260409020600101805460609190610e6490611902565b80601f0160208091040260200160405190810160405280929190818152602001828054610e9090611902565b8015610edb5780601f10610eb257610100808354040283529160200191610edb565b820191905f5260205f20905b815481529060010190602001808311610ebe57829003601f168201915b50505050509050919050565b5f82815260208190526040902060010154610f0181611022565b6105df83836111f3565b5f80516020611c1a833981519152610f2281611022565b6001600160a01b0382165f9081526008602052604090205460ff16610f595760405162461bcd60e51b8152600401610649906118cb565b610f62826110be565b6001600160a01b0382165f8181526005602052604090819020600401805460ff19169055517ffd32e98e8fa123b352fdb8bc5f3f29f11ecfdc2b70a767613960f5220712970990610fb69042815260200190565b60405180910390a25050565b6060600680548060200260200160405190810160405280929190818152602001828054801561101857602002820191905f5260205f20905b81546001600160a01b03168152600190910190602001808311610ffa575b5050505050905090565b61102c8133611621565b50565b5f61103a8383610b56565b6110b7575f838152602081815260408083206001600160a01b03861684529091529020805460ff1916600117905561106f3390565b6001600160a01b0316826001600160a01b0316847f2f8788117e7eff1d82e926ec794901d17c78024a50270940304540a733656f0d60405160405180910390a45060016105b5565b505f6105b5565b6001600160a01b0381165f9081526008602052604090205460ff166110e05750565b6001600160a01b0381165f9081526007602052604081205460065490919061110a90600190611ae0565b905080821461118f575f6006828154811061112757611127611af3565b5f91825260209091200154600680546001600160a01b03909216925082918590811061115557611155611af3565b5f91825260208083209190910180546001600160a01b0319166001600160a01b039485161790559290911681526007909152604090208290555b60068054806111a0576111a0611b07565b5f828152602080822083015f1990810180546001600160a01b03191690559092019092556001600160a01b03949094168152600784526040808220829055600890945292909220805460ff191690555050565b5f6111fe8383610b56565b156110b7575f838152602081815260408083206001600160a01b0386168085529252808320805460ff1916905551339286917ff6391f5c32d9c69d2a47ea670b442974b53935d1edc7fd64eb21e047a839171b9190a45060016105b5565b60026001540361127f57604051633ee5aeb560e01b815260040160405180910390fd5b6002600155565b335f9081526008602052604090205460ff16156112da5760405162461bcd60e51b8152602060048201526012602482015271105b1c9958591e481c9959da5cdd195c995960721b6044820152606401610649565b6020811461131f5760405162461bcd60e51b8152602060048201526012602482015271092dcecc2d8d2c840d6caf240d8cadccee8d60731b6044820152606401610649565b5f6001600160a01b031660095f848460405161133c9291906118f3565b604080519182900390912082526020820192909252015f20546001600160a01b03161461139e5760405162461bcd60e51b815260206004820152601060248201526f12d95e48185b1c9958591e481d5cd95960821b6044820152606401610649565b6969e10de76676d0800000341015610b525760405162461bcd60e51b8152602060048201526012602482015271496e73756666696369656e74207374616b6560701b6044820152606401610649565b6002546040516325fb490360e11b81523360048201526001600160a01b0390911690634bf692069083906024015f604051808303818588803b158015611431575f80fd5b505af1158015611443573d5f803e3d5ffd5b50505050506040518060c00160405280336001600160a01b0316815260200184848080601f0160208091040260200160405190810160405280939291908181526020018383808284375f920182905250938552505050602080830185905242604080850191909152600160608501819052608090940183905233835260058252909120835181546001600160a01b0319166001600160a01b039091161781559083015190918201906114f59082611b1b565b50604082810151600283015560608301516003830155608083015160048301805491151560ff1992831617905560a09093015160059092019190915560068054335f8181526007602090815285822084905560018481019095557ff652222313e28459528d920b65115c16c04f3efc82aaedc97be59f3f377c0d3f90930180546001600160a01b03191690921790915560089091529190912080549092161790553360095f85856040516115aa9291906118f3565b604051809103902081526020019081526020015f205f6101000a8154816001600160a01b0302191690836001600160a01b03160217905550336001600160a01b03167ff913bf968d5234e498cc7bd3696586deae8b462d84e882c5f4e41cb0d45e5f1b848484426040516107109493929190611bdb565b61162b8282610b56565b610b525760405163e2517d3f60e01b81526001600160a01b038216600482015260248101839052604401610649565b5f6020828403121561166a575f80fd5b81356001600160e01b031981168114611681575f80fd5b9392505050565b5f60208284031215611698575f80fd5b5035919050565b80356001600160a01b03811681146116b5575f80fd5b919050565b5f80604083850312156116cb575f80fd5b823591506116db6020840161169f565b90509250929050565b5f80604083850312156116f5575f80fd5b6116fe8361169f565b946020939093013593505050565b5f6020828403121561171c575f80fd5b6116818261169f565b5f8060208385031215611736575f80fd5b823567ffffffffffffffff8082111561174d575f80fd5b818501915085601f830112611760575f80fd5b81358181111561176e575f80fd5b86602082850101111561177f575f80fd5b60209290920196919550909350505050565b5f5b838110156117ab578181015183820152602001611793565b50505f910152565b5f81518084526117ca816020860160208601611791565b601f01601f19169290920160200192915050565b602080825282516001600160a01b03168282015282015160c060408301525f9061180b60e08401826117b3565b905060408401516060840152606084015160808401526080840151151560a084015260a084015160c08401528091505092915050565b602081525f61168160208301846117b3565b602080825282518282018190525f9190848201906040850190845b818110156118935783516001600160a01b03168352928401929184019160010161186e565b50909695505050505050565b634e487b7160e01b5f52601160045260245ffd5b5f600182016118c4576118c461189f565b5060010190565b6020808252600e908201526d139bdd081c9959da5cdd195c995960921b604082015260600190565b818382375f9101908152919050565b600181811c9082168061191657607f821691505b60208210810361193457634e487b7160e01b5f52602260045260245ffd5b50919050565b5f80835461194781611902565b6001828116801561195f5760018114611974576119a0565b60ff19841687528215158302870194506119a0565b875f526020805f205f5b858110156119975781548a82015290840190820161197e565b50505082870194505b50929695505050505050565b634e487b7160e01b5f52604160045260245ffd5b601f82111561082c57805f5260205f20601f840160051c810160208510156119e55750805b601f840160051c820191505b81811015611a04575f81556001016119f1565b5050505050565b67ffffffffffffffff831115611a2357611a236119ac565b611a3783611a318354611902565b836119c0565b5f601f841160018114611a68575f8515611a515750838201355b5f19600387901b1c1916600186901b178355611a04565b5f83815260208120601f198716915b82811015611a975786850135825560209485019460019092019101611a77565b5086821015611ab3575f1960f88860031b161c19848701351681555b505060018560011b0183555050505050565b5f8251611ad6818460208701611791565b9190910192915050565b818103818111156105b5576105b561189f565b634e487b7160e01b5f52603260045260245ffd5b634e487b7160e01b5f52603160045260245ffd5b815167ffffffffffffffff811115611b3557611b356119ac565b611b4981611b438454611902565b846119c0565b602080601f831160018114611b7c575f8415611b655750858301515b5f19600386901b1c1916600185901b178555611bd3565b5f85815260208120601f198616915b82811015611baa57888601518255948401946001909101908401611b8b565b5085821015611bc757878501515f19600388901b60f8161c191681555b505060018460011b0185555b505050505050565b60608152836060820152838560808301375f608085830101525f6080601f19601f87011683010190508360208301528260408301529594505050505056fea49807205ce4d355092ef5a8a18f56e8913cf4a201fbe287825b095693c21775a264697066735822122002cbb32ac43a212b3f4c871d3c8dd867c182a32eb381ff35420447bea701b2a964736f6c63430008180033","linkReferences":{}},"methodIdentifiers":{"ADMIN_ROLE()":"75b238fc","DEFAULT_ADMIN_ROLE()":"a217fddf","HEALTH_ROLE()":"fb36ad04","MINIMUM_STAKE()":"08dbbb03","ROTATION_ROLE()":"ad14d30c","SPHINCS_KEY_LENGTH()":"7fab90f8","deregister()":"aff5edb1","forceDeregister(address)":"d5f950c3","getActiveSequencers()":"f4eba842","getActiveSequencersCount()":"45a4f506","getRoleAdmin(bytes32)":"248a9ca3","getSequencerInfo(address)":"aa378a7d","getSphincsKey(address)":"c18cf7b9","grantRole(bytes32,address)":"2f2ff15d","hasRole(bytes32,address)":"91d14854","healthContract()":"71c9b18e","incrementBlocksProduced(address)":"65a32756","isRegistered(address)":"c3c5a547","register(bytes)":"82fbdc9c","renounceRole(bytes32,address)":"36568abe","revokeRole(bytes32,address)":"d547741f","rotationContract()":"dbc76e63","setHealthContract(address)":"3116a266","setRotationContract(address)":"4672bb32","stakingContract()":"ee99205c","supportsInterface(bytes4)":"01ffc9a7","updateSphincsKey(bytes)":"6ffbf732","updateStakeInfo(address,uint256)":"30527b66"},"id":71}