{"abi":[{"type":"constructor","inputs":[{"name":"_vkCommitment","type":"bytes32","internalType":"bytes32"},{"name":"_friBlowupFactor","type":"uint256","internalType":"uint256"},{"name":"_friNumQueries","type":"uint256","internalType":"uint256"}],"stateMutability":"nonpayable"},{"type":"function","name":"friBlowupFactor","inputs":[],"outputs":[{"name":"","type":"uint256","internalType":"uint256"}],"stateMutability":"view"},{"type":"function","name":"friNumQueries","inputs":[],"outputs":[{"name":"","type":"uint256","internalType":"uint256"}],"stateMutability":"view"},{"type":"function","name":"getVerificationKeyHash","inputs":[],"outputs":[{"name":"","type":"bytes32","internalType":"bytes32"}],"stateMutability":"view"},{"type":"function","name":"getVerifierType","inputs":[],"outputs":[{"name":"","type":"string","internalType":"string"}],"stateMutability":"pure"},{"type":"function","name":"isQuantumResistant","inputs":[],"outputs":[{"name":"","type":"bool","internalType":"bool"}],"stateMutability":"pure"},{"type":"function","name":"verifyProof","inputs":[{"name":"proof","type":"bytes","internalType":"bytes"},{"name":"publicInputs","type":"uint256[]","internalType":"uint256[]"}],"outputs":[{"name":"valid","type":"bool","internalType":"bool"}],"stateMutability":"view"},{"type":"function","name":"vkCommitment","inputs":[],"outputs":[{"name":"","type":"bytes32","internalType":"bytes32"}],"stateMutability":"view"},{"type":"error","name":"InvalidStarkProof","inputs":[]},{"type":"error","name":"NotImplemented","inputs":[]}],"bytecode":{"object":"0x60e060405234801561000f575f80fd5b5060405161036c38038061036c83398101604081905261002e9161003f565b60809290925260a05260c05261006a565b5f805f60608486031215610051575f80fd5b8351925060208401519150604084015190509250925092565b60805160a05160c0516102d261009a5f395f61013401525f60d201525f818161010b015261015b01526102d25ff3fe608060405234801561000f575f80fd5b506004361061007a575f3560e01c80636f173079116100585780636f17307914610102578063937f6a1014610109578063d8de4a841461012f578063dc89392114610156575f80fd5b80631e8e1e131461007e5780633521162b146100a65780634d233add146100cd575b5f80fd5b61009161008c366004610197565b61017d565b60405190151581526020015b60405180910390f35b6040805180820182526005815264737461726b60d81b6020820152905161009d9190610251565b6100f47f000000000000000000000000000000000000000000000000000000000000000081565b60405190815260200161009d565b6001610091565b7f00000000000000000000000000000000000000000000000000000000000000006100f4565b6100f47f000000000000000000000000000000000000000000000000000000000000000081565b6100f47f000000000000000000000000000000000000000000000000000000000000000081565b5f60405163d623472560e01b815260040160405180910390fd5b5f805f80604085870312156101aa575f80fd5b843567ffffffffffffffff808211156101c1575f80fd5b818701915087601f8301126101d4575f80fd5b8135818111156101e2575f80fd5b8860208285010111156101f3575f80fd5b60209283019650945090860135908082111561020d575f80fd5b818701915087601f830112610220575f80fd5b81358181111561022e575f80fd5b8860208260051b8501011115610242575f80fd5b95989497505060200194505050565b5f6020808352835180828501525f5b8181101561027c57858101830151858201604001528201610260565b505f604082860101526040601f19601f830116850101925050509291505056fea26469706673582212205be2cbda0b9d67dd215979a3efe3acdf028c0f35a7e3ce93d8813b6abfb4c6f264736f6c63430008140033","linkReferences":{}},"methodIdentifiers":{"friBlowupFactor()":"4d233add","friNumQueries()":"d8de4a84","getVerificationKeyHash()":"937f6a10","getVerifierType()":"3521162b","isQuantumResistant()":"6f173079","verifyProof(bytes,uint256[])":"1e8e1e13","vkCommitment()":"dc893921"},"id":3}