{"abi":[{"type":"function","name":"EMPTY_LEAF_LEGACY","inputs":[],"outputs":[{"name":"","type":"bytes32","internalType":"bytes32"}],"stateMutability":"view"},{"type":"function","name":"EMPTY_LEAF_SHA3","inputs":[],"outputs":[{"name":"","type":"bytes32","internalType":"bytes32"}],"stateMutability":"view"},{"type":"function","name":"MAX_LEAF_INDEX","inputs":[],"outputs":[{"name":"","type":"uint256","internalType":"uint256"}],"stateMutability":"view"},{"type":"function","name":"TREE_DEPTH","inputs":[],"outputs":[{"name":"","type":"uint256","internalType":"uint256"}],"stateMutability":"view"},{"type":"error","name":"IndexOutOfBounds","inputs":[]},{"type":"error","name":"InvalidLeafData","inputs":[]},{"type":"error","name":"InvalidProofLength","inputs":[]}],"bytecode":{"object":"0x61012c61003a600b82828239805160001a60731461002d57634e487b7160e01b600052600060045260246000fd5b30600052607381538281f3fe730000000000000000000000000000000000000000301460806040526004361060515760003560e01c80632e0fdb3e14605657806380fc749814608e57806393e49fa0146094578063f16505361460ba575b600080fd5b607c7f290decd9548b62a8d60345a988386fc84ba6bc95484008f6362f93160ef3e56381565b60405190815260200160405180910390f35b607c60c1565b607c7fa7ffc6f8bf1ed76651c14756a061d662f580ff4de43b49fa82d80a4b80f8434a81565b607c601481565b60cd60016210000060d0565b81565b8181038181111560f057634e487b7160e01b600052601160045260246000fd5b9291505056fea2646970667358221220edde349238d8506980b9a1cbacd87899ea52597ce424b4707e6924554250bb8964736f6c63430008140033","linkReferences":{}},"methodIdentifiers":{"EMPTY_LEAF_LEGACY()":"2e0fdb3e","EMPTY_LEAF_SHA3()":"93e49fa0","MAX_LEAF_INDEX()":"80fc7498","TREE_DEPTH()":"f1650536"},"id":18}