{"abi":[{"type":"constructor","inputs":[{"name":"admin","type":"address","internalType":"address"}],"stateMutability":"nonpayable"},{"type":"function","name":"ADMIN_ROLE","inputs":[],"outputs":[{"name":"","type":"bytes32","internalType":"bytes32"}],"stateMutability":"view"},{"type":"function","name":"DEFAULT_ADMIN_ROLE","inputs":[],"outputs":[{"name":"","type":"bytes32","internalType":"bytes32"}],"stateMutability":"view"},{"type":"function","name":"MINIMUM_DELEGATED_STAKE","inputs":[],"outputs":[{"name":"","type":"uint256","internalType":"uint256"}],"stateMutability":"view"},{"type":"function","name":"MINIMUM_STAKE","inputs":[],"outputs":[{"name":"","type":"uint256","internalType":"uint256"}],"stateMutability":"view"},{"type":"function","name":"REGISTRY_ROLE","inputs":[],"outputs":[{"name":"","type":"bytes32","internalType":"bytes32"}],"stateMutability":"view"},{"type":"function","name":"SLASHING_ROLE","inputs":[],"outputs":[{"name":"","type":"bytes32","internalType":"bytes32"}],"stateMutability":"view"},{"type":"function","name":"UNBONDING_PERIOD","inputs":[],"outputs":[{"name":"","type":"uint256","internalType":"uint256"}],"stateMutability":"view"},{"type":"function","name":"delegateStake","inputs":[{"name":"sequencer","type":"address","internalType":"address"}],"outputs":[],"stateMutability":"payable"},{"type":"function","name":"getDelegatedStake","inputs":[{"name":"sequencer","type":"address","internalType":"address"}],"outputs":[{"name":"","type":"uint256","internalType":"uint256"}],"stateMutability":"view"},{"type":"function","name":"getDelegation","inputs":[{"name":"delegator","type":"address","internalType":"address"},{"name":"sequencer","type":"address","internalType":"address"}],"outputs":[{"name":"","type":"uint256","internalType":"uint256"}],"stateMutability":"view"},{"type":"function","name":"getDelegators","inputs":[{"name":"sequencer","type":"address","internalType":"address"}],"outputs":[{"name":"","type":"address[]","internalType":"address[]"}],"stateMutability":"view"},{"type":"function","name":"getRoleAdmin","inputs":[{"name":"role","type":"bytes32","internalType":"bytes32"}],"outputs":[{"name":"","type":"bytes32","internalType":"bytes32"}],"stateMutability":"view"},{"type":"function","name":"getStake","inputs":[{"name":"sequencer","type":"address","internalType":"address"}],"outputs":[{"name":"","type":"uint256","internalType":"uint256"}],"stateMutability":"view"},{"type":"function","name":"getTotalStake","inputs":[{"name":"sequencer","type":"address","internalType":"address"}],"outputs":[{"name":"","type":"uint256","internalType":"uint256"}],"stateMutability":"view"},{"type":"function","name":"getUnbondingEntries","inputs":[{"name":"sequencer","type":"address","internalType":"address"}],"outputs":[{"name":"","type":"tuple[]","internalType":"struct ISequencerStaking.UnbondingEntry[]","components":[{"name":"amount","type":"uint256","internalType":"uint256"},{"name":"unlockTime","type":"uint256","internalType":"uint256"}]}],"stateMutability":"view"},{"type":"function","name":"getWithdrawable","inputs":[{"name":"sequencer","type":"address","internalType":"address"}],"outputs":[{"name":"","type":"uint256","internalType":"uint256"}],"stateMutability":"view"},{"type":"function","name":"grantRole","inputs":[{"name":"role","type":"bytes32","internalType":"bytes32"},{"name":"account","type":"address","internalType":"address"}],"outputs":[],"stateMutability":"nonpayable"},{"type":"function","name":"hasRole","inputs":[{"name":"role","type":"bytes32","internalType":"bytes32"},{"name":"account","type":"address","internalType":"address"}],"outputs":[{"name":"","type":"bool","internalType":"bool"}],"stateMutability":"view"},{"type":"function","name":"isEligible","inputs":[{"name":"sequencer","type":"address","internalType":"address"}],"outputs":[{"name":"","type":"bool","internalType":"bool"}],"stateMutability":"view"},{"type":"function","name":"registryContract","inputs":[],"outputs":[{"name":"","type":"address","internalType":"address"}],"stateMutability":"view"},{"type":"function","name":"renounceRole","inputs":[{"name":"role","type":"bytes32","internalType":"bytes32"},{"name":"callerConfirmation","type":"address","internalType":"address"}],"outputs":[],"stateMutability":"nonpayable"},{"type":"function","name":"revokeRole","inputs":[{"name":"role","type":"bytes32","internalType":"bytes32"},{"name":"account","type":"address","internalType":"address"}],"outputs":[],"stateMutability":"nonpayable"},{"type":"function","name":"setRegistryContract","inputs":[{"name":"_registryContract","type":"address","internalType":"address"}],"outputs":[],"stateMutability":"nonpayable"},{"type":"function","name":"setSlashingContract","inputs":[{"name":"_slashingContract","type":"address","internalType":"address"}],"outputs":[],"stateMutability":"nonpayable"},{"type":"function","name":"slash","inputs":[{"name":"sequencer","type":"address","internalType":"address"},{"name":"amount","type":"uint256","internalType":"uint256"}],"outputs":[],"stateMutability":"nonpayable"},{"type":"function","name":"slashingContract","inputs":[],"outputs":[{"name":"","type":"address","internalType":"address"}],"stateMutability":"view"},{"type":"function","name":"stake","inputs":[],"outputs":[],"stateMutability":"payable"},{"type":"function","name":"stakeFor","inputs":[{"name":"sequencer","type":"address","internalType":"address"}],"outputs":[],"stateMutability":"payable"},{"type":"function","name":"supportsInterface","inputs":[{"name":"interfaceId","type":"bytes4","internalType":"bytes4"}],"outputs":[{"name":"","type":"bool","internalType":"bool"}],"stateMutability":"view"},{"type":"function","name":"undelegateStake","inputs":[{"name":"sequencer","type":"address","internalType":"address"},{"name":"amount","type":"uint256","internalType":"uint256"}],"outputs":[],"stateMutability":"nonpayable"},{"type":"function","name":"unstake","inputs":[{"name":"amount","type":"uint256","internalType":"uint256"}],"outputs":[],"stateMutability":"nonpayable"},{"type":"function","name":"unstakeFor","inputs":[{"name":"sequencer","type":"address","internalType":"address"},{"name":"amount","type":"uint256","internalType":"uint256"}],"outputs":[],"stateMutability":"nonpayable"},{"type":"function","name":"withdraw","inputs":[],"outputs":[],"stateMutability":"nonpayable"},{"type":"function","name":"withdrawDelegation","inputs":[{"name":"sequencer","type":"address","internalType":"address"}],"outputs":[],"stateMutability":"nonpayable"},{"type":"event","name":"DelegateStaked","inputs":[{"name":"delegator","type":"address","indexed":true,"internalType":"address"},{"name":"sequencer","type":"address","indexed":true,"internalType":"address"},{"name":"amount","type":"uint256","indexed":false,"internalType":"uint256"}],"anonymous":false},{"type":"event","name":"DelegateUnstaked","inputs":[{"name":"delegator","type":"address","indexed":true,"internalType":"address"},{"name":"sequencer","type":"address","indexed":true,"internalType":"address"},{"name":"amount","type":"uint256","indexed":false,"internalType":"uint256"},{"name":"unlockTime","type":"uint256","indexed":false,"internalType":"uint256"}],"anonymous":false},{"type":"event","name":"DelegateWithdrawn","inputs":[{"name":"delegator","type":"address","indexed":true,"internalType":"address"},{"name":"sequencer","type":"address","indexed":true,"internalType":"address"},{"name":"amount","type":"uint256","indexed":false,"internalType":"uint256"}],"anonymous":false},{"type":"event","name":"RoleAdminChanged","inputs":[{"name":"role","type":"bytes32","indexed":true,"internalType":"bytes32"},{"name":"previousAdminRole","type":"bytes32","indexed":true,"internalType":"bytes32"},{"name":"newAdminRole","type":"bytes32","indexed":true,"internalType":"bytes32"}],"anonymous":false},{"type":"event","name":"RoleGranted","inputs":[{"name":"role","type":"bytes32","indexed":true,"internalType":"bytes32"},{"name":"account","type":"address","indexed":true,"internalType":"address"},{"name":"sender","type":"address","indexed":true,"internalType":"address"}],"anonymous":false},{"type":"event","name":"RoleRevoked","inputs":[{"name":"role","type":"bytes32","indexed":true,"internalType":"bytes32"},{"name":"account","type":"address","indexed":true,"internalType":"address"},{"name":"sender","type":"address","indexed":true,"internalType":"address"}],"anonymous":false},{"type":"event","name":"SlashingContractSet","inputs":[{"name":"slashingContract","type":"address","indexed":true,"internalType":"address"}],"anonymous":false},{"type":"event","name":"StakeSlashed","inputs":[{"name":"sequencer","type":"address","indexed":true,"internalType":"address"},{"name":"amount","type":"uint256","indexed":false,"internalType":"uint256"}],"anonymous":false},{"type":"event","name":"Staked","inputs":[{"name":"sequencer","type":"address","indexed":true,"internalType":"address"},{"name":"amount","type":"uint256","indexed":false,"internalType":"uint256"}],"anonymous":false},{"type":"event","name":"Unstaked","inputs":[{"name":"sequencer","type":"address","indexed":true,"internalType":"address"},{"name":"amount","type":"uint256","indexed":false,"internalType":"uint256"},{"name":"unlockTime","type":"uint256","indexed":false,"internalType":"uint256"}],"anonymous":false},{"type":"event","name":"Withdrawn","inputs":[{"name":"sequencer","type":"address","indexed":true,"internalType":"address"},{"name":"amount","type":"uint256","indexed":false,"internalType":"uint256"}],"anonymous":false},{"type":"error","name":"AccessControlBadConfirmation","inputs":[]},{"type":"error","name":"AccessControlUnauthorizedAccount","inputs":[{"name":"account","type":"address","internalType":"address"},{"name":"neededRole","type":"bytes32","internalType":"bytes32"}]},{"type":"error","name":"ReentrancyGuardReentrantCall","inputs":[]}],"bytecode":{"object":"0x6080346200008057601f62001aaa38819003918201601f19168301916001600160401b0383118484101762000084578084926020946040528339810103126200008057516001600160a01b038116810362000080576200006f9060018055620000688162000098565b5062000108565b506040516118c19081620001a98239f35b5f80fd5b634e487b7160e01b5f52604160045260245ffd5b6001600160a01b03165f8181525f8051602062001a8a833981519152602052604090205460ff1662000103575f8181525f8051602062001a8a83398151915260205260408120805460ff191660011790553391905f8051602062001a6a8339815191528180a4600190565b505f90565b6001600160a01b03165f8181527f7d7ffb7a348e1c6a02869081a26547b49160dd3df72d1d75a570eb9b698292ec60205260409020547fa49807205ce4d355092ef5a8a18f56e8913cf4a201fbe287825b095693c21775919060ff16620001a257815f525f60205260405f20815f5260205260405f20600160ff1982541617905533915f8051602062001a6a8339815191525f80a4600190565b50505f9056fe6080604081815260049182361015610015575f80fd5b5f3560e01c90816301ffc9a7146111bf57508063028ebc441461116957806302fb4d851461107f57806308dbbb031461105b5780630c505e511461103357806315049a5a14610fe95780631e7ff8f614610fa1578063248a9ca314610f78578063252ab7e014610e7657806328c1f99b14610e4e5780632e17de7814610d885780632f2ff15d14610d6057806332cc6ae614610cc857806336568abe14610c8457806336ef088c14610b595780633a4b66f114610af25780633ccfd60b146109f457806342f1e879146109ba5780634bf692061461093857806366e305fd146108f457806368e763461461084a57806375b238fc146108105780637a766460146107d95780637c47c16d146107a25780638ac020371461065257806391d148541461060f5780639e17977a146104df578063a217fddf146104c5578063afe5d92e1461048b578063c9fec42814610467578063cab3a581146103ee578063d547741f146103b3578063d9a912ec146103965763f094cc3914610195575f80fd5b602080600319360112610392576101aa611211565b6101b261178e565b690a968163f0a57b4000003410610350576001600160a01b0316916101d88315156114e2565b825f5260028252805f20541561031d57335f52838252805f20835f528252805f206102043482546112d6565b9055825f5260068252805f2061021b3482546112d6565b9055825f5260088252805f20335f52825260ff815f20541615610268575b5134815233917f5d84fd7efe2fd5203970924007f1f56ec874f1fdbe6acec5f208000a72c7045691a360018055005b825f5260078252805f20805490600160401b82101561030a57600182018082558210156102f7577f5d84fd7efe2fd5203970924007f1f56ec874f1fdbe6acec5f208000a72c70456939495505f52835f2001336bffffffffffffffffffffffff60a01b825416179055835f5260088352805f20335f528352805f20600160ff1982541617905583929150610239565b603286634e487b7160e01b5f525260245ffd5b604186634e487b7160e01b5f525260245ffd5b5162461bcd60e51b81529283015250600f60248201526e2737ba10309039b2b8bab2b731b2b960891b6044820152606490fd5b50905162461bcd60e51b815291820152601860248201527f42656c6f77206d696e696d756d2064656c65676174696f6e00000000000000006044820152606490fd5b5f80fd5b5034610392575f366003190112610392576020905162093a808152f35b50346103925780600319360112610392576103ec91356103e760016103d6611227565b93835f525f6020525f20015461159b565b6117b1565b005b3461039257602036600319011261039257610407611211565b61040f611522565b6001600160a01b038116906104409061042983151561123d565b600980546001600160a01b0319168417905561166d565b507f302ce0ffdea10ad835a78a2a745bb6c53f3d57350156b7cb977f63b8e5174e3c5f80a2005b5034610392575f3660031901126103925760209051690a968163f0a57b4000008152f35b5034610392575f36600319011261039257602090517fb801263e329db3167d0035f91876337d707144b20be6439dae64af0ca4d28a5f8152f35b5034610392575f36600319011261039257602090515f8152f35b509034610392576020366003190112610392576104fa611211565b9161050361178e565b5f91335f526005602052815f209360018060a01b031693845f52602052815f20925f945b845491828710156105ba5761053c8787611376565b506001015442106105a85761055d906105558888611376565b5054906112d6565b915f198101908111610595576105766105879187611376565b506105818888611376565b90611831565b61059085611851565b610527565b601184634e487b7160e01b5f525260245ffd5b9150946105b490611823565b94610527565b846105c6821515611423565b6105df5f80808086335af16105d9611465565b506114a4565b519081527fb1296e59c4148d97ce0bf24c50bb4bd58367005c1871eef38c03187f3cff850460203392a360018055005b503461039257806003193601126103925760209161062b611227565b90355f525f8352815f209060018060a01b03165f52825260ff815f20541690519015158152f35b503461039257806003193601126103925761066b611211565b906024359061067861178e565b61068382151561127b565b335f526020848152815f209360018060a01b031693845f52815282825f20541061076057335f52848152815f20845f528152815f206106c38482546112b5565b9055835f5260068152815f206106da8482546112b5565b905562093a8042019081421161074d57907f2df7b6cde1a6dc9291db0a1f87bfdef620bece2efd5e7e704eb1ab4bdeb7562f9291335f5260058152825f20865f52815261073c835f2084519061072f826112e3565b87825284848301526113a3565b82519485528401523392a360018055005b601186634e487b7160e01b5f525260245ffd5b8490606492519162461bcd60e51b8352820152601760248201527f496e73756666696369656e742064656c65676174696f6e0000000000000000006044820152fd5b5034610392576020366003190112610392576020906001600160a01b036107c7611211565b165f5260068252805f20549051908152f35b5034610392576020366003190112610392576020906001600160a01b036107fe611211565b165f5260028252805f20549051908152f35b5034610392575f36600319011261039257602090517fa49807205ce4d355092ef5a8a18f56e8913cf4a201fbe287825b095693c217758152f35b50346103925760209081600319360112610392576001600160a01b039182610870611211565b165f5260078152815f209082518082845491828152019081945f52835f20905f5b8181106108de57505050816108a7910382611313565b8351938285019183865251809252840192915f5b8281106108c85785850386f35b83518716855293810193928101926001016108bb565b8254891684529285019260019283019201610891565b5034610392576020366003190112610392576020906001600160a01b03610919611211565b165f52600282526969e10de76676d0800000815f205410159051908152f35b506020366003190112610392577f9e71bc8eea02a63969f509818f2dafb9254532904319f9dbda79b67bd34a5f3d6020610970611211565b61097861178e565b6109833415156113ea565b6001600160a01b0316926109988415156114e2565b835f5260028252805f206109ad3482546112d6565b905551348152a260018055005b5034610392575f36600319011261039257602090517fc2979137d1774e40fe2638d355bf7a7b092be4c67f242aad1655e1e27f9df9cc8152f35b509034610392575f36600319011261039257610a0e61178e565b5f91335f526003602052805f20915f935b83549081861015610aa357610a348686611376565b50600101544210610a9257610a4d906105558787611376565b905f198101908111610a7f57610a66610a719186611376565b506105818787611376565b610a7a84611851565b610a1f565b601183634e487b7160e01b5f525260245ffd5b94610a9d9150611823565b93610a1f565b83610aaf821515611423565b610ac25f80808086335af16105d9611465565b519081527f7084f5476618d8e60b11ef0d7d3f06914655adb8793e28ff7f018d4c76d505d560203392a260018055005b505f36600319011261039257610b0661178e565b610b113415156113ea565b335f526002602052805f20610b273482546112d6565b9055513481527f9e71bc8eea02a63969f509818f2dafb9254532904319f9dbda79b67bd34a5f3d60203392a260018055005b5034610392578060031936011261039257610b72611211565b90602435610b7e61178e565b7fc2979137d1774e40fe2638d355bf7a7b092be4c67f242aad1655e1e27f9df9cc92835f526020935f8552835f20335f52855260ff845f20541615610c665750610bc982151561127b565b60018060a01b031692835f5260028152610be882845f20541015611335565b835f5260028152825f20610bfd8382546112b5565b905562093a8042019081421161074d57847f7fc4727e062e336010f2c282598ef5f14facb3de68cf8195c2f23e1454b2b74e9596505f5260038152610c57845f20855190610c4a826112e3565b85825284848301526113a3565b8351928352820152a260018055005b835163e2517d3f60e01b815233818801526024810191909152604490fd5b5034610392578060031936011261039257610c9d611227565b90336001600160a01b03831603610cb957506103ec91356117b1565b5163334bd91960e11b81529050fd5b503461039257602036600319011261039257610ce2611211565b6001600160a01b03165f9081526003602052818120805490825b828110610d0d576020848651908152f35b610d178183611376565b50600142910154111580610d4c575b610d33575b600101610cfc565b92610d446001916105558685611376565b939050610d2b565b50610d578183611376565b50541515610d26565b50346103925780600319360112610392576103ec9135610d8360016103d6611227565b611718565b5034610392576020908160031936011261039257823591610da761178e565b610db283151561127b565b335f5260028152610dc883835f20541015611335565b335f5260028152815f20610ddd8482546112b5565b905562093a80420190814211610e3b577f7fc4727e062e336010f2c282598ef5f14facb3de68cf8195c2f23e1454b2b74e939450335f5260038152610e2a835f2084519061072f826112e3565b82519485528401523392a260018055005b601185634e487b7160e01b5f525260245ffd5b5034610392575f36600319011261039257600a5490516001600160a01b039091168152602090f35b5090346103925760209081600319360112610392576001600160a01b03610e9b611211565b165f5260038252825f209182549167ffffffffffffffff8311610f6557508284805193610ecd848260051b0186611313565b80855283850180935f52845f205f915b838310610f3157505050508051938385948501918186525180925282850193925f905b838210610f0d5786860387f35b84518051875283015186840152879650948501949382019360019190910190610f00565b600287600192879a98999751610f46816112e3565b8554815284860154838201528152019201920191909693959496610edd565b604190634e487b7160e01b5f525260245ffd5b503461039257602036600319011261039257602091355f525f82526001815f2001549051908152f35b5034610392576020366003190112610392576020906001600160a01b03610fc6611211565b165f5260028252610fe2815f205460068452825f2054906112d6565b9051908152f35b5034610392578060031936011261039257602091611005611211565b61100d611227565b6001600160a01b039182165f908152928552838320911682528352819020549051908152f35b5034610392575f3660031901126103925760095490516001600160a01b039091168152602090f35b5034610392575f36600319011261039257602090516969e10de76676d08000008152f35b509034610392578160031936011261039257611099611211565b602435917fb801263e329db3167d0035f91876337d707144b20be6439dae64af0ca4d28a5f805f525f602052845f20335f5260205260ff855f2054161561114c57847f83f5ea8bea7627d95274e94dd7e9e3d7e82cb55feab513ed49e325232dcc61e06020868661110b82151561127b565b6001600160a01b03165f8181526002845285902080549195919283811115611141575061113883806112b5565b905551908152a2005b6111389080946112b5565b6044925084519163e2517d3f60e01b835233908301526024820152fd5b34610392576020366003190112610392576103ec611185611211565b61118d611522565b6001600160a01b0381166111a281151561123d565b6bffffffffffffffffffffffff60a01b600a541617600a556115bc565b833461039257602036600319011261039257359063ffffffff60e01b821680920361039257602091637965db0b60e01b8114908115611200575b5015158152f35b6301ffc9a760e01b149050836111f9565b600435906001600160a01b038216820361039257565b602435906001600160a01b038216820361039257565b1561124457565b60405162461bcd60e51b815260206004820152600f60248201526e496e76616c6964206164647265737360881b6044820152606490fd5b1561128257565b60405162461bcd60e51b815260206004820152600b60248201526a16995c9bc8185b5bdd5b9d60aa1b6044820152606490fd5b919082039182116112c257565b634e487b7160e01b5f52601160045260245ffd5b919082018092116112c257565b6040810190811067ffffffffffffffff8211176112ff57604052565b634e487b7160e01b5f52604160045260245ffd5b90601f8019910116810190811067ffffffffffffffff8211176112ff57604052565b1561133c57565b60405162461bcd60e51b8152602060048201526012602482015271496e73756666696369656e74207374616b6560701b6044820152606490fd5b805482101561138f575f5260205f209060011b01905f90565b634e487b7160e01b5f52603260045260245ffd5b8054600160401b8110156112ff576113c091600182018155611376565b9190916113d7576020816001925184550151910155565b634e487b7160e01b5f525f60045260245ffd5b156113f157565b60405162461bcd60e51b815260206004820152600a6024820152695a65726f207374616b6560b01b6044820152606490fd5b1561142a57565b60405162461bcd60e51b81526020600482015260136024820152724e6f7468696e6720746f20776974686472617760681b6044820152606490fd5b3d1561149f573d9067ffffffffffffffff82116112ff5760405191611494601f8201601f191660200184611313565b82523d5f602084013e565b606090565b156114ab57565b60405162461bcd60e51b815260206004820152600f60248201526e151c985b9cd9995c8819985a5b1959608a1b6044820152606490fd5b156114e957565b60405162461bcd60e51b815260206004820152601160248201527024b73b30b634b21039b2b8bab2b731b2b960791b6044820152606490fd5b335f9081527f7d7ffb7a348e1c6a02869081a26547b49160dd3df72d1d75a570eb9b698292ec60205260409020547fa49807205ce4d355092ef5a8a18f56e8913cf4a201fbe287825b095693c217759060ff161561157d5750565b6044906040519063e2517d3f60e01b82523360048301526024820152fd5b805f525f60205260405f20335f5260205260ff60405f2054161561157d5750565b6001600160a01b03165f8181527ff335f57b756ddd7e591b923d07203a74acc727c4bda262e47a8da634def041a660205260409020547fc2979137d1774e40fe2638d355bf7a7b092be4c67f242aad1655e1e27f9df9cc919060ff1661166757815f525f60205260405f20815f5260205260405f20600160ff1982541617905533917f2f8788117e7eff1d82e926ec794901d17c78024a50270940304540a733656f0d5f80a4600190565b50505f90565b6001600160a01b03165f8181527f3d9e8b1eae824b4abb2e3d947062011af9148180a509d3d64eeb8f195861431460205260409020547fb801263e329db3167d0035f91876337d707144b20be6439dae64af0ca4d28a5f919060ff1661166757815f525f60205260405f20815f5260205260405f20600160ff1982541617905533917f2f8788117e7eff1d82e926ec794901d17c78024a50270940304540a733656f0d5f80a4600190565b90815f525f60205260405f209060018060a01b031690815f5260205260ff60405f205416155f1461166757815f525f60205260405f20815f5260205260405f20600160ff1982541617905533917f2f8788117e7eff1d82e926ec794901d17c78024a50270940304540a733656f0d5f80a4600190565b60026001541461179f576002600155565b604051633ee5aeb560e01b8152600490fd5b90815f525f60205260405f209060018060a01b031690815f5260205260ff60405f2054165f1461166757815f525f60205260405f20815f5260205260405f2060ff19815416905533917ff6391f5c32d9c69d2a47ea670b442974b53935d1edc7fd64eb21e047a839171b5f80a4600190565b5f1981146112c25760010190565b91906113d757808203611842575050565b60018181925484550154910155565b80548015611877575f1901906118678282611376565b6113d7576001815f809355015555565b634e487b7160e01b5f52603160045260245ffdfea26469706673582212206accfd1bba681d56de2a4af2ace8e486aca33b7f61bd91813229679bbfe42ad764736f6c634300081800332f8788117e7eff1d82e926ec794901d17c78024a50270940304540a733656f0dad3228b676f7d3cd4284a5443f17f1962b36e491b30a40b2405849e597ba5fb5","linkReferences":{}},"methodIdentifiers":{"ADMIN_ROLE()":"75b238fc","DEFAULT_ADMIN_ROLE()":"a217fddf","MINIMUM_DELEGATED_STAKE()":"c9fec428","MINIMUM_STAKE()":"08dbbb03","REGISTRY_ROLE()":"42f1e879","SLASHING_ROLE()":"afe5d92e","UNBONDING_PERIOD()":"d9a912ec","delegateStake(address)":"f094cc39","getDelegatedStake(address)":"7c47c16d","getDelegation(address,address)":"15049a5a","getDelegators(address)":"68e76346","getRoleAdmin(bytes32)":"248a9ca3","getStake(address)":"7a766460","getTotalStake(address)":"1e7ff8f6","getUnbondingEntries(address)":"252ab7e0","getWithdrawable(address)":"32cc6ae6","grantRole(bytes32,address)":"2f2ff15d","hasRole(bytes32,address)":"91d14854","isEligible(address)":"66e305fd","registryContract()":"28c1f99b","renounceRole(bytes32,address)":"36568abe","revokeRole(bytes32,address)":"d547741f","setRegistryContract(address)":"028ebc44","setSlashingContract(address)":"cab3a581","slash(address,uint256)":"02fb4d85","slashingContract()":"0c505e51","stake()":"3a4b66f1","stakeFor(address)":"4bf69206","supportsInterface(bytes4)":"01ffc9a7","undelegateStake(address,uint256)":"8ac02037","unstake(uint256)":"2e17de78","unstakeFor(address,uint256)":"36ef088c","withdraw()":"3ccfd60b","withdrawDelegation(address)":"9e17977a"},"id":76}