{"abi":[{"type":"constructor","inputs":[{"name":"veqs_","type":"address","internalType":"address"},{"name":"securityCouncil_","type":"address","internalType":"address"},{"name":"governance_","type":"address","internalType":"address"}],"stateMutability":"nonpayable"},{"type":"function","name":"MAX_CONSECUTIVE_TERMS","inputs":[],"outputs":[{"name":"","type":"uint256","internalType":"uint256"}],"stateMutability":"view"},{"type":"function","name":"MAX_MEMBERS","inputs":[],"outputs":[{"name":"","type":"uint256","internalType":"uint256"}],"stateMutability":"view"},{"type":"function","name":"MIN_VEQS_TO_NOMINATE","inputs":[],"outputs":[{"name":"","type":"uint256","internalType":"uint256"}],"stateMutability":"view"},{"type":"function","name":"MIN_VEQS_TO_VOTE","inputs":[],"outputs":[{"name":"","type":"uint256","internalType":"uint256"}],"stateMutability":"view"},{"type":"function","name":"NOMINATION_PERIOD","inputs":[],"outputs":[{"name":"","type":"uint256","internalType":"uint256"}],"stateMutability":"view"},{"type":"function","name":"TERM_DURATION","inputs":[],"outputs":[{"name":"","type":"uint256","internalType":"uint256"}],"stateMutability":"view"},{"type":"function","name":"VOTING_PERIOD","inputs":[],"outputs":[{"name":"","type":"uint256","internalType":"uint256"}],"stateMutability":"view"},{"type":"function","name":"currentElectionId","inputs":[],"outputs":[{"name":"","type":"uint256","internalType":"uint256"}],"stateMutability":"view"},{"type":"function","name":"finalize","inputs":[],"outputs":[],"stateMutability":"nonpayable"},{"type":"function","name":"getCandidate","inputs":[{"name":"electionId","type":"uint256","internalType":"uint256"},{"name":"candidate","type":"address","internalType":"address"}],"outputs":[{"name":"","type":"tuple","internalType":"struct SecurityCouncilElection.Candidate","components":[{"name":"addr","type":"address","internalType":"address"},{"name":"veQSBalance","type":"uint256","internalType":"uint256"},{"name":"votesReceived","type":"uint256","internalType":"uint256"},{"name":"nominated","type":"bool","internalType":"bool"}]}],"stateMutability":"view"},{"type":"function","name":"getCandidates","inputs":[{"name":"electionId","type":"uint256","internalType":"uint256"}],"outputs":[{"name":"","type":"address[]","internalType":"address[]"}],"stateMutability":"view"},{"type":"function","name":"getConsecutiveTerms","inputs":[{"name":"member","type":"address","internalType":"address"}],"outputs":[{"name":"","type":"uint256","internalType":"uint256"}],"stateMutability":"view"},{"type":"function","name":"getElection","inputs":[{"name":"electionId","type":"uint256","internalType":"uint256"}],"outputs":[{"name":"","type":"tuple","internalType":"struct SecurityCouncilElection.Election","components":[{"name":"id","type":"uint256","internalType":"uint256"},{"name":"nominationStart","type":"uint256","internalType":"uint256"},{"name":"nominationEnd","type":"uint256","internalType":"uint256"},{"name":"votingEnd","type":"uint256","internalType":"uint256"},{"name":"candidateCount","type":"uint256","internalType":"uint256"},{"name":"finalized","type":"bool","internalType":"bool"},{"name":"winners","type":"address[9]","internalType":"address[9]"}]}],"stateMutability":"view"},{"type":"function","name":"getTermEnd","inputs":[{"name":"member","type":"address","internalType":"address"}],"outputs":[{"name":"","type":"uint256","internalType":"uint256"}],"stateMutability":"view"},{"type":"function","name":"getTermInfo","inputs":[{"name":"member","type":"address","internalType":"address"}],"outputs":[{"name":"","type":"tuple","internalType":"struct SecurityCouncilElection.TermInfo","components":[{"name":"termNumber","type":"uint256","internalType":"uint256"},{"name":"startTime","type":"uint256","internalType":"uint256"},{"name":"endTime","type":"uint256","internalType":"uint256"},{"name":"consecutiveTerms","type":"uint256","internalType":"uint256"},{"name":"lastElectionId","type":"uint256","internalType":"uint256"}]}],"stateMutability":"view"},{"type":"function","name":"getVotesReceived","inputs":[{"name":"candidate","type":"address","internalType":"address"}],"outputs":[{"name":"","type":"uint256","internalType":"uint256"}],"stateMutability":"view"},{"type":"function","name":"getWinners","inputs":[{"name":"electionId","type":"uint256","internalType":"uint256"}],"outputs":[{"name":"","type":"address[9]","internalType":"address[9]"}],"stateMutability":"view"},{"type":"function","name":"governance","inputs":[],"outputs":[{"name":"","type":"address","internalType":"address"}],"stateMutability":"view"},{"type":"function","name":"hasVoted","inputs":[{"name":"electionId","type":"uint256","internalType":"uint256"},{"name":"voter","type":"address","internalType":"address"}],"outputs":[{"name":"","type":"bool","internalType":"bool"}],"stateMutability":"view"},{"type":"function","name":"isNominated","inputs":[{"name":"candidate","type":"address","internalType":"address"}],"outputs":[{"name":"","type":"bool","internalType":"bool"}],"stateMutability":"view"},{"type":"function","name":"isNominationPeriod","inputs":[],"outputs":[{"name":"","type":"bool","internalType":"bool"}],"stateMutability":"view"},{"type":"function","name":"isVotingPeriod","inputs":[],"outputs":[{"name":"","type":"bool","internalType":"bool"}],"stateMutability":"view"},{"type":"function","name":"nominate","inputs":[],"outputs":[],"stateMutability":"nonpayable"},{"type":"function","name":"securityCouncil","inputs":[],"outputs":[{"name":"","type":"address","internalType":"contract ISecurityCouncil"}],"stateMutability":"view"},{"type":"function","name":"setGovernance","inputs":[{"name":"newGovernance","type":"address","internalType":"address"}],"outputs":[],"stateMutability":"nonpayable"},{"type":"function","name":"startElection","inputs":[],"outputs":[],"stateMutability":"nonpayable"},{"type":"function","name":"veqs","inputs":[],"outputs":[{"name":"","type":"address","internalType":"contract IveQS"}],"stateMutability":"view"},{"type":"function","name":"vote","inputs":[{"name":"candidate","type":"address","internalType":"address"}],"outputs":[],"stateMutability":"nonpayable"},{"type":"event","name":"CandidateNominated","inputs":[{"name":"electionId","type":"uint256","indexed":true,"internalType":"uint256"},{"name":"candidate","type":"address","indexed":true,"internalType":"address"},{"name":"veQSBalance","type":"uint256","indexed":false,"internalType":"uint256"}],"anonymous":false},{"type":"event","name":"ElectionFinalized","inputs":[{"name":"electionId","type":"uint256","indexed":true,"internalType":"uint256"},{"name":"winners","type":"address[9]","indexed":false,"internalType":"address[9]"}],"anonymous":false},{"type":"event","name":"ElectionStarted","inputs":[{"name":"electionId","type":"uint256","indexed":true,"internalType":"uint256"},{"name":"nominationEnd","type":"uint256","indexed":false,"internalType":"uint256"},{"name":"votingEnd","type":"uint256","indexed":false,"internalType":"uint256"}],"anonymous":false},{"type":"event","name":"MemberRotated","inputs":[{"name":"oldMember","type":"address","indexed":true,"internalType":"address"},{"name":"newMember","type":"address","indexed":true,"internalType":"address"},{"name":"seatId","type":"uint256","indexed":false,"internalType":"uint256"}],"anonymous":false},{"type":"event","name":"TermEnded","inputs":[{"name":"member","type":"address","indexed":true,"internalType":"address"},{"name":"termNumber","type":"uint256","indexed":false,"internalType":"uint256"}],"anonymous":false},{"type":"event","name":"TermStarted","inputs":[{"name":"member","type":"address","indexed":true,"internalType":"address"},{"name":"termNumber","type":"uint256","indexed":false,"internalType":"uint256"},{"name":"startTime","type":"uint256","indexed":false,"internalType":"uint256"},{"name":"endTime","type":"uint256","indexed":false,"internalType":"uint256"}],"anonymous":false},{"type":"event","name":"VoteCast","inputs":[{"name":"electionId","type":"uint256","indexed":true,"internalType":"uint256"},{"name":"voter","type":"address","indexed":true,"internalType":"address"},{"name":"candidate","type":"address","indexed":true,"internalType":"address"},{"name":"weight","type":"uint256","indexed":false,"internalType":"uint256"}],"anonymous":false},{"type":"error","name":"AlreadyNominated","inputs":[]},{"type":"error","name":"AlreadyVoted","inputs":[]},{"type":"error","name":"ElectionAlreadyActive","inputs":[]},{"type":"error","name":"ElectionAlreadyFinalized","inputs":[]},{"type":"error","name":"ElectionNotActive","inputs":[]},{"type":"error","name":"ElectionNotFinalized","inputs":[]},{"type":"error","name":"InsufficientVeQS","inputs":[]},{"type":"error","name":"InvalidCandidate","inputs":[]},{"type":"error","name":"MaxConsecutiveTermsReached","inputs":[]},{"type":"error","name":"NominationPeriodEnded","inputs":[]},{"type":"error","name":"NominationPeriodNotEnded","inputs":[]},{"type":"error","name":"NotEnoughCandidates","inputs":[]},{"type":"error","name":"NotGovernance","inputs":[]},{"type":"error","name":"NotNominated","inputs":[]},{"type":"error","name":"VotingPeriodEnded","inputs":[]},{"type":"error","name":"VotingPeriodNotStarted","inputs":[]}],"bytecode":{"object":"0x60c0346200018057601f620017c738819003918201601f191683019291906001600160401b03841183851017620001845781606092849260409687528339810103126200018057620000518162000198565b6200006c83620000646020850162000198565b930162000198565b6001600160a01b039182169290919083156200014d5781169182156200011c5716918215620000e35760805260a0525f80546001600160a01b031916919091179055516116199081620001ae82396080518181816101ad0152818161072a01526113fc015260a051818181610e6501526113750152f35b835162461bcd60e51b8152602060048201526012602482015271496e76616c696420676f7665726e616e636560701b6044820152606490fd5b845162461bcd60e51b815260206004820152600a602482015269496e76616c696420534360b01b6044820152606490fd5b845162461bcd60e51b815260206004820152600c60248201526b496e76616c6964207665515360a01b6044820152606490fd5b5f80fd5b634e487b7160e01b5f52604160045260245ffd5b51906001600160a01b0382168203620001805756fe6080806040526004361015610012575f80fd5b5f3560e01c9081630ed1f660146113ea57508063188cf0b8146113c85780631cdcf031146113a457806327eb6c0f146113605780632f4b379b146113195780633a3e6c81146112cd5780633e39a7a51461121b57806340b0b1da14611164578063438596321461111b578063485e20ad146111005780634bb278f314610c46578063551bdead14610c295780635aa6e67514610c025780635bf343d214610b4c57806362d73eb814610983578063676ae617146109485780636b1426a4146108d35780636dd7d8ea146106bc57806398ecf2a01461069f5780639d7107771461059a5780639d806a281461055f578063a3dbd32914610541578063ab033ea9146104b0578063b1610d7e14610493578063ba4f2c0d1461044c578063e16fd62e146103f0578063ea0e35b1146103d55763fcd7e1d714610150575f80fd5b3461039b575f36600319011261039b576001805490815f526020906002825260405f209080820154156103c357600282015442116103b157604051635da6a21b60e11b8152336004820152936001600160a01b03929084866024817f000000000000000000000000000000000000000000000000000000000000000088165afa9586156103a6575f96610373575b5069152d02c7e14af6800000861061036157805f526003855260405f20335f52855260ff600360405f2001541661034f576102183361158b565b1561033d5761029990600360405191610230836114a3565b3383528783019689885260408401905f825260608501928884525f52838a5260405f20335f528a5260405f20945116976bffffffffffffffffffffffff60a01b9889865416178555518785015551600284015551151591019060ff801983541691151516179055565b81545f526004845260405f20908154936801000000000000000085101561032957838501808455851015610315577ff2b0b0b3b7a188eaf1241c39009b9dcbde85bf0cb0fc07738c55a8e0e99ac2b6946004935f52865f200190339082541617905501610306815461153f565b905554916040519384523393a3005b634e487b7160e01b5f52603260045260245ffd5b634e487b7160e01b5f52604160045260245ffd5b604051630efd544160e11b8152600490fd5b6040516328f3e0eb60e11b8152600490fd5b604051632e141d1360e21b8152600490fd5b9095508481813d831161039f575b61038b81836114f8565b8101031261039b5751945f6101de565b5f80fd5b503d610381565b6040513d5f823e3d90fd5b604051630c29700360e21b8152600490fd5b604051638744898560e01b8152600490fd5b3461039b575f36600319011261039b57602060405160098152f35b3461039b575f36600319011261039b576001545f526002602052602060405f2060018101541515908161043e575b8161042f575b506040519015158152f35b60039150015442111582610424565b60028101544211915061041e565b3461039b575f36600319011261039b576001545f526002602052602060405f2060018101541515908161048457506040519015158152f35b60029150015442111582610424565b3461039b575f36600319011261039b57602060405162093a808152f35b3461039b57602036600319011261039b576104c961142b565b5f54906001600160a01b0390818316330361052f57169081156104f5576001600160a01b031916175f55005b60405162461bcd60e51b8152602060048201526012602482015271496e76616c696420676f7665726e616e636560701b6044820152606490fd5b604051632d5be4cb60e21b8152600490fd5b3461039b575f36600319011261039b5760206040516301e133808152f35b3461039b57602036600319011261039b576001600160a01b0361058061142b565b165f5260076020526020600260405f200154604051908152f35b3461039b57602036600319011261039b576040516105b7816114bf565b5f81525f60208201525f60408201525f60608201525f60808201525f60a082015260c0604051916105e7836114db565b61012036843701526004355f5260026020526101e060405f2061069d60405191610610836114bf565b805483526001810154906020840191825260028101546040850190815260038201546060860190815260048301549160808701928352610663600660ff6005870154169560a08a0196151587520161154d565b9460c088019586526040519751885251602088015251604087015251606086015251608085015251151560a08401525160c0830190611457565bf35b3461039b575f36600319011261039b576020600154604051908152f35b3461039b5760208060031936011261039b576106d661142b565b90600190815491825f526002825260405f2081810154156103c35760028101544211156108c1576003015442116108af57604051636a292c0360e01b8152336004820152926001600160a01b0383856024817f000000000000000000000000000000000000000000000000000000000000000085165afa9485156103a6575f95610880575b50670de0b6b3a7640000851061036157815f526005845260405f20335f52845260ff60405f20541661086e57815f526003845260405f20951694855f52835260ff600360405f200154161561085c575f526005825260405f20335f52825260405f208160ff1982541617905580545f526006825260405f20335f52825260405f20846bffffffffffffffffffffffff60a01b82541617905580545f526003825260405f20845f528252600260405f2001908154848101809111610848577f044652d717a831bada29c3f4822836fca71492a56031a029c131e915bd00ce8e925554916040519384523393a4005b634e487b7160e01b5f52601160045260245ffd5b60405163e66ea08f60e01b8152600490fd5b604051637c9a1cf960e01b8152600490fd5b9094508381813d83116108a8575b61089881836114f8565b8101031261039b5751938661075b565b503d61088e565b60405163370ec37160e21b8152600490fd5b6040516304add5b960e31b8152600490fd5b3461039b57602036600319011261039b576040516004356108f3826114db565b6101208092369037805f52600260205260ff600560405f2001541615610936575f526002602052610929600660405f200161154d565b61069d6040518092611457565b6040516338d531cb60e21b8152600490fd5b3461039b57602036600319011261039b576001600160a01b0361096961142b565b165f5260076020526020600360405f200154604051908152f35b3461039b575f36600319011261039b575f546001600160a01b03908116330361052f5760019060015480610b09575b6109bb9061153f565b91826001556203f48042019182421161084857620d2f004201938484116108485760405190610120820182811067ffffffffffffffff821117610329576040525f82526020915f60208201525f60408201525f60608201525f60808201525f60a08201525f60c08201525f60e08201525f610100820152610ab160405192610a42846114bf565b808452602084014281526040850189815260608601908b825260808701925f845260a08801945f865260c089019788525f52600260205260405f2097518855516001880155516002870155516003860155516004850155511515600584019060ff801983541691151516179055565b51915f5b60098110610af357877f05c86f625f5abd1385c78f66fa5cae221087d7ef4e0a8b37efdfd0592c85a7596040896001549382519182526020820152a2005b8351851683820160060155928101928501610ab5565b805f52600260205260405f2060ff600582015416159081610b3d575b50156109b257604051635370c06360e11b8152600490fd5b60039150015442111584610b25565b3461039b57604036600319011261039b576080610b67611441565b5f6060604051610b76816114a3565b82815282602082015282604082015201526004355f52600360205260405f2060018060a01b038092165f5260205260405f209060405190610bb6826114a3565b82541691828252600181015460208301908152606060ff600360028501549460408701958652015416930192151583526040519384525160208401525160408301525115156060820152f35b3461039b575f36600319011261039b575f546040516001600160a01b039091168152602090f35b3461039b575f36600319011261039b5760206040516203f4808152f35b3461039b575f36600319011261039b57600154805f52600260205260405f206001810154156103c35760038101544211156108c15760ff6005820154166110ee5760096004820154106110dc57815f52600460205260405f20604051808260208294549384815201905f5260205f20925f5b8181106110ba575050610ccd925003826114f8565b80515f5b815f19810111610848575f198201811015610dba578060018201821161084857600182015b838110610d4d575090818160019303610d11575b5001610cd1565b610d46838060a01b039182610d26858961151a565b511692610d33828961151a565b5116610d3f858961151a565b528661151a565b5286610d0a565b5f8781526003602052604090206001600160a01b039081610d6e848961151a565b51165f52602052600260405f20015490885f52600360205260405f2090610d95858961151a565b51165f52602052600260405f20015410610db2575b600101610cf6565b905080610daa565b6040518484610dc8836114db565b6101203684375f5b60098110611092575050815f5b60098110611072575050600501805460ff19166001179055426301e13380810110610848575f5b60098110610e4557507f2766fac687bd7c7a6f464079c44017fa60edc1f09ae1e086e38cebce1704652361012060015492610e426040518092611457565ba2005b60405163ab3545e560e01b815260048101829052602492919060208185817f00000000000000000000000000000000000000000000000000000000000000006001600160a01b03165afa9081156103a6575f91611030575b506001600160a01b03610eb0838561152e565b51169081906001600160a01b0316818103610fa7575b505f52600760205260405f209360048501548015159182610f73575b50506060600194957f038e0ea7635073b270fd97d69dd06ee7a73a19f96a7cbd56c2d709e72825a971925f14610f685760038101610f20815461153f565b90555b610f2d815461153f565b9081815542878201556301e1338042016002820155600487549101556040519081524260208201526301e1338042016040820152a201610e04565b856003820155610f23565b909150600182018211610f9457506001805491810190911490606090610ee2565b634e487b7160e01b5f9081526011600452fd5b805f5260078060205260405f2054610fec575b507fd35d87b05f3b74214d65b41e0c138f4181e21e4e879785b0dd6bf427b32296e86020604051868152a38085610ec6565b60086020524260405f2055602052807f0738525463d0173ea394488da017cb5ef45789920d3c7792398ebc11df9b7565602060405f2054604051908152a286610fba565b90506020813d60201161106a575b8161104b602093836114f8565b8101031261039b57516001600160a01b038116810361039b5784610e9d565b3d915061103e565b81516001600160a01b031660068285010155602090910190600101610ddd565b6001906001600160a01b036110a7828561151a565b51166110b3828761152e565b5201610dd0565b84546001600160a01b0316835260019485019486945060209093019201610cb8565b604051631217258560e01b8152600490fd5b60405163192daa6160e01b8152600490fd5b3461039b575f36600319011261039b57602060405160038152f35b3461039b57604036600319011261039b57611134611441565b6004355f52600560205260405f209060018060a01b03165f52602052602060ff60405f2054166040519015158152f35b3461039b57602036600319011261039b5761117d61142b565b5f608060405161118c81611487565b828152826020820152826040820152826060820152015260018060a01b03165f52600760205260a060405f206040516111c481611487565b81549182825260018101546020830190815260028201549060408401918252608060046003850154946060870195865201549401938452604051948552516020850152516040840152516060830152516080820152f35b3461039b5760208060031936011261039b576004355f526004815260405f20604051908183825491828152019081925f52845f20905f5b868282106112b0578686611268828803836114f8565b60405192839281840190828552518091526040840192915f5b82811061129057505050500390f35b83516001600160a01b031685528695509381019392810192600101611281565b83546001600160a01b031685529093019260019283019201611252565b3461039b57602036600319011261039b576112e661142b565b6001545f52600360205260405f209060018060a01b03165f52602052602060ff600360405f200154166040519015158152f35b3461039b57602036600319011261039b5761133261142b565b6001545f52600360205260405f209060018060a01b03165f526020526020600260405f200154604051908152f35b3461039b575f36600319011261039b576040517f00000000000000000000000000000000000000000000000000000000000000006001600160a01b03168152602090f35b3461039b575f36600319011261039b57602060405169152d02c7e14af68000008152f35b3461039b575f36600319011261039b576020604051670de0b6b3a76400008152f35b3461039b575f36600319011261039b577f00000000000000000000000000000000000000000000000000000000000000006001600160a01b03168152602090f35b600435906001600160a01b038216820361039b57565b602435906001600160a01b038216820361039b57565b5f915b6009831061146757505050565b81516001600160a01b03168152600192909201916020918201910161145a565b60a0810190811067ffffffffffffffff82111761032957604052565b6080810190811067ffffffffffffffff82111761032957604052565b60e0810190811067ffffffffffffffff82111761032957604052565b610120810190811067ffffffffffffffff82111761032957604052565b90601f8019910116810190811067ffffffffffffffff82111761032957604052565b80518210156103155760209160051b010190565b9060098110156103155760051b0190565b5f1981146108485760010190565b60405191905f835b6009821061156b57505050611569826114db565b565b82546001600160a01b031681526001928301929190910190602001611555565b6001600160a01b03165f9081526007602052604090208054156115c657600481015480151590816115cc575b506115c6576003809101541090565b50600190565b90506001810180911161084857600154115f6115b756fea2646970667358221220c7002651b31032b495230c8e89b3efa02224a08bad37c6e5105146ee052c6fe564736f6c63430008180033","linkReferences":{}},"methodIdentifiers":{"MAX_CONSECUTIVE_TERMS()":"485e20ad","MAX_MEMBERS()":"ea0e35b1","MIN_VEQS_TO_NOMINATE()":"1cdcf031","MIN_VEQS_TO_VOTE()":"188cf0b8","NOMINATION_PERIOD()":"551bdead","TERM_DURATION()":"a3dbd329","VOTING_PERIOD()":"b1610d7e","currentElectionId()":"98ecf2a0","finalize()":"4bb278f3","getCandidate(uint256,address)":"5bf343d2","getCandidates(uint256)":"3e39a7a5","getConsecutiveTerms(address)":"676ae617","getElection(uint256)":"9d710777","getTermEnd(address)":"9d806a28","getTermInfo(address)":"40b0b1da","getVotesReceived(address)":"2f4b379b","getWinners(uint256)":"6b1426a4","governance()":"5aa6e675","hasVoted(uint256,address)":"43859632","isNominated(address)":"3a3e6c81","isNominationPeriod()":"ba4f2c0d","isVotingPeriod()":"e16fd62e","nominate()":"fcd7e1d7","securityCouncil()":"27eb6c0f","setGovernance(address)":"ab033ea9","startElection()":"62d73eb8","veqs()":"0ed1f660","vote(address)":"6dd7d8ea"},"id":39}