{"abi":[{"type":"constructor","inputs":[{"name":"veQS_","type":"address","internalType":"address"},{"name":"rewardToken_","type":"address","internalType":"address"},{"name":"epochDuration_","type":"uint256","internalType":"uint256"},{"name":"admin_","type":"address","internalType":"address"}],"stateMutability":"nonpayable"},{"type":"function","name":"addRewards","inputs":[{"name":"amount","type":"uint256","internalType":"uint256"}],"outputs":[],"stateMutability":"nonpayable"},{"type":"function","name":"calculateUserShare","inputs":[{"name":"user","type":"address","internalType":"address"},{"name":"epoch","type":"uint256","internalType":"uint256"}],"outputs":[{"name":"","type":"uint256","internalType":"uint256"}],"stateMutability":"view"},{"type":"function","name":"claim","inputs":[],"outputs":[{"name":"","type":"uint256","internalType":"uint256"}],"stateMutability":"nonpayable"},{"type":"function","name":"claimForEpochs","inputs":[{"name":"epochs","type":"uint256[]","internalType":"uint256[]"}],"outputs":[{"name":"","type":"uint256","internalType":"uint256"}],"stateMutability":"nonpayable"},{"type":"function","name":"currentEpoch","inputs":[],"outputs":[{"name":"","type":"uint256","internalType":"uint256"}],"stateMutability":"view"},{"type":"function","name":"emergencyWithdraw","inputs":[{"name":"to","type":"address","internalType":"address"},{"name":"amount","type":"uint256","internalType":"uint256"}],"outputs":[],"stateMutability":"nonpayable"},{"type":"function","name":"epochDuration","inputs":[],"outputs":[{"name":"","type":"uint256","internalType":"uint256"}],"stateMutability":"view"},{"type":"function","name":"finalizeEpoch","inputs":[],"outputs":[],"stateMutability":"nonpayable"},{"type":"function","name":"getEpoch","inputs":[{"name":"epoch","type":"uint256","internalType":"uint256"}],"outputs":[{"name":"","type":"tuple","internalType":"struct IVeQSRewardDistributor.Epoch","components":[{"name":"startTime","type":"uint256","internalType":"uint256"},{"name":"endTime","type":"uint256","internalType":"uint256"},{"name":"totalRewards","type":"uint256","internalType":"uint256"},{"name":"totalVotingPower","type":"uint256","internalType":"uint256"},{"name":"finalized","type":"bool","internalType":"bool"}]}],"stateMutability":"view"},{"type":"function","name":"getUserClaim","inputs":[{"name":"user","type":"address","internalType":"address"}],"outputs":[{"name":"","type":"tuple","internalType":"struct IVeQSRewardDistributor.UserClaim","components":[{"name":"lastClaimedEpoch","type":"uint256","internalType":"uint256"},{"name":"totalClaimed","type":"uint256","internalType":"uint256"}]}],"stateMutability":"view"},{"type":"function","name":"pendingRewards","inputs":[{"name":"user","type":"address","internalType":"address"}],"outputs":[{"name":"","type":"uint256","internalType":"uint256"}],"stateMutability":"view"},{"type":"function","name":"rewardToken","inputs":[],"outputs":[{"name":"","type":"address","internalType":"address"}],"stateMutability":"view"},{"type":"function","name":"veQS","inputs":[],"outputs":[{"name":"","type":"address","internalType":"address"}],"stateMutability":"view"},{"type":"event","name":"EmergencyWithdrawal","inputs":[{"name":"to","type":"address","indexed":true,"internalType":"address"},{"name":"amount","type":"uint256","indexed":false,"internalType":"uint256"}],"anonymous":false},{"type":"event","name":"EpochFinalized","inputs":[{"name":"epoch","type":"uint256","indexed":true,"internalType":"uint256"},{"name":"totalRewards","type":"uint256","indexed":false,"internalType":"uint256"},{"name":"totalVotingPower","type":"uint256","indexed":false,"internalType":"uint256"}],"anonymous":false},{"type":"event","name":"RewardsAdded","inputs":[{"name":"epoch","type":"uint256","indexed":true,"internalType":"uint256"},{"name":"amount","type":"uint256","indexed":false,"internalType":"uint256"},{"name":"addedBy","type":"address","indexed":true,"internalType":"address"}],"anonymous":false},{"type":"event","name":"RewardsClaimed","inputs":[{"name":"user","type":"address","indexed":true,"internalType":"address"},{"name":"epoch","type":"uint256","indexed":true,"internalType":"uint256"},{"name":"amount","type":"uint256","indexed":false,"internalType":"uint256"}],"anonymous":false},{"type":"error","name":"AlreadyClaimed","inputs":[]},{"type":"error","name":"EpochAlreadyFinalized","inputs":[]},{"type":"error","name":"EpochNotFinalized","inputs":[]},{"type":"error","name":"InvalidEpoch","inputs":[]},{"type":"error","name":"NoRewardsToClaim","inputs":[]},{"type":"error","name":"NotAuthorized","inputs":[]},{"type":"error","name":"ZeroAmount","inputs":[]}],"bytecode":{"object":"0x60e03461028157601f610fd738819003918201601f1916830192916001600160401b03918285118486101761016a5781608092859260409788528339810103126102815761004c82610285565b9160209261005b848301610285565b61006b6060878501519401610285565b6001600160a01b03908382161561024e578183161561020a5784156101c657169182156101925760805260a0528160c05260018060a01b0319600154161760015560015f55420180421161017e5783519060a08201928284109084111761016a5760049285524282528382019081528482015f815260608301915f8352600360808501965f88525f805252865f2093518455516001840155516002830155516003820155019051151560ff8019835416911617905551610d3d908161029a82396080518181816104f6015281816105730152610b24015260a05181818160c2015281816103290152610ca2015260c051818181610614015261075d0152f35b634e487b7160e01b5f52604160045260245ffd5b634e487b7160e01b5f52601160045260245ffd5b865162461bcd60e51b815260048101879052600d60248201526c24b73b30b634b21030b236b4b760991b6044820152606490fd5b875162461bcd60e51b815260048101889052601660248201527f496e76616c69642065706f6368206475726174696f6e000000000000000000006044820152606490fd5b875162461bcd60e51b815260048101889052601460248201527f496e76616c69642072657761726420746f6b656e0000000000000000000000006044820152606490fd5b875162461bcd60e51b815260048101889052600c60248201526b496e76616c6964207665515360a01b6044820152606490fd5b5f80fd5b51906001600160a01b03821682036102815756fe6080604090808252600480361015610015575f80fd5b5f3560e01c9182632c6875ee146109685750816331d7a262146108aa578163440a49121461087b5781634e71d92d146107805781634ff0876a14610746578163766718081461072857816382ae9ef71461052557816383dd229d146104e257816395ccea6714610466578163bc0bc6ba146103bb578163beceed3914610276578163f63b450c146100f5575063f7c618c1146100af575f80fd5b346100f1575f3660031901126100f157517f00000000000000000000000000000000000000000000000000000000000000006001600160a01b03168152602090f35b5f80fd5b82346100f15760209060206003193601126100f15782359167ffffffffffffffff8084116100f157366023850112156100f157838501359081116100f15760059160243683851b87018201116100f15761015660025f959495541415610a74565b60025f555f955f93600254945b8681106101b15789898981156101a257602092335f5283526001815f200161018c838254610a53565b90556101988233610c5b565b60015f5551908152f35b516373380d9960e01b81529050fd5b8381831b840101358681101561026657805f526003865260ff8b8a5f200154161561025657335f908152600460205260409020548110610246576101f58133610ac0565b9081610206575b5050600101610163565b61021482600194939c610a53565b9a8a519081527fdacbdde355ba930696a362ea6738feb9f8bd52dfb3d81947558fd3217e23e325883392a3908b6101fc565b8851630c8d9eab60e31b81528b90fd5b8851638cf7570760e01b81528b90fd5b885163d5b25b6360e01b81528b90fd5b82346100f1576020806003193601126100f15782359261029a60025f541415610a74565b60025f5583156103ad576002545f5260038252825f209060ff818301541661039f57509060027f31055275ed1c52e3c2c906750e908d15538e6c1c01092da5ee55dfcad29da39f92016102ee858254610a53565b905561035e5f808551848101906323b872dd60e01b82523360248201523060448201528860648201526064815261032481610a15565b5190827f00000000000000000000000000000000000000000000000000000000000000005af1610352610bc6565b8161036f575b50610c1d565b60025492519384523393a360015f55005b80518015925084908315610387575b50505086610358565b6103979350820181019101610c05565b86838161037e565b8351630cd9898f60e21b8152fd5b8251631f2a200560e01b8152fd5b9050346100f15760203660031901126100f157815f608060a094516103df81610a15565b8281528260208201528284820152826060820152015281355f526003602052805f2081519161040d83610a15565b815493848452600183015460208501908152608060ff6002860154938588019485526003870154966060890197885201541695019415158552825195865251602086015251908401525160608301525115156080820152f35b9050346100f157816003193601126100f1576104806109cf565b600154602435936001600160a01b03939091841633036104d4575091817f23d6711a1d031134a36921253c75aa59e967d38e369ac625992824315e204f20936104cb86602095610c5b565b519485521692a2005b905163ea8e4eb560e01b8152fd5b82346100f1575f3660031901126100f157517f00000000000000000000000000000000000000000000000000000000000000006001600160a01b03168152602090f35b82346100f1575f3660031901126100f1576002545f5260209160038352815f2091600183015442106106f4578183019283549360ff85166106e55782516311acc1a760e01b815290868286817f00000000000000000000000000000000000000000000000000000000000000006001600160a01b03165afa9182156106db5790849392915f926106a8575b5092816002947fb463d19ecf455be65365092cf8e1db6934a0334cf8cd532ddf9964d01f36b5b2936003860155600160ff19809a161790558454948594015490825191825289820152a25f1981146106955790600160ff93920194856002556106397f000000000000000000000000000000000000000000000000000000000000000042610a53565b9180519261064684610a15565b428452828401908152818401915f8352600360608601945f8652608087019a5f8c525f52525f209351845551600184015551600283015551600382015501925115159183541691161790555f80f35b601183634e487b7160e01b5f525260245ffd5b935090508683813d81116106d4575b6106c18183610a31565b810103126100f1579151839260026105b0565b503d6106b7565b84513d5f823e3d90fd5b505051630cd9898f60e21b8152fd5b5162461bcd60e51b8152908101839052600f60248201526e115c1bd8da081b9bdd08195b991959608a1b6044820152606490fd5b82346100f1575f3660031901126100f1576020906002549051908152f35b82346100f1575f3660031901126100f157602090517f00000000000000000000000000000000000000000000000000000000000000008152f35b82346100f1575f3660031901126100f15761079f60025f541415610a74565b60025f555f905f600254905b8181106107e6575082156107d657600190602094335f528552825f209081550161018c838254610a53565b81516373380d9960e01b81528490fd5b805f5260206003815260ff86855f2001541680610863575b61080c575b506001016107ab565b6108168233610ac0565b80610822575b50610803565b91827fdacbdde355ba930696a362ea6738feb9f8bd52dfb3d81947558fd3217e23e325610853600195849599610a53565b9787519283523392a3908661081c565b50335f908152600460205260409020548210156107fe565b82346100f157806003193601126100f1576020906108a361089a6109cf565b60243590610ac0565b9051908152f35b9050346100f1576020806003193601126100f1576108c66109cf565b6001600160a01b0381165f9081526020849052848120549093908015610961575b92600254935b8481106108fe576020868851908152f35b805f526003825260ff83885f2001541680610940575b610921575b6001016108ed565b946109386001916109328887610ac0565b90610a53565b959050610919565b506001600160a01b0384165f90815260046020526040902054811015610914565b505f6108e7565b909150346100f15760203660031901126100f1575f60206109876109cf565b92610991816109e5565b828152015260018060a01b03165f52602052805f2081516109b1816109e5565b60206001835493848452015491019081528251918252516020820152f35b600435906001600160a01b03821682036100f157565b6040810190811067ffffffffffffffff821117610a0157604052565b634e487b7160e01b5f52604160045260245ffd5b60a0810190811067ffffffffffffffff821117610a0157604052565b90601f8019910116810190811067ffffffffffffffff821117610a0157604052565b91908201809211610a6057565b634e487b7160e01b5f52601160045260245ffd5b15610a7b57565b60405162461bcd60e51b815260206004820152601f60248201527f5265656e7472616e637947756172643a207265656e7472616e742063616c6c006044820152606490fd5b905f52600360205260405f209060ff60048301541615610bc0576003820154918215610b72576002810154908115610bb8576001015460405163eaeded5f60e01b81526001600160a01b0390931660048401526024830152602082806044810103817f00000000000000000000000000000000000000000000000000000000000000006001600160a01b03165afa918215610bad575f92610b79575b508115610b725780820291820403610a60570490565b5050505f90565b9091506020813d602011610ba5575b81610b9560209383610a31565b810103126100f15751905f610b5c565b3d9150610b88565b6040513d5f823e3d90fd5b505050505f90565b50505f90565b3d15610c00573d9067ffffffffffffffff8211610a015760405191610bf5601f8201601f191660200184610a31565b82523d5f602084013e565b606090565b908160209103126100f1575180151581036100f15790565b15610c2457565b60405162461bcd60e51b815260206004820152600f60248201526e151c985b9cd9995c8819985a5b1959608a1b6044820152606490fd5b60405163a9059cbb60e01b602082019081526001600160a01b03929092166024820152604480820193909352918252610cd6915f918291610c9d606482610a31565b5190827f00000000000000000000000000000000000000000000000000000000000000005af1610ccb610bc6565b81610cd85750610c1d565b565b8051801592508215610ced575b50505f610358565b610d009250602080918301019101610c05565b5f80610ce556fea2646970667358221220cbe8823214e5c8d64d73797c66ef7802dcc28c83600a659021884957fd163f3264736f6c63430008180033","linkReferences":{}},"methodIdentifiers":{"addRewards(uint256)":"beceed39","calculateUserShare(address,uint256)":"440a4912","claim()":"4e71d92d","claimForEpochs(uint256[])":"f63b450c","currentEpoch()":"76671808","emergencyWithdraw(address,uint256)":"95ccea67","epochDuration()":"4ff0876a","finalizeEpoch()":"82ae9ef7","getEpoch(uint256)":"bc0bc6ba","getUserClaim(address)":"2c6875ee","pendingRewards(address)":"31d7a262","rewardToken()":"f7c618c1","veQS()":"83dd229d"},"id":81}