{"abi":[{"type":"constructor","inputs":[{"name":"initialMembers","type":"address[9]","internalType":"address[9]"},{"name":"_governor","type":"address","internalType":"address"}],"stateMutability":"nonpayable"},{"type":"function","name":"ACTION_EXPIRY","inputs":[],"outputs":[{"name":"","type":"uint256","internalType":"uint256"}],"stateMutability":"view"},{"type":"function","name":"MAX_MEMBERS","inputs":[],"outputs":[{"name":"","type":"uint256","internalType":"uint256"}],"stateMutability":"view"},{"type":"function","name":"PAUSE_THRESHOLD","inputs":[],"outputs":[{"name":"","type":"uint256","internalType":"uint256"}],"stateMutability":"view"},{"type":"function","name":"UPGRADE_THRESHOLD","inputs":[],"outputs":[{"name":"","type":"uint256","internalType":"uint256"}],"stateMutability":"view"},{"type":"function","name":"VETO_THRESHOLD","inputs":[],"outputs":[{"name":"","type":"uint256","internalType":"uint256"}],"stateMutability":"view"},{"type":"function","name":"emergencyController","inputs":[],"outputs":[{"name":"","type":"address","internalType":"address"}],"stateMutability":"view"},{"type":"function","name":"executeAction","inputs":[{"name":"actionId","type":"bytes32","internalType":"bytes32"}],"outputs":[],"stateMutability":"nonpayable"},{"type":"function","name":"getAction","inputs":[{"name":"actionId","type":"bytes32","internalType":"bytes32"}],"outputs":[{"name":"","type":"tuple","internalType":"struct ISecurityCouncil.Action","components":[{"name":"id","type":"bytes32","internalType":"bytes32"},{"name":"actionType","type":"uint8","internalType":"enum ISecurityCouncil.ActionType"},{"name":"proposer","type":"address","internalType":"address"},{"name":"proposedAt","type":"uint256","internalType":"uint256"},{"name":"expiresAt","type":"uint256","internalType":"uint256"},{"name":"signatureCount","type":"uint256","internalType":"uint256"},{"name":"state","type":"uint8","internalType":"enum ISecurityCouncil.ActionState"},{"name":"data","type":"bytes","internalType":"bytes"}]}],"stateMutability":"view"},{"type":"function","name":"getMember","inputs":[{"name":"seatId","type":"uint256","internalType":"uint256"}],"outputs":[{"name":"","type":"address","internalType":"address"}],"stateMutability":"view"},{"type":"function","name":"getSeatId","inputs":[{"name":"member","type":"address","internalType":"address"}],"outputs":[{"name":"","type":"uint256","internalType":"uint256"}],"stateMutability":"view"},{"type":"function","name":"getSignatureCount","inputs":[{"name":"actionId","type":"bytes32","internalType":"bytes32"}],"outputs":[{"name":"","type":"uint256","internalType":"uint256"}],"stateMutability":"view"},{"type":"function","name":"getThreshold","inputs":[{"name":"actionType","type":"uint8","internalType":"enum ISecurityCouncil.ActionType"}],"outputs":[{"name":"","type":"uint256","internalType":"uint256"}],"stateMutability":"pure"},{"type":"function","name":"getValidSignatureCount","inputs":[{"name":"actionId","type":"bytes32","internalType":"bytes32"}],"outputs":[{"name":"","type":"uint256","internalType":"uint256"}],"stateMutability":"view"},{"type":"function","name":"governor","inputs":[],"outputs":[{"name":"","type":"address","internalType":"address"}],"stateMutability":"view"},{"type":"function","name":"hasSigned","inputs":[{"name":"actionId","type":"bytes32","internalType":"bytes32"},{"name":"signer","type":"address","internalType":"address"}],"outputs":[{"name":"","type":"bool","internalType":"bool"}],"stateMutability":"view"},{"type":"function","name":"isActionExpired","inputs":[{"name":"actionId","type":"bytes32","internalType":"bytes32"}],"outputs":[{"name":"","type":"bool","internalType":"bool"}],"stateMutability":"view"},{"type":"function","name":"isActionReady","inputs":[{"name":"actionId","type":"bytes32","internalType":"bytes32"}],"outputs":[{"name":"","type":"bool","internalType":"bool"}],"stateMutability":"view"},{"type":"function","name":"isMember","inputs":[{"name":"account","type":"address","internalType":"address"}],"outputs":[{"name":"","type":"bool","internalType":"bool"}],"stateMutability":"view"},{"type":"function","name":"memberCount","inputs":[],"outputs":[{"name":"","type":"uint256","internalType":"uint256"}],"stateMutability":"pure"},{"type":"function","name":"proposeAction","inputs":[{"name":"actionType","type":"uint8","internalType":"enum ISecurityCouncil.ActionType"},{"name":"data","type":"bytes","internalType":"bytes"}],"outputs":[{"name":"actionId","type":"bytes32","internalType":"bytes32"}],"stateMutability":"nonpayable"},{"type":"function","name":"replaceMember","inputs":[{"name":"seatId","type":"uint256","internalType":"uint256"},{"name":"newMember","type":"address","internalType":"address"}],"outputs":[],"stateMutability":"nonpayable"},{"type":"function","name":"setEmergencyController","inputs":[{"name":"_emergencyController","type":"address","internalType":"address"}],"outputs":[],"stateMutability":"nonpayable"},{"type":"function","name":"setGovernor","inputs":[{"name":"newGovernor","type":"address","internalType":"address"}],"outputs":[],"stateMutability":"nonpayable"},{"type":"function","name":"signAction","inputs":[{"name":"actionId","type":"bytes32","internalType":"bytes32"}],"outputs":[],"stateMutability":"nonpayable"},{"type":"event","name":"ActionCancelled","inputs":[{"name":"actionId","type":"bytes32","indexed":true,"internalType":"bytes32"}],"anonymous":false},{"type":"event","name":"ActionExecuted","inputs":[{"name":"actionId","type":"bytes32","indexed":true,"internalType":"bytes32"},{"name":"actionType","type":"uint8","indexed":false,"internalType":"enum ISecurityCouncil.ActionType"},{"name":"executor","type":"address","indexed":true,"internalType":"address"}],"anonymous":false},{"type":"event","name":"ActionProposed","inputs":[{"name":"actionId","type":"bytes32","indexed":true,"internalType":"bytes32"},{"name":"actionType","type":"uint8","indexed":false,"internalType":"enum ISecurityCouncil.ActionType"},{"name":"proposer","type":"address","indexed":true,"internalType":"address"},{"name":"data","type":"bytes","indexed":false,"internalType":"bytes"},{"name":"expiresAt","type":"uint256","indexed":false,"internalType":"uint256"}],"anonymous":false},{"type":"event","name":"ActionSigned","inputs":[{"name":"actionId","type":"bytes32","indexed":true,"internalType":"bytes32"},{"name":"signer","type":"address","indexed":true,"internalType":"address"},{"name":"signatureCount","type":"uint256","indexed":false,"internalType":"uint256"}],"anonymous":false},{"type":"event","name":"MemberAdded","inputs":[{"name":"seatId","type":"uint256","indexed":true,"internalType":"uint256"},{"name":"member","type":"address","indexed":true,"internalType":"address"}],"anonymous":false},{"type":"event","name":"MemberRemoved","inputs":[{"name":"seatId","type":"uint256","indexed":true,"internalType":"uint256"},{"name":"member","type":"address","indexed":true,"internalType":"address"}],"anonymous":false},{"type":"event","name":"MemberReplaced","inputs":[{"name":"seatId","type":"uint256","indexed":true,"internalType":"uint256"},{"name":"oldMember","type":"address","indexed":true,"internalType":"address"},{"name":"newMember","type":"address","indexed":true,"internalType":"address"}],"anonymous":false},{"type":"error","name":"ActionExpiredError","inputs":[]},{"type":"error","name":"ActionNotActive","inputs":[]},{"type":"error","name":"ActionNotFound","inputs":[]},{"type":"error","name":"AlreadySigned","inputs":[]},{"type":"error","name":"DuplicateMember","inputs":[]},{"type":"error","name":"ExecutionFailed","inputs":[]},{"type":"error","name":"InvalidMember","inputs":[]},{"type":"error","name":"InvalidSeat","inputs":[]},{"type":"error","name":"NotGovernor","inputs":[]},{"type":"error","name":"NotMember","inputs":[]},{"type":"error","name":"ThresholdNotMet","inputs":[]}],"bytecode":{"object":"0x608060405234801562000010575f80fd5b50604051620029f1380380620029f18339810160408190526200003391620001b7565b6001600160a01b0381166200005b576040516339ec64c160e11b815260040160405180910390fd5b5f80546001600160a01b0319166001600160a01b0383161781555b60098110156200017e575f83826009811062000096576200009662000253565b602002015190506001600160a01b038116620000c5576040516339ec64c160e11b815260040160405180910390fd5b6001600160a01b0381165f9081526004602052604090205460ff1615620000ff57604051637670720160e11b815260040160405180910390fd5b5f82815260026020908152604080832080546001600160a01b0319166001600160a01b038616908117909155808452600383528184208690556004909252808320805460ff1916600117905551909184917ff328ac0f8bcae00933fe87ba0aa2d0d505c1df94bc9c1aa05b8441c28b74032c9190a35060010162000076565b50505062000267565b634e487b7160e01b5f52604160045260245ffd5b80516001600160a01b0381168114620001b2575f80fd5b919050565b5f806101408385031215620001ca575f80fd5b83601f840112620001d9575f80fd5b6040516101208082016001600160401b038111838210171562000200576200020062000187565b6040528401818682111562000213575f80fd5b855b82811015620002385762000229816200019b565b82526020918201910162000215565b505081935062000248816200019b565b925050509250929050565b634e487b7160e01b5f52603260045260245ffd5b61277c80620002755f395ff3fe608060405234801561000f575f80fd5b5060043610610153575f3560e01c80638ff65651116100bf578063cd9782d711610079578063cd9782d7146102f0578063dce9f070146102f8578063de7bea7414610318578063e125ab9c1461032b578063e15ec5571461033e578063ea0e35b114610346575f80fd5b80638ff656511461026f578063948e3e7914610279578063a230c5241461028c578063aa821fd3146102b7578063ab3545e5146102ca578063c42cf535146102dd575f80fd5b806337837a621161011057806337837a62146102065780634bf7d919146102195780634eb91c241461022c5780636ca7dc89146102415780637a936beb146102545780638664165e14610267575f80fd5b806305040df4146101575780630c340a241461017d57806311aee380146101a757806313de8019146101ae57806329832c0f146101d15780632bbe96bc146101e4575b5f80fd5b61016a6101653660046120e6565b61034e565b6040519081526020015b60405180910390f35b5f5461018f906001600160a01b031681565b6040516001600160a01b039091168152602001610174565b600961016a565b6101c16101bc366004612161565b6105c8565b6040519015158152602001610174565b6101c16101df36600461218c565b610648565b61016a6101f2366004612161565b5f9081526005602052604090206004015490565b61016a6102143660046121ba565b61069b565b61016a610227366004612161565b6106ee565b61023f61023a36600461218c565b610750565b005b61023f61024f3660046121ba565b610788565b60015461018f906001600160a01b031681565b61016a600681565b61016a6202a30081565b6101c1610287366004612161565b6107fb565b6101c161029a3660046121ba565b6001600160a01b03165f9081526004602052604090205460ff1690565b61023f6102c5366004612161565b610827565b61018f6102d8366004612161565b6109a3565b61023f6102eb3660046121ba565b6109e0565b61016a600781565b61030b610306366004612161565b610a52565b6040516101749190612266565b61016a6103263660046122ec565b610bea565b61023f610339366004612161565b610c76565b61016a600581565b61016a600981565b335f9081526004602052604081205460ff1661037d5760405163148fe22160e11b815260040160405180910390fd5b60078054905f61038c83612319565b91905055506103c3848484600754426040516020016103af959493929190612359565b604051602081830303815290604052610dd0565b90505f6103d36202a3004261238f565b90506040518061010001604052808381526020018660038111156103f9576103f96121dc565b8152336020820152426040820152606081018390526001608082015260a0015f815260200185858080601f0160208091040260200160405190810160405280939291908181526020018383808284375f920182905250939094525050848152600560209081526040909120835181559083015160018083018054939450919260ff19169083600381111561048f5761048f6121dc565b021790555060408201518160010160016101000a8154816001600160a01b0302191690836001600160a01b03160217905550606082015181600201556080820151816003015560a0820151816004015560c0820151816005015f6101000a81548160ff02191690836003811115610508576105086121dc565b021790555060e082015160068201906105219082612439565b5050505f82815260066020908152604080832033808552925291829020805460ff19166001179055905183907f262b1a5a20587459ad9a97d628b9ba1828b5b6ef75fb737628b5fe6985b427b7906105809089908990899088906124f8565b60405180910390a360405160018152339083907f08851ea8de54deb23379847797e07be584bfd9646cfb3c79cf1f5b68482fd4dc9060200160405180910390a3509392505050565b5f818152600560205260408120600281015482036105e857505f92915050565b5f600582015460ff166003811115610602576106026121dc565b1461060f57505f92915050565b806003015442111561062357505f92915050565b60018101545f906106369060ff16610bea565b60049092015491909110159392505050565b6001600160a01b0381165f9081526004602052604081205460ff1661066e57505f610695565b505f8281526006602090815260408083206001600160a01b038516845290915290205460ff165b92915050565b6001600160a01b0381165f9081526004602052604081205460ff166106d35760405163148fe22160e11b815260040160405180910390fd5b506001600160a01b03165f9081526003602052604090205490565b5f80805b6009811015610749575f81815260026020908152604080832054878452600683528184206001600160a01b0390911680855292529091205460ff1615610740578261073c81612319565b9350505b506001016106f2565b5092915050565b5f546001600160a01b0316331461077a57604051633b8d9d7560e21b815260040160405180910390fd5b6107848282610dda565b5050565b5f546001600160a01b031633146107b257604051633b8d9d7560e21b815260040160405180910390fd5b6001600160a01b0381166107d9576040516339ec64c160e11b815260040160405180910390fd5b600180546001600160a01b0319166001600160a01b0392909216919091179055565b5f8181526005602052604081206002810154820361081b57505f92915050565b60030154421192915050565b335f9081526004602052604090205460ff166108565760405163148fe22160e11b815260040160405180910390fd5b5f81815260056020526040812060028101549091036108885760405163073ec13d60e31b815260040160405180910390fd5b5f600582015460ff1660038111156108a2576108a26121dc565b146108c05760405163269e887b60e21b815260040160405180910390fd5b80600301544211156108e55760405163bd86ae2b60e01b815260040160405180910390fd5b5f82815260066020908152604080832033845290915290205460ff161561091f5760405163585eb56560e11b815260040160405180910390fd5b5f8281526006602090815260408083203384529091528120805460ff191660011790556004820180549161095283612319565b9190505550336001600160a01b0316827f08851ea8de54deb23379847797e07be584bfd9646cfb3c79cf1f5b68482fd4dc836004015460405161099791815260200190565b60405180910390a35050565b5f600982106109c5576040516367ee0b4d60e11b815260040160405180910390fd5b505f908152600260205260409020546001600160a01b031690565b5f546001600160a01b03163314610a0a57604051633b8d9d7560e21b815260040160405180910390fd5b6001600160a01b038116610a31576040516339ec64c160e11b815260040160405180910390fd5b5f80546001600160a01b0319166001600160a01b0392909216919091179055565b610a9960408051610100810182525f80825260208201819052918101829052606081018290526080810182905260a081018290529060c08201908152602001606081525090565b5f8281526005602090815260409182902082516101008101909352805483526001810154909183019060ff166003811115610ad657610ad66121dc565b6003811115610ae757610ae76121dc565b8152600182015461010090046001600160a01b0316602082015260028201546040820152600380830154606083015260048301546080830152600583015460a09092019160ff1690811115610b3e57610b3e6121dc565b6003811115610b4f57610b4f6121dc565b8152602001600682018054610b63906123b6565b80601f0160208091040260200160405190810160405280929190818152602001828054610b8f906123b6565b8015610bda5780601f10610bb157610100808354040283529160200191610bda565b820191905f5260205f20905b815481529060010190602001808311610bbd57829003601f168201915b5050505050815250509050919050565b5f80826003811115610bfe57610bfe6121dc565b03610c0b57506005919050565b6002826003811115610c1f57610c1f6121dc565b03610c2c57506006919050565b6001826003811115610c4057610c406121dc565b03610c4d57506007919050565b6003826003811115610c6157610c616121dc565b03610c6e57506006919050565b506009919050565b335f9081526004602052604090205460ff16610ca55760405163148fe22160e11b815260040160405180910390fd5b5f8181526005602052604081206002810154909103610cd75760405163073ec13d60e31b815260040160405180910390fd5b5f600582015460ff166003811115610cf157610cf16121dc565b14610d0f5760405163269e887b60e21b815260040160405180910390fd5b8060030154421115610d345760405163bd86ae2b60e01b815260040160405180910390fd5b60018101545f90610d479060ff16610bea565b90508082600401541015610d6e576040516359fa4a9360e01b815260040160405180910390fd5b60058201805460ff19166001179055610d8682610efa565b6001820154604051339185917f8afc2ad3f0122fcd8e13915f863c9468589ccd7c1da1dc16ab34dbd0b9ffda7791610dc39160ff9091169061252b565b60405180910390a3505050565b5f610695826113c3565b60098210610dfb576040516367ee0b4d60e11b815260040160405180910390fd5b6001600160a01b038116610e22576040516339ec64c160e11b815260040160405180910390fd5b6001600160a01b0381165f9081526004602052604090205460ff1615610e5b57604051637670720160e11b815260040160405180910390fd5b5f82815260026020908152604080832080546001600160a01b039081168086526004808652848720805460ff199081169091556003875285882088905584546001600160a01b0319169389169384179094558287528487208990559094528285208054909216600117909155905191929091839186917fe7fbc4b279069e25255afe7186c1b3d18586395cd71cee3b86f9caedb8520b219190a4505050565b5f600182015460ff166003811115610f1457610f146121dc565b0361108e576001546001600160a01b03161561108b575f816006018054610f3a906123b6565b80601f0160208091040260200160405190810160405280929190818152602001828054610f66906123b6565b8015610fb15780601f10610f8857610100808354040283529160200191610fb1565b820191905f5260205f20905b815481529060010190602001808311610f9457829003601f168201915b5050505050806020019051810190610fc991906125af565b6001546040519192505f916001600160a01b0390911690610ff39084906203f480906024016125f3565b60408051601f198184030181529181526020820180516001600160e01b031663cf65996360e01b179052516110289190612619565b5f604051808303815f865af19150503d805f8114611061576040519150601f19603f3d011682016040523d82523d5f602084013e611066565b606091505b505090508061108857604051632b3f6d1160e21b815260040160405180910390fd5b50505b50565b6002600182015460ff1660038111156110a9576110a96121dc565b036111b3575f546001600160a01b03161561108b575f8160060180546110ce906123b6565b80601f01602080910402602001604051908101604052809291908181526020018280546110fa906123b6565b80156111455780601f1061111c57610100808354040283529160200191611145565b820191905f5260205f20905b81548152906001019060200180831161112857829003601f168201915b505050505080602001905181019061115d9190612634565b5f80546040516024810184905292935090916001600160a01b039091169060440160408051601f198184030181529181526020820180516001600160e01b031663fb6f93f960e01b179052516110289190612619565b60018082015460ff1660038111156111cd576111cd6121dc565b036112f5575f808260060180546111e3906123b6565b80601f016020809104026020016040519081016040528092919081815260200182805461120f906123b6565b801561125a5780601f106112315761010080835404028352916020019161125a565b820191905f5260205f20905b81548152906001019060200180831161123d57829003601f168201915b5050505050806020019051810190611272919061264b565b915091505f826001600160a01b03168260405161128f9190612619565b5f604051808303815f865af19150503d805f81146112c8576040519150601f19603f3d011682016040523d82523d5f602084013e6112cd565b606091505b50509050806112ef57604051632b3f6d1160e21b815260040160405180910390fd5b50505050565b6003600182015460ff166003811115611310576113106121dc565b0361108b575f80826006018054611326906123b6565b80601f0160208091040260200160405190810160405280929190818152602001828054611352906123b6565b801561139d5780601f106113745761010080835404028352916020019161139d565b820191905f5260205f20905b81548152906001019060200180831161138057829003601f168201915b50505050508060200190518101906113b591906126ab565b915091506110888282610dda565b5f6113cc612096565b82515f60886113dc83600161238f565b6113e691906126e2565b6113f190600161238f565b90505f5b8181101561150d575f6114096088836126f5565b90505f5b60118110156114f8575f805b60088110156114c6575f8161142f8560086126f5565b611439908761238f565b611443919061238f565b90505f8882101561146f578b82815181106114605761146061270c565b016020015160f81c90506114a6565b88820361147e575060066114a6565b600161148b60888861238f565b6114959190612720565b82036114a3575060806114a6565b505f5b6114b18360086126f5565b60ff909116901b929092179150600101611419565b50808783601981106114da576114da61270c565b602002018051919091186001600160401b031690525060010161140d565b50611502856116ad565b9450506001016113f5565b5060c083600360200201516001600160401b0316901b608084600260200201516001600160401b0316901b604085600160200201516001600160401b0316901b855f60200201516001600160401b031617171793506116a4847bffffffff000000000000000000000000ffffffff00000000000000007eff000000ff000000ff000000ff000000ff000000ff000000ff000000ff0000600883811c9182167fff000000ff000000ff000000ff000000ff000000ff000000ff000000ff0000009490911b93841617601090811c7cff000000ff000000ff000000ff000000ff000000ff000000ff000000ff9092167dff000000ff000000ff000000ff000000ff000000ff000000ff000000ff009094169390931790921b91909117602081811c9283167fffffffff000000000000000000000000ffffffff0000000000000000000000009290911b91821617604090811c73ffffffff000000000000000000000000ffffffff90931677ffffffff000000000000000000000000ffffffff0000000090921691909117901b17608081811c91901b1790565b95945050505050565b6116b5612096565b816116be6120b5565b6116c66120b5565b5f6040518061032001604052805f815260200160018152602001603e8152602001601c8152602001601b815260200160248152602001602c815260200160068152602001603781526020016014815260200160038152602001600a8152602001602b8152602001601981526020016027815260200160298152602001602d8152602001600f815260200160158152602001600881526020016012815260200160028152602001603d815260200160388152602001600e81525090505f60405180610300016040528060016001600160401b03166001600160401b031681526020016180826001600160401b03166001600160401b0316815260200167800000000000808a6001600160401b03166001600160401b031681526020016780000000800080006001600160401b03166001600160401b0316815260200161808b6001600160401b03166001600160401b0316815260200163800000016001600160401b03166001600160401b031681526020016780000000800080816001600160401b03166001600160401b031681526020016780000000000080096001600160401b03166001600160401b03168152602001608a6001600160401b03166001600160401b0316815260200160886001600160401b03166001600160401b0316815260200163800080096001600160401b03166001600160401b03168152602001638000000a6001600160401b03166001600160401b03168152602001638000808b6001600160401b03166001600160401b0316815260200167800000000000008b6001600160401b03166001600160401b031681526020016780000000000080896001600160401b03166001600160401b031681526020016780000000000080036001600160401b03166001600160401b031681526020016780000000000080026001600160401b03166001600160401b031681526020016780000000000000806001600160401b03166001600160401b0316815260200161800a6001600160401b03166001600160401b0316815260200167800000008000000a6001600160401b03166001600160401b031681526020016780000000800080816001600160401b03166001600160401b031681526020016780000000000080806001600160401b03166001600160401b0316815260200163800000016001600160401b03166001600160401b031681526020016780000000800080086001600160401b03166001600160401b031681525090505f5b6018811015612058576102808601516101e087015161014088015160a08901518951181818186001600160401b0390811686526102a087015161020088015161016089015160c08a01516020808c01519091189091189091189091188216908701526102c087015161022088015161018089015160e08a01516040808c01519091189091189091189091188216908701526102e08701516102408801516101a08901516101008a01516060808c01519091189091189091189091188216908701526103008701516102608801516101c08901516101208a01516080808c015190911890911890911890911890911690860152611b5a8560015b60200201516001612064565b6080860151186001600160401b03168452611b76856002611b4e565b8551186001600160401b03166020850152611b92856003611b4e565b6020860151186001600160401b03166040850152611bb1856004611b4e565b6040860151186001600160401b03166060850152611bcf855f611b4e565b6060808701516001600160401b0392188216608080880191825287518a511884168a5260208881018051918c01805190921886169091526040808a018051918d01805190921887169091528985018051958d01805190961887169095528351928c0180519093188616909252885160a08c01805190911886169052805160c08c01805190911886169052815160e08c0180519091188616905283516101008c0180519091188616905282516101208c0180519091188616905288516101408c0180519091188616905280516101608c0180519091188616905281516101808c0180519091188616905283516101a08c0180519091188616905282516101c08c0180519091188616905288516101e08c0180519091188616905280516102008c0180519091188616905281516102208c0180519091188616905283516102408c0180519091188616905282516102608c0180519091188616905288516102808c01805190911886169052516102a08b01805190911885169052516102c08a0180519091188416905290516102e0890180519091188316905251610300880180519091189091169052611d7e612096565b5f5b6019811015611e54575f611d95600583612733565b90505f611da36005846126e2565b9050805f6005611db48360036126f5565b611dbf8660026126f5565b611dc9919061238f565b611dd39190612733565b9050611e0b8c8660198110611dea57611dea61270c565b60200201518a8760198110611e0157611e0161270c565b6020020151612064565b86611e178360056126f5565b611e21908561238f565b60198110611e3157611e3161270c565b6001600160401b039092166020929092020152505060019092019150611d809050565b505f5b6005811015612029575f611e6c8260056126f5565b90505f838260198110611e8157611e8161270c565b602002015190505f84611e9584600161238f565b60198110611ea557611ea561270c565b602002015190505f85611eb985600261238f565b60198110611ec957611ec961270c565b602002015190505f86611edd86600361238f565b60198110611eed57611eed61270c565b602002015190505f87611f0187600461238f565b60198110611f1157611f1161270c565b602002015190508284191685188e8760198110611f3057611f3061270c565b6001600160401b0390921660209290920201528219821684188e611f5588600161238f565b60198110611f6557611f6561270c565b6001600160401b0390921660209290920201528119811683188e611f8a88600261238f565b60198110611f9a57611f9a61270c565b6001600160401b0390921660209290920201528019851682188e611fbf88600361238f565b60198110611fcf57611fcf61270c565b6001600160401b0390921660209290920201528419841681188e611ff488600461238f565b601981106120045761200461270c565b6001600160401b039092166020929092020152505060019094019350611e5792505050565b5082826018811061203c5761203c61270c565b60200201518751186001600160401b0316875250600101611a55565b50939695505050505050565b5f815f03612073575081610695565b61207e826040612720565b6001600160401b03841680841b911c17905092915050565b6040518061032001604052806019906020820280368337509192915050565b6040518060a001604052806005906020820280368337509192915050565b8035600481106120e1575f80fd5b919050565b5f805f604084860312156120f8575f80fd5b612101846120d3565b925060208401356001600160401b038082111561211c575f80fd5b818601915086601f83011261212f575f80fd5b81358181111561213d575f80fd5b87602082850101111561214e575f80fd5b6020830194508093505050509250925092565b5f60208284031215612171575f80fd5b5035919050565b6001600160a01b038116811461108b575f80fd5b5f806040838503121561219d575f80fd5b8235915060208301356121af81612178565b809150509250929050565b5f602082840312156121ca575f80fd5b81356121d581612178565b9392505050565b634e487b7160e01b5f52602160045260245ffd5b6004811061108b57634e487b7160e01b5f52602160045260245ffd5b612215816121f0565b9052565b5f5b8381101561223357818101518382015260200161221b565b50505f910152565b5f8151808452612252816020860160208601612219565b601f01601f19169290920160200192915050565b60208152815160208201525f6020830151612280816121f0565b8060408401525060018060a01b03604084015116606083015260608301516080830152608083015160a083015260a083015160c083015260c08301516122c960e084018261220c565b5060e0830151610100838101526122e461012084018261223b565b949350505050565b5f602082840312156122fc575f80fd5b6121d5826120d3565b634e487b7160e01b5f52601160045260245ffd5b5f6001820161232a5761232a612305565b5060010190565b81835281816020850137505f828201602090810191909152601f909101601f19169091010190565b612362866121f0565b858152608060208201525f61237b608083018688612331565b604083019490945250606001529392505050565b8082018082111561069557610695612305565b634e487b7160e01b5f52604160045260245ffd5b600181811c908216806123ca57607f821691505b6020821081036123e857634e487b7160e01b5f52602260045260245ffd5b50919050565b601f82111561108857805f5260205f20601f840160051c810160208510156124135750805b601f840160051c820191505b81811015612432575f815560010161241f565b5050505050565b81516001600160401b03811115612452576124526123a2565b6124668161246084546123b6565b846123ee565b602080601f831160018114612499575f84156124825750858301515b5f19600386901b1c1916600185901b1785556124f0565b5f85815260208120601f198616915b828110156124c7578886015182559484019460019091019084016124a8565b50858210156124e457878501515f19600388901b60f8161c191681555b505060018460011b0185555b505050505050565b612501856121f0565b848152606060208201525f61251a606083018587612331565b905082604083015295945050505050565b60208101612538836121f0565b91905290565b5f6001600160401b0380841115612557576125576123a2565b604051601f8501601f19908116603f0116810190828211818310171561257f5761257f6123a2565b81604052809350858152868686011115612597575f80fd5b6125a5866020830187612219565b5050509392505050565b5f602082840312156125bf575f80fd5b81516001600160401b038111156125d4575f80fd5b8201601f810184136125e4575f80fd5b6122e48482516020840161253e565b604081525f612605604083018561223b565b905062ffffff831660208301529392505050565b5f825161262a818460208701612219565b9190910192915050565b5f60208284031215612644575f80fd5b5051919050565b5f806040838503121561265c575f80fd5b825161266781612178565b60208401519092506001600160401b03811115612682575f80fd5b8301601f81018513612692575f80fd5b6126a18582516020840161253e565b9150509250929050565b5f80604083850312156126bc575f80fd5b8251915060208301516121af81612178565b634e487b7160e01b5f52601260045260245ffd5b5f826126f0576126f06126ce565b500490565b808202811582820484141761069557610695612305565b634e487b7160e01b5f52603260045260245ffd5b8181038181111561069557610695612305565b5f82612741576127416126ce565b50069056fea264697066735822122068b273ce0ed68337e2906dab0b07521ddeaaec0abaa80daeeaf5fff25612012364736f6c63430008180033","linkReferences":{}},"methodIdentifiers":{"ACTION_EXPIRY()":"8ff65651","MAX_MEMBERS()":"ea0e35b1","PAUSE_THRESHOLD()":"e15ec557","UPGRADE_THRESHOLD()":"cd9782d7","VETO_THRESHOLD()":"8664165e","emergencyController()":"7a936beb","executeAction(bytes32)":"e125ab9c","getAction(bytes32)":"dce9f070","getMember(uint256)":"ab3545e5","getSeatId(address)":"37837a62","getSignatureCount(bytes32)":"2bbe96bc","getThreshold(uint8)":"de7bea74","getValidSignatureCount(bytes32)":"4bf7d919","governor()":"0c340a24","hasSigned(bytes32,address)":"29832c0f","isActionExpired(bytes32)":"948e3e79","isActionReady(bytes32)":"13de8019","isMember(address)":"a230c524","memberCount()":"11aee380","proposeAction(uint8,bytes)":"05040df4","replaceMember(uint256,address)":"4eb91c24","setEmergencyController(address)":"6ca7dc89","setGovernor(address)":"c42cf535","signAction(bytes32)":"aa821fd3"},"id":36}