{"abi":[{"type":"constructor","inputs":[{"name":"_verifier","type":"address","internalType":"address"}],"stateMutability":"nonpayable"},{"type":"receive","stateMutability":"payable"},{"type":"function","name":"getLock","inputs":[{"name":"lockId","type":"bytes32","internalType":"bytes32"}],"outputs":[{"name":"sender","type":"address","internalType":"address"},{"name":"amount","type":"uint256","internalType":"uint256"},{"name":"dilithiumPubKeyHash","type":"bytes32","internalType":"bytes32"},{"name":"timestamp","type":"uint256","internalType":"uint256"},{"name":"released","type":"bool","internalType":"bool"}],"stateMutability":"view"},{"type":"function","name":"getVerifierType","inputs":[],"outputs":[{"name":"","type":"string","internalType":"string"}],"stateMutability":"view"},{"type":"function","name":"isQuantumResistant","inputs":[],"outputs":[{"name":"","type":"bool","internalType":"bool"}],"stateMutability":"view"},{"type":"function","name":"lock","inputs":[{"name":"dilithiumPubKeyHash","type":"bytes32","internalType":"bytes32"}],"outputs":[{"name":"lockId","type":"bytes32","internalType":"bytes32"}],"stateMutability":"payable"},{"type":"function","name":"locks","inputs":[{"name":"","type":"bytes32","internalType":"bytes32"}],"outputs":[{"name":"sender","type":"address","internalType":"address"},{"name":"amount","type":"uint256","internalType":"uint256"},{"name":"dilithiumPubKeyHash","type":"bytes32","internalType":"bytes32"},{"name":"timestamp","type":"uint256","internalType":"uint256"},{"name":"released","type":"bool","internalType":"bool"}],"stateMutability":"view"},{"type":"function","name":"nonceCounter","inputs":[],"outputs":[{"name":"","type":"uint256","internalType":"uint256"}],"stateMutability":"view"},{"type":"function","name":"owner","inputs":[],"outputs":[{"name":"","type":"address","internalType":"address"}],"stateMutability":"view"},{"type":"function","name":"pause","inputs":[],"outputs":[],"stateMutability":"nonpayable"},{"type":"function","name":"paused","inputs":[],"outputs":[{"name":"","type":"bool","internalType":"bool"}],"stateMutability":"view"},{"type":"function","name":"release","inputs":[{"name":"proof","type":"bytes","internalType":"bytes"},{"name":"publicInputs","type":"uint256[]","internalType":"uint256[]"}],"outputs":[],"stateMutability":"nonpayable"},{"type":"function","name":"totalLocked","inputs":[],"outputs":[{"name":"","type":"uint256","internalType":"uint256"}],"stateMutability":"view"},{"type":"function","name":"transferOwnership","inputs":[{"name":"newOwner","type":"address","internalType":"address"}],"outputs":[],"stateMutability":"nonpayable"},{"type":"function","name":"unpause","inputs":[],"outputs":[],"stateMutability":"nonpayable"},{"type":"function","name":"updateVerifier","inputs":[{"name":"newVerifier","type":"address","internalType":"address"}],"outputs":[],"stateMutability":"nonpayable"},{"type":"function","name":"usedNonces","inputs":[{"name":"","type":"uint256","internalType":"uint256"}],"outputs":[{"name":"","type":"bool","internalType":"bool"}],"stateMutability":"view"},{"type":"function","name":"verifier","inputs":[],"outputs":[{"name":"","type":"address","internalType":"contract IQuantumVerifier"}],"stateMutability":"view"},{"type":"event","name":"EmergencyPaused","inputs":[{"name":"by","type":"address","indexed":true,"internalType":"address"}],"anonymous":false},{"type":"event","name":"EmergencyUnpaused","inputs":[{"name":"by","type":"address","indexed":true,"internalType":"address"}],"anonymous":false},{"type":"event","name":"Locked","inputs":[{"name":"lockId","type":"bytes32","indexed":true,"internalType":"bytes32"},{"name":"sender","type":"address","indexed":true,"internalType":"address"},{"name":"amount","type":"uint256","indexed":false,"internalType":"uint256"},{"name":"dilithiumPubKeyHash","type":"bytes32","indexed":false,"internalType":"bytes32"},{"name":"nonce","type":"uint256","indexed":false,"internalType":"uint256"}],"anonymous":false},{"type":"event","name":"Released","inputs":[{"name":"lockId","type":"bytes32","indexed":true,"internalType":"bytes32"},{"name":"recipient","type":"address","indexed":true,"internalType":"address"},{"name":"amount","type":"uint256","indexed":false,"internalType":"uint256"},{"name":"numSignaturesVerified","type":"uint256","indexed":false,"internalType":"uint256"}],"anonymous":false},{"type":"event","name":"VerifierUpdated","inputs":[{"name":"oldVerifier","type":"address","indexed":true,"internalType":"address"},{"name":"newVerifier","type":"address","indexed":true,"internalType":"address"},{"name":"verifierType","type":"string","indexed":false,"internalType":"string"}],"anonymous":false},{"type":"error","name":"CommitmentMismatch","inputs":[]},{"type":"error","name":"InsufficientAmount","inputs":[]},{"type":"error","name":"InvalidProof","inputs":[]},{"type":"error","name":"InvalidPublicInputs","inputs":[]},{"type":"error","name":"InvalidVerifier","inputs":[]},{"type":"error","name":"LockAlreadyReleased","inputs":[]},{"type":"error","name":"LockNotFound","inputs":[]},{"type":"error","name":"NonceAlreadyUsed","inputs":[]},{"type":"error","name":"NotOwner","inputs":[]},{"type":"error","name":"Paused","inputs":[]},{"type":"error","name":"TransferFailed","inputs":[]},{"type":"error","name":"ZeroAddress","inputs":[]}],"bytecode":{"object":"0x608060405234801561000f575f80fd5b5060405161103438038061103483398101604081905261002e91610082565b6001600160a01b0381166100555760405163d92e233d60e01b815260040160405180910390fd5b5f80546001600160a01b039092166001600160a01b031992831617905560018054909116331790556100af565b5f60208284031215610092575f80fd5b81516001600160a01b03811681146100a8575f80fd5b9392505050565b610f78806100bc5f395ff3fe6080604052600436106100f2575f3560e01c80636f17307911610087578063d6f27b5811610057578063d6f27b5814610288578063de780bbd14610311578063ed5e843714610326578063f2fde38b1461037b575f80fd5b80636f173079146102225780638456cb59146102365780638da5cb5b1461024a57806397fc007c14610269575f80fd5b806356891412116100c257806356891412146101905780635c975abb146101a55780635ca491a2146101d55780636717e41c146101f4575f80fd5b806301670ba9146100fd5780632b7ac3f3146101235780633521162b146101595780633f4ba83a1461017a575f80fd5b366100f957005b5f80fd5b61011061010b366004610c47565b61039a565b6040519081526020015b60405180910390f35b34801561012e575f80fd5b505f54610141906001600160a01b031681565b6040516001600160a01b03909116815260200161011a565b348015610164575f80fd5b5061016d61052c565b60405161011a9190610c80565b348015610185575f80fd5b5061018e61059e565b005b34801561019b575f80fd5b5061011060045481565b3480156101b0575f80fd5b506001546101c590600160a01b900460ff1681565b604051901515815260200161011a565b3480156101e0575f80fd5b5061018e6101ef366004610cb2565b610602565b3480156101ff575f80fd5b506101c561020e366004610c47565b60036020525f908152604090205460ff1681565b34801561022d575f80fd5b506101c56109e5565b348015610241575f80fd5b5061018e610a59565b348015610255575f80fd5b50600154610141906001600160a01b031681565b348015610274575f80fd5b5061018e610283366004610d6c565b610ac3565b348015610293575f80fd5b506102dd6102a2366004610c47565b5f908152600260208190526040909120805460018201549282015460038301546004909301546001600160a01b039092169490929160ff1690565b604080516001600160a01b03909616865260208601949094529284019190915260608301521515608082015260a00161011a565b34801561031c575f80fd5b5061011060055481565b348015610331575f80fd5b506102dd610340366004610c47565b600260208190525f9182526040909120805460018201549282015460038301546004909301546001600160a01b039092169392909160ff1685565b348015610386575f80fd5b5061018e610395366004610d6c565b610bd3565b6001545f90600160a01b900460ff16156103c7576040516313d0ff5960e31b815260040160405180910390fd5b345f036103e757604051632ca2f52b60e11b815260040160405180910390fd5b600580545f91826103f783610dad565b909155506040516bffffffffffffffffffffffff193360601b166020820152346034820152605481018590526074810182905242609482015290915060b40160408051808303601f19018152828252805160209182012060a0840183523384523482850181815285850189815242606088019081525f60808901818152868252600297889052978120985189546001600160a01b0319166001600160a01b03909116178955925160018901559051948701949094559251600386015592516004948501805460ff191691151591909117905583549095509192916104dc908490610dc5565b90915550506040805134815260208101859052908101829052339083907f90b4652709ecf95c465dbc53abc979fad77829d2ccc7fe10e6e0815f9b4f30389060600160405180910390a350919050565b5f805460408051633521162b60e01b815290516060936001600160a01b0390931692633521162b92600480820193918290030181865afa158015610572573d5f803e3d5ffd5b505050506040513d5f823e601f3d908101601f191682016040526105999190810190610df2565b905090565b6001546001600160a01b031633146105c9576040516330cd747160e01b815260040160405180910390fd5b6001805460ff60a01b1916905560405133907ff5cbf596165cc457b2cd92e8d8450827ee314968160a5696402d75766fc52caf905f90a2565b600154600160a01b900460ff161561062d576040516313d0ff5960e31b815260040160405180910390fd5b6008811461064e576040516319dcebfb60e21b815260040160405180910390fd5b5f8282600381811061066257610662610e9a565b9050602002013560808484600481811061067e5761067e610e9a565b6020908102929092013590921b929092175f818152600290935260409092208054929350916001600160a01b031690506106cb57604051636086ee6f60e11b815260040160405180910390fd5b600481015460ff16156106f157604051632c04416160e01b815260040160405180910390fd5b5f8484600781811061070557610705610e9a565b602090810292909201355f81815260039093526040909220549192505060ff161561074257604051623f613760e71b815260040160405180910390fd5b81600101548585600681811061075a5761075a610e9a565b905060200201351461077f576040516319dcebfb60e21b815260040160405180910390fd5b5f85855f81811061079257610792610e9a565b905060200201356080878760018181106107ae576107ae610e9a565b90506020020135901b175f1b9050826002015481146107e057604051635054097b60e01b815260040160405180910390fd5b5f54604051631e8e1e1360e01b81526001600160a01b0390911690631e8e1e1390610815908b908b908b908b90600401610eae565b602060405180830381865afa158015610830573d5f803e3d5ffd5b505050506040513d601f19601f820116820180604052508101906108549190610f10565b610871576040516309bde33960e01b815260040160405180910390fd5b60048381018054600160ff1991821681179092555f85815260036020526040812080549092168317909155908501548254909291906108b1908490610f2f565b909155505f9050868660058181106108cb576108cb610e9a565b60200291909101359150506001600160a01b0381166108fd5760405163d92e233d60e01b815260040160405180910390fd5b60018401546040515f916001600160a01b038416918381818185875af1925050503d805f8114610948576040519150601f19603f3d011682016040523d82523d5f602084013e61094d565b606091505b505090508061096f576040516312171d8360e31b815260040160405180910390fd5b816001600160a01b0316867fbaa21fb6000fbb6d014fac9cd1b0726799e6f352a967157a59f4b2da8ef3221187600101548b8b60028181106109b3576109b3610e9a565b905060200201356040516109d1929190918252602082015260400190565b60405180910390a350505050505050505050565b5f805f9054906101000a90046001600160a01b03166001600160a01b0316636f1730796040518163ffffffff1660e01b8152600401602060405180830381865afa158015610a35573d5f803e3d5ffd5b505050506040513d601f19601f820116820180604052508101906105999190610f10565b6001546001600160a01b03163314610a84576040516330cd747160e01b815260040160405180910390fd5b6001805460ff60a01b1916600160a01b17905560405133907fb8fad2fa0ed7a383e747c309ef2c4391d7b65592a48893e57ccc1fab70791456905f90a2565b6001546001600160a01b03163314610aee576040516330cd747160e01b815260040160405180910390fd5b6001600160a01b038116610b155760405163d92e233d60e01b815260040160405180910390fd5b5f80546001600160a01b038381166001600160a01b031983168117845560408051633521162b60e01b815290519290931693909284927f64943283afbc12c04b0642341aa837bfcd2db1f1dd1c8ff81f0893cfb7345b53928592633521162b92600480830193928290030181865afa158015610b93573d5f803e3d5ffd5b505050506040513d5f823e601f3d908101601f19168201604052610bba9190810190610df2565b604051610bc79190610c80565b60405180910390a35050565b6001546001600160a01b03163314610bfe576040516330cd747160e01b815260040160405180910390fd5b6001600160a01b038116610c255760405163d92e233d60e01b815260040160405180910390fd5b600180546001600160a01b0319166001600160a01b0392909216919091179055565b5f60208284031215610c57575f80fd5b5035919050565b5f5b83811015610c78578181015183820152602001610c60565b50505f910152565b602081525f8251806020840152610c9e816040850160208701610c5e565b601f01601f19169190910160400192915050565b5f805f8060408587031215610cc5575f80fd5b843567ffffffffffffffff80821115610cdc575f80fd5b818701915087601f830112610cef575f80fd5b813581811115610cfd575f80fd5b886020828501011115610d0e575f80fd5b602092830196509450908601359080821115610d28575f80fd5b818701915087601f830112610d3b575f80fd5b813581811115610d49575f80fd5b8860208260051b8501011115610d5d575f80fd5b95989497505060200194505050565b5f60208284031215610d7c575f80fd5b81356001600160a01b0381168114610d92575f80fd5b9392505050565b634e487b7160e01b5f52601160045260245ffd5b5f60018201610dbe57610dbe610d99565b5060010190565b80820180821115610dd857610dd8610d99565b92915050565b634e487b7160e01b5f52604160045260245ffd5b5f60208284031215610e02575f80fd5b815167ffffffffffffffff80821115610e19575f80fd5b818401915084601f830112610e2c575f80fd5b815181811115610e3e57610e3e610dde565b604051601f8201601f19908116603f01168101908382118183101715610e6657610e66610dde565b81604052828152876020848701011115610e7e575f80fd5b610e8f836020830160208801610c5e565b979650505050505050565b634e487b7160e01b5f52603260045260245ffd5b60408152836040820152838560608301375f60608583018101829052601f19601f8701168301838103820160208501529081018490526001600160fb1b03841115610ef7575f80fd5b8360051b80866080840137016080019695505050505050565b5f60208284031215610f20575f80fd5b81518015158114610d92575f80fd5b81810381811115610dd857610dd8610d9956fea2646970667358221220f02ae1acd0ec40376dac37cf0d7e0ac1ac4b67e42116fe59bf439508b092868b64736f6c63430008140033","linkReferences":{}},"methodIdentifiers":{"getLock(bytes32)":"d6f27b58","getVerifierType()":"3521162b","isQuantumResistant()":"6f173079","lock(bytes32)":"01670ba9","locks(bytes32)":"ed5e8437","nonceCounter()":"de780bbd","owner()":"8da5cb5b","pause()":"8456cb59","paused()":"5c975abb","release(bytes,uint256[])":"5ca491a2","totalLocked()":"56891412","transferOwnership(address)":"f2fde38b","unpause()":"3f4ba83a","updateVerifier(address)":"97fc007c","usedNonces(uint256)":"6717e41c","verifier()":"2b7ac3f3"},"id":0}