{"abi":[{"type":"constructor","inputs":[{"name":"_vrfCoordinator","type":"address","internalType":"address"},{"name":"_l1Vault","type":"address","internalType":"address"},{"name":"_keyHash","type":"bytes32","internalType":"bytes32"},{"name":"_subscriptionId","type":"uint256","internalType":"uint256"}],"stateMutability":"nonpayable"},{"type":"function","name":"DEFAULT_CALLBACK_GAS_LIMIT","inputs":[],"outputs":[{"name":"","type":"uint32","internalType":"uint32"}],"stateMutability":"view"},{"type":"function","name":"DEFAULT_REQUEST_CONFIRMATIONS","inputs":[],"outputs":[{"name":"","type":"uint16","internalType":"uint16"}],"stateMutability":"view"},{"type":"function","name":"NUM_WORDS","inputs":[],"outputs":[{"name":"","type":"uint32","internalType":"uint32"}],"stateMutability":"view"},{"type":"function","name":"VRF_TIMEOUT","inputs":[],"outputs":[{"name":"","type":"uint256","internalType":"uint256"}],"stateMutability":"view"},{"type":"function","name":"acceptOwnership","inputs":[],"outputs":[],"stateMutability":"nonpayable"},{"type":"function","name":"addProver","inputs":[{"name":"prover","type":"address","internalType":"address"},{"name":"stake","type":"uint256","internalType":"uint256"}],"outputs":[],"stateMutability":"nonpayable"},{"type":"function","name":"checkTimeout","inputs":[{"name":"unlockRequestId","type":"bytes32","internalType":"bytes32"}],"outputs":[{"name":"isTimedOut","type":"bool","internalType":"bool"},{"name":"timeRemaining","type":"uint256","internalType":"uint256"}],"stateMutability":"view"},{"type":"function","name":"getActiveProverCount","inputs":[],"outputs":[{"name":"count","type":"uint256","internalType":"uint256"}],"stateMutability":"view"},{"type":"function","name":"getAllProvers","inputs":[],"outputs":[{"name":"","type":"tuple[]","internalType":"struct ProverSelector.ProverInfo[]","components":[{"name":"prover","type":"address","internalType":"address"},{"name":"stake","type":"uint256","internalType":"uint256"},{"name":"active","type":"bool","internalType":"bool"}]}],"stateMutability":"view"},{"type":"function","name":"getProverByIndex","inputs":[{"name":"index","type":"uint256","internalType":"uint256"}],"outputs":[{"name":"","type":"tuple","internalType":"struct ProverSelector.ProverInfo","components":[{"name":"prover","type":"address","internalType":"address"},{"name":"stake","type":"uint256","internalType":"uint256"},{"name":"active","type":"bool","internalType":"bool"}]}],"stateMutability":"view"},{"type":"function","name":"getProverPoolLength","inputs":[],"outputs":[{"name":"","type":"uint256","internalType":"uint256"}],"stateMutability":"view"},{"type":"function","name":"getSelectedProver","inputs":[{"name":"unlockRequestId","type":"bytes32","internalType":"bytes32"}],"outputs":[{"name":"prover","type":"address","internalType":"address"},{"name":"randomValue","type":"uint256","internalType":"uint256"}],"stateMutability":"view"},{"type":"function","name":"getVRFConfig","inputs":[],"outputs":[{"name":"","type":"tuple","internalType":"struct VRFConsumerV2Production.VRFConfig","components":[{"name":"keyHash","type":"bytes32","internalType":"bytes32"},{"name":"subscriptionId","type":"uint256","internalType":"uint256"},{"name":"callbackGasLimit","type":"uint32","internalType":"uint32"},{"name":"requestConfirmations","type":"uint16","internalType":"uint16"},{"name":"useNativePayment","type":"bool","internalType":"bool"}]}],"stateMutability":"view"},{"type":"function","name":"getVRFCoordinator","inputs":[],"outputs":[{"name":"","type":"address","internalType":"address"}],"stateMutability":"view"},{"type":"function","name":"getVRFRequest","inputs":[{"name":"requestId","type":"uint256","internalType":"uint256"}],"outputs":[{"name":"","type":"tuple","internalType":"struct VRFConsumerV2Production.VRFRequest","components":[{"name":"unlockRequestId","type":"bytes32","internalType":"bytes32"},{"name":"requestedAt","type":"uint256","internalType":"uint256"},{"name":"randomValue","type":"uint256","internalType":"uint256"},{"name":"selectedProver","type":"address","internalType":"address"},{"name":"fulfilled","type":"bool","internalType":"bool"}]}],"stateMutability":"view"},{"type":"function","name":"isProverSelected","inputs":[{"name":"unlockRequestId","type":"bytes32","internalType":"bytes32"}],"outputs":[{"name":"ready","type":"bool","internalType":"bool"}],"stateMutability":"view"},{"type":"function","name":"l1Vault","inputs":[],"outputs":[{"name":"","type":"address","internalType":"address"}],"stateMutability":"view"},{"type":"function","name":"owner","inputs":[],"outputs":[{"name":"","type":"address","internalType":"address"}],"stateMutability":"view"},{"type":"function","name":"pendingOwner","inputs":[],"outputs":[{"name":"","type":"address","internalType":"address"}],"stateMutability":"view"},{"type":"function","name":"proverPool","inputs":[{"name":"","type":"uint256","internalType":"uint256"}],"outputs":[{"name":"prover","type":"address","internalType":"address"},{"name":"stake","type":"uint256","internalType":"uint256"},{"name":"active","type":"bool","internalType":"bool"}],"stateMutability":"view"},{"type":"function","name":"rawFulfillRandomWords","inputs":[{"name":"requestId","type":"uint256","internalType":"uint256"},{"name":"randomWords","type":"uint256[]","internalType":"uint256[]"}],"outputs":[],"stateMutability":"nonpayable"},{"type":"function","name":"reactivateProver","inputs":[{"name":"prover","type":"address","internalType":"address"}],"outputs":[],"stateMutability":"nonpayable"},{"type":"function","name":"removeProver","inputs":[{"name":"prover","type":"address","internalType":"address"}],"outputs":[],"stateMutability":"nonpayable"},{"type":"function","name":"requestProverSelection","inputs":[{"name":"unlockRequestId","type":"bytes32","internalType":"bytes32"}],"outputs":[{"name":"requestId","type":"uint256","internalType":"uint256"}],"stateMutability":"nonpayable"},{"type":"function","name":"s_vrfCoordinator","inputs":[],"outputs":[{"name":"","type":"address","internalType":"contract IVRFCoordinatorV2_5"}],"stateMutability":"view"},{"type":"function","name":"setL1Vault","inputs":[{"name":"newL1Vault","type":"address","internalType":"address"}],"outputs":[],"stateMutability":"nonpayable"},{"type":"function","name":"setVRFConfig","inputs":[{"name":"_keyHash","type":"bytes32","internalType":"bytes32"},{"name":"_subscriptionId","type":"uint256","internalType":"uint256"},{"name":"_callbackGasLimit","type":"uint32","internalType":"uint32"},{"name":"_requestConfirmations","type":"uint16","internalType":"uint16"},{"name":"_useNativePayment","type":"bool","internalType":"bool"}],"outputs":[],"stateMutability":"nonpayable"},{"type":"function","name":"setVRFCoordinator","inputs":[{"name":"newCoordinator","type":"address","internalType":"address"}],"outputs":[],"stateMutability":"nonpayable"},{"type":"function","name":"transferOwnership","inputs":[{"name":"newOwner","type":"address","internalType":"address"}],"outputs":[],"stateMutability":"nonpayable"},{"type":"function","name":"triggerFallback","inputs":[{"name":"unlockRequestId","type":"bytes32","internalType":"bytes32"}],"outputs":[{"name":"prover","type":"address","internalType":"address"}],"stateMutability":"nonpayable"},{"type":"function","name":"unlockToVRFRequest","inputs":[{"name":"","type":"bytes32","internalType":"bytes32"}],"outputs":[{"name":"","type":"uint256","internalType":"uint256"}],"stateMutability":"view"},{"type":"function","name":"updateProverStake","inputs":[{"name":"prover","type":"address","internalType":"address"},{"name":"newStake","type":"uint256","internalType":"uint256"}],"outputs":[],"stateMutability":"nonpayable"},{"type":"function","name":"vrfConfig","inputs":[],"outputs":[{"name":"keyHash","type":"bytes32","internalType":"bytes32"},{"name":"subscriptionId","type":"uint256","internalType":"uint256"},{"name":"callbackGasLimit","type":"uint32","internalType":"uint32"},{"name":"requestConfirmations","type":"uint16","internalType":"uint16"},{"name":"useNativePayment","type":"bool","internalType":"bool"}],"stateMutability":"view"},{"type":"function","name":"vrfRequests","inputs":[{"name":"","type":"uint256","internalType":"uint256"}],"outputs":[{"name":"unlockRequestId","type":"bytes32","internalType":"bytes32"},{"name":"requestedAt","type":"uint256","internalType":"uint256"},{"name":"randomValue","type":"uint256","internalType":"uint256"},{"name":"selectedProver","type":"address","internalType":"address"},{"name":"fulfilled","type":"bool","internalType":"bool"}],"stateMutability":"view"},{"type":"event","name":"FallbackProverSelected","inputs":[{"name":"unlockRequestId","type":"bytes32","indexed":true,"internalType":"bytes32"},{"name":"prover","type":"address","indexed":true,"internalType":"address"}],"anonymous":false},{"type":"event","name":"L1VaultUpdated","inputs":[{"name":"oldVault","type":"address","indexed":true,"internalType":"address"},{"name":"newVault","type":"address","indexed":true,"internalType":"address"}],"anonymous":false},{"type":"event","name":"OwnershipTransferStarted","inputs":[{"name":"previousOwner","type":"address","indexed":true,"internalType":"address"},{"name":"newOwner","type":"address","indexed":true,"internalType":"address"}],"anonymous":false},{"type":"event","name":"OwnershipTransferred","inputs":[{"name":"previousOwner","type":"address","indexed":true,"internalType":"address"},{"name":"newOwner","type":"address","indexed":true,"internalType":"address"}],"anonymous":false},{"type":"event","name":"ProverAdded","inputs":[{"name":"prover","type":"address","indexed":true,"internalType":"address"},{"name":"stake","type":"uint256","indexed":false,"internalType":"uint256"}],"anonymous":false},{"type":"event","name":"ProverRemoved","inputs":[{"name":"prover","type":"address","indexed":true,"internalType":"address"}],"anonymous":false},{"type":"event","name":"ProverSelected","inputs":[{"name":"unlockRequestId","type":"bytes32","indexed":true,"internalType":"bytes32"},{"name":"prover","type":"address","indexed":true,"internalType":"address"},{"name":"randomValue","type":"uint256","indexed":false,"internalType":"uint256"}],"anonymous":false},{"type":"event","name":"ProverStakeUpdated","inputs":[{"name":"prover","type":"address","indexed":true,"internalType":"address"},{"name":"oldStake","type":"uint256","indexed":false,"internalType":"uint256"},{"name":"newStake","type":"uint256","indexed":false,"internalType":"uint256"}],"anonymous":false},{"type":"event","name":"VRFConfigUpdated","inputs":[{"name":"keyHash","type":"bytes32","indexed":false,"internalType":"bytes32"},{"name":"subscriptionId","type":"uint256","indexed":false,"internalType":"uint256"},{"name":"callbackGasLimit","type":"uint32","indexed":false,"internalType":"uint32"},{"name":"requestConfirmations","type":"uint16","indexed":false,"internalType":"uint16"},{"name":"useNativePayment","type":"bool","indexed":false,"internalType":"bool"}],"anonymous":false},{"type":"event","name":"VRFCoordinatorUpdated","inputs":[{"name":"oldCoordinator","type":"address","indexed":true,"internalType":"address"},{"name":"newCoordinator","type":"address","indexed":true,"internalType":"address"}],"anonymous":false},{"type":"event","name":"VRFReceived","inputs":[{"name":"requestId","type":"uint256","indexed":true,"internalType":"uint256"},{"name":"randomValue","type":"uint256","indexed":false,"internalType":"uint256"}],"anonymous":false},{"type":"event","name":"VRFRequested","inputs":[{"name":"requestId","type":"uint256","indexed":true,"internalType":"uint256"},{"name":"unlockRequestId","type":"bytes32","indexed":true,"internalType":"bytes32"}],"anonymous":false},{"type":"error","name":"InvalidCallback","inputs":[]},{"type":"error","name":"InvalidKeyHash","inputs":[]},{"type":"error","name":"InvalidRandomValue","inputs":[]},{"type":"error","name":"InvalidSubscriptionId","inputs":[]},{"type":"error","name":"NoActiveProvers","inputs":[]},{"type":"error","name":"NotL1Vault","inputs":[]},{"type":"error","name":"NotOwner","inputs":[]},{"type":"error","name":"NotPendingOwner","inputs":[]},{"type":"error","name":"OnlyCoordinatorCanFulfill","inputs":[{"name":"have","type":"address","internalType":"address"},{"name":"want","type":"address","internalType":"address"}]},{"type":"error","name":"OnlyOwner","inputs":[]},{"type":"error","name":"ProverAlreadyExists","inputs":[]},{"type":"error","name":"ProverNotFound","inputs":[]},{"type":"error","name":"RequestAlreadyFulfilled","inputs":[]},{"type":"error","name":"RequestNotFound","inputs":[]},{"type":"error","name":"TimeoutNotReached","inputs":[]},{"type":"error","name":"UnauthorizedCallback","inputs":[]},{"type":"error","name":"VRFNotReady","inputs":[]},{"type":"error","name":"VRFRequestFailed","inputs":[]},{"type":"error","name":"VRFTimeout","inputs":[]},{"type":"error","name":"ZeroAddress","inputs":[]},{"type":"error","name":"ZeroCoordinatorAddress","inputs":[]}],"bytecode":{"object":"0x6080346200019c57601f62001c2b38819003918201601f19168301916001600160401b039182841185851017620001a15781608092869260409687528339810103126200019c576200005183620001b7565b926200006060208201620001b7565b916060848301519201519260018060a01b038096169586156200018b57600080546001600160a01b031990811690981781559691169081156200017a57831562000169578415620001585733816001541617600155600354161760035583519060a08201908282109082111762000144578591608091865283815284602082015262030d4086820152600360608201520152600455600555640300030d4066ffffffffffffff196006541617600655519033907f8be0079c531659141344cd1fd0a4f28419497f9722a3daafe3b4186f6b6457e08180a3611a5e9081620001cd8239f35b634e487b7160e01b86526041600452602486fd5b8551630ebd8d1960e11b8152600490fd5b85516381255f6d60e01b8152600490fd5b855163d92e233d60e01b8152600490fd5b85516395d9ce4760e01b8152600490fd5b600080fd5b634e487b7160e01b600052604160045260246000fd5b51906001600160a01b03821682036200019c5756fe60806040908082526004918236101561001757600080fd5b600091823560e01c908163012df817146111c5575080631a1d9252146111655780631fe543e314610ff85780634393b0e514610fcb57806344ff81ce14610f3b57806348ceaa5914610eba578063492723b414610e5957806354fa453c14610dd157806372cf6e3414610db657806372d369a714610b3b57806379ba509714610abc578063811cbeb714610a9e57806381fa4db114610a76578063866ce88514610a3c5780638da5cb5b14610a14578063967de556146108af57806396d4e8ce146108945780639a5ea6a0146108065780639eccacf6146107df578063a378f371146107df578063a65661ef146107b7578063aa8544811461075d578063b571d3dd14610713578063c10672f0146106de578063c1e582ba14610646578063d228ad25146105ee578063d72d1d791461057f578063da41ed9b14610562578063e30c39781461053a578063f12084cd146103df578063f2fde38b14610348578063f491c80c1461031c578063f4d1c5f6146103005763f9d4e00d1461019b57600080fd5b346102fc5760a03660031901126102fc578235602435916044359063ffffffff8216918281036102f8576064359161ffff83168084036102f45760843594851515918287036102f0576001546001600160a01b031633036102e05787156102d05788156102c05790877ff08ab04d90912797464c952290f23fdfc83a5e8e4ca211d23c882949acd60da49a9b8460808c8897966102ba9c9b9a9951916102408361127a565b8683526020830152868983015260608201520152558860055566ff0000000000006006549260301b169166ffffffffffffff19161765ffff000000008560201b16171760065551958695869363ffffffff60809461ffff9398979460a0880199885260208801521660408601521660608401521515910152565b0390a180f35b8351630ebd8d1960e11b81528b90fd5b83516381255f6d60e01b81528b90fd5b83516330cd747160e01b81528b90fd5b8980fd5b8780fd5b8580fd5b5080fd5b50346102fc57816003193601126102fc576020905161012c8152f35b509034610345576020366003190112610345575061033c60209235611345565b90519015158152f35b80fd5b5082346103db5760203660031901126103db5761036361120e565b6001546001600160a01b039081169291338490036103cb57169283156103be575050600280546001600160a01b031916831790557f38d16b8cac22d99fc7c124b9cd0de2d3fa1faef420bfe791d8c362d765e227008380a380f35b5163d92e233d60e01b8152fd5b84516330cd747160e01b81528390fd5b8280fd5b50346102fc5760203660031901126102fc578235808352600860205281832054801561052a578352600760205281832090600382019283549260ff8460a01c1661051a57600181015461012c81018091116105075742106104f7578151602081019044825242848201528460608201524360808201523360601b60a08201526094815260c0810181811067ffffffffffffffff8211176104e4578452519020602097507f20ec7cf7912c9b857ee48087b73897b95592335fd89fc4f4c5372f1719eed6d092919060026104b1826116b7565b9201556001600160a81b03199094166001600160a01b03909416938417600160a01b179094559251939192839280a38152f35b634e487b7160e01b895260418a52602489fd5b81516326c015ab60e21b81528790fd5b634e487b7160e01b875260118852602487fd5b815163533d99dd60e01b81528790fd5b8251632589d98f60e11b81528590fd5b50346102fc57816003193601126102fc5760025490516001600160a01b039091168152602090f35b50346102fc57816003193601126102fc576020905162030d408152f35b5082346103db5760203660031901126103db576105c26105bc6105ec926060958580516105ab816112ac565b828152826020820152015235611229565b50611552565b915182516001600160a01b0316815260208084015190820152604092830151151592810192909252565bf35b5082346103db5760203660031901126103db5735916009548310156103455750610619606092611229565b509060018060a01b038254169160ff60026001830154920154169082519384526020840152151590820152f35b5082346103db5760203660031901126103db5760a092829161066661160c565b50358152600760205220815161067b8161127a565b815492838252600183015490602083019182526003600285015494828501958652015493606084019260ff60806001808b1b039687891687520196891c161515865282519687525160208701525190850152511660608301525115156080820152f35b5091903461034557602036600319011261034557506106fd9035611306565b82516001600160a01b0390921682526020820152f35b5082346103db5760203660031901126103db5761072e61120e565b6001549092906001600160a01b03163303610750578361074d846113ab565b80f35b516330cd747160e01b8152fd5b509190346103455780600319360112610345575054600554600654925191825260208083019190915263ffffffff8316604083015282901c61ffff16606082015260309190911c60ff16151560808201528060a081010390f35b50346102fc57816003193601126102fc5760035490516001600160a01b039091168152602090f35b50346102fc57816003193601126102fc57905490516001600160a01b039091168152602090f35b508290346103db57826003193601126103db5760a0925061082561160c565b508051916108328361127a565b5491828152600554602082019081526006549280830163ffffffff908186168152606085019360ff608061ffff97888a60201c168852019760301c16151587528351978852516020880152511690850152511660608301525115156080820152f35b50346102fc57816003193601126102fc576020905160038152f35b508290346103db57806003193601126103db576108ca61120e565b60015460243592916001600160a01b039182163303610a045781169384156109f65760095491865b8381106109c55750835190610906826112ac565b86825260208201918683528581019460018652680100000000000000008110156109b25780600161093a9201600955611229565b9490946109a05750927f25343d56d3f85e154bd7f16fac360991caeb9a82123cf0ff11f6b8a731d46d109694926002926020979551166001600160601b0360a01b835416178255516001820155019051151560ff8019835416911617905551908152a280f35b634e487b7160e01b8a52899052602489fd5b634e487b7160e01b8a526041855260248afd5b86826109d083611229565b505416146109e6576109e19061139c565b6108f2565b84516312db1b9960e01b81528390fd5b825163d92e233d60e01b8152fd5b82516330cd747160e01b81528590fd5b50346102fc57816003193601126102fc5760015490516001600160a01b039091168152602090f35b5082346103db5760203660031901126103db57610a5761120e565b6001549092906001600160a01b03163303610750578361074d846114c3565b5082346103db5760203660031901126103db5760209282913581526008845220549051908152f35b50346102fc57816003193601126102fc576020906009549051908152f35b5082346103db57826003193601126103db57600254916001600160a01b03918284169133839003610b2e575050600154926001600160601b0360a01b9182851617600155166002553391167f8be0079c531659141344cd1fd0a4f28419497f9722a3daafe3b4186f6b6457e08380a380f35b51630614e5c760e21b8152fd5b5091903461034557602091826003193601126102fc576003548135916001600160a01b039182163303610da85760065460ff8160301c16600014610ccb5750848154916005549260065493878a5192600160f81b8685015260018452610ba0846112c8565b610bd188835416948d51988997889687956309ff308b60e41b875261ffff63ffffffff8516948d1c16928701611739565b03925af1908115610cc1578491610c90575b50849584957ff7617d06180c24c92bad8c8436c3ae97409a09e1f5655da6c0807f50c5f96748929586945b60038451610c1b8161127a565b88815284810142815286820190858252600760608401978789528b6080860198808a525252878d20925183555160018301555160028201550192511682549160ff60a01b9051151560a01b16916affffffffffffffffffffff60a81b1617179055838652600887528281872055519480a38152f35b90508481813d8311610cba575b610ca781836112e4565b81010312610cb6575183610be3565b8380fd5b503d610c9d565b86513d86823e3d90fd5b90805460055488519188830183811067ffffffffffffffff821117610d9557899493929189918c52818452610d2788835416948d51988997889687956309ff308b60e41b875261ffff63ffffffff8516948d1c16928701611739565b03925af1908115610cc1578491610d68575b50849584957ff7617d06180c24c92bad8c8436c3ae97409a09e1f5655da6c0807f50c5f9674892958694610c0e565b90508481813d8311610d8e575b610d7f81836112e4565b81010312610cb6575183610d39565b503d610d75565b634e487b7160e01b895260418552602489fd5b8551632c2e97a760e21b8152fd5b50346102fc57816003193601126102fc576020905160018152f35b5082346103db5760203660031901126103db57610dec61120e565b6001546001600160a01b0392919083163303610e4a5782169283156103be575050600354826001600160601b0360a01b821617600355167fa0b0e8a015b8fe2e644e3cefb3e301a268bad6a0004222a2c372980616bc07178380a380f35b5082516330cd747160e01b8152fd5b509034610345578060031936011261034557600954815b818110610e81576020838551908152f35b60ff6002610e8e83611229565b50015416610ea5575b610ea09061139c565b610e70565b91610eb2610ea09161139c565b929050610e97565b50903461034557806003193601126103455790610ed5611588565b81519160208080850192818652845180945285019301945b828110610efa5784840385f35b90919282606082610f2c6001948a516040809160018060a01b0381511684526020810151602085015201511515910152565b01960191019492919094610eed565b5082346103db5760203660031901126103db57610f5661120e565b6001546001600160a01b03929083163303610fbd578285549216938415610fb05750506001600160a01b0319811683178455167fa39ac31d357ac416d26de51be5042ad45607ffde6b753f7ed4cd8eb0f21f47578380a380f35b516395d9ce4760e01b8152fd5b83516330cd747160e01b8152fd5b509190346103455760203660031901126103455750610fea9035611637565b825191151582526020820152f35b508290346103db57806003193601126103db5767ffffffffffffffff916024359181358484116102f857366023850112156102f857838301359485116102f8573660248660051b860101116102f85785546001600160a01b0393908416338190036111485750818752600760205282872093845495861561113857600386019283549860ff8a60a01c1661112957156111165750917fd91da7087a9300778759c4df53dd712b6e8aa73d0a38b6b8a61b86b96d3d96679593916024602096940135948560026110c6826116b7565b920155169788600160a01b916affffffffffffffffffffff60a81b16171790557f936fe18cf1ae151e1bc53947d9b72671fb007ae8fb2ec8ad96d98a23c8d51dc1848351858152a251908152a380f35b634e487b7160e01b8a5260329052602489fd5b50855163533d99dd60e01b8152fd5b8451632589d98f60e11b81528390fd5b6044925083519163073e64fd60e21b835233908301526024820152fd5b5082346103db5760203660031901126103db573582526007602090815291819020805460018201546002830154600390930154845192835294820152918201526001600160a01b038216606082015260a091821c60ff1615156080820152f35b9184915034610cb6573660031901126103db576111e061120e565b6001549092906001600160a01b03163303611202578361074d60243585611437565b6330cd747160e01b8152fd5b600435906001600160a01b038216820361122457565b600080fd5b600954811015611264576003906009600052027f6e1540171b6c0c960b71a7020d9f60077f6af931a8bbf590da0223dacf75c7af0190600090565b634e487b7160e01b600052603260045260246000fd5b60a0810190811067ffffffffffffffff82111761129657604052565b634e487b7160e01b600052604160045260246000fd5b6060810190811067ffffffffffffffff82111761129657604052565b6040810190811067ffffffffffffffff82111761129657604052565b90601f8019910116810190811067ffffffffffffffff82111761129657604052565b600090815260086020526040812054801561133f57815260076020526040902060038101546002909101546001600160a01b0390911691565b50908190565b6000526008602052604060002054801561137357600052600760205260ff60036040600020015460a01c1690565b50600090565b9190820180921161138657565b634e487b7160e01b600052601160045260246000fd5b60001981146113865760010190565b600090815b600954811015611425576113c381611229565b50546001600160a01b03838116911681146113e757506113e29061139c565b6113b0565b92907fd64d11086d859b73cf85a91ca06cbc484398acabe3d9a1b26d4366dff377d9859250611417600291611229565b5001805460ff1916905580a2565b60405163070b036f60e11b8152600490fd5b60005b6009548110156114255761144d81611229565b50546001600160a01b0383811691168114611471575061146c9061139c565b61143a565b92907fa5768c844fc1f987b432bae4accb5f42324d6a3ee52d2c9e6d38a1892f0a5b449250816114a082611229565b506114b060018092015493611229565b50015560409182519182526020820152a2565b60005b600954811015611425576114d981611229565b50546001600160a01b03838116911681146114fd57506114f89061139c565b6114c6565b915060208161154660026115317f25343d56d3f85e154bd7f16fac360991caeb9a82123cf0ff11f6b8a731d46d1095611229565b5001916001928360ff19825416179055611229565b500154604051908152a2565b9060405161155f816112ac565b82546001600160a01b031681526001830154602082015260029092015460ff1615156040830152565b6009549067ffffffffffffffff8211611296576040519160206115b0818360051b01856112e4565b8184528084019060096000527f6e1540171b6c0c960b71a7020d9f60077f6af931a8bbf590da0223dacf75c7af6000925b8484106115ef575050505050565b6003836001926115fe85611552565b8152019201930192906115e1565b604051906116198261127a565b60006080838281528260208201528260408201528260608201520152565b9060009182526008602052604082205480156116b25782526007602052600160408320015461012c8082019182811161169e5742831161167a5750505060019190565b429003019290831161168a579190565b634e487b7160e01b81526011600452602490fd5b634e487b7160e01b85526011600452602485fd5b508190565b60095480156116f857600090815b81811061170a575b5050156116f8576116e5906116e0611588565b6117e1565b506001600160a01b038116156116f85790565b604051637a8d088b60e01b8152600490fd5b60ff600261171783611229565b5001541661172d576117289061139c565b6116c5565b505050600138806116cd565b939063ffffffff9296959361ffff918652602097888701521660408501521660608301526001608083015260c060a08301528051908160c084015260005b82811061179957505060e09293506000838284010152601f8019910116010190565b81810186015184820160e001528501611777565b81156117b7570690565b634e487b7160e01b600052601260045260246000fd5b80518210156112645760209160051b010190565b9190918215611a085760008093845b835181101561187257604061180582866117cd565b510151151580611852575b611823575b61181e9061139c565b6117f0565b949161184a61184461181e92602061183b8a896117cd565b51015190611379565b9361139c565b959050611815565b50670de0b6b3a7640000602061186883876117cd565b5101511015611810565b5093156116f85761188281611a1a565b9361188d82826117ad565b948082101590816119fe575b506119d1575b5050600092835b82518510156119385760406118bb86856117cd565b510151158015611919575b61190f576118da90602061183b87866117cd565b938482106118f1576118eb9061139c565b936118a6565b93506001600160a01b0391611908915084906117cd565b5151169190565b936118eb9061139c565b50670de0b6b3a7640000602061192f87866117cd565b510151106118c6565b50509091508051805b61195757604051637a8d088b60e01b8152600490fd5b60001981018181118061138657604061197083866117cd565b5101511515806119ae575b6119915750508015611386576000190180611941565b9093929150611386576001600160a01b03906119089084906117cd565b50506000670de0b6b3a764000060206119c784876117cd565b510151101561197b565b6119f692945060405160208101918252602081526119ee816112c8565b5190206117ad565b91388061189f565b9050151538611899565b60405163602938e560e11b8152600490fd5b80156113735760001906199056fea26469706673582212201bbe877d5565b6fee5e218b6e6e07b9a1b38e81683eebe3fc0062e016790ee4164736f6c63430008140033","linkReferences":{}},"methodIdentifiers":{"DEFAULT_CALLBACK_GAS_LIMIT()":"da41ed9b","DEFAULT_REQUEST_CONFIRMATIONS()":"96d4e8ce","NUM_WORDS()":"72cf6e34","VRF_TIMEOUT()":"f4d1c5f6","acceptOwnership()":"79ba5097","addProver(address,uint256)":"967de556","checkTimeout(bytes32)":"4393b0e5","getActiveProverCount()":"492723b4","getAllProvers()":"48ceaa59","getProverByIndex(uint256)":"d72d1d79","getProverPoolLength()":"811cbeb7","getSelectedProver(bytes32)":"c10672f0","getVRFConfig()":"9a5ea6a0","getVRFCoordinator()":"a378f371","getVRFRequest(uint256)":"c1e582ba","isProverSelected(bytes32)":"f491c80c","l1Vault()":"a65661ef","owner()":"8da5cb5b","pendingOwner()":"e30c3978","proverPool(uint256)":"d228ad25","rawFulfillRandomWords(uint256,uint256[])":"1fe543e3","reactivateProver(address)":"866ce885","removeProver(address)":"b571d3dd","requestProverSelection(bytes32)":"72d369a7","s_vrfCoordinator()":"9eccacf6","setL1Vault(address)":"54fa453c","setVRFConfig(bytes32,uint256,uint32,uint16,bool)":"f9d4e00d","setVRFCoordinator(address)":"44ff81ce","transferOwnership(address)":"f2fde38b","triggerFallback(bytes32)":"f12084cd","unlockToVRFRequest(bytes32)":"81fa4db1","updateProverStake(address,uint256)":"012df817","vrfConfig()":"aa854481","vrfRequests(uint256)":"1a1d9252"},"id":30}