{"abi":[{"type":"constructor","inputs":[{"name":"_securityCouncil","type":"address","internalType":"address"},{"name":"_testnetMode","type":"bool","internalType":"bool"}],"stateMutability":"nonpayable"},{"type":"receive","stateMutability":"payable"},{"type":"function","name":"MIN_STAKE_MAINNET","inputs":[],"outputs":[{"name":"","type":"uint256","internalType":"uint256"}],"stateMutability":"view"},{"type":"function","name":"SPHINCS_PUBKEY_LENGTH","inputs":[],"outputs":[{"name":"","type":"uint256","internalType":"uint256"}],"stateMutability":"view"},{"type":"function","name":"UNBONDING_PERIOD","inputs":[],"outputs":[{"name":"","type":"uint256","internalType":"uint256"}],"stateMutability":"view"},{"type":"function","name":"activeProverList","inputs":[{"name":"","type":"uint256","internalType":"uint256"}],"outputs":[{"name":"","type":"address","internalType":"address"}],"stateMutability":"view"},{"type":"function","name":"addAuthorizedSlasher","inputs":[{"name":"slasher","type":"address","internalType":"address"}],"outputs":[],"stateMutability":"nonpayable"},{"type":"function","name":"authorizedSlashers","inputs":[{"name":"","type":"address","internalType":"address"}],"outputs":[{"name":"","type":"bool","internalType":"bool"}],"stateMutability":"view"},{"type":"function","name":"completeExit","inputs":[],"outputs":[],"stateMutability":"nonpayable"},{"type":"function","name":"getActiveProverCount","inputs":[],"outputs":[{"name":"count","type":"uint256","internalType":"uint256"}],"stateMutability":"view"},{"type":"function","name":"getActiveProvers","inputs":[],"outputs":[{"name":"provers","type":"address[]","internalType":"address[]"}],"stateMutability":"view"},{"type":"function","name":"getMinStake","inputs":[],"outputs":[{"name":"minStake","type":"uint256","internalType":"uint256"}],"stateMutability":"view"},{"type":"function","name":"getProver","inputs":[{"name":"proverAddress","type":"address","internalType":"address"}],"outputs":[{"name":"prover","type":"tuple","internalType":"struct IProverRegistry.Prover","components":[{"name":"proverAddress","type":"address","internalType":"address"},{"name":"sphincsPubKeyHash","type":"bytes32","internalType":"bytes32"},{"name":"sphincsPublicKey","type":"bytes","internalType":"bytes"},{"name":"stakedAmount","type":"uint256","internalType":"uint256"},{"name":"registeredAt","type":"uint256","internalType":"uint256"},{"name":"isActive","type":"bool","internalType":"bool"},{"name":"successfulSigns","type":"uint256","internalType":"uint256"},{"name":"slashedCount","type":"uint256","internalType":"uint256"}]}],"stateMutability":"view"},{"type":"function","name":"getPublicKey","inputs":[{"name":"proverAddress","type":"address","internalType":"address"}],"outputs":[{"name":"publicKey","type":"bytes","internalType":"bytes"}],"stateMutability":"view"},{"type":"function","name":"getPublicKeyHash","inputs":[{"name":"proverAddress","type":"address","internalType":"address"}],"outputs":[{"name":"pubKeyHash","type":"bytes32","internalType":"bytes32"}],"stateMutability":"view"},{"type":"function","name":"getUnbondingPeriod","inputs":[],"outputs":[{"name":"period","type":"uint256","internalType":"uint256"}],"stateMutability":"pure"},{"type":"function","name":"insuranceFund","inputs":[],"outputs":[{"name":"","type":"uint256","internalType":"uint256"}],"stateMutability":"view"},{"type":"function","name":"isActiveProver","inputs":[{"name":"proverAddress","type":"address","internalType":"address"}],"outputs":[{"name":"","type":"bool","internalType":"bool"}],"stateMutability":"view"},{"type":"function","name":"owner","inputs":[],"outputs":[{"name":"","type":"address","internalType":"address"}],"stateMutability":"view"},{"type":"function","name":"pause","inputs":[],"outputs":[],"stateMutability":"nonpayable"},{"type":"function","name":"paused","inputs":[],"outputs":[{"name":"","type":"bool","internalType":"bool"}],"stateMutability":"view"},{"type":"function","name":"registerProver","inputs":[{"name":"sphincsPublicKey","type":"bytes","internalType":"bytes"}],"outputs":[{"name":"success","type":"bool","internalType":"bool"}],"stateMutability":"payable"},{"type":"function","name":"registerProverTestnet","inputs":[{"name":"proverAddress","type":"address","internalType":"address"},{"name":"sphincsPublicKey","type":"bytes","internalType":"bytes"}],"outputs":[],"stateMutability":"nonpayable"},{"type":"function","name":"removeAuthorizedSlasher","inputs":[{"name":"slasher","type":"address","internalType":"address"}],"outputs":[],"stateMutability":"nonpayable"},{"type":"function","name":"requestExit","inputs":[],"outputs":[],"stateMutability":"nonpayable"},{"type":"function","name":"securityCouncil","inputs":[],"outputs":[{"name":"","type":"address","internalType":"address"}],"stateMutability":"view"},{"type":"function","name":"slash","inputs":[{"name":"proverAddress","type":"address","internalType":"address"},{"name":"amount","type":"uint256","internalType":"uint256"},{"name":"reason","type":"bytes32","internalType":"bytes32"}],"outputs":[],"stateMutability":"nonpayable"},{"type":"function","name":"testnetMode","inputs":[],"outputs":[{"name":"","type":"bool","internalType":"bool"}],"stateMutability":"view"},{"type":"function","name":"totalStaked","inputs":[],"outputs":[{"name":"","type":"uint256","internalType":"uint256"}],"stateMutability":"view"},{"type":"function","name":"transferOwnership","inputs":[{"name":"newOwner","type":"address","internalType":"address"}],"outputs":[],"stateMutability":"nonpayable"},{"type":"function","name":"unpause","inputs":[],"outputs":[],"stateMutability":"nonpayable"},{"type":"function","name":"updateSecurityCouncil","inputs":[{"name":"newCouncil","type":"address","internalType":"address"}],"outputs":[],"stateMutability":"nonpayable"},{"type":"function","name":"withdrawInsuranceFund","inputs":[{"name":"treasury","type":"address","internalType":"address"},{"name":"amount","type":"uint256","internalType":"uint256"}],"outputs":[],"stateMutability":"nonpayable"},{"type":"event","name":"Paused","inputs":[{"name":"account","type":"address","indexed":false,"internalType":"address"}],"anonymous":false},{"type":"event","name":"ProverExitRequested","inputs":[{"name":"prover","type":"address","indexed":true,"internalType":"address"},{"name":"unbondingCompleteAt","type":"uint256","indexed":false,"internalType":"uint256"}],"anonymous":false},{"type":"event","name":"ProverExited","inputs":[{"name":"prover","type":"address","indexed":true,"internalType":"address"},{"name":"stakeReturned","type":"uint256","indexed":false,"internalType":"uint256"}],"anonymous":false},{"type":"event","name":"ProverRegistered","inputs":[{"name":"prover","type":"address","indexed":true,"internalType":"address"},{"name":"sphincsPubKeyHash","type":"bytes32","indexed":true,"internalType":"bytes32"},{"name":"stakedAmount","type":"uint256","indexed":false,"internalType":"uint256"}],"anonymous":false},{"type":"event","name":"ProverSlashed","inputs":[{"name":"prover","type":"address","indexed":true,"internalType":"address"},{"name":"slashAmount","type":"uint256","indexed":false,"internalType":"uint256"},{"name":"reason","type":"bytes32","indexed":false,"internalType":"bytes32"}],"anonymous":false},{"type":"event","name":"Unpaused","inputs":[{"name":"account","type":"address","indexed":false,"internalType":"address"}],"anonymous":false},{"type":"error","name":"AlreadyUnbonding","inputs":[]},{"type":"error","name":"EnforcedPause","inputs":[]},{"type":"error","name":"ExpectedPause","inputs":[]},{"type":"error","name":"InsufficientStake","inputs":[]},{"type":"error","name":"InvalidPublicKeyLength","inputs":[]},{"type":"error","name":"NotAuthorizedSlasher","inputs":[]},{"type":"error","name":"NotOwner","inputs":[]},{"type":"error","name":"NotSecurityCouncil","inputs":[]},{"type":"error","name":"ProverAlreadyRegistered","inputs":[]},{"type":"error","name":"ProverNotActive","inputs":[]},{"type":"error","name":"ProverNotFound","inputs":[]},{"type":"error","name":"ProverNotUnbonding","inputs":[]},{"type":"error","name":"ReentrancyGuardReentrantCall","inputs":[]},{"type":"error","name":"TransferFailed","inputs":[]},{"type":"error","name":"UnbondingNotComplete","inputs":[]},{"type":"error","name":"ZeroAddress","inputs":[]}],"bytecode":{"object":"0x608034620000f357601f6200278a38819003918201601f19168301916001600160401b03831184841017620000f8578084926040948552833981010312620000f35780516001600160a01b0381169190829003620000f3576020015190811515809203620000f35760017f9b779b17422d0df92223018b32b4d1fa46e071723d6817e2486d003becc55f00558015620000e157600054610100600160a81b033360081b1690610100600160a81b0319161760005560018060a01b0319600154161760015560ff80196008541691161760085560405161267b90816200010f8239f35b60405163d92e233d60e01b8152600490fd5b600080fd5b634e487b7160e01b600052604160045260246000fdfe60e080604052600436101561001d575b50361561001b57600080fd5b005b60003560e01c90816308e001cd14611049575080631a096c501461102657806327eb6c0f14610ffd578063312ba5df14610faa5780633296d98314610f1c57806339686c9c14610e545780633b73251714610e395780633f4ba83a14610dc5578063492723b414610da757806356a3b5fa14610d6e5780635c975abb14610d4b5780635cbe36f014610d015780636a57e4d814610cbf5780636fd2c80b146105615780637f8e3b4e14610bf2578063817b1cd214610bd45780638456cb5914610b70578063857cdbb814610b1b5780638da5cb5b14610aee5780639cbe456f14610ab1578063aed2d90814610a72578063b01eb66014610950578063b790230314610932578063bcf176721461090f578063be0974141461057f578063d9a912ec14610561578063dbfe3e9614610508578063ec64842e146104c6578063f2fde38b14610446578063faab193c146103105763fba2c05a1461017f573861000f565b3461030b57606036600319011261030b5761019861138a565b6024359033600052600260205260ff6040600020541615806102f6575b6102e4576101c1611602565b60018060a01b039081811692836000526003602052604060002092835416156102d25782604092670de0b6b3a764000060037f26571a9362e06ee3dfdfbf0657b6f0d98ff0dd9fe1446c69770dfe2e4b76361896018054948581116000146102c7575061022e8580611632565b81556007840161023e8154611713565b905561024c85600654611632565b60065561025b856007546115d7565b6007555410806102ba575b61028f575b505081519081526044356020820152a2600160008051602061262683398151915255005b816004600960056102b395019260ff19938481541690550191825416179055611722565b388061026b565b5060ff6008541615610266565b61022e908096611632565b60405163070b036f60e11b8152600490fd5b60405163a4bc77a760e01b8152600490fd5b506001546001600160a01b03163314156101b5565b600080fd5b3461030b5760208060031936011261030b5761032a61138a565b90600060e060405161033b81611476565b8281528284820152606060408201528260608201528260808201528260a08201528260c0820152015260018060a01b03809216600052600381526040600020828154169160018201549160038101549260048201549260ff600584015416906006840154926103c660026007870154966040519a6103b88c611476565b8b52848b019384520161166f565b9160408901928352606089019788526080890196875260a08901931515845260c0890194855260e08901958652604051998a99828b525116908901525160408801525193610422610100958660608a015261012089019061141a565b955160808801525160a087015251151560c08601525160e085015251908301520390f35b3461030b57602036600319011261030b5761045f61138a565b600054906001600160a01b03600883901c811633036104b4578116156104a257610100600160a81b031990911660089190911b610100600160a81b031617600055005b60405163d92e233d60e01b8152600490fd5b6040516330cd747160e01b8152600490fd5b3461030b57602036600319011261030b576001600160a01b036104e761138a565b166000526003602052602060ff600560406000200154166040519015158152f35b3461030b57602036600319011261030b5761052161138a565b600154906001600160a01b0390818316330361054f57169081156104a2576001600160a01b03191617600155005b604051636fd557a760e01b8152600490fd5b3461030b57600036600319011261030b57602060405162093a808152f35b602036600319011261030b576004356001600160401b03811161030b576105aa9036906004016113a0565b906105b36115e4565b6105bb611602565b33600052600360205260ff6009604060002001541660058110156107d9576108fd57602082036108eb5760085460ff16156108dd5760005b34106108cb5761062d61060f61060a368585611505565b6117fb565b916040519361061d8561145a565b3385528360208601523691611505565b6040830152346060830152426080830152600160a0830152600060c0830152600060e083015260006101008301526002610120830152336000526003602052604060002060018060a01b038351166bffffffffffffffffffffffff60a01b8254161781556020830151600182015560408301519283516001600160401b0381116108b5576106be600284015461153c565b601f811161086e575b506020601f82116001146107fa5781906101209495966000926107ef575b50508160011b916000199060031b1c19161760028401555b606081015160038401556080810151600484015561073060a08201511515600585019060ff801983541691151516179055565b60c0810151600684015560e081015160078401556101008101516008840155015160058110156107d95760096107669201611576565b6004543360005260056020526040600020556107813361158e565b61078d346006546115d7565b6006556040513481527f8cff608f5b95035c0790dc8ba5b2085444145959dbea5bdde6cca284b48c666360203392a3600160008051602061262683398151915255602060405160018152f35b634e487b7160e01b600052602160045260246000fd5b0151905086806106e5565b6002840160005260206000209560005b601f19841681106108565750958291610120959697600194601f1981161061083d575b505050811b0160028401556106fd565b015160001960f88460031b161c1916905586808061082d565b8282015188556001909701966020928301920161080a565b600284016000526020600020601f830160051c8101602084106108ae575b601f830160051c820181106108a25750506106c7565b6000815560010161088c565b508061088c565b634e487b7160e01b600052604160045260246000fd5b6040516378de4a6960e11b8152600490fd5b670de0b6b3a76400006105f3565b6040516318dca5e960e21b8152600490fd5b604051635edab1f160e01b8152600490fd5b3461030b57600036600319011261030b57602060ff600854166040519015158152f35b3461030b57600036600319011261030b576020600754604051908152f35b3461030b57600036600319011261030b57610969611602565b33600052600360205260406000206009810180549160ff831660058110156107d957600303610a6057600881015462093a808101809111610a4a574210610a38576003019160008354935560ff191690556109c681600654611632565b60065580610a0f575b6040519081527f3cdcd6fbaf771af204c98d9f75b3856f77760c1896f67ecaddc41cfe2b1aa9d760203392a2600160008051602061262683398151915255005b600080808084335af1610a2061163f565b506109cf575b6040516312171d8360e31b8152600490fd5b6040516302d21cc960e61b8152600490fd5b634e487b7160e01b600052601160045260246000fd5b6040516379b77d6760e01b8152600490fd5b3461030b57602036600319011261030b576001600160a01b03610a9361138a565b166000526002602052602060ff604060002054166040519015158152f35b3461030b57602036600319011261030b576001600160a01b03610ad261138a565b1660005260036020526020600160406000200154604051908152f35b3461030b57600036600319011261030b5760005460405160089190911c6001600160a01b03168152602090f35b3461030b57602036600319011261030b576001600160a01b03610b3c61138a565b166000526003602052610b6c610b58600260406000200161166f565b60405191829160208352602083019061141a565b0390f35b3461030b57600036600319011261030b576001546001600160a01b0316330361054f57610b9b6115e4565b600160ff1960005416176000557f62e78cea01bee320cd4e420270b5ea74000d11b0c9f74754ebdbfc544b05a2586020604051338152a1005b3461030b57600036600319011261030b576020600654604051908152f35b3461030b57600036600319011261030b57610c0b6115e4565b610c13611602565b336000526003602052604060002060098101805460ff811660058110156107d957600203610cad5760058301805460ff1990811690915516600317905542600890910155610c6033611722565b62093a804201804211610a4a576040519081527f4dc4c80b96a086aaa47a091592d744dc242466a8ab2654d4ecb9443c01af220660203392a2600160008051602061262683398151915255005b604051630e5ea1c160e31b8152600490fd5b3461030b57602036600319011261030b5760043560045481101561030b57610ce86020916113cd565b905460405160039290921b1c6001600160a01b03168152f35b3461030b57602036600319011261030b57610d1a61138a565b6000546001600160a01b03919060081c821633036104b457166000908152600260205260409020805460ff19169055005b3461030b57600036600319011261030b57602060ff600054166040519015158152f35b3461030b57600036600319011261030b5760085460ff1615610d9757602060005b604051908152f35b6020670de0b6b3a7640000610d8f565b3461030b57600036600319011261030b576020600454604051908152f35b3461030b57600036600319011261030b576001546001600160a01b0316330361054f5760005460ff811615610e275760ff19166000557f5db9ee0a495bf2e6ff9c91a7834c1ba4fdd244a5e8aa4e537bd38aeae4b073aa6020604051338152a1005b604051638dfc202b60e01b8152600490fd5b3461030b57600036600319011261030b576020604051818152f35b3461030b57600036600319011261030b57604051806004548083526020809301809160046000527f8a35acfbc15ff81a39ae7d344fd709f28e8600b4aa8c65c6b64bfe7fe36bd19b9060005b86828210610eff578686610eb6828803836114c9565b604051928392818401908285525180915260408401929160005b828110610edf57505050500390f35b83516001600160a01b031685528695509381019392810192600101610ed0565b83546001600160a01b031685529093019260019283019201610ea0565b3461030b57604036600319011261030b57610f3561138a565b600154602435916001600160a01b03918216330361054f57610f55611602565b82918116156104a2576000808093819386600754809111610fa2575b82610f7b91611632565b6007555af1610f8861163f565b5015610a2657600160008051602061262683398151915255005b915081610f71565b3461030b57602036600319011261030b57610fc361138a565b6000546001600160a01b03919060081c821633036104b4571680156104a2576000908152600260205260409020805460ff19166001179055005b3461030b57600036600319011261030b576001546040516001600160a01b039091168152602090f35b3461030b57600036600319011261030b576020604051670de0b6b3a76400008152f35b3461030b57604036600319011261030b5761106261138a565b6024356001600160401b03811161030b576110819036906004016113a0565b6000549193909160081c6001600160a01b0316330361137b57506001600160a01b038216156104a2576001600160a01b03821660009081526003602052604090206009015460ff1660058110156107d9576108fd57602081036108eb576110ec61060a368386611505565b92611118604051916110fd8361145a565b6001600160a01b038516835260208301868152933691611505565b6040820190815260006060830152426080830152600160a0830152600060c0830152600060e08301526000610100830152600261012083015260018060a01b038416600052600360205260406000209260018060a01b038351166bffffffffffffffffffffffff60a01b855416178455516001840155518051906001600160401b0382116108b5576111ad600285015461153c565b601f8111611334575b50602090601f83116001146112c057610120939291600091836112b5575b50508160011b916000199060031b1c19161760028401555b606081015160038401556080810151600484015561121f60a08201511515600585019060ff801983541691151516179055565b60c0810151600684015560e081015160078401556101008101516008840155015160058110156107d95760096112559201611576565b6004546001600160a01b03821660009081526005602052604090205561127a8161158e565b604051600081526001600160a01b03909116907f8cff608f5b95035c0790dc8ba5b2085444145959dbea5bdde6cca284b48c666390602090a3005b0151905087806111d4565b906002850160005260206000209160005b601f198516811061131c57509183916001936101209695601f19811610611303575b505050811b0160028401556111ec565b015160001960f88460031b161c191690558780806112f3565b919260206001819286850151815501940192016112d1565b600285016000526020600020601f840160051c810160208510611374575b601f830160051c820181106113685750506111b6565b60008155600101611352565b5080611352565b6330cd747160e01b8152600490fd5b600435906001600160a01b038216820361030b57565b9181601f8401121561030b578235916001600160401b03831161030b576020838186019501011161030b57565b6004548110156114045760046000527f8a35acfbc15ff81a39ae7d344fd709f28e8600b4aa8c65c6b64bfe7fe36bd19b0190600090565b634e487b7160e01b600052603260045260246000fd5b919082519283825260005b848110611446575050826000602080949584010152601f8019910116010190565b602081830181015184830182015201611425565b61014081019081106001600160401b038211176108b557604052565b61010081019081106001600160401b038211176108b557604052565b61032081019081106001600160401b038211176108b557604052565b60a081019081106001600160401b038211176108b557604052565b90601f801991011681019081106001600160401b038211176108b557604052565b6001600160401b0381116108b557601f01601f191660200190565b929192611511826114ea565b9161151f60405193846114c9565b82948184528183011161030b578281602093846000960137010152565b90600182811c9216801561156c575b602083101461155657565b634e487b7160e01b600052602260045260246000fd5b91607f169161154b565b9060058110156107d95760ff80198354169116179055565b60045490680100000000000000008210156108b5576115b68260016115d594016004556113cd565b90919082549060031b9160018060a01b03809116831b921b1916179055565b565b91908201809211610a4a57565b60ff600054166115f057565b60405163d93c066560e01b8152600490fd5b60008051602061262683398151915260028154146116205760029055565b604051633ee5aeb560e01b8152600490fd5b91908203918211610a4a57565b3d1561166a573d90611650826114ea565b9161165e60405193846114c9565b82523d6000602084013e565b606090565b90604051918260008254926116838461153c565b9081845260019485811690816000146116f057506001146116ad575b50506115d5925003836114c9565b9093915060005260209081600020936000915b8183106116d85750506115d59350820101388061169f565b855488840185015294850194879450918301916116c0565b9150506115d594506020925060ff191682840152151560051b820101388061169f565b6000198114610a4a5760010190565b6001600160a01b0390811660008181526005602052604081205460045491939160001991908281019081116117d65780849183036117a4575b5050506004548015611790570190611772826113cd565b909182549160031b1b19169055600455815260056020526040812055565b634e487b7160e01b85526031600452602485fd5b6117ad906113cd565b90549060031b1c166117c2816115b6846113cd565b85526005602052604085205538828161175b565b634e487b7160e01b86526011600452602486fd5b9060198110156114045760051b0190565b600060c05260405161180c81611492565b61032036823760c05280519060018201808311610a4a576088900491600183018311610a4a57916000905b6001810182106119ad575050505060c0516001600160401b038151166fffffffffffffffff0000000000000000602083015160401b161760408201519160606001600160401b0360c01b91015160c01b16916001600160401b0360801b9060801b1617177eff00ff00ff00ff00ff00ff00ff00ff00ff00ff00ff00ff00ff00ff00ff00ff7fff00ff00ff00ff00ff00ff00ff00ff00ff00ff00ff00ff00ff00ff00ff00ff008260081b169160081c16177dffff0000ffff0000ffff0000ffff0000ffff0000ffff0000ffff0000ffff7fffff0000ffff0000ffff0000ffff0000ffff0000ffff0000ffff0000ffff00008260101b169160101c16177bffffffff00000000ffffffff00000000ffffffff00000000ffffffff7fffffffff00000000ffffffff00000000ffffffff00000000ffffffff000000008260201b169160201c161777ffffffffffffffff0000000000000000ffffffffffffffff80198260401b169160401c16178060801b9060801c1790565b60888293949592029483860460881484151715610a4a576000925b60119283851015611b1357600090815b600880841015611ad357600388811b89810483148a151715611abe5785611a02611a07928f6115d7565b6115d7565b8c88821015611a6957508b5181101561140457602086918d01015160f81c915b1b918583041485151715611a545760ff16901b6001600160401b03161791611a4e90611713565b916119d8565b87634e487b7160e01b60005260045260246000fd5b90888103611a7c57505084600691611a27565b60888201809211611aa95760878e01918211611aa95703611aa05784608091611a27565b84600091611a27565b89634e487b7160e01b60005260045260246000fd5b88634e487b7160e01b60005260045260246000fd5b50909450611b0d929591506001600160401b039081611af48460c0516117ea565b51161890611b048360c0516117ea565b91169052611713565b926119c8565b9594925095509150610320604051611b2a81611492565b369037604051611b39816114ae565b60a036823760405190611b4b826114ae565b60a036833760405161032081018181106001600160401b038211176108b5576040526000815260016020820152603e6040820152601c6060820152601b6080820152602460a0820152602c60c0820152600660e0820152603761010082015260146101208201526003610140820152600a610160820152602b61018082015260196101a082015260276101c082015260296101e0820152602d610200820152600f61022082015260156102408201526008610260820152601261028082015260026102a0820152603d6102c082015260386102e0820152600e6103008201526040518060a052806103008101106001600160401b03610300830111176108b557806103006001920160405252618082602060a051015267800000000000808a604060a0510152678000000080008000606060a051015261808b608060a0510152638000000160a08051015267800000008000808160c060a051015267800000000000800960e060a0510152608a61010060a0510152608861012060a0510152638000800961014060a0510152638000000a61016060a0510152638000808b61018060a051015267800000000000008b6101a060a05101526780000000000080896101c060a05101526780000000000080036101e060a051015267800000000000800261020060a051015267800000000000008061022060a051015261800a61024060a051015267800000008000000a61026060a051015267800000008000808161028060a05101526780000000000080806102a060a051015263800000016102c060a05101526780000000800080086102e060a05101526000915b60188310611dc65750505050611dbd600191611713565b91939050611837565b9491966001600160401b0360c099929794995181610280818351168260a08501511618826101408501511618826101e08501511618920151161816865260c0516001600160401b036102a0816020840151168260c0850151161882610160850151161882610200850151161892015116186001600160401b03811660208801526001600160401b0360c051816102c0816040840151168260e0850151161882610180850151161882610220850151161892015116181660408801526001600160401b0360c051816102e081606084015116826101008501511618826101a0850151161882610240850151161892015116181660608801526001600160401b03808060c0518161030081608084015116826101208501511618826101c085015116188261026085015116189201511618168060808b015281600185603f1c1667fffffffffffffffe8660011b16178218168d528c6020838c611f44826040818451169301511667fffffffffffffffe600182603f1c169160011b161790565b18169101528c6040838c611f78826060816020850151169301511667fffffffffffffffe600182603f1c169160011b161790565b18169101528c6060838c611fac826080816040850151169301511667fffffffffffffffe600182603f1c169160011b161790565b18169101528c6080838c611fdd828060608401511692511667fffffffffffffffe600182603f1c169160011b161790565b181691015260c0519367fffffffffffffffe600182603f1c169160011b1617181681835116181690526001600160401b0360208a0151166001600160401b03602060c051019181835116181690526001600160401b0360408a0151166001600160401b03604060c051019181835116181690526001600160401b0360608a0151166001600160401b03606060c051019181835116181690526001600160401b0360808a0151166001600160401b03608060c051019181835116181690526001600160401b038951166001600160401b0360a060c051019181835116181690526001600160401b0360208a0151166001600160401b0360c08051019181835116181690526001600160401b0360408a0151166001600160401b0360e060c051019181835116181690526001600160401b0360608a0151166001600160401b0361010060c051019181835116181690526001600160401b0360808a0151166001600160401b0361012060c051019181835116181690526001600160401b038951166001600160401b0361014060c051019181835116181690526001600160401b0360208a0151166001600160401b0361016060c051019181835116181690526001600160401b0360408a0151166001600160401b0361018060c051019181835116181690526001600160401b0360608a0151166001600160401b036101a060c051019181835116181690526001600160401b0360808a0151166001600160401b036101c060c051019181835116181690526001600160401b038951166001600160401b036101e060c051019181835116181690526001600160401b0360208a0151166001600160401b0361020060c051019181835116181690526001600160401b0360408a0151166001600160401b0361022060c051019181835116181690526001600160401b0360608a0151166001600160401b0361024060c051019181835116181690526001600160401b0360808a0151166001600160401b0361026060c051019181835116181690526001600160401b038951166001600160401b0361028060c051019181835116181690526001600160401b0360208a0151166001600160401b036102a060c051019181835116181690526001600160401b0360408a0151166001600160401b036102c060c051019181835116181690526001600160401b0360608a0151166001600160401b036102e060c051019181835116181690526001600160401b0360808a0151166001600160401b0361030060c0510191818351161816905261239160405180608052611492565b610320366080513760005b60198110612558575060005b6005808210156125185780828102048203610a4a576123cb8282026080516117ea565b51908281026001810110610a4a576123ea6001848302016080516117ea565b518184026002810110610a4a576124086002858402016080516117ea565b51918481026003810110610a4a576124276003868302016080516117ea565b51600491908682028084011061250357926001600160401b036124f084898589859987876124fe9f9e81819f9d612467829e918a849302016080516117ea565b5196816124788b8b0260c0516117ea565b96161916169116181690528661249560018686020160c0516117ea565b9a16998780838d191616818b161816905286806124b960028787020160c0516117ea565b92169a81848d1916161816905285806124d960038686020160c0516117ea565b921699818d8c19161618169052020160c0516117ea565b951619161618169052611713565b6123a8565b601183634e487b7160e01b6000525260246000fd5b5050966125529098939691989592956001600160401b038160051b60a0510151166001600160401b0360c051918183511618169052611713565b91611da6565b600581066001600160ff1b0381169003610a4a576003600582048102046005820403610a4a57600561259481830460030282840660011b6115d7565b06906125c06001600160401b036125ad8360c0516117ea565b51166125b9838c6117ea565b51906125f7565b6005838102048303610a4a576001600160401b03611b046125ea6125f295600502600586046115d7565b6080516117ea565b61239c565b8115612620576001600160401b038091168260400360408111610a4a578183911c16921b161790565b90509056fe9b779b17422d0df92223018b32b4d1fa46e071723d6817e2486d003becc55f00a2646970667358221220afdb42f67616f8aa6f1033dc34e52f910f02b9765ffc666fed6918f89abc3a0a64736f6c63430008140033","linkReferences":{}},"methodIdentifiers":{"MIN_STAKE_MAINNET()":"1a096c50","SPHINCS_PUBKEY_LENGTH()":"3b732517","UNBONDING_PERIOD()":"d9a912ec","activeProverList(uint256)":"6a57e4d8","addAuthorizedSlasher(address)":"312ba5df","authorizedSlashers(address)":"aed2d908","completeExit()":"b01eb660","getActiveProverCount()":"492723b4","getActiveProvers()":"39686c9c","getMinStake()":"56a3b5fa","getProver(address)":"faab193c","getPublicKey(address)":"857cdbb8","getPublicKeyHash(address)":"9cbe456f","getUnbondingPeriod()":"6fd2c80b","insuranceFund()":"b7902303","isActiveProver(address)":"ec64842e","owner()":"8da5cb5b","pause()":"8456cb59","paused()":"5c975abb","registerProver(bytes)":"be097414","registerProverTestnet(address,bytes)":"08e001cd","removeAuthorizedSlasher(address)":"5cbe36f0","requestExit()":"7f8e3b4e","securityCouncil()":"27eb6c0f","slash(address,uint256,bytes32)":"fba2c05a","testnetMode()":"bcf17672","totalStaked()":"817b1cd2","transferOwnership(address)":"f2fde38b","unpause()":"3f4ba83a","updateSecurityCouncil(address)":"dbfe3e96","withdrawInsuranceFund(address,uint256)":"3296d983"},"id":24}