{"abi":[{"type":"constructor","inputs":[{"name":"token_","type":"address","internalType":"address"},{"name":"admin_","type":"address","internalType":"address"}],"stateMutability":"nonpayable"},{"type":"function","name":"claim","inputs":[],"outputs":[{"name":"","type":"uint256","internalType":"uint256"}],"stateMutability":"nonpayable"},{"type":"function","name":"claimableAmount","inputs":[{"name":"beneficiary","type":"address","internalType":"address"}],"outputs":[{"name":"","type":"uint256","internalType":"uint256"}],"stateMutability":"view"},{"type":"function","name":"createVestingSchedule","inputs":[{"name":"beneficiary","type":"address","internalType":"address"},{"name":"totalAmount","type":"uint256","internalType":"uint256"},{"name":"startTime","type":"uint256","internalType":"uint256"},{"name":"cliffDuration","type":"uint256","internalType":"uint256"},{"name":"vestingDuration","type":"uint256","internalType":"uint256"},{"name":"revocable","type":"bool","internalType":"bool"}],"outputs":[],"stateMutability":"nonpayable"},{"type":"function","name":"getVestingSchedule","inputs":[{"name":"beneficiary","type":"address","internalType":"address"}],"outputs":[{"name":"","type":"tuple","internalType":"struct ITokenVesting.VestingSchedule","components":[{"name":"totalAmount","type":"uint256","internalType":"uint256"},{"name":"claimedAmount","type":"uint256","internalType":"uint256"},{"name":"startTime","type":"uint256","internalType":"uint256"},{"name":"cliffDuration","type":"uint256","internalType":"uint256"},{"name":"vestingDuration","type":"uint256","internalType":"uint256"},{"name":"revocable","type":"bool","internalType":"bool"},{"name":"revoked","type":"bool","internalType":"bool"}]}],"stateMutability":"view"},{"type":"function","name":"hasCliffPassed","inputs":[{"name":"beneficiary","type":"address","internalType":"address"}],"outputs":[{"name":"","type":"bool","internalType":"bool"}],"stateMutability":"view"},{"type":"function","name":"revoke","inputs":[{"name":"beneficiary","type":"address","internalType":"address"}],"outputs":[],"stateMutability":"nonpayable"},{"type":"function","name":"token","inputs":[],"outputs":[{"name":"","type":"address","internalType":"address"}],"stateMutability":"view"},{"type":"function","name":"vestedAmount","inputs":[{"name":"beneficiary","type":"address","internalType":"address"}],"outputs":[{"name":"","type":"uint256","internalType":"uint256"}],"stateMutability":"view"},{"type":"event","name":"TokensClaimed","inputs":[{"name":"beneficiary","type":"address","indexed":true,"internalType":"address"},{"name":"amount","type":"uint256","indexed":false,"internalType":"uint256"}],"anonymous":false},{"type":"event","name":"VestingRevoked","inputs":[{"name":"beneficiary","type":"address","indexed":true,"internalType":"address"},{"name":"unvestedAmount","type":"uint256","indexed":false,"internalType":"uint256"}],"anonymous":false},{"type":"event","name":"VestingScheduleCreated","inputs":[{"name":"beneficiary","type":"address","indexed":true,"internalType":"address"},{"name":"totalAmount","type":"uint256","indexed":false,"internalType":"uint256"},{"name":"startTime","type":"uint256","indexed":false,"internalType":"uint256"},{"name":"cliffDuration","type":"uint256","indexed":false,"internalType":"uint256"},{"name":"vestingDuration","type":"uint256","indexed":false,"internalType":"uint256"},{"name":"revocable","type":"bool","indexed":false,"internalType":"bool"}],"anonymous":false},{"type":"error","name":"AlreadyRevoked","inputs":[]},{"type":"error","name":"CliffNotReached","inputs":[]},{"type":"error","name":"InvalidParameters","inputs":[]},{"type":"error","name":"NoScheduleExists","inputs":[]},{"type":"error","name":"NotAuthorized","inputs":[]},{"type":"error","name":"NotRevocable","inputs":[]},{"type":"error","name":"NothingToClaim","inputs":[]},{"type":"error","name":"ScheduleAlreadyExists","inputs":[]},{"type":"error","name":"ZeroAddress","inputs":[]},{"type":"error","name":"ZeroAmount","inputs":[]}],"bytecode":{"object":"0x60a0346100bb57601f610acf38819003918201601f19168301916001600160401b038311848410176100bf5780849260409485528339810103126100bb57610052602061004b836100d3565b92016100d3565b6001600160a01b0390828216156100a957169081156100a957608052600180546001600160a01b0319169190911781555f556040516109e790816100e8823960805181818160880152818161025d015261094c0152f35b60405163d92e233d60e01b8152600490fd5b5f80fd5b634e487b7160e01b5f52604160045260245ffd5b51906001600160a01b03821682036100bb5756fe604060808152600480361015610013575f80fd5b5f3560e01c908163384711cc1461068b5781634e71d92d1461055857816374a8f1031461045057816389885049146104245781639f82906314610335578163aaad9321146100e957508063cd8ea679146100bb5763fc0c546a14610075575f80fd5b346100b7575f3660031901126100b757517f00000000000000000000000000000000000000000000000000000000000000006001600160a01b03168152602090f35b5f80fd5b50346100b75760203660031901126100b7576020906100e06100db6106b0565b6107ac565b90519015158152f35b82346100b75760c03660031901126100b7576101036106b0565b6024359160443590606435906084359260a435948515158096036100b7576001546001600160a01b0391908216330361032557169687156103175786156103095784156102fb578484116102fb57875f5260209060028252835f20546102ed578689600586516101728161077c565b8b81528581015f815288820188815260608301908b825260808401928d845260a0850197885260c08501965f88525f5260028a528b5f2094518555516001850155516002840155516003830155518582015501915115159060ff61ff0084549251151560081b1692169061ffff1916171790558351828101916323b872dd60e01b83523360248301523060448301528960648301526064825260a082019082821067ffffffffffffffff8311176102da57505f8060a09a989694889694610292947fe8bb157fbcf731c01df93034e88d616c22e879d6ed11ef45bd93c38312f12a199e9c9a525190827f00000000000000000000000000000000000000000000000000000000000000005af1610286610857565b816102aa575b506108b9565b825196875286015284015260608301526080820152a2005b805180159250849083156102c2575b5050508c61028c565b6102d293508201810191016108a1565b8c83816102b9565b604190634e487b7160e01b5f525260245ffd5b835163e109c26360e01b8152fd5b8251630e52390960e41b8152fd5b8251631f2a200560e01b8152fd5b825163d92e233d60e01b8152fd5b835163ea8e4eb560e01b81528990fd5b9050346100b75760203660031901126100b75760e0916103536106b0565b5f60c083516103618161077c565b82815282602082015282858201528260608201528260808201528260a0820152015260018060a01b03165f526002602052805f208151906103a18261077c565b805493848352600182015493602084019485526002830154818501908152600560038501549360608701948552850154946080870195865201549560ff60c060a0880197828a1615158952019760081c16151587528251978852516020880152519086015251606085015251608084015251151560a083015251151560c0820152f35b82346100b75760203660031901126100b7576020906104496104446106b0565b610738565b9051908152f35b9050346100b75760203660031901126100b75761046b6106b0565b6001546001600160a01b039391908416330361054a57831692835f526002602052815f208054801561053a57600582019182549560ff87161561052c5760ff8760081c1661051e5750916101006104f17f57c76f5e278bfbd4eeb5207d287aa5a1a9e1113c65f7eefa540e379a2774d13b9795936104eb602098966107e3565b9061072b565b9461ff001916179055828061050a575b505051908152a2005b61051791600154166108f7565b5f82610501565b855163905e710760e01b8152fd5b8551639414820d60e01b8152fd5b5050505163121b962360e31b8152fd5b505163ea8e4eb560e01b8152fd5b9050346100b7575f3660031901126100b75760025f54146106495760025f55335f526002602052815f209182541561063c5760ff600584015460081c1661062f576105ac600284015460038501549061070a565b4210610622576105bb33610738565b91821561061457506001602093016105d483825461070a565b90556105e082336108f7565b80518281527f896e034966eaaf1adc54acc0f257056febbd300c9e47182cf761982cf1f5e430843392a260015f5551908152f35b90516312d37ee560e31b8152fd5b5163392a328760e01b8152fd5b5163905e710760e01b8152fd5b5163121b962360e31b8152fd5b6020606492519162461bcd60e51b8352820152601f60248201527f5265656e7472616e637947756172643a207265656e7472616e742063616c6c006044820152fd5b82346100b75760203660031901126100b7576020906104496106ab6106b0565b6106c6565b600435906001600160a01b03821682036100b757565b6001600160a01b03165f9081526002602052604090208054156107055760ff600582015460081c166106fe576106fb906107e3565b90565b6001015490565b505f90565b9190820180921161071757565b634e487b7160e01b5f52601160045260245ffd5b9190820391821161071757565b6001600160a01b03165f9081526002602052604090208054156107055760ff600582015460081c16610705578060016107736106fb936107e3565b9101549061072b565b60e0810190811067ffffffffffffffff82111761079857604052565b634e487b7160e01b5f52604160045260245ffd5b6001600160a01b03165f9081526002602052604090208054156107055780600360026107dd9301549101549061070a565b42101590565b6002810154804210610851576107fd60038301548261070a565b42106108515761080d904261072b565b6004820154918282101561084a5754818102918183041490151715610717578115610836570490565b634e487b7160e01b5f52601260045260245ffd5b9150505490565b50505f90565b3d1561089c5767ffffffffffffffff903d8281116107985760405192601f8201601f19908116603f01168401908111848210176107985760405282523d5f602084013e565b606090565b908160209103126100b7575180151581036100b75790565b156108c057565b60405162461bcd60e51b815260206004820152600f60248201526e151c985b9cd9995c8819985a5b1959608a1b6044820152606490fd5b60405163a9059cbb60e01b602082019081526001600160a01b039092166024820152604480820193909352918252906080810167ffffffffffffffff8111828210176107985760405251610980915f918291827f00000000000000000000000000000000000000000000000000000000000000005af1610975610857565b8161098257506108b9565b565b8051801592508215610997575b50505f61028c565b6109aa92506020809183010191016108a1565b5f8061098f56fea26469706673582212204f1f4490c981a0673b1d446784efb154b43949169f28c7dd649caa2c50deab1764736f6c63430008180033","linkReferences":{}},"methodIdentifiers":{"claim()":"4e71d92d","claimableAmount(address)":"89885049","createVestingSchedule(address,uint256,uint256,uint256,uint256,bool)":"aaad9321","getVestingSchedule(address)":"9f829063","hasCliffPassed(address)":"cd8ea679","revoke(address)":"74a8f103","token()":"fc0c546a","vestedAmount(address)":"384711cc"},"id":80}