{"abi":[{"type":"constructor","inputs":[{"name":"_governanceSwitch","type":"address","internalType":"address"}],"stateMutability":"nonpayable"},{"type":"function","name":"BASIS_POINTS","inputs":[],"outputs":[{"name":"","type":"uint256","internalType":"uint256"}],"stateMutability":"view"},{"type":"function","name":"EMERGENCY_TIME_LOCK","inputs":[],"outputs":[{"name":"","type":"uint256","internalType":"uint256"}],"stateMutability":"view"},{"type":"function","name":"NORMAL_TIME_LOCK","inputs":[],"outputs":[{"name":"","type":"uint256","internalType":"uint256"}],"stateMutability":"view"},{"type":"function","name":"SLASHING_RATE_BASE","inputs":[],"outputs":[{"name":"","type":"uint256","internalType":"uint256"}],"stateMutability":"view"},{"type":"function","name":"admin","inputs":[],"outputs":[{"name":"","type":"address","internalType":"address"}],"stateMutability":"view"},{"type":"function","name":"applyVotingPowerCap","inputs":[{"name":"userVotes","type":"uint256","internalType":"uint256"},{"name":"totalVotes","type":"uint256","internalType":"uint256"}],"outputs":[{"name":"","type":"uint256","internalType":"uint256"}],"stateMutability":"view"},{"type":"function","name":"calculateFee","inputs":[{"name":"amount","type":"uint256","internalType":"uint256"}],"outputs":[{"name":"","type":"uint256","internalType":"uint256"}],"stateMutability":"view"},{"type":"function","name":"calculateSlashing","inputs":[{"name":"baseAmount","type":"uint256","internalType":"uint256"},{"name":"violationCount","type":"uint256","internalType":"uint256"}],"outputs":[{"name":"","type":"uint256","internalType":"uint256"}],"stateMutability":"pure"},{"type":"function","name":"feeRate","inputs":[],"outputs":[{"name":"","type":"uint256","internalType":"uint256"}],"stateMutability":"view"},{"type":"function","name":"getAllParameters","inputs":[],"outputs":[{"name":"","type":"tuple","internalType":"struct IEconomicParameters.ParameterSet","components":[{"name":"feeRate","type":"uint256","internalType":"uint256"},{"name":"minimumFee","type":"uint256","internalType":"uint256"},{"name":"minimumStake","type":"uint256","internalType":"uint256"},{"name":"unbondingPeriod","type":"uint256","internalType":"uint256"},{"name":"votingPowerCap","type":"uint256","internalType":"uint256"},{"name":"normalTimeLock","type":"uint256","internalType":"uint256"},{"name":"emergencyTimeLock","type":"uint256","internalType":"uint256"},{"name":"slashingRateBase","type":"uint256","internalType":"uint256"}]}],"stateMutability":"view"},{"type":"function","name":"governanceSwitch","inputs":[],"outputs":[{"name":"","type":"address","internalType":"contract IGovernanceSwitch"}],"stateMutability":"view"},{"type":"function","name":"isValidStake","inputs":[{"name":"amount","type":"uint256","internalType":"uint256"}],"outputs":[{"name":"","type":"bool","internalType":"bool"}],"stateMutability":"view"},{"type":"function","name":"minimumFee","inputs":[],"outputs":[{"name":"","type":"uint256","internalType":"uint256"}],"stateMutability":"view"},{"type":"function","name":"minimumStake","inputs":[],"outputs":[{"name":"","type":"uint256","internalType":"uint256"}],"stateMutability":"view"},{"type":"function","name":"setFeeRate","inputs":[{"name":"_feeRate","type":"uint256","internalType":"uint256"}],"outputs":[],"stateMutability":"nonpayable"},{"type":"function","name":"setMinimumFee","inputs":[{"name":"_minimumFee","type":"uint256","internalType":"uint256"}],"outputs":[],"stateMutability":"nonpayable"},{"type":"function","name":"setMinimumStake","inputs":[{"name":"_minimumStake","type":"uint256","internalType":"uint256"}],"outputs":[],"stateMutability":"nonpayable"},{"type":"function","name":"setUnbondingPeriod","inputs":[{"name":"_unbondingPeriod","type":"uint256","internalType":"uint256"}],"outputs":[],"stateMutability":"nonpayable"},{"type":"function","name":"setVotingPowerCap","inputs":[{"name":"_votingPowerCap","type":"uint256","internalType":"uint256"}],"outputs":[],"stateMutability":"nonpayable"},{"type":"function","name":"unbondingPeriod","inputs":[],"outputs":[{"name":"","type":"uint256","internalType":"uint256"}],"stateMutability":"view"},{"type":"function","name":"votingPowerCap","inputs":[],"outputs":[{"name":"","type":"uint256","internalType":"uint256"}],"stateMutability":"view"},{"type":"event","name":"FeeRateUpdated","inputs":[{"name":"oldRate","type":"uint256","indexed":false,"internalType":"uint256"},{"name":"newRate","type":"uint256","indexed":false,"internalType":"uint256"},{"name":"timestamp","type":"uint256","indexed":false,"internalType":"uint256"}],"anonymous":false},{"type":"event","name":"MinimumFeeUpdated","inputs":[{"name":"oldFee","type":"uint256","indexed":false,"internalType":"uint256"},{"name":"newFee","type":"uint256","indexed":false,"internalType":"uint256"},{"name":"timestamp","type":"uint256","indexed":false,"internalType":"uint256"}],"anonymous":false},{"type":"event","name":"MinimumStakeUpdated","inputs":[{"name":"oldStake","type":"uint256","indexed":false,"internalType":"uint256"},{"name":"newStake","type":"uint256","indexed":false,"internalType":"uint256"},{"name":"timestamp","type":"uint256","indexed":false,"internalType":"uint256"}],"anonymous":false},{"type":"event","name":"UnbondingPeriodUpdated","inputs":[{"name":"oldPeriod","type":"uint256","indexed":false,"internalType":"uint256"},{"name":"newPeriod","type":"uint256","indexed":false,"internalType":"uint256"},{"name":"timestamp","type":"uint256","indexed":false,"internalType":"uint256"}],"anonymous":false},{"type":"event","name":"VotingPowerCapUpdated","inputs":[{"name":"oldCap","type":"uint256","indexed":false,"internalType":"uint256"},{"name":"newCap","type":"uint256","indexed":false,"internalType":"uint256"},{"name":"timestamp","type":"uint256","indexed":false,"internalType":"uint256"}],"anonymous":false},{"type":"error","name":"CannotReduceTimeLock","inputs":[]},{"type":"error","name":"CannotReduceUnbondingPeriod","inputs":[]},{"type":"error","name":"InvalidAddress","inputs":[]},{"type":"error","name":"InvalidParameter","inputs":[]},{"type":"error","name":"InvalidVotingPowerCap","inputs":[]},{"type":"error","name":"NotAuthorized","inputs":[]},{"type":"error","name":"SlashingRateImmutable","inputs":[]},{"type":"error","name":"TimeLockRequired","inputs":[]}],"bytecode":{"object":"0x60c060405234801561000f575f80fd5b50604051610aba380380610aba83398101604081905261002e91610095565b6001600160a01b0381166100555760405163e6c4247b60e01b815260040160405180910390fd5b6001600160a01b03166080523360a05260055f55678ac7230489e800006001556969e10de76676d080000060025562093a806003556101f46004556100c2565b5f602082840312156100a5575f80fd5b81516001600160a01b03811681146100bb575f80fd5b9392505050565b60805160a0516109c26100f85f395f8181610307015261073201525f81816101de0152818161067201526107cb01526109c25ff3fe608060405234801561000f575f80fd5b5060043610610132575f3560e01c80638eb827ee116100b4578063c8ffa30411610079578063c8ffa304146102ae578063cbb012bc146102d4578063e1f1c4a7146102e7578063e4ad3092146102f0578063ec5ffac2146102f9578063f851a44014610302575f80fd5b80638eb827ee146101d95780639171491b14610218578063978bbdb91461028057806399a5d74714610288578063ad59c0f81461029b575f80fd5b806345596e2e116100fa57806345596e2e146101965780634c0a6804146101a95780636cf6d675146101bc5780637e0ee4f1146101c557806386fdd39f146101cf575f80fd5b806302a0d5e614610136578063114eaf5514610152578063182a7506146101675780631a7626e71461017a578063233e990314610183575b5f80fd5b61013f60045481565b6040519081526020015b60405180910390f35b61016561016036600461086b565b610329565b005b61016561017536600461086b565b6103a4565b61013f60015481565b61016561019136600461086b565b6103f4565b6101656101a436600461086b565b610444565b61013f6101b7366004610882565b610493565b61013f60035481565b61013f6201518081565b61013f62093a8081565b6102007f000000000000000000000000000000000000000000000000000000000000000081565b6040516001600160a01b039091168152602001610149565b6102206104f0565b60405161014991905f61010082019050825182526020830151602083015260408301516040830152606083015160608301526080830151608083015260a083015160a083015260c083015160c083015260e083015160e083015292915050565b61013f5f5481565b61013f61029636600461086b565b610580565b61013f6102a9366004610882565b6105b8565b6102c46102bc36600461086b565b600254111590565b6040519015158152602001610149565b6101656102e236600461086b565b6105fc565b61013f61271081565b61013f6103e881565b61013f60025481565b6102007f000000000000000000000000000000000000000000000000000000000000000081565b61033161066f565b600354811015610354576040516358bc6c4760e11b815260040160405180910390fd5b6003805490829055604080518281526020810184905242918101919091527fff65c15cd4ff822db29cf600b9d8eed0541bc59505cc63ac2869e19398bce812906060015b60405180910390a15050565b6103ac61066f565b6001805490829055604080518281526020810184905242918101919091527f537d8db5691d7c84713b717a1612c0287ad6f64e4592a4e5d76c99d231a16ce290606001610398565b6103fc61066f565b6002805490829055604080518281526020810184905242918101919091527f79f2d5d7ec7f0957db48deee0609856b303e31927488f2afc52996d59918c93590606001610398565b61044c61066f565b5f805490829055604080518281526020810184905242918101919091527f83e35c3e73f7713de354e131b34cefd5edc18271a6051c1be44445f7465a37fc90606001610398565b5f815f036104a257505f6104ea565b5f6104ad83806108a2565b90505f6127106103e86104c084886108a2565b6104ca91906108a2565b6104d491906108c5565b90508481116104e357806104e5565b845b925050505b92915050565b6105306040518061010001604052805f81526020015f81526020015f81526020015f81526020015f81526020015f81526020015f81526020015f81525090565b6040518061010001604052805f548152602001600154815260200160025481526020016003548152602001600454815260200162015180815260200162093a8081526020016103e8815250905090565b5f806127105f548461059291906108a2565b61059c91906108c5565b905060015481116105af576001546105b1565b805b9392505050565b5f815f036105c757505f6104ea565b5f612710600454846105d991906108a2565b6105e391906108c5565b90508084116105f257836105f4565b805b949350505050565b61060461066f565b61271081111561062757604051631de9adc160e31b815260040160405180910390fd5b6004805490829055604080518281526020810184905242918101919091527f56c7573fc09da286f35a63edfd0558a76b1e7d4bce6d3bc2d60edd28d3d78f8990606001610398565b5f7f00000000000000000000000000000000000000000000000000000000000000006001600160a01b031663dee5e55b6040518163ffffffff1660e01b8152600401602060405180830381865afa1580156106cc573d5f803e3d5ffd5b505050506040513d601f19601f820116820180604052508101906106f091906108e4565b90505f81600381111561070557610705610902565b14806107225750600181600381111561072057610720610902565b145b1561077357336001600160a01b037f000000000000000000000000000000000000000000000000000000000000000016146107705760405163ea8e4eb560e01b815260040160405180910390fd5b50565b600281600381111561078757610787610902565b0361085d575f61079a6004823681610916565b6107a39161093d565b604051637d7c0e1f60e01b81526001600160e01b0319821660048201523360248201529091507f00000000000000000000000000000000000000000000000000000000000000006001600160a01b031690637d7c0e1f90604401602060405180830381865afa158015610818573d5f803e3d5ffd5b505050506040513d601f19601f8201168201806040525081019061083c919061096d565b6108595760405163ea8e4eb560e01b815260040160405180910390fd5b5050565b5f61079a6004823681610916565b5f6020828403121561087b575f80fd5b5035919050565b5f8060408385031215610893575f80fd5b50508035926020909101359150565b80820281158282048414176104ea57634e487b7160e01b5f52601160045260245ffd5b5f826108df57634e487b7160e01b5f52601260045260245ffd5b500490565b5f602082840312156108f4575f80fd5b8151600481106105f2575f80fd5b634e487b7160e01b5f52602160045260245ffd5b5f8085851115610924575f80fd5b83861115610930575f80fd5b5050820193919092039150565b6001600160e01b031981358181169160048510156109655780818660040360031b1b83161692505b505092915050565b5f6020828403121561097d575f80fd5b815180151581146105f2575f80fdfea26469706673582212204f5e3dd1c50f2ee8823f8c05aebdd5d8e119199ef9306a1a1bfcf1622e8e8d3164736f6c63430008180033","linkReferences":{}},"methodIdentifiers":{"BASIS_POINTS()":"e1f1c4a7","EMERGENCY_TIME_LOCK()":"86fdd39f","NORMAL_TIME_LOCK()":"7e0ee4f1","SLASHING_RATE_BASE()":"e4ad3092","admin()":"f851a440","applyVotingPowerCap(uint256,uint256)":"ad59c0f8","calculateFee(uint256)":"99a5d747","calculateSlashing(uint256,uint256)":"4c0a6804","feeRate()":"978bbdb9","getAllParameters()":"9171491b","governanceSwitch()":"8eb827ee","isValidStake(uint256)":"c8ffa304","minimumFee()":"1a7626e7","minimumStake()":"ec5ffac2","setFeeRate(uint256)":"45596e2e","setMinimumFee(uint256)":"182a7506","setMinimumStake(uint256)":"233e9903","setUnbondingPeriod(uint256)":"114eaf55","setVotingPowerCap(uint256)":"cbb012bc","unbondingPeriod()":"6cf6d675","votingPowerCap()":"02a0d5e6"},"id":31}