{"abi":[{"type":"constructor","inputs":[{"name":"_stakingContract","type":"address","internalType":"address"},{"name":"_insuranceFund","type":"address","internalType":"address"},{"name":"admin","type":"address","internalType":"address"}],"stateMutability":"nonpayable"},{"type":"receive","stateMutability":"payable"},{"type":"function","name":"ADMIN_ROLE","inputs":[],"outputs":[{"name":"","type":"bytes32","internalType":"bytes32"}],"stateMutability":"view"},{"type":"function","name":"BASE_SLASH_PERCENT","inputs":[],"outputs":[{"name":"","type":"uint256","internalType":"uint256"}],"stateMutability":"view"},{"type":"function","name":"BURN_ADDRESS","inputs":[],"outputs":[{"name":"","type":"address","internalType":"address"}],"stateMutability":"view"},{"type":"function","name":"BURN_PERCENT","inputs":[],"outputs":[{"name":"","type":"uint256","internalType":"uint256"}],"stateMutability":"view"},{"type":"function","name":"CHALLENGER_REWARD_PERCENT","inputs":[],"outputs":[{"name":"","type":"uint256","internalType":"uint256"}],"stateMutability":"view"},{"type":"function","name":"CHALLENGE_BOND","inputs":[],"outputs":[{"name":"","type":"uint256","internalType":"uint256"}],"stateMutability":"view"},{"type":"function","name":"DEFAULT_ADMIN_ROLE","inputs":[],"outputs":[{"name":"","type":"bytes32","internalType":"bytes32"}],"stateMutability":"view"},{"type":"function","name":"HEALTH_MONITOR_ROLE","inputs":[],"outputs":[{"name":"","type":"bytes32","internalType":"bytes32"}],"stateMutability":"view"},{"type":"function","name":"INSURANCE_PERCENT","inputs":[],"outputs":[{"name":"","type":"uint256","internalType":"uint256"}],"stateMutability":"view"},{"type":"function","name":"calculateSlash","inputs":[{"name":"stake","type":"uint256","internalType":"uint256"},{"name":"violationCount","type":"uint256","internalType":"uint256"}],"outputs":[{"name":"","type":"uint256","internalType":"uint256"}],"stateMutability":"pure"},{"type":"function","name":"getInsuranceFund","inputs":[],"outputs":[{"name":"","type":"address","internalType":"address"}],"stateMutability":"view"},{"type":"function","name":"getRoleAdmin","inputs":[{"name":"role","type":"bytes32","internalType":"bytes32"}],"outputs":[{"name":"","type":"bytes32","internalType":"bytes32"}],"stateMutability":"view"},{"type":"function","name":"getViolationCount","inputs":[{"name":"sequencer","type":"address","internalType":"address"}],"outputs":[{"name":"","type":"uint256","internalType":"uint256"}],"stateMutability":"view"},{"type":"function","name":"getViolationRecords","inputs":[{"name":"sequencer","type":"address","internalType":"address"}],"outputs":[{"name":"","type":"tuple[]","internalType":"struct ISequencerSlashing.ViolationRecord[]","components":[{"name":"violationType","type":"uint8","internalType":"enum ISequencerSlashing.ViolationType"},{"name":"timestamp","type":"uint256","internalType":"uint256"},{"name":"slashAmount","type":"uint256","internalType":"uint256"},{"name":"challenger","type":"address","internalType":"address"}]}],"stateMutability":"view"},{"type":"function","name":"grantRole","inputs":[{"name":"role","type":"bytes32","internalType":"bytes32"},{"name":"account","type":"address","internalType":"address"}],"outputs":[],"stateMutability":"nonpayable"},{"type":"function","name":"hasRole","inputs":[{"name":"role","type":"bytes32","internalType":"bytes32"},{"name":"account","type":"address","internalType":"address"}],"outputs":[{"name":"","type":"bool","internalType":"bool"}],"stateMutability":"view"},{"type":"function","name":"insuranceFund","inputs":[],"outputs":[{"name":"","type":"address","internalType":"address"}],"stateMutability":"view"},{"type":"function","name":"renounceRole","inputs":[{"name":"role","type":"bytes32","internalType":"bytes32"},{"name":"callerConfirmation","type":"address","internalType":"address"}],"outputs":[],"stateMutability":"nonpayable"},{"type":"function","name":"reportDoubleSign","inputs":[{"name":"sequencer","type":"address","internalType":"address"},{"name":"proof","type":"bytes","internalType":"bytes"}],"outputs":[],"stateMutability":"payable"},{"type":"function","name":"reportDowntime","inputs":[{"name":"sequencer","type":"address","internalType":"address"}],"outputs":[],"stateMutability":"nonpayable"},{"type":"function","name":"reportInvalidStateRoot","inputs":[{"name":"sequencer","type":"address","internalType":"address"},{"name":"proof","type":"bytes","internalType":"bytes"}],"outputs":[],"stateMutability":"payable"},{"type":"function","name":"revokeRole","inputs":[{"name":"role","type":"bytes32","internalType":"bytes32"},{"name":"account","type":"address","internalType":"address"}],"outputs":[],"stateMutability":"nonpayable"},{"type":"function","name":"setAuthorizedMonitor","inputs":[{"name":"monitor","type":"address","internalType":"address"},{"name":"authorized","type":"bool","internalType":"bool"}],"outputs":[],"stateMutability":"nonpayable"},{"type":"function","name":"setChallengeBond","inputs":[{"name":"","type":"uint256","internalType":"uint256"}],"outputs":[],"stateMutability":"view"},{"type":"function","name":"setInsuranceFund","inputs":[{"name":"newFund","type":"address","internalType":"address"}],"outputs":[],"stateMutability":"nonpayable"},{"type":"function","name":"stakingContract","inputs":[],"outputs":[{"name":"","type":"address","internalType":"contract ISequencerStaking"}],"stateMutability":"view"},{"type":"function","name":"supportsInterface","inputs":[{"name":"interfaceId","type":"bytes4","internalType":"bytes4"}],"outputs":[{"name":"","type":"bool","internalType":"bool"}],"stateMutability":"view"},{"type":"function","name":"totalBurned","inputs":[],"outputs":[{"name":"","type":"uint256","internalType":"uint256"}],"stateMutability":"view"},{"type":"event","name":"ChallengeBondUpdated","inputs":[{"name":"newBond","type":"uint256","indexed":false,"internalType":"uint256"}],"anonymous":false},{"type":"event","name":"DoubleSignReported","inputs":[{"name":"sequencer","type":"address","indexed":true,"internalType":"address"},{"name":"challenger","type":"address","indexed":true,"internalType":"address"},{"name":"slashAmount","type":"uint256","indexed":false,"internalType":"uint256"},{"name":"violationCount","type":"uint256","indexed":false,"internalType":"uint256"}],"anonymous":false},{"type":"event","name":"DowntimeReported","inputs":[{"name":"sequencer","type":"address","indexed":true,"internalType":"address"},{"name":"slashAmount","type":"uint256","indexed":false,"internalType":"uint256"},{"name":"violationCount","type":"uint256","indexed":false,"internalType":"uint256"}],"anonymous":false},{"type":"event","name":"InsuranceFundUpdated","inputs":[{"name":"newFund","type":"address","indexed":true,"internalType":"address"}],"anonymous":false},{"type":"event","name":"RoleAdminChanged","inputs":[{"name":"role","type":"bytes32","indexed":true,"internalType":"bytes32"},{"name":"previousAdminRole","type":"bytes32","indexed":true,"internalType":"bytes32"},{"name":"newAdminRole","type":"bytes32","indexed":true,"internalType":"bytes32"}],"anonymous":false},{"type":"event","name":"RoleGranted","inputs":[{"name":"role","type":"bytes32","indexed":true,"internalType":"bytes32"},{"name":"account","type":"address","indexed":true,"internalType":"address"},{"name":"sender","type":"address","indexed":true,"internalType":"address"}],"anonymous":false},{"type":"event","name":"RoleRevoked","inputs":[{"name":"role","type":"bytes32","indexed":true,"internalType":"bytes32"},{"name":"account","type":"address","indexed":true,"internalType":"address"},{"name":"sender","type":"address","indexed":true,"internalType":"address"}],"anonymous":false},{"type":"event","name":"SlashDistributed","inputs":[{"name":"sequencer","type":"address","indexed":true,"internalType":"address"},{"name":"challengerReward","type":"uint256","indexed":false,"internalType":"uint256"},{"name":"insuranceAmount","type":"uint256","indexed":false,"internalType":"uint256"},{"name":"burnedAmount","type":"uint256","indexed":false,"internalType":"uint256"}],"anonymous":false},{"type":"error","name":"AccessControlBadConfirmation","inputs":[]},{"type":"error","name":"AccessControlUnauthorizedAccount","inputs":[{"name":"account","type":"address","internalType":"address"},{"name":"neededRole","type":"bytes32","internalType":"bytes32"}]},{"type":"error","name":"ReentrancyGuardReentrantCall","inputs":[]}],"bytecode":{"object":"0x608060405234801562000010575f80fd5b50604051620019e0380380620019e083398101604081905262000033916200022c565b60017f9b779b17422d0df92223018b32b4d1fa46e071723d6817e2486d003becc55f00556001600160a01b038316620000a55760405162461bcd60e51b815260206004820152600f60248201526e496e76616c6964207374616b696e6760881b60448201526064015b60405180910390fd5b6001600160a01b038216620000f15760405162461bcd60e51b8152602060048201526011602482015270496e76616c696420696e737572616e636560781b60448201526064016200009c565b600180546001600160a01b038086166001600160a01b03199283161790925560028054928516929091169190911790556200012d5f8262000164565b506200015a7fa49807205ce4d355092ef5a8a18f56e8913cf4a201fbe287825b095693c217758262000164565b5050505062000273565b5f828152602081815260408083206001600160a01b038516845290915281205460ff1662000207575f838152602081815260408083206001600160a01b03861684529091529020805460ff19166001179055620001be3390565b6001600160a01b0316826001600160a01b0316847f2f8788117e7eff1d82e926ec794901d17c78024a50270940304540a733656f0d60405160405180910390a45060016200020a565b505f5b92915050565b80516001600160a01b038116811462000227575f80fd5b919050565b5f805f606084860312156200023f575f80fd5b6200024a8462000210565b92506200025a6020850162000210565b91506200026a6040850162000210565b90509250925092565b61175f80620002815f395ff3fe6080604052600436106101b2575f3560e01c80639790ce71116100e7578063d547741f11610087578063f5d00eab11610062578063f5d00eab14610497578063f8c92bba146104b6578063fccc2813146104ea578063fe0cab21146104ff575f80fd5b8063d547741f14610444578063d89135cd14610463578063ee99205c14610478575f80fd5b8063b7902303116100c2578063b7902303146103d4578063bfdd631c146103f3578063c1998be314610406578063c3c0529314610425575f80fd5b80639790ce71146103a65780639c986764146102fe578063a217fddf146103c1575f80fd5b806338c7c57e116101525780636d30f5331161012d5780636d30f5331461032857806375b238fc146103475780638fb55aa71461036757806391d1485414610387575f80fd5b806338c7c57e146102d257806346237407146102fe578063489cfb9614610313575f80fd5b8063248a9ca31161018d578063248a9ca3146102435780632975fd3b1461027f5780632f2ff15d1461029457806336568abe146102b3575f80fd5b806301ffc9a7146101bd578063158626f7146101f157806318c281a614610222575f80fd5b366101b957005b5f80fd5b3480156101c8575f80fd5b506101dc6101d73660046112fe565b610512565b60405190151581526020015b60405180910390f35b3480156101fc575f80fd5b506002546001600160a01b03165b6040516001600160a01b0390911681526020016101e8565b34801561022d575f80fd5b5061024161023c366004611325565b610548565b005b34801561024e575f80fd5b5061027161025d366004611325565b5f9081526020819052604090206001015490565b6040519081526020016101e8565b34801561028a575f80fd5b5061027161177081565b34801561029f575f80fd5b506102416102ae366004611350565b61059e565b3480156102be575f80fd5b506102416102cd366004611350565b6105c8565b3480156102dd575f80fd5b506102f16102ec36600461137e565b610600565b6040516101e891906113ad565b348015610309575f80fd5b506102716107d081565b34801561031e575f80fd5b506102716103e881565b348015610333575f80fd5b5061024161034236600461137e565b6106cc565b348015610352575f80fd5b506102715f8051602061170a83398151915281565b348015610372575f80fd5b506102715f805160206116ea83398151915281565b348015610392575f80fd5b506101dc6103a1366004611350565b6106f3565b3480156103b1575f80fd5b5061027167016345785d8a000081565b3480156103cc575f80fd5b506102715f81565b3480156103df575f80fd5b5060025461020a906001600160a01b031681565b610241610401366004611436565b61071b565b348015610411575f80fd5b506102416104203660046114b4565b61087d565b348015610430575f80fd5b5061024161043f36600461137e565b6108c8565b34801561044f575f80fd5b5061024161045e366004611350565b610971565b34801561046e575f80fd5b5061027160065481565b348015610483575f80fd5b5060015461020a906001600160a01b031681565b3480156104a2575f80fd5b506102716104b13660046114e4565b610995565b3480156104c1575f80fd5b506102716104d036600461137e565b6001600160a01b03165f9081526003602052604090205490565b3480156104f5575f80fd5b5061020a61dead81565b61024161050d366004611436565b6109a7565b5f6001600160e01b03198216637965db0b60e01b148061054257506301ffc9a760e01b6001600160e01b03198316145b92915050565b5f8051602061170a83398151915261055f81610a4e565b60405162461bcd60e51b815260206004820152600f60248201526e496d6d757461626c6520696e20763160881b60448201526064015b60405180910390fd5b5f828152602081905260409020600101546105b881610a4e565b6105c28383610a5b565b50505050565b6001600160a01b03811633146105f15760405163334bd91960e11b815260040160405180910390fd5b6105fb8282610aea565b505050565b6001600160a01b0381165f908152600460209081526040808320805482518185028101850190935280835260609492939192909184015b828210156106c1575f848152602090206040805160808101909152600484029091018054829060ff16600381111561067157610671611399565b600381111561068257610682611399565b8152600182810154602080840191909152600284015460408401526003909301546001600160a01b031660609092019190915291835292019101610637565b505050509050919050565b5f805160206116ea8339815191526106e381610a4e565b6106ef8260015f610b53565b5050565b5f918252602082815260408084206001600160a01b0393909316845291905290205460ff1690565b610723610e24565b67016345785d8a000034101561076f5760405162461bcd60e51b8152602060048201526011602482015270125b9cdd59999a58da595b9d08189bdb99607a1b6044820152606401610595565b61077a838383610e52565b6107b65760405162461bcd60e51b815260206004820152600d60248201526c24b73b30b634b210383937b7b360991b6044820152606401610595565b6107c1835f33610b53565b6040515f90339067016345785d8a0000908381818185875af1925050503d805f8114610808576040519150601f19603f3d011682016040523d82523d5f602084013e61080d565b606091505b50509050806108535760405162461bcd60e51b8152602060048201526012602482015271109bdb99081c995d1d5c9b8819985a5b195960721b6044820152606401610595565b506105fb60017f9b779b17422d0df92223018b32b4d1fa46e071723d6817e2486d003becc55f0055565b5f8051602061170a83398151915261089481610a4e565b81156108b1576105c25f805160206116ea83398151915284610a5b565b6105c25f805160206116ea83398151915284610aea565b5f8051602061170a8339815191526108df81610a4e565b6001600160a01b0382166109275760405162461bcd60e51b815260206004820152600f60248201526e496e76616c6964206164647265737360881b6044820152606401610595565b600280546001600160a01b0319166001600160a01b0384169081179091556040517f7aa78e1baf57af40dede9e6b906523dcd0de972d7ed5e1961f0fcc2b9cf19f00905f90a25050565b5f8281526020819052604090206001015461098b81610a4e565b6105c28383610aea565b5f6109a08383610ed4565b9392505050565b6109af610e24565b67016345785d8a00003410156109fb5760405162461bcd60e51b8152602060048201526011602482015270125b9cdd59999a58da595b9d08189bdb99607a1b6044820152606401610595565b610a06838383610f26565b610a425760405162461bcd60e51b815260206004820152600d60248201526c24b73b30b634b210383937b7b360991b6044820152606401610595565b6107c183600233610b53565b610a588133610fc3565b50565b5f610a6683836106f3565b610ae3575f838152602081815260408083206001600160a01b03861684529091529020805460ff19166001179055610a9b3390565b6001600160a01b0316826001600160a01b0316847f2f8788117e7eff1d82e926ec794901d17c78024a50270940304540a733656f0d60405160405180910390a4506001610542565b505f610542565b5f610af583836106f3565b15610ae3575f838152602081815260408083206001600160a01b0386168085529252808320805460ff1916905551339286917ff6391f5c32d9c69d2a47ea670b442974b53935d1edc7fd64eb21e047a839171b9190a4506001610542565b6001600160a01b0383165f908152600360205260408120805491610b7683611518565b90915550506001600160a01b038381165f818152600360205260408082205460015491516303d3b32360e51b81526004810194909452939192911690637a76646090602401602060405180830381865afa158015610bd6573d5f803e3d5ffd5b505050506040513d601f19601f82011682018060405250810190610bfa9190611530565b90505f610c078284610ed4565b6001546040516302fb4d8560e01b81526001600160a01b038981166004830152602482018490529293509116906302fb4d85906044015f604051808303815f87803b158015610c54575f80fd5b505af1158015610c66573d5f803e3d5ffd5b5050506001600160a01b0387165f9081526004602052604090819020815160808101909252915080876003811115610ca057610ca0611399565b815242602080830191909152604082018590526001600160a01b0388166060909201919091528254600181810185555f9485529190932082516004909402018054929390929091839160ff191690836003811115610d0057610d00611399565b02179055506020820151600182015560408201516002820155606090910151600390910180546001600160a01b0319166001600160a01b03909216919091179055610d4b8185610ffc565b5f856003811115610d5e57610d5e611399565b03610dbe57836001600160a01b0316866001600160a01b03167f4449938b4d9f21ac7d9d829c8778dd0d2290371df6dd7de5f1ccc950580ce21e8386604051610db1929190918252602082015260400190565b60405180910390a3610e1c565b6001856003811115610dd257610dd2611399565b03610e1c5760408051828152602081018590526001600160a01b038816917fd7a347efb1959d1030c1f576ea3d30fbe4f58bc18c26dc917f59a855f0a2e294910160405180910390a25b505050505050565b610e2c6112ba565b60027f9b779b17422d0df92223018b32b4d1fa46e071723d6817e2486d003becc55f0055565b5f6064821015610e6357505f6109a0565b5f808080610e7386880188611547565b9350935093509350876001600160a01b0316846001600160a01b031614610ea0575f9450505050506109a0565b808203610eb3575f9450505050506109a0565b825f03610ec6575f9450505050506109a0565b506001979650505050505050565b5f815f03610ee357505f610542565b5f610eee838061157f565b610ef990600a61157f565b90506064811115610f08575060645b6064610f14828661157f565b610f1e9190611596565b949350505050565b5f6080821015610f3757505f6109a0565b5f80808080610f4887890189611652565b94509450945094509450886001600160a01b0316856001600160a01b031614610f78575f955050505050506109a0565b831580610f83575082155b15610f95575f955050505050506109a0565b81511580610fa257508051155b15610fb4575f955050505050506109a0565b50600198975050505050505050565b610fcd82826106f3565b6106ef5760405163e2517d3f60e01b81526001600160a01b038216600482015260248101839052604401610595565b5f8061271061100d6107d08661157f565b6110179190611596565b90505f6127106110296107d08761157f565b6110339190611596565b90506001600160a01b03841615611104576127106110536117708761157f565b61105d9190611596565b92505f846001600160a01b0316846040515f6040518083038185875af1925050503d805f81146110a8576040519150601f19603f3d011682016040523d82523d5f602084013e6110ad565b606091505b50509050806110fe5760405162461bcd60e51b815260206004820152601860248201527f4368616c6c656e67657220726577617264206661696c656400000000000000006044820152606401610595565b5061112a565b6127106111136117708761157f565b61111d9190611596565b61112790836116d6565b91505b6002546040515f916001600160a01b03169084908381818185875af1925050503d805f8114611174576040519150601f19603f3d011682016040523d82523d5f602084013e611179565b606091505b50509050806111ca5760405162461bcd60e51b815260206004820152601960248201527f496e737572616e6365207472616e73666572206661696c6564000000000000006044820152606401610595565b6040515f9061dead9084908381818185875af1925050503d805f811461120b576040519150601f19603f3d011682016040523d82523d5f602084013e611210565b606091505b50509050806112585760405162461bcd60e51b8152602060048201526014602482015273109d5c9b881d1c985b9cd9995c8819985a5b195960621b6044820152606401610595565b8260065f82825461126991906116d6565b9091555050604080518681526020810186905290810184905233907f887162e32eaf5070c7712bca7d916cd8572a13a86ce1032776bad520b889ed2e9060600160405180910390a250505050505050565b7f9b779b17422d0df92223018b32b4d1fa46e071723d6817e2486d003becc55f00546002036112fc57604051633ee5aeb560e01b815260040160405180910390fd5b565b5f6020828403121561130e575f80fd5b81356001600160e01b0319811681146109a0575f80fd5b5f60208284031215611335575f80fd5b5035919050565b6001600160a01b0381168114610a58575f80fd5b5f8060408385031215611361575f80fd5b8235915060208301356113738161133c565b809150509250929050565b5f6020828403121561138e575f80fd5b81356109a08161133c565b634e487b7160e01b5f52602160045260245ffd5b602080825282518282018190525f919060409081850190868401855b82811015611429578151805160048082106113f157634e487b7160e01b5f526021815260245ffd5b508552808701518786015285810151868601526060908101516001600160a01b031690850152608090930192908501906001016113c9565b5091979650505050505050565b5f805f60408486031215611448575f80fd5b83356114538161133c565b9250602084013567ffffffffffffffff8082111561146f575f80fd5b818601915086601f830112611482575f80fd5b813581811115611490575f80fd5b8760208285010111156114a1575f80fd5b6020830194508093505050509250925092565b5f80604083850312156114c5575f80fd5b82356114d08161133c565b915060208301358015158114611373575f80fd5b5f80604083850312156114f5575f80fd5b50508035926020909101359150565b634e487b7160e01b5f52601160045260245ffd5b5f6001820161152957611529611504565b5060010190565b5f60208284031215611540575f80fd5b5051919050565b5f805f806080858703121561155a575f80fd5b84356115658161133c565b966020860135965060408601359560600135945092505050565b808202811582820484141761054257610542611504565b5f826115b057634e487b7160e01b5f52601260045260245ffd5b500490565b634e487b7160e01b5f52604160045260245ffd5b5f82601f8301126115d8575f80fd5b813567ffffffffffffffff808211156115f3576115f36115b5565b604051601f8301601f19908116603f0116810190828211818310171561161b5761161b6115b5565b81604052838152866020858801011115611633575f80fd5b836020870160208301375f602085830101528094505050505092915050565b5f805f805f60a08688031215611666575f80fd5b85356116718161133c565b94506020860135935060408601359250606086013567ffffffffffffffff8082111561169b575f80fd5b6116a789838a016115c9565b935060808801359150808211156116bc575f80fd5b506116c9888289016115c9565b9150509295509295909350565b808201808211156105425761054261150456fe1f530620f59dd4478a0d470ae5cf0ccd4496058a01876872466d1b4621488faea49807205ce4d355092ef5a8a18f56e8913cf4a201fbe287825b095693c21775a26469706673582212203ed8571f793d99d157d26e1e295e26fefc6baf8d1c952b139397402dd5b15d5264736f6c63430008180033","linkReferences":{}},"methodIdentifiers":{"ADMIN_ROLE()":"75b238fc","BASE_SLASH_PERCENT()":"489cfb96","BURN_ADDRESS()":"fccc2813","BURN_PERCENT()":"9c986764","CHALLENGER_REWARD_PERCENT()":"2975fd3b","CHALLENGE_BOND()":"9790ce71","DEFAULT_ADMIN_ROLE()":"a217fddf","HEALTH_MONITOR_ROLE()":"8fb55aa7","INSURANCE_PERCENT()":"46237407","calculateSlash(uint256,uint256)":"f5d00eab","getInsuranceFund()":"158626f7","getRoleAdmin(bytes32)":"248a9ca3","getViolationCount(address)":"f8c92bba","getViolationRecords(address)":"38c7c57e","grantRole(bytes32,address)":"2f2ff15d","hasRole(bytes32,address)":"91d14854","insuranceFund()":"b7902303","renounceRole(bytes32,address)":"36568abe","reportDoubleSign(address,bytes)":"bfdd631c","reportDowntime(address)":"6d30f533","reportInvalidStateRoot(address,bytes)":"fe0cab21","revokeRole(bytes32,address)":"d547741f","setAuthorizedMonitor(address,bool)":"c1998be3","setChallengeBond(uint256)":"18c281a6","setInsuranceFund(address)":"c3c05293","stakingContract()":"ee99205c","supportsInterface(bytes4)":"01ffc9a7","totalBurned()":"d89135cd"},"id":91}