{"abi":[{"type":"constructor","inputs":[{"name":"_securityCouncil","type":"address","internalType":"address"},{"name":"_sphincsVerifier","type":"address","internalType":"address"}],"stateMutability":"nonpayable"},{"type":"receive","stateMutability":"payable"},{"type":"function","name":"CHALLENGE_BOND_PERCENT","inputs":[],"outputs":[{"name":"","type":"uint256","internalType":"uint256"}],"stateMutability":"view"},{"type":"function","name":"CHALLENGE_PERIOD","inputs":[],"outputs":[{"name":"","type":"uint256","internalType":"uint256"}],"stateMutability":"view"},{"type":"function","name":"DEFAULT_LOCK_EXPIRY","inputs":[],"outputs":[{"name":"","type":"uint256","internalType":"uint256"}],"stateMutability":"view"},{"type":"function","name":"DEFENSE_PERIOD","inputs":[],"outputs":[{"name":"","type":"uint256","internalType":"uint256"}],"stateMutability":"view"},{"type":"function","name":"EMERGENCY_BOND_PERCENT","inputs":[],"outputs":[{"name":"","type":"uint256","internalType":"uint256"}],"stateMutability":"view"},{"type":"function","name":"EMERGENCY_TIME_LOCK","inputs":[],"outputs":[{"name":"","type":"uint256","internalType":"uint256"}],"stateMutability":"view"},{"type":"function","name":"MIN_CHALLENGE_BOND","inputs":[],"outputs":[{"name":"","type":"uint256","internalType":"uint256"}],"stateMutability":"view"},{"type":"function","name":"MIN_EMERGENCY_BOND","inputs":[],"outputs":[{"name":"","type":"uint256","internalType":"uint256"}],"stateMutability":"view"},{"type":"function","name":"MIN_LOCK_AMOUNT","inputs":[],"outputs":[{"name":"","type":"uint256","internalType":"uint256"}],"stateMutability":"view"},{"type":"function","name":"NORMAL_TIME_LOCK","inputs":[],"outputs":[{"name":"","type":"uint256","internalType":"uint256"}],"stateMutability":"view"},{"type":"function","name":"PROVER_TIMEOUT","inputs":[],"outputs":[{"name":"","type":"uint256","internalType":"uint256"}],"stateMutability":"view"},{"type":"function","name":"REQUIRED_SIGNATURES","inputs":[],"outputs":[{"name":"","type":"uint256","internalType":"uint256"}],"stateMutability":"view"},{"type":"function","name":"SLASH_BURN_PERCENT","inputs":[],"outputs":[{"name":"","type":"uint256","internalType":"uint256"}],"stateMutability":"view"},{"type":"function","name":"SLASH_CHALLENGER_PERCENT","inputs":[],"outputs":[{"name":"","type":"uint256","internalType":"uint256"}],"stateMutability":"view"},{"type":"function","name":"SLASH_INSURANCE_PERCENT","inputs":[],"outputs":[{"name":"","type":"uint256","internalType":"uint256"}],"stateMutability":"view"},{"type":"function","name":"TOTAL_PROVERS","inputs":[],"outputs":[{"name":"","type":"uint256","internalType":"uint256"}],"stateMutability":"view"},{"type":"function","name":"TVL_CAP","inputs":[],"outputs":[{"name":"","type":"uint256","internalType":"uint256"}],"stateMutability":"view"},{"type":"function","name":"activeProvers","inputs":[{"name":"","type":"uint256","internalType":"uint256"}],"outputs":[{"name":"","type":"address","internalType":"address"}],"stateMutability":"view"},{"type":"function","name":"autoResolveChallenge","inputs":[{"name":"lockId","type":"bytes32","internalType":"bytes32"}],"outputs":[],"stateMutability":"nonpayable"},{"type":"function","name":"calculateChallengeBond","inputs":[{"name":"amount","type":"uint256","internalType":"uint256"}],"outputs":[{"name":"","type":"uint256","internalType":"uint256"}],"stateMutability":"pure"},{"type":"function","name":"calculateEmergencyBond","inputs":[{"name":"amount","type":"uint256","internalType":"uint256"}],"outputs":[{"name":"","type":"uint256","internalType":"uint256"}],"stateMutability":"pure"},{"type":"function","name":"challenge","inputs":[{"name":"lockId","type":"bytes32","internalType":"bytes32"},{"name":"fraudProof","type":"bytes","internalType":"bytes"}],"outputs":[],"stateMutability":"payable"},{"type":"function","name":"challenges","inputs":[{"name":"","type":"bytes32","internalType":"bytes32"}],"outputs":[{"name":"lockId","type":"bytes32","internalType":"bytes32"},{"name":"challenger","type":"address","internalType":"address"},{"name":"fraudProofHash","type":"bytes32","internalType":"bytes32"},{"name":"challengedAt","type":"uint256","internalType":"uint256"},{"name":"status","type":"uint8","internalType":"enum L1Vault.ChallengeStatus"},{"name":"bond","type":"uint256","internalType":"uint256"},{"name":"defenseDeadline","type":"uint256","internalType":"uint256"},{"name":"defenseProofHash","type":"bytes32","internalType":"bytes32"},{"name":"defender","type":"address","internalType":"address"}],"stateMutability":"view"},{"type":"function","name":"checkProverTimeout","inputs":[{"name":"lockId","type":"bytes32","internalType":"bytes32"}],"outputs":[{"name":"isTimedOut","type":"bool","internalType":"bool"},{"name":"proverRequestedAt","type":"uint256","internalType":"uint256"},{"name":"timeRemaining","type":"uint256","internalType":"uint256"}],"stateMutability":"view"},{"type":"function","name":"computeStateRoot","inputs":[{"name":"chainId","type":"uint256","internalType":"uint256"},{"name":"asset","type":"address","internalType":"address"},{"name":"amount","type":"uint256","internalType":"uint256"},{"name":"destAddr","type":"address","internalType":"address"},{"name":"expiry","type":"uint256","internalType":"uint256"},{"name":"nonce","type":"uint256","internalType":"uint256"},{"name":"pkDilithium","type":"bytes32","internalType":"bytes32"}],"outputs":[{"name":"","type":"bytes32","internalType":"bytes32"}],"stateMutability":"pure"},{"type":"function","name":"computeUnlockStateRoot","inputs":[{"name":"sr0","type":"bytes32","internalType":"bytes32"},{"name":"lockId","type":"bytes32","internalType":"bytes32"},{"name":"destAddr","type":"address","internalType":"address"},{"name":"amount","type":"uint256","internalType":"uint256"},{"name":"nonce","type":"uint256","internalType":"uint256"}],"outputs":[{"name":"","type":"bytes32","internalType":"bytes32"}],"stateMutability":"pure"},{"type":"function","name":"currentStateRoot","inputs":[],"outputs":[{"name":"","type":"bytes32","internalType":"bytes32"}],"stateMutability":"view"},{"type":"function","name":"emergencyUnlocks","inputs":[{"name":"","type":"bytes32","internalType":"bytes32"}],"outputs":[{"name":"lockId","type":"bytes32","internalType":"bytes32"},{"name":"initiator","type":"address","internalType":"address"},{"name":"bondAmount","type":"uint256","internalType":"uint256"},{"name":"initiatedAt","type":"uint256","internalType":"uint256"},{"name":"emergencyReadyAt","type":"uint256","internalType":"uint256"},{"name":"status","type":"uint8","internalType":"enum L1Vault.EmergencyStatus"},{"name":"enhancedMonitoring","type":"bool","internalType":"bool"},{"name":"fromTimeout","type":"bool","internalType":"bool"}],"stateMutability":"view"},{"type":"function","name":"enhancedMonitoring","inputs":[{"name":"","type":"bytes32","internalType":"bytes32"}],"outputs":[{"name":"","type":"bool","internalType":"bool"}],"stateMutability":"view"},{"type":"function","name":"executeUnlock","inputs":[{"name":"lockId","type":"bytes32","internalType":"bytes32"}],"outputs":[],"stateMutability":"nonpayable"},{"type":"function","name":"getActiveProverCount","inputs":[],"outputs":[{"name":"","type":"uint256","internalType":"uint256"}],"stateMutability":"view"},{"type":"function","name":"getChallenge","inputs":[{"name":"lockId","type":"bytes32","internalType":"bytes32"}],"outputs":[{"name":"","type":"tuple","internalType":"struct L1Vault.Challenge","components":[{"name":"lockId","type":"bytes32","internalType":"bytes32"},{"name":"challenger","type":"address","internalType":"address"},{"name":"fraudProofHash","type":"bytes32","internalType":"bytes32"},{"name":"challengedAt","type":"uint256","internalType":"uint256"},{"name":"status","type":"uint8","internalType":"enum L1Vault.ChallengeStatus"},{"name":"bond","type":"uint256","internalType":"uint256"},{"name":"defenseDeadline","type":"uint256","internalType":"uint256"},{"name":"defenseProofHash","type":"bytes32","internalType":"bytes32"},{"name":"defender","type":"address","internalType":"address"}]}],"stateMutability":"view"},{"type":"function","name":"getEmergencyUnlock","inputs":[{"name":"lockId","type":"bytes32","internalType":"bytes32"}],"outputs":[{"name":"","type":"tuple","internalType":"struct L1Vault.EmergencyUnlock","components":[{"name":"lockId","type":"bytes32","internalType":"bytes32"},{"name":"initiator","type":"address","internalType":"address"},{"name":"bondAmount","type":"uint256","internalType":"uint256"},{"name":"initiatedAt","type":"uint256","internalType":"uint256"},{"name":"emergencyReadyAt","type":"uint256","internalType":"uint256"},{"name":"status","type":"uint8","internalType":"enum L1Vault.EmergencyStatus"},{"name":"enhancedMonitoring","type":"bool","internalType":"bool"},{"name":"fromTimeout","type":"bool","internalType":"bool"}]}],"stateMutability":"view"},{"type":"function","name":"getLock","inputs":[{"name":"lockId","type":"bytes32","internalType":"bytes32"}],"outputs":[{"name":"","type":"tuple","internalType":"struct L1Vault.Lock","components":[{"name":"sender","type":"address","internalType":"address"},{"name":"recipient","type":"address","internalType":"address"},{"name":"amount","type":"uint256","internalType":"uint256"},{"name":"dilithiumPubKeyHash","type":"bytes32","internalType":"bytes32"},{"name":"lockedAt","type":"uint256","internalType":"uint256"},{"name":"status","type":"uint8","internalType":"enum L1Vault.LockStatus"},{"name":"stateRoot","type":"bytes32","internalType":"bytes32"},{"name":"expiry","type":"uint256","internalType":"uint256"},{"name":"nonce","type":"uint256","internalType":"uint256"}]}],"stateMutability":"view"},{"type":"function","name":"getProver","inputs":[{"name":"proverAddress","type":"address","internalType":"address"}],"outputs":[{"name":"","type":"tuple","internalType":"struct L1Vault.Prover","components":[{"name":"proverAddress","type":"address","internalType":"address"},{"name":"sphincsPubKeyHash","type":"bytes32","internalType":"bytes32"},{"name":"sphincsPublicKey","type":"bytes","internalType":"bytes"},{"name":"stakedAmount","type":"uint256","internalType":"uint256"},{"name":"registeredAt","type":"uint256","internalType":"uint256"},{"name":"isActive","type":"bool","internalType":"bool"},{"name":"successfulSigns","type":"uint256","internalType":"uint256"},{"name":"slashedCount","type":"uint256","internalType":"uint256"}]}],"stateMutability":"view"},{"type":"function","name":"getSPHINCSVerifier","inputs":[],"outputs":[{"name":"","type":"address","internalType":"address"}],"stateMutability":"view"},{"type":"function","name":"getSlashingDistribution","inputs":[],"outputs":[{"name":"challenger","type":"uint256","internalType":"uint256"},{"name":"insurance","type":"uint256","internalType":"uint256"},{"name":"burn","type":"uint256","internalType":"uint256"}],"stateMutability":"pure"},{"type":"function","name":"getUnlockRequest","inputs":[{"name":"lockId","type":"bytes32","internalType":"bytes32"}],"outputs":[{"name":"","type":"tuple","internalType":"struct L1Vault.UnlockRequest","components":[{"name":"lockId","type":"bytes32","internalType":"bytes32"},{"name":"recipient","type":"address","internalType":"address"},{"name":"amount","type":"uint256","internalType":"uint256"},{"name":"stateRoot","type":"bytes32","internalType":"bytes32"},{"name":"unlockStateRoot","type":"bytes32","internalType":"bytes32"},{"name":"requestedAt","type":"uint256","internalType":"uint256"},{"name":"unlockableAt","type":"uint256","internalType":"uint256"},{"name":"isEmergency","type":"bool","internalType":"bool"},{"name":"bond","type":"uint256","internalType":"uint256"},{"name":"signatureCount","type":"uint256","internalType":"uint256"},{"name":"unlockNonce","type":"uint256","internalType":"uint256"},{"name":"proverRequestedAt","type":"uint256","internalType":"uint256"},{"name":"emergencyReadyAt","type":"uint256","internalType":"uint256"}]}],"stateMutability":"view"},{"type":"function","name":"initiateEmergencyFromTimeout","inputs":[{"name":"lockId","type":"bytes32","internalType":"bytes32"}],"outputs":[],"stateMutability":"payable"},{"type":"function","name":"insuranceFund","inputs":[],"outputs":[{"name":"","type":"uint256","internalType":"uint256"}],"stateMutability":"view"},{"type":"function","name":"isEnhancedMonitoring","inputs":[{"name":"lockId","type":"bytes32","internalType":"bytes32"}],"outputs":[{"name":"","type":"bool","internalType":"bool"}],"stateMutability":"view"},{"type":"function","name":"isFullVerificationEnabled","inputs":[],"outputs":[{"name":"","type":"bool","internalType":"bool"}],"stateMutability":"view"},{"type":"function","name":"isQuantumResistant","inputs":[],"outputs":[{"name":"","type":"bool","internalType":"bool"}],"stateMutability":"pure"},{"type":"function","name":"lock","inputs":[{"name":"recipient","type":"address","internalType":"address"},{"name":"dilithiumPubKey","type":"bytes","internalType":"bytes"}],"outputs":[{"name":"lockId","type":"bytes32","internalType":"bytes32"}],"stateMutability":"payable"},{"type":"function","name":"lockWithExpiry","inputs":[{"name":"recipient","type":"address","internalType":"address"},{"name":"dilithiumPubKey","type":"bytes","internalType":"bytes"},{"name":"expiry","type":"uint256","internalType":"uint256"}],"outputs":[{"name":"lockId","type":"bytes32","internalType":"bytes32"}],"stateMutability":"payable"},{"type":"function","name":"locks","inputs":[{"name":"","type":"bytes32","internalType":"bytes32"}],"outputs":[{"name":"sender","type":"address","internalType":"address"},{"name":"recipient","type":"address","internalType":"address"},{"name":"amount","type":"uint256","internalType":"uint256"},{"name":"dilithiumPubKeyHash","type":"bytes32","internalType":"bytes32"},{"name":"lockedAt","type":"uint256","internalType":"uint256"},{"name":"status","type":"uint8","internalType":"enum L1Vault.LockStatus"},{"name":"stateRoot","type":"bytes32","internalType":"bytes32"},{"name":"expiry","type":"uint256","internalType":"uint256"},{"name":"nonce","type":"uint256","internalType":"uint256"}],"stateMutability":"view"},{"type":"function","name":"nonceCounter","inputs":[],"outputs":[{"name":"","type":"uint256","internalType":"uint256"}],"stateMutability":"view"},{"type":"function","name":"owner","inputs":[],"outputs":[{"name":"","type":"address","internalType":"address"}],"stateMutability":"view"},{"type":"function","name":"pause","inputs":[],"outputs":[],"stateMutability":"nonpayable"},{"type":"function","name":"paused","inputs":[],"outputs":[{"name":"","type":"bool","internalType":"bool"}],"stateMutability":"view"},{"type":"function","name":"provers","inputs":[{"name":"","type":"address","internalType":"address"}],"outputs":[{"name":"proverAddress","type":"address","internalType":"address"},{"name":"sphincsPubKeyHash","type":"bytes32","internalType":"bytes32"},{"name":"sphincsPublicKey","type":"bytes","internalType":"bytes"},{"name":"stakedAmount","type":"uint256","internalType":"uint256"},{"name":"registeredAt","type":"uint256","internalType":"uint256"},{"name":"isActive","type":"bool","internalType":"bool"},{"name":"successfulSigns","type":"uint256","internalType":"uint256"},{"name":"slashedCount","type":"uint256","internalType":"uint256"}],"stateMutability":"view"},{"type":"function","name":"recordProverRequest","inputs":[{"name":"lockId","type":"bytes32","internalType":"bytes32"}],"outputs":[],"stateMutability":"nonpayable"},{"type":"function","name":"registerProver","inputs":[{"name":"proverAddress","type":"address","internalType":"address"},{"name":"sphincsPublicKey","type":"bytes","internalType":"bytes"}],"outputs":[],"stateMutability":"payable"},{"type":"function","name":"requestEmergencyUnlock","inputs":[{"name":"lockId","type":"bytes32","internalType":"bytes32"},{"name":"recipient","type":"address","internalType":"address"}],"outputs":[],"stateMutability":"payable"},{"type":"function","name":"requestUnlock","inputs":[{"name":"lockId","type":"bytes32","internalType":"bytes32"},{"name":"recipient","type":"address","internalType":"address"},{"name":"smtProof","type":"bytes32[]","internalType":"bytes32[]"},{"name":"expectedSR1","type":"bytes32","internalType":"bytes32"},{"name":"sphincsSignatures","type":"bytes[]","internalType":"bytes[]"},{"name":"signingProvers","type":"address[]","internalType":"address[]"}],"outputs":[],"stateMutability":"nonpayable"},{"type":"function","name":"requestUnlockLegacy","inputs":[{"name":"lockId","type":"bytes32","internalType":"bytes32"},{"name":"recipient","type":"address","internalType":"address"},{"name":"smtProof","type":"bytes32[]","internalType":"bytes32[]"},{"name":"stateRoot","type":"bytes32","internalType":"bytes32"},{"name":"sphincsSignatures","type":"bytes[]","internalType":"bytes[]"},{"name":"signingProvers","type":"address[]","internalType":"address[]"}],"outputs":[],"stateMutability":"nonpayable"},{"type":"function","name":"resolveChallenge","inputs":[{"name":"lockId","type":"bytes32","internalType":"bytes32"},{"name":"challengeValid","type":"bool","internalType":"bool"}],"outputs":[],"stateMutability":"nonpayable"},{"type":"function","name":"securityCouncil","inputs":[],"outputs":[{"name":"","type":"address","internalType":"address"}],"stateMutability":"view"},{"type":"function","name":"setFullVerification","inputs":[{"name":"_enable","type":"bool","internalType":"bool"}],"outputs":[],"stateMutability":"nonpayable"},{"type":"function","name":"setSPHINCSVerifier","inputs":[{"name":"_sphincsVerifier","type":"address","internalType":"address"}],"outputs":[],"stateMutability":"nonpayable"},{"type":"function","name":"sphincsVerifier","inputs":[],"outputs":[{"name":"","type":"address","internalType":"contract ISPHINCSVerifier"}],"stateMutability":"view"},{"type":"function","name":"submitDefense","inputs":[{"name":"lockId","type":"bytes32","internalType":"bytes32"},{"name":"defenseProof","type":"bytes","internalType":"bytes"}],"outputs":[],"stateMutability":"nonpayable"},{"type":"function","name":"totalBurned","inputs":[],"outputs":[{"name":"","type":"uint256","internalType":"uint256"}],"stateMutability":"view"},{"type":"function","name":"totalLocked","inputs":[],"outputs":[{"name":"","type":"uint256","internalType":"uint256"}],"stateMutability":"view"},{"type":"function","name":"transferOwnership","inputs":[{"name":"newOwner","type":"address","internalType":"address"}],"outputs":[],"stateMutability":"nonpayable"},{"type":"function","name":"unlockNonceCounter","inputs":[],"outputs":[{"name":"","type":"uint256","internalType":"uint256"}],"stateMutability":"view"},{"type":"function","name":"unlockRequests","inputs":[{"name":"","type":"bytes32","internalType":"bytes32"}],"outputs":[{"name":"lockId","type":"bytes32","internalType":"bytes32"},{"name":"recipient","type":"address","internalType":"address"},{"name":"amount","type":"uint256","internalType":"uint256"},{"name":"stateRoot","type":"bytes32","internalType":"bytes32"},{"name":"unlockStateRoot","type":"bytes32","internalType":"bytes32"},{"name":"requestedAt","type":"uint256","internalType":"uint256"},{"name":"unlockableAt","type":"uint256","internalType":"uint256"},{"name":"isEmergency","type":"bool","internalType":"bool"},{"name":"bond","type":"uint256","internalType":"uint256"},{"name":"signatureCount","type":"uint256","internalType":"uint256"},{"name":"unlockNonce","type":"uint256","internalType":"uint256"},{"name":"proverRequestedAt","type":"uint256","internalType":"uint256"},{"name":"emergencyReadyAt","type":"uint256","internalType":"uint256"}],"stateMutability":"view"},{"type":"function","name":"unpause","inputs":[],"outputs":[],"stateMutability":"nonpayable"},{"type":"function","name":"updateSecurityCouncil","inputs":[{"name":"newCouncil","type":"address","internalType":"address"}],"outputs":[],"stateMutability":"nonpayable"},{"type":"function","name":"updateStateRoot","inputs":[{"name":"newStateRoot","type":"bytes32","internalType":"bytes32"}],"outputs":[],"stateMutability":"nonpayable"},{"type":"function","name":"useFullVerification","inputs":[],"outputs":[{"name":"","type":"bool","internalType":"bool"}],"stateMutability":"view"},{"type":"event","name":"ChallengeFiled","inputs":[{"name":"lockId","type":"bytes32","indexed":true,"internalType":"bytes32"},{"name":"challenger","type":"address","indexed":true,"internalType":"address"},{"name":"fraudProofHash","type":"bytes32","indexed":false,"internalType":"bytes32"},{"name":"bond","type":"uint256","indexed":false,"internalType":"uint256"},{"name":"defenseDeadline","type":"uint256","indexed":false,"internalType":"uint256"}],"anonymous":false},{"type":"event","name":"ChallengeResolved","inputs":[{"name":"lockId","type":"bytes32","indexed":true,"internalType":"bytes32"},{"name":"challengeValid","type":"bool","indexed":false,"internalType":"bool"},{"name":"slashedAmount","type":"uint256","indexed":false,"internalType":"uint256"},{"name":"challengerReward","type":"uint256","indexed":false,"internalType":"uint256"},{"name":"insuranceAmount","type":"uint256","indexed":false,"internalType":"uint256"},{"name":"burnedAmount","type":"uint256","indexed":false,"internalType":"uint256"}],"anonymous":false},{"type":"event","name":"DefenseSubmitted","inputs":[{"name":"lockId","type":"bytes32","indexed":true,"internalType":"bytes32"},{"name":"defender","type":"address","indexed":true,"internalType":"address"},{"name":"defenseProofHash","type":"bytes32","indexed":false,"internalType":"bytes32"}],"anonymous":false},{"type":"event","name":"EmergencyBondReceived","inputs":[{"name":"lockId","type":"bytes32","indexed":true,"internalType":"bytes32"},{"name":"payer","type":"address","indexed":true,"internalType":"address"},{"name":"bondAmount","type":"uint256","indexed":false,"internalType":"uint256"},{"name":"requiredBond","type":"uint256","indexed":false,"internalType":"uint256"}],"anonymous":false},{"type":"event","name":"EmergencyUnlockFinalized","inputs":[{"name":"lockId","type":"bytes32","indexed":true,"internalType":"bytes32"},{"name":"recipient","type":"address","indexed":true,"internalType":"address"},{"name":"amount","type":"uint256","indexed":false,"internalType":"uint256"},{"name":"bondReturned","type":"uint256","indexed":false,"internalType":"uint256"},{"name":"wasSlashed","type":"bool","indexed":false,"internalType":"bool"}],"anonymous":false},{"type":"event","name":"EmergencyUnlockInitiated","inputs":[{"name":"lockId","type":"bytes32","indexed":true,"internalType":"bytes32"},{"name":"initiator","type":"address","indexed":true,"internalType":"address"},{"name":"fromTimeout","type":"bool","indexed":false,"internalType":"bool"},{"name":"timestamp","type":"uint256","indexed":false,"internalType":"uint256"}],"anonymous":false},{"type":"event","name":"EmergencyUnlockRequested","inputs":[{"name":"lockId","type":"bytes32","indexed":true,"internalType":"bytes32"},{"name":"recipient","type":"address","indexed":true,"internalType":"address"},{"name":"amount","type":"uint256","indexed":false,"internalType":"uint256"},{"name":"bond","type":"uint256","indexed":false,"internalType":"uint256"},{"name":"unlockableAt","type":"uint256","indexed":false,"internalType":"uint256"}],"anonymous":false},{"type":"event","name":"EnhancedMonitoringActivated","inputs":[{"name":"lockId","type":"bytes32","indexed":true,"internalType":"bytes32"},{"name":"timestamp","type":"uint256","indexed":false,"internalType":"uint256"}],"anonymous":false},{"type":"event","name":"Locked","inputs":[{"name":"lockId","type":"bytes32","indexed":true,"internalType":"bytes32"},{"name":"sender","type":"address","indexed":true,"internalType":"address"},{"name":"recipient","type":"address","indexed":true,"internalType":"address"},{"name":"amount","type":"uint256","indexed":false,"internalType":"uint256"},{"name":"dilithiumPubKeyHash","type":"bytes32","indexed":false,"internalType":"bytes32"},{"name":"stateRoot","type":"bytes32","indexed":false,"internalType":"bytes32"}],"anonymous":false},{"type":"event","name":"OwnershipTransferred","inputs":[{"name":"previousOwner","type":"address","indexed":true,"internalType":"address"},{"name":"newOwner","type":"address","indexed":true,"internalType":"address"}],"anonymous":false},{"type":"event","name":"Paused","inputs":[{"name":"account","type":"address","indexed":false,"internalType":"address"}],"anonymous":false},{"type":"event","name":"ProverRegistered","inputs":[{"name":"prover","type":"address","indexed":true,"internalType":"address"},{"name":"sphincsPubKeyHash","type":"bytes32","indexed":false,"internalType":"bytes32"},{"name":"stake","type":"uint256","indexed":false,"internalType":"uint256"}],"anonymous":false},{"type":"event","name":"ProverSlashed","inputs":[{"name":"prover","type":"address","indexed":true,"internalType":"address"},{"name":"amount","type":"uint256","indexed":false,"internalType":"uint256"},{"name":"reason","type":"bytes32","indexed":false,"internalType":"bytes32"}],"anonymous":false},{"type":"event","name":"ProverTimeoutDetected","inputs":[{"name":"lockId","type":"bytes32","indexed":true,"internalType":"bytes32"},{"name":"requestedAt","type":"uint256","indexed":false,"internalType":"uint256"},{"name":"detectedAt","type":"uint256","indexed":false,"internalType":"uint256"}],"anonymous":false},{"type":"event","name":"SPHINCSVerifierUpdated","inputs":[{"name":"oldVerifier","type":"address","indexed":true,"internalType":"address"},{"name":"newVerifier","type":"address","indexed":true,"internalType":"address"}],"anonymous":false},{"type":"event","name":"SecurityCouncilUpdated","inputs":[{"name":"previousCouncil","type":"address","indexed":true,"internalType":"address"},{"name":"newCouncil","type":"address","indexed":true,"internalType":"address"}],"anonymous":false},{"type":"event","name":"StateRootUpdated","inputs":[{"name":"newRoot","type":"bytes32","indexed":true,"internalType":"bytes32"},{"name":"blockNumber","type":"uint256","indexed":true,"internalType":"uint256"}],"anonymous":false},{"type":"event","name":"UnlockExecuted","inputs":[{"name":"lockId","type":"bytes32","indexed":true,"internalType":"bytes32"},{"name":"recipient","type":"address","indexed":true,"internalType":"address"},{"name":"amount","type":"uint256","indexed":false,"internalType":"uint256"}],"anonymous":false},{"type":"event","name":"UnlockRequested","inputs":[{"name":"lockId","type":"bytes32","indexed":true,"internalType":"bytes32"},{"name":"recipient","type":"address","indexed":true,"internalType":"address"},{"name":"amount","type":"uint256","indexed":false,"internalType":"uint256"},{"name":"unlockableAt","type":"uint256","indexed":false,"internalType":"uint256"},{"name":"isEmergency","type":"bool","indexed":false,"internalType":"bool"},{"name":"unlockStateRoot","type":"bytes32","indexed":false,"internalType":"bytes32"}],"anonymous":false},{"type":"event","name":"Unpaused","inputs":[{"name":"account","type":"address","indexed":false,"internalType":"address"}],"anonymous":false},{"type":"error","name":"ChallengeAlreadyResolved","inputs":[]},{"type":"error","name":"ChallengeNotFound","inputs":[]},{"type":"error","name":"ChallengePeriodActive","inputs":[]},{"type":"error","name":"DefensePeriodExpired","inputs":[]},{"type":"error","name":"DefensePeriodNotExpired","inputs":[]},{"type":"error","name":"EmergencyAlreadyInitiated","inputs":[]},{"type":"error","name":"EmergencyTimeLockActive","inputs":[]},{"type":"error","name":"EnforcedPause","inputs":[]},{"type":"error","name":"ExpectedPause","inputs":[]},{"type":"error","name":"InsufficientAmount","inputs":[]},{"type":"error","name":"InsufficientSignatures","inputs":[]},{"type":"error","name":"InsufficientStake","inputs":[]},{"type":"error","name":"InvalidBond","inputs":[]},{"type":"error","name":"InvalidProof","inputs":[]},{"type":"error","name":"InvalidPublicKeyLength","inputs":[]},{"type":"error","name":"InvalidSignatures","inputs":[]},{"type":"error","name":"InvalidStateRoot","inputs":[]},{"type":"error","name":"LockAlreadyReleased","inputs":[]},{"type":"error","name":"LockExpired","inputs":[]},{"type":"error","name":"LockNotFound","inputs":[]},{"type":"error","name":"NotActiveProver","inputs":[]},{"type":"error","name":"NotInEmergencyState","inputs":[]},{"type":"error","name":"NotOwner","inputs":[]},{"type":"error","name":"NotSecurityCouncil","inputs":[]},{"type":"error","name":"ProverAlreadyRegistered","inputs":[]},{"type":"error","name":"ProverNotActive","inputs":[]},{"type":"error","name":"ProverTimeoutNotReached","inputs":[]},{"type":"error","name":"ReentrancyGuardReentrantCall","inputs":[]},{"type":"error","name":"TVLCapExceeded","inputs":[]},{"type":"error","name":"TransferFailed","inputs":[]},{"type":"error","name":"UnlockAlreadyRequested","inputs":[]},{"type":"error","name":"UnlockNotFound","inputs":[]},{"type":"error","name":"UnlockNotReady","inputs":[]},{"type":"error","name":"VerifierNotSet","inputs":[]},{"type":"error","name":"ZeroAddress","inputs":[]}],"bytecode":{"object":"0x6080346200010f57601f62004bf138819003918201601f19168301916001600160401b03831184841017620001145780849260409485528339810103126200010f576200005a602062000052836200012a565b92016200012a565b60017f9b779b17422d0df92223018b32b4d1fa46e071723d6817e2486d003becc55f00556001600160a01b0391821691908215620000fd5760008054610100600160a81b0319163360081b610100600160a81b0316179055600180546001600160a01b03199081169094179055169081620000e0575b604051614ab19081620001408239f35b6002541617600255600160ff19600e541617600e553880620000d0565b60405163d92e233d60e01b8152600490fd5b600080fd5b634e487b7160e01b600052604160045260246000fd5b51906001600160a01b03821682036200010f5756fe60e080604052600436101561001d575b50361561001b57600080fd5b005b60003560e01c90816304a829f214612dee575080630e462a6c14612dbb57806312668c221461082b578063171a077e14612d9f5780631b4493aa14612b785780631dec844b14612ad257806327eb6c0f14612aa95780632a308c2d14612a635780632b8c095314612a4057806330362d81146118815780633659e38014612a45578063368fdfa714612a405780633f4ba83a146129cc5780634157e049146129895780634455dbe914612947578063458d2bf114612842578063488dbf8e1461251b578063492723b4146124fd57806349fe43f9146121ab578063568914121461218d5780635c975abb1461216a57806364e99ab5146120f957806366fdf627146106d357806368faeaee146120a65780636f1730791461186557806371e513bb14611f7e5780637250921c14611dd257806377b053c214611c245780637d89122d146118865780637e0ee4f114611881578063844ca7d7146118655780638456cb591461180157806386fdd39f146117e3578063884476f9146117a55780638adfe175146117875780638be9963a146117645780638d9c20b5146116785780638da5cb5b1461164b5780638f01465b1461162157806394c01ce31461146a5780639ac18b191461144e5780639ca1799814611420578063a0f5df3e14611402578063a0fbc26314611370578063a3bb88ee146106d8578063ac2eba9814611352578063acaf80a1146112fb578063b56c2de8146112be578063b7902303146112a0578063b9f3313d14611092578063bab2671314610e3d578063c1e69b6614610da1578063c3a079ed14610d84578063cad723ce14610d66578063d5e8b70014610a0b578063d6f27b58146108f3578063d89135cd146108d5578063dbfe3e9614610854578063dd365c281461082b578063dd764abf14610809578063de780bbd146107eb578063e0d49b6f146107c8578063e7017f7814610709578063e7a423f7146106d8578063eac61708146106d3578063ec5db8b014610671578063ed5e8437146105d7578063f2fde38b1461052c578063f3ce02c714610508578063faab193c146103d25763fcef2d9a14610337573861000f565b346103cd5760e03660031901126103cd57610350612e25565b606435906001600160a01b03821682036103cd576020916103c59160405191600435858401526001600160601b0319809260601b166040840152604435605484015260601b166074820152608435608882015260a43560a882015260c43560c882015260c881526103c081612e91565b614973565b604051908152f35b600080fd5b346103cd576020806003193601126103cd576103ec612e0f565b90600060e06040516103fd81612e91565b8281528284820152606060408201528260608201528260808201528260a08201528260c0820152015260018060a01b03809216600052600981526040600020906040519161044a83612e91565b83815416835260018101549180840192835261046860028301612f21565b9160408501928352600381015493606086019485526004820154936080870194855260ff6005840154169160a088019215158352600760068501549460c08a0195865201549460e08901958652604051998a99828b5251169089015251604088015251936104e4610100958660608a0152610120890190612fea565b955160808801525160a087015251151560c08601525160e085015251908301520390f35b346103cd5760003660031901126103cd5760206040516815af1d78b58c4000008152f35b346103cd5760203660031901126103cd57610545612e0f565b6000546001600160a01b03600882901c81169190338390036105c55783169283156105b357610100600160a81b031990911660089190911b610100600160a81b03161760009081557f8be0079c531659141344cd1fd0a4f28419497f9722a3daafe3b4186f6b6457e09080a3005b60405163d92e233d60e01b8152600490fd5b6040516330cd747160e01b8152600490fd5b346103cd5760203660031901126103cd576004356000526007602052610120604060002060018060a01b0390818154169160018201541690600281015461065f6003830154600484015460ff600586015416916006860154946008600788015497015497604051998a5260208a015260408901526060880152608087015260a0860190613208565b60c084015260e0830152610100820152f35b346103cd5760203660031901126103cd57600435808004600114811517156106bd5760646020910467016345785d8a0000908181106000146106b65750604051908152f35b90506103c5565b634e487b7160e01b600052601160045260246000fd5b613110565b346103cd5760203660031901126103cd576004356000526010602052602060ff604060002054166040519015158152f35b346103cd5760203660031901126103cd5760043560005260086020526101a0604060002080549060018060a01b03600182015416906002810154600382015460048301546005840154600685015460ff60078701541691600887015493600988015495600a89015497600c600b8b01549a01549a6040519c8d5260208d015260408c015260608b015260808a015260a089015260c0880152151560e0870152610100860152610120850152610140840152610160830152610180820152f35b346103cd5760003660031901126103cd57602060ff600e54166040519015158152f35b346103cd5760003660031901126103cd576020600454604051908152f35b346103cd5760003660031901126103cd576020604051662386f26fc100008152f35b346103cd5760003660031901126103cd576002546040516001600160a01b039091168152602090f35b346103cd5760203660031901126103cd5761086d612e0f565b600154906001600160a01b0380831691338390036108c357169182156105b3576001600160a01b03191682176001557f505d9b5b645971d6c3d60fc8a43abab349ef9933bc68691d6feb9f1d6b27226a600080a3005b604051636fd557a760e01b8152600490fd5b346103cd5760003660031901126103cd576020600d54604051908152f35b346103cd5760203660031901126103cd5761090c613ac2565b506004356000526007602052604060002060405161092981612e75565b60018060a01b03808354168252806001840154169060208301918252600284015493604084019485526003810154946060850195865260048201546080860190815260ff6005840154169060a087019060068310156109f557610120986109e293835260068601549460c08a01958652600860078801549760e08c01988952015497610100998a8c01998a52816040519c51168c52511660208b01525160408a01525160608901525160808801525160a0870190613208565b5160c08501525160e08401525190820152f35b634e487b7160e01b600052602160045260246000fd5b60203660031901126103cd57600435610a22613222565b610a2a61356b565b600081815260076020526040902080549091906001600160a01b031615610d545760ff60058301541660068110156109f557600103610d425780600052600f60205260ff60056040600020015416610a81816130c3565b610d3057610a8e816135c0565b509015610d1e57610aa26002840154613678565b90813410610d0c5762093a80420142116106bd577f61faddcb7ec3d83d50566b1f6a85335d9fd310fe8eacdebf43d5f404fe6ea87b60408492836000526008602052816000209660058060078a0160ff19906001828254161790553460088c015562093a80420160068c015562093a804201600c8c01558551610b2481612e91565b8881528860208201338152610bbd858a85019434865260608101428152608082019062093a804201825260a08301976003895260c08401966001885260e085019860018a52600052600f6020528f60002094518555600185019060018060a01b039051166001600160601b0360a01b825416179055516002840155516003830155516004820155019351610bb7816130c3565b8461359b565b5115159061ff0062ff000084549251151560101b169260081b169062ffff00191617179055876000526010602052856000206001828254161790558184015416179101558151908152426020820152a260405160018152426020820152827f0526967cdd985e39a385e6b9b9ae0ebad6b64ffd03973822e7c95552b5d366b860403393a3604051903482526020820152817f90c4270e44a5fb2aae404a2820bc3f1b21dadf5d53302a1cb663f1c780c45a7f60403393a3807f7c560948f2e64f84ec7abf478d07b3e697cd2325071507eac90b744bc68bd9dc6020604051428152a260018201546002909201546040805191825234602083015262093a804201908201526001600160a01b03909216917f7b51d56a0637ca3c56fb857a383c96aa032b059b468f836204af1fefdc9c592b9080606081015b0390a36001600080516020614a5c83398151915255005b604051630a02a21f60e21b8152600490fd5b60405163107afc0760e31b8152600490fd5b60405163339e720360e11b8152600490fd5b604051632c04416160e01b8152600490fd5b604051636086ee6f60e11b8152600490fd5b346103cd5760203660031901126103cd5760206103c5600435613678565b346103cd5760003660031901126103cd57602060405161a8c08152f35b346103cd5760203660031901126103cd57600435600052600b602052610120604060002080549060018060a01b039081600182015416916002820154600383015460ff60048501541690600585015492600686015494600860078801549701541696604051988952602089015260408801526060870152610e21816130c3565b608086015260a085015260c084015260e0830152610100820152f35b610e46366131d9565b9190610e50613222565b610e5861356b565b816000526020600881526040600020918254156110805760068301908154421161106f57846000526007835260056040600020019560ff87541660068110156109f55760018114159081611063575b50610d42576002850154808004600114811517156106bd576064900467016345785d8a000080821061105b575b503410610d0c576202a3004201948542116106bd57610f01610efc60ff946007943691613525565b613b18565b976000604051610f1081612e75565b898152878101338152600860408301928d84528c8c8c610faa60608501428152608086019060018252600b60a088019434865260c0890196875260e08901978d89526101008a019d8e5260005252604060002096518755600187019960018060a01b03809a51169a6001600160601b0360a01b9b8c82541617905551600288015551600387015551610fa1816130c3565b6004860161359b565b5160058401555160068301555188820155019251169082541617905560038419825416179055015416611023575b50604051938452349084015260408301527f174c8029e018a39b8d3f97c38998c889d28eb5d5d7fcafa7acb8b44fb00a553460603393a36001600080516020614a5c83398151915255005b80549062093a8082018092116106bd5781905583600052600f825260046040600020018054611053575b50610fd8565b55848061104d565b905088610ed4565b60059150141588610ea7565b6040516297f2d960e21b8152600490fd5b6040516342afe4a360e11b8152600490fd5b346103cd5760203660031901126103cd576004356110ae61356b565b80600052600b602052604060002060048101805490600160ff83166110d2816130c3565b0361128e57600683015442111561127c578360005260076020526040600020916008602052604060002091600260ff1980931617905560046005840191825416179055600981015461112960028401548092613a85565b91603c830293831594848104603c148617156106bd576064900494601485029085820460141417156106bd57600080809360648294049960018060a01b0361117c8b600583600186015416940154613215565b9254169661118c8c600c54613215565b80600c5561119c8d600d54613215565b600d556111ab8a6003546135b3565b60035560ff6007830154168061126f575b611253575b50505af16111cd613635565b501561124157600080809381935af16111e4613635565b5015611241577f083938125729106a6de1b3d3bf2e4fe5e2557124434fc8be005d0fb19775e94b9260a0926040519260018452602084015260408301528060608301526080820152a26001600080516020614a5c83398151915255005b6040516312171d8360e31b8152600490fd5b611264600886930191825490613215565b600c55558c806111c1565b50600882015415156111bc565b60405163122f79ef60e01b8152600490fd5b604051632d921dad60e01b8152600490fd5b346103cd5760003660031901126103cd576020600c54604051908152f35b346103cd5760a03660031901126103cd576044356001600160a01b03811681036103cd576103c560209160843590606435906024356004356149c9565b346103cd5760203660031901126103cd576000546004359060081c6001600160a01b031633036105c5578060065543907f75d7255decb0c118b501effc9e0ce985be16edbf624dcf1394d1fce06821edf1600080a3005b346103cd5760003660031901126103cd576020600654604051908152f35b346103cd5760203660031901126103cd57600435600052600f602052610100604060002060ff81549160018060a01b03600182015416600282015491600381015460056004830154920154938585169360405197885260208801526040870152606086015260808501526113e3816130c3565b60a0840152818160081c16151560c084015260101c16151560e0820152f35b346103cd5760003660031901126103cd5760206040516202a3008152f35b611429366130cd565b611434929192613222565b620151804201908142116106bd576020936103c593613240565b346103cd5760003660031901126103cd57602060405160028152f35b346103cd576114783661315c565b91611487989496959798613222565b61148f61356b565b84600052600760205260406000209760018060a01b03808a541615610d545760058a019a60ff8c541660068110156109f557610d4257169687156105b3576114d9918991886136b9565b1561160f57600281106115eb578281036115fd576114f893878661371f565b92600284106115eb576002600554956115108761355c565b600555015494620151804201958642116106bd576001967f99ebca1dea55477732f10272996bfd0c9543ff926bfcea6d9fe2c7f461d910ee936080938660005260086020526040600020918783558a8301896001600160601b0360a01b825416179055846002840155600383015560006004830155426005830155826006830155600782019860ff19998a8154169055600060088401556009830155600a820155600b4291015560405191825260208201526000604082015260006060820152a38254161790556001600080516020614a5c83398151915255005b604051633724e34360e11b8152600490fd5b60405163274cf40160e01b8152600490fd5b6040516309bde33960e01b8152600490fd5b346103cd5760003660031901126103cd576060604051603c81526014602082015260146040820152f35b346103cd5760003660031901126103cd5760005460405160089190911c6001600160a01b03168152602090f35b346103cd57611686366131d9565b9190611690613222565b33600052600960205260ff60056040600020015416156117525781600052600b602052604060002060048101805494600160ff87166116ce816130c3565b0361128e5760068301544211611740576116f1610efc6008956004933691613525565b9560ff191617905583600782015501336001600160601b0360a01b8254161790556040519182527fac667660abf65035c151f9f8484becc5f3273e3a3daea0434093ac4ce700fd3a60203393a3005b60405163606cfb1960e11b8152600490fd5b604051638b5161a760e01b8152600490fd5b346103cd5760003660031901126103cd5760206040516706f05b59d3b200008152f35b346103cd5760003660031901126103cd576020600554604051908152f35b346103cd5760003660031901126103cd5760ff600e5416806117cf575b6020906040519015158152f35b506002546001600160a01b031615156117c2565b346103cd5760003660031901126103cd57602060405162093a808152f35b346103cd5760003660031901126103cd576001546001600160a01b031633036108c35761182c613222565b600160ff1960005416176000557f62e78cea01bee320cd4e420270b5ea74000d11b0c9f74754ebdbfc544b05a2586020604051338152a1005b346103cd5760003660031901126103cd57602060405160018152f35b61302b565b346103cd5760403660031901126103cd5760243580151581036103cd576001546001600160a01b031633036108c3576118bd61356b565b600435600052600b602052604060002060048101549060ff82166118e0816130c3565b60018114159081611c0f575b5061128e5760043560005260076020526040600020600860205260406000209260009060009060009087600014611af357505050506119346009840154600283015490613a85565b603c810291811592828104603c148417156106bd57606490049282601481020460141417156106bd5760646014830204936009859660ff60078201541680611ae6575b611ab5575b60ff19600281600486015416176004850155600460058601918254161790550154916119ad60028201548094613a85565b90603c82028215838204603c148117156106bd576014840293840460141417156106bd576000809392819392611a23611a006064859604986005606460018060a01b036001840154169504910154613215565b9260018060a01b0390541697611a1881600c54613215565b600c55600d54613215565b600d55611a32886003546135b3565b6003555af1611a3f613635565b501561124157600080809381935af1611a56613635565b5015611241575b604051941515855260208501526040840152606083015260808201527f083938125729106a6de1b3d3bf2e4fe5e2557124434fc8be005d0fb19775e94b60a060043592a26001600080516020614a5c83398151915255005b600060088201611ac88154600c54613215565b600c5555600435600052600f6020526000600260408220015561197c565b5060088101541515611977565b909194929550600360ff19809216176004840155600f6020526005938460ff816040600020015416611b24816130c3565b15611bff57809101918254161790555b6008820180546001600160a01b031615611be85783830154603c8102908015818304603c148117156106bd576014820291820460141417156106bd57600080809360648083950491611b9660018060a01b0389541693611a1881600c54613215565b600d5504905af1611ba5613635565b5015611241575b546001600160a01b031615611bdd575001546014810290808204601414901517156106bd5760649004908192611a5d565b939291015491611a5d565b611bf784840154600c54613215565b600c55611bac565b6001910191825416179055611b34565b60049150611c1c816130c3565b1415846118ec565b346103cd57611c323661315c565b611c4498949193959298979697613222565b611c4c61356b565b84600052600760205260406000209360018060a01b03998a86541615610d5457600586019a60ff8c541660068110156109f557610d425789169788156105b35760055495611c998761355c565b600555611cb387600260068b01549a0154809d8c8c6149c9565b9b868d03611dc057611cc79187918b6136b9565b1561160f57600282106115eb578382036115fd57611ce5948861371f565b94600286106115eb57620151804201968742116106bd576001977f99ebca1dea55477732f10272996bfd0c9543ff926bfcea6d9fe2c7f461d910ee946080948760005260086020526040600020918883558b83018a6001600160601b0360a01b8254161790558560028401556003830155836004830155426005830155826006830155600782019960ff199a8b8154169055600060088401556009830155600a820155600b429101556040519283526020830152600060408301526060820152a38254161790556001600080516020614a5c83398151915255005b604051630b6fac0360e41b8152600490fd5b346103cd5760203660031901126103cd576000610180604051611df481612ead565b8281528260208201528260408201528260608201528260808201528260a08201528260c08201528260e082015282610100820152826101208201528261014082015282610160820152015260043560005260086020526101a06040600020610180604051611e6181612ead565b600c83549384835260018060a01b036001820154166020840152600281015460408401526003810154606084015260048101546080840152600581015460a0840152600681015460c084015260ff600782015416151560e084015260088101546101008401526009810154610120840152600a810154610140840152600b81015461016084015201548282015260405192835260018060a01b03602082015116602084015260408101516040840152606081015160608401526080810151608084015260a081015160a084015260c081015160c084015260e0810151151560e08401526101008101516101008401526101208101516101208401526101408101516101408401526101608101516101608401520151610180820152f35b346103cd5760203660031901126103cd57600060e0604051611f9f81612e91565b8281528260208201528260408201528260608201528260808201528260a08201528260c08201520152600435600052600f602052610100604060002060405190611fe882612e91565b8054825260018101546001600160a01b039081166020840190815260028301546040850190815260038401546060860190815260048501546080870190815260059095015494929360a0870193929060ff8716612044816130c3565b855260c088019560ff8860081c161515875260ff60e08a019860101c161515885260405198518952511660208801525160408701525160608601525160808501525161208f816130c3565b60a084015251151560c083015251151560e0820152f35b346103cd5760203660031901126103cd5733600052600960205260ff6005604060002001541615611752576004356000526008602052604060002080541561108057600b018054156120f457005b429055005b346103cd5760203660031901126103cd57612112612e0f565b6000546001600160a01b039060081c811633036105c55780600254921691826001600160601b0360a01b821617600255167fc47dd5f2a9987aa6668419ac023b57a57a67cf45ca0c61e037e00729cc4c42b1600080a3005b346103cd5760003660031901126103cd57602060ff600054166040519015158152f35b346103cd5760003660031901126103cd576020600354604051908152f35b60403660031901126103cd576121bf612e25565b6121c7613222565b6121cf61356b565b600435600090815260076020526040902080546001600160a01b03168015610d545760ff60058301541660068110156109f557610d42576001600160a01b038316156105b35733036105c557600435600052600f60205260ff6005604060002001541661223b816130c3565b610d305761224c6002820154613678565b90813410610d0c57600554916122618361355c565b60055562093a80420142116106bd5760029283830154906006840154600435600052600860205260406000209260043584556001840160018060a01b0389166001600160601b0360a01b8254161790558684015560038301556000600483015542600583015562093a8042016006830155600160ff1960078401541617600783015534600883015560006009830155600a82015542600b820155600c62093a80420191015560405161231281612e91565b600435815233602082015234604082015242606082015262093a80420160808201528360a0820152600160c0820152600060e0820152600435600052600f60205260056040600020825181556001810160018060a01b036020850151166001600160601b0360a01b825416179055604083015186820155606083015160038201556080830151600482015501906123b660a08201516123b0816130c3565b8361359b565b60c081015115159061ff0062ff000060e08554930151151560101b169260081b169062ffff0019161717905560043560005260106020526040600020600160ff19825416179055600560ff1981840154161760058301556040516000815242602082015233907f0526967cdd985e39a385e6b9b9ae0ebad6b64ffd03973822e7c95552b5d366b8604060043592a360405190348252602082015233907f90c4270e44a5fb2aae404a2820bc3f1b21dadf5d53302a1cb663f1c780c45a7f604060043592a36040514281527f7c560948f2e64f84ec7abf478d07b3e697cd2325071507eac90b744bc68bd9dc602060043592a20154604080519182523460208301524262093a8001908201526001600160a01b0390911690600435907f7b51d56a0637ca3c56fb857a383c96aa032b059b468f836204af1fefdc9c592b908060608101610cf5565b346103cd5760003660031901126103cd576020600a54604051908152f35b612524366130cd565b60005491929160081c6001600160a01b031633036105c5576001600160a01b038216156105b3576001600160a01b03821660009081526009602052604090206005015460ff1661283057670de0b6b3a7640000341061281e576020810361280c57612593610efc368386613525565b926125bf604051916125a483612e91565b6001600160a01b038516835260208301868152933691613525565b60408201908152346060830152426080830152600160a0830152600060c0830152600060e083015260018060a01b038416600052600960205260406000209260018060a01b038351166001600160601b0360a01b855416178455516001840155518051906001600160401b0382116127315761263e6002850154612e3b565b601f81116127c5575b50602090601f83116001146127525791806007949260e094600092612747575b50508160011b916000199060031b1c19161760028501555b60608101516003850155608081015160048501556005840160a0820151151560ff8019835416911617905560c081015160068501550151910155600a5468010000000000000000811015612731577f8cff608f5b95035c0790dc8ba5b2085444145959dbea5bdde6cca284b48c66639161270182600160409401600a55613076565b81546001600160a01b0393841660039290921b82811b94901b1916929092179055815193845234602085015292a2005b634e487b7160e01b600052604160045260246000fd5b015190508880612667565b90601f198316916002860160005260206000209260005b8181106127ad575092600192859260e0966007989610612794575b505050811b01600285015561267f565b015160001960f88460031b161c19169055888080612784565b92936020600181928786015181550195019301612769565b600285016000526020600020601f840160051c810160208510612805575b601f830160051c820181106127f9575050612647565b600081556001016127e3565b50806127e3565b6040516318dca5e960e21b8152600490fd5b6040516378de4a6960e11b8152600490fd5b604051635edab1f160e01b8152600490fd5b346103cd5760203660031901126103cd5761285b613ac2565b50600435600052600b60205261012060406000206040519061287c82612e75565b8054825260018101546001600160a01b0390811660208401908152600283015460408501908152600384015460608601908152600485015492949192608087019060ff166128c9816130c3565b815260058301549060a0880191825260068401549260c0890193845286600860078701549660e08c019788520154169587610100998a8c019889526040519b518c52511660208b01525160408a015251606089015251612928816130c3565b60808801525160a08701525160c08601525160e0850152511690820152f35b346103cd5760203660031901126103cd57600435600a548110156103cd57612970602091613076565b905460405160039290921b1c6001600160a01b03168152f35b60603660031901126103cd5761299d612e0f565b6024356001600160401b0381116103cd576020916129c26103c5923690600401613049565b9060443592613240565b346103cd5760003660031901126103cd576001546001600160a01b031633036108c35760005460ff811615612a2e5760ff19166000557f5db9ee0a495bf2e6ff9c91a7834c1ba4fdd244a5e8aa4e537bd38aeae4b073aa6020604051338152a1005b604051638dfc202b60e01b8152600490fd5b61300f565b346103cd5760003660031901126103cd5760206040516203f4808152f35b346103cd5760203660031901126103cd576004358015158091036103cd5760005460081c6001600160a01b031633036105c55760ff8019600e5416911617600e55600080f35b346103cd5760003660031901126103cd576001546040516001600160a01b039091168152602090f35b346103cd5760203660031901126103cd576001600160a01b0380612af4612e0f565b166000526009602052604060002090815416600182015491612b1860028201612f21565b600382015491600481015460ff60058301541690612b586007600685015494015494604051988998895260208901526101008060408a0152880190612fea565b9460608701526080860152151560a085015260c084015260e08301520390f35b346103cd576020806003193601126103cd57600435612b9561356b565b8060005260088252604060002091825415611080576006830154421061106f5781600052600781526040600020906005820180549260ff841660068110156109f55760038114612d8d57600214610d4257600786019160ff83541615612d68575b600260ff1980961617905560016002870196612c1588546003546135b3565b60035560088101549587600052600f86526005604060002001805460ff8116612c3d816130c3565b60038114908115612d54575b50612d31575b505050019060018060a01b03906000808080858754168c54905af1612c72613635565b501561124157859081612d10575b505060ff91541695549186867f41f97fc03cf7f2c1829da0c368b4c948bb17a3c760dd35510feed443faaa704086604051878152a35416612cd0575b6001600080516020614a5c83398151915255005b7f64278aae6fae503a884e44cf5d9094c515693b6dd2853e44b4555809f7c8dba49260609260405192835282015260006040820152a38080808080612cbc565b600080809385829454165af1612d24613635565b5015611241578488612c80565b826004911617905587600052601086526040600020908154169055888080612c4f565b60029150612d61816130c3565b148c612c49565b85600052600b8452600160ff60046040600020015416612d87816130c3565b03612bf6575b6040516364b81b1960e11b8152600490fd5b346103cd5760003660031901126103cd576020604051603c8152f35b346103cd5760203660031901126103cd576060612dd96004356135c0565b90604051921515835260208301526040820152f35b346103cd5760003660031901126103cd578067016345785d8a000060209252f35b600435906001600160a01b03821682036103cd57565b602435906001600160a01b03821682036103cd57565b90600182811c92168015612e6b575b6020831014612e5557565b634e487b7160e01b600052602260045260246000fd5b91607f1691612e4a565b61012081019081106001600160401b0382111761273157604052565b61010081019081106001600160401b0382111761273157604052565b6101a081019081106001600160401b0382111761273157604052565b61032081019081106001600160401b0382111761273157604052565b60a081019081106001600160401b0382111761273157604052565b90601f801991011681019081106001600160401b0382111761273157604052565b9060405191826000825492612f3584612e3b565b908184526001948581169081600014612fa45750600114612f61575b5050612f5f92500383612f00565b565b9093915060005260209081600020936000915b818310612f8c575050612f5f93508201013880612f51565b85548884018501529485019487945091830191612f74565b915050612f5f94506020925060ff191682840152151560051b8201013880612f51565b60005b838110612fda5750506000910152565b8181015183820152602001612fca565b9060209161300381518092818552858086019101612fc7565b601f01601f1916010190565b346103cd5760003660031901126103cd57602060405160148152f35b346103cd5760003660031901126103cd576020604051620151808152f35b9181601f840112156103cd578235916001600160401b0383116103cd57602083818601950101116103cd57565b600a548110156130ad57600a6000527fc65a7bb8d6351c1cf70c95a316cc6a92839c986682d98bc35f958f4883f9d2a80190600090565b634e487b7160e01b600052603260045260246000fd5b600511156109f557565b9060406003198301126103cd576004356001600160a01b03811681036103cd5791602435906001600160401b0382116103cd5761310c91600401613049565b9091565b346103cd5760003660031901126103cd57602060405160058152f35b9181601f840112156103cd578235916001600160401b0383116103cd576020808501948460051b0101116103cd57565b60c06003198201126103cd57600435916024356001600160a01b03811681036103cd57916001600160401b03916044358381116103cd57826131a09160040161312c565b93909392606435926084358381116103cd57826131bf9160040161312c565b9390939260a4359182116103cd5761310c9160040161312c565b9060406003198301126103cd5760043591602435906001600160401b0382116103cd5761310c91600401613049565b9060068210156109f55752565b919082018092116106bd57565b60ff6000541661322e57565b60405163d93c066560e01b8152600490fd5b929061324a613222565b61325261356b565b662386f26fc1000034106134f8576815af1d78b58c40000061327634600354613215565b116134e6576001600160a01b038481169390919084156105b357428411156134d4576132a791610efc913691613525565b600454906132b48261355c565b60045560409182519461330860209646888201526000998a878301523460548301526001600160601b03199060601b1660748201528260888201528360a88201528460c882015260c881526103c081612e91565b948451878101908782523360601b878201524260548201526054815260808101918183106001600160401b038411176134c05782610efc898c98979694613393948d9783527ff1e29fb4c3734d4cd218c5a4a6406eeb89d35790303c9b41268509c140678b5160a08301526133848251809260c0850190612fc7565b81010389810184520182612f00565b9a8b88519687936133a385612e75565b3385528d8286019081528b860191348352600760608801948d8652608089019642885261010060a08b019a8a8c5260c081019c8d5260e081019d8e52019c8d52885252808d87209b5116906001600160601b0360a01b91828d5416178c5560018c01925116908254161790555160028901555160038801555160048701556005860191519060068210156134ac57509060089493929160ff801983541691161790555160068501555160078401555191015561346134600354613215565b600355815193348552840152820152827f7ea6a10ee887144d0680d547987ce45166d4fb495877d46fdd000ff01767b99c60603393a46001600080516020614a5c8339815191525590565b634e487b7160e01b81526021600452602490fd5b634e487b7160e01b8c52604160045260248cfd5b6040516307b7d7dd60e51b8152600490fd5b6040516337c021db60e01b8152600490fd5b604051632ca2f52b60e11b8152600490fd5b6001600160401b03811161273157601f01601f191660200190565b9291926135318261350a565b9161353f6040519384612f00565b8294818452818301116103cd578281602093846000960137010152565b60001981146106bd5760010190565b600080516020614a5c83398151915260028154146135895760029055565b604051633ee5aeb560e01b8152600490fd5b906135a5816130c3565b60ff80198354169116179055565b919082039182116106bd57565b9060009182526008602052604082209081541561362e57600b820154918215613622575b506203f480820180831161360e57428111613600575060019290565b61360b9042906135b3565b90565b634e487b7160e01b84526011600452602484fd5b600501549150386135e4565b8291508190565b3d15613660573d906136468261350a565b916136546040519384612f00565b82523d6000602084013e565b606090565b818102929181159184041417156106bd57565b6005810290808204600514901517156106bd57606490046706f05b59d3b20000808211156136a4575090565b905090565b91908110156130ad5760051b0190565b91906000915b8083106136cd575050501490565b909192613703906136df8584866136a9565b3581101561370a576136fd906136f68685876136a9565b3590614914565b9361355c565b91906136bf565b6136fd906137198685876136a9565b35614914565b9061372f91969596949394614914565b9260ff9384600e541680613a1c575b61380b57600094855b83811061375957509496505050505050565b6001600160a01b0361377461376f838c8a6136a9565b613a30565b166000526020600981526040908160002084600582015416156137ff576137d792916001610efc920154926137aa868a8c613a44565b82939193519586928301528983830152806060948584013781016000848201520390810184520182612f00565b6137ea575b6137e59061355c565b613747565b956137f76137e59161355c565b9690506137dc565b5050506137e59061355c565b60028054969760009791969394936001600160a01b03928316929091895b87811061383d575050505050505050505090565b8261384c61376f83858d6136a9565b166000526020600981526040908160002090888d60059389858201541615613a0d57019283548d8d8561387e84612e3b565b036139fc5788869594939261389292613a44565b96908851978895632dfa471d60e11b875260048701526060602487015280606487015280608492838801376000828288010152601f801991011685019160808684030160448701526000946138e685612e3b565b80938501528660019586811692836000146139da57505050600114613992575b50505050819003818b5afa928315613988575060009261394b575b5050613936575b6139319061355c565b613829565b996139436139319161355c565b9a9050613928565b81813d8311613981575b61395f8183612f00565b8101031261397d575190811515820361397a57503880613921565b80fd5b5080fd5b503d613955565b513d6000823e3d90fd5b9091929594935060005283600020946000955b8287106139c05750505081929360a491010190388080613906565b805460a485890101529490950194869488945081016139a5565b949350955095505060a49360ff1916848401521515901b010190388080613906565b50505050505050506139319061355c565b5050505050506139319061355c565b506002546001600160a01b0316151561373e565b356001600160a01b03811681036103cd5790565b91908110156130ad5760051b81013590601e19813603018212156103cd5701908135916001600160401b0383116103cd5760200182360381136103cd579190565b613a8f9080613665565b90600a820291808304600a14901517156106bd57606491613ab691838211613aba57613665565b0490565b839150613665565b60405190613acf82612e75565b816101006000918281528260208201528260408201528260608201528260808201528260a08201528260c08201528260e08201520152565b9060198110156130ad5760051b0190565b600060c052604051613b2981612ec9565b61032036823760c052805190600182018083116106bd5760889004916001830183116106bd57916000905b600181018210613cca575050505060c0516001600160401b038151166fffffffffffffffff0000000000000000602083015160401b161760408201519160606001600160401b0360c01b91015160c01b16916001600160401b0360801b9060801b1617177eff00ff00ff00ff00ff00ff00ff00ff00ff00ff00ff00ff00ff00ff00ff00ff7fff00ff00ff00ff00ff00ff00ff00ff00ff00ff00ff00ff00ff00ff00ff00ff008260081b169160081c16177dffff0000ffff0000ffff0000ffff0000ffff0000ffff0000ffff0000ffff7fffff0000ffff0000ffff0000ffff0000ffff0000ffff0000ffff0000ffff00008260101b169160101c16177bffffffff00000000ffffffff00000000ffffffff00000000ffffffff7fffffffff00000000ffffffff00000000ffffffff00000000ffffffff000000008260201b169160201c161777ffffffffffffffff0000000000000000ffffffffffffffff80198260401b169160401c16178060801b9060801c1790565b608882939495920294838604608814841517156106bd576000925b60119283851015613e3057600090815b600880841015613df057600388811b89810483148a151715613ddb5785613d1f613d24928f613215565b613215565b8c88821015613d8657508b518110156130ad57602086918d01015160f81c915b1b918583041485151715613d715760ff16901b6001600160401b03161791613d6b9061355c565b91613cf5565b87634e487b7160e01b60005260045260246000fd5b90888103613d9957505084600691613d44565b60888201809211613dc65760878e01918211613dc65703613dbd5784608091613d44565b84600091613d44565b89634e487b7160e01b60005260045260246000fd5b88634e487b7160e01b60005260045260246000fd5b50909450613e2a929591506001600160401b039081613e118460c051613b07565b51161890613e218360c051613b07565b9116905261355c565b92613ce5565b9594925095509150610320604051613e4781612ec9565b369037604051613e5681612ee5565b60a036823760405190613e6882612ee5565b60a036833760405161032081018181106001600160401b03821117612731576040526000815260016020820152603e6040820152601c6060820152601b6080820152602460a0820152602c60c0820152600660e0820152603761010082015260146101208201526003610140820152600a610160820152602b61018082015260196101a082015260276101c082015260296101e0820152602d610200820152600f61022082015260156102408201526008610260820152601261028082015260026102a0820152603d6102c082015260386102e0820152600e6103008201526040518060a052806103008101106001600160401b036103008301111761273157806103006001920160405252618082602060a051015267800000000000808a604060a0510152678000000080008000606060a051015261808b608060a0510152638000000160a08051015267800000008000808160c060a051015267800000000000800960e060a0510152608a61010060a0510152608861012060a0510152638000800961014060a0510152638000000a61016060a0510152638000808b61018060a051015267800000000000008b6101a060a05101526780000000000080896101c060a05101526780000000000080036101e060a051015267800000000000800261020060a051015267800000000000008061022060a051015261800a61024060a051015267800000008000000a61026060a051015267800000008000808161028060a05101526780000000000080806102a060a051015263800000016102c060a05101526780000000800080086102e060a05101526000915b601883106140e357505050506140da60019161355c565b91939050613b54565b9491966001600160401b0360c099929794995181610280818351168260a08501511618826101408501511618826101e08501511618920151161816865260c0516001600160401b036102a0816020840151168260c0850151161882610160850151161882610200850151161892015116186001600160401b03811660208801526001600160401b0360c051816102c0816040840151168260e0850151161882610180850151161882610220850151161892015116181660408801526001600160401b0360c051816102e081606084015116826101008501511618826101a0850151161882610240850151161892015116181660608801526001600160401b03808060c0518161030081608084015116826101208501511618826101c085015116188261026085015116189201511618168060808b015281600185603f1c1667fffffffffffffffe8660011b16178218168d528c6020838c614261826040818451169301511667fffffffffffffffe600182603f1c169160011b161790565b18169101528c6040838c614295826060816020850151169301511667fffffffffffffffe600182603f1c169160011b161790565b18169101528c6060838c6142c9826080816040850151169301511667fffffffffffffffe600182603f1c169160011b161790565b18169101528c6080838c6142fa828060608401511692511667fffffffffffffffe600182603f1c169160011b161790565b181691015260c0519367fffffffffffffffe600182603f1c169160011b1617181681835116181690526001600160401b0360208a0151166001600160401b03602060c051019181835116181690526001600160401b0360408a0151166001600160401b03604060c051019181835116181690526001600160401b0360608a0151166001600160401b03606060c051019181835116181690526001600160401b0360808a0151166001600160401b03608060c051019181835116181690526001600160401b038951166001600160401b0360a060c051019181835116181690526001600160401b0360208a0151166001600160401b0360c08051019181835116181690526001600160401b0360408a0151166001600160401b0360e060c051019181835116181690526001600160401b0360608a0151166001600160401b0361010060c051019181835116181690526001600160401b0360808a0151166001600160401b0361012060c051019181835116181690526001600160401b038951166001600160401b0361014060c051019181835116181690526001600160401b0360208a0151166001600160401b0361016060c051019181835116181690526001600160401b0360408a0151166001600160401b0361018060c051019181835116181690526001600160401b0360608a0151166001600160401b036101a060c051019181835116181690526001600160401b0360808a0151166001600160401b036101c060c051019181835116181690526001600160401b038951166001600160401b036101e060c051019181835116181690526001600160401b0360208a0151166001600160401b0361020060c051019181835116181690526001600160401b0360408a0151166001600160401b0361022060c051019181835116181690526001600160401b0360608a0151166001600160401b0361024060c051019181835116181690526001600160401b0360808a0151166001600160401b0361026060c051019181835116181690526001600160401b038951166001600160401b0361028060c051019181835116181690526001600160401b0360208a0151166001600160401b036102a060c051019181835116181690526001600160401b0360408a0151166001600160401b036102c060c051019181835116181690526001600160401b0360608a0151166001600160401b036102e060c051019181835116181690526001600160401b0360808a0151166001600160401b0361030060c051019181835116181690526146ae60405180608052612ec9565b610320366080513760005b60198110614875575060005b60058082101561483557808281020482036106bd576146e8828202608051613b07565b519082810260018101106106bd57614707600184830201608051613b07565b5181840260028101106106bd57614725600285840201608051613b07565b519184810260038101106106bd57614744600386830201608051613b07565b51600491908682028084011061482057926001600160401b0361480d848985898599878761481b9f9e81819f9d614784829e918a84930201608051613b07565b5196816147958b8b0260c051613b07565b9616191616911618169052866147b260018686020160c051613b07565b9a16998780838d191616818b161816905286806147d660028787020160c051613b07565b92169a81848d1916161816905285806147f660038686020160c051613b07565b921699818d8c19161618169052020160c051613b07565b95161916161816905261355c565b6146c5565b601183634e487b7160e01b6000525260246000fd5b50509661486f9098939691989592956001600160401b038160051b60a0510151166001600160401b0360c05191818351161816905261355c565b916140c3565b600581066001600160ff1b03811690036106bd5760036005820481020460058204036106bd5760056148b181830460030282840660011b613215565b06906148dd6001600160401b036148ca8360c051613b07565b51166148d6838c613b07565b519061494a565b60058381020483036106bd576001600160401b03613e2161490761490f9560050260058604613215565b608051613b07565b6146b9565b9060405191602083015260408201526040815260608101908082106001600160401b038311176127315761360b91604052613b18565b81156136a4576001600160401b0380911682604003604081116106bd578183911c16921b161790565b61360b90610efc6040805180937fc1092c7f825a13e6e2df4be421deaca778b8a52bbf38bd696bd3e7c3a45e085460208301526149b98151809260208686019101612fc7565b8101036020810184520182612f00565b9391929092604051936020850195865260408501526001600160601b03199060601b166060840152607483015260948201526094815260c08101908082106001600160401b03831117612731576040610efc9161360b948483527f413f4c7a034bb455a77260c9f071651135e9ce0a039b91c830fb3d2f8e3a19cd60e08301526149b982518092610100850190612fc756fe9b779b17422d0df92223018b32b4d1fa46e071723d6817e2486d003becc55f00a264697066735822122070d0aaf894bde9c783f83936afded362f4b8ee048f045c60bad92964cacd354864736f6c63430008140033","linkReferences":{}},"methodIdentifiers":{"CHALLENGE_BOND_PERCENT()":"844ca7d7","CHALLENGE_PERIOD()":"c3a079ed","DEFAULT_LOCK_EXPIRY()":"30362d81","DEFENSE_PERIOD()":"a0f5df3e","EMERGENCY_BOND_PERCENT()":"66fdf627","EMERGENCY_TIME_LOCK()":"86fdd39f","MIN_CHALLENGE_BOND()":"04a829f2","MIN_EMERGENCY_BOND()":"8be9963a","MIN_LOCK_AMOUNT()":"dd764abf","NORMAL_TIME_LOCK()":"7e0ee4f1","PROVER_TIMEOUT()":"3659e380","REQUIRED_SIGNATURES()":"9ac18b19","SLASH_BURN_PERCENT()":"368fdfa7","SLASH_CHALLENGER_PERCENT()":"171a077e","SLASH_INSURANCE_PERCENT()":"2b8c0953","TOTAL_PROVERS()":"eac61708","TVL_CAP()":"f3ce02c7","activeProvers(uint256)":"4455dbe9","autoResolveChallenge(bytes32)":"b9f3313d","calculateChallengeBond(uint256)":"ec5db8b0","calculateEmergencyBond(uint256)":"cad723ce","challenge(bytes32,bytes)":"bab26713","challenges(bytes32)":"c1e69b66","checkProverTimeout(bytes32)":"0e462a6c","computeStateRoot(uint256,address,uint256,address,uint256,uint256,bytes32)":"fcef2d9a","computeUnlockStateRoot(bytes32,bytes32,address,uint256,uint256)":"b56c2de8","currentStateRoot()":"ac2eba98","emergencyUnlocks(bytes32)":"a0fbc263","enhancedMonitoring(bytes32)":"e7a423f7","executeUnlock(bytes32)":"1b4493aa","getActiveProverCount()":"492723b4","getChallenge(bytes32)":"458d2bf1","getEmergencyUnlock(bytes32)":"71e513bb","getLock(bytes32)":"d6f27b58","getProver(address)":"faab193c","getSPHINCSVerifier()":"dd365c28","getSlashingDistribution()":"8f01465b","getUnlockRequest(bytes32)":"7250921c","initiateEmergencyFromTimeout(bytes32)":"d5e8b700","insuranceFund()":"b7902303","isEnhancedMonitoring(bytes32)":"a3bb88ee","isFullVerificationEnabled()":"884476f9","isQuantumResistant()":"6f173079","lock(address,bytes)":"9ca17998","lockWithExpiry(address,bytes,uint256)":"4157e049","locks(bytes32)":"ed5e8437","nonceCounter()":"de780bbd","owner()":"8da5cb5b","pause()":"8456cb59","paused()":"5c975abb","provers(address)":"1dec844b","recordProverRequest(bytes32)":"68faeaee","registerProver(address,bytes)":"488dbf8e","requestEmergencyUnlock(bytes32,address)":"49fe43f9","requestUnlock(bytes32,address,bytes32[],bytes32,bytes[],address[])":"77b053c2","requestUnlockLegacy(bytes32,address,bytes32[],bytes32,bytes[],address[])":"94c01ce3","resolveChallenge(bytes32,bool)":"7d89122d","securityCouncil()":"27eb6c0f","setFullVerification(bool)":"2a308c2d","setSPHINCSVerifier(address)":"64e99ab5","sphincsVerifier()":"12668c22","submitDefense(bytes32,bytes)":"8d9c20b5","totalBurned()":"d89135cd","totalLocked()":"56891412","transferOwnership(address)":"f2fde38b","unlockNonceCounter()":"8adfe175","unlockRequests(bytes32)":"e7017f78","unpause()":"3f4ba83a","updateSecurityCouncil(address)":"dbfe3e96","updateStateRoot(bytes32)":"acaf80a1","useFullVerification()":"e0d49b6f"},"id":6}