{"abi":[{"type":"constructor","inputs":[{"name":"_securityCouncil","type":"address","internalType":"address"},{"name":"_sphincsVerifier","type":"address","internalType":"address"}],"stateMutability":"nonpayable"},{"type":"receive","stateMutability":"payable"},{"type":"function","name":"CHALLENGE_BOND_PERCENT","inputs":[],"outputs":[{"name":"","type":"uint256","internalType":"uint256"}],"stateMutability":"view"},{"type":"function","name":"CHALLENGE_PERIOD","inputs":[],"outputs":[{"name":"","type":"uint256","internalType":"uint256"}],"stateMutability":"view"},{"type":"function","name":"DEFAULT_LOCK_EXPIRY","inputs":[],"outputs":[{"name":"","type":"uint256","internalType":"uint256"}],"stateMutability":"view"},{"type":"function","name":"DEFENSE_PERIOD","inputs":[],"outputs":[{"name":"","type":"uint256","internalType":"uint256"}],"stateMutability":"view"},{"type":"function","name":"EMERGENCY_BOND_PERCENT","inputs":[],"outputs":[{"name":"","type":"uint256","internalType":"uint256"}],"stateMutability":"view"},{"type":"function","name":"EMERGENCY_TIME_LOCK","inputs":[],"outputs":[{"name":"","type":"uint256","internalType":"uint256"}],"stateMutability":"view"},{"type":"function","name":"MIN_CHALLENGE_BOND","inputs":[],"outputs":[{"name":"","type":"uint256","internalType":"uint256"}],"stateMutability":"view"},{"type":"function","name":"MIN_EMERGENCY_BOND","inputs":[],"outputs":[{"name":"","type":"uint256","internalType":"uint256"}],"stateMutability":"view"},{"type":"function","name":"MIN_LOCK_AMOUNT","inputs":[],"outputs":[{"name":"","type":"uint256","internalType":"uint256"}],"stateMutability":"view"},{"type":"function","name":"NORMAL_TIME_LOCK","inputs":[],"outputs":[{"name":"","type":"uint256","internalType":"uint256"}],"stateMutability":"view"},{"type":"function","name":"PROVER_TIMEOUT","inputs":[],"outputs":[{"name":"","type":"uint256","internalType":"uint256"}],"stateMutability":"view"},{"type":"function","name":"REQUIRED_SIGNATURES","inputs":[],"outputs":[{"name":"","type":"uint256","internalType":"uint256"}],"stateMutability":"view"},{"type":"function","name":"SLASH_BURN_PERCENT","inputs":[],"outputs":[{"name":"","type":"uint256","internalType":"uint256"}],"stateMutability":"view"},{"type":"function","name":"SLASH_CHALLENGER_PERCENT","inputs":[],"outputs":[{"name":"","type":"uint256","internalType":"uint256"}],"stateMutability":"view"},{"type":"function","name":"SLASH_INSURANCE_PERCENT","inputs":[],"outputs":[{"name":"","type":"uint256","internalType":"uint256"}],"stateMutability":"view"},{"type":"function","name":"TOTAL_PROVERS","inputs":[],"outputs":[{"name":"","type":"uint256","internalType":"uint256"}],"stateMutability":"view"},{"type":"function","name":"TVL_CAP","inputs":[],"outputs":[{"name":"","type":"uint256","internalType":"uint256"}],"stateMutability":"view"},{"type":"function","name":"activeProvers","inputs":[{"name":"","type":"uint256","internalType":"uint256"}],"outputs":[{"name":"","type":"address","internalType":"address"}],"stateMutability":"view"},{"type":"function","name":"autoResolveChallenge","inputs":[{"name":"lockId","type":"bytes32","internalType":"bytes32"}],"outputs":[],"stateMutability":"nonpayable"},{"type":"function","name":"calculateChallengeBond","inputs":[{"name":"amount","type":"uint256","internalType":"uint256"}],"outputs":[{"name":"","type":"uint256","internalType":"uint256"}],"stateMutability":"pure"},{"type":"function","name":"calculateEmergencyBond","inputs":[{"name":"amount","type":"uint256","internalType":"uint256"}],"outputs":[{"name":"","type":"uint256","internalType":"uint256"}],"stateMutability":"pure"},{"type":"function","name":"challenge","inputs":[{"name":"lockId","type":"bytes32","internalType":"bytes32"},{"name":"fraudProof","type":"bytes","internalType":"bytes"}],"outputs":[],"stateMutability":"payable"},{"type":"function","name":"challenges","inputs":[{"name":"","type":"bytes32","internalType":"bytes32"}],"outputs":[{"name":"lockId","type":"bytes32","internalType":"bytes32"},{"name":"challenger","type":"address","internalType":"address"},{"name":"fraudProofHash","type":"bytes32","internalType":"bytes32"},{"name":"challengedAt","type":"uint256","internalType":"uint256"},{"name":"status","type":"uint8","internalType":"enum L1Vault.ChallengeStatus"},{"name":"bond","type":"uint256","internalType":"uint256"},{"name":"defenseDeadline","type":"uint256","internalType":"uint256"},{"name":"defenseProofHash","type":"bytes32","internalType":"bytes32"},{"name":"defender","type":"address","internalType":"address"}],"stateMutability":"view"},{"type":"function","name":"checkProverTimeout","inputs":[{"name":"lockId","type":"bytes32","internalType":"bytes32"}],"outputs":[{"name":"isTimedOut","type":"bool","internalType":"bool"},{"name":"proverRequestedAt","type":"uint256","internalType":"uint256"},{"name":"timeRemaining","type":"uint256","internalType":"uint256"}],"stateMutability":"view"},{"type":"function","name":"computeStateRoot","inputs":[{"name":"chainId","type":"uint256","internalType":"uint256"},{"name":"asset","type":"address","internalType":"address"},{"name":"amount","type":"uint256","internalType":"uint256"},{"name":"destAddr","type":"address","internalType":"address"},{"name":"expiry","type":"uint256","internalType":"uint256"},{"name":"nonce","type":"uint256","internalType":"uint256"},{"name":"pkDilithium","type":"bytes32","internalType":"bytes32"}],"outputs":[{"name":"","type":"bytes32","internalType":"bytes32"}],"stateMutability":"pure"},{"type":"function","name":"computeUnlockStateRoot","inputs":[{"name":"sr0","type":"bytes32","internalType":"bytes32"},{"name":"lockId","type":"bytes32","internalType":"bytes32"},{"name":"destAddr","type":"address","internalType":"address"},{"name":"amount","type":"uint256","internalType":"uint256"},{"name":"nonce","type":"uint256","internalType":"uint256"}],"outputs":[{"name":"","type":"bytes32","internalType":"bytes32"}],"stateMutability":"pure"},{"type":"function","name":"currentStateRoot","inputs":[],"outputs":[{"name":"","type":"bytes32","internalType":"bytes32"}],"stateMutability":"view"},{"type":"function","name":"emergencyUnlocks","inputs":[{"name":"","type":"bytes32","internalType":"bytes32"}],"outputs":[{"name":"lockId","type":"bytes32","internalType":"bytes32"},{"name":"initiator","type":"address","internalType":"address"},{"name":"bondAmount","type":"uint256","internalType":"uint256"},{"name":"initiatedAt","type":"uint256","internalType":"uint256"},{"name":"emergencyReadyAt","type":"uint256","internalType":"uint256"},{"name":"status","type":"uint8","internalType":"enum L1Vault.EmergencyStatus"},{"name":"enhancedMonitoring","type":"bool","internalType":"bool"},{"name":"fromTimeout","type":"bool","internalType":"bool"}],"stateMutability":"view"},{"type":"function","name":"enhancedMonitoring","inputs":[{"name":"","type":"bytes32","internalType":"bytes32"}],"outputs":[{"name":"","type":"bool","internalType":"bool"}],"stateMutability":"view"},{"type":"function","name":"executeUnlock","inputs":[{"name":"lockId","type":"bytes32","internalType":"bytes32"}],"outputs":[],"stateMutability":"nonpayable"},{"type":"function","name":"getActiveProverCount","inputs":[],"outputs":[{"name":"","type":"uint256","internalType":"uint256"}],"stateMutability":"view"},{"type":"function","name":"getChallenge","inputs":[{"name":"lockId","type":"bytes32","internalType":"bytes32"}],"outputs":[{"name":"","type":"tuple","internalType":"struct L1Vault.Challenge","components":[{"name":"lockId","type":"bytes32","internalType":"bytes32"},{"name":"challenger","type":"address","internalType":"address"},{"name":"fraudProofHash","type":"bytes32","internalType":"bytes32"},{"name":"challengedAt","type":"uint256","internalType":"uint256"},{"name":"status","type":"uint8","internalType":"enum L1Vault.ChallengeStatus"},{"name":"bond","type":"uint256","internalType":"uint256"},{"name":"defenseDeadline","type":"uint256","internalType":"uint256"},{"name":"defenseProofHash","type":"bytes32","internalType":"bytes32"},{"name":"defender","type":"address","internalType":"address"}]}],"stateMutability":"view"},{"type":"function","name":"getEmergencyUnlock","inputs":[{"name":"lockId","type":"bytes32","internalType":"bytes32"}],"outputs":[{"name":"","type":"tuple","internalType":"struct L1Vault.EmergencyUnlock","components":[{"name":"lockId","type":"bytes32","internalType":"bytes32"},{"name":"initiator","type":"address","internalType":"address"},{"name":"bondAmount","type":"uint256","internalType":"uint256"},{"name":"initiatedAt","type":"uint256","internalType":"uint256"},{"name":"emergencyReadyAt","type":"uint256","internalType":"uint256"},{"name":"status","type":"uint8","internalType":"enum L1Vault.EmergencyStatus"},{"name":"enhancedMonitoring","type":"bool","internalType":"bool"},{"name":"fromTimeout","type":"bool","internalType":"bool"}]}],"stateMutability":"view"},{"type":"function","name":"getLock","inputs":[{"name":"lockId","type":"bytes32","internalType":"bytes32"}],"outputs":[{"name":"","type":"tuple","internalType":"struct L1Vault.Lock","components":[{"name":"sender","type":"address","internalType":"address"},{"name":"recipient","type":"address","internalType":"address"},{"name":"amount","type":"uint256","internalType":"uint256"},{"name":"dilithiumPubKeyHash","type":"bytes32","internalType":"bytes32"},{"name":"lockedAt","type":"uint256","internalType":"uint256"},{"name":"status","type":"uint8","internalType":"enum L1Vault.LockStatus"},{"name":"stateRoot","type":"bytes32","internalType":"bytes32"},{"name":"expiry","type":"uint256","internalType":"uint256"},{"name":"nonce","type":"uint256","internalType":"uint256"}]}],"stateMutability":"view"},{"type":"function","name":"getProver","inputs":[{"name":"proverAddress","type":"address","internalType":"address"}],"outputs":[{"name":"","type":"tuple","internalType":"struct L1Vault.Prover","components":[{"name":"proverAddress","type":"address","internalType":"address"},{"name":"sphincsPubKeyHash","type":"bytes32","internalType":"bytes32"},{"name":"sphincsPublicKey","type":"bytes","internalType":"bytes"},{"name":"stakedAmount","type":"uint256","internalType":"uint256"},{"name":"registeredAt","type":"uint256","internalType":"uint256"},{"name":"isActive","type":"bool","internalType":"bool"},{"name":"successfulSigns","type":"uint256","internalType":"uint256"},{"name":"slashedCount","type":"uint256","internalType":"uint256"}]}],"stateMutability":"view"},{"type":"function","name":"getSPHINCSVerifier","inputs":[],"outputs":[{"name":"","type":"address","internalType":"address"}],"stateMutability":"view"},{"type":"function","name":"getSlashingDistribution","inputs":[],"outputs":[{"name":"challenger","type":"uint256","internalType":"uint256"},{"name":"insurance","type":"uint256","internalType":"uint256"},{"name":"burn","type":"uint256","internalType":"uint256"}],"stateMutability":"pure"},{"type":"function","name":"getUnlockRequest","inputs":[{"name":"lockId","type":"bytes32","internalType":"bytes32"}],"outputs":[{"name":"","type":"tuple","internalType":"struct L1Vault.UnlockRequest","components":[{"name":"lockId","type":"bytes32","internalType":"bytes32"},{"name":"recipient","type":"address","internalType":"address"},{"name":"amount","type":"uint256","internalType":"uint256"},{"name":"stateRoot","type":"bytes32","internalType":"bytes32"},{"name":"unlockStateRoot","type":"bytes32","internalType":"bytes32"},{"name":"requestedAt","type":"uint256","internalType":"uint256"},{"name":"unlockableAt","type":"uint256","internalType":"uint256"},{"name":"isEmergency","type":"bool","internalType":"bool"},{"name":"bond","type":"uint256","internalType":"uint256"},{"name":"signatureCount","type":"uint256","internalType":"uint256"},{"name":"unlockNonce","type":"uint256","internalType":"uint256"},{"name":"proverRequestedAt","type":"uint256","internalType":"uint256"},{"name":"emergencyReadyAt","type":"uint256","internalType":"uint256"}]}],"stateMutability":"view"},{"type":"function","name":"initiateEmergencyFromTimeout","inputs":[{"name":"lockId","type":"bytes32","internalType":"bytes32"}],"outputs":[],"stateMutability":"payable"},{"type":"function","name":"insuranceFund","inputs":[],"outputs":[{"name":"","type":"uint256","internalType":"uint256"}],"stateMutability":"view"},{"type":"function","name":"isEnhancedMonitoring","inputs":[{"name":"lockId","type":"bytes32","internalType":"bytes32"}],"outputs":[{"name":"","type":"bool","internalType":"bool"}],"stateMutability":"view"},{"type":"function","name":"isFullVerificationEnabled","inputs":[],"outputs":[{"name":"","type":"bool","internalType":"bool"}],"stateMutability":"view"},{"type":"function","name":"isQuantumResistant","inputs":[],"outputs":[{"name":"","type":"bool","internalType":"bool"}],"stateMutability":"pure"},{"type":"function","name":"lock","inputs":[{"name":"recipient","type":"address","internalType":"address"},{"name":"dilithiumPubKey","type":"bytes","internalType":"bytes"}],"outputs":[{"name":"lockId","type":"bytes32","internalType":"bytes32"}],"stateMutability":"payable"},{"type":"function","name":"lockWithExpiry","inputs":[{"name":"recipient","type":"address","internalType":"address"},{"name":"dilithiumPubKey","type":"bytes","internalType":"bytes"},{"name":"expiry","type":"uint256","internalType":"uint256"}],"outputs":[{"name":"lockId","type":"bytes32","internalType":"bytes32"}],"stateMutability":"payable"},{"type":"function","name":"locks","inputs":[{"name":"","type":"bytes32","internalType":"bytes32"}],"outputs":[{"name":"sender","type":"address","internalType":"address"},{"name":"recipient","type":"address","internalType":"address"},{"name":"amount","type":"uint256","internalType":"uint256"},{"name":"dilithiumPubKeyHash","type":"bytes32","internalType":"bytes32"},{"name":"lockedAt","type":"uint256","internalType":"uint256"},{"name":"status","type":"uint8","internalType":"enum L1Vault.LockStatus"},{"name":"stateRoot","type":"bytes32","internalType":"bytes32"},{"name":"expiry","type":"uint256","internalType":"uint256"},{"name":"nonce","type":"uint256","internalType":"uint256"}],"stateMutability":"view"},{"type":"function","name":"nonceCounter","inputs":[],"outputs":[{"name":"","type":"uint256","internalType":"uint256"}],"stateMutability":"view"},{"type":"function","name":"owner","inputs":[],"outputs":[{"name":"","type":"address","internalType":"address"}],"stateMutability":"view"},{"type":"function","name":"pause","inputs":[],"outputs":[],"stateMutability":"nonpayable"},{"type":"function","name":"paused","inputs":[],"outputs":[{"name":"","type":"bool","internalType":"bool"}],"stateMutability":"view"},{"type":"function","name":"provers","inputs":[{"name":"","type":"address","internalType":"address"}],"outputs":[{"name":"proverAddress","type":"address","internalType":"address"},{"name":"sphincsPubKeyHash","type":"bytes32","internalType":"bytes32"},{"name":"sphincsPublicKey","type":"bytes","internalType":"bytes"},{"name":"stakedAmount","type":"uint256","internalType":"uint256"},{"name":"registeredAt","type":"uint256","internalType":"uint256"},{"name":"isActive","type":"bool","internalType":"bool"},{"name":"successfulSigns","type":"uint256","internalType":"uint256"},{"name":"slashedCount","type":"uint256","internalType":"uint256"}],"stateMutability":"view"},{"type":"function","name":"recordProverRequest","inputs":[{"name":"lockId","type":"bytes32","internalType":"bytes32"}],"outputs":[],"stateMutability":"nonpayable"},{"type":"function","name":"registerProver","inputs":[{"name":"proverAddress","type":"address","internalType":"address"},{"name":"sphincsPublicKey","type":"bytes","internalType":"bytes"}],"outputs":[],"stateMutability":"payable"},{"type":"function","name":"requestEmergencyUnlock","inputs":[{"name":"lockId","type":"bytes32","internalType":"bytes32"},{"name":"recipient","type":"address","internalType":"address"}],"outputs":[],"stateMutability":"payable"},{"type":"function","name":"requestUnlock","inputs":[{"name":"lockId","type":"bytes32","internalType":"bytes32"},{"name":"recipient","type":"address","internalType":"address"},{"name":"smtProof","type":"bytes32[]","internalType":"bytes32[]"},{"name":"expectedSR1","type":"bytes32","internalType":"bytes32"},{"name":"sphincsSignatures","type":"bytes[]","internalType":"bytes[]"},{"name":"signingProvers","type":"address[]","internalType":"address[]"}],"outputs":[],"stateMutability":"nonpayable"},{"type":"function","name":"requestUnlockLegacy","inputs":[{"name":"lockId","type":"bytes32","internalType":"bytes32"},{"name":"recipient","type":"address","internalType":"address"},{"name":"smtProof","type":"bytes32[]","internalType":"bytes32[]"},{"name":"stateRoot","type":"bytes32","internalType":"bytes32"},{"name":"sphincsSignatures","type":"bytes[]","internalType":"bytes[]"},{"name":"signingProvers","type":"address[]","internalType":"address[]"}],"outputs":[],"stateMutability":"nonpayable"},{"type":"function","name":"resolveChallenge","inputs":[{"name":"lockId","type":"bytes32","internalType":"bytes32"},{"name":"challengeValid","type":"bool","internalType":"bool"}],"outputs":[],"stateMutability":"nonpayable"},{"type":"function","name":"securityCouncil","inputs":[],"outputs":[{"name":"","type":"address","internalType":"address"}],"stateMutability":"view"},{"type":"function","name":"setFullVerification","inputs":[{"name":"_enable","type":"bool","internalType":"bool"}],"outputs":[],"stateMutability":"nonpayable"},{"type":"function","name":"setSPHINCSVerifier","inputs":[{"name":"_sphincsVerifier","type":"address","internalType":"address"}],"outputs":[],"stateMutability":"nonpayable"},{"type":"function","name":"sphincsVerifier","inputs":[],"outputs":[{"name":"","type":"address","internalType":"contract ISPHINCSVerifier"}],"stateMutability":"view"},{"type":"function","name":"submitDefense","inputs":[{"name":"lockId","type":"bytes32","internalType":"bytes32"},{"name":"defenseProof","type":"bytes","internalType":"bytes"}],"outputs":[],"stateMutability":"nonpayable"},{"type":"function","name":"totalBurned","inputs":[],"outputs":[{"name":"","type":"uint256","internalType":"uint256"}],"stateMutability":"view"},{"type":"function","name":"totalLocked","inputs":[],"outputs":[{"name":"","type":"uint256","internalType":"uint256"}],"stateMutability":"view"},{"type":"function","name":"transferOwnership","inputs":[{"name":"newOwner","type":"address","internalType":"address"}],"outputs":[],"stateMutability":"nonpayable"},{"type":"function","name":"unlockNonceCounter","inputs":[],"outputs":[{"name":"","type":"uint256","internalType":"uint256"}],"stateMutability":"view"},{"type":"function","name":"unlockRequests","inputs":[{"name":"","type":"bytes32","internalType":"bytes32"}],"outputs":[{"name":"lockId","type":"bytes32","internalType":"bytes32"},{"name":"recipient","type":"address","internalType":"address"},{"name":"amount","type":"uint256","internalType":"uint256"},{"name":"stateRoot","type":"bytes32","internalType":"bytes32"},{"name":"unlockStateRoot","type":"bytes32","internalType":"bytes32"},{"name":"requestedAt","type":"uint256","internalType":"uint256"},{"name":"unlockableAt","type":"uint256","internalType":"uint256"},{"name":"isEmergency","type":"bool","internalType":"bool"},{"name":"bond","type":"uint256","internalType":"uint256"},{"name":"signatureCount","type":"uint256","internalType":"uint256"},{"name":"unlockNonce","type":"uint256","internalType":"uint256"},{"name":"proverRequestedAt","type":"uint256","internalType":"uint256"},{"name":"emergencyReadyAt","type":"uint256","internalType":"uint256"}],"stateMutability":"view"},{"type":"function","name":"unpause","inputs":[],"outputs":[],"stateMutability":"nonpayable"},{"type":"function","name":"updateSecurityCouncil","inputs":[{"name":"newCouncil","type":"address","internalType":"address"}],"outputs":[],"stateMutability":"nonpayable"},{"type":"function","name":"updateStateRoot","inputs":[{"name":"newStateRoot","type":"bytes32","internalType":"bytes32"}],"outputs":[],"stateMutability":"nonpayable"},{"type":"function","name":"useFullVerification","inputs":[],"outputs":[{"name":"","type":"bool","internalType":"bool"}],"stateMutability":"view"},{"type":"event","name":"ChallengeFiled","inputs":[{"name":"lockId","type":"bytes32","indexed":true,"internalType":"bytes32"},{"name":"challenger","type":"address","indexed":true,"internalType":"address"},{"name":"fraudProofHash","type":"bytes32","indexed":false,"internalType":"bytes32"},{"name":"bond","type":"uint256","indexed":false,"internalType":"uint256"},{"name":"defenseDeadline","type":"uint256","indexed":false,"internalType":"uint256"}],"anonymous":false},{"type":"event","name":"ChallengeResolved","inputs":[{"name":"lockId","type":"bytes32","indexed":true,"internalType":"bytes32"},{"name":"challengeValid","type":"bool","indexed":false,"internalType":"bool"},{"name":"slashedAmount","type":"uint256","indexed":false,"internalType":"uint256"},{"name":"challengerReward","type":"uint256","indexed":false,"internalType":"uint256"},{"name":"insuranceAmount","type":"uint256","indexed":false,"internalType":"uint256"},{"name":"burnedAmount","type":"uint256","indexed":false,"internalType":"uint256"}],"anonymous":false},{"type":"event","name":"DefenseSubmitted","inputs":[{"name":"lockId","type":"bytes32","indexed":true,"internalType":"bytes32"},{"name":"defender","type":"address","indexed":true,"internalType":"address"},{"name":"defenseProofHash","type":"bytes32","indexed":false,"internalType":"bytes32"}],"anonymous":false},{"type":"event","name":"EmergencyBondReceived","inputs":[{"name":"lockId","type":"bytes32","indexed":true,"internalType":"bytes32"},{"name":"payer","type":"address","indexed":true,"internalType":"address"},{"name":"bondAmount","type":"uint256","indexed":false,"internalType":"uint256"},{"name":"requiredBond","type":"uint256","indexed":false,"internalType":"uint256"}],"anonymous":false},{"type":"event","name":"EmergencyUnlockFinalized","inputs":[{"name":"lockId","type":"bytes32","indexed":true,"internalType":"bytes32"},{"name":"recipient","type":"address","indexed":true,"internalType":"address"},{"name":"amount","type":"uint256","indexed":false,"internalType":"uint256"},{"name":"bondReturned","type":"uint256","indexed":false,"internalType":"uint256"},{"name":"wasSlashed","type":"bool","indexed":false,"internalType":"bool"}],"anonymous":false},{"type":"event","name":"EmergencyUnlockInitiated","inputs":[{"name":"lockId","type":"bytes32","indexed":true,"internalType":"bytes32"},{"name":"initiator","type":"address","indexed":true,"internalType":"address"},{"name":"fromTimeout","type":"bool","indexed":false,"internalType":"bool"},{"name":"timestamp","type":"uint256","indexed":false,"internalType":"uint256"}],"anonymous":false},{"type":"event","name":"EmergencyUnlockRequested","inputs":[{"name":"lockId","type":"bytes32","indexed":true,"internalType":"bytes32"},{"name":"recipient","type":"address","indexed":true,"internalType":"address"},{"name":"amount","type":"uint256","indexed":false,"internalType":"uint256"},{"name":"bond","type":"uint256","indexed":false,"internalType":"uint256"},{"name":"unlockableAt","type":"uint256","indexed":false,"internalType":"uint256"}],"anonymous":false},{"type":"event","name":"EnhancedMonitoringActivated","inputs":[{"name":"lockId","type":"bytes32","indexed":true,"internalType":"bytes32"},{"name":"timestamp","type":"uint256","indexed":false,"internalType":"uint256"}],"anonymous":false},{"type":"event","name":"Locked","inputs":[{"name":"lockId","type":"bytes32","indexed":true,"internalType":"bytes32"},{"name":"sender","type":"address","indexed":true,"internalType":"address"},{"name":"recipient","type":"address","indexed":true,"internalType":"address"},{"name":"amount","type":"uint256","indexed":false,"internalType":"uint256"},{"name":"dilithiumPubKeyHash","type":"bytes32","indexed":false,"internalType":"bytes32"},{"name":"stateRoot","type":"bytes32","indexed":false,"internalType":"bytes32"}],"anonymous":false},{"type":"event","name":"OwnershipTransferred","inputs":[{"name":"previousOwner","type":"address","indexed":true,"internalType":"address"},{"name":"newOwner","type":"address","indexed":true,"internalType":"address"}],"anonymous":false},{"type":"event","name":"Paused","inputs":[{"name":"account","type":"address","indexed":false,"internalType":"address"}],"anonymous":false},{"type":"event","name":"ProverRegistered","inputs":[{"name":"prover","type":"address","indexed":true,"internalType":"address"},{"name":"sphincsPubKeyHash","type":"bytes32","indexed":false,"internalType":"bytes32"},{"name":"stake","type":"uint256","indexed":false,"internalType":"uint256"}],"anonymous":false},{"type":"event","name":"ProverSlashed","inputs":[{"name":"prover","type":"address","indexed":true,"internalType":"address"},{"name":"amount","type":"uint256","indexed":false,"internalType":"uint256"},{"name":"reason","type":"bytes32","indexed":false,"internalType":"bytes32"}],"anonymous":false},{"type":"event","name":"ProverTimeoutDetected","inputs":[{"name":"lockId","type":"bytes32","indexed":true,"internalType":"bytes32"},{"name":"requestedAt","type":"uint256","indexed":false,"internalType":"uint256"},{"name":"detectedAt","type":"uint256","indexed":false,"internalType":"uint256"}],"anonymous":false},{"type":"event","name":"SPHINCSVerifierUpdated","inputs":[{"name":"oldVerifier","type":"address","indexed":true,"internalType":"address"},{"name":"newVerifier","type":"address","indexed":true,"internalType":"address"}],"anonymous":false},{"type":"event","name":"SecurityCouncilUpdated","inputs":[{"name":"previousCouncil","type":"address","indexed":true,"internalType":"address"},{"name":"newCouncil","type":"address","indexed":true,"internalType":"address"}],"anonymous":false},{"type":"event","name":"StateRootUpdated","inputs":[{"name":"newRoot","type":"bytes32","indexed":true,"internalType":"bytes32"},{"name":"blockNumber","type":"uint256","indexed":true,"internalType":"uint256"}],"anonymous":false},{"type":"event","name":"UnlockExecuted","inputs":[{"name":"lockId","type":"bytes32","indexed":true,"internalType":"bytes32"},{"name":"recipient","type":"address","indexed":true,"internalType":"address"},{"name":"amount","type":"uint256","indexed":false,"internalType":"uint256"}],"anonymous":false},{"type":"event","name":"UnlockRequested","inputs":[{"name":"lockId","type":"bytes32","indexed":true,"internalType":"bytes32"},{"name":"recipient","type":"address","indexed":true,"internalType":"address"},{"name":"amount","type":"uint256","indexed":false,"internalType":"uint256"},{"name":"unlockableAt","type":"uint256","indexed":false,"internalType":"uint256"},{"name":"isEmergency","type":"bool","indexed":false,"internalType":"bool"},{"name":"unlockStateRoot","type":"bytes32","indexed":false,"internalType":"bytes32"}],"anonymous":false},{"type":"event","name":"Unpaused","inputs":[{"name":"account","type":"address","indexed":false,"internalType":"address"}],"anonymous":false},{"type":"error","name":"ChallengeAlreadyResolved","inputs":[]},{"type":"error","name":"ChallengeNotFound","inputs":[]},{"type":"error","name":"ChallengePeriodActive","inputs":[]},{"type":"error","name":"DefensePeriodExpired","inputs":[]},{"type":"error","name":"DefensePeriodNotExpired","inputs":[]},{"type":"error","name":"EmergencyAlreadyInitiated","inputs":[]},{"type":"error","name":"EmergencyTimeLockActive","inputs":[]},{"type":"error","name":"EnforcedPause","inputs":[]},{"type":"error","name":"ExpectedPause","inputs":[]},{"type":"error","name":"InsufficientAmount","inputs":[]},{"type":"error","name":"InsufficientSignatures","inputs":[]},{"type":"error","name":"InsufficientStake","inputs":[]},{"type":"error","name":"InvalidBond","inputs":[]},{"type":"error","name":"InvalidProof","inputs":[]},{"type":"error","name":"InvalidPublicKeyLength","inputs":[]},{"type":"error","name":"InvalidSignatures","inputs":[]},{"type":"error","name":"InvalidStateRoot","inputs":[]},{"type":"error","name":"LockAlreadyReleased","inputs":[]},{"type":"error","name":"LockExpired","inputs":[]},{"type":"error","name":"LockNotFound","inputs":[]},{"type":"error","name":"NotActiveProver","inputs":[]},{"type":"error","name":"NotInEmergencyState","inputs":[]},{"type":"error","name":"NotOwner","inputs":[]},{"type":"error","name":"NotSecurityCouncil","inputs":[]},{"type":"error","name":"ProverAlreadyRegistered","inputs":[]},{"type":"error","name":"ProverNotActive","inputs":[]},{"type":"error","name":"ProverTimeoutNotReached","inputs":[]},{"type":"error","name":"ReentrancyGuardReentrantCall","inputs":[]},{"type":"error","name":"TVLCapExceeded","inputs":[]},{"type":"error","name":"TransferFailed","inputs":[]},{"type":"error","name":"UnlockAlreadyRequested","inputs":[]},{"type":"error","name":"UnlockNotFound","inputs":[]},{"type":"error","name":"UnlockNotReady","inputs":[]},{"type":"error","name":"VerifierNotSet","inputs":[]},{"type":"error","name":"ZeroAddress","inputs":[]}],"bytecode":{"object":"0x60806040523480156200001157600080fd5b5060405162005e6d38038062005e6d83398101604081905262000034916200010d565b60017f9b779b17422d0df92223018b32b4d1fa46e071723d6817e2486d003becc55f00556001600160a01b038216620000805760405163d92e233d60e01b815260040160405180910390fd5b60008054610100600160a81b0319163361010002179055600180546001600160a01b0319166001600160a01b0384811691909117909155811615620000e857600280546001600160a01b0319166001600160a01b038316179055600e805460ff191660011790555b505062000145565b80516001600160a01b03811681146200010857600080fd5b919050565b600080604083850312156200012157600080fd5b6200012c83620000f0565b91506200013c60208401620000f0565b90509250929050565b615d1880620001556000396000f3fe6080604052600436106104145760003560e01c80638be9963a1161021e578063cad723ce11610123578063e7017f78116100ab578063ed5e84371161007a578063ed5e843714610e4c578063f2fde38b14610ed7578063f3ce02c714610ef7578063faab193c14610f14578063fcef2d9a14610f4157600080fd5b8063e7017f7814610d01578063e7a423f714610dfc578063eac61708146106bc578063ec5db8b014610e2c57600080fd5b8063dbfe3e96116100f2578063dbfe3e9614610c78578063dd365c2814610c98578063dd764abf14610cb6578063de780bbd14610cd1578063e0d49b6f14610ce757600080fd5b8063cad723ce14610c02578063d5e8b70014610c22578063d6f27b5814610c35578063d89135cd14610c6257600080fd5b8063a3bb88ee116101a6578063b790230311610175578063b790230314610b18578063b9f3313d14610b2e578063bab2671314610b4e578063c1e69b6614610b61578063c3a079ed14610bec57600080fd5b8063a3bb88ee14610a92578063ac2eba9814610ac2578063acaf80a114610ad8578063b56c2de814610af857600080fd5b806394c01ce3116101ed57806394c01ce3146109af5780639ac18b19146109cf5780639ca17998146109e4578063a0f5df3e146109f7578063a0fbc26314610a0e57600080fd5b80638be9963a146109215780638d9c20b51461093d5780638da5cb5b1461095d5780638f01465b1461098257600080fd5b8063492723b4116103245780637250921c116102ac578063844ca7d71161027b578063844ca7d7146108b55780638456cb59146108ca57806386fdd39f146108df578063884476f9146108f65780638adfe1751461090b57600080fd5b80637250921c1461073257806377b053c2146108755780637d89122d146108955780637e0ee4f11461058457600080fd5b806364e99ab5116102f357806364e99ab51461069c57806366fdf627146106bc57806368faeaee146106d15780636f173079146106f157806371e513bb1461070557600080fd5b8063492723b41461063a57806349fe43f91461064f57806356891412146106625780635c975abb1461067857600080fd5b80632b8c0953116103a75780633f4ba83a116103765780633f4ba83a146105b25780634157e049146105c75780634455dbe9146105da578063458d2bf1146105fa578063488dbf8e1461062757600080fd5b80632b8c09531461056f57806330362d81146105845780633659e3801461059b578063368fdfa71461056f57600080fd5b80631b4493aa116103e35780631b4493aa146104d95780631dec844b146104fb57806327eb6c0f1461052f5780632a308c2d1461054f57600080fd5b806304a829f2146104205780630e462a6c1461044f57806312668c221461048c578063171a077e146104c457600080fd5b3661041b57005b600080fd5b34801561042c57600080fd5b5061043c67016345785d8a000081565b6040519081526020015b60405180910390f35b34801561045b57600080fd5b5061046f61046a36600461510c565b610f61565b604080519315158452602084019290925290820152606001610446565b34801561049857600080fd5b506002546104ac906001600160a01b031681565b6040516001600160a01b039091168152602001610446565b3480156104d057600080fd5b5061043c603c81565b3480156104e557600080fd5b506104f96104f436600461510c565b610fe1565b005b34801561050757600080fd5b5061051b610516366004615141565b611383565b6040516104469897969594939291906151ac565b34801561053b57600080fd5b506001546104ac906001600160a01b031681565b34801561055b57600080fd5b506104f961056a366004615212565b61145a565b34801561057b57600080fd5b5061043c601481565b34801561059057600080fd5b5061043c6201518081565b3480156105a757600080fd5b5061043c6203f48081565b3480156105be57600080fd5b506104f961149d565b61043c6105d5366004615277565b6114d2565b3480156105e657600080fd5b506104ac6105f536600461510c565b6117a2565b34801561060657600080fd5b5061061a61061536600461510c565b6117cc565b60405161044691906152f6565b6104f961063536600461537d565b6118ce565b34801561064657600080fd5b50600a5461043c565b6104f961065d3660046153cf565b611b8c565b34801561066e57600080fd5b5061043c60035481565b34801561068457600080fd5b5060005460ff165b6040519015158152602001610446565b3480156106a857600080fd5b506104f96106b7366004615141565b611f7f565b3480156106c857600080fd5b5061043c600581565b3480156106dd57600080fd5b506104f96106ec36600461510c565b612001565b3480156106fd57600080fd5b50600161068c565b34801561071157600080fd5b5061072561072036600461510c565b612077565b60405161044691906153fb565b34801561073e57600080fd5b5061086861074d36600461510c565b604080516101a081018252600080825260208201819052918101829052606081018290526080810182905260a0810182905260c0810182905260e0810182905261010081018290526101208101829052610140810182905261016081018290526101808101919091525060009081526008602081815260409283902083516101a0810185528154815260018201546001600160a01b0316928101929092526002810154938201939093526003830154606082015260048301546080820152600583015460a0820152600683015460c0820152600783015460ff16151560e0820152908201546101008201526009820154610120820152600a820154610140820152600b820154610160820152600c9091015461018082015290565b6040516104469190615469565b34801561088157600080fd5b506104f9610890366004615556565b61216f565b3480156108a157600080fd5b506104f96108b0366004615615565b612351565b3480156108c157600080fd5b5061043c600181565b3480156108d657600080fd5b506104f96125b0565b3480156108eb57600080fd5b5061043c62093a8081565b34801561090257600080fd5b5061068c6125e3565b34801561091757600080fd5b5061043c60055481565b34801561092d57600080fd5b5061043c6706f05b59d3b2000081565b34801561094957600080fd5b506104f9610958366004615645565b612607565b34801561096957600080fd5b506000546104ac9061010090046001600160a01b031681565b34801561098e57600080fd5b50603c60148060408051938452602084019290925290820152606001610446565b3480156109bb57600080fd5b506104f96109ca366004615556565b61275d565b3480156109db57600080fd5b5061043c600281565b61043c6109f236600461537d565b6128f9565b348015610a0357600080fd5b5061043c6202a30081565b348015610a1a57600080fd5b50610a7e610a2936600461510c565b600f6020526000908152604090208054600182015460028301546003840154600485015460059095015493946001600160a01b03909316939192909160ff808216916101008104821691620100009091041688565b604051610446989796959493929190615677565b348015610a9e57600080fd5b5061068c610aad36600461510c565b60009081526010602052604090205460ff1690565b348015610ace57600080fd5b5061043c60065481565b348015610ae457600080fd5b506104f9610af336600461510c565b612916565b348015610b0457600080fd5b5061043c610b133660046156cd565b61297b565b348015610b2457600080fd5b5061043c600c5481565b348015610b3a57600080fd5b506104f9610b4936600461510c565b612994565b6104f9610b5c366004615645565b612cd7565b348015610b6d57600080fd5b50610bd7610b7c36600461510c565b600b6020526000908152604090208054600182015460028301546003840154600485015460058601546006870154600788015460089098015496976001600160a01b03968716979596949560ff909416949293919290911689565b60405161044699989796959493929190615714565b348015610bf857600080fd5b5061043c61a8c081565b348015610c0e57600080fd5b5061043c610c1d36600461510c565b613049565b6104f9610c3036600461510c565b61305a565b348015610c4157600080fd5b50610c55610c5036600461510c565b613433565b6040516104469190615788565b348015610c6e57600080fd5b5061043c600d5481565b348015610c8457600080fd5b506104f9610c93366004615141565b61352f565b348015610ca457600080fd5b506002546001600160a01b03166104ac565b348015610cc257600080fd5b5061043c662386f26fc1000081565b348015610cdd57600080fd5b5061043c60045481565b348015610cf357600080fd5b50600e5461068c9060ff1681565b348015610d0d57600080fd5b50610d90610d1c36600461510c565b600860208190526000918252604090912080546001820154600283015460038401546004850154600586015460068701546007880154988801546009890154600a8a0154600b8b0154600c909b0154999b6001600160a01b039099169a9799969895979496939560ff16949293919290918d565b604080519d8e526001600160a01b03909c1660208e01529a8c019990995260608b019790975260808a019590955260a089019390935260c0880191909152151560e08701526101008601526101208501526101408401526101608301526101808201526101a001610446565b348015610e0857600080fd5b5061068c610e1736600461510c565b60106020526000908152604090205460ff1681565b348015610e3857600080fd5b5061043c610e4736600461510c565b6135d3565b348015610e5857600080fd5b50610ec2610e6736600461510c565b60076020819052600091825260409091208054600182015460028301546003840154600485015460058601546006870154978701546008909701546001600160a01b0396871698959096169693959294919360ff9091169289565b60405161044699989796959493929190615802565b348015610ee357600080fd5b506104f9610ef2366004615141565b613615565b348015610f0357600080fd5b5061043c6815af1d78b58c40000081565b348015610f2057600080fd5b50610f34610f2f366004615141565b6136c5565b604051610446919061585e565b348015610f4d57600080fd5b5061043c610f5c3660046158d9565b613828565b6000818152600860205260408120805482918291610f8a57600080600093509350935050610fda565b80600b0154925082600003610fa157806005015492505b6000610fb06203f48085615950565b9050804210610fc6576001945060009250610fd7565b60009450610fd44282615963565b92505b50505b9193909250565b610fe9613845565b60008181526008602052604090208054611016576040516342afe4a360e11b815260040160405180910390fd5b806006015442101561103a576040516297f2d960e21b815260040160405180910390fd5b6000828152600760205260409020600360058083015460ff1690811115611063576110636152d0565b03611081576040516364b81b1960e11b815260040160405180910390fd5b600260058083015460ff169081111561109c5761109c6152d0565b036110ba57604051632c04416160e01b815260040160405180910390fd5b600782015460ff1661110f576000838152600b60205260409020600160048083015460ff16908111156110ef576110ef6152d0565b0361110d576040516364b81b1960e11b815260040160405180910390fd5b505b60058101805460ff1916600290811790915582015460038054600090611136908490615963565b909155505060088201546000848152600f602052604081206003600582015460ff166004811115611169576111696152d0565b148061118d57506002600582015460ff16600481111561118b5761118b6152d0565b145b156111ba5760058101805460ff199081166004179091556000878152601060205260409020805490911690555b600185015460028601546040516000926001600160a01b031691908381818185875af1925050503d806000811461120d576040519150601f19603f3d011682016040523d82523d6000602084013e611212565b606091505b5050905080611234576040516312171d8360e31b815260040160405180910390fd5b83156112af5784546040516000916001600160a01b03169086908381818185875af1925050503d8060008114611286576040519150601f19603f3d011682016040523d82523d6000602084013e61128b565b606091505b50509050806112ad576040516312171d8360e31b815260040160405180910390fd5b505b600186015460028701546040519081526001600160a01b039091169088907f41f97fc03cf7f2c1829da0c368b4c948bb17a3c760dd35510feed443faaa70409060200160405180910390a3600786015460ff161561136357600186015460028701546040805191825260208201879052851515908201526001600160a01b039091169088907f64278aae6fae503a884e44cf5d9094c515693b6dd2853e44b4555809f7c8dba4906060015b60405180910390a35b5050505050506113806001600080516020615cc383398151915255565b50565b6009602052600090815260409020805460018201546002830180546001600160a01b039093169391926113b590615976565b80601f01602080910402602001604051908101604052809291908181526020018280546113e190615976565b801561142e5780601f106114035761010080835404028352916020019161142e565b820191906000526020600020905b81548152906001019060200180831161141157829003601f168201915b50505060038401546004850154600586015460068701546007909701549596929591945060ff16925088565b60005461010090046001600160a01b0316331461148a576040516330cd747160e01b815260040160405180910390fd5b600e805460ff1916911515919091179055565b6001546001600160a01b031633146114c857604051636fd557a760e01b815260040160405180910390fd5b6114d0613861565b565b60006114dc6138b3565b6114e4613845565b662386f26fc1000034101561150c57604051632ca2f52b60e11b815260040160405180910390fd5b6815af1d78b58c400000346003546115249190615950565b1115611543576040516337c021db60e01b815260040160405180910390fd5b6001600160a01b03851661156a5760405163d92e233d60e01b815260040160405180910390fd5b42821161158a576040516307b7d7dd60e51b815260040160405180910390fd5b60006115cb85858080601f0160208091040260200160405190810160405280939291908181526020018383808284376000920191909152506138d792505050565b6004805491925060009190826115e0836159b0565b91905055905060006115f8466000348b898789613bea565b9050611605813342613c7b565b9350604051806101200160405280336001600160a01b03168152602001896001600160a01b0316815260200134815260200184815260200142815260200160006005811115611656576116566152d0565b8152602080820184905260408083018990526060928301869052600088815260078352819020845181546001600160a01b039182166001600160a01b0319918216178355938601516001808401805492909316919095161790559084015160028201559183015160038301556080830151600483015560a0830151600580840180549293909260ff19169184908111156116f2576116f26152d0565b021790555060c0820151816006015560e082015181600701556101008201518160080155905050346003600082825461172b9190615950565b909155505060408051348152602081018590529081018290526001600160a01b03891690339086907f7ea6a10ee887144d0680d547987ce45166d4fb495877d46fdd000ff01767b99c9060600160405180910390a450505061179a6001600080516020615cc383398151915255565b949350505050565b600a81815481106117b257600080fd5b6000918252602090912001546001600160a01b0316905081565b6040805161012081018252600080825260208201819052918101829052606081018290526080810182905260a0810182905260c0810182905260e081018290526101008101919091526000828152600b60209081526040918290208251610120810184528154815260018201546001600160a01b03169281019290925260028101549282019290925260038201546060820152600480830154919291608084019160ff90911690811115611882576118826152d0565b6004811115611893576118936152d0565b81526005820154602082015260068201546040820152600782015460608201526008909101546001600160a01b031660809091015292915050565b60005461010090046001600160a01b031633146118fe576040516330cd747160e01b815260040160405180910390fd5b6001600160a01b0383166119255760405163d92e233d60e01b815260040160405180910390fd5b6001600160a01b03831660009081526009602052604090206005015460ff161561196257604051635edab1f160e01b815260040160405180910390fd5b670de0b6b3a764000034101561198b576040516378de4a6960e11b815260040160405180910390fd5b602081146119ac576040516318dca5e960e21b815260040160405180910390fd5b60006119ed83838080601f0160208091040260200160405190810160405280939291908181526020018383808284376000920191909152506138d792505050565b9050604051806101000160405280856001600160a01b0316815260200182815260200184848080601f0160208091040260200160405190810160405280939291908181526020018383808284376000920182905250938552505034602080850191909152426040808601919091526001606086018190526080860185905260a09095018490526001600160a01b038a811685526009835293819020865181546001600160a01b0319169516949094178455908501519383019390935550908201516002820190611abd9082615a2d565b50606082015160038201556080820151600482015560a082015160058201805460ff191691151591909117905560c0820151600682015560e090910151600790910155600a80546001810182556000919091527fc65a7bb8d6351c1cf70c95a316cc6a92839c986682d98bc35f958f4883f9d2a80180546001600160a01b0319166001600160a01b038616908117909155604080518381523460208201527f8cff608f5b95035c0790dc8ba5b2085444145959dbea5bdde6cca284b48c6663910160405180910390a250505050565b611b946138b3565b611b9c613845565b600082815260076020526040902080546001600160a01b0316611bd257604051636086ee6f60e11b815260040160405180910390fd5b600060058083015460ff1690811115611bed57611bed6152d0565b14611c0b57604051632c04416160e01b815260040160405180910390fd5b6001600160a01b038216611c325760405163d92e233d60e01b815260040160405180910390fd5b80546001600160a01b03163314611c5c576040516330cd747160e01b815260040160405180910390fd5b6000838152600f602052604081206005015460ff166004811115611c8257611c826152d0565b14611ca05760405163339e720360e11b815260040160405180910390fd5b6000611caf8260020154613cec565b905080341015611cd257604051630a02a21f60e21b815260040160405180910390fd5b6005805460009182611ce3836159b0565b9091555090506000611cf862093a8042615950565b9050611d188686866002015487600601546000801b60013460008a613d25565b600086815260086020908152604091829020600c01839055815161010081018352888152339181019190915234918101919091524260608201526080810182905260a081016002815260016020808301829052600060409384018190528a8152600f8252839020845181559084015181830180546001600160a01b0319166001600160a01b0390921691909117905591830151600283015560608301516003830155608083015160048084019190915560a08401516005840180549193909260ff19909216918490811115611def57611def6152d0565b021790555060c08201516005918201805460e0909401511515620100000262ff000019921515610100029290921662ffff001990941693909317179091556000878152601060205260409020805460ff199081166001908117909255868301805490929116908302179055506040805160008152426020820152339188917f0526967cdd985e39a385e6b9b9ae0ebad6b64ffd03973822e7c95552b5d366b8910160405180910390a36040805134815260208101859052339188917f90c4270e44a5fb2aae404a2820bc3f1b21dadf5d53302a1cb663f1c780c45a7f910160405180910390a3857f7c560948f2e64f84ec7abf478d07b3e697cd2325071507eac90b744bc68bd9dc42604051611f0791815260200190565b60405180910390a260028401546040805191825234602083015281018290526001600160a01b0386169087907f7b51d56a0637ca3c56fb857a383c96aa032b059b468f836204af1fefdc9c592b9060600160405180910390a350505050611f7b6001600080516020615cc383398151915255565b5050565b60005461010090046001600160a01b03163314611faf576040516330cd747160e01b815260040160405180910390fd5b600280546001600160a01b038381166001600160a01b0319831681179093556040519116919082907fc47dd5f2a9987aa6668419ac023b57a57a67cf45ca0c61e037e00729cc4c42b190600090a35050565b3360009081526009602052604090206005015460ff1661203457604051638b5161a760e01b815260040160405180910390fd5b60008181526008602052604090208054612061576040516342afe4a360e11b815260040160405180910390fd5b80600b0154600003611f7b5742600b8201555050565b6040805161010081018252600080825260208201819052918101829052606081018290526080810182905260a0810182905260c0810182905260e08101919091526000828152600f60209081526040918290208251610100810184528154815260018201546001600160a01b031692810192909252600281015492820192909252600382015460608201526004808301546080830152600583015491929160a084019160ff9091169081111561212f5761212f6152d0565b6004811115612140576121406152d0565b81526005919091015460ff61010082048116151560208401526201000090910416151560409091015292915050565b6121776138b3565b61217f613845565b600089815260076020526040902080546001600160a01b03166121b557604051636086ee6f60e11b815260040160405180910390fd5b600060058083015460ff16908111156121d0576121d06152d0565b146121ee57604051632c04416160e01b815260040160405180910390fd5b6001600160a01b0389166122155760405163d92e233d60e01b815260040160405180910390fd5b6005805460009182612226836159b0565b919050559050600061224383600601548d8d866002015486613e2f565b905087811461226557604051630b6fac0360e41b815260040160405180910390fd5b6122718c8b8b8b613eaf565b61228e576040516309bde33960e01b815260040160405180910390fd5b60028610156122b057604051633724e34360e11b815260040160405180910390fd5b8584146122d05760405163274cf40160e01b815260040160405180910390fd5b60006122e08d8a8a8a8a8a613f48565b9050600281101561230457604051633724e34360e11b815260040160405180910390fd5b61231e8d8d8660020154876006015486600080888b613d25565b505050600501805460ff191660011790556123466001600080516020615cc383398151915255565b505050505050505050565b6001546001600160a01b0316331461237c57604051636fd557a760e01b815260040160405180910390fd5b612384613845565b6000828152600b60205260409020600160048083015460ff16908111156123ad576123ad6152d0565b141580156123d2575060048181015460ff16818111156123cf576123cf6152d0565b14155b156123f057604051632d921dad60e01b815260040160405180910390fd5b600083815260076020908152604080832060089092528220909180808087156124d65761242585600901548760020154613f9b565b93506064612434603c86615aec565b61243e9190615b19565b9250606461244d601486615aec565b6124579190615b19565b91506064612466601486615aec565b6124709190615b19565b600786015490915060ff16801561248b575060008560080154115b156124c5578460080154600c60008282546124a69190615950565b9091555050600060088601819055898152600f60205260408120600201555b6124d189888888613fd8565b61253f565b6124e18988886141df565b60088701546001600160a01b031615612537576064601488600501546125079190615aec565b6125119190615b19565b91506064601488600501546125269190615aec565b6125309190615b19565b905061253f565b866005015491505b60408051891515815260208101869052908101849052606081018390526080810182905289907f083938125729106a6de1b3d3bf2e4fe5e2557124434fc8be005d0fb19775e94b9060a00160405180910390a250505050505050611f7b6001600080516020615cc383398151915255565b6001546001600160a01b031633146125db57604051636fd557a760e01b815260040160405180910390fd5b6114d0614399565b600e5460009060ff16801561260257506002546001600160a01b031615155b905090565b61260f6138b3565b3360009081526009602052604090206005015460ff1661264257604051638b5161a760e01b815260040160405180910390fd5b6000838152600b60205260409020600160048083015460ff169081111561266b5761266b6152d0565b1461268957604051632d921dad60e01b815260040160405180910390fd5b80600601544211156126ae5760405163606cfb1960e11b815260040160405180910390fd5b60006126ef84848080601f0160208091040260200160405190810160405280939291908181526020018383808284376000920191909152506138d792505050565b6004838101805460ff19169091179055600783018190556008830180546001600160a01b031916339081179091556040518281529192509086907fac667660abf65035c151f9f8484becc5f3273e3a3daea0434093ac4ce700fd3a9060200160405180910390a35050505050565b6127656138b3565b61276d613845565b600089815260076020526040902080546001600160a01b03166127a357604051636086ee6f60e11b815260040160405180910390fd5b600060058083015460ff16908111156127be576127be6152d0565b146127dc57604051632c04416160e01b815260040160405180910390fd5b6001600160a01b0389166128035760405163d92e233d60e01b815260040160405180910390fd5b61280f8a898989613eaf565b61282c576040516309bde33960e01b815260040160405180910390fd5b600284101561284e57604051633724e34360e11b815260040160405180910390fd5b83821461286e5760405163274cf40160e01b815260040160405180910390fd5b600061287e8b8888888888613f48565b905060028110156128a257604051633724e34360e11b815260040160405180910390fd5b60058054600091826128b3836159b0565b9190505590506128d28c8c85600201548b6000801b6000808989613d25565b5050600501805460ff191660011790556123466001600080516020615cc383398151915255565b60006129036138b3565b61179a8484846105d56201518042615950565b60005461010090046001600160a01b03163314612946576040516330cd747160e01b815260040160405180910390fd5b6006819055604051439082907f75d7255decb0c118b501effc9e0ce985be16edbf624dcf1394d1fce06821edf190600090a350565b600061298a8686868686613e2f565b9695505050505050565b61299c613845565b6000818152600b60205260409020600160048083015460ff16908111156129c5576129c56152d0565b146129e357604051632d921dad60e01b815260040160405180910390fd5b80600601544211612a075760405163122f79ef60e01b815260040160405180910390fd5b600082815260076020908152604080832060089092529091206004830180546002919060ff191660018302179055506005820180546004919060ff191660018302179055506000612a6082600901548460020154613f9b565b905060006064612a71603c84615aec565b612a7b9190615b19565b905060006064612a8c601485615aec565b612a969190615b19565b905060006064612aa7601486615aec565b612ab19190615b19565b600188015460058901549192506001600160a01b031690600090612ad6908690615950565b885460028a0154600c80549394506001600160a01b039092169290918791600090612b02908490615950565b9250508190555084600d6000828254612b1b9190615950565b925050819055508060036000828254612b349190615963565b9091555050600789015460ff168015612b51575060008960080154115b15612b79578860080154600c6000828254612b6c9190615950565b9091555050600060088a01555b6000846001600160a01b03168460405160006040518083038185875af1925050503d8060008114612bc6576040519150601f19603f3d011682016040523d82523d6000602084013e612bcb565b606091505b5050905080612bed576040516312171d8360e31b815260040160405180910390fd5b6000836001600160a01b03168360405160006040518083038185875af1925050503d8060008114612c3a576040519150601f19603f3d011682016040523d82523d6000602084013e612c3f565b606091505b5050905080612c61576040516312171d8360e31b815260040160405180910390fd5b6040805160018152602081018c90529081018a905260608101899052608081018890528e907f083938125729106a6de1b3d3bf2e4fe5e2557124434fc8be005d0fb19775e94b9060a00160405180910390a2505050505050505050505050506113806001600080516020615cc383398151915255565b612cdf6138b3565b612ce7613845565b60008381526008602052604090208054612d14576040516342afe4a360e11b815260040160405180910390fd5b8060060154421115612d38576040516297f2d960e21b815260040160405180910390fd5b6000848152600760205260409020600160058083015460ff1690811115612d6157612d616152d0565b14158015612d86575060058181015460ff1681811115612d8357612d836152d0565b14155b15612da457604051632c04416160e01b815260040160405180910390fd5b6000606460018460020154612db99190615aec565b612dc39190615b19565b905067016345785d8a0000811015612de0575067016345785d8a00005b80341015612e0157604051630a02a21f60e21b815260040160405180910390fd5b6000612e106202a30042615950565b90506000612e5387878080601f0160208091040260200160405190810160405280939291908181526020018383808284376000920191909152506138d792505050565b60408051610120810182528a815233602082015290810182905242606082015290915060808101600181526020013481526020018381526020016000801b815260200160006001600160a01b0316815250600b60008a81526020019081526020016000206000820151816000015560208201518160010160006101000a8154816001600160a01b0302191690836001600160a01b03160217905550604082015181600201556060820151816003015560808201518160040160006101000a81548160ff02191690836004811115612f2c57612f2c6152d0565b021790555060a082015160058281019190915560c0830151600683015560e0830151600783015561010090920151600890910180546001600160a01b0319166001600160a01b03909216919091179055840180546003919060ff19166001830217905550600785015460ff1615612fe45762093a808560060154612fb09190615950565b60068601556000888152600f602052604090206004015415612fe45760068501546000898152600f60205260409020600401555b60408051828152346020820152908101839052339089907f174c8029e018a39b8d3f97c38998c889d28eb5d5d7fcafa7acb8b44fb00a55349060600160405180910390a350505050506130446001600080516020615cc383398151915255565b505050565b600061305482613cec565b92915050565b6130626138b3565b61306a613845565b600081815260076020526040902080546001600160a01b03166130a057604051636086ee6f60e11b815260040160405180910390fd5b600160058083015460ff16908111156130bb576130bb6152d0565b146130d957604051632c04416160e01b815260040160405180910390fd5b6000828152600f602052604081206005015460ff1660048111156130ff576130ff6152d0565b1461311d5760405163339e720360e11b815260040160405180910390fd5b60008061312984610f61565b50915091508161314c5760405163107afc0760e31b815260040160405180910390fd5b600061315b8460020154613cec565b90508034101561317e57604051630a02a21f60e21b815260040160405180910390fd5b600061318d62093a8042615950565b60008781526008602081815260409283902060078101805460ff191660011790553492810183905560068101859055600c81018590558351610100810185528b8152339281019290925292810191909152426060820152608081018390529192509060a081016003815260016020808301829052604092830182905260008b8152600f8252839020845181559084015181830180546001600160a01b0319166001600160a01b0390921691909117905591830151600283015560608301516003830155608083015160048084019190915560a08401516005840180549193909260ff19909216918490811115613285576132856152d0565b021790555060c08201516005918201805460e0909401511515620100000262ff000019921515610100029290921662ffff001990941693909317179091556000888152601060205260409020805460ff199081166001908117909255888301805490929116908302179055506040805185815242602082015288917f61faddcb7ec3d83d50566b1f6a85335d9fd310fe8eacdebf43d5f404fe6ea87b910160405180910390a26040805160018152426020820152339189917f0526967cdd985e39a385e6b9b9ae0ebad6b64ffd03973822e7c95552b5d366b8910160405180910390a36040805134815260208101859052339189917f90c4270e44a5fb2aae404a2820bc3f1b21dadf5d53302a1cb663f1c780c45a7f910160405180910390a3867f7c560948f2e64f84ec7abf478d07b3e697cd2325071507eac90b744bc68bd9dc426040516133d791815260200190565b60405180910390a2600181015460028201546040805191825234602083015281018490526001600160a01b039091169088907f7b51d56a0637ca3c56fb857a383c96aa032b059b468f836204af1fefdc9c592b9060600161135a565b6040805161012081018252600080825260208201819052918101829052606081018290526080810182905260a0810182905260c0810182905260e0810182905261010081019190915260008281526007602090815260409182902082516101208101845281546001600160a01b03908116825260018301541692810192909252600281015492820192909252600382015460608201526004820154608082015260058083015491929160a084019160ff909116908111156134f6576134f66152d0565b6005811115613507576135076152d0565b8152600682015460208201526007820154604082015260089091015460609091015292915050565b6001546001600160a01b0316331461355a57604051636fd557a760e01b815260040160405180910390fd5b6001600160a01b0381166135815760405163d92e233d60e01b815260040160405180910390fd5b600180546001600160a01b038381166001600160a01b0319831681179093556040519116919082907f505d9b5b645971d6c3d60fc8a43abab349ef9933bc68691d6feb9f1d6b27226a90600090a35050565b60008060646135e3600185615aec565b6135ed9190615b19565b905067016345785d8a00008110613604578061360e565b67016345785d8a00005b9392505050565b60005461010090046001600160a01b03163314613645576040516330cd747160e01b815260040160405180910390fd5b6001600160a01b03811661366c5760405163d92e233d60e01b815260040160405180910390fd5b600080546001600160a01b03838116610100818102610100600160a81b0319851617855560405193049190911692909183917f8be0079c531659141344cd1fd0a4f28419497f9722a3daafe3b4186f6b6457e091a35050565b61371b60405180610100016040528060006001600160a01b031681526020016000801916815260200160608152602001600081526020016000815260200160001515815260200160008152602001600081525090565b6001600160a01b0380831660009081526009602090815260409182902082516101008101845281549094168452600181015491840191909152600281018054919284019161376890615976565b80601f016020809104026020016040519081016040528092919081815260200182805461379490615976565b80156137e15780601f106137b6576101008083540402835291602001916137e1565b820191906000526020600020905b8154815290600101906020018083116137c457829003601f168201915b50505091835250506003820154602082015260048201546040820152600582015460ff16151560608201526006820154608082015260079091015460a09091015292915050565b600061383988888888888888613bea565b98975050505050505050565b61384d6143d6565b6002600080516020615cc383398151915255565b613869614406565b6000805460ff191690557f5db9ee0a495bf2e6ff9c91a7834c1ba4fdd244a5e8aa4e537bd38aeae4b073aa335b6040516001600160a01b03909116815260200160405180910390a1565b60005460ff16156114d05760405163d93c066560e01b815260040160405180910390fd5b60006138e16150cf565b8251600060886138f2836001615950565b6138fc9190615b19565b613907906001615950565b905060005b81811015613a49576000613921608883615aec565b905060005b6011811015613a29576000805b60088110156139ed5760008161394a856008615aec565b6139549087615950565b61395e9190615950565b905060008882101561398b578b828151811061397c5761397c615b2d565b016020015160f81c90506139c3565b88820361399a575060066139c3565b60016139a7608888615950565b6139b19190615963565b82036139bf575060806139c3565b5060005b6139ce836008615aec565b60ff909116901b929092179150806139e5816159b0565b915050613933565b5080878360198110613a0157613a01615b2d565b602002018051919091186001600160401b031690525080613a21816159b0565b915050613926565b50613a3385614429565b9450508080613a41906159b0565b91505061390c565b5060c083600360200201516001600160401b0316901b608084600260200201516001600160401b0316901b604085600160200201516001600160401b0316901b85600060200201516001600160401b03161717179350613be1847bffffffff000000000000000000000000ffffffff00000000000000007eff000000ff000000ff000000ff000000ff000000ff000000ff000000ff0000600883811c9182167fff000000ff000000ff000000ff000000ff000000ff000000ff000000ff0000009490911b93841617601090811c7cff000000ff000000ff000000ff000000ff000000ff000000ff000000ff9092167dff000000ff000000ff000000ff000000ff000000ff000000ff000000ff009094169390931790921b91909117602081811c9283167fffffffff000000000000000000000000ffffffff0000000000000000000000009290911b91821617604090811c73ffffffff000000000000000000000000ffffffff90931677ffffffff000000000000000000000000ffffffff0000000090921691909117901b17608081811c91901b1790565b95945050505050565b60408051602081018990526001600160601b0319606089811b8216838501526054830189905287901b1660748201526088810185905260a8810184905260c88082018490528251808303909101815260e8909101909152600090613c6e7fc1092c7f825a13e6e2df4be421deaca778b8a52bbf38bd696bd3e7c3a45e085482614e14565b9998505050505050505050565b600080848484604051602001613cb19392919092835260609190911b6001600160601b0319166020830152603482015260540190565b6040516020818303038152906040529050613be17ff1e29fb4c3734d4cd218c5a4a6406eeb89d35790303c9b41268509c140678b5182614e14565b6000806064613cfc600585615aec565b613d069190615b19565b90506706f05b59d3b200008111613054576706f05b59d3b2000061360e565b600084613d355762015180613d3a565b62093a805b613d449042615950565b60008b81526008602081905260409091208c81556001810180546001600160a01b0319166001600160a01b038e16179055600281018b9055600381018a90556004810189905542600582018190556006820184905560078201805460ff19168a151517905591810187905560098101869055600a8101859055600b81019190915590915085613e2257604080518a8152602081018490526000818301526060810189905290516001600160a01b038c16918d917f99ebca1dea55477732f10272996bfd0c9543ff926bfcea6d9fe2c7f461d910ee9181900360800190a35b5050505050505050505050565b6040805160208101879052908101859052606084811b6001600160601b031916908201526074810183905260948101829052600090819060b4016040516020818303038152906040529050613ea47f413f4c7a034bb455a77260c9f071651135e9ce0a039b91c830fb3d2f8e3a19cd82614e14565b979650505050505050565b600084815b84811015613f3c57858582818110613ece57613ece615b2d565b90506020020135821015613f0557613efe82878784818110613ef257613ef2615b2d565b90506020020135614e44565b9150613f2a565b613f27868683818110613f1a57613f1a615b2d565b9050602002013583614e44565b91505b80613f34816159b0565b915050613eb4565b50909114949350505050565b600080613f558888614e44565b600e5490915060ff168015613f7457506002546001600160a01b031615155b15613f8e57613f868187878787614e63565b91505061298a565b6138398187878787614fb3565b600080613fa88480615aec565b613fb390600a615aec565b90506064811115613fc2575060645b6064613fce8285615aec565b61179a9190615b19565b60048381018054600260ff19918216811790925560058501805490911690921790915560098201549083015460009161401091613f9b565b905060006064614021603c84615aec565b61402b9190615b19565b90506000606461403c601485615aec565b6140469190615b19565b905060006064614057601486615aec565b6140619190615b19565b600188015460058901549192506001600160a01b031690600090614086908690615950565b885460028a0154600c80549394506001600160a01b0390921692909187916000906140b2908490615950565b9250508190555084600d60008282546140cb9190615950565b9250508190555080600360008282546140e49190615963565b90915550506040516000906001600160a01b0386169085908381818185875af1925050503d8060008114614134576040519150601f19603f3d011682016040523d82523d6000602084013e614139565b606091505b505090508061415b576040516312171d8360e31b815260040160405180910390fd5b6000836001600160a01b03168360405160006040518083038185875af1925050503d80600081146141a8576040519150601f19603f3d011682016040523d82523d6000602084013e6141ad565b606091505b50509050806141cf576040516312171d8360e31b815260040160405180910390fd5b5050505050505050505050505050565b6004828101805460ff191660031790556000848152600f6020526040812060050154909160ff90911690811115614218576142186152d0565b14614232576005818101805460ff19169091179055614242565b60058101805460ff191660011790555b60088201546001600160a01b0316156143795760006064603c846005015461426a9190615aec565b6142749190615b19565b9050600060646014856005015461428b9190615aec565b6142959190615b19565b905060006064601486600501546142ac9190615aec565b6142b69190615b19565b6008860154600c80549293506001600160a01b03909116918491906000906142df908490615950565b9250508190555081600d60008282546142f89190615950565b90915550506040516000906001600160a01b0383169086908381818185875af1925050503d8060008114614348576040519150601f19603f3d011682016040523d82523d6000602084013e61434d565b606091505b505090508061436f576040516312171d8360e31b815260040160405180910390fd5b5050505050505050565b8160050154600c600082825461438f9190615950565b9091555050505050565b6143a16138b3565b6000805460ff191660011790557f62e78cea01bee320cd4e420270b5ea74000d11b0c9f74754ebdbfc544b05a2586138963390565b600080516020615cc3833981519152546002036114d057604051633ee5aeb560e01b815260040160405180910390fd5b60005460ff166114d057604051638dfc202b60e01b815260040160405180910390fd5b6144316150cf565b8161443a6150ee565b6144426150ee565b60006040518061032001604052806000815260200160018152602001603e8152602001601c8152602001601b815260200160248152602001602c815260200160068152602001603781526020016014815260200160038152602001600a8152602001602b8152602001601981526020016027815260200160298152602001602d8152602001600f815260200160158152602001600881526020016012815260200160028152602001603d815260200160388152602001600e8152509050600060405180610300016040528060016001600160401b03166001600160401b031681526020016180826001600160401b03166001600160401b0316815260200167800000000000808a6001600160401b03166001600160401b031681526020016780000000800080006001600160401b03166001600160401b0316815260200161808b6001600160401b03166001600160401b0316815260200163800000016001600160401b03166001600160401b031681526020016780000000800080816001600160401b03166001600160401b031681526020016780000000000080096001600160401b03166001600160401b03168152602001608a6001600160401b03166001600160401b0316815260200160886001600160401b03166001600160401b0316815260200163800080096001600160401b03166001600160401b03168152602001638000000a6001600160401b03166001600160401b03168152602001638000808b6001600160401b03166001600160401b0316815260200167800000000000008b6001600160401b03166001600160401b031681526020016780000000000080896001600160401b03166001600160401b031681526020016780000000000080036001600160401b03166001600160401b031681526020016780000000000080026001600160401b03166001600160401b031681526020016780000000000000806001600160401b03166001600160401b0316815260200161800a6001600160401b03166001600160401b0316815260200167800000008000000a6001600160401b03166001600160401b031681526020016780000000800080816001600160401b03166001600160401b031681526020016780000000000080806001600160401b03166001600160401b0316815260200163800000016001600160401b03166001600160401b031681526020016780000000800080086001600160401b03166001600160401b0316815250905060005b6018811015614e08576102808601516101e087015161014088015160a08901518951181818186001600160401b0390811686526102a087015161020088015161016089015160c08a01516020808c01519091189091189091189091188216908701526102c087015161022088015161018089015160e08a01516040808c01519091189091189091189091188216908701526102e08701516102408801516101a08901516101008a01516060808c01519091189091189091189091188216908701526103008701516102608801516101c08901516101208a01516080808c0151909118909118909118909118909116908601526148da8560015b6020020151600161509b565b6080860151186001600160401b031684526148f68560026148ce565b8551186001600160401b031660208501526149128560036148ce565b6020860151186001600160401b031660408501526149318560046148ce565b6040860151186001600160401b031660608501526149508560006148ce565b6060808701516001600160401b0392188216608080880191825287518a511884168a5260208881018051918c01805190921886169091526040808a018051918d01805190921887169091528985018051958d01805190961887169095528351928c0180519093188616909252885160a08c01805190911886169052805160c08c01805190911886169052815160e08c0180519091188616905283516101008c0180519091188616905282516101208c0180519091188616905288516101408c0180519091188616905280516101608c0180519091188616905281516101808c0180519091188616905283516101a08c0180519091188616905282516101c08c0180519091188616905288516101e08c0180519091188616905280516102008c0180519091188616905281516102208c0180519091188616905283516102408c0180519091188616905282516102608c0180519091188616905288516102808c01805190911886169052516102a08b01805190911885169052516102c08a0180519091188416905290516102e0890180519091188316905251610300880180519091189091169052614aff6150cf565b60005b6019811015614be2576000614b18600583615b43565b90506000614b27600584615b19565b90508060006005614b39836003615aec565b614b44866002615aec565b614b4e9190615950565b614b589190615b43565b9050614b908c8660198110614b6f57614b6f615b2d565b60200201518a8760198110614b8657614b86615b2d565b602002015161509b565b86614b9c836005615aec565b614ba69085615950565b60198110614bb657614bb6615b2d565b6001600160401b03909216602092909202015250839250614bda91508290506159b0565b915050614b02565b5060005b6005811015614dcf576000614bfc826005615aec565b90506000838260198110614c1257614c12615b2d565b60200201519050600084614c27846001615950565b60198110614c3757614c37615b2d565b60200201519050600085614c4c856002615950565b60198110614c5c57614c5c615b2d565b60200201519050600086614c71866003615950565b60198110614c8157614c81615b2d565b60200201519050600087614c96876004615950565b60198110614ca657614ca6615b2d565b602002015190508284191685188e8760198110614cc557614cc5615b2d565b6001600160401b0390921660209290920201528219821684188e614cea886001615950565b60198110614cfa57614cfa615b2d565b6001600160401b0390921660209290920201528119811683188e614d1f886002615950565b60198110614d2f57614d2f615b2d565b6001600160401b0390921660209290920201528019851682188e614d54886003615950565b60198110614d6457614d64615b2d565b6001600160401b0390921660209290920201528419841681188e614d89886004615950565b60198110614d9957614d99615b2d565b60200201906001600160401b031690816001600160401b0316815250505050505050508080614dc7906159b0565b915050614be6565b50828260188110614de257614de2615b2d565b60200201518751186001600160401b031687525080614e00816159b0565b9150506147d5565b50939695505050505050565b6000808383604051602001614e2a929190615b57565b604051602081830303815290604052905061179a816138d7565b6000808383604051602001614e2a929190918252602082015260400190565b6000805b84811015614fa957600060096000868685818110614e8757614e87615b2d565b9050602002016020810190614e9c9190615141565b6001600160a01b031681526020810191909152604001600020600581015490915060ff16614eca5750614f97565b806002018054614ed990615976565b9050602014614ee85750614f97565b6002546001600160a01b0316635bf48e3a89898986818110614f0c57614f0c615b2d565b9050602002810190614f1e9190615b7d565b856002016040518563ffffffff1660e01b8152600401614f419493929190615bc3565b602060405180830381865afa158015614f5e573d6000803e3d6000fd5b505050506040513d601f19601f82011682018060405250810190614f829190615c84565b15614f955782614f91816159b0565b9350505b505b80614fa1816159b0565b915050614e67565b5095945050505050565b6000805b84811015614fa957600060096000868685818110614fd757614fd7615b2d565b9050602002016020810190614fec9190615141565b6001600160a01b031681526020810191909152604001600020600581015490915060ff1661501a5750615089565b600061507082600101548a8a8a8781811061503757615037615b2d565b90506020028101906150499190615b7d565b60405160200161505c9493929190615ca1565b6040516020818303038152906040526138d7565b905080156150865783615082816159b0565b9450505b50505b80615093816159b0565b915050614fb7565b6000816000036150ac575081613054565b6150b7826040615963565b6001600160401b03841680841b911c17905092915050565b6040518061032001604052806019906020820280368337509192915050565b6040518060a001604052806005906020820280368337509192915050565b60006020828403121561511e57600080fd5b5035919050565b80356001600160a01b038116811461513c57600080fd5b919050565b60006020828403121561515357600080fd5b61360e82615125565b60005b8381101561517757818101518382015260200161515f565b50506000910152565b6000815180845261519881602086016020860161515c565b601f01601f19169290920160200192915050565b6001600160a01b038916815260208101889052610100604082018190526000906151d88382018a615180565b60608401989098525050608081019490945291151560a084015260c083015260e0909101529392505050565b801515811461138057600080fd5b60006020828403121561522457600080fd5b813561360e81615204565b60008083601f84011261524157600080fd5b5081356001600160401b0381111561525857600080fd5b60208301915083602082850101111561527057600080fd5b9250929050565b6000806000806060858703121561528d57600080fd5b61529685615125565b935060208501356001600160401b038111156152b157600080fd5b6152bd8782880161522f565b9598909750949560400135949350505050565b634e487b7160e01b600052602160045260246000fd5b60058110611380576113806152d0565b815181526020808301516001600160a01b03169082015260408083015190820152606080830151908201526080820151610120820190615335816152e6565b8060808401525060a083015160a083015260c083015160c083015260e083015160e083015261010080840151615375828501826001600160a01b03169052565b505092915050565b60008060006040848603121561539257600080fd5b61539b84615125565b925060208401356001600160401b038111156153b657600080fd5b6153c28682870161522f565b9497909650939450505050565b600080604083850312156153e257600080fd5b823591506153f260208401615125565b90509250929050565b815181526020808301516001600160a01b03169082015260408083015190820152606080830151908201526080808301519082015260a0820151610100820190615444816152e6565b8060a08401525060c0830151151560c083015260e0830151151560e083015292915050565b815181526020808301516101a083019161548d908401826001600160a01b03169052565b5060408301516040830152606083015160608301526080830151608083015260a083015160a083015260c083015160c083015260e08301516154d360e084018215159052565b50610100838101519083015261012080840151908301526101408084015190830152610160808401519083015261018092830151929091019190915290565b60008083601f84011261552457600080fd5b5081356001600160401b0381111561553b57600080fd5b6020830191508360208260051b850101111561527057600080fd5b600080600080600080600080600060c08a8c03121561557457600080fd5b8935985061558460208b01615125565b975060408a01356001600160401b03808211156155a057600080fd5b6155ac8d838e01615512565b909950975060608c0135965060808c01359150808211156155cc57600080fd5b6155d88d838e01615512565b909650945060a08c01359150808211156155f157600080fd5b506155fe8c828d01615512565b915080935050809150509295985092959850929598565b6000806040838503121561562857600080fd5b82359150602083013561563a81615204565b809150509250929050565b60008060006040848603121561565a57600080fd5b8335925060208401356001600160401b038111156153b657600080fd5b8881526001600160a01b038816602082015260408101879052606081018690526080810185905261010081016156ac856152e6565b60a082019490945291151560c0830152151560e09091015295945050505050565b600080600080600060a086880312156156e557600080fd5b85359450602086013593506156fc60408701615125565b94979396509394606081013594506080013592915050565b8981526001600160a01b0389811660208301526040820189905260608201889052610120820190615744886152e6565b8760808401528660a08401528560c08401528460e0840152808416610100840152509a9950505050505050505050565b60068110615784576157846152d0565b9052565b60006101208201905060018060a01b038084511683528060208501511660208401525060408301516040830152606083015160608301526080830151608083015260a08301516157db60a0840182615774565b5060c083015160c083015260e083015160e083015261010080840151818401525092915050565b6001600160a01b038a8116825289166020820152604081018890526060810187905260808101869052610120810161583d60a0830187615774565b8460c08301528360e0830152826101008301529a9950505050505050505050565b6020815260018060a01b0382511660208201526020820151604082015260006040830151610100806060850152615899610120850183615180565b915060608501516080850152608085015160a085015260a0850151151560c085015260c085015160e085015260e085015181850152508091505092915050565b600080600080600080600060e0888a0312156158f457600080fd5b8735965061590460208901615125565b95506040880135945061591960608901615125565b9699959850939660808101359560a0820135955060c0909101359350915050565b634e487b7160e01b600052601160045260246000fd5b808201808211156130545761305461593a565b818103818111156130545761305461593a565b600181811c9082168061598a57607f821691505b6020821081036159aa57634e487b7160e01b600052602260045260246000fd5b50919050565b6000600182016159c2576159c261593a565b5060010190565b634e487b7160e01b600052604160045260246000fd5b601f82111561304457600081815260208120601f850160051c81016020861015615a065750805b601f850160051c820191505b81811015615a2557828155600101615a12565b505050505050565b81516001600160401b03811115615a4657615a466159c9565b615a5a81615a548454615976565b846159df565b602080601f831160018114615a8f5760008415615a775750858301515b600019600386901b1c1916600185901b178555615a25565b600085815260208120601f198616915b82811015615abe57888601518255948401946001909101908401615a9f565b5085821015615adc5787850151600019600388901b60f8161c191681555b5050505050600190811b01905550565b80820281158282048414176130545761305461593a565b634e487b7160e01b600052601260045260246000fd5b600082615b2857615b28615b03565b500490565b634e487b7160e01b600052603260045260246000fd5b600082615b5257615b52615b03565b500690565b82815260008251615b6f81602085016020870161515c565b919091016020019392505050565b6000808335601e19843603018112615b9457600080fd5b8301803591506001600160401b03821115615bae57600080fd5b60200191503681900382131561527057600080fd5b8481526000602060608184015284606084015284866080850137600060808685010152601f19601f8601168301608084820301604085015260008554615c0881615976565b80608085015260a0600180841660008114615c2a5760018114615c4457615c72565b60ff1985168784015283151560051b870183019550615c72565b8a6000528760002060005b85811015615c6a578154898201860152908301908901615c4f565b880184019650505b50939c9b505050505050505050505050565b600060208284031215615c9657600080fd5b815161360e81615204565b8481528360208201528183604083013760009101604001908152939250505056fe9b779b17422d0df92223018b32b4d1fa46e071723d6817e2486d003becc55f00a264697066735822122021cd32bc584572190ba0304d07d4ed5882097f47dec0bb84fc0d3de9227ad0ab64736f6c63430008140033","linkReferences":{}},"methodIdentifiers":{"CHALLENGE_BOND_PERCENT()":"844ca7d7","CHALLENGE_PERIOD()":"c3a079ed","DEFAULT_LOCK_EXPIRY()":"30362d81","DEFENSE_PERIOD()":"a0f5df3e","EMERGENCY_BOND_PERCENT()":"66fdf627","EMERGENCY_TIME_LOCK()":"86fdd39f","MIN_CHALLENGE_BOND()":"04a829f2","MIN_EMERGENCY_BOND()":"8be9963a","MIN_LOCK_AMOUNT()":"dd764abf","NORMAL_TIME_LOCK()":"7e0ee4f1","PROVER_TIMEOUT()":"3659e380","REQUIRED_SIGNATURES()":"9ac18b19","SLASH_BURN_PERCENT()":"368fdfa7","SLASH_CHALLENGER_PERCENT()":"171a077e","SLASH_INSURANCE_PERCENT()":"2b8c0953","TOTAL_PROVERS()":"eac61708","TVL_CAP()":"f3ce02c7","activeProvers(uint256)":"4455dbe9","autoResolveChallenge(bytes32)":"b9f3313d","calculateChallengeBond(uint256)":"ec5db8b0","calculateEmergencyBond(uint256)":"cad723ce","challenge(bytes32,bytes)":"bab26713","challenges(bytes32)":"c1e69b66","checkProverTimeout(bytes32)":"0e462a6c","computeStateRoot(uint256,address,uint256,address,uint256,uint256,bytes32)":"fcef2d9a","computeUnlockStateRoot(bytes32,bytes32,address,uint256,uint256)":"b56c2de8","currentStateRoot()":"ac2eba98","emergencyUnlocks(bytes32)":"a0fbc263","enhancedMonitoring(bytes32)":"e7a423f7","executeUnlock(bytes32)":"1b4493aa","getActiveProverCount()":"492723b4","getChallenge(bytes32)":"458d2bf1","getEmergencyUnlock(bytes32)":"71e513bb","getLock(bytes32)":"d6f27b58","getProver(address)":"faab193c","getSPHINCSVerifier()":"dd365c28","getSlashingDistribution()":"8f01465b","getUnlockRequest(bytes32)":"7250921c","initiateEmergencyFromTimeout(bytes32)":"d5e8b700","insuranceFund()":"b7902303","isEnhancedMonitoring(bytes32)":"a3bb88ee","isFullVerificationEnabled()":"884476f9","isQuantumResistant()":"6f173079","lock(address,bytes)":"9ca17998","lockWithExpiry(address,bytes,uint256)":"4157e049","locks(bytes32)":"ed5e8437","nonceCounter()":"de780bbd","owner()":"8da5cb5b","pause()":"8456cb59","paused()":"5c975abb","provers(address)":"1dec844b","recordProverRequest(bytes32)":"68faeaee","registerProver(address,bytes)":"488dbf8e","requestEmergencyUnlock(bytes32,address)":"49fe43f9","requestUnlock(bytes32,address,bytes32[],bytes32,bytes[],address[])":"77b053c2","requestUnlockLegacy(bytes32,address,bytes32[],bytes32,bytes[],address[])":"94c01ce3","resolveChallenge(bytes32,bool)":"7d89122d","securityCouncil()":"27eb6c0f","setFullVerification(bool)":"2a308c2d","setSPHINCSVerifier(address)":"64e99ab5","sphincsVerifier()":"12668c22","submitDefense(bytes32,bytes)":"8d9c20b5","totalBurned()":"d89135cd","totalLocked()":"56891412","transferOwnership(address)":"f2fde38b","unlockNonceCounter()":"8adfe175","unlockRequests(bytes32)":"e7017f78","unpause()":"3f4ba83a","updateSecurityCouncil(address)":"dbfe3e96","updateStateRoot(bytes32)":"acaf80a1","useFullVerification()":"e0d49b6f"},"id":5}