{"abi":[{"type":"constructor","inputs":[{"name":"_securityCouncil","type":"address","internalType":"address"},{"name":"_sphincsVerifier","type":"address","internalType":"address"}],"stateMutability":"nonpayable"},{"type":"receive","stateMutability":"payable"},{"type":"function","name":"CHALLENGE_BOND_PERCENT","inputs":[],"outputs":[{"name":"","type":"uint256","internalType":"uint256"}],"stateMutability":"view"},{"type":"function","name":"CHALLENGE_PERIOD","inputs":[],"outputs":[{"name":"","type":"uint256","internalType":"uint256"}],"stateMutability":"view"},{"type":"function","name":"DEFAULT_LOCK_EXPIRY","inputs":[],"outputs":[{"name":"","type":"uint256","internalType":"uint256"}],"stateMutability":"view"},{"type":"function","name":"DEFENSE_PERIOD","inputs":[],"outputs":[{"name":"","type":"uint256","internalType":"uint256"}],"stateMutability":"view"},{"type":"function","name":"EMERGENCY_BOND_PERCENT","inputs":[],"outputs":[{"name":"","type":"uint256","internalType":"uint256"}],"stateMutability":"view"},{"type":"function","name":"EMERGENCY_TIME_LOCK","inputs":[],"outputs":[{"name":"","type":"uint256","internalType":"uint256"}],"stateMutability":"view"},{"type":"function","name":"MIN_CHALLENGE_BOND","inputs":[],"outputs":[{"name":"","type":"uint256","internalType":"uint256"}],"stateMutability":"view"},{"type":"function","name":"MIN_EMERGENCY_BOND","inputs":[],"outputs":[{"name":"","type":"uint256","internalType":"uint256"}],"stateMutability":"view"},{"type":"function","name":"MIN_LOCK_AMOUNT","inputs":[],"outputs":[{"name":"","type":"uint256","internalType":"uint256"}],"stateMutability":"view"},{"type":"function","name":"NORMAL_TIME_LOCK","inputs":[],"outputs":[{"name":"","type":"uint256","internalType":"uint256"}],"stateMutability":"view"},{"type":"function","name":"PROVER_TIMEOUT","inputs":[],"outputs":[{"name":"","type":"uint256","internalType":"uint256"}],"stateMutability":"view"},{"type":"function","name":"REQUIRED_SIGNATURES","inputs":[],"outputs":[{"name":"","type":"uint256","internalType":"uint256"}],"stateMutability":"view"},{"type":"function","name":"SLASH_BURN_PERCENT","inputs":[],"outputs":[{"name":"","type":"uint256","internalType":"uint256"}],"stateMutability":"view"},{"type":"function","name":"SLASH_CHALLENGER_PERCENT","inputs":[],"outputs":[{"name":"","type":"uint256","internalType":"uint256"}],"stateMutability":"view"},{"type":"function","name":"SLASH_INSURANCE_PERCENT","inputs":[],"outputs":[{"name":"","type":"uint256","internalType":"uint256"}],"stateMutability":"view"},{"type":"function","name":"TOTAL_PROVERS","inputs":[],"outputs":[{"name":"","type":"uint256","internalType":"uint256"}],"stateMutability":"view"},{"type":"function","name":"TVL_CAP","inputs":[],"outputs":[{"name":"","type":"uint256","internalType":"uint256"}],"stateMutability":"view"},{"type":"function","name":"activeProvers","inputs":[{"name":"","type":"uint256","internalType":"uint256"}],"outputs":[{"name":"","type":"address","internalType":"address"}],"stateMutability":"view"},{"type":"function","name":"autoResolveChallenge","inputs":[{"name":"lockId","type":"bytes32","internalType":"bytes32"}],"outputs":[],"stateMutability":"nonpayable"},{"type":"function","name":"calculateChallengeBond","inputs":[{"name":"amount","type":"uint256","internalType":"uint256"}],"outputs":[{"name":"","type":"uint256","internalType":"uint256"}],"stateMutability":"pure"},{"type":"function","name":"calculateEmergencyBond","inputs":[{"name":"amount","type":"uint256","internalType":"uint256"}],"outputs":[{"name":"","type":"uint256","internalType":"uint256"}],"stateMutability":"pure"},{"type":"function","name":"challenge","inputs":[{"name":"lockId","type":"bytes32","internalType":"bytes32"},{"name":"fraudProof","type":"bytes","internalType":"bytes"}],"outputs":[],"stateMutability":"payable"},{"type":"function","name":"challenges","inputs":[{"name":"","type":"bytes32","internalType":"bytes32"}],"outputs":[{"name":"lockId","type":"bytes32","internalType":"bytes32"},{"name":"challenger","type":"address","internalType":"address"},{"name":"fraudProofHash","type":"bytes32","internalType":"bytes32"},{"name":"challengedAt","type":"uint256","internalType":"uint256"},{"name":"status","type":"uint8","internalType":"enum L1Vault.ChallengeStatus"},{"name":"bond","type":"uint256","internalType":"uint256"},{"name":"defenseDeadline","type":"uint256","internalType":"uint256"},{"name":"defenseProofHash","type":"bytes32","internalType":"bytes32"},{"name":"defender","type":"address","internalType":"address"}],"stateMutability":"view"},{"type":"function","name":"checkProverTimeout","inputs":[{"name":"lockId","type":"bytes32","internalType":"bytes32"}],"outputs":[{"name":"isTimedOut","type":"bool","internalType":"bool"},{"name":"proverRequestedAt","type":"uint256","internalType":"uint256"},{"name":"timeRemaining","type":"uint256","internalType":"uint256"}],"stateMutability":"view"},{"type":"function","name":"computeStateRoot","inputs":[{"name":"chainId","type":"uint256","internalType":"uint256"},{"name":"asset","type":"address","internalType":"address"},{"name":"amount","type":"uint256","internalType":"uint256"},{"name":"destAddr","type":"address","internalType":"address"},{"name":"expiry","type":"uint256","internalType":"uint256"},{"name":"nonce","type":"uint256","internalType":"uint256"},{"name":"pkDilithium","type":"bytes32","internalType":"bytes32"}],"outputs":[{"name":"","type":"bytes32","internalType":"bytes32"}],"stateMutability":"pure"},{"type":"function","name":"computeUnlockStateRoot","inputs":[{"name":"sr0","type":"bytes32","internalType":"bytes32"},{"name":"lockId","type":"bytes32","internalType":"bytes32"},{"name":"destAddr","type":"address","internalType":"address"},{"name":"amount","type":"uint256","internalType":"uint256"},{"name":"nonce","type":"uint256","internalType":"uint256"}],"outputs":[{"name":"","type":"bytes32","internalType":"bytes32"}],"stateMutability":"pure"},{"type":"function","name":"currentStateRoot","inputs":[],"outputs":[{"name":"","type":"bytes32","internalType":"bytes32"}],"stateMutability":"view"},{"type":"function","name":"emergencyUnlocks","inputs":[{"name":"","type":"bytes32","internalType":"bytes32"}],"outputs":[{"name":"lockId","type":"bytes32","internalType":"bytes32"},{"name":"initiator","type":"address","internalType":"address"},{"name":"bondAmount","type":"uint256","internalType":"uint256"},{"name":"initiatedAt","type":"uint256","internalType":"uint256"},{"name":"emergencyReadyAt","type":"uint256","internalType":"uint256"},{"name":"status","type":"uint8","internalType":"enum L1Vault.EmergencyStatus"},{"name":"enhancedMonitoring","type":"bool","internalType":"bool"},{"name":"fromTimeout","type":"bool","internalType":"bool"}],"stateMutability":"view"},{"type":"function","name":"enhancedMonitoring","inputs":[{"name":"","type":"bytes32","internalType":"bytes32"}],"outputs":[{"name":"","type":"bool","internalType":"bool"}],"stateMutability":"view"},{"type":"function","name":"executeUnlock","inputs":[{"name":"lockId","type":"bytes32","internalType":"bytes32"}],"outputs":[],"stateMutability":"nonpayable"},{"type":"function","name":"getActiveProverCount","inputs":[],"outputs":[{"name":"","type":"uint256","internalType":"uint256"}],"stateMutability":"view"},{"type":"function","name":"getChallenge","inputs":[{"name":"lockId","type":"bytes32","internalType":"bytes32"}],"outputs":[{"name":"","type":"tuple","internalType":"struct L1Vault.Challenge","components":[{"name":"lockId","type":"bytes32","internalType":"bytes32"},{"name":"challenger","type":"address","internalType":"address"},{"name":"fraudProofHash","type":"bytes32","internalType":"bytes32"},{"name":"challengedAt","type":"uint256","internalType":"uint256"},{"name":"status","type":"uint8","internalType":"enum L1Vault.ChallengeStatus"},{"name":"bond","type":"uint256","internalType":"uint256"},{"name":"defenseDeadline","type":"uint256","internalType":"uint256"},{"name":"defenseProofHash","type":"bytes32","internalType":"bytes32"},{"name":"defender","type":"address","internalType":"address"}]}],"stateMutability":"view"},{"type":"function","name":"getEmergencyUnlock","inputs":[{"name":"lockId","type":"bytes32","internalType":"bytes32"}],"outputs":[{"name":"","type":"tuple","internalType":"struct L1Vault.EmergencyUnlock","components":[{"name":"lockId","type":"bytes32","internalType":"bytes32"},{"name":"initiator","type":"address","internalType":"address"},{"name":"bondAmount","type":"uint256","internalType":"uint256"},{"name":"initiatedAt","type":"uint256","internalType":"uint256"},{"name":"emergencyReadyAt","type":"uint256","internalType":"uint256"},{"name":"status","type":"uint8","internalType":"enum L1Vault.EmergencyStatus"},{"name":"enhancedMonitoring","type":"bool","internalType":"bool"},{"name":"fromTimeout","type":"bool","internalType":"bool"}]}],"stateMutability":"view"},{"type":"function","name":"getLock","inputs":[{"name":"lockId","type":"bytes32","internalType":"bytes32"}],"outputs":[{"name":"","type":"tuple","internalType":"struct L1Vault.Lock","components":[{"name":"sender","type":"address","internalType":"address"},{"name":"recipient","type":"address","internalType":"address"},{"name":"amount","type":"uint256","internalType":"uint256"},{"name":"dilithiumPubKeyHash","type":"bytes32","internalType":"bytes32"},{"name":"lockedAt","type":"uint256","internalType":"uint256"},{"name":"status","type":"uint8","internalType":"enum L1Vault.LockStatus"},{"name":"stateRoot","type":"bytes32","internalType":"bytes32"},{"name":"expiry","type":"uint256","internalType":"uint256"},{"name":"nonce","type":"uint256","internalType":"uint256"}]}],"stateMutability":"view"},{"type":"function","name":"getProver","inputs":[{"name":"proverAddress","type":"address","internalType":"address"}],"outputs":[{"name":"","type":"tuple","internalType":"struct L1Vault.Prover","components":[{"name":"proverAddress","type":"address","internalType":"address"},{"name":"sphincsPubKeyHash","type":"bytes32","internalType":"bytes32"},{"name":"sphincsPublicKey","type":"bytes","internalType":"bytes"},{"name":"stakedAmount","type":"uint256","internalType":"uint256"},{"name":"registeredAt","type":"uint256","internalType":"uint256"},{"name":"isActive","type":"bool","internalType":"bool"},{"name":"successfulSigns","type":"uint256","internalType":"uint256"},{"name":"slashedCount","type":"uint256","internalType":"uint256"}]}],"stateMutability":"view"},{"type":"function","name":"getSPHINCSVerifier","inputs":[],"outputs":[{"name":"","type":"address","internalType":"address"}],"stateMutability":"view"},{"type":"function","name":"getSlashingDistribution","inputs":[],"outputs":[{"name":"challenger","type":"uint256","internalType":"uint256"},{"name":"insurance","type":"uint256","internalType":"uint256"},{"name":"burn","type":"uint256","internalType":"uint256"}],"stateMutability":"pure"},{"type":"function","name":"getUnlockRequest","inputs":[{"name":"lockId","type":"bytes32","internalType":"bytes32"}],"outputs":[{"name":"","type":"tuple","internalType":"struct L1Vault.UnlockRequest","components":[{"name":"lockId","type":"bytes32","internalType":"bytes32"},{"name":"recipient","type":"address","internalType":"address"},{"name":"amount","type":"uint256","internalType":"uint256"},{"name":"stateRoot","type":"bytes32","internalType":"bytes32"},{"name":"unlockStateRoot","type":"bytes32","internalType":"bytes32"},{"name":"requestedAt","type":"uint256","internalType":"uint256"},{"name":"unlockableAt","type":"uint256","internalType":"uint256"},{"name":"isEmergency","type":"bool","internalType":"bool"},{"name":"bond","type":"uint256","internalType":"uint256"},{"name":"signatureCount","type":"uint256","internalType":"uint256"},{"name":"unlockNonce","type":"uint256","internalType":"uint256"},{"name":"proverRequestedAt","type":"uint256","internalType":"uint256"},{"name":"emergencyReadyAt","type":"uint256","internalType":"uint256"}]}],"stateMutability":"view"},{"type":"function","name":"getUserLockIds","inputs":[{"name":"user","type":"address","internalType":"address"}],"outputs":[{"name":"lockIds","type":"bytes32[]","internalType":"bytes32[]"}],"stateMutability":"view"},{"type":"function","name":"initiateEmergencyFromTimeout","inputs":[{"name":"lockId","type":"bytes32","internalType":"bytes32"}],"outputs":[],"stateMutability":"payable"},{"type":"function","name":"insuranceFund","inputs":[],"outputs":[{"name":"","type":"uint256","internalType":"uint256"}],"stateMutability":"view"},{"type":"function","name":"isEnhancedMonitoring","inputs":[{"name":"lockId","type":"bytes32","internalType":"bytes32"}],"outputs":[{"name":"","type":"bool","internalType":"bool"}],"stateMutability":"view"},{"type":"function","name":"isFullVerificationEnabled","inputs":[],"outputs":[{"name":"","type":"bool","internalType":"bool"}],"stateMutability":"view"},{"type":"function","name":"isQuantumResistant","inputs":[],"outputs":[{"name":"","type":"bool","internalType":"bool"}],"stateMutability":"pure"},{"type":"function","name":"lock","inputs":[{"name":"recipient","type":"address","internalType":"address"},{"name":"dilithiumPubKey","type":"bytes","internalType":"bytes"}],"outputs":[{"name":"lockId","type":"bytes32","internalType":"bytes32"}],"stateMutability":"payable"},{"type":"function","name":"lockWithExpiry","inputs":[{"name":"recipient","type":"address","internalType":"address"},{"name":"dilithiumPubKey","type":"bytes","internalType":"bytes"},{"name":"expiry","type":"uint256","internalType":"uint256"}],"outputs":[{"name":"lockId","type":"bytes32","internalType":"bytes32"}],"stateMutability":"payable"},{"type":"function","name":"lockWithSR0","inputs":[{"name":"lockId","type":"bytes32","internalType":"bytes32"},{"name":"sr0","type":"bytes32","internalType":"bytes32"},{"name":"recipient","type":"address","internalType":"address"},{"name":"expiry","type":"uint256","internalType":"uint256"}],"outputs":[],"stateMutability":"payable"},{"type":"function","name":"lockedBalanceOf","inputs":[{"name":"user","type":"address","internalType":"address"}],"outputs":[{"name":"","type":"uint256","internalType":"uint256"}],"stateMutability":"view"},{"type":"function","name":"locks","inputs":[{"name":"","type":"bytes32","internalType":"bytes32"}],"outputs":[{"name":"sender","type":"address","internalType":"address"},{"name":"recipient","type":"address","internalType":"address"},{"name":"amount","type":"uint256","internalType":"uint256"},{"name":"dilithiumPubKeyHash","type":"bytes32","internalType":"bytes32"},{"name":"lockedAt","type":"uint256","internalType":"uint256"},{"name":"status","type":"uint8","internalType":"enum L1Vault.LockStatus"},{"name":"stateRoot","type":"bytes32","internalType":"bytes32"},{"name":"expiry","type":"uint256","internalType":"uint256"},{"name":"nonce","type":"uint256","internalType":"uint256"}],"stateMutability":"view"},{"type":"function","name":"nonceCounter","inputs":[],"outputs":[{"name":"","type":"uint256","internalType":"uint256"}],"stateMutability":"view"},{"type":"function","name":"owner","inputs":[],"outputs":[{"name":"","type":"address","internalType":"address"}],"stateMutability":"view"},{"type":"function","name":"pause","inputs":[],"outputs":[],"stateMutability":"nonpayable"},{"type":"function","name":"paused","inputs":[],"outputs":[{"name":"","type":"bool","internalType":"bool"}],"stateMutability":"view"},{"type":"function","name":"proverRegistry","inputs":[],"outputs":[{"name":"","type":"address","internalType":"contract IProverRegistry"}],"stateMutability":"view"},{"type":"function","name":"provers","inputs":[{"name":"","type":"address","internalType":"address"}],"outputs":[{"name":"proverAddress","type":"address","internalType":"address"},{"name":"sphincsPubKeyHash","type":"bytes32","internalType":"bytes32"},{"name":"sphincsPublicKey","type":"bytes","internalType":"bytes"},{"name":"stakedAmount","type":"uint256","internalType":"uint256"},{"name":"registeredAt","type":"uint256","internalType":"uint256"},{"name":"isActive","type":"bool","internalType":"bool"},{"name":"successfulSigns","type":"uint256","internalType":"uint256"},{"name":"slashedCount","type":"uint256","internalType":"uint256"}],"stateMutability":"view"},{"type":"function","name":"recordProverRequest","inputs":[{"name":"lockId","type":"bytes32","internalType":"bytes32"}],"outputs":[],"stateMutability":"nonpayable"},{"type":"function","name":"registerProver","inputs":[{"name":"proverAddress","type":"address","internalType":"address"},{"name":"sphincsPublicKey","type":"bytes","internalType":"bytes"}],"outputs":[],"stateMutability":"payable"},{"type":"function","name":"registerProverTestnet","inputs":[{"name":"proverAddress","type":"address","internalType":"address"},{"name":"sphincsPublicKey","type":"bytes","internalType":"bytes"}],"outputs":[],"stateMutability":"nonpayable"},{"type":"function","name":"requestEmergencyUnlock","inputs":[{"name":"lockId","type":"bytes32","internalType":"bytes32"},{"name":"recipient","type":"address","internalType":"address"}],"outputs":[],"stateMutability":"payable"},{"type":"function","name":"requestUnlock","inputs":[{"name":"lockId","type":"bytes32","internalType":"bytes32"},{"name":"recipient","type":"address","internalType":"address"},{"name":"smtProof","type":"bytes32[]","internalType":"bytes32[]"},{"name":"expectedSR1","type":"bytes32","internalType":"bytes32"},{"name":"sphincsSignatures","type":"bytes[]","internalType":"bytes[]"},{"name":"signingProvers","type":"address[]","internalType":"address[]"}],"outputs":[],"stateMutability":"nonpayable"},{"type":"function","name":"requestUnlockLegacy","inputs":[{"name":"lockId","type":"bytes32","internalType":"bytes32"},{"name":"recipient","type":"address","internalType":"address"},{"name":"smtProof","type":"bytes32[]","internalType":"bytes32[]"},{"name":"stateRoot","type":"bytes32","internalType":"bytes32"},{"name":"sphincsSignatures","type":"bytes[]","internalType":"bytes[]"},{"name":"signingProvers","type":"address[]","internalType":"address[]"}],"outputs":[],"stateMutability":"nonpayable"},{"type":"function","name":"resolveChallenge","inputs":[{"name":"lockId","type":"bytes32","internalType":"bytes32"},{"name":"challengeValid","type":"bool","internalType":"bool"}],"outputs":[],"stateMutability":"nonpayable"},{"type":"function","name":"securityCouncil","inputs":[],"outputs":[{"name":"","type":"address","internalType":"address"}],"stateMutability":"view"},{"type":"function","name":"setFullVerification","inputs":[{"name":"_enable","type":"bool","internalType":"bool"}],"outputs":[],"stateMutability":"nonpayable"},{"type":"function","name":"setProverRegistry","inputs":[{"name":"_proverRegistry","type":"address","internalType":"address"}],"outputs":[],"stateMutability":"nonpayable"},{"type":"function","name":"setSPHINCSVerifier","inputs":[{"name":"_sphincsVerifier","type":"address","internalType":"address"}],"outputs":[],"stateMutability":"nonpayable"},{"type":"function","name":"sphincsVerifier","inputs":[],"outputs":[{"name":"","type":"address","internalType":"contract ISPHINCSVerifier"}],"stateMutability":"view"},{"type":"function","name":"submitDefense","inputs":[{"name":"lockId","type":"bytes32","internalType":"bytes32"},{"name":"defenseProof","type":"bytes","internalType":"bytes"}],"outputs":[],"stateMutability":"nonpayable"},{"type":"function","name":"totalBurned","inputs":[],"outputs":[{"name":"","type":"uint256","internalType":"uint256"}],"stateMutability":"view"},{"type":"function","name":"totalLocked","inputs":[],"outputs":[{"name":"","type":"uint256","internalType":"uint256"}],"stateMutability":"view"},{"type":"function","name":"transferOwnership","inputs":[{"name":"newOwner","type":"address","internalType":"address"}],"outputs":[],"stateMutability":"nonpayable"},{"type":"function","name":"unlockNonceCounter","inputs":[],"outputs":[{"name":"","type":"uint256","internalType":"uint256"}],"stateMutability":"view"},{"type":"function","name":"unlockRequests","inputs":[{"name":"","type":"bytes32","internalType":"bytes32"}],"outputs":[{"name":"lockId","type":"bytes32","internalType":"bytes32"},{"name":"recipient","type":"address","internalType":"address"},{"name":"amount","type":"uint256","internalType":"uint256"},{"name":"stateRoot","type":"bytes32","internalType":"bytes32"},{"name":"unlockStateRoot","type":"bytes32","internalType":"bytes32"},{"name":"requestedAt","type":"uint256","internalType":"uint256"},{"name":"unlockableAt","type":"uint256","internalType":"uint256"},{"name":"isEmergency","type":"bool","internalType":"bool"},{"name":"bond","type":"uint256","internalType":"uint256"},{"name":"signatureCount","type":"uint256","internalType":"uint256"},{"name":"unlockNonce","type":"uint256","internalType":"uint256"},{"name":"proverRequestedAt","type":"uint256","internalType":"uint256"},{"name":"emergencyReadyAt","type":"uint256","internalType":"uint256"}],"stateMutability":"view"},{"type":"function","name":"unpause","inputs":[],"outputs":[],"stateMutability":"nonpayable"},{"type":"function","name":"updateSecurityCouncil","inputs":[{"name":"newCouncil","type":"address","internalType":"address"}],"outputs":[],"stateMutability":"nonpayable"},{"type":"function","name":"updateStateRoot","inputs":[{"name":"newStateRoot","type":"bytes32","internalType":"bytes32"}],"outputs":[],"stateMutability":"nonpayable"},{"type":"function","name":"useFullVerification","inputs":[],"outputs":[{"name":"","type":"bool","internalType":"bool"}],"stateMutability":"view"},{"type":"function","name":"userLockIds","inputs":[{"name":"","type":"address","internalType":"address"},{"name":"","type":"uint256","internalType":"uint256"}],"outputs":[{"name":"","type":"bytes32","internalType":"bytes32"}],"stateMutability":"view"},{"type":"function","name":"userLockedBalance","inputs":[{"name":"","type":"address","internalType":"address"}],"outputs":[{"name":"","type":"uint256","internalType":"uint256"}],"stateMutability":"view"},{"type":"event","name":"ChallengeFiled","inputs":[{"name":"lockId","type":"bytes32","indexed":true,"internalType":"bytes32"},{"name":"challenger","type":"address","indexed":true,"internalType":"address"},{"name":"fraudProofHash","type":"bytes32","indexed":false,"internalType":"bytes32"},{"name":"bond","type":"uint256","indexed":false,"internalType":"uint256"},{"name":"defenseDeadline","type":"uint256","indexed":false,"internalType":"uint256"}],"anonymous":false},{"type":"event","name":"ChallengeResolved","inputs":[{"name":"lockId","type":"bytes32","indexed":true,"internalType":"bytes32"},{"name":"challengeValid","type":"bool","indexed":false,"internalType":"bool"},{"name":"slashedAmount","type":"uint256","indexed":false,"internalType":"uint256"},{"name":"challengerReward","type":"uint256","indexed":false,"internalType":"uint256"},{"name":"insuranceAmount","type":"uint256","indexed":false,"internalType":"uint256"},{"name":"burnedAmount","type":"uint256","indexed":false,"internalType":"uint256"}],"anonymous":false},{"type":"event","name":"DefenseSubmitted","inputs":[{"name":"lockId","type":"bytes32","indexed":true,"internalType":"bytes32"},{"name":"defender","type":"address","indexed":true,"internalType":"address"},{"name":"defenseProofHash","type":"bytes32","indexed":false,"internalType":"bytes32"}],"anonymous":false},{"type":"event","name":"EmergencyBondReceived","inputs":[{"name":"lockId","type":"bytes32","indexed":true,"internalType":"bytes32"},{"name":"payer","type":"address","indexed":true,"internalType":"address"},{"name":"bondAmount","type":"uint256","indexed":false,"internalType":"uint256"},{"name":"requiredBond","type":"uint256","indexed":false,"internalType":"uint256"}],"anonymous":false},{"type":"event","name":"EmergencyUnlockFinalized","inputs":[{"name":"lockId","type":"bytes32","indexed":true,"internalType":"bytes32"},{"name":"recipient","type":"address","indexed":true,"internalType":"address"},{"name":"amount","type":"uint256","indexed":false,"internalType":"uint256"},{"name":"bondReturned","type":"uint256","indexed":false,"internalType":"uint256"},{"name":"wasSlashed","type":"bool","indexed":false,"internalType":"bool"}],"anonymous":false},{"type":"event","name":"EmergencyUnlockInitiated","inputs":[{"name":"lockId","type":"bytes32","indexed":true,"internalType":"bytes32"},{"name":"initiator","type":"address","indexed":true,"internalType":"address"},{"name":"fromTimeout","type":"bool","indexed":false,"internalType":"bool"},{"name":"timestamp","type":"uint256","indexed":false,"internalType":"uint256"}],"anonymous":false},{"type":"event","name":"EmergencyUnlockRequested","inputs":[{"name":"lockId","type":"bytes32","indexed":true,"internalType":"bytes32"},{"name":"recipient","type":"address","indexed":true,"internalType":"address"},{"name":"amount","type":"uint256","indexed":false,"internalType":"uint256"},{"name":"bond","type":"uint256","indexed":false,"internalType":"uint256"},{"name":"unlockableAt","type":"uint256","indexed":false,"internalType":"uint256"}],"anonymous":false},{"type":"event","name":"EnhancedMonitoringActivated","inputs":[{"name":"lockId","type":"bytes32","indexed":true,"internalType":"bytes32"},{"name":"timestamp","type":"uint256","indexed":false,"internalType":"uint256"}],"anonymous":false},{"type":"event","name":"Locked","inputs":[{"name":"lockId","type":"bytes32","indexed":true,"internalType":"bytes32"},{"name":"sender","type":"address","indexed":true,"internalType":"address"},{"name":"recipient","type":"address","indexed":true,"internalType":"address"},{"name":"amount","type":"uint256","indexed":false,"internalType":"uint256"},{"name":"dilithiumPubKeyHash","type":"bytes32","indexed":false,"internalType":"bytes32"},{"name":"stateRoot","type":"bytes32","indexed":false,"internalType":"bytes32"}],"anonymous":false},{"type":"event","name":"OwnershipTransferred","inputs":[{"name":"previousOwner","type":"address","indexed":true,"internalType":"address"},{"name":"newOwner","type":"address","indexed":true,"internalType":"address"}],"anonymous":false},{"type":"event","name":"Paused","inputs":[{"name":"account","type":"address","indexed":false,"internalType":"address"}],"anonymous":false},{"type":"event","name":"ProverRegistered","inputs":[{"name":"prover","type":"address","indexed":true,"internalType":"address"},{"name":"sphincsPubKeyHash","type":"bytes32","indexed":false,"internalType":"bytes32"},{"name":"stake","type":"uint256","indexed":false,"internalType":"uint256"}],"anonymous":false},{"type":"event","name":"ProverRegistryUpdated","inputs":[{"name":"oldRegistry","type":"address","indexed":true,"internalType":"address"},{"name":"newRegistry","type":"address","indexed":true,"internalType":"address"}],"anonymous":false},{"type":"event","name":"ProverSlashed","inputs":[{"name":"prover","type":"address","indexed":true,"internalType":"address"},{"name":"amount","type":"uint256","indexed":false,"internalType":"uint256"},{"name":"reason","type":"bytes32","indexed":false,"internalType":"bytes32"}],"anonymous":false},{"type":"event","name":"ProverTimeoutDetected","inputs":[{"name":"lockId","type":"bytes32","indexed":true,"internalType":"bytes32"},{"name":"requestedAt","type":"uint256","indexed":false,"internalType":"uint256"},{"name":"detectedAt","type":"uint256","indexed":false,"internalType":"uint256"}],"anonymous":false},{"type":"event","name":"SPHINCSVerifierUpdated","inputs":[{"name":"oldVerifier","type":"address","indexed":true,"internalType":"address"},{"name":"newVerifier","type":"address","indexed":true,"internalType":"address"}],"anonymous":false},{"type":"event","name":"SecurityCouncilUpdated","inputs":[{"name":"previousCouncil","type":"address","indexed":true,"internalType":"address"},{"name":"newCouncil","type":"address","indexed":true,"internalType":"address"}],"anonymous":false},{"type":"event","name":"StateRootUpdated","inputs":[{"name":"newRoot","type":"bytes32","indexed":true,"internalType":"bytes32"},{"name":"blockNumber","type":"uint256","indexed":true,"internalType":"uint256"}],"anonymous":false},{"type":"event","name":"UnlockExecuted","inputs":[{"name":"lockId","type":"bytes32","indexed":true,"internalType":"bytes32"},{"name":"recipient","type":"address","indexed":true,"internalType":"address"},{"name":"amount","type":"uint256","indexed":false,"internalType":"uint256"}],"anonymous":false},{"type":"event","name":"UnlockRequested","inputs":[{"name":"lockId","type":"bytes32","indexed":true,"internalType":"bytes32"},{"name":"recipient","type":"address","indexed":true,"internalType":"address"},{"name":"amount","type":"uint256","indexed":false,"internalType":"uint256"},{"name":"unlockableAt","type":"uint256","indexed":false,"internalType":"uint256"},{"name":"isEmergency","type":"bool","indexed":false,"internalType":"bool"},{"name":"unlockStateRoot","type":"bytes32","indexed":false,"internalType":"bytes32"}],"anonymous":false},{"type":"event","name":"Unpaused","inputs":[{"name":"account","type":"address","indexed":false,"internalType":"address"}],"anonymous":false},{"type":"error","name":"ChallengeAlreadyResolved","inputs":[]},{"type":"error","name":"ChallengeNotFound","inputs":[]},{"type":"error","name":"ChallengePeriodActive","inputs":[]},{"type":"error","name":"DefensePeriodExpired","inputs":[]},{"type":"error","name":"DefensePeriodNotExpired","inputs":[]},{"type":"error","name":"EmergencyAlreadyInitiated","inputs":[]},{"type":"error","name":"EmergencyTimeLockActive","inputs":[]},{"type":"error","name":"EnforcedPause","inputs":[]},{"type":"error","name":"ExpectedPause","inputs":[]},{"type":"error","name":"InsufficientAmount","inputs":[]},{"type":"error","name":"InsufficientSignatures","inputs":[]},{"type":"error","name":"InsufficientStake","inputs":[]},{"type":"error","name":"InvalidBond","inputs":[]},{"type":"error","name":"InvalidProof","inputs":[]},{"type":"error","name":"InvalidPublicKeyLength","inputs":[]},{"type":"error","name":"InvalidSignatures","inputs":[]},{"type":"error","name":"InvalidStateRoot","inputs":[]},{"type":"error","name":"LockAlreadyReleased","inputs":[]},{"type":"error","name":"LockExpired","inputs":[]},{"type":"error","name":"LockNotFound","inputs":[]},{"type":"error","name":"NotActiveProver","inputs":[]},{"type":"error","name":"NotInEmergencyState","inputs":[]},{"type":"error","name":"NotOwner","inputs":[]},{"type":"error","name":"NotSecurityCouncil","inputs":[]},{"type":"error","name":"ProverAlreadyRegistered","inputs":[]},{"type":"error","name":"ProverNotActive","inputs":[]},{"type":"error","name":"ProverTimeoutNotReached","inputs":[]},{"type":"error","name":"ReentrancyGuardReentrantCall","inputs":[]},{"type":"error","name":"TVLCapExceeded","inputs":[]},{"type":"error","name":"TransferFailed","inputs":[]},{"type":"error","name":"UnlockAlreadyRequested","inputs":[]},{"type":"error","name":"UnlockNotFound","inputs":[]},{"type":"error","name":"UnlockNotReady","inputs":[]},{"type":"error","name":"VerifierNotSet","inputs":[]},{"type":"error","name":"ZeroAddress","inputs":[]}],"bytecode":{"object":"0x6080346200010f57601f620057b038819003918201601f19168301916001600160401b03831184841017620001145780849260409485528339810103126200010f576200005a602062000052836200012a565b92016200012a565b60017f9b779b17422d0df92223018b32b4d1fa46e071723d6817e2486d003becc55f00556001600160a01b0391821691908215620000fd5760008054610100600160a81b0319163360081b610100600160a81b0316179055600180546001600160a01b03199081169094179055169081620000e0575b6040516156709081620001408239f35b6002541617600255600160ff19600f541617600f553880620000d0565b60405163d92e233d60e01b8152600490fd5b600080fd5b634e487b7160e01b600052604160045260246000fd5b51906001600160a01b03821682036200010f5756fe60e080604052600436101561001d575b50361561001b57600080fd5b005b60003560e01c90816304a829f2146136745750806308e001cd146134005780630c35d4fb146131bf5780630e462a6c1461318c57806312668c2214610975578063171a077e146131705780631b4493aa14612f175780631dec844b14612e7157806327eb6c0f14612e485780632a308c2d14612e025780632b8c095314612ddf57806330362d81146119f95780633659e38014612de4578063368fdfa714612ddf5780633f4ba83a14612d6b5780634157e04914612d285780634455dbe914612ccd578063458d2bf114612bc8578063488dbf8e146128ec578063492723b4146128d157806349fe43f914612593578063568914121461257557806359355736146118a25780635c975abb1461255257806364e99ab5146124e157806366fdf627146107ac578063689ea0181461227157806368faeaee1461221e5780636f173079146119dd57806371e513bb146120f65780637250921c14611f4a57806377b053c214611d9c5780637d89122d146119fe5780637e0ee4f1146119f9578063844ca7d7146119dd5780638456cb591461197957806386fdd39f1461195b578063884476f91461191d5780638adfe175146118ff5780638be9963a146118dc5780638cf2b63e146118a25780638d9c20b5146117b65780638da5cb5b146117895780638f01465b1461175f57806394c01ce3146115a85780639ac18b191461158c5780639ca179981461155e578063a0f5df3e14611540578063a0fbc263146114ae578063a3bb88ee146107b1578063ac2eba9814611490578063acaf80a114611439578063b56c2de814611408578063b7902303146113ea578063b9f3313d146111dc578063bab2671314610f87578063c1e69b6614610eeb578063c3a079ed14610ece578063cad723ce14610eb0578063d5e8b70014610b55578063d6f27b5814610a3d578063d89135cd14610a1f578063dbfe3e961461099e578063dd365c2814610975578063dd764abf14610953578063de780bbd14610935578063e0d49b6f14610912578063e7017f7814610853578063e75c8a3f146107e2578063e7a423f7146107b1578063eac61708146107ac578063ec5db8b01461074a578063ed5e8437146106b0578063eda3150414610687578063f2fde38b146105dc578063f3ce02c7146105b8578063faab193c14610482578063fcef2d9a146103ec5763ff6698791461038f573861000f565b346103e75760403660031901126103e7576103a86136ab565b6001600160a01b03166000908152601260205260409020805460243591908210156103e7576020916103d991613955565b90546040519160031b1c8152f35b600080fd5b346103e75760e03660031901126103e7576104056136c1565b606435906001600160a01b03821682036103e75760209161047a9160405191600435858401526001600160601b0319809260601b166040840152604435605484015260601b166074820152608435608882015260a43560a882015260c43560c882015260c8815261047581613781565b615522565b604051908152f35b346103e7576020806003193601126103e75761049c6136ab565b90600060e06040516104ad81613781565b8281528284820152606060408201528260608201528260808201528260a08201528260c0820152015260018060a01b03809216600052600a8152604060002090604051916104fa83613781565b8381541683526001810154918084019283526105186002830161382d565b9160408501928352600381015493606086019485526004820154936080870194855260ff6005840154169160a088019215158352600760068501549460c08a0195865201549460e08901958652604051998a99828b525116908901525160408801525193610594610100958660608a01526101208901906138f6565b955160808801525160a087015251151560c08601525160e085015251908301520390f35b346103e75760003660031901126103e75760206040516815af1d78b58c4000008152f35b346103e75760203660031901126103e7576105f56136ab565b6000546001600160a01b03600882901c811691903383900361067557831692831561066357610100600160a81b031990911660089190911b610100600160a81b03161760009081557f8be0079c531659141344cd1fd0a4f28419497f9722a3daafe3b4186f6b6457e09080a3005b60405163d92e233d60e01b8152600490fd5b6040516330cd747160e01b8152600490fd5b346103e75760003660031901126103e7576003546040516001600160a01b039091168152602090f35b346103e75760203660031901126103e7576004356000526008602052610120604060002060018060a01b039081815416916001820154169060028101546107386003830154600484015460ff600586015416916006860154946008600788015497015497604051998a5260208a015260408901526060880152608087015260a0860190613a6f565b60c084015260e0830152610100820152f35b346103e75760203660031901126103e757600435808004600114811517156107965760646020910467016345785d8a00009081811060001461078f5750604051908152f35b905061047a565b634e487b7160e01b600052601160045260246000fd5b613977565b346103e75760203660031901126103e7576004356000526011602052602060ff604060002054166040519015158152f35b346103e75760203660031901126103e7576107fb6136ab565b6000546001600160a01b039060081c811633036106755780600354921691826001600160601b0360a01b821617600355167f067161fc52c7374705c26809a8db59401d000c62655f050f5aa474443c2a8b64600080a3005b346103e75760203660031901126103e75760043560005260096020526101a0604060002080549060018060a01b03600182015416906002810154600382015460048301546005840154600685015460ff60078701541691600887015493600988015495600a89015497600c600b8b01549a01549a6040519c8d5260208d015260408c015260608b015260808a015260a089015260c0880152151560e0870152610100860152610120850152610140840152610160830152610180820152f35b346103e75760003660031901126103e757602060ff600f54166040519015158152f35b346103e75760003660031901126103e7576020600554604051908152f35b346103e75760003660031901126103e7576020604051662386f26fc100008152f35b346103e75760003660031901126103e7576002546040516001600160a01b039091168152602090f35b346103e75760203660031901126103e7576109b76136ab565b600154906001600160a01b038083169133839003610a0d5716918215610663576001600160a01b03191682176001557f505d9b5b645971d6c3d60fc8a43abab349ef9933bc68691d6feb9f1d6b27226a600080a3005b604051636fd557a760e01b8152600490fd5b346103e75760003660031901126103e7576020600e54604051908152f35b346103e75760203660031901126103e757610a566145de565b5060043560005260086020526040600020604051610a738161379d565b60018060a01b03808354168252806001840154169060208301918252600284015493604084019485526003810154946060850195865260048201546080860190815260ff6005840154169060a08701906006831015610b3f5761012098610b2c93835260068601549460c08a01958652600860078801549760e08c01988952015497610100998a8c01998a52816040519c51168c52511660208b01525160408a01525160608901525160808801525160a0870190613a6f565b5160c08501525160e08401525190820152f35b634e487b7160e01b600052602160045260246000fd5b60203660031901126103e757600435610b6c613a89565b610b74613e4e565b600081815260086020526040902080549091906001600160a01b031615610e9e5760ff6005830154166006811015610b3f57600103610e8c5780600052601060205260ff60056040600020015416610bcb8161396d565b610e7a57610bd881613ea3565b509015610e6857610bec6002840154613f5b565b90813410610e565762093a8042014211610796577f61faddcb7ec3d83d50566b1f6a85335d9fd310fe8eacdebf43d5f404fe6ea87b60408492836000526009602052816000209660058060078a0160ff19906001828254161790553460088c015562093a80420160068c015562093a804201600c8c01558551610c6e81613781565b8881528860208201338152610d07858a85019434865260608101428152608082019062093a804201825260a08301976003895260c08401966001885260e085019860018a5260005260106020528f60002094518555600185019060018060a01b039051166001600160601b0360a01b825416179055516002840155516003830155516004820155019351610d018161396d565b84613e7e565b5115159061ff0062ff000084549251151560101b169260081b169062ffff00191617179055876000526011602052856000206001828254161790558184015416179101558151908152426020820152a260405160018152426020820152827f0526967cdd985e39a385e6b9b9ae0ebad6b64ffd03973822e7c95552b5d366b860403393a3604051903482526020820152817f90c4270e44a5fb2aae404a2820bc3f1b21dadf5d53302a1cb663f1c780c45a7f60403393a3807f7c560948f2e64f84ec7abf478d07b3e697cd2325071507eac90b744bc68bd9dc6020604051428152a260018201546002909201546040805191825234602083015262093a804201908201526001600160a01b03909216917f7b51d56a0637ca3c56fb857a383c96aa032b059b468f836204af1fefdc9c592b9080606081015b0390a360016000805160206155fb83398151915255005b604051630a02a21f60e21b8152600490fd5b60405163107afc0760e31b8152600490fd5b60405163339e720360e11b8152600490fd5b604051632c04416160e01b8152600490fd5b604051636086ee6f60e11b8152600490fd5b346103e75760203660031901126103e757602061047a600435613f5b565b346103e75760003660031901126103e757602060405161a8c08152f35b346103e75760203660031901126103e757600435600052600c602052610120604060002080549060018060a01b039081600182015416916002820154600383015460ff60048501541690600585015492600686015494600860078801549701541696604051988952602089015260408801526060870152610f6b8161396d565b608086015260a085015260c084015260e0830152610100820152f35b610f9036613a40565b9190610f9a613a89565b610fa2613e4e565b816000526020600981526040600020918254156111ca576006830190815442116111b957846000526008835260056040600020019560ff8754166006811015610b3f57600181141590816111ad575b50610e8c57600285015480800460011481151715610796576064900467016345785d8a00008082106111a5575b503410610e56576202a3004201948542116107965761104b61104660ff946007943691613dbb565b6146c7565b97600060405161105a8161379d565b898152878101338152600860408301928d84528c8c8c6110f460608501428152608086019060018252600c60a088019434865260c0890196875260e08901978d89526101008a019d8e5260005252604060002096518755600187019960018060a01b03809a51169a6001600160601b0360a01b9b8c825416179055516002880155516003870155516110eb8161396d565b60048601613e7e565b516005840155516006830155518882015501925116908254161790556003841982541617905501541661116d575b50604051938452349084015260408301527f174c8029e018a39b8d3f97c38998c889d28eb5d5d7fcafa7acb8b44fb00a553460603393a360016000805160206155fb83398151915255005b80549062093a8082018092116107965781905583600052601082526004604060002001805461119d575b50611122565b558480611197565b90508861101e565b60059150141588610ff1565b6040516297f2d960e21b8152600490fd5b6040516342afe4a360e11b8152600490fd5b346103e75760203660031901126103e7576004356111f8613e4e565b80600052600c602052604060002060048101805490600160ff831661121c8161396d565b036113d85760068301544211156113c6578360005260086020526040600020916009602052604060002091600260ff19809316179055600460058401918254161790556009810154611273600284015480926145a1565b91603c830293831594848104603c148617156107965760649004946014850290858204601414171561079657600080809360648294049960018060a01b036112c68b600583600186015416940154613a7c565b925416966112d68c600d54613a7c565b80600d556112e68d600e54613a7c565b600e556112f58a600454613e96565b60045560ff600783015416806113b9575b61139d575b50505af1611317613f18565b501561138b57600080809381935af161132e613f18565b501561138b577f083938125729106a6de1b3d3bf2e4fe5e2557124434fc8be005d0fb19775e94b9260a0926040519260018452602084015260408301528060608301526080820152a260016000805160206155fb83398151915255005b6040516312171d8360e31b8152600490fd5b6113ae600886930191825490613a7c565b600d55558c8061130b565b5060088201541515611306565b60405163122f79ef60e01b8152600490fd5b604051632d921dad60e01b8152600490fd5b346103e75760003660031901126103e7576020600d54604051908152f35b346103e75760a03660031901126103e757602061047a611426613695565b6084359060643590602435600435615568565b346103e75760203660031901126103e7576000546004359060081c6001600160a01b03163303610675578060075543907f75d7255decb0c118b501effc9e0ce985be16edbf624dcf1394d1fce06821edf1600080a3005b346103e75760003660031901126103e7576020600754604051908152f35b346103e75760203660031901126103e7576004356000526010602052610100604060002060ff81549160018060a01b03600182015416600282015491600381015460056004830154920154938585169360405197885260208801526040870152606086015260808501526115218161396d565b60a0840152818160081c16151560c084015260101c16151560e0820152f35b346103e75760003660031901126103e75760206040516202a3008152f35b61156736613704565b611572929192613a89565b620151804201908142116107965760209361047a93613aa7565b346103e75760003660031901126103e757602060405160028152f35b346103e7576115b6366139c3565b916115c5989496959798613a89565b6115cd613e4e565b84600052600860205260406000209760018060a01b03808a541615610e9e5760058a019a60ff8c54166006811015610b3f57610e8c57169687156106635761161791899188614000565b1561174d57600281106117295782810361173b57611636938786614066565b92600284106117295760026006549561164e87613df2565b60065501549462015180420195864211610796576001967f99ebca1dea55477732f10272996bfd0c9543ff926bfcea6d9fe2c7f461d910ee936080938660005260096020526040600020918783558a8301896001600160601b0360a01b825416179055846002840155600383015560006004830155426005830155826006830155600782019860ff19998a8154169055600060088401556009830155600a820155600b4291015560405191825260208201526000604082015260006060820152a382541617905560016000805160206155fb83398151915255005b604051633724e34360e11b8152600490fd5b60405163274cf40160e01b8152600490fd5b6040516309bde33960e01b8152600490fd5b346103e75760003660031901126103e7576060604051603c81526014602082015260146040820152f35b346103e75760003660031901126103e75760005460405160089190911c6001600160a01b03168152602090f35b346103e7576117c436613a40565b91906117ce613a89565b33600052600a60205260ff60056040600020015416156118905781600052600c602052604060002060048101805494600160ff871661180c8161396d565b036113d8576006830154421161187e5761182f6110466008956004933691613dbb565b9560ff191617905583600782015501336001600160601b0360a01b8254161790556040519182527fac667660abf65035c151f9f8484becc5f3273e3a3daea0434093ac4ce700fd3a60203393a3005b60405163606cfb1960e11b8152600490fd5b604051638b5161a760e01b8152600490fd5b346103e75760203660031901126103e7576001600160a01b036118c36136ab565b1660005260136020526020604060002054604051908152f35b346103e75760003660031901126103e75760206040516706f05b59d3b200008152f35b346103e75760003660031901126103e7576020600654604051908152f35b346103e75760003660031901126103e75760ff600f541680611947575b6020906040519015158152f35b506002546001600160a01b0316151561193a565b346103e75760003660031901126103e757602060405162093a808152f35b346103e75760003660031901126103e7576001546001600160a01b03163303610a0d576119a4613a89565b600160ff1960005416176000557f62e78cea01bee320cd4e420270b5ea74000d11b0c9f74754ebdbfc544b05a2586020604051338152a1005b346103e75760003660031901126103e757602060405160018152f35b613937565b346103e75760403660031901126103e75760243580151581036103e7576001546001600160a01b03163303610a0d57611a35613e4e565b600435600052600c602052604060002060048101549060ff8216611a588161396d565b60018114159081611d87575b506113d85760043560005260086020526040600020600960205260406000209260009060009060009087600014611c6b5750505050611aac60098401546002830154906145a1565b603c810291811592828104603c1484171561079657606490049282601481020460141417156107965760646014830204936009859660ff60078201541680611c5e575b611c2d575b60ff1960028160048601541617600485015560046005860191825416179055015491611b25600282015480946145a1565b90603c82028215838204603c1481171561079657601484029384046014141715610796576000809392819392611b9b611b786064859604986005606460018060a01b036001840154169504910154613a7c565b9260018060a01b0390541697611b9081600d54613a7c565b600d55600e54613a7c565b600e55611baa88600454613e96565b6004555af1611bb7613f18565b501561138b57600080809381935af1611bce613f18565b501561138b575b604051941515855260208501526040840152606083015260808201527f083938125729106a6de1b3d3bf2e4fe5e2557124434fc8be005d0fb19775e94b60a060043592a260016000805160206155fb83398151915255005b600060088201611c408154600d54613a7c565b600d5555600435600052601060205260006002604082200155611af4565b5060088101541515611aef565b909194929550600360ff1980921617600484015560106020526005938460ff816040600020015416611c9c8161396d565b15611d7757809101918254161790555b6008820180546001600160a01b031615611d605783830154603c8102908015818304603c148117156107965760148202918204601414171561079657600080809360648083950491611d0e60018060a01b0389541693611b9081600d54613a7c565b600e5504905af1611d1d613f18565b501561138b575b546001600160a01b031615611d55575001546014810290808204601414901517156107965760649004908192611bd5565b939291015491611bd5565b611d6f84840154600d54613a7c565b600d55611d24565b6001910191825416179055611cac565b60049150611d948161396d565b141584611a64565b346103e757611daa366139c3565b611dbc98949193959298979697613a89565b611dc4613e4e565b84600052600860205260406000209360018060a01b03998a86541615610e9e57600586019a60ff8c54166006811015610b3f57610e8c5789169788156106635760065495611e1187613df2565b600655611e2b87600260068b01549a0154809d8c8c615568565b9b868d03611f3857611e3f9187918b614000565b1561174d57600282106117295783820361173b57611e5d9488614066565b94600286106117295762015180420196874211610796576001977f99ebca1dea55477732f10272996bfd0c9543ff926bfcea6d9fe2c7f461d910ee946080948760005260096020526040600020918883558b83018a6001600160601b0360a01b8254161790558560028401556003830155836004830155426005830155826006830155600782019960ff199a8b8154169055600060088401556009830155600a820155600b429101556040519283526020830152600060408301526060820152a382541617905560016000805160206155fb83398151915255005b604051630b6fac0360e41b8152600490fd5b346103e75760203660031901126103e7576000610180604051611f6c816137b9565b8281528260208201528260408201528260608201528260808201528260a08201528260c08201528260e082015282610100820152826101208201528261014082015282610160820152015260043560005260096020526101a06040600020610180604051611fd9816137b9565b600c83549384835260018060a01b036001820154166020840152600281015460408401526003810154606084015260048101546080840152600581015460a0840152600681015460c084015260ff600782015416151560e084015260088101546101008401526009810154610120840152600a810154610140840152600b81015461016084015201548282015260405192835260018060a01b03602082015116602084015260408101516040840152606081015160608401526080810151608084015260a081015160a084015260c081015160c084015260e0810151151560e08401526101008101516101008401526101208101516101208401526101408101516101408401526101608101516101608401520151610180820152f35b346103e75760203660031901126103e757600060e060405161211781613781565b8281528260208201528260408201528260608201528260808201528260a08201528260c08201520152600435600052601060205261010060406000206040519061216082613781565b8054825260018101546001600160a01b039081166020840190815260028301546040850190815260038401546060860190815260048501546080870190815260059095015494929360a0870193929060ff87166121bc8161396d565b855260c088019560ff8860081c161515875260ff60e08a019860101c16151588526040519851895251166020880152516040870152516060860152516080850152516122078161396d565b60a084015251151560c083015251151560e0820152f35b346103e75760203660031901126103e75733600052600a60205260ff600560406000200154161561189057600435600052600960205260406000208054156111ca57600b0180541561226c57005b429055005b346103e7576020806003193601126103e75761228b6136ab565b6001600160a01b03166000805b82600052601284526040600020805482101561236c57816122b891613955565b90549060031b1c80600052600880865260ff90600591808360406000200154169160069283811015610b3f5715948515612348575b8515612321575b505050505061230c575b61230790613df2565b612298565b9061231961230791613df2565b9190506122fe565b909192939450600052875282604060002001541690811015610b3f571485808080806122f4565b8095506000528089528184604060002001541683811015610b3f57600114946122ed565b505061239061237a8261469f565b91612388604051938461380c565b80835261469f565b8184019390601f190136853760009360005b84600052601283526040600020805482101561249d57816123c291613955565b90549060031b1c8060005260089081855260ff91600592808460406000200154169060069182811015610b3f5715928315612479575b8315612456575b505050612417575b505061241290613df2565b6123a2565b6124248893929893613df2565b978651841015612440576124129386911b870101529087612407565b634e487b7160e01b600052603260045260246000fd5b600085815290895260409020850154169150811015610b3f5782148980806123ff565b9250836000528288528085604060002001541682811015610b3f57600114926123f8565b50508290604051928392818401908285525180915260408401929160005b8281106124ca57505050500390f35b8351855286955093810193928101926001016124bb565b346103e75760203660031901126103e7576124fa6136ab565b6000546001600160a01b039060081c811633036106755780600254921691826001600160601b0360a01b821617600255167fc47dd5f2a9987aa6668419ac023b57a57a67cf45ca0c61e037e00729cc4c42b1600080a3005b346103e75760003660031901126103e757602060ff600054166040519015158152f35b346103e75760003660031901126103e7576020600454604051908152f35b60403660031901126103e7576125a76136c1565b6125af613a89565b6125b7613e4e565b600435600090815260086020526040902080546001600160a01b03168015610e9e5760ff6005830154166006811015610b3f57610e8c576001600160a01b0383161561066357330361067557600435600052601060205260ff600560406000200154166126238161396d565b610e7a576126346002820154613f5b565b90813410610e56576006549161264983613df2565b60065562093a80420142116107965760029283830154906006840154600435600052600960205260406000209260043584556001840160018060a01b0389166001600160601b0360a01b8254161790558684015560038301556000600483015542600583015562093a8042016006830155600160ff1960078401541617600783015534600883015560006009830155600a82015542600b820155600c62093a8042019101556040516126fa81613781565b60043581526020810133815260408201348152612791600560608501944286526080810162093a804201815260a08201968a885260c08301956001875260e0840197600089526004356000526010602052604060002094518555600185019060018060a01b039051166001600160601b0360a01b825416179055518b840155516003830155516004820155019351610d018161396d565b5115159061ff0062ff000084549251151560101b169260081b169062ffff0019161717905560043560005260116020526040600020600160ff19825416179055600560ff1981840154161760058301556040516000815242602082015233907f0526967cdd985e39a385e6b9b9ae0ebad6b64ffd03973822e7c95552b5d366b8604060043592a360405190348252602082015233907f90c4270e44a5fb2aae404a2820bc3f1b21dadf5d53302a1cb663f1c780c45a7f604060043592a36040514281527f7c560948f2e64f84ec7abf478d07b3e697cd2325071507eac90b744bc68bd9dc602060043592a20154604080519182523460208301524262093a8001908201526001600160a01b0390911690600435907f7b51d56a0637ca3c56fb857a383c96aa032b059b468f836204af1fefdc9c592b908060608101610e3f565b346103e75760003660031901126103e757602061047a614623565b6128f536613704565b60005491926001600160a01b039290919060081c83163303610675578282161561066357828216600052600a60205260ff60056040600020015416612bb657670de0b6b3a76400003410612ba45760208103612b9257612959611046368387613dbb565b9361297e6040519161296a83613781565b858516835260208301938785523691613dbb565b60408201908152346060830152426080830152600160a0830152600060c0830152600060e0830152848416600052600a602052604060002092858351166001600160601b0360a01b855416178455516001840155518051906001600160401b038211612b7c576129f16002850154613747565b601f8111612b35575b50602090601f8311600114612aac57604095938360008051602061561b83398151915298969460079460e094600092612aa1575b50508160011b916000199060031b1c19161760028501555b6060810151600385015560808101516004850155612a7960a08201511515600586019060ff801983541691151516179055565b60c081015160068501550151910155612a9181613f8c565b82519485523460208601521692a2005b015190508b80612a2e565b906002850160005260206000209160005b601f1985168110612b1d57509360018460079460e09460409a9860008051602061561b8339815191529c9a98601f19811610612b04575b505050811b016002850155612a46565b015160001960f88460031b161c191690558b8080612af4565b91926020600181928685015181550194019201612abd565b600285016000526020600020601f840160051c810160208510612b75575b601f830160051c82018110612b695750506129fa565b60008155600101612b53565b5080612b53565b634e487b7160e01b600052604160045260246000fd5b6040516318dca5e960e21b8152600490fd5b6040516378de4a6960e11b8152600490fd5b604051635edab1f160e01b8152600490fd5b346103e75760203660031901126103e757612be16145de565b50600435600052600c602052610120604060002060405190612c028261379d565b8054825260018101546001600160a01b0390811660208401908152600283015460408501908152600384015460608601908152600485015492949192608087019060ff16612c4f8161396d565b815260058301549060a0880191825260068401549260c0890193845286600860078701549660e08c019788520154169587610100998a8c019889526040519b518c52511660208b01525160408a015251606089015251612cae8161396d565b60808801525160a08701525160c08601525160e0850152511690820152f35b346103e75760203660031901126103e757600435600b548110156103e757600b6000527f0175b7a638427703f0dbe7bb9bbf987a2551717b34e79f33b5b1008d1fa01db901546040516001600160a01b039091168152602090f35b60603660031901126103e757612d3c6136ab565b6024356001600160401b0381116103e757602091612d6161047a9236906004016136d7565b9060443592613aa7565b346103e75760003660031901126103e7576001546001600160a01b03163303610a0d5760005460ff811615612dcd5760ff19166000557f5db9ee0a495bf2e6ff9c91a7834c1ba4fdd244a5e8aa4e537bd38aeae4b073aa6020604051338152a1005b604051638dfc202b60e01b8152600490fd5b61391b565b346103e75760003660031901126103e75760206040516203f4808152f35b346103e75760203660031901126103e7576004358015158091036103e75760005460081c6001600160a01b031633036106755760ff8019600f5416911617600f55600080f35b346103e75760003660031901126103e7576001546040516001600160a01b039091168152602090f35b346103e75760203660031901126103e7576001600160a01b0380612e936136ab565b16600052600a602052604060002090815416600182015491612eb76002820161382d565b600382015491600481015460ff60058301541690612ef76007600685015494015494604051988998895260208901526101008060408a01528801906138f6565b9460608701526080860152151560a085015260c084015260e08301520390f35b346103e7576020806003193601126103e757600435612f34613e4e565b80600052600982526040600020918254156111ca57600683015442106111b95781600052600881526040600020906005820180549260ff84166006811015610b3f576003811461315e57600214610e8c57600786019160ff83541615613139575b600260ff198096161790556002860195612fb28754600454613e96565b6004556001808060a01b03918284541660005260138652604060002080548a5480821015613126575b50505060088101549688600052601087526005604060002001805460ff81166130038161396d565b60038114908115613112575b506130ef575b50505001916000808080858754168c54905af1613030613f18565b501561138b578590816130ce575b505060ff91541695549186867f41f97fc03cf7f2c1829da0c368b4c948bb17a3c760dd35510feed443faaa704086604051878152a3541661308e575b60016000805160206155fb83398151915255005b7f64278aae6fae503a884e44cf5d9094c515693b6dd2853e44b4555809f7c8dba49260609260405192835282015260006040820152a3808080808061307a565b600080809385829454165af16130e2613f18565b501561138b57848861303e565b826004911617905588600052601187526040600020908154169055898080613015565b6002915061311f8161396d565b148d61300f565b61312f91613e96565b9055898080612fdb565b85600052600c8452600160ff600460406000200154166131588161396d565b03612f95575b6040516364b81b1960e11b8152600490fd5b346103e75760003660031901126103e7576020604051603c8152f35b346103e75760203660031901126103e75760606131aa600435613ea3565b90604051921515835260208301526040820152f35b60803660031901126103e7576004356024356131d9613695565b916064356131e5613a89565b6131ed613e4e565b662386f26fc1000034106133ee576815af1d78b58c40000061321134600454613a7c565b116133dc576001600160a01b0393841693841561066357428211156133ca578215610e9e578315611f385782600052600860205280604060002054166133b85760055461325d81613df2565b6005556040519261326d8461379d565b338452602084018781526040850134815260608601888152608087019142835260a08801936000855260c08901978b895260e08a019687526101008a019788528a60005260086020528060406000209a5116906001600160601b0360a01b91828c5416178b5560018b019251169082541617905551600288015551600387015551600486015551926006841015610b3f5761330d60089460058701613e01565b5160068501555160078401555191015561332934600454613a7c565b600455336000526012602052613343816040600020613e19565b336000526013602052604060002061335c348254613a7c565b90557f7ea6a10ee887144d0680d547987ce45166d4fb495877d46fdd000ff01767b99c604051806133a133958034846040919493926060820195825260208201520152565b0390a460016000805160206155fb83398151915255005b604051633314c27160e11b8152600490fd5b6040516307b7d7dd60e51b8152600490fd5b6040516337c021db60e01b8152600490fd5b604051632ca2f52b60e11b8152600490fd5b346103e75761340e36613704565b60005491926001600160a01b039290919060081c83163303610675578282161561066357828216600052600a60205260ff60056040600020015416612bb65760208103612b9257613463611046368387613dbb565b936134746040519161296a83613781565b6040820190815260006060830152426080830152600160a0830152600060c0830152600060e0830152848416600052600a602052604060002092858351166001600160601b0360a01b855416178455516001840155518051906001600160401b038211612b7c576134e86002850154613747565b601f811161362d575b50602090601f83116001146135a457604095938360008051602061561b83398151915298969460079460e094600092613599575b50508160011b916000199060031b1c19161760028501555b606081015160038501556080810151600485015561357060a08201511515600586019060ff801983541691151516179055565b60c08101516006850155015191015561358881613f8c565b8251948552600060208601521692a2005b015190508b80613525565b906002850160005260206000209160005b601f198516811061361557509360018460079460e09460409a9860008051602061561b8339815191529c9a98601f198116106135fc575b505050811b01600285015561353d565b015160001960f88460031b161c191690558b80806135ec565b919260206001819286850151815501940192016135b5565b600285016000526020600020601f840160051c81016020851061366d575b601f830160051c820181106136615750506134f1565b6000815560010161364b565b508061364b565b346103e75760003660031901126103e7578067016345785d8a000060209252f35b604435906001600160a01b03821682036103e757565b600435906001600160a01b03821682036103e757565b602435906001600160a01b03821682036103e757565b9181601f840112156103e7578235916001600160401b0383116103e757602083818601950101116103e757565b9060406003198301126103e7576004356001600160a01b03811681036103e75791602435906001600160401b0382116103e757613743916004016136d7565b9091565b90600182811c92168015613777575b602083101461376157565b634e487b7160e01b600052602260045260246000fd5b91607f1691613756565b61010081019081106001600160401b03821117612b7c57604052565b61012081019081106001600160401b03821117612b7c57604052565b6101a081019081106001600160401b03821117612b7c57604052565b61032081019081106001600160401b03821117612b7c57604052565b60a081019081106001600160401b03821117612b7c57604052565b90601f801991011681019081106001600160401b03821117612b7c57604052565b906040519182600082549261384184613747565b9081845260019485811690816000146138b0575060011461386d575b505061386b9250038361380c565b565b9093915060005260209081600020936000915b81831061389857505061386b9350820101388061385d565b85548884018501529485019487945091830191613880565b91505061386b94506020925060ff191682840152151560051b820101388061385d565b60005b8381106138e65750506000910152565b81810151838201526020016138d6565b9060209161390f815180928185528580860191016138d3565b601f01601f1916010190565b346103e75760003660031901126103e757602060405160148152f35b346103e75760003660031901126103e7576020604051620151808152f35b80548210156124405760005260206000200190600090565b60051115610b3f57565b346103e75760003660031901126103e757602060405160058152f35b9181601f840112156103e7578235916001600160401b0383116103e7576020808501948460051b0101116103e757565b60c06003198201126103e757600435916024356001600160a01b03811681036103e757916001600160401b03916044358381116103e75782613a0791600401613993565b93909392606435926084358381116103e75782613a2691600401613993565b9390939260a4359182116103e75761374391600401613993565b9060406003198301126103e75760043591602435906001600160401b0382116103e757613743916004016136d7565b906006821015610b3f5752565b9190820180921161079657565b60ff60005416613a9557565b60405163d93c066560e01b8152600490fd5b90613ab0613a89565b613ab8613e4e565b662386f26fc1000034106133ee576004906815af1d78b58c400000613ade348454613a7c565b11613d90576001600160a01b03838116949091908515613d7f5742871115613d6e57613b0f91611046913691613dbb565b9260055492613b1d84613df2565b600555604092613b6e845146602082015260009485878301523460548301526001600160601b03199060601b1660748201528960888201528660a88201528760c882015260c8815261047581613781565b94845160208101908782523360601b878201524260548201526054815260808101918183106001600160401b03841117613d5b5787839261104692613bf69583527ff1e29fb4c3734d4cd218c5a4a6406eeb89d35790303c9b41268509c140678b5160a0830152613be68251809260c08501906138d3565b810103602081018452018261380c565b98868a875194613c058661379d565b338652602086018c815289870134815260608801918d8352608089019342855260a08a01958c875260c08b0197885260e08b019889526101008b01998a528c526008602052808d8d209a5116906001600160601b0360a01b91828c5416178b5560018b01925116908254161790555160028801555160038701555186860155516006811015613d4857936008889594613d3098948e9b9894613ccc7f7ea6a10ee887144d0680d547987ce45166d4fb495877d46fdd000ff01767b99c9c9860058701613e01565b51600685015551600784015551910155613ce7348254613a7c565b90553381526012602052613cfd87838320613e19565b338152601360205220613d11348254613a7c565b9055513481526020810195909552604085015233939081906060820190565b0390a460016000805160206155fb8339815191525590565b634e487b7160e01b875260218652602487fd5b634e487b7160e01b875260418652602487fd5b6040516307b7d7dd60e51b81528490fd5b60405163d92e233d60e01b81528490fd5b506040516337c021db60e01b8152fd5b6001600160401b038111612b7c57601f01601f191660200190565b929192613dc782613da0565b91613dd5604051938461380c565b8294818452818301116103e7578281602093846000960137010152565b60001981146107965760010190565b906006811015610b3f5760ff80198354169116179055565b8054600160401b811015612b7c57613e3691600182018155613955565b819291549060031b91821b91600019901b1916179055565b6000805160206155fb8339815191526002815414613e6c5760029055565b604051633ee5aeb560e01b8152600490fd5b90613e888161396d565b60ff80198354169116179055565b9190820391821161079657565b90600091825260096020526040822090815415613f1157600b820154918215613f05575b506203f4808201808311613ef157428111613ee3575060019290565b613eee904290613e96565b90565b634e487b7160e01b84526011600452602484fd5b60050154915038613ec7565b8291508190565b3d15613f43573d90613f2982613da0565b91613f37604051938461380c565b82523d6000602084013e565b606090565b8181029291811591840414171561079657565b60058102908082046005149015171561079657606490046706f05b59d3b2000080821115613f87575090565b905090565b600b54600160401b811015612b7c576001810180600b5581101561244057600b6000527f0175b7a638427703f0dbe7bb9bbf987a2551717b34e79f33b5b1008d1fa01db90180546001600160a01b0319166001600160a01b03909216919091179055565b91908110156124405760051b0190565b91906000915b808310614014575050501490565b90919261404a90614026858486613ff0565b35811015614051576140449061403d868587613ff0565b35906154c3565b93613df2565b9190614006565b61404490614060868587613ff0565b356154c3565b9061407491959392956154c3565b9260ff9485600f541680614520575b614278576003546000966001600160a01b0391821680151596909291895b8781106140b5575050505050505050505090565b8981600086868b8e1561424d579091506140da94506140d5939250613ff0565b614534565b604090815190637632421760e11b8252866004911681830152602091602490838183818d5afa908115614242579284926141286140d58f9897948c8b918f99600091614215575b509a613ff0565b918651958693639cbe456f60e01b85521690830152818c5afa92831561420b5750908d9392916000926141d5575b5050905b156141ca57906110466141a292614172858d8c614560565b9091604091825195869260208401528383015280606094858401378101600084820152039081018452018261380c565b6141b5575b6141b090613df2565b6140a1565b996141c26141b091613df2565b9a90506141a7565b50506141b090613df2565b9080939450813d8311614204575b6141ed818361380c565b810103126142015750908b91513880614156565b80fd5b503d6141e3565b513d6000823e3d90fd5b6142359150883d8a1161423b575b61422d818361380c565b810190614548565b38614121565b503d614223565b85513d6000823e3d90fd5b60409461425d926140d592613ff0565b168152600a602052206001846005830154169101549061415a565b6003546002546000979592946001600160a01b03918216939092909116885b8381106142aa5750505050505050505090565b600082156144e557506142c16140d5828589613ff0565b60408051637632421760e11b81526001600160a01b0390921660048084019190915290916024906020818381895afa9081156144da57916143156140d5878a6000958f99989787916144bb575b5098613ff0565b84516310af9b7760e31b81526001600160a01b0390911693810193909352829081885afa9081156144b057600091614431575b509050905b156144275760208082510361441c578061436884888c614560565b8d6143c060409593959687519687948594632dfa471d60e11b865260048601526060602486015280606486015280608492838701376000858201830152601f01601f19168401848103608001604486015201906138f6565b03818b5afa92831561420b57506000926143ff575b50506143ea575b6143e590613df2565b614297565b986143f76143e591613df2565b9990506143dc565b6144159250803d1061423b5761422d818361380c565b38806143d5565b50506143e590613df2565b506143e590613df2565b3d8083833e614440818361380c565b810191602082840312614201578151906001600160401b0382116142015783601f83850101121561420157818301519361448561447c86613da0565b9651968761380c565b84865260208584860101011161420157509060206144a993928186019201016138d3565b8038614348565b82513d6000823e3d90fd5b6144d4915060203d60201161423b5761422d818361380c565b3861430e565b84513d6000823e3d90fd5b6040906001600160a01b036144fe6140d585888c613ff0565b168152600a6020522061451a60028a600584015416920161382d565b9061434d565b506002546001600160a01b03161515614083565b356001600160a01b03811681036103e75790565b908160209103126103e7575180151581036103e75790565b91908110156124405760051b81013590601e19813603018212156103e75701908135916001600160401b0383116103e75760200182360381136103e7579190565b6145ab9080613f48565b90600a820291808304600a1490151715610796576064916145d2918382116145d657613f48565b0490565b839150613f48565b604051906145eb8261379d565b816101006000918281528260208201528260408201528260608201528260808201528260a08201528260c08201528260e08201520152565b6003546001600160a01b03168061463b5750600b5490565b602060049160405192838092631249c8ed60e21b82525afa90811561469357600091614665575090565b906020823d821161468b575b8161467e6020938361380c565b8101031261420157505190565b3d9150614671565b6040513d6000823e3d90fd5b6001600160401b038111612b7c5760051b60200190565b9060198110156124405760051b0190565b600060c0526040516146d8816137d5565b61032036823760c0528051906001820180831161079657608890049160018301831161079657916000905b600181018210614879575050505060c0516001600160401b038151166fffffffffffffffff0000000000000000602083015160401b161760408201519160606001600160401b0360c01b91015160c01b16916001600160401b0360801b9060801b1617177eff00ff00ff00ff00ff00ff00ff00ff00ff00ff00ff00ff00ff00ff00ff00ff7fff00ff00ff00ff00ff00ff00ff00ff00ff00ff00ff00ff00ff00ff00ff00ff008260081b169160081c16177dffff0000ffff0000ffff0000ffff0000ffff0000ffff0000ffff0000ffff7fffff0000ffff0000ffff0000ffff0000ffff0000ffff0000ffff0000ffff00008260101b169160101c16177bffffffff00000000ffffffff00000000ffffffff00000000ffffffff7fffffffff00000000ffffffff00000000ffffffff00000000ffffffff000000008260201b169160201c161777ffffffffffffffff0000000000000000ffffffffffffffff80198260401b169160401c16178060801b9060801c1790565b60888293949592029483860460881484151715610796576000925b601192838510156149df57600090815b60088084101561499f57600388811b89810483148a15171561498a57856148ce6148d3928f613a7c565b613a7c565b8c8882101561493557508b5181101561244057602086918d01015160f81c915b1b9185830414851517156149205760ff16901b6001600160401b0316179161491a90613df2565b916148a4565b87634e487b7160e01b60005260045260246000fd5b90888103614948575050846006916148f3565b608882018092116149755760878e01918211614975570361496c57846080916148f3565b846000916148f3565b89634e487b7160e01b60005260045260246000fd5b88634e487b7160e01b60005260045260246000fd5b509094506149d9929591506001600160401b0390816149c08460c0516146b6565b511618906149d08360c0516146b6565b91169052613df2565b92614894565b95949250955091506103206040516149f6816137d5565b369037604051614a05816137f1565b60a036823760405190614a17826137f1565b60a036833760405161032081018181106001600160401b03821117612b7c576040526000815260016020820152603e6040820152601c6060820152601b6080820152602460a0820152602c60c0820152600660e0820152603761010082015260146101208201526003610140820152600a610160820152602b61018082015260196101a082015260276101c082015260296101e0820152602d610200820152600f61022082015260156102408201526008610260820152601261028082015260026102a0820152603d6102c082015260386102e0820152600e61030082015260405180608052806103008101106001600160401b0361030083011117612b7c578061030060019201604052526180826020608051015267800000000000808a604060805101526780000000800080006060608051015261808b608080510152638000000160a0608051015267800000008000808160c0608051015267800000000000800960e06080510152608a61010060805101526088610120608051015263800080096101406080510152638000000a6101606080510152638000808b610180608051015267800000000000008b6101a060805101526780000000000080896101c060805101526780000000000080036101e060805101526780000000000080026102006080510152678000000000000080610220608051015261800a610240608051015267800000008000000a610260608051015267800000008000808161028060805101526780000000000080806102a0608051015263800000016102c060805101526780000000800080086102e060805101526000915b60188310614c925750505050614c89600191613df2565b91939050614703565b9491966001600160401b0360c099929794995181610280818351168260a08501511618826101408501511618826101e08501511618920151161816865260c0516001600160401b036102a0816020840151168260c0850151161882610160850151161882610200850151161892015116186001600160401b03811660208801526001600160401b0360c051816102c0816040840151168260e0850151161882610180850151161882610220850151161892015116181660408801526001600160401b0360c051816102e081606084015116826101008501511618826101a0850151161882610240850151161892015116181660608801526001600160401b03808060c0518161030081608084015116826101208501511618826101c085015116188261026085015116189201511618168060808b015281600185603f1c1667fffffffffffffffe8660011b16178218168d528c6020838c614e10826040818451169301511667fffffffffffffffe600182603f1c169160011b161790565b18169101528c6040838c614e44826060816020850151169301511667fffffffffffffffe600182603f1c169160011b161790565b18169101528c6060838c614e78826080816040850151169301511667fffffffffffffffe600182603f1c169160011b161790565b18169101528c6080838c614ea9828060608401511692511667fffffffffffffffe600182603f1c169160011b161790565b181691015260c0519367fffffffffffffffe600182603f1c169160011b1617181681835116181690526001600160401b0360208a0151166001600160401b03602060c051019181835116181690526001600160401b0360408a0151166001600160401b03604060c051019181835116181690526001600160401b0360608a0151166001600160401b03606060c051019181835116181690526001600160401b0360808a0151166001600160401b03608060c051019181835116181690526001600160401b038951166001600160401b0360a060c051019181835116181690526001600160401b0360208a0151166001600160401b0360c08051019181835116181690526001600160401b0360408a0151166001600160401b0360e060c051019181835116181690526001600160401b0360608a0151166001600160401b0361010060c051019181835116181690526001600160401b0360808a0151166001600160401b0361012060c051019181835116181690526001600160401b038951166001600160401b0361014060c051019181835116181690526001600160401b0360208a0151166001600160401b0361016060c051019181835116181690526001600160401b0360408a0151166001600160401b0361018060c051019181835116181690526001600160401b0360608a0151166001600160401b036101a060c051019181835116181690526001600160401b0360808a0151166001600160401b036101c060c051019181835116181690526001600160401b038951166001600160401b036101e060c051019181835116181690526001600160401b0360208a0151166001600160401b0361020060c051019181835116181690526001600160401b0360408a0151166001600160401b0361022060c051019181835116181690526001600160401b0360608a0151166001600160401b0361024060c051019181835116181690526001600160401b0360808a0151166001600160401b0361026060c051019181835116181690526001600160401b038951166001600160401b0361028060c051019181835116181690526001600160401b0360208a0151166001600160401b036102a060c051019181835116181690526001600160401b0360408a0151166001600160401b036102c060c051019181835116181690526001600160401b0360608a0151166001600160401b036102e060c051019181835116181690526001600160401b0360808a0151166001600160401b0361030060c0510191818351161816905261525d6040518060a0526137d5565b6103203660a0513760005b60198110615424575060005b6005808210156153e457808281020482036107965761529782820260a0516146b6565b51908281026001810110610796576152b660018483020160a0516146b6565b518184026002810110610796576152d460028584020160a0516146b6565b51918481026003810110610796576152f360038683020160a0516146b6565b5160049190868202808401106153cf57926001600160401b036153bc84898589859987876153ca9f9e81819f9d615333829e918a8493020160a0516146b6565b5196816153448b8b0260c0516146b6565b96161916169116181690528661536160018686020160c0516146b6565b9a16998780838d191616818b1618169052868061538560028787020160c0516146b6565b92169a81848d1916161816905285806153a560038686020160c0516146b6565b921699818d8c19161618169052020160c0516146b6565b951619161618169052613df2565b615274565b601183634e487b7160e01b6000525260246000fd5b50509661541e9098939691989592956001600160401b038160051b6080510151166001600160401b0360c051918183511618169052613df2565b91614c72565b600581066001600160ff1b038116900361079657600360058204810204600582040361079657600561546081830460030282840660011b613a7c565b069061548c6001600160401b036154798360c0516146b6565b5116615485838c6146b6565b51906154f9565b6005838102048303610796576001600160401b036149d06154b66154be9560050260058604613a7c565b60a0516146b6565b615268565b9060405191602083015260408201526040815260608101908082106001600160401b03831117612b7c57613eee916040526146c7565b8115613f87576001600160401b038091168260400360408111610796578183911c16921b161790565b613eee906110466040805180937fc1092c7f825a13e6e2df4be421deaca778b8a52bbf38bd696bd3e7c3a45e08546020830152613be681518092602086860191016138d3565b9391929092604051936020850195865260408501526001600160601b03199060601b166060840152607483015260948201526094815260c08101908082106001600160401b03831117612b7c57604061104691613eee948483527f413f4c7a034bb455a77260c9f071651135e9ce0a039b91c830fb3d2f8e3a19cd60e0830152613be6825180926101008501906138d356fe9b779b17422d0df92223018b32b4d1fa46e071723d6817e2486d003becc55f008cff608f5b95035c0790dc8ba5b2085444145959dbea5bdde6cca284b48c6663a2646970667358221220f5282fff677859e6c27896a87668f61671c3ad68e9d5b2d1f915bf254b20fc6464736f6c63430008140033","linkReferences":{}},"methodIdentifiers":{"CHALLENGE_BOND_PERCENT()":"844ca7d7","CHALLENGE_PERIOD()":"c3a079ed","DEFAULT_LOCK_EXPIRY()":"30362d81","DEFENSE_PERIOD()":"a0f5df3e","EMERGENCY_BOND_PERCENT()":"66fdf627","EMERGENCY_TIME_LOCK()":"86fdd39f","MIN_CHALLENGE_BOND()":"04a829f2","MIN_EMERGENCY_BOND()":"8be9963a","MIN_LOCK_AMOUNT()":"dd764abf","NORMAL_TIME_LOCK()":"7e0ee4f1","PROVER_TIMEOUT()":"3659e380","REQUIRED_SIGNATURES()":"9ac18b19","SLASH_BURN_PERCENT()":"368fdfa7","SLASH_CHALLENGER_PERCENT()":"171a077e","SLASH_INSURANCE_PERCENT()":"2b8c0953","TOTAL_PROVERS()":"eac61708","TVL_CAP()":"f3ce02c7","activeProvers(uint256)":"4455dbe9","autoResolveChallenge(bytes32)":"b9f3313d","calculateChallengeBond(uint256)":"ec5db8b0","calculateEmergencyBond(uint256)":"cad723ce","challenge(bytes32,bytes)":"bab26713","challenges(bytes32)":"c1e69b66","checkProverTimeout(bytes32)":"0e462a6c","computeStateRoot(uint256,address,uint256,address,uint256,uint256,bytes32)":"fcef2d9a","computeUnlockStateRoot(bytes32,bytes32,address,uint256,uint256)":"b56c2de8","currentStateRoot()":"ac2eba98","emergencyUnlocks(bytes32)":"a0fbc263","enhancedMonitoring(bytes32)":"e7a423f7","executeUnlock(bytes32)":"1b4493aa","getActiveProverCount()":"492723b4","getChallenge(bytes32)":"458d2bf1","getEmergencyUnlock(bytes32)":"71e513bb","getLock(bytes32)":"d6f27b58","getProver(address)":"faab193c","getSPHINCSVerifier()":"dd365c28","getSlashingDistribution()":"8f01465b","getUnlockRequest(bytes32)":"7250921c","getUserLockIds(address)":"689ea018","initiateEmergencyFromTimeout(bytes32)":"d5e8b700","insuranceFund()":"b7902303","isEnhancedMonitoring(bytes32)":"a3bb88ee","isFullVerificationEnabled()":"884476f9","isQuantumResistant()":"6f173079","lock(address,bytes)":"9ca17998","lockWithExpiry(address,bytes,uint256)":"4157e049","lockWithSR0(bytes32,bytes32,address,uint256)":"0c35d4fb","lockedBalanceOf(address)":"59355736","locks(bytes32)":"ed5e8437","nonceCounter()":"de780bbd","owner()":"8da5cb5b","pause()":"8456cb59","paused()":"5c975abb","proverRegistry()":"eda31504","provers(address)":"1dec844b","recordProverRequest(bytes32)":"68faeaee","registerProver(address,bytes)":"488dbf8e","registerProverTestnet(address,bytes)":"08e001cd","requestEmergencyUnlock(bytes32,address)":"49fe43f9","requestUnlock(bytes32,address,bytes32[],bytes32,bytes[],address[])":"77b053c2","requestUnlockLegacy(bytes32,address,bytes32[],bytes32,bytes[],address[])":"94c01ce3","resolveChallenge(bytes32,bool)":"7d89122d","securityCouncil()":"27eb6c0f","setFullVerification(bool)":"2a308c2d","setProverRegistry(address)":"e75c8a3f","setSPHINCSVerifier(address)":"64e99ab5","sphincsVerifier()":"12668c22","submitDefense(bytes32,bytes)":"8d9c20b5","totalBurned()":"d89135cd","totalLocked()":"56891412","transferOwnership(address)":"f2fde38b","unlockNonceCounter()":"8adfe175","unlockRequests(bytes32)":"e7017f78","unpause()":"3f4ba83a","updateSecurityCouncil(address)":"dbfe3e96","updateStateRoot(bytes32)":"acaf80a1","useFullVerification()":"e0d49b6f","userLockIds(address,uint256)":"ff669879","userLockedBalance(address)":"8cf2b63e"},"id":22}