{"abi":[{"type":"constructor","inputs":[{"name":"veQS_","type":"address","internalType":"address"},{"name":"admin_","type":"address","internalType":"address"}],"stateMutability":"nonpayable"},{"type":"function","name":"PROPOSAL_THRESHOLD","inputs":[],"outputs":[{"name":"","type":"uint256","internalType":"uint256"}],"stateMutability":"view"},{"type":"function","name":"TIMELOCK_DELAY","inputs":[],"outputs":[{"name":"","type":"uint256","internalType":"uint256"}],"stateMutability":"view"},{"type":"function","name":"VOTING_DELAY","inputs":[],"outputs":[{"name":"","type":"uint256","internalType":"uint256"}],"stateMutability":"view"},{"type":"function","name":"VOTING_PERIOD","inputs":[],"outputs":[{"name":"","type":"uint256","internalType":"uint256"}],"stateMutability":"view"},{"type":"function","name":"cancel","inputs":[{"name":"proposalId","type":"uint256","internalType":"uint256"}],"outputs":[],"stateMutability":"nonpayable"},{"type":"function","name":"castVote","inputs":[{"name":"proposalId","type":"uint256","internalType":"uint256"},{"name":"voteType","type":"uint8","internalType":"enum IGovernor.VoteType"}],"outputs":[],"stateMutability":"nonpayable"},{"type":"function","name":"castVoteWithReason","inputs":[{"name":"proposalId","type":"uint256","internalType":"uint256"},{"name":"voteType","type":"uint8","internalType":"enum IGovernor.VoteType"},{"name":"reason","type":"string","internalType":"string"}],"outputs":[],"stateMutability":"nonpayable"},{"type":"function","name":"execute","inputs":[{"name":"proposalId","type":"uint256","internalType":"uint256"}],"outputs":[],"stateMutability":"nonpayable"},{"type":"function","name":"getProposal","inputs":[{"name":"proposalId","type":"uint256","internalType":"uint256"}],"outputs":[{"name":"","type":"tuple","internalType":"struct IGovernor.Proposal","components":[{"name":"id","type":"uint256","internalType":"uint256"},{"name":"proposer","type":"address","internalType":"address"},{"name":"category","type":"uint8","internalType":"enum IGovernor.ProposalCategory"},{"name":"startTime","type":"uint256","internalType":"uint256"},{"name":"endTime","type":"uint256","internalType":"uint256"},{"name":"forVotes","type":"uint256","internalType":"uint256"},{"name":"againstVotes","type":"uint256","internalType":"uint256"},{"name":"abstainVotes","type":"uint256","internalType":"uint256"},{"name":"canceled","type":"bool","internalType":"bool"},{"name":"executed","type":"bool","internalType":"bool"},{"name":"descriptionHash","type":"bytes32","internalType":"bytes32"}]}],"stateMutability":"view"},{"type":"function","name":"getProposalActions","inputs":[{"name":"proposalId","type":"uint256","internalType":"uint256"}],"outputs":[{"name":"","type":"tuple","internalType":"struct IGovernor.ProposalActions","components":[{"name":"targets","type":"address[]","internalType":"address[]"},{"name":"values","type":"uint256[]","internalType":"uint256[]"},{"name":"calldatas","type":"bytes[]","internalType":"bytes[]"}]}],"stateMutability":"view"},{"type":"function","name":"getReceipt","inputs":[{"name":"proposalId","type":"uint256","internalType":"uint256"},{"name":"voter","type":"address","internalType":"address"}],"outputs":[{"name":"","type":"tuple","internalType":"struct IGovernor.Receipt","components":[{"name":"hasVoted","type":"bool","internalType":"bool"},{"name":"voteType","type":"uint8","internalType":"enum IGovernor.VoteType"},{"name":"votes","type":"uint256","internalType":"uint256"}]}],"stateMutability":"view"},{"type":"function","name":"hasReachedQuorum","inputs":[{"name":"proposalId","type":"uint256","internalType":"uint256"}],"outputs":[{"name":"","type":"bool","internalType":"bool"}],"stateMutability":"view"},{"type":"function","name":"proposalCount","inputs":[],"outputs":[{"name":"","type":"uint256","internalType":"uint256"}],"stateMutability":"view"},{"type":"function","name":"proposalEta","inputs":[{"name":"proposalId","type":"uint256","internalType":"uint256"}],"outputs":[{"name":"","type":"uint256","internalType":"uint256"}],"stateMutability":"view"},{"type":"function","name":"propose","inputs":[{"name":"targets","type":"address[]","internalType":"address[]"},{"name":"values","type":"uint256[]","internalType":"uint256[]"},{"name":"calldatas","type":"bytes[]","internalType":"bytes[]"},{"name":"description","type":"string","internalType":"string"},{"name":"category","type":"uint8","internalType":"enum IGovernor.ProposalCategory"}],"outputs":[{"name":"proposalId","type":"uint256","internalType":"uint256"}],"stateMutability":"nonpayable"},{"type":"function","name":"queue","inputs":[{"name":"proposalId","type":"uint256","internalType":"uint256"}],"outputs":[],"stateMutability":"nonpayable"},{"type":"function","name":"quorum","inputs":[{"name":"category","type":"uint8","internalType":"enum IGovernor.ProposalCategory"}],"outputs":[{"name":"","type":"uint256","internalType":"uint256"}],"stateMutability":"view"},{"type":"function","name":"state","inputs":[{"name":"proposalId","type":"uint256","internalType":"uint256"}],"outputs":[{"name":"","type":"uint8","internalType":"enum IGovernor.ProposalState"}],"stateMutability":"view"},{"type":"function","name":"veQS","inputs":[],"outputs":[{"name":"","type":"address","internalType":"address"}],"stateMutability":"view"},{"type":"event","name":"ProposalCanceled","inputs":[{"name":"proposalId","type":"uint256","indexed":true,"internalType":"uint256"}],"anonymous":false},{"type":"event","name":"ProposalCreated","inputs":[{"name":"proposalId","type":"uint256","indexed":true,"internalType":"uint256"},{"name":"proposer","type":"address","indexed":true,"internalType":"address"},{"name":"category","type":"uint8","indexed":false,"internalType":"enum IGovernor.ProposalCategory"},{"name":"targets","type":"address[]","indexed":false,"internalType":"address[]"},{"name":"values","type":"uint256[]","indexed":false,"internalType":"uint256[]"},{"name":"calldatas","type":"bytes[]","indexed":false,"internalType":"bytes[]"},{"name":"startTime","type":"uint256","indexed":false,"internalType":"uint256"},{"name":"endTime","type":"uint256","indexed":false,"internalType":"uint256"},{"name":"description","type":"string","indexed":false,"internalType":"string"}],"anonymous":false},{"type":"event","name":"ProposalExecuted","inputs":[{"name":"proposalId","type":"uint256","indexed":true,"internalType":"uint256"}],"anonymous":false},{"type":"event","name":"ProposalQueued","inputs":[{"name":"proposalId","type":"uint256","indexed":true,"internalType":"uint256"},{"name":"eta","type":"uint256","indexed":false,"internalType":"uint256"}],"anonymous":false},{"type":"event","name":"VoteCast","inputs":[{"name":"voter","type":"address","indexed":true,"internalType":"address"},{"name":"proposalId","type":"uint256","indexed":true,"internalType":"uint256"},{"name":"voteType","type":"uint8","indexed":false,"internalType":"enum IGovernor.VoteType"},{"name":"votes","type":"uint256","indexed":false,"internalType":"uint256"},{"name":"reason","type":"string","indexed":false,"internalType":"string"}],"anonymous":false},{"type":"error","name":"AlreadyVoted","inputs":[]},{"type":"error","name":"ExecutionFailed","inputs":[]},{"type":"error","name":"InsufficientVotingPower","inputs":[]},{"type":"error","name":"InvalidParameters","inputs":[]},{"type":"error","name":"InvalidProposalState","inputs":[]},{"type":"error","name":"NotAuthorized","inputs":[]},{"type":"error","name":"ProposalNotFound","inputs":[]},{"type":"error","name":"QuorumNotReached","inputs":[]},{"type":"error","name":"TimelockNotMet","inputs":[]},{"type":"error","name":"VotingEnded","inputs":[]},{"type":"error","name":"VotingNotStarted","inputs":[]}],"bytecode":{"object":"0x60a0346200012557601f62002b3338819003918201601f19168301916001600160401b038311848410176200012957808492604094855283398101031262000125576200005a602062000052836200013d565b92016200013d565b6001600160a01b039082821615620000f15716908115620000bc57608052600180546001600160a01b0319169190911781555f556040516129e09081620001538239608051818181610a450152818161212b015281816125bb01526127b90152f35b60405162461bcd60e51b815260206004820152600d60248201526c24b73b30b634b21030b236b4b760991b6044820152606490fd5b60405162461bcd60e51b815260206004820152600c60248201526b496e76616c6964207665515360a01b6044820152606490fd5b5f80fd5b634e487b7160e01b5f52604160045260245ffd5b51906001600160a01b0382168203620001255756fe6101c06040526004361015610012575f80fd5b5f3560e01c80633e4f49e6146122d257806340e58ee51461222257806356781388146121d857806359abab05146121b05780635ba1c1a9146107815780637b3c71d31461215a57806383dd229d146121165780639a79018e14610975578063a6c2660314610951578063ab58fb8e14610927578063b1610d7e14610781578063c7f758a814610786578063d6159fe514610781578063d95edd8d14610751578063da35c66414610734578063ddf0b009146106ac578063e23a9a52146105fa578063e26b2bea1461032a5763fe0d94c1146100eb575f80fd5b34610326576020806003193601126103265760043560025f54146102e15760025f55610116816123e4565b60088110156102cd576005036102bb57805f526006825260405f205442106102a9575f81815260038084526040808320600701805461ff0019166101001790556004855282206001949181860191600281019190875b61019b575b87877f712ae1383f79ac853f8d882153778e0260ef8f03b504e2866e0593e04d2b291f5f80a25f55005b80548610156102a4576101ae86826126e5565b905490831b1c6001600160a01b03166101c787866126e5565b905490841b1c6101d788866126e5565b5090604051918b5f9180546101eb816126ad565b92811690811561028d5750600114610258575b5050915f939181859403925af13d15610253573d61021b81612554565b906102296040519283612533565b81525f873d92013e5b1561024157878096019561016c565b604051632b3f6d1160e21b8152600490fd5b610232565b9091505f52885f208c8a5f925b84841061027b57505050908301905081836101fe565b8054878501529201918b908201610265565b60ff191686525050801515028301905081836101fe565b610171565b6040516327056b2160e01b8152600490fd5b60405163b437280360e01b8152600490fd5b634e487b7160e01b5f52602160045260245ffd5b60405162461bcd60e51b815260048101839052601f60248201527f5265656e7472616e637947756172643a207265656e7472616e742063616c6c006044820152606490fd5b5f80fd5b34610326576020806003193601126103265760043560606040805161034e816124e1565b82815282858201520152801580156105ef575b6105dd575f526004815260405f2060405161037b816124e1565b60405180818585549283815201855f52865f20925f5b888282106105be575050506103a892500382612533565b81526001908183019260405193848682549182815201915f52865f20905f5b8181106105ab57505050906103e0856002930386612533565b858301948552018054906103f382612696565b916104016040519384612533565b8083525f918252868220918784015b828210610506575050505060408201908152604051938585526080850192519260608787015283518091528660a087019401905f5b8181106104ea575050505190601f1992838682030160408701528680845192838152019301905f5b8181106104d75750505051948285830301606086015285519182815281810182808560051b8401019801945f925b8584106104a857888a0389f35b9091929394959685806104c48c8686869f030188528b51612399565b9b9901979695919091019301919061049b565b825185529388019391880191860161046d565b82516001600160a01b0316865294880194918801918601610445565b868960409a9697989a51925f93875461051e816126ad565b8083529085811690811561058f5750600114610556575b506105438185960382612533565b8152019401910190929795949397610410565b5f8981528481209096505b818710610578575050938401820193610543610535565b805483880186015293909501948d948a9401610561565b60ff19168584015250151560051b810183019450610543610535565b82548452928801929186019186016103c7565b85546001600160a01b0316845260019586019587955093019201610391565b60405163635e873760e01b8152600490fd5b506002548111610361565b34610326576040366003190112610326576024356001600160a01b03811690819003610326575f6040805161062e816124e1565b82815282602082015201526004355f52600560205260405f20905f52602052606060405f2060405190610660826124e1565b600160ff82548181161515855260081c169160208401926106808161237b565b8352015490604083019182526040519251151583525161069f8161237b565b6020830152516040820152f35b34610326576020366003190112610326576004356106c9816123e4565b60088110156102cd576004036102bb5762093a8042018042116107205760207f9a2e42fd6722813d69113e7d0079d3d940171428df7373df9c7f7617cfda289291835f52600682528060405f2055604051908152a2005b634e487b7160e01b5f52601160045260245ffd5b34610326575f366003190112610326576020600254604051908152f35b34610326576020366003190112610326576004356003811015610326576107796020916125a5565b604051908152f35b612301565b34610326576020366003190112610326576004355f6101406040516107aa816124c5565b8281528260208201528260408201528260608201528260808201528260a08201528260c08201528260e0820152826101008201528261012082015201528015801561091c575b6105dd575f52600360205261016060405f20600860405191610811836124c5565b8054835260018101546001600160a01b038116602085015260a01c60ff166108388161237b565b60408401526002810154606084015260038101546080840152600481015460a0840152600581015460c0840152600681015460e084015260ff60078201548181161515610100860152831c1615156101208401520154610140820152610140604051918051835260018060a01b03602082015116602084015260408101516108bf8161237b565b6040840152606081015160608401526080810151608084015260a081015160a084015260c081015160c084015260e081015160e0840152610100810151151561010084015261012081015115156101208401520151610140820152f35b5060025481116107f0565b34610326576020366003190112610326576004355f526006602052602060405f2054604051908152f35b34610326575f36600319011261032657602060405169152d02c7e14af68000008152f35b346103265760a0366003190112610326576004356001600160401b038111610326576109a590369060040161234b565b6024356001600160401b038111610326576109c490369060040161234b565b916044356001600160401b038111610326576109e490369060040161234b565b92906064356001600160401b03811161032657610a0590369060040161231e565b90610180529360036084351015610326578315612104578584036121045780840361210457604051636a292c0360e01b81523360048201526020816024817f00000000000000000000000000000000000000000000000000000000000000006001600160a01b03165afa80156120f9575f906120bd575b69152d02c7e14af68000009150106120ab576002546101a08190525f19146107205760016101a0510160025562093a80420142116107205762127500420162093a8042011161072057610ad336866101805161256f565b5f60c052604051610ae3816124fc565b61032036823760c052805190600182018211610720576088600183010490600182018211610720575f915b60018101831061137a57505050506001600160401b0360c05151166fffffffffffffffff0000000000000000602060c051015160401b1617604060c0510151906001600160401b0360c01b606060c051015160c01b16916001600160401b0360801b9060801b1617177eff00ff00ff00ff00ff00ff00ff00ff00ff00ff00ff00ff00ff00ff00ff00ff7fff00ff00ff00ff00ff00ff00ff00ff00ff00ff00ff00ff00ff00ff00ff00ff008260081b169160081c16177dffff0000ffff0000ffff0000ffff0000ffff0000ffff0000ffff0000ffff7fffff0000ffff0000ffff0000ffff0000ffff0000ffff0000ffff0000ffff00008260101b169160101c16177bffffffff00000000ffffffff00000000ffffffff00000000ffffffff7fffffffff00000000ffffffff00000000ffffffff00000000ffffffff000000008260201b169160201c161760405190610c64826124c5565b60016101a051018252336020830152610c7e60843561237b565b608435604083015262093a804201606083015262127500420160808301525f60a08301525f60c08301525f60e08301525f6101008301525f61012083015277ffffffffffffffff0000000000000000ffffffffffffffff198160401b1677ffffffffffffffff0000000000000000ffffffffffffffff8260401c161760801b9077ffffffffffffffff0000000000000000ffffffffffffffff80198260401b169160401c161760801c1761014082015260016101a051015f526003602052600861014060405f2092805184556001840160018060a01b036020830151168154906040840151610d6c8161237b565b610d758161237b565b60ff60a01b9060a01b16916affffffffffffffffffffff60a81b1617179055606081015160028501556080810151600385015560a0810151600485015560c0810151600585015560e08101516006850155600784016101008201511515815460ff61ff006101208601511515881b1692169061ffff1916171790550151910155604051610e01816124e1565b610e0a85612696565b610e176040519182612533565b85815260208101368760051b8b01116103265789905b8760051b8b0182106113625750508152610e4687612696565b610e536040519182612533565b87815260208101368960051b8701116103265785905b8960051b870182106113525750506020820152610e8582612696565b610e926040519182612533565b82815260208101368460051b8601116103265784905b8460051b86018210611316575050604082015260016101a051015f52600460205260405f209080518051906001600160401b03821161125c57600160401b821161125c57602090610efe83865481885587612928565b01835f5260205f205f5b8381106112f9575050505060208101518051906001600160401b03821161125c57600160401b821161125c5760018401805483825560209291610f4c918591612928565b01600184015f5260205f205f5b8381106112e5575050505060400151805190600160401b821161125c576002830154826002850155808310611270575b5060206002910192015f5260205f20915f905b828210611146575050505060016101a051015f52600360205260405f20916003600284015493015493604051958060e08801610fd960843561237b565b608435895260e060208a015252610100870199905f5b81811061111f5750505085890360408701528789526001600160fb1b03881161032657876005989392981b9060208a0137600582811b890186810360209081016060890152810183905260408082019a9284901b9091010197925f918491905b8484106110b8578a8a7f4b55809098873e1d0ea523b31b15e434e348b0e2f85e9fcaa3c987e737a111e28b8b8b608083015260a082015280840360c0820152806110a5339560016101a05101956101805161294b565b0390a3602060405160016101a051018152f35b909192939499603f198360051b83018203018c528a35601e198536030181121561032657840190602082359201916001600160401b0381116103265780360383136103265761110d602092839260019561294b565b9c019c0194019291909a94939a61104f565b90919a6020806001928e611138858060a01b0391612385565b168152019c01929101610fef565b80518051906001600160401b03821161125c5761116386546126ad565b90601f91828111611224575b5060209183116001146111b85792826001949360209386955f926111ad575b50505f19600383901b1c191690841b1787555b01940191019092610f9c565b015190505f8061118e565b90865f5260205f20915f5b601f198516811061120c575083602093600196938796938794601f198116106111f4575b505050811b0187556111a1565b01515f1960f88460031b161c191690555f80806111e7565b919260206001819286850151815501940192016111c3565b61124d90885f5260205f208480870160051c82019260208810611253575b0160051c0190612912565b8e61116f565b92508192611242565b634e487b7160e01b5f52604160045260245ffd5b600284015f5260205f20908382015b818301811061128f575050610f89565b8061129c600192546126ad565b806112a9575b500161127f565b601f9081811184146112c15750505f81555b8e6112a2565b6112dc5f9284845260208420920160051c8201858301612912565b818355556112bb565b600190602084519401938184015501610f59565b82516001600160a01b031681830155602090920191600101610f08565b81356001600160401b03811161032657860136601f820112156103265760209161134783923690848135910161256f565b815201910190610ea8565b8135815260209182019101610e69565b6020809161136f84612385565b815201910190610e2d565b826088819b98959c9996939a979402046088148a1517156107205799969492909593915f610160525b60116101605110156114ef575f96875b600889101561149757610160516101605160031b0460081461016051151715610720576113f3896113ee8e60886101605160031b91026123d7565b6123d7565b8a811015611451578b5181101561143d578b016020015160f81c905b898060031b046008148a151715610720576001600160401b0360ff600193168b60031b1b16179801976113b3565b634e487b7160e01b5f52603260045260245ffd5b808b03611461575060069061140f565b60888d810290810190811061072057608760888f0201116107205760888d02608701036114905760809061140f565b5f9061140f565b90929496989b91939597506001600160401b036114b96101605160c05161296b565b5116186001600160401b036114d36101605160c05161296b565b91169052600161016051016101605299969492909593916113a3565b94999196929790959398610320604051611508816124fc565b3690376040516101405261151e61014051612518565b60a0366101405137604051608052611537608051612518565b60a036608051376040516101008190526001600160401b03610320820190811191111761125c5761032061010051016040525f610100515260016020610100510152603e6040610100510152601c6060610100510152601b6080610100510152602460a0610100510152602c60c0610100510152600660e061010051015260376101008051015260146101206101005101526003610140610100510152600a610160610100510152602b61018061010051015260196101a061010051015260276101c061010051015260296101e0610100510152602d610200610100510152600f61022061010051015260156102406101005101526008610260610100510152601261028061010051015260026102a0610100510152603d6102c061010051015260386102e0610100510152600e61030061010051015260405160a05260a05161030060a05101106001600160401b0361030060a05101111761125c5761030060a05101604052600160a05152618082602060a051015267800000000000808a604060a0510152678000000080008000606060a051015261808b608060a0510152638000000160a08051015267800000008000808160c060a051015267800000000000800960e060a0510152608a61010060a0510152608861012060a0510152638000800961014060a0510152638000000a61016060a0510152638000808b61018060a051015267800000000000008b6101a060a05101526780000000000080896101c060a05101526780000000000080036101e060a051015267800000000000800261020060a051015267800000000000008061022060a051015261800a61024060a051015267800000008000000a61026060a051015267800000008000808161028060a05101526780000000000080806102a060a051015263800000016102c060a05101526780000000800080086102e060a05101525f610120525b601861012051106118095760010191610b0e565b999693909794919895926001600160401b038060c05151168160a060c051015116188161014060c05101511618816101e060c051015116188161028060c051015116181661014051526001600160401b03808080602060c0510151168160c08051015116188161016060c051015116188161020060c05101511618816102a060c05101511618168060206101405101528180604060c0510151168160e060c051015116188161018060c051015116188161022060c05101511618816102c060c051015116181660406101405101528180606060c0510151168161010060c05101511618816101a060c051015116188161024060c05101511618816102e060c051015116181660606101405101526119738280608060c0510151168161012060c05101511618816101c060c051015116188161026060c051015116188161030060c05101511618169182608061014051015267fffffffffffffffe600182603f1c169160011b161790565b1816806080515281806101405151166119a88260406101405101511667fffffffffffffffe600182603f1c169160011b161790565b18166020608051015281806020610140510151166119e28260606101405101511667fffffffffffffffe600182603f1c169160011b161790565b1816604060805101528180604061014051015116611a1c8260806101405101511667fffffffffffffffe600182603f1c169160011b161790565b1816606060805101528180606061014051015116611a538261014051511667fffffffffffffffe600182603f1c169160011b161790565b18166080805101528160c0515116181660c051526001600160401b0380602060805101511681602060c0510151161816602060c05101526001600160401b0380604060805101511681604060c0510151161816604060c05101526001600160401b0380606060805101511681606060c0510151161816606060c05101526001600160401b03806080805101511681608060c0510151161816608060c05101526001600160401b038060805151168160a060c051015116181660a060c05101526001600160401b038060206080510151168160c08051015116181660c0805101526001600160401b038060406080510151168160e060c051015116181660e060c05101526001600160401b038060606080510151168161010060c051015116181661010060c05101526001600160401b0380608080510151168161012060c051015116181661012060c05101526001600160401b038060805151168161014060c051015116181661014060c05101526001600160401b038060206080510151168161016060c051015116181661016060c05101526001600160401b038060406080510151168161018060c051015116181661018060c05101526001600160401b03806060608051015116816101a060c05101511618166101a060c05101526001600160401b038060808051015116816101c060c05101511618166101c060c05101526001600160401b03806080515116816101e060c05101511618166101e060c05101526001600160401b038060206080510151168161020060c051015116181661020060c05101526001600160401b038060406080510151168161022060c051015116181661022060c05101526001600160401b038060606080510151168161024060c051015116181661024060c05101526001600160401b0380608080510151168161026060c051015116181661026060c05101526001600160401b038060805151168161028060c051015116181661028060c05101526001600160401b03806020608051015116816102a060c05101511618166102a060c05101526001600160401b03806040608051015116816102c060c05101511618166102c060c05101526001600160401b03806060608051015116816102e060c05101511618166102e060c05101526001600160401b0380608080510151168161030060c051015116181661030060c051015260405160e052611dcf60e0516124fc565b6103203660e051375f5b6019811061200557505f5b600580821015611fc7578082810204820361072057611e0782820260e05161296b565b5190828102600181011061072057611e2660018483020160e05161296b565b51818402600281011061072057611e4460028584020160e05161296b565b5191848102600381011061072057611e6360038683020160e05161296b565b5190858102600481011061072057859182820260040160e05190611e869161296b565b519483830260c05190611e989161296b565b816001600160401b03871619166001600160401b03166001600160401b038916186001600160401b0316905283830260010160c05190611ed79161296b565b826001600160401b03831619166001600160401b03166001600160401b038716186001600160401b0316905283830260020160c05190611f169161296b565b90866001600160401b03841619166001600160401b0316906001600160401b0316186001600160401b0316905282820260030160c05190611f569161296b565b90866001600160401b03871619166001600160401b0316906001600160401b0316186001600160401b031690520260040160c05190611f949161296b565b926001600160401b031619166001600160401b0316906001600160401b0316186001600160401b03169052600101611de4565b5050929598919497909396996001600160401b03806101205160051b60a0510151168160c0515116181660c0515260016101205101610120526117f5565b600581066001600160ff1b038116900361072057600360058204810204600582040361072057600561204181830460030282840660011b6123d7565b06906120706001600160401b0361205a8360c05161296b565b5116612069836101005161296b565b519061297c565b6005838102048303610720576001600160401b036120a1612099600195600502600586046123d7565b60e05161296b565b9116905201611dd9565b60405163cabeb65560e01b8152600490fd5b506020813d6020116120f1575b816120d760209383612533565b810103126103265769152d02c7e14af68000009051610a7c565b3d91506120ca565b6040513d5f823e3d90fd5b604051630e52390960e41b8152600490fd5b34610326575f366003190112610326576040517f00000000000000000000000000000000000000000000000000000000000000006001600160a01b03168152602090f35b3461032657606036600319011261032657602435600381101561032657604435906001600160401b038211610326576121a461219d6121ae93369060040161231e565b369161256f565b903360043561273e565b005b346103265760203660031901126103265760206121ce6004356126fa565b6040519015158152f35b346103265760403660031901126103265760243560038110156103265760405160208101918183106001600160401b0384111761125c576121ae926040525f82523360043561273e565b3461032657602036600319011261032657600435805f52600360205260405f208054156105dd57600781019081549060ff8260081c166102bb5760ff82166102bb5760010154336001600160a01b03918216141590816122c3575b506122b15760ff191660011790557f789cf55be980739dad1d0699b93b58e806b51c9d96619bfa8fe0a28abaa7b30c5f80a2005b60405163ea8e4eb560e01b8152600490fd5b9050600154163314158461227d565b34610326576020366003190112610326576122ee6004356123e4565b60405160088210156102cd576020918152f35b34610326575f36600319011261032657602060405162093a808152f35b9181601f84011215610326578235916001600160401b038311610326576020838186019501011161032657565b9181601f84011215610326578235916001600160401b038311610326576020808501948460051b01011161032657565b600311156102cd57565b35906001600160a01b038216820361032657565b91908251928382525f5b8481106123c3575050825f602080949584010152601f8019910116010190565b6020818301810151848301820152016123a3565b9190820180921161072057565b801580156124ba575b6105dd57805f52600360205260405f20600781015460ff81166124b25760081c60ff166124ab57600281015442106124a557600381015442111561249e57612434826126fa565b1590811561248a575b50612484575f52600660205260405f2054801561247e578042106124785762127500810180911161072057421161247357600590565b600690565b50600590565b50600490565b50600390565b90506005600482015491015410155f61243d565b5050600190565b50505f90565b5050600790565b505050600290565b5060025481116123ed565b61016081019081106001600160401b0382111761125c57604052565b606081019081106001600160401b0382111761125c57604052565b61032081019081106001600160401b0382111761125c57604052565b60a081019081106001600160401b0382111761125c57604052565b90601f801991011681019081106001600160401b0382111761125c57604052565b6001600160401b03811161125c57601f01601f191660200190565b92919261257b82612554565b916125896040519384612533565b829481845281830111610326578281602093845f960137010152565b6040516311acc1a760e01b8152906020826004817f00000000000000000000000000000000000000000000000000000000000000006001600160a01b03165afa9182156120f9575f92612662575b506125fd8161237b565b8061261d57508060021b9080820460041490151715610720576064900490565b8061262960019261237b565b03612648578060031b9080820460081490151715610720576064900490565b600f810290808204600f1490151715610720576064900490565b9091506020813d60201161268e575b8161267e60209383612533565b810103126103265751905f6125f3565b3d9150612671565b6001600160401b03811161125c5760051b60200190565b90600182811c921680156126db575b60208310146126c757565b634e487b7160e01b5f52602260045260245ffd5b91607f16916126bc565b805482101561143d575f5260205f2001905f90565b5f52600360205260405f2061273960ff600161272d61272260048601546005870154906123d7565b6006860154906123d7565b93015460a01c166125a5565b111590565b92909161274a846123e4565b60088110156102cd576001036102bb57835f52602091600583526040805f209460018060a01b0380911695865f528552815f2080549060ff821661290157885f5260038752835f209187600284015460448b8851978893849263eaeded5f60e01b8452600484015260248301527f0000000000000000000000000000000000000000000000000000000000000000165afa9384156128f7575f946128c8575b5083156128b757926060928160016128819794818b9a9861282b7fb8e138887d0aa13bab447e82de9d5c1777041ecd21ca36ba824ff1e6c07ddda49e9d61237b565b61ffff191660088c901b61ff00161717815501556128488761237b565b600187036128865760040161285e8282546123d7565b90555b8151968661286f899861237b565b87528601528401526060830190612399565b0390a3565b61288f8761237b565b866128a9576005016128a28282546123d7565b9055612861565b6006016128a28282546123d7565b845163cabeb65560e01b8152600490fd5b9093508781813d83116128f0575b6128e08183612533565b810103126103265751925f6127e9565b503d6128d6565b85513d5f823e3d90fd5b8351637c9a1cf960e01b8152600490fd5b81811061291d575050565b5f8155600101612912565b9181811061293557505050565b612949925f5260205f209182019101612912565b565b908060209392818452848401375f828201840152601f01601f1916010190565b90601981101561143d5760051b0190565b81156129a5576001600160401b038091168260400360408111610720578183911c16921b161790565b90509056fea26469706673582212200889286d11519df29aa3d8a06756536986edf3870173db16e93bce3c096d666164736f6c63430008180033","linkReferences":{}},"methodIdentifiers":{"PROPOSAL_THRESHOLD()":"a6c26603","TIMELOCK_DELAY()":"5ba1c1a9","VOTING_DELAY()":"d6159fe5","VOTING_PERIOD()":"b1610d7e","cancel(uint256)":"40e58ee5","castVote(uint256,uint8)":"56781388","castVoteWithReason(uint256,uint8,string)":"7b3c71d3","execute(uint256)":"fe0d94c1","getProposal(uint256)":"c7f758a8","getProposalActions(uint256)":"e26b2bea","getReceipt(uint256,address)":"e23a9a52","hasReachedQuorum(uint256)":"59abab05","proposalCount()":"da35c664","proposalEta(uint256)":"ab58fb8e","propose(address[],uint256[],bytes[],string,uint8)":"9a79018e","queue(uint256)":"ddf0b009","quorum(uint8)":"d95edd8d","state(uint256)":"3e4f49e6","veQS()":"83dd229d"},"id":38}