{"abi":[{"type":"constructor","inputs":[{"name":"qsToken_","type":"address","internalType":"address"},{"name":"insuranceFund_","type":"address","internalType":"address"},{"name":"admin_","type":"address","internalType":"address"},{"name":"slashingContract_","type":"address","internalType":"address"}],"stateMutability":"nonpayable"},{"type":"function","name":"BASIS_POINTS","inputs":[],"outputs":[{"name":"","type":"uint256","internalType":"uint256"}],"stateMutability":"view"},{"type":"function","name":"BURN_ADDRESS","inputs":[],"outputs":[{"name":"","type":"address","internalType":"address"}],"stateMutability":"view"},{"type":"function","name":"BURN_SHARE","inputs":[],"outputs":[{"name":"","type":"uint256","internalType":"uint256"}],"stateMutability":"view"},{"type":"function","name":"CHALLENGER_SHARE","inputs":[],"outputs":[{"name":"","type":"uint256","internalType":"uint256"}],"stateMutability":"view"},{"type":"function","name":"INSURANCE_SHARE","inputs":[],"outputs":[{"name":"","type":"uint256","internalType":"uint256"}],"stateMutability":"view"},{"type":"function","name":"addRewards","inputs":[{"name":"amount","type":"uint256","internalType":"uint256"}],"outputs":[],"stateMutability":"nonpayable"},{"type":"function","name":"claimReward","inputs":[],"outputs":[{"name":"amount","type":"uint256","internalType":"uint256"}],"stateMutability":"nonpayable"},{"type":"function","name":"deregisterObserver","inputs":[{"name":"observer","type":"address","internalType":"address"}],"outputs":[],"stateMutability":"nonpayable"},{"type":"function","name":"emergencyWithdraw","inputs":[{"name":"to","type":"address","internalType":"address"},{"name":"amount","type":"uint256","internalType":"uint256"}],"outputs":[],"stateMutability":"nonpayable"},{"type":"function","name":"getChallengeReward","inputs":[{"name":"challengeId","type":"uint256","internalType":"uint256"}],"outputs":[{"name":"","type":"tuple","internalType":"struct IObserverRewardPool.ChallengeReward","components":[{"name":"challengeId","type":"uint256","internalType":"uint256"},{"name":"observer","type":"address","internalType":"address"},{"name":"slashedProver","type":"address","internalType":"address"},{"name":"rewardAmount","type":"uint256","internalType":"uint256"},{"name":"timestamp","type":"uint256","internalType":"uint256"},{"name":"claimed","type":"bool","internalType":"bool"}]}],"stateMutability":"view"},{"type":"function","name":"getObserverReward","inputs":[{"name":"observer","type":"address","internalType":"address"}],"outputs":[{"name":"","type":"tuple","internalType":"struct IObserverRewardPool.ObserverReward","components":[{"name":"pendingRewards","type":"uint256","internalType":"uint256"},{"name":"totalClaimed","type":"uint256","internalType":"uint256"},{"name":"lastClaimTime","type":"uint256","internalType":"uint256"},{"name":"challengeCount","type":"uint256","internalType":"uint256"}]}],"stateMutability":"view"},{"type":"function","name":"insuranceFund","inputs":[],"outputs":[{"name":"","type":"address","internalType":"address"}],"stateMutability":"view"},{"type":"function","name":"pendingRewards","inputs":[{"name":"observer","type":"address","internalType":"address"}],"outputs":[{"name":"","type":"uint256","internalType":"uint256"}],"stateMutability":"view"},{"type":"function","name":"qsToken","inputs":[],"outputs":[{"name":"","type":"address","internalType":"address"}],"stateMutability":"view"},{"type":"function","name":"recordChallengeReward","inputs":[{"name":"challengeId","type":"uint256","internalType":"uint256"},{"name":"observer","type":"address","internalType":"address"},{"name":"slashedProver","type":"address","internalType":"address"},{"name":"totalSlashAmount","type":"uint256","internalType":"uint256"}],"outputs":[],"stateMutability":"nonpayable"},{"type":"function","name":"registerObserver","inputs":[{"name":"observer","type":"address","internalType":"address"}],"outputs":[],"stateMutability":"nonpayable"},{"type":"function","name":"setSlashingContract","inputs":[{"name":"newSlashing","type":"address","internalType":"address"}],"outputs":[],"stateMutability":"nonpayable"},{"type":"function","name":"totalDistributed","inputs":[],"outputs":[{"name":"","type":"uint256","internalType":"uint256"}],"stateMutability":"view"},{"type":"event","name":"BaseRewardsAdded","inputs":[{"name":"amount","type":"uint256","indexed":false,"internalType":"uint256"},{"name":"from","type":"address","indexed":true,"internalType":"address"}],"anonymous":false},{"type":"event","name":"ChallengeRewardRecorded","inputs":[{"name":"challengeId","type":"uint256","indexed":true,"internalType":"uint256"},{"name":"observer","type":"address","indexed":true,"internalType":"address"},{"name":"slashedProver","type":"address","indexed":true,"internalType":"address"},{"name":"rewardAmount","type":"uint256","indexed":false,"internalType":"uint256"}],"anonymous":false},{"type":"event","name":"RewardClaimed","inputs":[{"name":"observer","type":"address","indexed":true,"internalType":"address"},{"name":"amount","type":"uint256","indexed":false,"internalType":"uint256"},{"name":"totalClaimed","type":"uint256","indexed":false,"internalType":"uint256"}],"anonymous":false},{"type":"event","name":"SlashRewardsAdded","inputs":[{"name":"challengeId","type":"uint256","indexed":true,"internalType":"uint256"},{"name":"challengerReward","type":"uint256","indexed":false,"internalType":"uint256"},{"name":"insuranceAmount","type":"uint256","indexed":false,"internalType":"uint256"},{"name":"burnAmount","type":"uint256","indexed":false,"internalType":"uint256"}],"anonymous":false},{"type":"error","name":"ChallengeAlreadyRecorded","inputs":[]},{"type":"error","name":"InvalidAddress","inputs":[]},{"type":"error","name":"NoRewardsToClaim","inputs":[]},{"type":"error","name":"NotAuthorized","inputs":[]},{"type":"error","name":"ObserverNotRegistered","inputs":[]},{"type":"error","name":"ZeroAmount","inputs":[]}],"bytecode":{"object":"0x60c060405234801562000010575f80fd5b506040516200103638038062001036833981016040819052620000339162000183565b6001600160a01b038416620000825760405162461bcd60e51b815260206004820152601060248201526f24b73b30b634b21028a9903a37b5b2b760811b60448201526064015b60405180910390fd5b6001600160a01b038316620000da5760405162461bcd60e51b815260206004820152601660248201527f496e76616c696420696e737572616e63652066756e6400000000000000000000604482015260640162000079565b6001600160a01b038216620001225760405162461bcd60e51b815260206004820152600d60248201526c24b73b30b634b21030b236b4b760991b604482015260640162000079565b6001600160a01b0393841660805291831660a052600180549184166001600160a01b0319928316178155600280549390941692909116919091179091555f55620001dd565b80516001600160a01b03811681146200017e575f80fd5b919050565b5f805f806080858703121562000197575f80fd5b620001a28562000167565b9350620001b26020860162000167565b9250620001c26040860162000167565b9150620001d26060860162000167565b905092959194509250565b60805160a051610e22620002145f395f81816102f9015261061e01525f818161035301528181610ad40152610bff0152610e225ff3fe608060405234801561000f575f80fd5b5060043610610111575f3560e01c8063b3d481c21161009e578063c5ebfa9a1161006e578063c5ebfa9a1461034e578063cab3a58114610375578063e1f1c4a714610388578063efca2eed14610391578063fccc281314610399575f80fd5b8063b3d481c2146102e1578063b7902303146102f4578063b88a802f14610333578063beceed391461033b575f80fd5b806356b30703116100e457806356b307031461018157806393b998fb1461018157806395ccea671461018a578063a3822fb21461019d578063a73995001461029b575f80fd5b80630f45354d146101155780631a4bcf421461012a5780632c07398d1461014657806331d7a26214610159575b5f80fd5b610128610123366004610c73565b6103a2565b005b61013361177081565b6040519081526020015b60405180910390f35b610128610154366004610cb4565b61070b565b610133610167366004610cb4565b6001600160a01b03165f9081526004602052604090205490565b6101336107d081565b610128610198366004610cd4565b610780565b6102446101ab366004610cfc565b6040805160c0810182525f80825260208201819052918101829052606081018290526080810182905260a0810191909152505f90815260056020818152604092839020835160c0810185528154815260018201546001600160a01b0390811693820193909352600282015490921693820193909352600383015460608201526004830154608082015291015460ff16151560a082015290565b60408051825181526020808401516001600160a01b0390811691830191909152838301511691810191909152606080830151908201526080808301519082015260a09182015115159181019190915260c00161013d565b6102ae6102a9366004610cb4565b6107b9565b60405161013d91908151815260208083015190820152604080830151908201526060918201519181019190915260800190565b6101286102ef366004610cb4565b61082d565b61031b7f000000000000000000000000000000000000000000000000000000000000000081565b6040516001600160a01b03909116815260200161013d565b610133610878565b610128610349366004610cfc565b6109c7565b61031b7f000000000000000000000000000000000000000000000000000000000000000081565b610128610383366004610cb4565b610a40565b61013361271081565b600354610133565b61031b61dead81565b6002546001600160a01b031633146103cd5760405163ea8e4eb560e01b815260040160405180910390fd5b60025f54036104235760405162461bcd60e51b815260206004820152601f60248201527f5265656e7472616e637947756172643a207265656e7472616e742063616c6c0060448201526064015b60405180910390fd5b60025f9081558481526005602052604090206003015415610457576040516357fae5b560e01b815260040160405180910390fd5b805f0361047757604051631f2a200560e01b815260040160405180910390fd5b5f61271061048761177084610d27565b6104919190610d44565b90505f6127106104a36107d085610d27565b6104ad9190610d44565b90505f816104bb8486610d63565b6104c59190610d63565b90506040518060c00160405280888152602001876001600160a01b03168152602001866001600160a01b031681526020018481526020014281526020015f151581525060055f8981526020019081526020015f205f820151815f01556020820151816001015f6101000a8154816001600160a01b0302191690836001600160a01b031602179055506040820151816002015f6101000a8154816001600160a01b0302191690836001600160a01b03160217905550606082015181600301556080820151816004015560a0820151816005015f6101000a81548160ff0219169083151502179055509050508260045f886001600160a01b03166001600160a01b031681526020019081526020015f205f015f8282546105e39190610d76565b90915550506001600160a01b0386165f90815260046020526040812060030180549161060e83610d89565b90915550508115610643576106437f000000000000000000000000000000000000000000000000000000000000000083610ab4565b80156106555761065561dead82610ab4565b8260035f8282546106669190610d76565b92505081905550846001600160a01b0316866001600160a01b0316887f3a565abf1a008a0dc9e2334cb9392a02d4f065cdfd2ea2567a3cd00b365bb2ee866040516106b391815260200190565b60405180910390a4604080518481526020810184905290810182905287907f9d1d37daf60b3e000619986435ea4c4e5cf35329bf43918b7e01d7c1d52ce8299060600160405180910390a2505060015f555050505050565b6001546001600160a01b031633146107365760405163ea8e4eb560e01b815260040160405180910390fd5b6001600160a01b03811661075d5760405163e6c4247b60e01b815260040160405180910390fd5b6001600160a01b03165f908152600660205260409020805460ff19166001179055565b6001546001600160a01b031633146107ab5760405163ea8e4eb560e01b815260040160405180910390fd5b6107b58282610ab4565b5050565b6107e060405180608001604052805f81526020015f81526020015f81526020015f81525090565b506001600160a01b03165f90815260046020908152604091829020825160808101845281548152600182015492810192909252600281015492820192909252600390910154606082015290565b6001546001600160a01b031633146108585760405163ea8e4eb560e01b815260040160405180910390fd5b6001600160a01b03165f908152600660205260409020805460ff19169055565b5f60025f54036108ca5760405162461bcd60e51b815260206004820152601f60248201527f5265656e7472616e637947756172643a207265656e7472616e742063616c6c00604482015260640161041a565b60025f9081553381526006602052604090205460ff166108fd5760405163583470a560e01b815260040160405180910390fd5b50335f908152600460205260408120549081900361092e576040516373380d9960e01b815260040160405180910390fd5b335f9081526004602052604081208181556001018054839290610952908490610d76565b9091555050335f818152600460205260409020426002909101556109769082610ab4565b335f81815260046020908152604091829020600101548251858152918201527ff01da32686223933d8a18a391060918c7f11a3648639edd87ae013e2e2731743910160405180910390a260015f5590565b805f036109e757604051631f2a200560e01b815260040160405180910390fd5b8060075f8282546109f89190610d76565b90915550610a0890503382610bd9565b60405181815233907f1a2aa946f789d25556bfff4383bdb7cef3e7b797d999a61ec0e37f73c27d48319060200160405180910390a250565b6001546001600160a01b03163314610a6b5760405163ea8e4eb560e01b815260040160405180910390fd5b6001600160a01b038116610a925760405163e6c4247b60e01b815260040160405180910390fd5b600280546001600160a01b0319166001600160a01b0392909216919091179055565b6040516001600160a01b038381166024830152604482018390525f9182917f0000000000000000000000000000000000000000000000000000000000000000169060640160408051601f198184030181529181526020820180516001600160e01b031663a9059cbb60e01b17905251610b2d9190610da1565b5f604051808303815f865af19150503d805f8114610b66576040519150601f19603f3d011682016040523d82523d5f602084013e610b6b565b606091505b5091509150818015610b95575080511580610b95575080806020019051810190610b959190610dcd565b610bd35760405162461bcd60e51b815260206004820152600f60248201526e151c985b9cd9995c8819985a5b1959608a1b604482015260640161041a565b50505050565b6040516001600160a01b038381166024830152306044830152606482018390525f9182917f0000000000000000000000000000000000000000000000000000000000000000169060840160408051601f198184030181529181526020820180516001600160e01b03166323b872dd60e01b17905251610b2d9190610da1565b80356001600160a01b0381168114610c6e575f80fd5b919050565b5f805f8060808587031215610c86575f80fd5b84359350610c9660208601610c58565b9250610ca460408601610c58565b9396929550929360600135925050565b5f60208284031215610cc4575f80fd5b610ccd82610c58565b9392505050565b5f8060408385031215610ce5575f80fd5b610cee83610c58565b946020939093013593505050565b5f60208284031215610d0c575f80fd5b5035919050565b634e487b7160e01b5f52601160045260245ffd5b8082028115828204841417610d3e57610d3e610d13565b92915050565b5f82610d5e57634e487b7160e01b5f52601260045260245ffd5b500490565b81810381811115610d3e57610d3e610d13565b80820180821115610d3e57610d3e610d13565b5f60018201610d9a57610d9a610d13565b5060010190565b5f82515f5b81811015610dc05760208186018101518583015201610da6565b505f920191825250919050565b5f60208284031215610ddd575f80fd5b81518015158114610ccd575f80fdfea264697066735822122046ebe6f79be3596041d8602808e017f5ed506224a5010f591bdf769358b641a664736f6c63430008180033","linkReferences":{}},"methodIdentifiers":{"BASIS_POINTS()":"e1f1c4a7","BURN_ADDRESS()":"fccc2813","BURN_SHARE()":"93b998fb","CHALLENGER_SHARE()":"1a4bcf42","INSURANCE_SHARE()":"56b30703","addRewards(uint256)":"beceed39","claimReward()":"b88a802f","deregisterObserver(address)":"b3d481c2","emergencyWithdraw(address,uint256)":"95ccea67","getChallengeReward(uint256)":"a3822fb2","getObserverReward(address)":"a7399500","insuranceFund()":"b7902303","pendingRewards(address)":"31d7a262","qsToken()":"c5ebfa9a","recordChallengeReward(uint256,address,address,uint256)":"0f45354d","registerObserver(address)":"2c07398d","setSlashingContract(address)":"cab3a581","totalDistributed()":"efca2eed"},"id":66}