{"abi":[{"type":"constructor","inputs":[{"name":"admin_","type":"address","internalType":"address"}],"stateMutability":"nonpayable"},{"type":"function","name":"ADMIN_INSTANT","inputs":[],"outputs":[{"name":"","type":"uint256","internalType":"uint256"}],"stateMutability":"view"},{"type":"function","name":"BASIC_FULL_MIN_STAKE","inputs":[],"outputs":[{"name":"","type":"uint256","internalType":"uint256"}],"stateMutability":"view"},{"type":"function","name":"DISABLED_MIN_STAKE","inputs":[],"outputs":[{"name":"","type":"uint256","internalType":"uint256"}],"stateMutability":"view"},{"type":"function","name":"DOWNGRADE_TIMELOCK","inputs":[],"outputs":[{"name":"","type":"uint256","internalType":"uint256"}],"stateMutability":"view"},{"type":"function","name":"UPGRADE_TIMELOCK","inputs":[],"outputs":[{"name":"","type":"uint256","internalType":"uint256"}],"stateMutability":"view"},{"type":"function","name":"cancelUpgrade","inputs":[],"outputs":[],"stateMutability":"nonpayable"},{"type":"function","name":"finalizeUpgrade","inputs":[],"outputs":[],"stateMutability":"nonpayable"},{"type":"function","name":"getAdmin","inputs":[],"outputs":[{"name":"","type":"address","internalType":"address"}],"stateMutability":"view"},{"type":"function","name":"getFeeToken","inputs":[],"outputs":[{"name":"","type":"address","internalType":"address"}],"stateMutability":"view"},{"type":"function","name":"getGovernanceSwitch","inputs":[],"outputs":[{"name":"","type":"address","internalType":"address"}],"stateMutability":"view"},{"type":"function","name":"getMinimumStake","inputs":[],"outputs":[{"name":"","type":"uint256","internalType":"uint256"}],"stateMutability":"view"},{"type":"function","name":"getPendingUpgrade","inputs":[],"outputs":[{"name":"","type":"uint8","internalType":"enum ITokenSwitch.TokenMode"}],"stateMutability":"view"},{"type":"function","name":"getStakeCurrency","inputs":[],"outputs":[{"name":"","type":"address","internalType":"address"}],"stateMutability":"view"},{"type":"function","name":"getTimeLockExpiry","inputs":[],"outputs":[{"name":"","type":"uint256","internalType":"uint256"}],"stateMutability":"view"},{"type":"function","name":"getTokenAddress","inputs":[],"outputs":[{"name":"","type":"address","internalType":"address"}],"stateMutability":"view"},{"type":"function","name":"getTokenMode","inputs":[],"outputs":[{"name":"","type":"uint8","internalType":"enum ITokenSwitch.TokenMode"}],"stateMutability":"view"},{"type":"function","name":"hasPendingUpgrade","inputs":[],"outputs":[{"name":"","type":"bool","internalType":"bool"}],"stateMutability":"view"},{"type":"function","name":"isStakingEnabled","inputs":[],"outputs":[{"name":"","type":"bool","internalType":"bool"}],"stateMutability":"view"},{"type":"function","name":"isTimeLockActive","inputs":[],"outputs":[{"name":"","type":"bool","internalType":"bool"}],"stateMutability":"view"},{"type":"function","name":"isVeQSEnabled","inputs":[],"outputs":[{"name":"","type":"bool","internalType":"bool"}],"stateMutability":"view"},{"type":"function","name":"setGovernanceSwitch","inputs":[{"name":"governanceSwitch_","type":"address","internalType":"address"}],"outputs":[],"stateMutability":"nonpayable"},{"type":"function","name":"setTokenAddress","inputs":[{"name":"tokenAddress","type":"address","internalType":"address"}],"outputs":[],"stateMutability":"nonpayable"},{"type":"function","name":"setTokenMode","inputs":[{"name":"newMode","type":"uint8","internalType":"enum ITokenSwitch.TokenMode"}],"outputs":[],"stateMutability":"nonpayable"},{"type":"event","name":"FeeTokenUpdated","inputs":[{"name":"oldToken","type":"address","indexed":true,"internalType":"address"},{"name":"newToken","type":"address","indexed":true,"internalType":"address"}],"anonymous":false},{"type":"event","name":"GovernanceSwitchSet","inputs":[{"name":"governanceSwitch","type":"address","indexed":true,"internalType":"address"}],"anonymous":false},{"type":"event","name":"TokenAddressSet","inputs":[{"name":"tokenAddress","type":"address","indexed":true,"internalType":"address"}],"anonymous":false},{"type":"event","name":"TokenModeChanged","inputs":[{"name":"oldMode","type":"uint8","indexed":true,"internalType":"enum ITokenSwitch.TokenMode"},{"name":"newMode","type":"uint8","indexed":true,"internalType":"enum ITokenSwitch.TokenMode"},{"name":"changedBy","type":"address","indexed":true,"internalType":"address"}],"anonymous":false},{"type":"event","name":"UpgradeCancelled","inputs":[{"name":"targetMode","type":"uint8","indexed":true,"internalType":"enum ITokenSwitch.TokenMode"},{"name":"cancelledBy","type":"address","indexed":true,"internalType":"address"}],"anonymous":false},{"type":"event","name":"UpgradeInitiated","inputs":[{"name":"targetMode","type":"uint8","indexed":true,"internalType":"enum ITokenSwitch.TokenMode"},{"name":"initiator","type":"address","indexed":true,"internalType":"address"},{"name":"unlockTime","type":"uint256","indexed":false,"internalType":"uint256"}],"anonymous":false},{"type":"error","name":"GovernanceSwitchNotSet","inputs":[]},{"type":"error","name":"InsufficientTokenMode","inputs":[{"name":"required","type":"uint8","internalType":"enum ITokenSwitch.TokenMode"},{"name":"current","type":"uint8","internalType":"enum ITokenSwitch.TokenMode"}]},{"type":"error","name":"InvalidModeTransition","inputs":[{"name":"from","type":"uint8","internalType":"enum ITokenSwitch.TokenMode"},{"name":"to","type":"uint8","internalType":"enum ITokenSwitch.TokenMode"}]},{"type":"error","name":"InvalidTokenAddress","inputs":[]},{"type":"error","name":"NoPendingUpgrade","inputs":[]},{"type":"error","name":"NotGovernanceSwitch","inputs":[]},{"type":"error","name":"TimeLockNotExpired","inputs":[]},{"type":"error","name":"TokenAddressRequired","inputs":[]},{"type":"error","name":"Unauthorized","inputs":[]}],"bytecode":{"object":"0x608060405234801561000f575f80fd5b50604051610dd8380380610dd883398101604081905261002e916100a6565b6001600160a01b0381166100785760405162461bcd60e51b815260206004820152600d60248201526c24b73b30b634b21030b236b4b760991b604482015260640160405180910390fd5b600280546001600160a01b0319166001600160a01b03929092169190911790555f805460ff191690556100d3565b5f602082840312156100b6575f80fd5b81516001600160a01b03811681146100cc575f80fd5b9392505050565b610cf8806100e05f395ff3fe608060405234801561000f575f80fd5b5060043610610148575f3560e01c806393e39076116100bf578063cb9e9bff11610079578063cb9e9bff14610250578063d9bbd27814610258578063e29a9370146101c2578063e850f29a14610260578063eed2a4bd14610271578063fd28cd2314610282575f80fd5b806393e390761461020557806398dba2f7146102205780639a508c8e146102335780639e35369e1461023b578063c763bd7914610245578063ca709a251461014c575f80fd5b806327209b831161011057806327209b83146101b157806343c0a2f3146101c257806355f29166146101da5780636134bcef146101e25780636e9960c3146101ea57806383109db0146101fb575f80fd5b806310fe9ae81461014c57806311a30cf71461014c5780631a7960b31461017157806325ed32ca1461018657806326a4e8d21461019e575b5f80fd5b610154610289565b6040516001600160a01b0390911681526020015b60405180910390f35b61018461017f366004610bb8565b6102bf565b005b61019062093a8081565b604051908152602001610168565b6101846101ac366004610bdd565b6106e4565b6101906969e10de76676d080000081565b6101ca61082a565b6040519015158152602001610168565b610184610849565b600354610190565b6002546001600160a01b0316610154565b61019062278d0081565b600254600160a01b900460ff165b6040516101689190610c37565b61018461022e366004610bdd565b6108c7565b6101846109ad565b5f5460ff16610213565b60045460ff166101ca565b6101ca610a8d565b610190610aa7565b6001546001600160a01b0316610154565b6101906954b40b1f852bda00000081565b6101905f81565b5f805f5460ff1660028111156102a1576102a1610c03565b036102ab57505f90565b505f5461010090046001600160a01b031690565b6102c7610ae2565b5f5460ff168160028111156102de576102de610c03565b8160028111156102f0576102f0610c03565b0361031b578082604051631d32a94d60e01b8152600401610312929190610c4b565b60405180910390fd5b6001546001600160a01b03165f811561039557816001600160a01b031663dee5e55b6040518163ffffffff1660e01b8152600401602060405180830381865afa15801561036a573d5f803e3d5ffd5b505050506040513d601f19601f8201168201806040525081019061038e9190610c66565b9050610399565b5060015b60018160038111156103ad576103ad610c03565b0361048b575f8360028111156103c5576103c5610c03565b1480156103e3575060018460028111156103e1576103e1610c03565b145b1561048b575f5461010090046001600160a01b03166104155760405163075fe2b560e31b815260040160405180910390fd5b5f805485919060ff1916600183600281111561043357610433610c03565b02179055503384600281111561044b5761044b610c03565b84600281111561045d5761045d610c03565b6040517f1293638a623754476f6c1675d9c666c58388f0855ff412f705773a332d37b570905f90a450505050565b5f83600281111561049e5761049e610c03565b8560028111156104b0576104b0610c03565b1190505f8460028111156104c6576104c6610c03565b8660028111156104d8576104d8610c03565b1090505f821561052a5760018660028111156104f6576104f6610c03565b1480156105145750600287600281111561051257610512610c03565b145b15610523575062093a80610536565b505f610536565b8115610536575062278d005b801561061e575f87600281111561054f5761054f610c03565b1415801561056a57505f5461010090046001600160a01b0316155b156105885760405163075fe2b560e31b815260040160405180910390fd5b6002805488919060ff60a01b1916600160a01b83838111156105ac576105ac610c03565b02179055506105bb8142610c84565b6003556004805460ff19166001179055338760028111156105de576105de610c03565b7f9cbe1362661c436ae836ea8e418c794f7c1614e25851254977bc66564639be2a60035460405161061191815260200190565b60405180910390a36106db565b5f87600281111561063157610631610c03565b1415801561064c57505f5461010090046001600160a01b0316155b1561066a5760405163075fe2b560e31b815260040160405180910390fd5b5f805488919060ff1916600183600281111561068857610688610c03565b0217905550338760028111156106a0576106a0610c03565b8760028111156106b2576106b2610c03565b6040517f1293638a623754476f6c1675d9c666c58388f0855ff412f705773a332d37b570905f90a45b50505050505050565b6002546001600160a01b0316331461072b5760405162461bcd60e51b815260206004820152600a60248201526927b7363c9030b236b4b760b11b6044820152606401610312565b6001600160a01b0381166107795760405162461bcd60e51b8152602060048201526015602482015274496e76616c696420746f6b656e206164647265737360581b6044820152606401610312565b5f80546001600160a01b03838116610100818102610100600160a81b031985161785556040519304919091169290917fd82cad5fdc98633445b90f806f2e1a61a5409f92187ee9cd87f1da18c90692669190a2816001600160a01b0316816001600160a01b03161461082657816001600160a01b0316816001600160a01b03167f91a03e1d689caf891fe531c01e290f7b718f9c6a3af6726d6d837d2b7bd82e6760405160405180910390a35b5050565b5f60025f5460ff16600281111561084357610843610c03565b14905090565b610851610ae2565b60045460ff1661087457604051636eb093af60e11b815260040160405180910390fd5b600254600160a01b900460ff16610889610b9b565b3381600281111561089c5761089c610c03565b6040517f48ad8450b93ab7f7997d4b5231ee38ac0af60041ce50464a01d912071fc9dfa0905f90a350565b6002546001600160a01b0316331461090e5760405162461bcd60e51b815260206004820152600a60248201526927b7363c9030b236b4b760b11b6044820152606401610312565b6001600160a01b0381166109645760405162461bcd60e51b815260206004820152601960248201527f496e76616c696420676f7665726e616e636520737769746368000000000000006044820152606401610312565b600180546001600160a01b0319166001600160a01b0383169081179091556040517f660b682196df09daccc030388048a6a8b93425d3b9c250287993f4b468c2f25a905f90a250565b6109b5610ae2565b60045460ff166109d857604051636eb093af60e11b815260040160405180910390fd5b6003544210156109fb5760405163191f4d1b60e31b815260040160405180910390fd5b5f80546002805460ff80841694600160a01b9092041692839260ff19909116906001908490811115610a2f57610a2f610c03565b0217905550610a3c610b9b565b33816002811115610a4f57610a4f610c03565b836002811115610a6157610a61610c03565b6040517f1293638a623754476f6c1675d9c666c58388f0855ff412f705773a332d37b570905f90a45050565b6004545f9060ff168015610aa2575060035442105b905090565b5f805f5460ff166002811115610abf57610abf610c03565b03610ad357506954b40b1f852bda00000090565b506969e10de76676d080000090565b6002546001600160a01b03163303610af657565b6001546001600160a01b03168015610b8357604051637d7c0e1f60e01b8152630d175f5160e01b60048201523360248201526001600160a01b03821690637d7c0e1f90604401602060405180830381865afa158015610b57573d5f803e3d5ffd5b505050506040513d601f19601f82011682018060405250810190610b7b9190610ca3565b15610b835750565b6040516282b42960e81b815260040160405180910390fd5b6002805460ff60a01b191690555f6003556004805460ff19169055565b5f60208284031215610bc8575f80fd5b813560038110610bd6575f80fd5b9392505050565b5f60208284031215610bed575f80fd5b81356001600160a01b0381168114610bd6575f80fd5b634e487b7160e01b5f52602160045260245ffd5b60038110610c3357634e487b7160e01b5f52602160045260245ffd5b9052565b60208101610c458284610c17565b92915050565b60408101610c598285610c17565b610bd66020830184610c17565b5f60208284031215610c76575f80fd5b815160048110610bd6575f80fd5b80820180821115610c4557634e487b7160e01b5f52601160045260245ffd5b5f60208284031215610cb3575f80fd5b81518015158114610bd6575f80fdfea26469706673582212202a7acd49d6dd6817d6e6c77c4d6523dd769596d428fa6d9538555edaac514e5464736f6c63430008180033","linkReferences":{}},"methodIdentifiers":{"ADMIN_INSTANT()":"fd28cd23","BASIC_FULL_MIN_STAKE()":"27209b83","DISABLED_MIN_STAKE()":"eed2a4bd","DOWNGRADE_TIMELOCK()":"83109db0","UPGRADE_TIMELOCK()":"25ed32ca","cancelUpgrade()":"55f29166","finalizeUpgrade()":"9a508c8e","getAdmin()":"6e9960c3","getFeeToken()":"ca709a25","getGovernanceSwitch()":"e850f29a","getMinimumStake()":"d9bbd278","getPendingUpgrade()":"93e39076","getStakeCurrency()":"11a30cf7","getTimeLockExpiry()":"6134bcef","getTokenAddress()":"10fe9ae8","getTokenMode()":"9e35369e","hasPendingUpgrade()":"c763bd79","isStakingEnabled()":"e29a9370","isTimeLockActive()":"cb9e9bff","isVeQSEnabled()":"43c0a2f3","setGovernanceSwitch(address)":"98dba2f7","setTokenAddress(address)":"26a4e8d2","setTokenMode(uint8)":"1a7960b3"},"id":95}