{"abi":[{"type":"constructor","inputs":[{"name":"admin_","type":"address","internalType":"address"}],"stateMutability":"nonpayable"},{"type":"function","name":"ADMIN_INSTANT","inputs":[],"outputs":[{"name":"","type":"uint256","internalType":"uint256"}],"stateMutability":"view"},{"type":"function","name":"BASIC_FULL_MIN_STAKE","inputs":[],"outputs":[{"name":"","type":"uint256","internalType":"uint256"}],"stateMutability":"view"},{"type":"function","name":"DISABLED_MIN_STAKE","inputs":[],"outputs":[{"name":"","type":"uint256","internalType":"uint256"}],"stateMutability":"view"},{"type":"function","name":"DOWNGRADE_TIMELOCK","inputs":[],"outputs":[{"name":"","type":"uint256","internalType":"uint256"}],"stateMutability":"view"},{"type":"function","name":"UPGRADE_TIMELOCK","inputs":[],"outputs":[{"name":"","type":"uint256","internalType":"uint256"}],"stateMutability":"view"},{"type":"function","name":"cancelUpgrade","inputs":[],"outputs":[],"stateMutability":"nonpayable"},{"type":"function","name":"finalizeUpgrade","inputs":[],"outputs":[],"stateMutability":"nonpayable"},{"type":"function","name":"getAdmin","inputs":[],"outputs":[{"name":"","type":"address","internalType":"address"}],"stateMutability":"view"},{"type":"function","name":"getFeeToken","inputs":[],"outputs":[{"name":"","type":"address","internalType":"address"}],"stateMutability":"view"},{"type":"function","name":"getGovernanceSwitch","inputs":[],"outputs":[{"name":"","type":"address","internalType":"address"}],"stateMutability":"view"},{"type":"function","name":"getMinimumStake","inputs":[],"outputs":[{"name":"","type":"uint256","internalType":"uint256"}],"stateMutability":"view"},{"type":"function","name":"getPendingUpgrade","inputs":[],"outputs":[{"name":"","type":"uint8","internalType":"enum ITokenSwitch.TokenMode"}],"stateMutability":"view"},{"type":"function","name":"getStakeCurrency","inputs":[],"outputs":[{"name":"","type":"address","internalType":"address"}],"stateMutability":"view"},{"type":"function","name":"getTimeLockExpiry","inputs":[],"outputs":[{"name":"","type":"uint256","internalType":"uint256"}],"stateMutability":"view"},{"type":"function","name":"getTokenAddress","inputs":[],"outputs":[{"name":"","type":"address","internalType":"address"}],"stateMutability":"view"},{"type":"function","name":"getTokenMode","inputs":[],"outputs":[{"name":"","type":"uint8","internalType":"enum ITokenSwitch.TokenMode"}],"stateMutability":"view"},{"type":"function","name":"hasPendingUpgrade","inputs":[],"outputs":[{"name":"","type":"bool","internalType":"bool"}],"stateMutability":"view"},{"type":"function","name":"isStakingEnabled","inputs":[],"outputs":[{"name":"","type":"bool","internalType":"bool"}],"stateMutability":"view"},{"type":"function","name":"isTimeLockActive","inputs":[],"outputs":[{"name":"","type":"bool","internalType":"bool"}],"stateMutability":"view"},{"type":"function","name":"isVeQSEnabled","inputs":[],"outputs":[{"name":"","type":"bool","internalType":"bool"}],"stateMutability":"view"},{"type":"function","name":"setGovernanceSwitch","inputs":[{"name":"governanceSwitch_","type":"address","internalType":"address"}],"outputs":[],"stateMutability":"nonpayable"},{"type":"function","name":"setTokenAddress","inputs":[{"name":"tokenAddress","type":"address","internalType":"address"}],"outputs":[],"stateMutability":"nonpayable"},{"type":"function","name":"setTokenMode","inputs":[{"name":"newMode","type":"uint8","internalType":"enum ITokenSwitch.TokenMode"}],"outputs":[],"stateMutability":"nonpayable"},{"type":"event","name":"FeeTokenUpdated","inputs":[{"name":"oldToken","type":"address","indexed":true,"internalType":"address"},{"name":"newToken","type":"address","indexed":true,"internalType":"address"}],"anonymous":false},{"type":"event","name":"GovernanceSwitchSet","inputs":[{"name":"governanceSwitch","type":"address","indexed":true,"internalType":"address"}],"anonymous":false},{"type":"event","name":"TokenAddressSet","inputs":[{"name":"tokenAddress","type":"address","indexed":true,"internalType":"address"}],"anonymous":false},{"type":"event","name":"TokenModeChanged","inputs":[{"name":"oldMode","type":"uint8","indexed":true,"internalType":"enum ITokenSwitch.TokenMode"},{"name":"newMode","type":"uint8","indexed":true,"internalType":"enum ITokenSwitch.TokenMode"},{"name":"changedBy","type":"address","indexed":true,"internalType":"address"}],"anonymous":false},{"type":"event","name":"UpgradeCancelled","inputs":[{"name":"targetMode","type":"uint8","indexed":true,"internalType":"enum ITokenSwitch.TokenMode"},{"name":"cancelledBy","type":"address","indexed":true,"internalType":"address"}],"anonymous":false},{"type":"event","name":"UpgradeInitiated","inputs":[{"name":"targetMode","type":"uint8","indexed":true,"internalType":"enum ITokenSwitch.TokenMode"},{"name":"initiator","type":"address","indexed":true,"internalType":"address"},{"name":"unlockTime","type":"uint256","indexed":false,"internalType":"uint256"}],"anonymous":false},{"type":"error","name":"GovernanceSwitchNotSet","inputs":[]},{"type":"error","name":"InsufficientTokenMode","inputs":[{"name":"required","type":"uint8","internalType":"enum ITokenSwitch.TokenMode"},{"name":"current","type":"uint8","internalType":"enum ITokenSwitch.TokenMode"}]},{"type":"error","name":"InvalidModeTransition","inputs":[{"name":"from","type":"uint8","internalType":"enum ITokenSwitch.TokenMode"},{"name":"to","type":"uint8","internalType":"enum ITokenSwitch.TokenMode"}]},{"type":"error","name":"InvalidTokenAddress","inputs":[]},{"type":"error","name":"NoPendingUpgrade","inputs":[]},{"type":"error","name":"NotGovernanceSwitch","inputs":[]},{"type":"error","name":"TimeLockNotExpired","inputs":[]},{"type":"error","name":"TokenAddressRequired","inputs":[]},{"type":"error","name":"Unauthorized","inputs":[]}],"bytecode":{"object":"0x6080346100b857601f610c0538819003918201601f19168301916001600160401b038311848410176100bc578084926020946040528339810103126100b857516001600160a01b038116908190036100b857801561008357600280546001600160a01b0319169190911790555f805460ff19169055604051610b3490816100d18239f35b60405162461bcd60e51b815260206004820152600d60248201526c24b73b30b634b21030b236b4b760991b6044820152606490fd5b5f80fd5b634e487b7160e01b5f52604160045260245ffdfe604060808152600480361015610013575f80fd5b5f3560e01c90816310fe9ae81461061157816311a30cf7146101de5781631a7960b3146105e357816325ed32ca146105c657816326a4e8d2146104ce57816327209b83146104aa57816343c0a2f31461018357816355f29166146104335781636134bcef146104155781636e9960c3146103ed57816383109db0146103d057816393e39076146103a857816398dba2f7146102ee5781639a508c8e1461022c5781639e35369e14610204578163c763bd79146101e3578163ca709a25146101de578163cb9e9bff146101ab57508063d9bbd27814610188578063e29a937014610183578063e850f29a1461015b578063eed2a4bd146101375763fd28cd231461011a575f80fd5b34610133575f36600319011261013357602090515f8152f35b5f80fd5b5034610133575f36600319011261013357602090516954b40b1f852bda0000008152f35b5034610133575f3660031901126101335760015490516001600160a01b039091168152602090f35b61063d565b5034610133575f366003190112610133576020906101a4610a1a565b9051908152f35b8234610133575f3660031901126101335760ff602092541690816101d2575b519015158152f35b600354421091506101ca565b610611565b8234610133575f3660031901126101335760ff602092541690519015158152f35b8234610133575f366003190112610133575f54905160209160ff1661022881610668565b8152f35b8234610133575f36600319011261013357610245610a49565b60ff825416156102e15760035442106102d4575f5460ff81169060ff60025460a01c16809161027382610668565b60ff1916175f5561029a60ff60a01b19600254166002555f60035560ff1960045416600455565b6102a382610668565b6102ac81610668565b33917f1293638a623754476f6c1675d9c666c58388f0855ff412f705773a332d37b5705f80a4005b5163191f4d1b60e31b8152fd5b51636eb093af60e11b8152fd5b9050346101335760203660031901126101335780356001600160a01b03818116939184900361013357610326906002541633146109e1565b821561036557600180546001600160a01b03191684179055827f660b682196df09daccc030388048a6a8b93425d3b9c250287993f4b468c2f25a5f80a2005b906020606492519162461bcd60e51b8352820152601960248201527f496e76616c696420676f7665726e616e636520737769746368000000000000006044820152fd5b8234610133575f36600319011261013357600254905160209160a01c60ff1661022881610668565b8234610133575f366003190112610133576020905162278d008152f35b8234610133575f3660031901126101335760025490516001600160a01b039091168152602090f35b8234610133575f366003190112610133576020906003549051908152f35b8234610133575f3660031901126101335761044c610a49565b60ff825416156102e1576002805460ff60a01b1981169091555f6003556004805460ff1916905560a01c60ff1661048281610668565b33907f48ad8450b93ab7f7997d4b5231ee38ac0af60041ce50464a01d912071fc9dfa05f80a3005b8234610133575f36600319011261013357602090516969e10de76676d08000008152f35b905034610133576020366003190112610133576001600160a01b0381358181169390929084840361013357610508836002541633146109e1565b841561058b5750505f8054610100600160a81b03198116600894851b610100600160a81b031617825590921c169082907fd82cad5fdc98633445b90f806f2e1a61a5409f92187ee9cd87f1da18c90692669080a281810361056557005b7f91a03e1d689caf891fe531c01e290f7b718f9c6a3af6726d6d837d2b7bd82e675f80a3005b906020606492519162461bcd60e51b83528201526015602482015274496e76616c696420746f6b656e206164647265737360581b6044820152fd5b8234610133575f366003190112610133576020905162093a808152f35b34610133576020366003190112610133573560038110156101335761060f9061060a610a49565b6106e4565b005b34610133575f36600319011261013357602061062b610686565b6040516001600160a01b039091168152f35b34610133575f36600319011261013357602060ff5f541661065d81610668565b600260405191148152f35b6003111561067257565b634e487b7160e01b5f52602160045260245ffd5b5f5460ff811661069581610668565b156106a95760081c6001600160a01b031690565b505f90565b90601f8019910116810190811067ffffffffffffffff8211176106d057604052565b634e487b7160e01b5f52604160045260245ffd5b5f5460ff8116906106f483610668565b6106fd82610668565b8282146109b0576001546001600160a01b039190821680156109a95760206004916040519283809263dee5e55b60e01b82525afa90811561099e575f91610963575b505b61074a81610668565b1561090f575b5061075a83610668565b61076382610668565b61076c83610668565b61077582610668565b5f828411156108fb575061078882610668565b60018214806108e8575b156108e15762093a80915b821561086757506107ad83610668565b8215159081610858575b50610846576107c582610668565b6002805460ff60a01b191660a084901b60ff60a01b1617905542908101919082106108325781600355600160ff19600454161760045561080481610668565b6040519182527f9cbe1362661c436ae836ea8e418c794f7c1614e25851254977bc66564639be2a60203393a3565b634e487b7160e01b5f52601160045260245ffd5b60405163075fe2b560e31b8152600490fd5b90505f5460081c16155f6107b7565b92915061087382610668565b81151590816108d2575b506108465761088b81610668565b60ff195f541660ff8216175f556108a182610668565b6108aa81610668565b33917f1293638a623754476f6c1675d9c666c58388f0855ff412f705773a332d37b5705f80a4565b90505f5460081c16155f61087d565b5f9161079d565b506108f283610668565b60028314610792565b918084101561079d5762278d00925061079d565b61091883610668565b821580610950575b1561075057908160089493941c16156108465761093c82610668565b60ff191660ff8216175f556108a182610668565b5061095a84610668565b60018414610920565b90506020813d602011610996575b8161097e602093836106ae565b8101031261013357516003811015610133575f61073f565b3d9150610971565b6040513d5f823e3d90fd5b505f610741565b50604051631d32a94d60e01b815260449290916109cc81610668565b60048301526109da81610668565b6024820152fd5b156109e857565b60405162461bcd60e51b815260206004820152600a60248201526927b7363c9030b236b4b760b11b6044820152606490fd5b60ff5f5416610a2881610668565b15610a3b576969e10de76676d080000090565b6954b40b1f852bda00000090565b6002546001600160a01b039081163314610afb576001541680610a78575b6040516282b42960e81b8152600490fd5b604051637d7c0e1f60e01b8152630d175f5160e01b600482015233602482015290602090829060449082905afa90811561099e575f91610ac0575b50610abe5780610a67565b565b90506020813d602011610af3575b81610adb602093836106ae565b8101031261013357518015158103610133575f610ab3565b3d9150610ace565b5056fea2646970667358221220c9d27ce7d08b1ff0e7d323e8892569e8fee9595128f7dd13fca097d2bffa2eba64736f6c63430008180033","linkReferences":{}},"methodIdentifiers":{"ADMIN_INSTANT()":"fd28cd23","BASIC_FULL_MIN_STAKE()":"27209b83","DISABLED_MIN_STAKE()":"eed2a4bd","DOWNGRADE_TIMELOCK()":"83109db0","UPGRADE_TIMELOCK()":"25ed32ca","cancelUpgrade()":"55f29166","finalizeUpgrade()":"9a508c8e","getAdmin()":"6e9960c3","getFeeToken()":"ca709a25","getGovernanceSwitch()":"e850f29a","getMinimumStake()":"d9bbd278","getPendingUpgrade()":"93e39076","getStakeCurrency()":"11a30cf7","getTimeLockExpiry()":"6134bcef","getTokenAddress()":"10fe9ae8","getTokenMode()":"9e35369e","hasPendingUpgrade()":"c763bd79","isStakingEnabled()":"e29a9370","isTimeLockActive()":"cb9e9bff","isVeQSEnabled()":"43c0a2f3","setGovernanceSwitch(address)":"98dba2f7","setTokenAddress(address)":"26a4e8d2","setTokenMode(uint8)":"1a7960b3"},"id":11}